{
	"compilerInput": "{\"language\":\"Solidity\",\"sources\":{\"contracts/DappMiner.sol\":{\"content\":\"// SPDX-License-Identifier: MIT\\n// Compatible with OpenZeppelin Contracts ^5.6.0\\npragma solidity ^0.8.27;\\n\\nimport {AccountERC7579HookedUpgradeable} from \\\"@openzeppelin/contracts-upgradeable/account/extensions/draft-AccountERC7579HookedUpgradeable.sol\\\";\\nimport {AccountERC7579Upgradeable} from \\\"@openzeppelin/contracts-upgradeable/account/extensions/draft-AccountERC7579Upgradeable.sol\\\";\\nimport {MultiSignerERC7913Upgradeable} from \\\"@openzeppelin/contracts-upgradeable/utils/cryptography/signers/MultiSignerERC7913Upgradeable.sol\\\";\\nimport {Account} from \\\"@openzeppelin/contracts/account/Account.sol\\\";\\nimport {PackedUserOperation} from \\\"@openzeppelin/contracts/interfaces/draft-IERC4337.sol\\\";\\nimport {Initializable} from \\\"@openzeppelin/contracts/proxy/utils/Initializable.sol\\\";\\nimport {ERC1155Holder} from \\\"@openzeppelin/contracts/token/ERC1155/utils/ERC1155Holder.sol\\\";\\nimport {ERC721Holder} from \\\"@openzeppelin/contracts/token/ERC721/utils/ERC721Holder.sol\\\";\\nimport {EIP712} from \\\"@openzeppelin/contracts/utils/cryptography/EIP712.sol\\\";\\nimport {AbstractSigner} from \\\"@openzeppelin/contracts/utils/cryptography/signers/AbstractSigner.sol\\\";\\nimport {ERC7739} from \\\"@openzeppelin/contracts/utils/cryptography/signers/draft-ERC7739.sol\\\";\\n\\n/// @custom:security-contact bahansatekambing@gmail.com\\ncontract DappMiner is Initializable, Account, EIP712, ERC7739, AccountERC7579HookedUpgradeable, MultiSignerERC7913Upgradeable, ERC721Holder, ERC1155Holder {\\n    /// @custom:oz-upgrades-unsafe-allow-reachable constructor\\n    constructor() EIP712(\\\"DappMiner\\\", \\\"1\\\") {\\n        _disableInitializers();\\n    }\\n\\n    function initialize(bytes[] memory signers, uint64 threshold)\\n        public\\n        initializer\\n    {\\n        __AccountERC7579Hooked_init();\\n        __MultiSignerERC7913_init(signers, threshold);\\n    }\\n\\n    function isValidSignature(bytes32 hash, bytes calldata signature)\\n        public\\n        view\\n        override(AccountERC7579Upgradeable, ERC7739)\\n        returns (bytes4)\\n    {\\n        // ERC-7739 can return the ERC-1271 magic value, 0xffffffff (invalid) or 0x77390001 (detection).\\n        // If the returned value is 0xffffffff, fallback to ERC-7579 validation.\\n        bytes4 erc7739magic = ERC7739.isValidSignature(hash, signature);\\n        return erc7739magic == bytes4(0xffffffff) ? AccountERC7579Upgradeable.isValidSignature(hash, signature) : erc7739magic;\\n    }\\n\\n    function addSigners(bytes[] memory signers) public onlyEntryPointOrSelf {\\n        _addSigners(signers);\\n    }\\n\\n    function removeSigners(bytes[] memory signers) public onlyEntryPointOrSelf {\\n        _removeSigners(signers);\\n    }\\n\\n    function setThreshold(uint64 threshold) public onlyEntryPointOrSelf {\\n        _setThreshold(threshold);\\n    }\\n\\n    // The following functions are overrides required by Solidity.\\n\\n    function _validateUserOp(PackedUserOperation calldata userOp, bytes32 userOpHash, bytes calldata signature)\\n        internal\\n        override(Account, AccountERC7579Upgradeable)\\n        returns (uint256)\\n    {\\n        return super._validateUserOp(userOp, userOpHash, signature);\\n    }\\n\\n    // IMPORTANT: Make sure MultiSignerERC7913Upgradeable is more derived than AccountERC7579Upgradeable\\n    // in the inheritance chain (i.e. contract ... is AccountERC7579Upgradeable, ..., MultiSignerERC7913Upgradeable)\\n    // to ensure the correct order of function resolution.\\n    // AccountERC7579Upgradeable returns false for _rawSignatureValidation\\n    function _rawSignatureValidation(bytes32 hash, bytes calldata signature)\\n        internal\\n        view\\n        override(MultiSignerERC7913Upgradeable, AbstractSigner, AccountERC7579Upgradeable)\\n        returns (bool)\\n    {\\n        return super._rawSignatureValidation(hash, signature);\\n    }\\n}\\n\"},\"@openzeppelin/contracts-upgradeable/account/extensions/draft-AccountERC7579HookedUpgradeable.sol\":{\"content\":\"// SPDX-License-Identifier: MIT\\n// OpenZeppelin Contracts (last updated v5.6.0) (account/extensions/draft-AccountERC7579Hooked.sol)\\n\\npragma solidity ^0.8.26;\\n\\nimport {IERC7579Hook, MODULE_TYPE_HOOK} from \\\"@openzeppelin/contracts/interfaces/draft-IERC7579.sol\\\";\\nimport {ERC7579Utils, Mode} from \\\"@openzeppelin/contracts/account/utils/draft-ERC7579Utils.sol\\\";\\nimport {AccountERC7579Upgradeable} from \\\"./draft-AccountERC7579Upgradeable.sol\\\";\\nimport {Initializable} from \\\"@openzeppelin/contracts/proxy/utils/Initializable.sol\\\";\\n\\n/**\\n * @dev Extension of {AccountERC7579} with support for a single hook module (type 4).\\n *\\n * If installed, this extension will call the hook module's {IERC7579Hook-preCheck} before executing any operation\\n * with {_execute} (including {execute} and {executeFromExecutor} by default) and {IERC7579Hook-postCheck} thereafter.\\n *\\n * NOTE: Hook modules break the check-effect-interaction pattern. In particular, the {IERC7579Hook-preCheck} hook can\\n * lead to potentially dangerous reentrancy. Using the `withHook()` modifier is safe if no effect is performed\\n * before the preHook or after the postHook. That is the case on all functions here, but it may not be the case if\\n * functions that have this modifier are overridden. Developers should be extremely careful when implementing hook\\n * modules or further overriding functions that involve hooks.\\n */\\nabstract contract AccountERC7579HookedUpgradeable is Initializable, AccountERC7579Upgradeable {\\n    /// @custom:storage-location erc7201:openzeppelin.storage.AccountERC7579Hooked\\n    struct AccountERC7579HookedStorage {\\n        address _hook;\\n    }\\n\\n    // keccak256(abi.encode(uint256(keccak256(\\\"openzeppelin.storage.AccountERC7579Hooked\\\")) - 1)) & ~bytes32(uint256(0xff))\\n    bytes32 private constant AccountERC7579HookedStorageLocation = 0x2b49b75317ffc1021ca7da4ca3423bf8403e18b223e63e6bc7abe8f39a5ed700;\\n\\n    function _getAccountERC7579HookedStorage() private pure returns (AccountERC7579HookedStorage storage $) {\\n        assembly {\\n            $.slot := AccountERC7579HookedStorageLocation\\n        }\\n    }\\n\\n    /// @dev A hook module is already present. This contract only supports one hook module.\\n    error ERC7579HookModuleAlreadyPresent(address hook);\\n\\n    /**\\n     * @dev Calls {IERC7579Hook-preCheck} before executing the modified function and {IERC7579Hook-postCheck}\\n     * thereafter.\\n     */\\n    modifier withHook() {\\n        address hook_ = hook();\\n        bytes memory hookData;\\n\\n        // slither-disable-next-line reentrancy-no-eth\\n        if (hook_ != address(0)) hookData = IERC7579Hook(hook_).preCheck(msg.sender, msg.value, msg.data);\\n        _;\\n        if (hook_ != address(0)) IERC7579Hook(hook_).postCheck(hookData);\\n    }\\n\\n    function __AccountERC7579Hooked_init() internal onlyInitializing {\\n    }\\n\\n    function __AccountERC7579Hooked_init_unchained() internal onlyInitializing {\\n    }\\n    /// @inheritdoc AccountERC7579Upgradeable\\n    function accountId() public view virtual override returns (string memory) {\\n        // vendorname.accountname.semver\\n        return \\\"@openzeppelin/contracts.AccountERC7579Hooked.v1.0.0\\\";\\n    }\\n\\n    /// @dev Returns the hook module address if installed, or `address(0)` otherwise.\\n    function hook() public view virtual returns (address) {\\n        AccountERC7579HookedStorage storage $ = _getAccountERC7579HookedStorage();\\n        return $._hook;\\n    }\\n\\n    /// @dev Supports hook modules. See {AccountERC7579-supportsModule}\\n    function supportsModule(uint256 moduleTypeId) public view virtual override returns (bool) {\\n        return moduleTypeId == MODULE_TYPE_HOOK || super.supportsModule(moduleTypeId);\\n    }\\n\\n    /// @inheritdoc AccountERC7579Upgradeable\\n    function isModuleInstalled(\\n        uint256 moduleTypeId,\\n        address module,\\n        bytes calldata data\\n    ) public view virtual override returns (bool) {\\n        return\\n            (moduleTypeId == MODULE_TYPE_HOOK && module == hook()) ||\\n            super.isModuleInstalled(moduleTypeId, module, data);\\n    }\\n\\n    /// @dev Installs a module with support for hook modules. See {AccountERC7579-_installModule}\\n    function _installModule(\\n        uint256 moduleTypeId,\\n        address module,\\n        bytes memory initData\\n    ) internal virtual override withHook {\\n        AccountERC7579HookedStorage storage $ = _getAccountERC7579HookedStorage();\\n        if (moduleTypeId == MODULE_TYPE_HOOK) {\\n            require($._hook == address(0), ERC7579HookModuleAlreadyPresent($._hook));\\n            $._hook = module;\\n        }\\n        super._installModule(moduleTypeId, module, initData);\\n    }\\n\\n    /// @dev Uninstalls a module with support for hook modules. See {AccountERC7579-_uninstallModule}\\n    function _uninstallModule(\\n        uint256 moduleTypeId,\\n        address module,\\n        bytes memory deInitData\\n    ) internal virtual override withHook {\\n        AccountERC7579HookedStorage storage $ = _getAccountERC7579HookedStorage();\\n        if (moduleTypeId == MODULE_TYPE_HOOK) {\\n            require($._hook == module, ERC7579Utils.ERC7579UninstalledModule(moduleTypeId, module));\\n            $._hook = address(0);\\n        }\\n        super._uninstallModule(moduleTypeId, module, deInitData);\\n    }\\n\\n    /// @dev Hooked version of {AccountERC7579-_execute}.\\n    function _execute(\\n        Mode mode,\\n        bytes calldata executionCalldata\\n    ) internal virtual override withHook returns (bytes[] memory) {\\n        return super._execute(mode, executionCalldata);\\n    }\\n\\n    /// @dev Hooked version of {AccountERC7579-_fallback}.\\n    function _fallback() internal virtual override withHook returns (bytes memory) {\\n        return super._fallback();\\n    }\\n}\\n\"},\"@openzeppelin/contracts/interfaces/draft-IERC7579.sol\":{\"content\":\"// SPDX-License-Identifier: MIT\\n// OpenZeppelin Contracts (last updated v5.6.0) (interfaces/draft-IERC7579.sol)\\n\\npragma solidity >=0.8.4;\\n\\nimport {PackedUserOperation} from \\\"./draft-IERC4337.sol\\\";\\n\\nuint256 constant VALIDATION_SUCCESS = 0;\\nuint256 constant VALIDATION_FAILED = 1;\\nuint256 constant MODULE_TYPE_VALIDATOR = 1;\\nuint256 constant MODULE_TYPE_EXECUTOR = 2;\\nuint256 constant MODULE_TYPE_FALLBACK = 3;\\nuint256 constant MODULE_TYPE_HOOK = 4;\\n\\n/// @dev Minimal configuration interface for ERC-7579 modules\\ninterface IERC7579Module {\\n    /**\\n     * @dev This function is called by the smart account during installation of the module\\n     * @param data arbitrary data that may be passed to the module during `onInstall` initialization\\n     *\\n     * MUST revert on error (e.g. if module is already enabled)\\n     */\\n    function onInstall(bytes calldata data) external;\\n\\n    /**\\n     * @dev This function is called by the smart account during uninstallation of the module\\n     * @param data arbitrary data that may be passed to the module during `onUninstall` de-initialization\\n     *\\n     * MUST revert on error\\n     */\\n    function onUninstall(bytes calldata data) external;\\n\\n    /**\\n     * @dev Returns boolean value if module is a certain type\\n     * @param moduleTypeId the module type ID according the ERC-7579 spec\\n     *\\n     * MUST return true if the module is of the given type and false otherwise\\n     */\\n    function isModuleType(uint256 moduleTypeId) external view returns (bool);\\n}\\n\\n/**\\n * @dev ERC-7579 Validation module (type 1).\\n *\\n * A module that implements logic to validate user operations and signatures.\\n */\\ninterface IERC7579Validator is IERC7579Module {\\n    /**\\n     * @dev Validates a UserOperation\\n     * @param userOp the ERC-4337 PackedUserOperation\\n     * @param userOpHash the hash of the ERC-4337 PackedUserOperation\\n     *\\n     * MUST validate that the signature is a valid signature of the userOpHash\\n     * SHOULD return ERC-4337's SIG_VALIDATION_FAILED (and not revert) on signature mismatch\\n     * See {IAccount-validateUserOp} for additional information on the return value\\n     */\\n    function validateUserOp(PackedUserOperation calldata userOp, bytes32 userOpHash) external returns (uint256);\\n\\n    /**\\n     * @dev Validates a signature using ERC-1271\\n     * @param sender the address that sent the ERC-1271 request to the smart account\\n     * @param hash the hash of the ERC-1271 request\\n     * @param signature the signature of the ERC-1271 request\\n     *\\n     * MUST return the ERC-1271 `MAGIC_VALUE` if the signature is valid\\n     * MUST NOT modify state\\n     */\\n    function isValidSignatureWithSender(\\n        address sender,\\n        bytes32 hash,\\n        bytes calldata signature\\n    ) external view returns (bytes4);\\n}\\n\\n/**\\n * @dev ERC-7579 Hooks module (type 4).\\n *\\n * A module that implements logic to execute before and after the account executes a user operation,\\n * either individually or batched.\\n */\\ninterface IERC7579Hook is IERC7579Module {\\n    /**\\n     * @dev Called by the smart account before execution\\n     * @param msgSender the address that called the smart account\\n     * @param value the value that was sent to the smart account\\n     * @param msgData the data that was sent to the smart account\\n     *\\n     * MAY return arbitrary data in the `hookData` return value\\n     */\\n    function preCheck(\\n        address msgSender,\\n        uint256 value,\\n        bytes calldata msgData\\n    ) external returns (bytes memory hookData);\\n\\n    /**\\n     * @dev Called by the smart account after execution\\n     * @param hookData the data that was returned by the `preCheck` function\\n     *\\n     * MAY validate the `hookData` to validate transaction context of the `preCheck` function\\n     */\\n    function postCheck(bytes calldata hookData) external;\\n}\\n\\nstruct Execution {\\n    address target;\\n    uint256 value;\\n    bytes callData;\\n}\\n\\n/**\\n * @dev ERC-7579 Execution.\\n *\\n * Accounts should implement this interface so that the Entrypoint and ERC-7579 modules can execute operations.\\n */\\ninterface IERC7579Execution {\\n    /**\\n     * @dev Executes a transaction on behalf of the account.\\n     * @param mode The encoded execution mode of the transaction. See account/utils/draft-ERC7579Utils.sol (Mode encoding via encodeMode/decodeMode) for details\\n     * @param executionCalldata The encoded execution call data\\n     *\\n     * MUST ensure adequate authorization control: e.g. onlyEntryPointOrSelf if used with ERC-4337\\n     * If a mode is requested that is not supported by the Account, it MUST revert\\n     */\\n    function execute(bytes32 mode, bytes calldata executionCalldata) external payable;\\n\\n    /**\\n     * @dev Executes a transaction on behalf of the account.\\n     *         This function is intended to be called by Executor Modules\\n     * @param mode The encoded execution mode of the transaction. See account/utils/draft-ERC7579Utils.sol (Mode encoding via encodeMode/decodeMode) for details\\n     * @param executionCalldata The encoded execution call data\\n     * @return returnData An array with the returned data of each executed subcall\\n     *\\n     * MUST ensure adequate authorization control: i.e. onlyExecutorModule\\n     * If a mode is requested that is not supported by the Account, it MUST revert\\n     */\\n    function executeFromExecutor(\\n        bytes32 mode,\\n        bytes calldata executionCalldata\\n    ) external payable returns (bytes[] memory returnData);\\n}\\n\\n/**\\n * @dev ERC-7579 Account Config.\\n *\\n * Accounts should implement this interface to expose information that identifies the account, supported modules and capabilities.\\n */\\ninterface IERC7579AccountConfig {\\n    /**\\n     * @dev Returns the account id of the smart account\\n     * @return accountImplementationId the account id of the smart account\\n     *\\n     * MUST return a non-empty string\\n     * The accountId SHOULD be structured like so:\\n     *        \\\"vendorname.accountname.semver\\\"\\n     * The id SHOULD be unique across all smart accounts\\n     */\\n    function accountId() external view returns (string memory accountImplementationId);\\n\\n    /**\\n     * @dev Function to check if the account supports a certain execution mode (see above)\\n     * @param encodedMode the encoded mode\\n     *\\n     * MUST return true if the account supports the mode and false otherwise\\n     */\\n    function supportsExecutionMode(bytes32 encodedMode) external view returns (bool);\\n\\n    /**\\n     * @dev Function to check if the account supports a certain module typeId\\n     * @param moduleTypeId the module type ID according to the ERC-7579 spec\\n     *\\n     * MUST return true if the account supports the module type and false otherwise\\n     */\\n    function supportsModule(uint256 moduleTypeId) external view returns (bool);\\n}\\n\\n/**\\n * @dev ERC-7579 Module Config.\\n *\\n * Accounts should implement this interface to allow installing and uninstalling modules.\\n */\\ninterface IERC7579ModuleConfig {\\n    event ModuleInstalled(uint256 moduleTypeId, address module);\\n    event ModuleUninstalled(uint256 moduleTypeId, address module);\\n\\n    /**\\n     * @dev Installs a Module of a certain type on the smart account\\n     * @param moduleTypeId the module type ID according to the ERC-7579 spec\\n     * @param module the module address\\n     * @param initData arbitrary data that may be passed to the module during `onInstall`\\n     * initialization.\\n     *\\n     * MUST implement authorization control\\n     * MUST call `onInstall` on the module with the `initData` parameter if provided\\n     * MUST emit ModuleInstalled event\\n     * MUST revert if the module is already installed or the initialization on the module failed\\n     */\\n    function installModule(uint256 moduleTypeId, address module, bytes calldata initData) external;\\n\\n    /**\\n     * @dev Uninstalls a Module of a certain type on the smart account\\n     * @param moduleTypeId the module type ID according the ERC-7579 spec\\n     * @param module the module address\\n     * @param deInitData arbitrary data that may be passed to the module during `onUninstall`\\n     * deinitialization.\\n     *\\n     * MUST implement authorization control\\n     * MUST call `onUninstall` on the module with the `deInitData` parameter if provided\\n     * MUST emit ModuleUninstalled event\\n     * MUST revert if the module is not installed or the deInitialization on the module failed\\n     */\\n    function uninstallModule(uint256 moduleTypeId, address module, bytes calldata deInitData) external;\\n\\n    /**\\n     * @dev Returns whether a module is installed on the smart account\\n     * @param moduleTypeId the module type ID according the ERC-7579 spec\\n     * @param module the module address\\n     * @param additionalContext arbitrary data that may be passed to determine if the module is installed\\n     *\\n     * MUST return true if the module is installed and false otherwise\\n     */\\n    function isModuleInstalled(\\n        uint256 moduleTypeId,\\n        address module,\\n        bytes calldata additionalContext\\n    ) external view returns (bool);\\n}\\n\"},\"@openzeppelin/contracts/interfaces/draft-IERC4337.sol\":{\"content\":\"// SPDX-License-Identifier: MIT\\n// OpenZeppelin Contracts (last updated v5.6.0) (interfaces/draft-IERC4337.sol)\\n\\npragma solidity >=0.8.4;\\n\\n/**\\n * @dev A https://github.com/ethereum/ercs/blob/master/ERCS/erc-4337.md#useroperation[user operation] is composed of the following elements:\\n * - `sender` (`address`): The account making the operation\\n * - `nonce` (`uint256`): Anti-replay parameter (see “Semi-abstracted Nonce Support” )\\n * - `factory` (`address`): account factory, only for new accounts\\n * - `factoryData` (`bytes`): data for account factory (only if account factory exists)\\n * - `callData` (`bytes`): The data to pass to the sender during the main execution call\\n * - `callGasLimit` (`uint256`): The amount of gas to allocate the main execution call\\n * - `verificationGasLimit` (`uint256`): The amount of gas to allocate for the verification step\\n * - `preVerificationGas` (`uint256`): Extra gas to pay the bundler\\n * - `maxFeePerGas` (`uint256`): Maximum fee per gas (similar to EIP-1559 max_fee_per_gas)\\n * - `maxPriorityFeePerGas` (`uint256`): Maximum priority fee per gas (similar to EIP-1559 max_priority_fee_per_gas)\\n * - `paymaster` (`address`): Address of paymaster contract, (or empty, if account pays for itself)\\n * - `paymasterVerificationGasLimit` (`uint256`): The amount of gas to allocate for the paymaster validation code\\n * - `paymasterPostOpGasLimit` (`uint256`): The amount of gas to allocate for the paymaster post-operation code\\n * - `paymasterData` (`bytes`): Data for paymaster (only if paymaster exists)\\n * - `signature` (`bytes`): Data passed into the account to verify authorization\\n *\\n * When passed to on-chain contracts, the following packed version is used.\\n * - `sender` (`address`)\\n * - `nonce` (`uint256`)\\n * - `initCode` (`bytes`): concatenation of factory address and factoryData (or empty)\\n * - `callData` (`bytes`)\\n * - `accountGasLimits` (`bytes32`): concatenation of verificationGas (16 bytes) and callGas (16 bytes)\\n * - `preVerificationGas` (`uint256`)\\n * - `gasFees` (`bytes32`): concatenation of maxPriorityFeePerGas (16 bytes) and maxFeePerGas (16 bytes)\\n * - `paymasterAndData` (`bytes`): concatenation of paymaster fields (or empty)\\n *   For EntryPoint v0.9+, may optionally include `paymasterSignature` at the end:\\n *   `paymaster || paymasterVerificationGasLimit || paymasterPostOpGasLimit || paymasterData || paymasterSignature || paymasterSignatureSize || PAYMASTER_SIG_MAGIC`\\n * - `signature` (`bytes`)\\n */\\nstruct PackedUserOperation {\\n    address sender;\\n    uint256 nonce;\\n    bytes initCode; // `abi.encodePacked(factory, factoryData)`\\n    bytes callData;\\n    bytes32 accountGasLimits; // `abi.encodePacked(verificationGasLimit, callGasLimit)` 16 bytes each\\n    uint256 preVerificationGas;\\n    bytes32 gasFees; // `abi.encodePacked(maxPriorityFeePerGas, maxFeePerGas)` 16 bytes each\\n    bytes paymasterAndData; // `abi.encodePacked(paymaster, paymasterVerificationGasLimit, paymasterPostOpGasLimit, paymasterData[, paymasterSignature, paymasterSignatureSize, PAYMASTER_SIG_MAGIC])` (20 bytes, 16 bytes, 16 bytes, dynamic[, dynamic, 2 bytes, 8 bytes])\\n    bytes signature;\\n}\\n\\n/**\\n * @dev Aggregates and validates multiple signatures for a batch of user operations.\\n *\\n * A contract could implement this interface with custom validation schemes that allow signature aggregation,\\n * enabling significant optimizations and gas savings for execution and transaction data cost.\\n *\\n * Bundlers and clients whitelist supported aggregators.\\n *\\n * See https://eips.ethereum.org/EIPS/eip-7766[ERC-7766]\\n */\\ninterface IAggregator {\\n    /**\\n     * @dev Validates the signature for a user operation.\\n     * Returns an alternative signature that should be used during bundling.\\n     */\\n    function validateUserOpSignature(\\n        PackedUserOperation calldata userOp\\n    ) external view returns (bytes memory sigForUserOp);\\n\\n    /**\\n     * @dev Returns an aggregated signature for a batch of user operation's signatures.\\n     */\\n    function aggregateSignatures(\\n        PackedUserOperation[] calldata userOps\\n    ) external view returns (bytes memory aggregatesSignature);\\n\\n    /**\\n     * @dev Validates that the aggregated signature is valid for the user operations.\\n     *\\n     * Requirements:\\n     *\\n     * - The aggregated signature MUST match the given list of operations.\\n     */\\n    function validateSignatures(PackedUserOperation[] calldata userOps, bytes calldata signature) external view;\\n}\\n\\n/**\\n * @dev Handle nonce management for accounts.\\n *\\n * Nonces are used in accounts as a replay protection mechanism and to ensure the order of user operations.\\n * To avoid limiting the number of operations an account can perform, the interface allows using parallel\\n * nonces by using a `key` parameter.\\n *\\n * See https://eips.ethereum.org/EIPS/eip-4337#semi-abstracted-nonce-support[ERC-4337 semi-abstracted nonce support].\\n */\\ninterface IEntryPointNonces {\\n    /**\\n     * @dev Returns the nonce for a `sender` account and a `key`.\\n     *\\n     * Nonces for a certain `key` are always increasing.\\n     */\\n    function getNonce(address sender, uint192 key) external view returns (uint256 nonce);\\n}\\n\\n/**\\n * @dev Handle stake management for entities (i.e. accounts, paymasters, factories).\\n *\\n * The EntryPoint must implement the following API to let entities like paymasters have a stake,\\n * and thus have more flexibility in their storage access\\n * (see https://eips.ethereum.org/EIPS/eip-4337#reputation-scoring-and-throttlingbanning-for-global-entities[reputation, throttling and banning.])\\n */\\ninterface IEntryPointStake {\\n    /**\\n     * @dev Returns the balance of the account.\\n     */\\n    function balanceOf(address account) external view returns (uint256);\\n\\n    /**\\n     * @dev Deposits `msg.value` to the account.\\n     */\\n    function depositTo(address account) external payable;\\n\\n    /**\\n     * @dev Withdraws `withdrawAmount` from the account to `withdrawAddress`.\\n     */\\n    function withdrawTo(address payable withdrawAddress, uint256 withdrawAmount) external;\\n\\n    /**\\n     * @dev Adds stake to the account with an unstake delay of `unstakeDelaySec`.\\n     */\\n    function addStake(uint32 unstakeDelaySec) external payable;\\n\\n    /**\\n     * @dev Unlocks the stake of the account.\\n     */\\n    function unlockStake() external;\\n\\n    /**\\n     * @dev Withdraws the stake of the account to `withdrawAddress`.\\n     */\\n    function withdrawStake(address payable withdrawAddress) external;\\n}\\n\\n/**\\n * @dev Entry point for user operations.\\n *\\n * User operations are validated and executed by this contract.\\n */\\ninterface IEntryPoint is IEntryPointNonces, IEntryPointStake {\\n    /**\\n     * @dev A user operation at `opIndex` failed with `reason`.\\n     */\\n    error FailedOp(uint256 opIndex, string reason);\\n\\n    /**\\n     * @dev A user operation at `opIndex` failed with `reason` and `inner` returned data.\\n     */\\n    error FailedOpWithRevert(uint256 opIndex, string reason, bytes inner);\\n\\n    /**\\n     * @dev Batch of aggregated user operations per aggregator.\\n     */\\n    struct UserOpsPerAggregator {\\n        PackedUserOperation[] userOps;\\n        IAggregator aggregator;\\n        bytes signature;\\n    }\\n\\n    /**\\n     * @dev Executes a batch of user operations.\\n     * @param beneficiary Address to which gas is refunded upon completing the execution.\\n     */\\n    function handleOps(PackedUserOperation[] calldata ops, address payable beneficiary) external;\\n\\n    /**\\n     * @dev Executes a batch of aggregated user operations per aggregator.\\n     * @param beneficiary Address to which gas is refunded upon completing the execution.\\n     */\\n    function handleAggregatedOps(\\n        UserOpsPerAggregator[] calldata opsPerAggregator,\\n        address payable beneficiary\\n    ) external;\\n}\\n\\n/**\\n * @dev Base interface for an ERC-4337 account.\\n */\\ninterface IAccount {\\n    /**\\n     * @dev Validates a user operation.\\n     *\\n     * * MUST validate the caller is a trusted EntryPoint\\n     * * MUST validate that the signature is a valid signature of the userOpHash, and SHOULD\\n     *   return SIG_VALIDATION_FAILED (and not revert) on signature mismatch. Any other error MUST revert.\\n     * * MUST pay the entryPoint (caller) at least the “missingAccountFunds” (which might\\n     *   be zero, in case the current account’s deposit is high enough)\\n     *\\n     * Returns an encoded packed validation data that is composed of the following elements:\\n     *\\n     * - `authorizer` (`address`): 0 for success, 1 for failure, otherwise the address of an authorizer contract\\n     * - `validUntil` (`uint48`): The UserOp is valid only up to this time. Zero for “infinite”.\\n     * - `validAfter` (`uint48`): The UserOp is valid only after this time.\\n     */\\n    function validateUserOp(\\n        PackedUserOperation calldata userOp,\\n        bytes32 userOpHash,\\n        uint256 missingAccountFunds\\n    ) external returns (uint256 validationData);\\n}\\n\\n/**\\n * @dev Support for executing user operations by prepending the {executeUserOp} function selector\\n * to the UserOperation's `callData`.\\n */\\ninterface IAccountExecute {\\n    /**\\n     * @dev Executes a user operation.\\n     */\\n    function executeUserOp(PackedUserOperation calldata userOp, bytes32 userOpHash) external;\\n}\\n\\n/**\\n * @dev Interface for a paymaster contract that agrees to pay for the gas costs of a user operation.\\n *\\n * NOTE: A paymaster must hold a stake to cover the required entrypoint stake and also the gas for the transaction.\\n */\\ninterface IPaymaster {\\n    enum PostOpMode {\\n        opSucceeded,\\n        opReverted,\\n        postOpReverted\\n    }\\n\\n    /**\\n     * @dev Validates whether the paymaster is willing to pay for the user operation. See\\n     * {IAccount-validateUserOp} for additional information on the return value.\\n     *\\n     * NOTE: Bundlers will reject this method if it modifies the state, unless it's whitelisted.\\n     */\\n    function validatePaymasterUserOp(\\n        PackedUserOperation calldata userOp,\\n        bytes32 userOpHash,\\n        uint256 maxCost\\n    ) external returns (bytes memory context, uint256 validationData);\\n\\n    /**\\n     * @dev Verifies the sender is the entrypoint.\\n     * @param actualGasCost the actual amount paid (by account or paymaster) for this UserOperation\\n     * @param actualUserOpFeePerGas total gas used by this UserOperation (including preVerification, creation, validation and execution)\\n     */\\n    function postOp(\\n        PostOpMode mode,\\n        bytes calldata context,\\n        uint256 actualGasCost,\\n        uint256 actualUserOpFeePerGas\\n    ) external;\\n}\\n\"},\"@openzeppelin/contracts/account/utils/draft-ERC7579Utils.sol\":{\"content\":\"// SPDX-License-Identifier: MIT\\n// OpenZeppelin Contracts (last updated v5.6.0) (account/utils/draft-ERC7579Utils.sol)\\n\\npragma solidity ^0.8.20;\\n\\nimport {Execution} from \\\"../../interfaces/draft-IERC7579.sol\\\";\\nimport {Packing} from \\\"../../utils/Packing.sol\\\";\\nimport {Address} from \\\"../../utils/Address.sol\\\";\\n\\ntype Mode is bytes32;\\ntype CallType is bytes1;\\ntype ExecType is bytes1;\\ntype ModeSelector is bytes4;\\ntype ModePayload is bytes22;\\n\\n/**\\n * @dev Library with common ERC-7579 utility functions.\\n *\\n * See https://eips.ethereum.org/EIPS/eip-7579[ERC-7579].\\n */\\n// slither-disable-next-line unused-state\\nlibrary ERC7579Utils {\\n    using Packing for *;\\n\\n    /// @dev A single `call` execution.\\n    CallType internal constant CALLTYPE_SINGLE = CallType.wrap(0x00);\\n\\n    /// @dev A batch of `call` executions.\\n    CallType internal constant CALLTYPE_BATCH = CallType.wrap(0x01);\\n\\n    /// @dev A `delegatecall` execution.\\n    CallType internal constant CALLTYPE_DELEGATECALL = CallType.wrap(0xFF);\\n\\n    /// @dev Default execution type that reverts on failure.\\n    ExecType internal constant EXECTYPE_DEFAULT = ExecType.wrap(0x00);\\n\\n    /// @dev Execution type that does not revert on failure.\\n    ExecType internal constant EXECTYPE_TRY = ExecType.wrap(0x01);\\n\\n    /**\\n     * @dev Emits when an {EXECTYPE_TRY} execution fails.\\n     * @param batchExecutionIndex The index of the failed call in the execution batch.\\n     * @param returndata The returned data from the failed call.\\n     */\\n    event ERC7579TryExecuteFail(uint256 batchExecutionIndex, bytes returndata);\\n\\n    /// @dev The provided {CallType} is not supported.\\n    error ERC7579UnsupportedCallType(CallType callType);\\n\\n    /// @dev The provided {ExecType} is not supported.\\n    error ERC7579UnsupportedExecType(ExecType execType);\\n\\n    /// @dev The provided module doesn't match the provided module type.\\n    error ERC7579MismatchedModuleTypeId(uint256 moduleTypeId, address module);\\n\\n    /// @dev The module is not installed.\\n    error ERC7579UninstalledModule(uint256 moduleTypeId, address module);\\n\\n    /// @dev The module is already installed.\\n    error ERC7579AlreadyInstalledModule(uint256 moduleTypeId, address module);\\n\\n    /// @dev The module type is not supported.\\n    error ERC7579UnsupportedModuleType(uint256 moduleTypeId);\\n\\n    /// @dev Input calldata not properly formatted and possibly malicious.\\n    error ERC7579DecodingError();\\n\\n    /// @dev Executes a single call.\\n    function execSingle(\\n        bytes calldata executionCalldata,\\n        ExecType execType\\n    ) internal returns (bytes[] memory returnData) {\\n        (address target, uint256 value, bytes calldata callData) = decodeSingle(executionCalldata);\\n        returnData = new bytes[](1);\\n        returnData[0] = _call(0, execType, target, value, callData);\\n    }\\n\\n    /// @dev Executes a batch of calls.\\n    function execBatch(\\n        bytes calldata executionCalldata,\\n        ExecType execType\\n    ) internal returns (bytes[] memory returnData) {\\n        Execution[] calldata executionBatch = decodeBatch(executionCalldata);\\n        returnData = new bytes[](executionBatch.length);\\n        for (uint256 i = 0; i < executionBatch.length; ++i) {\\n            returnData[i] = _call(\\n                i,\\n                execType,\\n                executionBatch[i].target,\\n                executionBatch[i].value,\\n                executionBatch[i].callData\\n            );\\n        }\\n    }\\n\\n    /// @dev Executes a delegate call.\\n    function execDelegateCall(\\n        bytes calldata executionCalldata,\\n        ExecType execType\\n    ) internal returns (bytes[] memory returnData) {\\n        (address target, bytes calldata callData) = decodeDelegate(executionCalldata);\\n        returnData = new bytes[](1);\\n        returnData[0] = _delegatecall(0, execType, target, callData);\\n    }\\n\\n    /// @dev Encodes the mode with the provided parameters. See {decodeMode}.\\n    function encodeMode(\\n        CallType callType,\\n        ExecType execType,\\n        ModeSelector selector,\\n        ModePayload payload\\n    ) internal pure returns (Mode mode) {\\n        return\\n            Mode.wrap(\\n                CallType\\n                    .unwrap(callType)\\n                    .pack_1_1(ExecType.unwrap(execType))\\n                    .pack_2_4(bytes4(0))\\n                    .pack_6_4(ModeSelector.unwrap(selector))\\n                    .pack_10_22(ModePayload.unwrap(payload))\\n            );\\n    }\\n\\n    /// @dev Decodes the mode into its parameters. See {encodeMode}.\\n    function decodeMode(\\n        Mode mode\\n    ) internal pure returns (CallType callType, ExecType execType, ModeSelector selector, ModePayload payload) {\\n        return (\\n            CallType.wrap(Packing.extract_32_1(Mode.unwrap(mode), 0x00)),\\n            ExecType.wrap(Packing.extract_32_1(Mode.unwrap(mode), 0x01)),\\n            ModeSelector.wrap(Packing.extract_32_4(Mode.unwrap(mode), 0x06)),\\n            ModePayload.wrap(Packing.extract_32_22(Mode.unwrap(mode), 0x0a))\\n        );\\n    }\\n\\n    /// @dev Encodes a single call execution. See {decodeSingle}.\\n    function encodeSingle(\\n        address target,\\n        uint256 value,\\n        bytes calldata callData\\n    ) internal pure returns (bytes memory executionCalldata) {\\n        return abi.encodePacked(target, value, callData);\\n    }\\n\\n    /// @dev Decodes a single call execution. See {encodeSingle}.\\n    function decodeSingle(\\n        bytes calldata executionCalldata\\n    ) internal pure returns (address target, uint256 value, bytes calldata callData) {\\n        target = address(bytes20(executionCalldata));\\n        value = uint256(bytes32(executionCalldata[20:52]));\\n        callData = executionCalldata[52:];\\n    }\\n\\n    /// @dev Encodes a delegate call execution. See {decodeDelegate}.\\n    function encodeDelegate(\\n        address target,\\n        bytes calldata callData\\n    ) internal pure returns (bytes memory executionCalldata) {\\n        return abi.encodePacked(target, callData);\\n    }\\n\\n    /// @dev Decodes a delegate call execution. See {encodeDelegate}.\\n    function decodeDelegate(\\n        bytes calldata executionCalldata\\n    ) internal pure returns (address target, bytes calldata callData) {\\n        target = address(bytes20(executionCalldata));\\n        callData = executionCalldata[20:];\\n    }\\n\\n    /// @dev Encodes a batch of executions. See {decodeBatch}.\\n    function encodeBatch(Execution[] memory executionBatch) internal pure returns (bytes memory executionCalldata) {\\n        return abi.encode(executionBatch);\\n    }\\n\\n    /// @dev Decodes a batch of executions. See {encodeBatch}.\\n    ///\\n    /// NOTE: This function runs some checks and will throw a {ERC7579DecodingError} if the input is not properly formatted.\\n    function decodeBatch(bytes calldata executionCalldata) internal pure returns (Execution[] calldata executionBatch) {\\n        unchecked {\\n            uint256 bufferLength = executionCalldata.length;\\n\\n            // Check executionCalldata is not empty.\\n            if (bufferLength < 0x20) revert ERC7579DecodingError();\\n\\n            // Get the offset of the array (pointer to the array length).\\n            uint256 arrayLengthOffset = uint256(bytes32(executionCalldata[0x00:0x20]));\\n\\n            // The array length (at arrayLengthOffset) should be 32 bytes long. We check that this is within the\\n            // buffer bounds. Since we know bufferLength is at least 32, we can subtract with no overflow risk.\\n            if (arrayLengthOffset > bufferLength - 0x20) revert ERC7579DecodingError();\\n\\n            // Get the array length. arrayLengthOffset + 32 is bounded by bufferLength so it does not overflow.\\n            uint256 arrayLength = uint256(bytes32(executionCalldata[arrayLengthOffset:arrayLengthOffset + 0x20]));\\n\\n            // Check that the buffer is long enough to store the array elements as \\\"offset pointer\\\":\\n            // - each element of the array is an \\\"offset pointer\\\" to the data.\\n            // - each \\\"offset pointer\\\" (to an array element) takes 32 bytes.\\n            // - validity of the calldata at that location is checked when the array element is accessed, so we only\\n            //   need to check that the buffer is large enough to hold the pointers.\\n            //\\n            // Since we know bufferLength is at least arrayLengthOffset + 32, we can subtract with no overflow risk.\\n            // Solidity limits length of such arrays to 2**64-1, this guarantees `arrayLength * 32` does not overflow.\\n            if (arrayLength > type(uint64).max || bufferLength - arrayLengthOffset - 0x20 < arrayLength * 0x20)\\n                revert ERC7579DecodingError();\\n\\n            assembly (\\\"memory-safe\\\") {\\n                executionBatch.offset := add(add(executionCalldata.offset, arrayLengthOffset), 0x20)\\n                executionBatch.length := arrayLength\\n            }\\n        }\\n    }\\n\\n    /// @dev Executes a `call` to the target with the provided {ExecType}.\\n    function _call(\\n        uint256 index,\\n        ExecType execType,\\n        address target,\\n        uint256 value,\\n        bytes calldata data\\n    ) private returns (bytes memory) {\\n        (bool success, bytes memory returndata) = (target == address(0) ? address(this) : target).call{value: value}(\\n            data\\n        );\\n        return _validateExecutionMode(index, execType, success, returndata);\\n    }\\n\\n    /// @dev Executes a `delegatecall` to the target with the provided {ExecType}.\\n    function _delegatecall(\\n        uint256 index,\\n        ExecType execType,\\n        address target,\\n        bytes calldata data\\n    ) private returns (bytes memory) {\\n        (bool success, bytes memory returndata) = (target == address(0) ? address(this) : target).delegatecall(data);\\n        return _validateExecutionMode(index, execType, success, returndata);\\n    }\\n\\n    /// @dev Validates the execution mode and returns the returndata.\\n    function _validateExecutionMode(\\n        uint256 index,\\n        ExecType execType,\\n        bool success,\\n        bytes memory returndata\\n    ) private returns (bytes memory) {\\n        if (execType == ERC7579Utils.EXECTYPE_DEFAULT) {\\n            Address.verifyCallResult(success, returndata);\\n        } else if (execType == ERC7579Utils.EXECTYPE_TRY) {\\n            if (!success) emit ERC7579TryExecuteFail(index, returndata);\\n        } else {\\n            revert ERC7579UnsupportedExecType(execType);\\n        }\\n        return returndata;\\n    }\\n}\\n\\n// Operators\\nusing {eqCallType as ==} for CallType global;\\nusing {eqExecType as ==} for ExecType global;\\nusing {eqModeSelector as ==} for ModeSelector global;\\nusing {eqModePayload as ==} for ModePayload global;\\n\\n/// @dev Compares two `CallType` values for equality.\\nfunction eqCallType(CallType a, CallType b) pure returns (bool) {\\n    return CallType.unwrap(a) == CallType.unwrap(b);\\n}\\n\\n/// @dev Compares two `ExecType` values for equality.\\nfunction eqExecType(ExecType a, ExecType b) pure returns (bool) {\\n    return ExecType.unwrap(a) == ExecType.unwrap(b);\\n}\\n\\n/// @dev Compares two `ModeSelector` values for equality.\\nfunction eqModeSelector(ModeSelector a, ModeSelector b) pure returns (bool) {\\n    return ModeSelector.unwrap(a) == ModeSelector.unwrap(b);\\n}\\n\\n/// @dev Compares two `ModePayload` values for equality.\\nfunction eqModePayload(ModePayload a, ModePayload b) pure returns (bool) {\\n    return ModePayload.unwrap(a) == ModePayload.unwrap(b);\\n}\\n\"},\"@openzeppelin/contracts/utils/Packing.sol\":{\"content\":\"// SPDX-License-Identifier: MIT\\n// OpenZeppelin Contracts (last updated v5.2.0) (utils/Packing.sol)\\n// This file was procedurally generated from scripts/generate/templates/Packing.js.\\n\\npragma solidity ^0.8.20;\\n\\n/**\\n * @dev Helper library packing and unpacking multiple values into bytesXX.\\n *\\n * Example usage:\\n *\\n * ```solidity\\n * library MyPacker {\\n *     type MyType is bytes32;\\n *\\n *     function _pack(address account, bytes4 selector, uint64 period) external pure returns (MyType) {\\n *         bytes12 subpack = Packing.pack_4_8(selector, bytes8(period));\\n *         bytes32 pack = Packing.pack_20_12(bytes20(account), subpack);\\n *         return MyType.wrap(pack);\\n *     }\\n *\\n *     function _unpack(MyType self) external pure returns (address, bytes4, uint64) {\\n *         bytes32 pack = MyType.unwrap(self);\\n *         return (\\n *             address(Packing.extract_32_20(pack, 0)),\\n *             Packing.extract_32_4(pack, 20),\\n *             uint64(Packing.extract_32_8(pack, 24))\\n *         );\\n *     }\\n * }\\n * ```\\n *\\n * _Available since v5.1._\\n */\\n// solhint-disable func-name-mixedcase\\nlibrary Packing {\\n    error OutOfRangeAccess();\\n\\n    function pack_1_1(bytes1 left, bytes1 right) internal pure returns (bytes2 result) {\\n        assembly (\\\"memory-safe\\\") {\\n            left := and(left, shl(248, not(0)))\\n            right := and(right, shl(248, not(0)))\\n            result := or(left, shr(8, right))\\n        }\\n    }\\n\\n    function pack_2_2(bytes2 left, bytes2 right) internal pure returns (bytes4 result) {\\n        assembly (\\\"memory-safe\\\") {\\n            left := and(left, shl(240, not(0)))\\n            right := and(right, shl(240, not(0)))\\n            result := or(left, shr(16, right))\\n        }\\n    }\\n\\n    function pack_2_4(bytes2 left, bytes4 right) internal pure returns (bytes6 result) {\\n        assembly (\\\"memory-safe\\\") {\\n            left := and(left, shl(240, not(0)))\\n            right := and(right, shl(224, not(0)))\\n            result := or(left, shr(16, right))\\n        }\\n    }\\n\\n    function pack_2_6(bytes2 left, bytes6 right) internal pure returns (bytes8 result) {\\n        assembly (\\\"memory-safe\\\") {\\n            left := and(left, shl(240, not(0)))\\n            right := and(right, shl(208, not(0)))\\n            result := or(left, shr(16, right))\\n        }\\n    }\\n\\n    function pack_2_8(bytes2 left, bytes8 right) internal pure returns (bytes10 result) {\\n        assembly (\\\"memory-safe\\\") {\\n            left := and(left, shl(240, not(0)))\\n            right := and(right, shl(192, not(0)))\\n            result := or(left, shr(16, right))\\n        }\\n    }\\n\\n    function pack_2_10(bytes2 left, bytes10 right) internal pure returns (bytes12 result) {\\n        assembly (\\\"memory-safe\\\") {\\n            left := and(left, shl(240, not(0)))\\n            right := and(right, shl(176, not(0)))\\n            result := or(left, shr(16, right))\\n        }\\n    }\\n\\n    function pack_2_20(bytes2 left, bytes20 right) internal pure returns (bytes22 result) {\\n        assembly (\\\"memory-safe\\\") {\\n            left := and(left, shl(240, not(0)))\\n            right := and(right, shl(96, not(0)))\\n            result := or(left, shr(16, right))\\n        }\\n    }\\n\\n    function pack_2_22(bytes2 left, bytes22 right) internal pure returns (bytes24 result) {\\n        assembly (\\\"memory-safe\\\") {\\n            left := and(left, shl(240, not(0)))\\n            right := and(right, shl(80, not(0)))\\n            result := or(left, shr(16, right))\\n        }\\n    }\\n\\n    function pack_4_2(bytes4 left, bytes2 right) internal pure returns (bytes6 result) {\\n        assembly (\\\"memory-safe\\\") {\\n            left := and(left, shl(224, not(0)))\\n            right := and(right, shl(240, not(0)))\\n            result := or(left, shr(32, right))\\n        }\\n    }\\n\\n    function pack_4_4(bytes4 left, bytes4 right) internal pure returns (bytes8 result) {\\n        assembly (\\\"memory-safe\\\") {\\n            left := and(left, shl(224, not(0)))\\n            right := and(right, shl(224, not(0)))\\n            result := or(left, shr(32, right))\\n        }\\n    }\\n\\n    function pack_4_6(bytes4 left, bytes6 right) internal pure returns (bytes10 result) {\\n        assembly (\\\"memory-safe\\\") {\\n            left := and(left, shl(224, not(0)))\\n            right := and(right, shl(208, not(0)))\\n            result := or(left, shr(32, right))\\n        }\\n    }\\n\\n    function pack_4_8(bytes4 left, bytes8 right) internal pure returns (bytes12 result) {\\n        assembly (\\\"memory-safe\\\") {\\n            left := and(left, shl(224, not(0)))\\n            right := and(right, shl(192, not(0)))\\n            result := or(left, shr(32, right))\\n        }\\n    }\\n\\n    function pack_4_12(bytes4 left, bytes12 right) internal pure returns (bytes16 result) {\\n        assembly (\\\"memory-safe\\\") {\\n            left := and(left, shl(224, not(0)))\\n            right := and(right, shl(160, not(0)))\\n            result := or(left, shr(32, right))\\n        }\\n    }\\n\\n    function pack_4_16(bytes4 left, bytes16 right) internal pure returns (bytes20 result) {\\n        assembly (\\\"memory-safe\\\") {\\n            left := and(left, shl(224, not(0)))\\n            right := and(right, shl(128, not(0)))\\n            result := or(left, shr(32, right))\\n        }\\n    }\\n\\n    function pack_4_20(bytes4 left, bytes20 right) internal pure returns (bytes24 result) {\\n        assembly (\\\"memory-safe\\\") {\\n            left := and(left, shl(224, not(0)))\\n            right := and(right, shl(96, not(0)))\\n            result := or(left, shr(32, right))\\n        }\\n    }\\n\\n    function pack_4_24(bytes4 left, bytes24 right) internal pure returns (bytes28 result) {\\n        assembly (\\\"memory-safe\\\") {\\n            left := and(left, shl(224, not(0)))\\n            right := and(right, shl(64, not(0)))\\n            result := or(left, shr(32, right))\\n        }\\n    }\\n\\n    function pack_4_28(bytes4 left, bytes28 right) internal pure returns (bytes32 result) {\\n        assembly (\\\"memory-safe\\\") {\\n            left := and(left, shl(224, not(0)))\\n            right := and(right, shl(32, not(0)))\\n            result := or(left, shr(32, right))\\n        }\\n    }\\n\\n    function pack_6_2(bytes6 left, bytes2 right) internal pure returns (bytes8 result) {\\n        assembly (\\\"memory-safe\\\") {\\n            left := and(left, shl(208, not(0)))\\n            right := and(right, shl(240, not(0)))\\n            result := or(left, shr(48, right))\\n        }\\n    }\\n\\n    function pack_6_4(bytes6 left, bytes4 right) internal pure returns (bytes10 result) {\\n        assembly (\\\"memory-safe\\\") {\\n            left := and(left, shl(208, not(0)))\\n            right := and(right, shl(224, not(0)))\\n            result := or(left, shr(48, right))\\n        }\\n    }\\n\\n    function pack_6_6(bytes6 left, bytes6 right) internal pure returns (bytes12 result) {\\n        assembly (\\\"memory-safe\\\") {\\n            left := and(left, shl(208, not(0)))\\n            right := and(right, shl(208, not(0)))\\n            result := or(left, shr(48, right))\\n        }\\n    }\\n\\n    function pack_6_10(bytes6 left, bytes10 right) internal pure returns (bytes16 result) {\\n        assembly (\\\"memory-safe\\\") {\\n            left := and(left, shl(208, not(0)))\\n            right := and(right, shl(176, not(0)))\\n            result := or(left, shr(48, right))\\n        }\\n    }\\n\\n    function pack_6_16(bytes6 left, bytes16 right) internal pure returns (bytes22 result) {\\n        assembly (\\\"memory-safe\\\") {\\n            left := and(left, shl(208, not(0)))\\n            right := and(right, shl(128, not(0)))\\n            result := or(left, shr(48, right))\\n        }\\n    }\\n\\n    function pack_6_22(bytes6 left, bytes22 right) internal pure returns (bytes28 result) {\\n        assembly (\\\"memory-safe\\\") {\\n            left := and(left, shl(208, not(0)))\\n            right := and(right, shl(80, not(0)))\\n            result := or(left, shr(48, right))\\n        }\\n    }\\n\\n    function pack_8_2(bytes8 left, bytes2 right) internal pure returns (bytes10 result) {\\n        assembly (\\\"memory-safe\\\") {\\n            left := and(left, shl(192, not(0)))\\n            right := and(right, shl(240, not(0)))\\n            result := or(left, shr(64, right))\\n        }\\n    }\\n\\n    function pack_8_4(bytes8 left, bytes4 right) internal pure returns (bytes12 result) {\\n        assembly (\\\"memory-safe\\\") {\\n            left := and(left, shl(192, not(0)))\\n            right := and(right, shl(224, not(0)))\\n            result := or(left, shr(64, right))\\n        }\\n    }\\n\\n    function pack_8_8(bytes8 left, bytes8 right) internal pure returns (bytes16 result) {\\n        assembly (\\\"memory-safe\\\") {\\n            left := and(left, shl(192, not(0)))\\n            right := and(right, shl(192, not(0)))\\n            result := or(left, shr(64, right))\\n        }\\n    }\\n\\n    function pack_8_12(bytes8 left, bytes12 right) internal pure returns (bytes20 result) {\\n        assembly (\\\"memory-safe\\\") {\\n            left := and(left, shl(192, not(0)))\\n            right := and(right, shl(160, not(0)))\\n            result := or(left, shr(64, right))\\n        }\\n    }\\n\\n    function pack_8_16(bytes8 left, bytes16 right) internal pure returns (bytes24 result) {\\n        assembly (\\\"memory-safe\\\") {\\n            left := and(left, shl(192, not(0)))\\n            right := and(right, shl(128, not(0)))\\n            result := or(left, shr(64, right))\\n        }\\n    }\\n\\n    function pack_8_20(bytes8 left, bytes20 right) internal pure returns (bytes28 result) {\\n        assembly (\\\"memory-safe\\\") {\\n            left := and(left, shl(192, not(0)))\\n            right := and(right, shl(96, not(0)))\\n            result := or(left, shr(64, right))\\n        }\\n    }\\n\\n    function pack_8_24(bytes8 left, bytes24 right) internal pure returns (bytes32 result) {\\n        assembly (\\\"memory-safe\\\") {\\n            left := and(left, shl(192, not(0)))\\n            right := and(right, shl(64, not(0)))\\n            result := or(left, shr(64, right))\\n        }\\n    }\\n\\n    function pack_10_2(bytes10 left, bytes2 right) internal pure returns (bytes12 result) {\\n        assembly (\\\"memory-safe\\\") {\\n            left := and(left, shl(176, not(0)))\\n            right := and(right, shl(240, not(0)))\\n            result := or(left, shr(80, right))\\n        }\\n    }\\n\\n    function pack_10_6(bytes10 left, bytes6 right) internal pure returns (bytes16 result) {\\n        assembly (\\\"memory-safe\\\") {\\n            left := and(left, shl(176, not(0)))\\n            right := and(right, shl(208, not(0)))\\n            result := or(left, shr(80, right))\\n        }\\n    }\\n\\n    function pack_10_10(bytes10 left, bytes10 right) internal pure returns (bytes20 result) {\\n        assembly (\\\"memory-safe\\\") {\\n            left := and(left, shl(176, not(0)))\\n            right := and(right, shl(176, not(0)))\\n            result := or(left, shr(80, right))\\n        }\\n    }\\n\\n    function pack_10_12(bytes10 left, bytes12 right) internal pure returns (bytes22 result) {\\n        assembly (\\\"memory-safe\\\") {\\n            left := and(left, shl(176, not(0)))\\n            right := and(right, shl(160, not(0)))\\n            result := or(left, shr(80, right))\\n        }\\n    }\\n\\n    function pack_10_22(bytes10 left, bytes22 right) internal pure returns (bytes32 result) {\\n        assembly (\\\"memory-safe\\\") {\\n            left := and(left, shl(176, not(0)))\\n            right := and(right, shl(80, not(0)))\\n            result := or(left, shr(80, right))\\n        }\\n    }\\n\\n    function pack_12_4(bytes12 left, bytes4 right) internal pure returns (bytes16 result) {\\n        assembly (\\\"memory-safe\\\") {\\n            left := and(left, shl(160, not(0)))\\n            right := and(right, shl(224, not(0)))\\n            result := or(left, shr(96, right))\\n        }\\n    }\\n\\n    function pack_12_8(bytes12 left, bytes8 right) internal pure returns (bytes20 result) {\\n        assembly (\\\"memory-safe\\\") {\\n            left := and(left, shl(160, not(0)))\\n            right := and(right, shl(192, not(0)))\\n            result := or(left, shr(96, right))\\n        }\\n    }\\n\\n    function pack_12_10(bytes12 left, bytes10 right) internal pure returns (bytes22 result) {\\n        assembly (\\\"memory-safe\\\") {\\n            left := and(left, shl(160, not(0)))\\n            right := and(right, shl(176, not(0)))\\n            result := or(left, shr(96, right))\\n        }\\n    }\\n\\n    function pack_12_12(bytes12 left, bytes12 right) internal pure returns (bytes24 result) {\\n        assembly (\\\"memory-safe\\\") {\\n            left := and(left, shl(160, not(0)))\\n            right := and(right, shl(160, not(0)))\\n            result := or(left, shr(96, right))\\n        }\\n    }\\n\\n    function pack_12_16(bytes12 left, bytes16 right) internal pure returns (bytes28 result) {\\n        assembly (\\\"memory-safe\\\") {\\n            left := and(left, shl(160, not(0)))\\n            right := and(right, shl(128, not(0)))\\n            result := or(left, shr(96, right))\\n        }\\n    }\\n\\n    function pack_12_20(bytes12 left, bytes20 right) internal pure returns (bytes32 result) {\\n        assembly (\\\"memory-safe\\\") {\\n            left := and(left, shl(160, not(0)))\\n            right := and(right, shl(96, not(0)))\\n            result := or(left, shr(96, right))\\n        }\\n    }\\n\\n    function pack_16_4(bytes16 left, bytes4 right) internal pure returns (bytes20 result) {\\n        assembly (\\\"memory-safe\\\") {\\n            left := and(left, shl(128, not(0)))\\n            right := and(right, shl(224, not(0)))\\n            result := or(left, shr(128, right))\\n        }\\n    }\\n\\n    function pack_16_6(bytes16 left, bytes6 right) internal pure returns (bytes22 result) {\\n        assembly (\\\"memory-safe\\\") {\\n            left := and(left, shl(128, not(0)))\\n            right := and(right, shl(208, not(0)))\\n            result := or(left, shr(128, right))\\n        }\\n    }\\n\\n    function pack_16_8(bytes16 left, bytes8 right) internal pure returns (bytes24 result) {\\n        assembly (\\\"memory-safe\\\") {\\n            left := and(left, shl(128, not(0)))\\n            right := and(right, shl(192, not(0)))\\n            result := or(left, shr(128, right))\\n        }\\n    }\\n\\n    function pack_16_12(bytes16 left, bytes12 right) internal pure returns (bytes28 result) {\\n        assembly (\\\"memory-safe\\\") {\\n            left := and(left, shl(128, not(0)))\\n            right := and(right, shl(160, not(0)))\\n            result := or(left, shr(128, right))\\n        }\\n    }\\n\\n    function pack_16_16(bytes16 left, bytes16 right) internal pure returns (bytes32 result) {\\n        assembly (\\\"memory-safe\\\") {\\n            left := and(left, shl(128, not(0)))\\n            right := and(right, shl(128, not(0)))\\n            result := or(left, shr(128, right))\\n        }\\n    }\\n\\n    function pack_20_2(bytes20 left, bytes2 right) internal pure returns (bytes22 result) {\\n        assembly (\\\"memory-safe\\\") {\\n            left := and(left, shl(96, not(0)))\\n            right := and(right, shl(240, not(0)))\\n            result := or(left, shr(160, right))\\n        }\\n    }\\n\\n    function pack_20_4(bytes20 left, bytes4 right) internal pure returns (bytes24 result) {\\n        assembly (\\\"memory-safe\\\") {\\n            left := and(left, shl(96, not(0)))\\n            right := and(right, shl(224, not(0)))\\n            result := or(left, shr(160, right))\\n        }\\n    }\\n\\n    function pack_20_8(bytes20 left, bytes8 right) internal pure returns (bytes28 result) {\\n        assembly (\\\"memory-safe\\\") {\\n            left := and(left, shl(96, not(0)))\\n            right := and(right, shl(192, not(0)))\\n            result := or(left, shr(160, right))\\n        }\\n    }\\n\\n    function pack_20_12(bytes20 left, bytes12 right) internal pure returns (bytes32 result) {\\n        assembly (\\\"memory-safe\\\") {\\n            left := and(left, shl(96, not(0)))\\n            right := and(right, shl(160, not(0)))\\n            result := or(left, shr(160, right))\\n        }\\n    }\\n\\n    function pack_22_2(bytes22 left, bytes2 right) internal pure returns (bytes24 result) {\\n        assembly (\\\"memory-safe\\\") {\\n            left := and(left, shl(80, not(0)))\\n            right := and(right, shl(240, not(0)))\\n            result := or(left, shr(176, right))\\n        }\\n    }\\n\\n    function pack_22_6(bytes22 left, bytes6 right) internal pure returns (bytes28 result) {\\n        assembly (\\\"memory-safe\\\") {\\n            left := and(left, shl(80, not(0)))\\n            right := and(right, shl(208, not(0)))\\n            result := or(left, shr(176, right))\\n        }\\n    }\\n\\n    function pack_22_10(bytes22 left, bytes10 right) internal pure returns (bytes32 result) {\\n        assembly (\\\"memory-safe\\\") {\\n            left := and(left, shl(80, not(0)))\\n            right := and(right, shl(176, not(0)))\\n            result := or(left, shr(176, right))\\n        }\\n    }\\n\\n    function pack_24_4(bytes24 left, bytes4 right) internal pure returns (bytes28 result) {\\n        assembly (\\\"memory-safe\\\") {\\n            left := and(left, shl(64, not(0)))\\n            right := and(right, shl(224, not(0)))\\n            result := or(left, shr(192, right))\\n        }\\n    }\\n\\n    function pack_24_8(bytes24 left, bytes8 right) internal pure returns (bytes32 result) {\\n        assembly (\\\"memory-safe\\\") {\\n            left := and(left, shl(64, not(0)))\\n            right := and(right, shl(192, not(0)))\\n            result := or(left, shr(192, right))\\n        }\\n    }\\n\\n    function pack_28_4(bytes28 left, bytes4 right) internal pure returns (bytes32 result) {\\n        assembly (\\\"memory-safe\\\") {\\n            left := and(left, shl(32, not(0)))\\n            right := and(right, shl(224, not(0)))\\n            result := or(left, shr(224, right))\\n        }\\n    }\\n\\n    function extract_2_1(bytes2 self, uint8 offset) internal pure returns (bytes1 result) {\\n        if (offset > 1) revert OutOfRangeAccess();\\n        assembly (\\\"memory-safe\\\") {\\n            result := and(shl(mul(8, offset), self), shl(248, not(0)))\\n        }\\n    }\\n\\n    function replace_2_1(bytes2 self, bytes1 value, uint8 offset) internal pure returns (bytes2 result) {\\n        bytes1 oldValue = extract_2_1(self, offset);\\n        assembly (\\\"memory-safe\\\") {\\n            value := and(value, shl(248, not(0)))\\n            result := xor(self, shr(mul(8, offset), xor(oldValue, value)))\\n        }\\n    }\\n\\n    function extract_4_1(bytes4 self, uint8 offset) internal pure returns (bytes1 result) {\\n        if (offset > 3) revert OutOfRangeAccess();\\n        assembly (\\\"memory-safe\\\") {\\n            result := and(shl(mul(8, offset), self), shl(248, not(0)))\\n        }\\n    }\\n\\n    function replace_4_1(bytes4 self, bytes1 value, uint8 offset) internal pure returns (bytes4 result) {\\n        bytes1 oldValue = extract_4_1(self, offset);\\n        assembly (\\\"memory-safe\\\") {\\n            value := and(value, shl(248, not(0)))\\n            result := xor(self, shr(mul(8, offset), xor(oldValue, value)))\\n        }\\n    }\\n\\n    function extract_4_2(bytes4 self, uint8 offset) internal pure returns (bytes2 result) {\\n        if (offset > 2) revert OutOfRangeAccess();\\n        assembly (\\\"memory-safe\\\") {\\n            result := and(shl(mul(8, offset), self), shl(240, not(0)))\\n        }\\n    }\\n\\n    function replace_4_2(bytes4 self, bytes2 value, uint8 offset) internal pure returns (bytes4 result) {\\n        bytes2 oldValue = extract_4_2(self, offset);\\n        assembly (\\\"memory-safe\\\") {\\n            value := and(value, shl(240, not(0)))\\n            result := xor(self, shr(mul(8, offset), xor(oldValue, value)))\\n        }\\n    }\\n\\n    function extract_6_1(bytes6 self, uint8 offset) internal pure returns (bytes1 result) {\\n        if (offset > 5) revert OutOfRangeAccess();\\n        assembly (\\\"memory-safe\\\") {\\n            result := and(shl(mul(8, offset), self), shl(248, not(0)))\\n        }\\n    }\\n\\n    function replace_6_1(bytes6 self, bytes1 value, uint8 offset) internal pure returns (bytes6 result) {\\n        bytes1 oldValue = extract_6_1(self, offset);\\n        assembly (\\\"memory-safe\\\") {\\n            value := and(value, shl(248, not(0)))\\n            result := xor(self, shr(mul(8, offset), xor(oldValue, value)))\\n        }\\n    }\\n\\n    function extract_6_2(bytes6 self, uint8 offset) internal pure returns (bytes2 result) {\\n        if (offset > 4) revert OutOfRangeAccess();\\n        assembly (\\\"memory-safe\\\") {\\n            result := and(shl(mul(8, offset), self), shl(240, not(0)))\\n        }\\n    }\\n\\n    function replace_6_2(bytes6 self, bytes2 value, uint8 offset) internal pure returns (bytes6 result) {\\n        bytes2 oldValue = extract_6_2(self, offset);\\n        assembly (\\\"memory-safe\\\") {\\n            value := and(value, shl(240, not(0)))\\n            result := xor(self, shr(mul(8, offset), xor(oldValue, value)))\\n        }\\n    }\\n\\n    function extract_6_4(bytes6 self, uint8 offset) internal pure returns (bytes4 result) {\\n        if (offset > 2) revert OutOfRangeAccess();\\n        assembly (\\\"memory-safe\\\") {\\n            result := and(shl(mul(8, offset), self), shl(224, not(0)))\\n        }\\n    }\\n\\n    function replace_6_4(bytes6 self, bytes4 value, uint8 offset) internal pure returns (bytes6 result) {\\n        bytes4 oldValue = extract_6_4(self, offset);\\n        assembly (\\\"memory-safe\\\") {\\n            value := and(value, shl(224, not(0)))\\n            result := xor(self, shr(mul(8, offset), xor(oldValue, value)))\\n        }\\n    }\\n\\n    function extract_8_1(bytes8 self, uint8 offset) internal pure returns (bytes1 result) {\\n        if (offset > 7) revert OutOfRangeAccess();\\n        assembly (\\\"memory-safe\\\") {\\n            result := and(shl(mul(8, offset), self), shl(248, not(0)))\\n        }\\n    }\\n\\n    function replace_8_1(bytes8 self, bytes1 value, uint8 offset) internal pure returns (bytes8 result) {\\n        bytes1 oldValue = extract_8_1(self, offset);\\n        assembly (\\\"memory-safe\\\") {\\n            value := and(value, shl(248, not(0)))\\n            result := xor(self, shr(mul(8, offset), xor(oldValue, value)))\\n        }\\n    }\\n\\n    function extract_8_2(bytes8 self, uint8 offset) internal pure returns (bytes2 result) {\\n        if (offset > 6) revert OutOfRangeAccess();\\n        assembly (\\\"memory-safe\\\") {\\n            result := and(shl(mul(8, offset), self), shl(240, not(0)))\\n        }\\n    }\\n\\n    function replace_8_2(bytes8 self, bytes2 value, uint8 offset) internal pure returns (bytes8 result) {\\n        bytes2 oldValue = extract_8_2(self, offset);\\n        assembly (\\\"memory-safe\\\") {\\n            value := and(value, shl(240, not(0)))\\n            result := xor(self, shr(mul(8, offset), xor(oldValue, value)))\\n        }\\n    }\\n\\n    function extract_8_4(bytes8 self, uint8 offset) internal pure returns (bytes4 result) {\\n        if (offset > 4) revert OutOfRangeAccess();\\n        assembly (\\\"memory-safe\\\") {\\n            result := and(shl(mul(8, offset), self), shl(224, not(0)))\\n        }\\n    }\\n\\n    function replace_8_4(bytes8 self, bytes4 value, uint8 offset) internal pure returns (bytes8 result) {\\n        bytes4 oldValue = extract_8_4(self, offset);\\n        assembly (\\\"memory-safe\\\") {\\n            value := and(value, shl(224, not(0)))\\n            result := xor(self, shr(mul(8, offset), xor(oldValue, value)))\\n        }\\n    }\\n\\n    function extract_8_6(bytes8 self, uint8 offset) internal pure returns (bytes6 result) {\\n        if (offset > 2) revert OutOfRangeAccess();\\n        assembly (\\\"memory-safe\\\") {\\n            result := and(shl(mul(8, offset), self), shl(208, not(0)))\\n        }\\n    }\\n\\n    function replace_8_6(bytes8 self, bytes6 value, uint8 offset) internal pure returns (bytes8 result) {\\n        bytes6 oldValue = extract_8_6(self, offset);\\n        assembly (\\\"memory-safe\\\") {\\n            value := and(value, shl(208, not(0)))\\n            result := xor(self, shr(mul(8, offset), xor(oldValue, value)))\\n        }\\n    }\\n\\n    function extract_10_1(bytes10 self, uint8 offset) internal pure returns (bytes1 result) {\\n        if (offset > 9) revert OutOfRangeAccess();\\n        assembly (\\\"memory-safe\\\") {\\n            result := and(shl(mul(8, offset), self), shl(248, not(0)))\\n        }\\n    }\\n\\n    function replace_10_1(bytes10 self, bytes1 value, uint8 offset) internal pure returns (bytes10 result) {\\n        bytes1 oldValue = extract_10_1(self, offset);\\n        assembly (\\\"memory-safe\\\") {\\n            value := and(value, shl(248, not(0)))\\n            result := xor(self, shr(mul(8, offset), xor(oldValue, value)))\\n        }\\n    }\\n\\n    function extract_10_2(bytes10 self, uint8 offset) internal pure returns (bytes2 result) {\\n        if (offset > 8) revert OutOfRangeAccess();\\n        assembly (\\\"memory-safe\\\") {\\n            result := and(shl(mul(8, offset), self), shl(240, not(0)))\\n        }\\n    }\\n\\n    function replace_10_2(bytes10 self, bytes2 value, uint8 offset) internal pure returns (bytes10 result) {\\n        bytes2 oldValue = extract_10_2(self, offset);\\n        assembly (\\\"memory-safe\\\") {\\n            value := and(value, shl(240, not(0)))\\n            result := xor(self, shr(mul(8, offset), xor(oldValue, value)))\\n        }\\n    }\\n\\n    function extract_10_4(bytes10 self, uint8 offset) internal pure returns (bytes4 result) {\\n        if (offset > 6) revert OutOfRangeAccess();\\n        assembly (\\\"memory-safe\\\") {\\n            result := and(shl(mul(8, offset), self), shl(224, not(0)))\\n        }\\n    }\\n\\n    function replace_10_4(bytes10 self, bytes4 value, uint8 offset) internal pure returns (bytes10 result) {\\n        bytes4 oldValue = extract_10_4(self, offset);\\n        assembly (\\\"memory-safe\\\") {\\n            value := and(value, shl(224, not(0)))\\n            result := xor(self, shr(mul(8, offset), xor(oldValue, value)))\\n        }\\n    }\\n\\n    function extract_10_6(bytes10 self, uint8 offset) internal pure returns (bytes6 result) {\\n        if (offset > 4) revert OutOfRangeAccess();\\n        assembly (\\\"memory-safe\\\") {\\n            result := and(shl(mul(8, offset), self), shl(208, not(0)))\\n        }\\n    }\\n\\n    function replace_10_6(bytes10 self, bytes6 value, uint8 offset) internal pure returns (bytes10 result) {\\n        bytes6 oldValue = extract_10_6(self, offset);\\n        assembly (\\\"memory-safe\\\") {\\n            value := and(value, shl(208, not(0)))\\n            result := xor(self, shr(mul(8, offset), xor(oldValue, value)))\\n        }\\n    }\\n\\n    function extract_10_8(bytes10 self, uint8 offset) internal pure returns (bytes8 result) {\\n        if (offset > 2) revert OutOfRangeAccess();\\n        assembly (\\\"memory-safe\\\") {\\n            result := and(shl(mul(8, offset), self), shl(192, not(0)))\\n        }\\n    }\\n\\n    function replace_10_8(bytes10 self, bytes8 value, uint8 offset) internal pure returns (bytes10 result) {\\n        bytes8 oldValue = extract_10_8(self, offset);\\n        assembly (\\\"memory-safe\\\") {\\n            value := and(value, shl(192, not(0)))\\n            result := xor(self, shr(mul(8, offset), xor(oldValue, value)))\\n        }\\n    }\\n\\n    function extract_12_1(bytes12 self, uint8 offset) internal pure returns (bytes1 result) {\\n        if (offset > 11) revert OutOfRangeAccess();\\n        assembly (\\\"memory-safe\\\") {\\n            result := and(shl(mul(8, offset), self), shl(248, not(0)))\\n        }\\n    }\\n\\n    function replace_12_1(bytes12 self, bytes1 value, uint8 offset) internal pure returns (bytes12 result) {\\n        bytes1 oldValue = extract_12_1(self, offset);\\n        assembly (\\\"memory-safe\\\") {\\n            value := and(value, shl(248, not(0)))\\n            result := xor(self, shr(mul(8, offset), xor(oldValue, value)))\\n        }\\n    }\\n\\n    function extract_12_2(bytes12 self, uint8 offset) internal pure returns (bytes2 result) {\\n        if (offset > 10) revert OutOfRangeAccess();\\n        assembly (\\\"memory-safe\\\") {\\n            result := and(shl(mul(8, offset), self), shl(240, not(0)))\\n        }\\n    }\\n\\n    function replace_12_2(bytes12 self, bytes2 value, uint8 offset) internal pure returns (bytes12 result) {\\n        bytes2 oldValue = extract_12_2(self, offset);\\n        assembly (\\\"memory-safe\\\") {\\n            value := and(value, shl(240, not(0)))\\n            result := xor(self, shr(mul(8, offset), xor(oldValue, value)))\\n        }\\n    }\\n\\n    function extract_12_4(bytes12 self, uint8 offset) internal pure returns (bytes4 result) {\\n        if (offset > 8) revert OutOfRangeAccess();\\n        assembly (\\\"memory-safe\\\") {\\n            result := and(shl(mul(8, offset), self), shl(224, not(0)))\\n        }\\n    }\\n\\n    function replace_12_4(bytes12 self, bytes4 value, uint8 offset) internal pure returns (bytes12 result) {\\n        bytes4 oldValue = extract_12_4(self, offset);\\n        assembly (\\\"memory-safe\\\") {\\n            value := and(value, shl(224, not(0)))\\n            result := xor(self, shr(mul(8, offset), xor(oldValue, value)))\\n        }\\n    }\\n\\n    function extract_12_6(bytes12 self, uint8 offset) internal pure returns (bytes6 result) {\\n        if (offset > 6) revert OutOfRangeAccess();\\n        assembly (\\\"memory-safe\\\") {\\n            result := and(shl(mul(8, offset), self), shl(208, not(0)))\\n        }\\n    }\\n\\n    function replace_12_6(bytes12 self, bytes6 value, uint8 offset) internal pure returns (bytes12 result) {\\n        bytes6 oldValue = extract_12_6(self, offset);\\n        assembly (\\\"memory-safe\\\") {\\n            value := and(value, shl(208, not(0)))\\n            result := xor(self, shr(mul(8, offset), xor(oldValue, value)))\\n        }\\n    }\\n\\n    function extract_12_8(bytes12 self, uint8 offset) internal pure returns (bytes8 result) {\\n        if (offset > 4) revert OutOfRangeAccess();\\n        assembly (\\\"memory-safe\\\") {\\n            result := and(shl(mul(8, offset), self), shl(192, not(0)))\\n        }\\n    }\\n\\n    function replace_12_8(bytes12 self, bytes8 value, uint8 offset) internal pure returns (bytes12 result) {\\n        bytes8 oldValue = extract_12_8(self, offset);\\n        assembly (\\\"memory-safe\\\") {\\n            value := and(value, shl(192, not(0)))\\n            result := xor(self, shr(mul(8, offset), xor(oldValue, value)))\\n        }\\n    }\\n\\n    function extract_12_10(bytes12 self, uint8 offset) internal pure returns (bytes10 result) {\\n        if (offset > 2) revert OutOfRangeAccess();\\n        assembly (\\\"memory-safe\\\") {\\n            result := and(shl(mul(8, offset), self), shl(176, not(0)))\\n        }\\n    }\\n\\n    function replace_12_10(bytes12 self, bytes10 value, uint8 offset) internal pure returns (bytes12 result) {\\n        bytes10 oldValue = extract_12_10(self, offset);\\n        assembly (\\\"memory-safe\\\") {\\n            value := and(value, shl(176, not(0)))\\n            result := xor(self, shr(mul(8, offset), xor(oldValue, value)))\\n        }\\n    }\\n\\n    function extract_16_1(bytes16 self, uint8 offset) internal pure returns (bytes1 result) {\\n        if (offset > 15) revert OutOfRangeAccess();\\n        assembly (\\\"memory-safe\\\") {\\n            result := and(shl(mul(8, offset), self), shl(248, not(0)))\\n        }\\n    }\\n\\n    function replace_16_1(bytes16 self, bytes1 value, uint8 offset) internal pure returns (bytes16 result) {\\n        bytes1 oldValue = extract_16_1(self, offset);\\n        assembly (\\\"memory-safe\\\") {\\n            value := and(value, shl(248, not(0)))\\n            result := xor(self, shr(mul(8, offset), xor(oldValue, value)))\\n        }\\n    }\\n\\n    function extract_16_2(bytes16 self, uint8 offset) internal pure returns (bytes2 result) {\\n        if (offset > 14) revert OutOfRangeAccess();\\n        assembly (\\\"memory-safe\\\") {\\n            result := and(shl(mul(8, offset), self), shl(240, not(0)))\\n        }\\n    }\\n\\n    function replace_16_2(bytes16 self, bytes2 value, uint8 offset) internal pure returns (bytes16 result) {\\n        bytes2 oldValue = extract_16_2(self, offset);\\n        assembly (\\\"memory-safe\\\") {\\n            value := and(value, shl(240, not(0)))\\n            result := xor(self, shr(mul(8, offset), xor(oldValue, value)))\\n        }\\n    }\\n\\n    function extract_16_4(bytes16 self, uint8 offset) internal pure returns (bytes4 result) {\\n        if (offset > 12) revert OutOfRangeAccess();\\n        assembly (\\\"memory-safe\\\") {\\n            result := and(shl(mul(8, offset), self), shl(224, not(0)))\\n        }\\n    }\\n\\n    function replace_16_4(bytes16 self, bytes4 value, uint8 offset) internal pure returns (bytes16 result) {\\n        bytes4 oldValue = extract_16_4(self, offset);\\n        assembly (\\\"memory-safe\\\") {\\n            value := and(value, shl(224, not(0)))\\n            result := xor(self, shr(mul(8, offset), xor(oldValue, value)))\\n        }\\n    }\\n\\n    function extract_16_6(bytes16 self, uint8 offset) internal pure returns (bytes6 result) {\\n        if (offset > 10) revert OutOfRangeAccess();\\n        assembly (\\\"memory-safe\\\") {\\n            result := and(shl(mul(8, offset), self), shl(208, not(0)))\\n        }\\n    }\\n\\n    function replace_16_6(bytes16 self, bytes6 value, uint8 offset) internal pure returns (bytes16 result) {\\n        bytes6 oldValue = extract_16_6(self, offset);\\n        assembly (\\\"memory-safe\\\") {\\n            value := and(value, shl(208, not(0)))\\n            result := xor(self, shr(mul(8, offset), xor(oldValue, value)))\\n        }\\n    }\\n\\n    function extract_16_8(bytes16 self, uint8 offset) internal pure returns (bytes8 result) {\\n        if (offset > 8) revert OutOfRangeAccess();\\n        assembly (\\\"memory-safe\\\") {\\n            result := and(shl(mul(8, offset), self), shl(192, not(0)))\\n        }\\n    }\\n\\n    function replace_16_8(bytes16 self, bytes8 value, uint8 offset) internal pure returns (bytes16 result) {\\n        bytes8 oldValue = extract_16_8(self, offset);\\n        assembly (\\\"memory-safe\\\") {\\n            value := and(value, shl(192, not(0)))\\n            result := xor(self, shr(mul(8, offset), xor(oldValue, value)))\\n        }\\n    }\\n\\n    function extract_16_10(bytes16 self, uint8 offset) internal pure returns (bytes10 result) {\\n        if (offset > 6) revert OutOfRangeAccess();\\n        assembly (\\\"memory-safe\\\") {\\n            result := and(shl(mul(8, offset), self), shl(176, not(0)))\\n        }\\n    }\\n\\n    function replace_16_10(bytes16 self, bytes10 value, uint8 offset) internal pure returns (bytes16 result) {\\n        bytes10 oldValue = extract_16_10(self, offset);\\n        assembly (\\\"memory-safe\\\") {\\n            value := and(value, shl(176, not(0)))\\n            result := xor(self, shr(mul(8, offset), xor(oldValue, value)))\\n        }\\n    }\\n\\n    function extract_16_12(bytes16 self, uint8 offset) internal pure returns (bytes12 result) {\\n        if (offset > 4) revert OutOfRangeAccess();\\n        assembly (\\\"memory-safe\\\") {\\n            result := and(shl(mul(8, offset), self), shl(160, not(0)))\\n        }\\n    }\\n\\n    function replace_16_12(bytes16 self, bytes12 value, uint8 offset) internal pure returns (bytes16 result) {\\n        bytes12 oldValue = extract_16_12(self, offset);\\n        assembly (\\\"memory-safe\\\") {\\n            value := and(value, shl(160, not(0)))\\n            result := xor(self, shr(mul(8, offset), xor(oldValue, value)))\\n        }\\n    }\\n\\n    function extract_20_1(bytes20 self, uint8 offset) internal pure returns (bytes1 result) {\\n        if (offset > 19) revert OutOfRangeAccess();\\n        assembly (\\\"memory-safe\\\") {\\n            result := and(shl(mul(8, offset), self), shl(248, not(0)))\\n        }\\n    }\\n\\n    function replace_20_1(bytes20 self, bytes1 value, uint8 offset) internal pure returns (bytes20 result) {\\n        bytes1 oldValue = extract_20_1(self, offset);\\n        assembly (\\\"memory-safe\\\") {\\n            value := and(value, shl(248, not(0)))\\n            result := xor(self, shr(mul(8, offset), xor(oldValue, value)))\\n        }\\n    }\\n\\n    function extract_20_2(bytes20 self, uint8 offset) internal pure returns (bytes2 result) {\\n        if (offset > 18) revert OutOfRangeAccess();\\n        assembly (\\\"memory-safe\\\") {\\n            result := and(shl(mul(8, offset), self), shl(240, not(0)))\\n        }\\n    }\\n\\n    function replace_20_2(bytes20 self, bytes2 value, uint8 offset) internal pure returns (bytes20 result) {\\n        bytes2 oldValue = extract_20_2(self, offset);\\n        assembly (\\\"memory-safe\\\") {\\n            value := and(value, shl(240, not(0)))\\n            result := xor(self, shr(mul(8, offset), xor(oldValue, value)))\\n        }\\n    }\\n\\n    function extract_20_4(bytes20 self, uint8 offset) internal pure returns (bytes4 result) {\\n        if (offset > 16) revert OutOfRangeAccess();\\n        assembly (\\\"memory-safe\\\") {\\n            result := and(shl(mul(8, offset), self), shl(224, not(0)))\\n        }\\n    }\\n\\n    function replace_20_4(bytes20 self, bytes4 value, uint8 offset) internal pure returns (bytes20 result) {\\n        bytes4 oldValue = extract_20_4(self, offset);\\n        assembly (\\\"memory-safe\\\") {\\n            value := and(value, shl(224, not(0)))\\n            result := xor(self, shr(mul(8, offset), xor(oldValue, value)))\\n        }\\n    }\\n\\n    function extract_20_6(bytes20 self, uint8 offset) internal pure returns (bytes6 result) {\\n        if (offset > 14) revert OutOfRangeAccess();\\n        assembly (\\\"memory-safe\\\") {\\n            result := and(shl(mul(8, offset), self), shl(208, not(0)))\\n        }\\n    }\\n\\n    function replace_20_6(bytes20 self, bytes6 value, uint8 offset) internal pure returns (bytes20 result) {\\n        bytes6 oldValue = extract_20_6(self, offset);\\n        assembly (\\\"memory-safe\\\") {\\n            value := and(value, shl(208, not(0)))\\n            result := xor(self, shr(mul(8, offset), xor(oldValue, value)))\\n        }\\n    }\\n\\n    function extract_20_8(bytes20 self, uint8 offset) internal pure returns (bytes8 result) {\\n        if (offset > 12) revert OutOfRangeAccess();\\n        assembly (\\\"memory-safe\\\") {\\n            result := and(shl(mul(8, offset), self), shl(192, not(0)))\\n        }\\n    }\\n\\n    function replace_20_8(bytes20 self, bytes8 value, uint8 offset) internal pure returns (bytes20 result) {\\n        bytes8 oldValue = extract_20_8(self, offset);\\n        assembly (\\\"memory-safe\\\") {\\n            value := and(value, shl(192, not(0)))\\n            result := xor(self, shr(mul(8, offset), xor(oldValue, value)))\\n        }\\n    }\\n\\n    function extract_20_10(bytes20 self, uint8 offset) internal pure returns (bytes10 result) {\\n        if (offset > 10) revert OutOfRangeAccess();\\n        assembly (\\\"memory-safe\\\") {\\n            result := and(shl(mul(8, offset), self), shl(176, not(0)))\\n        }\\n    }\\n\\n    function replace_20_10(bytes20 self, bytes10 value, uint8 offset) internal pure returns (bytes20 result) {\\n        bytes10 oldValue = extract_20_10(self, offset);\\n        assembly (\\\"memory-safe\\\") {\\n            value := and(value, shl(176, not(0)))\\n            result := xor(self, shr(mul(8, offset), xor(oldValue, value)))\\n        }\\n    }\\n\\n    function extract_20_12(bytes20 self, uint8 offset) internal pure returns (bytes12 result) {\\n        if (offset > 8) revert OutOfRangeAccess();\\n        assembly (\\\"memory-safe\\\") {\\n            result := and(shl(mul(8, offset), self), shl(160, not(0)))\\n        }\\n    }\\n\\n    function replace_20_12(bytes20 self, bytes12 value, uint8 offset) internal pure returns (bytes20 result) {\\n        bytes12 oldValue = extract_20_12(self, offset);\\n        assembly (\\\"memory-safe\\\") {\\n            value := and(value, shl(160, not(0)))\\n            result := xor(self, shr(mul(8, offset), xor(oldValue, value)))\\n        }\\n    }\\n\\n    function extract_20_16(bytes20 self, uint8 offset) internal pure returns (bytes16 result) {\\n        if (offset > 4) revert OutOfRangeAccess();\\n        assembly (\\\"memory-safe\\\") {\\n            result := and(shl(mul(8, offset), self), shl(128, not(0)))\\n        }\\n    }\\n\\n    function replace_20_16(bytes20 self, bytes16 value, uint8 offset) internal pure returns (bytes20 result) {\\n        bytes16 oldValue = extract_20_16(self, offset);\\n        assembly (\\\"memory-safe\\\") {\\n            value := and(value, shl(128, not(0)))\\n            result := xor(self, shr(mul(8, offset), xor(oldValue, value)))\\n        }\\n    }\\n\\n    function extract_22_1(bytes22 self, uint8 offset) internal pure returns (bytes1 result) {\\n        if (offset > 21) revert OutOfRangeAccess();\\n        assembly (\\\"memory-safe\\\") {\\n            result := and(shl(mul(8, offset), self), shl(248, not(0)))\\n        }\\n    }\\n\\n    function replace_22_1(bytes22 self, bytes1 value, uint8 offset) internal pure returns (bytes22 result) {\\n        bytes1 oldValue = extract_22_1(self, offset);\\n        assembly (\\\"memory-safe\\\") {\\n            value := and(value, shl(248, not(0)))\\n            result := xor(self, shr(mul(8, offset), xor(oldValue, value)))\\n        }\\n    }\\n\\n    function extract_22_2(bytes22 self, uint8 offset) internal pure returns (bytes2 result) {\\n        if (offset > 20) revert OutOfRangeAccess();\\n        assembly (\\\"memory-safe\\\") {\\n            result := and(shl(mul(8, offset), self), shl(240, not(0)))\\n        }\\n    }\\n\\n    function replace_22_2(bytes22 self, bytes2 value, uint8 offset) internal pure returns (bytes22 result) {\\n        bytes2 oldValue = extract_22_2(self, offset);\\n        assembly (\\\"memory-safe\\\") {\\n            value := and(value, shl(240, not(0)))\\n            result := xor(self, shr(mul(8, offset), xor(oldValue, value)))\\n        }\\n    }\\n\\n    function extract_22_4(bytes22 self, uint8 offset) internal pure returns (bytes4 result) {\\n        if (offset > 18) revert OutOfRangeAccess();\\n        assembly (\\\"memory-safe\\\") {\\n            result := and(shl(mul(8, offset), self), shl(224, not(0)))\\n        }\\n    }\\n\\n    function replace_22_4(bytes22 self, bytes4 value, uint8 offset) internal pure returns (bytes22 result) {\\n        bytes4 oldValue = extract_22_4(self, offset);\\n        assembly (\\\"memory-safe\\\") {\\n            value := and(value, shl(224, not(0)))\\n            result := xor(self, shr(mul(8, offset), xor(oldValue, value)))\\n        }\\n    }\\n\\n    function extract_22_6(bytes22 self, uint8 offset) internal pure returns (bytes6 result) {\\n        if (offset > 16) revert OutOfRangeAccess();\\n        assembly (\\\"memory-safe\\\") {\\n            result := and(shl(mul(8, offset), self), shl(208, not(0)))\\n        }\\n    }\\n\\n    function replace_22_6(bytes22 self, bytes6 value, uint8 offset) internal pure returns (bytes22 result) {\\n        bytes6 oldValue = extract_22_6(self, offset);\\n        assembly (\\\"memory-safe\\\") {\\n            value := and(value, shl(208, not(0)))\\n            result := xor(self, shr(mul(8, offset), xor(oldValue, value)))\\n        }\\n    }\\n\\n    function extract_22_8(bytes22 self, uint8 offset) internal pure returns (bytes8 result) {\\n        if (offset > 14) revert OutOfRangeAccess();\\n        assembly (\\\"memory-safe\\\") {\\n            result := and(shl(mul(8, offset), self), shl(192, not(0)))\\n        }\\n    }\\n\\n    function replace_22_8(bytes22 self, bytes8 value, uint8 offset) internal pure returns (bytes22 result) {\\n        bytes8 oldValue = extract_22_8(self, offset);\\n        assembly (\\\"memory-safe\\\") {\\n            value := and(value, shl(192, not(0)))\\n            result := xor(self, shr(mul(8, offset), xor(oldValue, value)))\\n        }\\n    }\\n\\n    function extract_22_10(bytes22 self, uint8 offset) internal pure returns (bytes10 result) {\\n        if (offset > 12) revert OutOfRangeAccess();\\n        assembly (\\\"memory-safe\\\") {\\n            result := and(shl(mul(8, offset), self), shl(176, not(0)))\\n        }\\n    }\\n\\n    function replace_22_10(bytes22 self, bytes10 value, uint8 offset) internal pure returns (bytes22 result) {\\n        bytes10 oldValue = extract_22_10(self, offset);\\n        assembly (\\\"memory-safe\\\") {\\n            value := and(value, shl(176, not(0)))\\n            result := xor(self, shr(mul(8, offset), xor(oldValue, value)))\\n        }\\n    }\\n\\n    function extract_22_12(bytes22 self, uint8 offset) internal pure returns (bytes12 result) {\\n        if (offset > 10) revert OutOfRangeAccess();\\n        assembly (\\\"memory-safe\\\") {\\n            result := and(shl(mul(8, offset), self), shl(160, not(0)))\\n        }\\n    }\\n\\n    function replace_22_12(bytes22 self, bytes12 value, uint8 offset) internal pure returns (bytes22 result) {\\n        bytes12 oldValue = extract_22_12(self, offset);\\n        assembly (\\\"memory-safe\\\") {\\n            value := and(value, shl(160, not(0)))\\n            result := xor(self, shr(mul(8, offset), xor(oldValue, value)))\\n        }\\n    }\\n\\n    function extract_22_16(bytes22 self, uint8 offset) internal pure returns (bytes16 result) {\\n        if (offset > 6) revert OutOfRangeAccess();\\n        assembly (\\\"memory-safe\\\") {\\n            result := and(shl(mul(8, offset), self), shl(128, not(0)))\\n        }\\n    }\\n\\n    function replace_22_16(bytes22 self, bytes16 value, uint8 offset) internal pure returns (bytes22 result) {\\n        bytes16 oldValue = extract_22_16(self, offset);\\n        assembly (\\\"memory-safe\\\") {\\n            value := and(value, shl(128, not(0)))\\n            result := xor(self, shr(mul(8, offset), xor(oldValue, value)))\\n        }\\n    }\\n\\n    function extract_22_20(bytes22 self, uint8 offset) internal pure returns (bytes20 result) {\\n        if (offset > 2) revert OutOfRangeAccess();\\n        assembly (\\\"memory-safe\\\") {\\n            result := and(shl(mul(8, offset), self), shl(96, not(0)))\\n        }\\n    }\\n\\n    function replace_22_20(bytes22 self, bytes20 value, uint8 offset) internal pure returns (bytes22 result) {\\n        bytes20 oldValue = extract_22_20(self, offset);\\n        assembly (\\\"memory-safe\\\") {\\n            value := and(value, shl(96, not(0)))\\n            result := xor(self, shr(mul(8, offset), xor(oldValue, value)))\\n        }\\n    }\\n\\n    function extract_24_1(bytes24 self, uint8 offset) internal pure returns (bytes1 result) {\\n        if (offset > 23) revert OutOfRangeAccess();\\n        assembly (\\\"memory-safe\\\") {\\n            result := and(shl(mul(8, offset), self), shl(248, not(0)))\\n        }\\n    }\\n\\n    function replace_24_1(bytes24 self, bytes1 value, uint8 offset) internal pure returns (bytes24 result) {\\n        bytes1 oldValue = extract_24_1(self, offset);\\n        assembly (\\\"memory-safe\\\") {\\n            value := and(value, shl(248, not(0)))\\n            result := xor(self, shr(mul(8, offset), xor(oldValue, value)))\\n        }\\n    }\\n\\n    function extract_24_2(bytes24 self, uint8 offset) internal pure returns (bytes2 result) {\\n        if (offset > 22) revert OutOfRangeAccess();\\n        assembly (\\\"memory-safe\\\") {\\n            result := and(shl(mul(8, offset), self), shl(240, not(0)))\\n        }\\n    }\\n\\n    function replace_24_2(bytes24 self, bytes2 value, uint8 offset) internal pure returns (bytes24 result) {\\n        bytes2 oldValue = extract_24_2(self, offset);\\n        assembly (\\\"memory-safe\\\") {\\n            value := and(value, shl(240, not(0)))\\n            result := xor(self, shr(mul(8, offset), xor(oldValue, value)))\\n        }\\n    }\\n\\n    function extract_24_4(bytes24 self, uint8 offset) internal pure returns (bytes4 result) {\\n        if (offset > 20) revert OutOfRangeAccess();\\n        assembly (\\\"memory-safe\\\") {\\n            result := and(shl(mul(8, offset), self), shl(224, not(0)))\\n        }\\n    }\\n\\n    function replace_24_4(bytes24 self, bytes4 value, uint8 offset) internal pure returns (bytes24 result) {\\n        bytes4 oldValue = extract_24_4(self, offset);\\n        assembly (\\\"memory-safe\\\") {\\n            value := and(value, shl(224, not(0)))\\n            result := xor(self, shr(mul(8, offset), xor(oldValue, value)))\\n        }\\n    }\\n\\n    function extract_24_6(bytes24 self, uint8 offset) internal pure returns (bytes6 result) {\\n        if (offset > 18) revert OutOfRangeAccess();\\n        assembly (\\\"memory-safe\\\") {\\n            result := and(shl(mul(8, offset), self), shl(208, not(0)))\\n        }\\n    }\\n\\n    function replace_24_6(bytes24 self, bytes6 value, uint8 offset) internal pure returns (bytes24 result) {\\n        bytes6 oldValue = extract_24_6(self, offset);\\n        assembly (\\\"memory-safe\\\") {\\n            value := and(value, shl(208, not(0)))\\n            result := xor(self, shr(mul(8, offset), xor(oldValue, value)))\\n        }\\n    }\\n\\n    function extract_24_8(bytes24 self, uint8 offset) internal pure returns (bytes8 result) {\\n        if (offset > 16) revert OutOfRangeAccess();\\n        assembly (\\\"memory-safe\\\") {\\n            result := and(shl(mul(8, offset), self), shl(192, not(0)))\\n        }\\n    }\\n\\n    function replace_24_8(bytes24 self, bytes8 value, uint8 offset) internal pure returns (bytes24 result) {\\n        bytes8 oldValue = extract_24_8(self, offset);\\n        assembly (\\\"memory-safe\\\") {\\n            value := and(value, shl(192, not(0)))\\n            result := xor(self, shr(mul(8, offset), xor(oldValue, value)))\\n        }\\n    }\\n\\n    function extract_24_10(bytes24 self, uint8 offset) internal pure returns (bytes10 result) {\\n        if (offset > 14) revert OutOfRangeAccess();\\n        assembly (\\\"memory-safe\\\") {\\n            result := and(shl(mul(8, offset), self), shl(176, not(0)))\\n        }\\n    }\\n\\n    function replace_24_10(bytes24 self, bytes10 value, uint8 offset) internal pure returns (bytes24 result) {\\n        bytes10 oldValue = extract_24_10(self, offset);\\n        assembly (\\\"memory-safe\\\") {\\n            value := and(value, shl(176, not(0)))\\n            result := xor(self, shr(mul(8, offset), xor(oldValue, value)))\\n        }\\n    }\\n\\n    function extract_24_12(bytes24 self, uint8 offset) internal pure returns (bytes12 result) {\\n        if (offset > 12) revert OutOfRangeAccess();\\n        assembly (\\\"memory-safe\\\") {\\n            result := and(shl(mul(8, offset), self), shl(160, not(0)))\\n        }\\n    }\\n\\n    function replace_24_12(bytes24 self, bytes12 value, uint8 offset) internal pure returns (bytes24 result) {\\n        bytes12 oldValue = extract_24_12(self, offset);\\n        assembly (\\\"memory-safe\\\") {\\n            value := and(value, shl(160, not(0)))\\n            result := xor(self, shr(mul(8, offset), xor(oldValue, value)))\\n        }\\n    }\\n\\n    function extract_24_16(bytes24 self, uint8 offset) internal pure returns (bytes16 result) {\\n        if (offset > 8) revert OutOfRangeAccess();\\n        assembly (\\\"memory-safe\\\") {\\n            result := and(shl(mul(8, offset), self), shl(128, not(0)))\\n        }\\n    }\\n\\n    function replace_24_16(bytes24 self, bytes16 value, uint8 offset) internal pure returns (bytes24 result) {\\n        bytes16 oldValue = extract_24_16(self, offset);\\n        assembly (\\\"memory-safe\\\") {\\n            value := and(value, shl(128, not(0)))\\n            result := xor(self, shr(mul(8, offset), xor(oldValue, value)))\\n        }\\n    }\\n\\n    function extract_24_20(bytes24 self, uint8 offset) internal pure returns (bytes20 result) {\\n        if (offset > 4) revert OutOfRangeAccess();\\n        assembly (\\\"memory-safe\\\") {\\n            result := and(shl(mul(8, offset), self), shl(96, not(0)))\\n        }\\n    }\\n\\n    function replace_24_20(bytes24 self, bytes20 value, uint8 offset) internal pure returns (bytes24 result) {\\n        bytes20 oldValue = extract_24_20(self, offset);\\n        assembly (\\\"memory-safe\\\") {\\n            value := and(value, shl(96, not(0)))\\n            result := xor(self, shr(mul(8, offset), xor(oldValue, value)))\\n        }\\n    }\\n\\n    function extract_24_22(bytes24 self, uint8 offset) internal pure returns (bytes22 result) {\\n        if (offset > 2) revert OutOfRangeAccess();\\n        assembly (\\\"memory-safe\\\") {\\n            result := and(shl(mul(8, offset), self), shl(80, not(0)))\\n        }\\n    }\\n\\n    function replace_24_22(bytes24 self, bytes22 value, uint8 offset) internal pure returns (bytes24 result) {\\n        bytes22 oldValue = extract_24_22(self, offset);\\n        assembly (\\\"memory-safe\\\") {\\n            value := and(value, shl(80, not(0)))\\n            result := xor(self, shr(mul(8, offset), xor(oldValue, value)))\\n        }\\n    }\\n\\n    function extract_28_1(bytes28 self, uint8 offset) internal pure returns (bytes1 result) {\\n        if (offset > 27) revert OutOfRangeAccess();\\n        assembly (\\\"memory-safe\\\") {\\n            result := and(shl(mul(8, offset), self), shl(248, not(0)))\\n        }\\n    }\\n\\n    function replace_28_1(bytes28 self, bytes1 value, uint8 offset) internal pure returns (bytes28 result) {\\n        bytes1 oldValue = extract_28_1(self, offset);\\n        assembly (\\\"memory-safe\\\") {\\n            value := and(value, shl(248, not(0)))\\n            result := xor(self, shr(mul(8, offset), xor(oldValue, value)))\\n        }\\n    }\\n\\n    function extract_28_2(bytes28 self, uint8 offset) internal pure returns (bytes2 result) {\\n        if (offset > 26) revert OutOfRangeAccess();\\n        assembly (\\\"memory-safe\\\") {\\n            result := and(shl(mul(8, offset), self), shl(240, not(0)))\\n        }\\n    }\\n\\n    function replace_28_2(bytes28 self, bytes2 value, uint8 offset) internal pure returns (bytes28 result) {\\n        bytes2 oldValue = extract_28_2(self, offset);\\n        assembly (\\\"memory-safe\\\") {\\n            value := and(value, shl(240, not(0)))\\n            result := xor(self, shr(mul(8, offset), xor(oldValue, value)))\\n        }\\n    }\\n\\n    function extract_28_4(bytes28 self, uint8 offset) internal pure returns (bytes4 result) {\\n        if (offset > 24) revert OutOfRangeAccess();\\n        assembly (\\\"memory-safe\\\") {\\n            result := and(shl(mul(8, offset), self), shl(224, not(0)))\\n        }\\n    }\\n\\n    function replace_28_4(bytes28 self, bytes4 value, uint8 offset) internal pure returns (bytes28 result) {\\n        bytes4 oldValue = extract_28_4(self, offset);\\n        assembly (\\\"memory-safe\\\") {\\n            value := and(value, shl(224, not(0)))\\n            result := xor(self, shr(mul(8, offset), xor(oldValue, value)))\\n        }\\n    }\\n\\n    function extract_28_6(bytes28 self, uint8 offset) internal pure returns (bytes6 result) {\\n        if (offset > 22) revert OutOfRangeAccess();\\n        assembly (\\\"memory-safe\\\") {\\n            result := and(shl(mul(8, offset), self), shl(208, not(0)))\\n        }\\n    }\\n\\n    function replace_28_6(bytes28 self, bytes6 value, uint8 offset) internal pure returns (bytes28 result) {\\n        bytes6 oldValue = extract_28_6(self, offset);\\n        assembly (\\\"memory-safe\\\") {\\n            value := and(value, shl(208, not(0)))\\n            result := xor(self, shr(mul(8, offset), xor(oldValue, value)))\\n        }\\n    }\\n\\n    function extract_28_8(bytes28 self, uint8 offset) internal pure returns (bytes8 result) {\\n        if (offset > 20) revert OutOfRangeAccess();\\n        assembly (\\\"memory-safe\\\") {\\n            result := and(shl(mul(8, offset), self), shl(192, not(0)))\\n        }\\n    }\\n\\n    function replace_28_8(bytes28 self, bytes8 value, uint8 offset) internal pure returns (bytes28 result) {\\n        bytes8 oldValue = extract_28_8(self, offset);\\n        assembly (\\\"memory-safe\\\") {\\n            value := and(value, shl(192, not(0)))\\n            result := xor(self, shr(mul(8, offset), xor(oldValue, value)))\\n        }\\n    }\\n\\n    function extract_28_10(bytes28 self, uint8 offset) internal pure returns (bytes10 result) {\\n        if (offset > 18) revert OutOfRangeAccess();\\n        assembly (\\\"memory-safe\\\") {\\n            result := and(shl(mul(8, offset), self), shl(176, not(0)))\\n        }\\n    }\\n\\n    function replace_28_10(bytes28 self, bytes10 value, uint8 offset) internal pure returns (bytes28 result) {\\n        bytes10 oldValue = extract_28_10(self, offset);\\n        assembly (\\\"memory-safe\\\") {\\n            value := and(value, shl(176, not(0)))\\n            result := xor(self, shr(mul(8, offset), xor(oldValue, value)))\\n        }\\n    }\\n\\n    function extract_28_12(bytes28 self, uint8 offset) internal pure returns (bytes12 result) {\\n        if (offset > 16) revert OutOfRangeAccess();\\n        assembly (\\\"memory-safe\\\") {\\n            result := and(shl(mul(8, offset), self), shl(160, not(0)))\\n        }\\n    }\\n\\n    function replace_28_12(bytes28 self, bytes12 value, uint8 offset) internal pure returns (bytes28 result) {\\n        bytes12 oldValue = extract_28_12(self, offset);\\n        assembly (\\\"memory-safe\\\") {\\n            value := and(value, shl(160, not(0)))\\n            result := xor(self, shr(mul(8, offset), xor(oldValue, value)))\\n        }\\n    }\\n\\n    function extract_28_16(bytes28 self, uint8 offset) internal pure returns (bytes16 result) {\\n        if (offset > 12) revert OutOfRangeAccess();\\n        assembly (\\\"memory-safe\\\") {\\n            result := and(shl(mul(8, offset), self), shl(128, not(0)))\\n        }\\n    }\\n\\n    function replace_28_16(bytes28 self, bytes16 value, uint8 offset) internal pure returns (bytes28 result) {\\n        bytes16 oldValue = extract_28_16(self, offset);\\n        assembly (\\\"memory-safe\\\") {\\n            value := and(value, shl(128, not(0)))\\n            result := xor(self, shr(mul(8, offset), xor(oldValue, value)))\\n        }\\n    }\\n\\n    function extract_28_20(bytes28 self, uint8 offset) internal pure returns (bytes20 result) {\\n        if (offset > 8) revert OutOfRangeAccess();\\n        assembly (\\\"memory-safe\\\") {\\n            result := and(shl(mul(8, offset), self), shl(96, not(0)))\\n        }\\n    }\\n\\n    function replace_28_20(bytes28 self, bytes20 value, uint8 offset) internal pure returns (bytes28 result) {\\n        bytes20 oldValue = extract_28_20(self, offset);\\n        assembly (\\\"memory-safe\\\") {\\n            value := and(value, shl(96, not(0)))\\n            result := xor(self, shr(mul(8, offset), xor(oldValue, value)))\\n        }\\n    }\\n\\n    function extract_28_22(bytes28 self, uint8 offset) internal pure returns (bytes22 result) {\\n        if (offset > 6) revert OutOfRangeAccess();\\n        assembly (\\\"memory-safe\\\") {\\n            result := and(shl(mul(8, offset), self), shl(80, not(0)))\\n        }\\n    }\\n\\n    function replace_28_22(bytes28 self, bytes22 value, uint8 offset) internal pure returns (bytes28 result) {\\n        bytes22 oldValue = extract_28_22(self, offset);\\n        assembly (\\\"memory-safe\\\") {\\n            value := and(value, shl(80, not(0)))\\n            result := xor(self, shr(mul(8, offset), xor(oldValue, value)))\\n        }\\n    }\\n\\n    function extract_28_24(bytes28 self, uint8 offset) internal pure returns (bytes24 result) {\\n        if (offset > 4) revert OutOfRangeAccess();\\n        assembly (\\\"memory-safe\\\") {\\n            result := and(shl(mul(8, offset), self), shl(64, not(0)))\\n        }\\n    }\\n\\n    function replace_28_24(bytes28 self, bytes24 value, uint8 offset) internal pure returns (bytes28 result) {\\n        bytes24 oldValue = extract_28_24(self, offset);\\n        assembly (\\\"memory-safe\\\") {\\n            value := and(value, shl(64, not(0)))\\n            result := xor(self, shr(mul(8, offset), xor(oldValue, value)))\\n        }\\n    }\\n\\n    function extract_32_1(bytes32 self, uint8 offset) internal pure returns (bytes1 result) {\\n        if (offset > 31) revert OutOfRangeAccess();\\n        assembly (\\\"memory-safe\\\") {\\n            result := and(shl(mul(8, offset), self), shl(248, not(0)))\\n        }\\n    }\\n\\n    function replace_32_1(bytes32 self, bytes1 value, uint8 offset) internal pure returns (bytes32 result) {\\n        bytes1 oldValue = extract_32_1(self, offset);\\n        assembly (\\\"memory-safe\\\") {\\n            value := and(value, shl(248, not(0)))\\n            result := xor(self, shr(mul(8, offset), xor(oldValue, value)))\\n        }\\n    }\\n\\n    function extract_32_2(bytes32 self, uint8 offset) internal pure returns (bytes2 result) {\\n        if (offset > 30) revert OutOfRangeAccess();\\n        assembly (\\\"memory-safe\\\") {\\n            result := and(shl(mul(8, offset), self), shl(240, not(0)))\\n        }\\n    }\\n\\n    function replace_32_2(bytes32 self, bytes2 value, uint8 offset) internal pure returns (bytes32 result) {\\n        bytes2 oldValue = extract_32_2(self, offset);\\n        assembly (\\\"memory-safe\\\") {\\n            value := and(value, shl(240, not(0)))\\n            result := xor(self, shr(mul(8, offset), xor(oldValue, value)))\\n        }\\n    }\\n\\n    function extract_32_4(bytes32 self, uint8 offset) internal pure returns (bytes4 result) {\\n        if (offset > 28) revert OutOfRangeAccess();\\n        assembly (\\\"memory-safe\\\") {\\n            result := and(shl(mul(8, offset), self), shl(224, not(0)))\\n        }\\n    }\\n\\n    function replace_32_4(bytes32 self, bytes4 value, uint8 offset) internal pure returns (bytes32 result) {\\n        bytes4 oldValue = extract_32_4(self, offset);\\n        assembly (\\\"memory-safe\\\") {\\n            value := and(value, shl(224, not(0)))\\n            result := xor(self, shr(mul(8, offset), xor(oldValue, value)))\\n        }\\n    }\\n\\n    function extract_32_6(bytes32 self, uint8 offset) internal pure returns (bytes6 result) {\\n        if (offset > 26) revert OutOfRangeAccess();\\n        assembly (\\\"memory-safe\\\") {\\n            result := and(shl(mul(8, offset), self), shl(208, not(0)))\\n        }\\n    }\\n\\n    function replace_32_6(bytes32 self, bytes6 value, uint8 offset) internal pure returns (bytes32 result) {\\n        bytes6 oldValue = extract_32_6(self, offset);\\n        assembly (\\\"memory-safe\\\") {\\n            value := and(value, shl(208, not(0)))\\n            result := xor(self, shr(mul(8, offset), xor(oldValue, value)))\\n        }\\n    }\\n\\n    function extract_32_8(bytes32 self, uint8 offset) internal pure returns (bytes8 result) {\\n        if (offset > 24) revert OutOfRangeAccess();\\n        assembly (\\\"memory-safe\\\") {\\n            result := and(shl(mul(8, offset), self), shl(192, not(0)))\\n        }\\n    }\\n\\n    function replace_32_8(bytes32 self, bytes8 value, uint8 offset) internal pure returns (bytes32 result) {\\n        bytes8 oldValue = extract_32_8(self, offset);\\n        assembly (\\\"memory-safe\\\") {\\n            value := and(value, shl(192, not(0)))\\n            result := xor(self, shr(mul(8, offset), xor(oldValue, value)))\\n        }\\n    }\\n\\n    function extract_32_10(bytes32 self, uint8 offset) internal pure returns (bytes10 result) {\\n        if (offset > 22) revert OutOfRangeAccess();\\n        assembly (\\\"memory-safe\\\") {\\n            result := and(shl(mul(8, offset), self), shl(176, not(0)))\\n        }\\n    }\\n\\n    function replace_32_10(bytes32 self, bytes10 value, uint8 offset) internal pure returns (bytes32 result) {\\n        bytes10 oldValue = extract_32_10(self, offset);\\n        assembly (\\\"memory-safe\\\") {\\n            value := and(value, shl(176, not(0)))\\n            result := xor(self, shr(mul(8, offset), xor(oldValue, value)))\\n        }\\n    }\\n\\n    function extract_32_12(bytes32 self, uint8 offset) internal pure returns (bytes12 result) {\\n        if (offset > 20) revert OutOfRangeAccess();\\n        assembly (\\\"memory-safe\\\") {\\n            result := and(shl(mul(8, offset), self), shl(160, not(0)))\\n        }\\n    }\\n\\n    function replace_32_12(bytes32 self, bytes12 value, uint8 offset) internal pure returns (bytes32 result) {\\n        bytes12 oldValue = extract_32_12(self, offset);\\n        assembly (\\\"memory-safe\\\") {\\n            value := and(value, shl(160, not(0)))\\n            result := xor(self, shr(mul(8, offset), xor(oldValue, value)))\\n        }\\n    }\\n\\n    function extract_32_16(bytes32 self, uint8 offset) internal pure returns (bytes16 result) {\\n        if (offset > 16) revert OutOfRangeAccess();\\n        assembly (\\\"memory-safe\\\") {\\n            result := and(shl(mul(8, offset), self), shl(128, not(0)))\\n        }\\n    }\\n\\n    function replace_32_16(bytes32 self, bytes16 value, uint8 offset) internal pure returns (bytes32 result) {\\n        bytes16 oldValue = extract_32_16(self, offset);\\n        assembly (\\\"memory-safe\\\") {\\n            value := and(value, shl(128, not(0)))\\n            result := xor(self, shr(mul(8, offset), xor(oldValue, value)))\\n        }\\n    }\\n\\n    function extract_32_20(bytes32 self, uint8 offset) internal pure returns (bytes20 result) {\\n        if (offset > 12) revert OutOfRangeAccess();\\n        assembly (\\\"memory-safe\\\") {\\n            result := and(shl(mul(8, offset), self), shl(96, not(0)))\\n        }\\n    }\\n\\n    function replace_32_20(bytes32 self, bytes20 value, uint8 offset) internal pure returns (bytes32 result) {\\n        bytes20 oldValue = extract_32_20(self, offset);\\n        assembly (\\\"memory-safe\\\") {\\n            value := and(value, shl(96, not(0)))\\n            result := xor(self, shr(mul(8, offset), xor(oldValue, value)))\\n        }\\n    }\\n\\n    function extract_32_22(bytes32 self, uint8 offset) internal pure returns (bytes22 result) {\\n        if (offset > 10) revert OutOfRangeAccess();\\n        assembly (\\\"memory-safe\\\") {\\n            result := and(shl(mul(8, offset), self), shl(80, not(0)))\\n        }\\n    }\\n\\n    function replace_32_22(bytes32 self, bytes22 value, uint8 offset) internal pure returns (bytes32 result) {\\n        bytes22 oldValue = extract_32_22(self, offset);\\n        assembly (\\\"memory-safe\\\") {\\n            value := and(value, shl(80, not(0)))\\n            result := xor(self, shr(mul(8, offset), xor(oldValue, value)))\\n        }\\n    }\\n\\n    function extract_32_24(bytes32 self, uint8 offset) internal pure returns (bytes24 result) {\\n        if (offset > 8) revert OutOfRangeAccess();\\n        assembly (\\\"memory-safe\\\") {\\n            result := and(shl(mul(8, offset), self), shl(64, not(0)))\\n        }\\n    }\\n\\n    function replace_32_24(bytes32 self, bytes24 value, uint8 offset) internal pure returns (bytes32 result) {\\n        bytes24 oldValue = extract_32_24(self, offset);\\n        assembly (\\\"memory-safe\\\") {\\n            value := and(value, shl(64, not(0)))\\n            result := xor(self, shr(mul(8, offset), xor(oldValue, value)))\\n        }\\n    }\\n\\n    function extract_32_28(bytes32 self, uint8 offset) internal pure returns (bytes28 result) {\\n        if (offset > 4) revert OutOfRangeAccess();\\n        assembly (\\\"memory-safe\\\") {\\n            result := and(shl(mul(8, offset), self), shl(32, not(0)))\\n        }\\n    }\\n\\n    function replace_32_28(bytes32 self, bytes28 value, uint8 offset) internal pure returns (bytes32 result) {\\n        bytes28 oldValue = extract_32_28(self, offset);\\n        assembly (\\\"memory-safe\\\") {\\n            value := and(value, shl(32, not(0)))\\n            result := xor(self, shr(mul(8, offset), xor(oldValue, value)))\\n        }\\n    }\\n}\\n\"},\"@openzeppelin/contracts/utils/Address.sol\":{\"content\":\"// SPDX-License-Identifier: MIT\\n// OpenZeppelin Contracts (last updated v5.5.0) (utils/Address.sol)\\n\\npragma solidity ^0.8.20;\\n\\nimport {Errors} from \\\"./Errors.sol\\\";\\nimport {LowLevelCall} from \\\"./LowLevelCall.sol\\\";\\n\\n/**\\n * @dev Collection of functions related to the address type\\n */\\nlibrary Address {\\n    /**\\n     * @dev There's no code at `target` (it is not a contract).\\n     */\\n    error AddressEmptyCode(address target);\\n\\n    /**\\n     * @dev Replacement for Solidity's `transfer`: sends `amount` wei to\\n     * `recipient`, forwarding all available gas and reverting on errors.\\n     *\\n     * https://eips.ethereum.org/EIPS/eip-1884[EIP1884] increases the gas cost\\n     * of certain opcodes, possibly making contracts go over the 2300 gas limit\\n     * imposed by `transfer`, making them unable to receive funds via\\n     * `transfer`. {sendValue} removes this limitation.\\n     *\\n     * https://consensys.net/diligence/blog/2019/09/stop-using-soliditys-transfer-now/[Learn more].\\n     *\\n     * IMPORTANT: because control is transferred to `recipient`, care must be\\n     * taken to not create reentrancy vulnerabilities. Consider using\\n     * {ReentrancyGuard} or the\\n     * https://solidity.readthedocs.io/en/v0.8.20/security-considerations.html#use-the-checks-effects-interactions-pattern[checks-effects-interactions pattern].\\n     */\\n    function sendValue(address payable recipient, uint256 amount) internal {\\n        if (address(this).balance < amount) {\\n            revert Errors.InsufficientBalance(address(this).balance, amount);\\n        }\\n        if (LowLevelCall.callNoReturn(recipient, amount, \\\"\\\")) {\\n            // call successful, nothing to do\\n            return;\\n        } else if (LowLevelCall.returnDataSize() > 0) {\\n            LowLevelCall.bubbleRevert();\\n        } else {\\n            revert Errors.FailedCall();\\n        }\\n    }\\n\\n    /**\\n     * @dev Performs a Solidity function call using a low level `call`. A\\n     * plain `call` is an unsafe replacement for a function call: use this\\n     * function instead.\\n     *\\n     * If `target` reverts with a revert reason or custom error, it is bubbled\\n     * up by this function (like regular Solidity function calls). However, if\\n     * the call reverted with no returned reason, this function reverts with a\\n     * {Errors.FailedCall} error.\\n     *\\n     * Returns the raw returned data. To convert to the expected return value,\\n     * use https://solidity.readthedocs.io/en/latest/units-and-global-variables.html?highlight=abi.decode#abi-encoding-and-decoding-functions[`abi.decode`].\\n     *\\n     * Requirements:\\n     *\\n     * - `target` must be a contract.\\n     * - calling `target` with `data` must not revert.\\n     */\\n    function functionCall(address target, bytes memory data) internal returns (bytes memory) {\\n        return functionCallWithValue(target, data, 0);\\n    }\\n\\n    /**\\n     * @dev Same as {xref-Address-functionCall-address-bytes-}[`functionCall`],\\n     * but also transferring `value` wei to `target`.\\n     *\\n     * Requirements:\\n     *\\n     * - the calling contract must have an ETH balance of at least `value`.\\n     * - the called Solidity function must be `payable`.\\n     */\\n    function functionCallWithValue(address target, bytes memory data, uint256 value) internal returns (bytes memory) {\\n        if (address(this).balance < value) {\\n            revert Errors.InsufficientBalance(address(this).balance, value);\\n        }\\n        bool success = LowLevelCall.callNoReturn(target, value, data);\\n        if (success && (LowLevelCall.returnDataSize() > 0 || target.code.length > 0)) {\\n            return LowLevelCall.returnData();\\n        } else if (success) {\\n            revert AddressEmptyCode(target);\\n        } else if (LowLevelCall.returnDataSize() > 0) {\\n            LowLevelCall.bubbleRevert();\\n        } else {\\n            revert Errors.FailedCall();\\n        }\\n    }\\n\\n    /**\\n     * @dev Same as {xref-Address-functionCall-address-bytes-}[`functionCall`],\\n     * but performing a static call.\\n     */\\n    function functionStaticCall(address target, bytes memory data) internal view returns (bytes memory) {\\n        bool success = LowLevelCall.staticcallNoReturn(target, data);\\n        if (success && (LowLevelCall.returnDataSize() > 0 || target.code.length > 0)) {\\n            return LowLevelCall.returnData();\\n        } else if (success) {\\n            revert AddressEmptyCode(target);\\n        } else if (LowLevelCall.returnDataSize() > 0) {\\n            LowLevelCall.bubbleRevert();\\n        } else {\\n            revert Errors.FailedCall();\\n        }\\n    }\\n\\n    /**\\n     * @dev Same as {xref-Address-functionCall-address-bytes-}[`functionCall`],\\n     * but performing a delegate call.\\n     */\\n    function functionDelegateCall(address target, bytes memory data) internal returns (bytes memory) {\\n        bool success = LowLevelCall.delegatecallNoReturn(target, data);\\n        if (success && (LowLevelCall.returnDataSize() > 0 || target.code.length > 0)) {\\n            return LowLevelCall.returnData();\\n        } else if (success) {\\n            revert AddressEmptyCode(target);\\n        } else if (LowLevelCall.returnDataSize() > 0) {\\n            LowLevelCall.bubbleRevert();\\n        } else {\\n            revert Errors.FailedCall();\\n        }\\n    }\\n\\n    /**\\n     * @dev Tool to verify that a low level call to smart-contract was successful, and reverts if the target\\n     * was not a contract or bubbling up the revert reason (falling back to {Errors.FailedCall}) in case\\n     * of an unsuccessful call.\\n     *\\n     * NOTE: This function is DEPRECATED and may be removed in the next major release.\\n     */\\n    function verifyCallResultFromTarget(\\n        address target,\\n        bool success,\\n        bytes memory returndata\\n    ) internal view returns (bytes memory) {\\n        // only check if target is a contract if the call was successful and the return data is empty\\n        // otherwise we already know that it was a contract\\n        if (success && (returndata.length > 0 || target.code.length > 0)) {\\n            return returndata;\\n        } else if (success) {\\n            revert AddressEmptyCode(target);\\n        } else if (returndata.length > 0) {\\n            LowLevelCall.bubbleRevert(returndata);\\n        } else {\\n            revert Errors.FailedCall();\\n        }\\n    }\\n\\n    /**\\n     * @dev Tool to verify that a low level call was successful, and reverts if it wasn't, either by bubbling the\\n     * revert reason or with a default {Errors.FailedCall} error.\\n     */\\n    function verifyCallResult(bool success, bytes memory returndata) internal pure returns (bytes memory) {\\n        if (success) {\\n            return returndata;\\n        } else if (returndata.length > 0) {\\n            LowLevelCall.bubbleRevert(returndata);\\n        } else {\\n            revert Errors.FailedCall();\\n        }\\n    }\\n}\\n\"},\"@openzeppelin/contracts/utils/Errors.sol\":{\"content\":\"// SPDX-License-Identifier: MIT\\n// OpenZeppelin Contracts (last updated v5.1.0) (utils/Errors.sol)\\n\\npragma solidity ^0.8.20;\\n\\n/**\\n * @dev Collection of common custom errors used in multiple contracts\\n *\\n * IMPORTANT: Backwards compatibility is not guaranteed in future versions of the library.\\n * It is recommended to avoid relying on the error API for critical functionality.\\n *\\n * _Available since v5.1._\\n */\\nlibrary Errors {\\n    /**\\n     * @dev The ETH balance of the account is not enough to perform the operation.\\n     */\\n    error InsufficientBalance(uint256 balance, uint256 needed);\\n\\n    /**\\n     * @dev A call to an address target failed. The target may have reverted.\\n     */\\n    error FailedCall();\\n\\n    /**\\n     * @dev The deployment failed.\\n     */\\n    error FailedDeployment();\\n\\n    /**\\n     * @dev A necessary precompile is missing.\\n     */\\n    error MissingPrecompile(address);\\n}\\n\"},\"@openzeppelin/contracts/utils/LowLevelCall.sol\":{\"content\":\"// SPDX-License-Identifier: MIT\\n// OpenZeppelin Contracts (last updated v5.6.0) (utils/LowLevelCall.sol)\\n\\npragma solidity ^0.8.20;\\n\\n/**\\n * @dev Library of low level call functions that implement different calling strategies to deal with the return data.\\n *\\n * WARNING: Using this library requires an advanced understanding of Solidity and how the EVM works. It is recommended\\n * to use the {Address} library instead.\\n */\\nlibrary LowLevelCall {\\n    /// @dev Performs a Solidity function call using a low level `call` and ignoring the return data.\\n    function callNoReturn(address target, bytes memory data) internal returns (bool success) {\\n        return callNoReturn(target, 0, data);\\n    }\\n\\n    /// @dev Same as {callNoReturn-address-bytes}, but allows specifying the value to be sent in the call.\\n    function callNoReturn(address target, uint256 value, bytes memory data) internal returns (bool success) {\\n        assembly (\\\"memory-safe\\\") {\\n            success := call(gas(), target, value, add(data, 0x20), mload(data), 0x00, 0x00)\\n        }\\n    }\\n\\n    /// @dev Performs a Solidity function call using a low level `call` and returns the first 64 bytes of the result\\n    /// in the scratch space of memory. Useful for functions that return a tuple with two single-word values.\\n    ///\\n    /// WARNING: Do not assume that the results are zero if `success` is false. Memory can be already allocated\\n    /// and this function doesn't zero it out.\\n    function callReturn64Bytes(\\n        address target,\\n        bytes memory data\\n    ) internal returns (bool success, bytes32 result1, bytes32 result2) {\\n        return callReturn64Bytes(target, 0, data);\\n    }\\n\\n    /// @dev Same as {callReturn64Bytes-address-bytes}, but allows specifying the value to be sent in the call.\\n    function callReturn64Bytes(\\n        address target,\\n        uint256 value,\\n        bytes memory data\\n    ) internal returns (bool success, bytes32 result1, bytes32 result2) {\\n        assembly (\\\"memory-safe\\\") {\\n            success := call(gas(), target, value, add(data, 0x20), mload(data), 0x00, 0x40)\\n            result1 := mload(0x00)\\n            result2 := mload(0x20)\\n        }\\n    }\\n\\n    /// @dev Performs a Solidity function call using a low level `staticcall` and ignoring the return data.\\n    function staticcallNoReturn(address target, bytes memory data) internal view returns (bool success) {\\n        assembly (\\\"memory-safe\\\") {\\n            success := staticcall(gas(), target, add(data, 0x20), mload(data), 0x00, 0x00)\\n        }\\n    }\\n\\n    /// @dev Performs a Solidity function call using a low level `staticcall` and returns the first 64 bytes of the result\\n    /// in the scratch space of memory. Useful for functions that return a tuple with two single-word values.\\n    ///\\n    /// WARNING: Do not assume that the results are zero if `success` is false. Memory can be already allocated\\n    /// and this function doesn't zero it out.\\n    function staticcallReturn64Bytes(\\n        address target,\\n        bytes memory data\\n    ) internal view returns (bool success, bytes32 result1, bytes32 result2) {\\n        assembly (\\\"memory-safe\\\") {\\n            success := staticcall(gas(), target, add(data, 0x20), mload(data), 0x00, 0x40)\\n            result1 := mload(0x00)\\n            result2 := mload(0x20)\\n        }\\n    }\\n\\n    /// @dev Performs a Solidity function call using a low level `delegatecall` and ignoring the return data.\\n    function delegatecallNoReturn(address target, bytes memory data) internal returns (bool success) {\\n        assembly (\\\"memory-safe\\\") {\\n            success := delegatecall(gas(), target, add(data, 0x20), mload(data), 0x00, 0x00)\\n        }\\n    }\\n\\n    /// @dev Performs a Solidity function call using a low level `delegatecall` and returns the first 64 bytes of the result\\n    /// in the scratch space of memory. Useful for functions that return a tuple with two single-word values.\\n    ///\\n    /// WARNING: Do not assume that the results are zero if `success` is false. Memory can be already allocated\\n    /// and this function doesn't zero it out.\\n    function delegatecallReturn64Bytes(\\n        address target,\\n        bytes memory data\\n    ) internal returns (bool success, bytes32 result1, bytes32 result2) {\\n        assembly (\\\"memory-safe\\\") {\\n            success := delegatecall(gas(), target, add(data, 0x20), mload(data), 0x00, 0x40)\\n            result1 := mload(0x00)\\n            result2 := mload(0x20)\\n        }\\n    }\\n\\n    /// @dev Returns the size of the return data buffer.\\n    function returnDataSize() internal pure returns (uint256 size) {\\n        assembly (\\\"memory-safe\\\") {\\n            size := returndatasize()\\n        }\\n    }\\n\\n    /// @dev Returns a buffer containing the return data from the last call.\\n    function returnData() internal pure returns (bytes memory result) {\\n        assembly (\\\"memory-safe\\\") {\\n            result := mload(0x40)\\n            mstore(result, returndatasize())\\n            returndatacopy(add(result, 0x20), 0x00, returndatasize())\\n            mstore(0x40, add(result, add(0x20, returndatasize())))\\n        }\\n    }\\n\\n    /// @dev Revert with the return data from the last call.\\n    function bubbleRevert() internal pure {\\n        assembly (\\\"memory-safe\\\") {\\n            let fmp := mload(0x40)\\n            returndatacopy(fmp, 0x00, returndatasize())\\n            revert(fmp, returndatasize())\\n        }\\n    }\\n\\n    function bubbleRevert(bytes memory returndata) internal pure {\\n        assembly (\\\"memory-safe\\\") {\\n            revert(add(returndata, 0x20), mload(returndata))\\n        }\\n    }\\n}\\n\"},\"@openzeppelin/contracts-upgradeable/account/extensions/draft-AccountERC7579Upgradeable.sol\":{\"content\":\"// SPDX-License-Identifier: MIT\\n// OpenZeppelin Contracts (last updated v5.6.0) (account/extensions/draft-AccountERC7579.sol)\\n\\npragma solidity ^0.8.26;\\n\\nimport {PackedUserOperation} from \\\"@openzeppelin/contracts/interfaces/draft-IERC4337.sol\\\";\\nimport {IERC1271} from \\\"@openzeppelin/contracts/interfaces/IERC1271.sol\\\";\\nimport {IERC7579Module, IERC7579Validator, IERC7579Execution, IERC7579AccountConfig, IERC7579ModuleConfig, MODULE_TYPE_VALIDATOR, MODULE_TYPE_EXECUTOR, MODULE_TYPE_FALLBACK} from \\\"@openzeppelin/contracts/interfaces/draft-IERC7579.sol\\\";\\nimport {ERC7579Utils, Mode, CallType, ExecType} from \\\"@openzeppelin/contracts/account/utils/draft-ERC7579Utils.sol\\\";\\nimport {EnumerableSet} from \\\"@openzeppelin/contracts/utils/structs/EnumerableSet.sol\\\";\\nimport {LowLevelCall} from \\\"@openzeppelin/contracts/utils/LowLevelCall.sol\\\";\\nimport {Bytes} from \\\"@openzeppelin/contracts/utils/Bytes.sol\\\";\\nimport {Packing} from \\\"@openzeppelin/contracts/utils/Packing.sol\\\";\\nimport {Calldata} from \\\"@openzeppelin/contracts/utils/Calldata.sol\\\";\\nimport {Account} from \\\"@openzeppelin/contracts/account/Account.sol\\\";\\nimport {Initializable} from \\\"@openzeppelin/contracts/proxy/utils/Initializable.sol\\\";\\n\\n/**\\n * @dev Extension of {Account} that implements support for ERC-7579 modules.\\n *\\n * To comply with the ERC-1271 support requirement, this contract defers signature validation to\\n * installed validator modules by calling {IERC7579Validator-isValidSignatureWithSender}.\\n *\\n * This contract does not implement validation logic for user operations since this functionality\\n * is often delegated to self-contained validation modules. Developers must install a validator module\\n * upon initialization (or any other mechanism to enable execution from the account):\\n *\\n * ```solidity\\n * contract MyAccountERC7579 is AccountERC7579, Initializable {\\n *   function initializeAccount(address validator, bytes calldata validatorData) public initializer {\\n *     _installModule(MODULE_TYPE_VALIDATOR, validator, validatorData);\\n *   }\\n * }\\n * ```\\n *\\n * [NOTE]\\n * ====\\n * * Hook support is not included. See {AccountERC7579Hooked} for a version that hooks to execution.\\n * * Validator selection, when verifying either ERC-1271 signature or ERC-4337 UserOperation is implemented in\\n *   internal virtual functions {_extractUserOpValidator} and {_extractSignatureValidator}. Both are implemented\\n *   following common practices. However, this part is not standardized in ERC-7579 (or in any follow-up ERC). Some\\n *   accounts may want to override these internal functions.\\n * * When combined with {ERC7739}, resolution ordering of {isValidSignature} may have an impact ({ERC7739} does not\\n *   call super). Manual resolution might be necessary.\\n * * Static calls (using callType `0xfe`) are currently NOT supported.\\n * ====\\n *\\n * WARNING: Removing all validator modules will render the account inoperable, as no user operations can be validated thereafter.\\n */\\nabstract contract AccountERC7579Upgradeable is Initializable, Account, IERC1271, IERC7579Execution, IERC7579AccountConfig, IERC7579ModuleConfig {\\n    using Bytes for *;\\n    using ERC7579Utils for *;\\n    using EnumerableSet for *;\\n    using Packing for bytes32;\\n\\n    /// @custom:storage-location erc7201:openzeppelin.storage.AccountERC7579\\n    struct AccountERC7579Storage {\\n        EnumerableSet.AddressSet _validators;\\n        EnumerableSet.AddressSet _executors;\\n        mapping(bytes4 selector => address) _fallbacks;\\n    }\\n\\n    // keccak256(abi.encode(uint256(keccak256(\\\"openzeppelin.storage.AccountERC7579\\\")) - 1)) & ~bytes32(uint256(0xff))\\n    bytes32 private constant AccountERC7579StorageLocation = 0x0a47d913d72b2639f4ca1c145cc07ddf7170b73b257c8e0d4fced7cc8e3e3900;\\n\\n    function _getAccountERC7579Storage() private pure returns (AccountERC7579Storage storage $) {\\n        assembly {\\n            $.slot := AccountERC7579StorageLocation\\n        }\\n    }\\n\\n    /// @dev The account's {fallback} was called with a selector that doesn't have an installed handler.\\n    error ERC7579MissingFallbackHandler(bytes4 selector);\\n\\n    /// @dev The provided initData/deInitData for a fallback module is too short to extract a selector.\\n    error ERC7579CannotDecodeFallbackData();\\n\\n    /// @dev Modifier that checks if the caller is an installed module of the given type.\\n    modifier onlyModule(uint256 moduleTypeId, bytes calldata additionalContext) {\\n        _checkModule(moduleTypeId, msg.sender, additionalContext);\\n        _;\\n    }\\n\\n    function __AccountERC7579_init() internal onlyInitializing {\\n    }\\n\\n    function __AccountERC7579_init_unchained() internal onlyInitializing {\\n    }\\n    /// @dev See {_fallback}.\\n    fallback(bytes calldata) external payable virtual returns (bytes memory) {\\n        return _fallback();\\n    }\\n\\n    /// @inheritdoc IERC7579AccountConfig\\n    function accountId() public view virtual returns (string memory) {\\n        // vendorname.accountname.semver\\n        return \\\"@openzeppelin/contracts.AccountERC7579.v1.0.0\\\";\\n    }\\n\\n    /**\\n     * @inheritdoc IERC7579AccountConfig\\n     *\\n     * @dev Supported call types:\\n     * * Single (`0x00`): A single transaction execution.\\n     * * Batch (`0x01`): A batch of transactions execution.\\n     * * Delegate (`0xff`): A delegate call execution.\\n     *\\n     * Supported exec types:\\n     * * Default (`0x00`): Default execution type (revert on failure).\\n     * * Try (`0x01`): Try execution type (emits ERC7579TryExecuteFail on failure).\\n     */\\n    function supportsExecutionMode(bytes32 encodedMode) public view virtual returns (bool) {\\n        (CallType callType, ExecType execType, , ) = Mode.wrap(encodedMode).decodeMode();\\n        return\\n            (callType == ERC7579Utils.CALLTYPE_SINGLE ||\\n                callType == ERC7579Utils.CALLTYPE_BATCH ||\\n                callType == ERC7579Utils.CALLTYPE_DELEGATECALL) &&\\n            (execType == ERC7579Utils.EXECTYPE_DEFAULT || execType == ERC7579Utils.EXECTYPE_TRY);\\n    }\\n\\n    /**\\n     * @inheritdoc IERC7579AccountConfig\\n     *\\n     * @dev Supported module types:\\n     *\\n     * * Validator: A module used during the validation phase to determine if a transaction is valid and\\n     * should be executed on the account.\\n     * * Executor: A module that can execute transactions on behalf of the smart account via a callback.\\n     * * Fallback Handler: A module that can extend the fallback functionality of a smart account.\\n     */\\n    function supportsModule(uint256 moduleTypeId) public view virtual returns (bool) {\\n        return\\n            moduleTypeId == MODULE_TYPE_VALIDATOR ||\\n            moduleTypeId == MODULE_TYPE_EXECUTOR ||\\n            moduleTypeId == MODULE_TYPE_FALLBACK;\\n    }\\n\\n    /// @inheritdoc IERC7579ModuleConfig\\n    function installModule(\\n        uint256 moduleTypeId,\\n        address module,\\n        bytes calldata initData\\n    ) public virtual onlyEntryPointOrSelf {\\n        _installModule(moduleTypeId, module, initData);\\n    }\\n\\n    /// @inheritdoc IERC7579ModuleConfig\\n    function uninstallModule(\\n        uint256 moduleTypeId,\\n        address module,\\n        bytes calldata deInitData\\n    ) public virtual onlyEntryPointOrSelf {\\n        _uninstallModule(moduleTypeId, module, deInitData);\\n    }\\n\\n    /// @inheritdoc IERC7579ModuleConfig\\n    function isModuleInstalled(\\n        uint256 moduleTypeId,\\n        address module,\\n        bytes calldata additionalContext\\n    ) public view virtual returns (bool) {\\n        AccountERC7579Storage storage $ = _getAccountERC7579Storage();\\n        if (moduleTypeId == MODULE_TYPE_VALIDATOR) return $._validators.contains(module);\\n        if (moduleTypeId == MODULE_TYPE_EXECUTOR) return $._executors.contains(module);\\n        if (moduleTypeId == MODULE_TYPE_FALLBACK)\\n            // ERC-7579 requires this function to return bool, never revert. Check length to avoid out-of-bounds access.\\n            return additionalContext.length > 3 && $._fallbacks[bytes4(additionalContext[0:4])] == module;\\n        return false;\\n    }\\n\\n    /// @inheritdoc IERC7579Execution\\n    function execute(bytes32 mode, bytes calldata executionCalldata) public payable virtual onlyEntryPointOrSelf {\\n        _execute(Mode.wrap(mode), executionCalldata);\\n    }\\n\\n    /// @inheritdoc IERC7579Execution\\n    function executeFromExecutor(\\n        bytes32 mode,\\n        bytes calldata executionCalldata\\n    )\\n        public\\n        payable\\n        virtual\\n        onlyModule(MODULE_TYPE_EXECUTOR, Calldata.emptyBytes())\\n        returns (bytes[] memory returnData)\\n    {\\n        return _execute(Mode.wrap(mode), executionCalldata);\\n    }\\n\\n    /**\\n     * @dev Implement ERC-1271 through IERC7579Validator modules. If module based validation fails, fallback to\\n     * \\\"native\\\" validation by the abstract signer.\\n     *\\n     * NOTE: when combined with {ERC7739}, resolution ordering may have an impact ({ERC7739} does not call super).\\n     * Manual resolution might be necessary.\\n     */\\n    function isValidSignature(bytes32 hash, bytes calldata signature) public view virtual returns (bytes4) {\\n        // check signature length is enough for extraction\\n        if (signature.length >= 20) {\\n            (address module, bytes calldata innerSignature) = _extractSignatureValidator(signature);\\n            // if module is not installed, skip\\n            if (isModuleInstalled(MODULE_TYPE_VALIDATOR, module, Calldata.emptyBytes())) {\\n                // try validation, skip any revert\\n                try IERC7579Validator(module).isValidSignatureWithSender(msg.sender, hash, innerSignature) returns (\\n                    bytes4 magic\\n                ) {\\n                    return magic;\\n                } catch {}\\n            }\\n        }\\n        return bytes4(0xffffffff);\\n    }\\n\\n    /**\\n     * @dev Validates a user operation with {_signableUserOpHash} and returns the validation data\\n     * if the module specified by the first 20 bytes of the nonce key is installed. Falls back to\\n     * {Account-_validateUserOp} otherwise.\\n     *\\n     * See {_extractUserOpValidator} for the module extraction logic.\\n     */\\n    function _validateUserOp(\\n        PackedUserOperation calldata userOp,\\n        bytes32 userOpHash,\\n        bytes calldata signature\\n    ) internal virtual override returns (uint256) {\\n        address module = _extractUserOpValidator(userOp);\\n        return\\n            isModuleInstalled(MODULE_TYPE_VALIDATOR, module, Calldata.emptyBytes())\\n                ? IERC7579Validator(module).validateUserOp(userOp, _signableUserOpHash(userOp, userOpHash))\\n                : super._validateUserOp(userOp, userOpHash, signature);\\n    }\\n\\n    /**\\n     * @dev ERC-7579 execution logic. See {supportsExecutionMode} for supported modes.\\n     *\\n     * Reverts if the call type is not supported.\\n     */\\n    function _execute(\\n        Mode mode,\\n        bytes calldata executionCalldata\\n    ) internal virtual returns (bytes[] memory returnData) {\\n        (CallType callType, ExecType execType, , ) = mode.decodeMode();\\n        if (callType == ERC7579Utils.CALLTYPE_SINGLE) return executionCalldata.execSingle(execType);\\n        if (callType == ERC7579Utils.CALLTYPE_BATCH) return executionCalldata.execBatch(execType);\\n        if (callType == ERC7579Utils.CALLTYPE_DELEGATECALL) return executionCalldata.execDelegateCall(execType);\\n        revert ERC7579Utils.ERC7579UnsupportedCallType(callType);\\n    }\\n\\n    /**\\n     * @dev Installs a module of the given type with the given initialization data.\\n     *\\n     * For the fallback module type, the `initData` is expected to be the (packed) concatenation of a 4-byte\\n     * selector and the rest of the data to be sent to the handler when calling {IERC7579Module-onInstall}.\\n     *\\n     * Requirements:\\n     *\\n     * * Module type must be supported. See {supportsModule}. Reverts with {ERC7579Utils-ERC7579UnsupportedModuleType}.\\n     * * Module must be of the given type. Reverts with {ERC7579Utils-ERC7579MismatchedModuleTypeId}.\\n     * * Module must not be already installed. Reverts with {ERC7579Utils-ERC7579AlreadyInstalledModule}.\\n     *\\n     * Emits a {IERC7579ModuleConfig-ModuleInstalled} event.\\n     */\\n    function _installModule(uint256 moduleTypeId, address module, bytes memory initData) internal virtual {\\n        AccountERC7579Storage storage $ = _getAccountERC7579Storage();\\n        require(supportsModule(moduleTypeId), ERC7579Utils.ERC7579UnsupportedModuleType(moduleTypeId));\\n        require(\\n            IERC7579Module(module).isModuleType(moduleTypeId),\\n            ERC7579Utils.ERC7579MismatchedModuleTypeId(moduleTypeId, module)\\n        );\\n\\n        if (moduleTypeId == MODULE_TYPE_VALIDATOR) {\\n            require($._validators.add(module), ERC7579Utils.ERC7579AlreadyInstalledModule(moduleTypeId, module));\\n        } else if (moduleTypeId == MODULE_TYPE_EXECUTOR) {\\n            require($._executors.add(module), ERC7579Utils.ERC7579AlreadyInstalledModule(moduleTypeId, module));\\n        } else if (moduleTypeId == MODULE_TYPE_FALLBACK) {\\n            bytes4 selector;\\n            (selector, initData) = _decodeFallbackData(initData);\\n            require(\\n                $._fallbacks[selector] == address(0),\\n                ERC7579Utils.ERC7579AlreadyInstalledModule(moduleTypeId, module)\\n            );\\n            $._fallbacks[selector] = module;\\n        }\\n\\n        IERC7579Module(module).onInstall(initData);\\n        emit ModuleInstalled(moduleTypeId, module);\\n    }\\n\\n    /**\\n     * @dev Uninstalls a module of the given type with the given de-initialization data.\\n     *\\n     * For the fallback module type, the `deInitData` is expected to be the (packed) concatenation of a 4-byte\\n     * selector and the rest of the data to be sent to the handler when calling {IERC7579Module-onUninstall}.\\n     *\\n     * Requirements:\\n     *\\n     * * Module must be already installed. Reverts with {ERC7579Utils-ERC7579UninstalledModule} otherwise.\\n     */\\n    function _uninstallModule(uint256 moduleTypeId, address module, bytes memory deInitData) internal virtual {\\n        AccountERC7579Storage storage $ = _getAccountERC7579Storage();\\n        require(supportsModule(moduleTypeId), ERC7579Utils.ERC7579UnsupportedModuleType(moduleTypeId));\\n\\n        if (moduleTypeId == MODULE_TYPE_VALIDATOR) {\\n            require($._validators.remove(module), ERC7579Utils.ERC7579UninstalledModule(moduleTypeId, module));\\n        } else if (moduleTypeId == MODULE_TYPE_EXECUTOR) {\\n            require($._executors.remove(module), ERC7579Utils.ERC7579UninstalledModule(moduleTypeId, module));\\n        } else if (moduleTypeId == MODULE_TYPE_FALLBACK) {\\n            bytes4 selector;\\n            (selector, deInitData) = _decodeFallbackData(deInitData);\\n            require(\\n                _fallbackHandler(selector) == module && module != address(0),\\n                ERC7579Utils.ERC7579UninstalledModule(moduleTypeId, module)\\n            );\\n            delete $._fallbacks[selector];\\n        }\\n\\n        // Ignores success purposely to avoid modules that revert on uninstall\\n        LowLevelCall.callNoReturn(module, abi.encodeCall(IERC7579Module.onUninstall, (deInitData)));\\n        emit ModuleUninstalled(moduleTypeId, module);\\n    }\\n\\n    /**\\n     * @dev Fallback function that delegates the call to the installed handler for the given selector.\\n     *\\n     * Reverts with {ERC7579MissingFallbackHandler} if the handler is not installed.\\n     *\\n     * Calls the handler with the original `msg.sender` appended at the end of the calldata following\\n     * the ERC-2771 format.\\n     */\\n    function _fallback() internal virtual returns (bytes memory) {\\n        address handler = _fallbackHandler(msg.sig);\\n        require(handler != address(0), ERC7579MissingFallbackHandler(msg.sig));\\n\\n        // From https://eips.ethereum.org/EIPS/eip-7579#fallback[ERC-7579 specifications]:\\n        // - MUST utilize ERC-2771 to add the original msg.sender to the calldata sent to the fallback handler\\n        // - MUST use call to invoke the fallback handler\\n        if (LowLevelCall.callNoReturn(handler, msg.value, abi.encodePacked(msg.data, msg.sender))) {\\n            return LowLevelCall.returnData();\\n        } else {\\n            LowLevelCall.bubbleRevert();\\n        }\\n    }\\n\\n    /// @dev Returns the fallback handler for the given selector. Returns `address(0)` if not installed.\\n    function _fallbackHandler(bytes4 selector) internal view virtual returns (address) {\\n        AccountERC7579Storage storage $ = _getAccountERC7579Storage();\\n        return $._fallbacks[selector];\\n    }\\n\\n    /// @dev Checks if the module is installed. Reverts if the module is not installed.\\n    function _checkModule(\\n        uint256 moduleTypeId,\\n        address module,\\n        bytes calldata additionalContext\\n    ) internal view virtual {\\n        require(\\n            isModuleInstalled(moduleTypeId, module, additionalContext),\\n            ERC7579Utils.ERC7579UninstalledModule(moduleTypeId, module)\\n        );\\n    }\\n\\n    /**\\n     * @dev Extracts the nonce validator from the user operation.\\n     *\\n     * To construct a nonce key, set nonce as follows:\\n     *\\n     * ```\\n     * <module address (20 bytes)> | <key (4 bytes)> | <nonce (8 bytes)>\\n     * ```\\n     * NOTE: The default behavior of this function replicates the behavior of\\n     * https://github.com/rhinestonewtf/safe7579/blob/bb29e8b1a66658790c4169e72608e27d220f79be/src/Safe7579.sol#L266[Safe adapter],\\n     * https://github.com/etherspot/etherspot-prime-contracts/blob/cfcdb48c4172cea0d66038324c0bae3288aa8caa/src/modular-etherspot-wallet/wallet/ModularEtherspotWallet.sol#L227[Etherspot's Prime Account], and\\n     * https://github.com/erc7579/erc7579-implementation/blob/16138d1afd4e9711f6c1425133538837bd7787b5/src/MSAAdvanced.sol#L247[ERC7579 reference implementation].\\n     *\\n     * This is not standardized in ERC-7579 (or in any follow-up ERC). Some accounts may want to override these internal functions.\\n     *\\n     * For example, https://github.com/bcnmy/nexus/blob/54f4e19baaff96081a8843672977caf712ef19f4/contracts/lib/NonceLib.sol#L17[Biconomy's Nexus]\\n     * uses a similar yet incompatible approach (the validator address is also part of the nonce, but not at the same location)\\n     */\\n    function _extractUserOpValidator(PackedUserOperation calldata userOp) internal pure virtual returns (address) {\\n        return address(bytes32(userOp.nonce).extract_32_20(0));\\n    }\\n\\n    /**\\n     * @dev Extracts the signature validator from the signature.\\n     *\\n     * To construct a signature, set the first 20 bytes as the module address and the remaining bytes as the\\n     * signature data:\\n     *\\n     * ```\\n     * <module address (20 bytes)> | <signature data>\\n     * ```\\n     *\\n     * NOTE: The default behavior of this function replicates the behavior of\\n     * https://github.com/rhinestonewtf/safe7579/blob/bb29e8b1a66658790c4169e72608e27d220f79be/src/Safe7579.sol#L350[Safe adapter],\\n     * https://github.com/bcnmy/nexus/blob/54f4e19baaff96081a8843672977caf712ef19f4/contracts/Nexus.sol#L239[Biconomy's Nexus],\\n     * https://github.com/etherspot/etherspot-prime-contracts/blob/cfcdb48c4172cea0d66038324c0bae3288aa8caa/src/modular-etherspot-wallet/wallet/ModularEtherspotWallet.sol#L252[Etherspot's Prime Account], and\\n     * https://github.com/erc7579/erc7579-implementation/blob/16138d1afd4e9711f6c1425133538837bd7787b5/src/MSAAdvanced.sol#L296[ERC7579 reference implementation].\\n     *\\n     * This is not standardized in ERC-7579 (or in any follow-up ERC). Some accounts may want to override these internal functions.\\n     *\\n     * NOTE: This function expects the signature to be at least 20 bytes long. Panics with {Panic-ARRAY_OUT_OF_BOUNDS} (0x32) otherwise.\\n     */\\n    function _extractSignatureValidator(\\n        bytes calldata signature\\n    ) internal pure virtual returns (address module, bytes calldata innerSignature) {\\n        return (address(bytes20(signature)), signature[20:]);\\n    }\\n\\n    /**\\n     * @dev Extract the function selector from initData/deInitData for MODULE_TYPE_FALLBACK\\n     *\\n     * NOTE: If we had calldata here, we could use calldata slice which are cheaper to manipulate and don't require\\n     * actual copy. However, this would require `_installModule` to get a calldata bytes object instead of a memory\\n     * bytes object. This would prevent calling `_installModule` from a contract constructor and would force the use\\n     * of external initializers. That may change in the future, as most accounts will probably be deployed as\\n     * clones/proxy/EIP-7702 delegates and therefore rely on initializers anyway.\\n     */\\n    function _decodeFallbackData(\\n        bytes memory data\\n    ) internal pure virtual returns (bytes4 selector, bytes memory remaining) {\\n        require(data.length > 3, ERC7579CannotDecodeFallbackData());\\n        return (bytes4(data), data.slice(4));\\n    }\\n\\n    /// @dev By default, only use the modules for validation of userOp and signature. Disable raw signatures.\\n    function _rawSignatureValidation(\\n        bytes32 /*hash*/,\\n        bytes calldata /*signature*/\\n    ) internal view virtual override returns (bool) {\\n        return false;\\n    }\\n}\\n\"},\"@openzeppelin/contracts/interfaces/IERC1271.sol\":{\"content\":\"// SPDX-License-Identifier: MIT\\n// OpenZeppelin Contracts (last updated v5.4.0) (interfaces/IERC1271.sol)\\n\\npragma solidity >=0.5.0;\\n\\n/**\\n * @dev Interface of the ERC-1271 standard signature validation method for\\n * contracts as defined in https://eips.ethereum.org/EIPS/eip-1271[ERC-1271].\\n */\\ninterface IERC1271 {\\n    /**\\n     * @dev Should return whether the signature provided is valid for the provided data\\n     * @param hash      Hash of the data to be signed\\n     * @param signature Signature byte array associated with `hash`\\n     */\\n    function isValidSignature(bytes32 hash, bytes calldata signature) external view returns (bytes4 magicValue);\\n}\\n\"},\"@openzeppelin/contracts/utils/structs/EnumerableSet.sol\":{\"content\":\"// SPDX-License-Identifier: MIT\\n// OpenZeppelin Contracts (last updated v5.6.0) (utils/structs/EnumerableSet.sol)\\n// This file was procedurally generated from scripts/generate/templates/EnumerableSet.js.\\n\\npragma solidity ^0.8.24;\\n\\nimport {Arrays} from \\\"../Arrays.sol\\\";\\nimport {Math} from \\\"../math/Math.sol\\\";\\n\\n/**\\n * @dev Library for managing\\n * https://en.wikipedia.org/wiki/Set_(abstract_data_type)[sets] of primitive\\n * types.\\n *\\n * Sets have the following properties:\\n *\\n * - Elements are added, removed, and checked for existence in constant time\\n * (O(1)).\\n * - Elements are enumerated in O(n). No guarantees are made on the ordering.\\n * - Set can be cleared (all elements removed) in O(n).\\n *\\n * ```solidity\\n * contract Example {\\n *     // Add the library methods\\n *     using EnumerableSet for EnumerableSet.AddressSet;\\n *\\n *     // Declare a set state variable\\n *     EnumerableSet.AddressSet private mySet;\\n * }\\n * ```\\n *\\n * The following types are supported:\\n *\\n * - `bytes32` (`Bytes32Set`) since v3.3.0\\n * - `address` (`AddressSet`) since v3.3.0\\n * - `uint256` (`UintSet`) since v3.3.0\\n * - `string` (`StringSet`) since v5.4.0\\n * - `bytes` (`BytesSet`) since v5.4.0\\n * - `bytes4` (`Bytes4Set`) since v5.6.0\\n *\\n * [WARNING]\\n * ====\\n * Trying to delete such a structure from storage will likely result in data corruption, rendering the structure\\n * unusable.\\n * See https://github.com/ethereum/solidity/pull/11843[ethereum/solidity#11843] for more info.\\n *\\n * In order to clean an EnumerableSet, you can either remove all elements one by one or create a fresh instance using an\\n * array of EnumerableSet.\\n * ====\\n */\\nlibrary EnumerableSet {\\n    // To implement this library for multiple types with as little code\\n    // repetition as possible, we write it in terms of a generic Set type with\\n    // bytes32 values.\\n    // The Set implementation uses private functions, and user-facing\\n    // implementations (such as AddressSet) are just wrappers around the\\n    // underlying Set.\\n    // This means that we can only create new EnumerableSets for types that fit\\n    // in bytes32.\\n\\n    struct Set {\\n        // Storage of set values\\n        bytes32[] _values;\\n        // Position is the index of the value in the `values` array plus 1.\\n        // Position 0 is used to mean a value is not in the set.\\n        mapping(bytes32 value => uint256) _positions;\\n    }\\n\\n    /**\\n     * @dev Add a value to a set. O(1).\\n     *\\n     * Returns true if the value was added to the set, that is if it was not\\n     * already present.\\n     */\\n    function _add(Set storage set, bytes32 value) private returns (bool) {\\n        if (!_contains(set, value)) {\\n            set._values.push(value);\\n            // The value is stored at length-1, but we add 1 to all indexes\\n            // and use 0 as a sentinel value\\n            set._positions[value] = set._values.length;\\n            return true;\\n        } else {\\n            return false;\\n        }\\n    }\\n\\n    /**\\n     * @dev Removes a value from a set. O(1).\\n     *\\n     * Returns true if the value was removed from the set, that is if it was\\n     * present.\\n     */\\n    function _remove(Set storage set, bytes32 value) private returns (bool) {\\n        // We cache the value's position to prevent multiple reads from the same storage slot\\n        uint256 position = set._positions[value];\\n\\n        if (position != 0) {\\n            // Equivalent to contains(set, value)\\n            // To delete an element from the _values array in O(1), we swap the element to delete with the last one in\\n            // the array, and then remove the last element (sometimes called as 'swap and pop').\\n            // This modifies the order of the array, as noted in {at}.\\n\\n            uint256 valueIndex = position - 1;\\n            uint256 lastIndex = set._values.length - 1;\\n\\n            if (valueIndex != lastIndex) {\\n                bytes32 lastValue = set._values[lastIndex];\\n\\n                // Move the lastValue to the index where the value to delete is\\n                set._values[valueIndex] = lastValue;\\n                // Update the tracked position of the lastValue (that was just moved)\\n                set._positions[lastValue] = position;\\n            }\\n\\n            // Delete the slot where the moved value was stored\\n            set._values.pop();\\n\\n            // Delete the tracked position for the deleted slot\\n            delete set._positions[value];\\n\\n            return true;\\n        } else {\\n            return false;\\n        }\\n    }\\n\\n    /**\\n     * @dev Removes all the values from a set. O(n).\\n     *\\n     * WARNING: This function has an unbounded cost that scales with set size. Developers should keep in mind that\\n     * using it may render the function uncallable if the set grows to the point where clearing it consumes too much\\n     * gas to fit in a block.\\n     */\\n    function _clear(Set storage set) private {\\n        uint256 len = _length(set);\\n        for (uint256 i = 0; i < len; ++i) {\\n            delete set._positions[set._values[i]];\\n        }\\n        Arrays.unsafeSetLength(set._values, 0);\\n    }\\n\\n    /**\\n     * @dev Returns true if the value is in the set. O(1).\\n     */\\n    function _contains(Set storage set, bytes32 value) private view returns (bool) {\\n        return set._positions[value] != 0;\\n    }\\n\\n    /**\\n     * @dev Returns the number of values on the set. O(1).\\n     */\\n    function _length(Set storage set) private view returns (uint256) {\\n        return set._values.length;\\n    }\\n\\n    /**\\n     * @dev Returns the value stored at position `index` in the set. O(1).\\n     *\\n     * Note that there are no guarantees on the ordering of values inside the\\n     * array, and it may change when more values are added or removed.\\n     *\\n     * Requirements:\\n     *\\n     * - `index` must be strictly less than {length}.\\n     */\\n    function _at(Set storage set, uint256 index) private view returns (bytes32) {\\n        return set._values[index];\\n    }\\n\\n    /**\\n     * @dev Return the entire set in an array\\n     *\\n     * WARNING: This operation will copy the entire storage to memory, which can be quite expensive. This is designed\\n     * to mostly be used by view accessors that are queried without any gas fees. Developers should keep in mind that\\n     * this function has an unbounded cost, and using it as part of a state-changing function may render the function\\n     * uncallable if the set grows to a point where copying to memory consumes too much gas to fit in a block.\\n     */\\n    function _values(Set storage set) private view returns (bytes32[] memory) {\\n        return set._values;\\n    }\\n\\n    /**\\n     * @dev Return a slice of the set in an array\\n     *\\n     * WARNING: This operation will copy the entire storage to memory, which can be quite expensive. This is designed\\n     * to mostly be used by view accessors that are queried without any gas fees. Developers should keep in mind that\\n     * this function has an unbounded cost, and using it as part of a state-changing function may render the function\\n     * uncallable if the set grows to a point where copying to memory consumes too much gas to fit in a block.\\n     */\\n    function _values(Set storage set, uint256 start, uint256 end) private view returns (bytes32[] memory) {\\n        unchecked {\\n            end = Math.min(end, _length(set));\\n            start = Math.min(start, end);\\n\\n            uint256 len = end - start;\\n            bytes32[] memory result = new bytes32[](len);\\n            for (uint256 i = 0; i < len; ++i) {\\n                result[i] = Arrays.unsafeAccess(set._values, start + i).value;\\n            }\\n            return result;\\n        }\\n    }\\n\\n    // Bytes32Set\\n\\n    struct Bytes32Set {\\n        Set _inner;\\n    }\\n\\n    /**\\n     * @dev Add a value to a set. O(1).\\n     *\\n     * Returns true if the value was added to the set, that is if it was not\\n     * already present.\\n     */\\n    function add(Bytes32Set storage set, bytes32 value) internal returns (bool) {\\n        return _add(set._inner, value);\\n    }\\n\\n    /**\\n     * @dev Removes a value from a set. O(1).\\n     *\\n     * Returns true if the value was removed from the set, that is if it was\\n     * present.\\n     */\\n    function remove(Bytes32Set storage set, bytes32 value) internal returns (bool) {\\n        return _remove(set._inner, value);\\n    }\\n\\n    /**\\n     * @dev Removes all the values from a set. O(n).\\n     *\\n     * WARNING: Developers should keep in mind that this function has an unbounded cost and using it may render the\\n     * function uncallable if the set grows to the point where clearing it consumes too much gas to fit in a block.\\n     */\\n    function clear(Bytes32Set storage set) internal {\\n        _clear(set._inner);\\n    }\\n\\n    /**\\n     * @dev Returns true if the value is in the set. O(1).\\n     */\\n    function contains(Bytes32Set storage set, bytes32 value) internal view returns (bool) {\\n        return _contains(set._inner, value);\\n    }\\n\\n    /**\\n     * @dev Returns the number of values in the set. O(1).\\n     */\\n    function length(Bytes32Set storage set) internal view returns (uint256) {\\n        return _length(set._inner);\\n    }\\n\\n    /**\\n     * @dev Returns the value stored at position `index` in the set. O(1).\\n     *\\n     * Note that there are no guarantees on the ordering of values inside the\\n     * array, and it may change when more values are added or removed.\\n     *\\n     * Requirements:\\n     *\\n     * - `index` must be strictly less than {length}.\\n     */\\n    function at(Bytes32Set storage set, uint256 index) internal view returns (bytes32) {\\n        return _at(set._inner, index);\\n    }\\n\\n    /**\\n     * @dev Return the entire set in an array\\n     *\\n     * WARNING: This operation will copy the entire storage to memory, which can be quite expensive. This is designed\\n     * to mostly be used by view accessors that are queried without any gas fees. Developers should keep in mind that\\n     * this function has an unbounded cost, and using it as part of a state-changing function may render the function\\n     * uncallable if the set grows to a point where copying to memory consumes too much gas to fit in a block.\\n     */\\n    function values(Bytes32Set storage set) internal view returns (bytes32[] memory) {\\n        bytes32[] memory store = _values(set._inner);\\n        bytes32[] memory result;\\n\\n        assembly (\\\"memory-safe\\\") {\\n            result := store\\n        }\\n\\n        return result;\\n    }\\n\\n    /**\\n     * @dev Return a slice of the set in an array\\n     *\\n     * WARNING: This operation will copy the entire storage to memory, which can be quite expensive. This is designed\\n     * to mostly be used by view accessors that are queried without any gas fees. Developers should keep in mind that\\n     * this function has an unbounded cost, and using it as part of a state-changing function may render the function\\n     * uncallable if the set grows to a point where copying to memory consumes too much gas to fit in a block.\\n     */\\n    function values(Bytes32Set storage set, uint256 start, uint256 end) internal view returns (bytes32[] memory) {\\n        bytes32[] memory store = _values(set._inner, start, end);\\n        bytes32[] memory result;\\n\\n        assembly (\\\"memory-safe\\\") {\\n            result := store\\n        }\\n\\n        return result;\\n    }\\n\\n    // Bytes4Set\\n\\n    struct Bytes4Set {\\n        Set _inner;\\n    }\\n\\n    /**\\n     * @dev Add a value to a set. O(1).\\n     *\\n     * Returns true if the value was added to the set, that is if it was not\\n     * already present.\\n     */\\n    function add(Bytes4Set storage set, bytes4 value) internal returns (bool) {\\n        return _add(set._inner, bytes32(value));\\n    }\\n\\n    /**\\n     * @dev Removes a value from a set. O(1).\\n     *\\n     * Returns true if the value was removed from the set, that is if it was\\n     * present.\\n     */\\n    function remove(Bytes4Set storage set, bytes4 value) internal returns (bool) {\\n        return _remove(set._inner, bytes32(value));\\n    }\\n\\n    /**\\n     * @dev Removes all the values from a set. O(n).\\n     *\\n     * WARNING: Developers should keep in mind that this function has an unbounded cost and using it may render the\\n     * function uncallable if the set grows to the point where clearing it consumes too much gas to fit in a block.\\n     */\\n    function clear(Bytes4Set storage set) internal {\\n        _clear(set._inner);\\n    }\\n\\n    /**\\n     * @dev Returns true if the value is in the set. O(1).\\n     */\\n    function contains(Bytes4Set storage set, bytes4 value) internal view returns (bool) {\\n        return _contains(set._inner, bytes32(value));\\n    }\\n\\n    /**\\n     * @dev Returns the number of values in the set. O(1).\\n     */\\n    function length(Bytes4Set storage set) internal view returns (uint256) {\\n        return _length(set._inner);\\n    }\\n\\n    /**\\n     * @dev Returns the value stored at position `index` in the set. O(1).\\n     *\\n     * Note that there are no guarantees on the ordering of values inside the\\n     * array, and it may change when more values are added or removed.\\n     *\\n     * Requirements:\\n     *\\n     * - `index` must be strictly less than {length}.\\n     */\\n    function at(Bytes4Set storage set, uint256 index) internal view returns (bytes4) {\\n        return bytes4(_at(set._inner, index));\\n    }\\n\\n    /**\\n     * @dev Return the entire set in an array\\n     *\\n     * WARNING: This operation will copy the entire storage to memory, which can be quite expensive. This is designed\\n     * to mostly be used by view accessors that are queried without any gas fees. Developers should keep in mind that\\n     * this function has an unbounded cost, and using it as part of a state-changing function may render the function\\n     * uncallable if the set grows to a point where copying to memory consumes too much gas to fit in a block.\\n     */\\n    function values(Bytes4Set storage set) internal view returns (bytes4[] memory) {\\n        bytes32[] memory store = _values(set._inner);\\n        bytes4[] memory result;\\n\\n        assembly (\\\"memory-safe\\\") {\\n            result := store\\n        }\\n\\n        return result;\\n    }\\n\\n    /**\\n     * @dev Return a slice of the set in an array\\n     *\\n     * WARNING: This operation will copy the entire storage to memory, which can be quite expensive. This is designed\\n     * to mostly be used by view accessors that are queried without any gas fees. Developers should keep in mind that\\n     * this function has an unbounded cost, and using it as part of a state-changing function may render the function\\n     * uncallable if the set grows to a point where copying to memory consumes too much gas to fit in a block.\\n     */\\n    function values(Bytes4Set storage set, uint256 start, uint256 end) internal view returns (bytes4[] memory) {\\n        bytes32[] memory store = _values(set._inner, start, end);\\n        bytes4[] memory result;\\n\\n        assembly (\\\"memory-safe\\\") {\\n            result := store\\n        }\\n\\n        return result;\\n    }\\n\\n    // AddressSet\\n\\n    struct AddressSet {\\n        Set _inner;\\n    }\\n\\n    /**\\n     * @dev Add a value to a set. O(1).\\n     *\\n     * Returns true if the value was added to the set, that is if it was not\\n     * already present.\\n     */\\n    function add(AddressSet storage set, address value) internal returns (bool) {\\n        return _add(set._inner, bytes32(uint256(uint160(value))));\\n    }\\n\\n    /**\\n     * @dev Removes a value from a set. O(1).\\n     *\\n     * Returns true if the value was removed from the set, that is if it was\\n     * present.\\n     */\\n    function remove(AddressSet storage set, address value) internal returns (bool) {\\n        return _remove(set._inner, bytes32(uint256(uint160(value))));\\n    }\\n\\n    /**\\n     * @dev Removes all the values from a set. O(n).\\n     *\\n     * WARNING: Developers should keep in mind that this function has an unbounded cost and using it may render the\\n     * function uncallable if the set grows to the point where clearing it consumes too much gas to fit in a block.\\n     */\\n    function clear(AddressSet storage set) internal {\\n        _clear(set._inner);\\n    }\\n\\n    /**\\n     * @dev Returns true if the value is in the set. O(1).\\n     */\\n    function contains(AddressSet storage set, address value) internal view returns (bool) {\\n        return _contains(set._inner, bytes32(uint256(uint160(value))));\\n    }\\n\\n    /**\\n     * @dev Returns the number of values in the set. O(1).\\n     */\\n    function length(AddressSet storage set) internal view returns (uint256) {\\n        return _length(set._inner);\\n    }\\n\\n    /**\\n     * @dev Returns the value stored at position `index` in the set. O(1).\\n     *\\n     * Note that there are no guarantees on the ordering of values inside the\\n     * array, and it may change when more values are added or removed.\\n     *\\n     * Requirements:\\n     *\\n     * - `index` must be strictly less than {length}.\\n     */\\n    function at(AddressSet storage set, uint256 index) internal view returns (address) {\\n        return address(uint160(uint256(_at(set._inner, index))));\\n    }\\n\\n    /**\\n     * @dev Return the entire set in an array\\n     *\\n     * WARNING: This operation will copy the entire storage to memory, which can be quite expensive. This is designed\\n     * to mostly be used by view accessors that are queried without any gas fees. Developers should keep in mind that\\n     * this function has an unbounded cost, and using it as part of a state-changing function may render the function\\n     * uncallable if the set grows to a point where copying to memory consumes too much gas to fit in a block.\\n     */\\n    function values(AddressSet storage set) internal view returns (address[] memory) {\\n        bytes32[] memory store = _values(set._inner);\\n        address[] memory result;\\n\\n        assembly (\\\"memory-safe\\\") {\\n            result := store\\n        }\\n\\n        return result;\\n    }\\n\\n    /**\\n     * @dev Return a slice of the set in an array\\n     *\\n     * WARNING: This operation will copy the entire storage to memory, which can be quite expensive. This is designed\\n     * to mostly be used by view accessors that are queried without any gas fees. Developers should keep in mind that\\n     * this function has an unbounded cost, and using it as part of a state-changing function may render the function\\n     * uncallable if the set grows to a point where copying to memory consumes too much gas to fit in a block.\\n     */\\n    function values(AddressSet storage set, uint256 start, uint256 end) internal view returns (address[] memory) {\\n        bytes32[] memory store = _values(set._inner, start, end);\\n        address[] memory result;\\n\\n        assembly (\\\"memory-safe\\\") {\\n            result := store\\n        }\\n\\n        return result;\\n    }\\n\\n    // UintSet\\n\\n    struct UintSet {\\n        Set _inner;\\n    }\\n\\n    /**\\n     * @dev Add a value to a set. O(1).\\n     *\\n     * Returns true if the value was added to the set, that is if it was not\\n     * already present.\\n     */\\n    function add(UintSet storage set, uint256 value) internal returns (bool) {\\n        return _add(set._inner, bytes32(value));\\n    }\\n\\n    /**\\n     * @dev Removes a value from a set. O(1).\\n     *\\n     * Returns true if the value was removed from the set, that is if it was\\n     * present.\\n     */\\n    function remove(UintSet storage set, uint256 value) internal returns (bool) {\\n        return _remove(set._inner, bytes32(value));\\n    }\\n\\n    /**\\n     * @dev Removes all the values from a set. O(n).\\n     *\\n     * WARNING: Developers should keep in mind that this function has an unbounded cost and using it may render the\\n     * function uncallable if the set grows to the point where clearing it consumes too much gas to fit in a block.\\n     */\\n    function clear(UintSet storage set) internal {\\n        _clear(set._inner);\\n    }\\n\\n    /**\\n     * @dev Returns true if the value is in the set. O(1).\\n     */\\n    function contains(UintSet storage set, uint256 value) internal view returns (bool) {\\n        return _contains(set._inner, bytes32(value));\\n    }\\n\\n    /**\\n     * @dev Returns the number of values in the set. O(1).\\n     */\\n    function length(UintSet storage set) internal view returns (uint256) {\\n        return _length(set._inner);\\n    }\\n\\n    /**\\n     * @dev Returns the value stored at position `index` in the set. O(1).\\n     *\\n     * Note that there are no guarantees on the ordering of values inside the\\n     * array, and it may change when more values are added or removed.\\n     *\\n     * Requirements:\\n     *\\n     * - `index` must be strictly less than {length}.\\n     */\\n    function at(UintSet storage set, uint256 index) internal view returns (uint256) {\\n        return uint256(_at(set._inner, index));\\n    }\\n\\n    /**\\n     * @dev Return the entire set in an array\\n     *\\n     * WARNING: This operation will copy the entire storage to memory, which can be quite expensive. This is designed\\n     * to mostly be used by view accessors that are queried without any gas fees. Developers should keep in mind that\\n     * this function has an unbounded cost, and using it as part of a state-changing function may render the function\\n     * uncallable if the set grows to a point where copying to memory consumes too much gas to fit in a block.\\n     */\\n    function values(UintSet storage set) internal view returns (uint256[] memory) {\\n        bytes32[] memory store = _values(set._inner);\\n        uint256[] memory result;\\n\\n        assembly (\\\"memory-safe\\\") {\\n            result := store\\n        }\\n\\n        return result;\\n    }\\n\\n    /**\\n     * @dev Return a slice of the set in an array\\n     *\\n     * WARNING: This operation will copy the entire storage to memory, which can be quite expensive. This is designed\\n     * to mostly be used by view accessors that are queried without any gas fees. Developers should keep in mind that\\n     * this function has an unbounded cost, and using it as part of a state-changing function may render the function\\n     * uncallable if the set grows to a point where copying to memory consumes too much gas to fit in a block.\\n     */\\n    function values(UintSet storage set, uint256 start, uint256 end) internal view returns (uint256[] memory) {\\n        bytes32[] memory store = _values(set._inner, start, end);\\n        uint256[] memory result;\\n\\n        assembly (\\\"memory-safe\\\") {\\n            result := store\\n        }\\n\\n        return result;\\n    }\\n\\n    struct StringSet {\\n        // Storage of set values\\n        string[] _values;\\n        // Position is the index of the value in the `values` array plus 1.\\n        // Position 0 is used to mean a value is not in the set.\\n        mapping(string value => uint256) _positions;\\n    }\\n\\n    /**\\n     * @dev Add a value to a set. O(1).\\n     *\\n     * Returns true if the value was added to the set, that is if it was not\\n     * already present.\\n     */\\n    function add(StringSet storage set, string memory value) internal returns (bool) {\\n        if (!contains(set, value)) {\\n            set._values.push(value);\\n            // The value is stored at length-1, but we add 1 to all indexes\\n            // and use 0 as a sentinel value\\n            set._positions[value] = set._values.length;\\n            return true;\\n        } else {\\n            return false;\\n        }\\n    }\\n\\n    /**\\n     * @dev Removes a value from a set. O(1).\\n     *\\n     * Returns true if the value was removed from the set, that is if it was\\n     * present.\\n     */\\n    function remove(StringSet storage set, string memory value) internal returns (bool) {\\n        // We cache the value's position to prevent multiple reads from the same storage slot\\n        uint256 position = set._positions[value];\\n\\n        if (position != 0) {\\n            // Equivalent to contains(set, value)\\n            // To delete an element from the _values array in O(1), we swap the element to delete with the last one in\\n            // the array, and then remove the last element (sometimes called as 'swap and pop').\\n            // This modifies the order of the array, as noted in {at}.\\n\\n            uint256 valueIndex = position - 1;\\n            uint256 lastIndex = set._values.length - 1;\\n\\n            if (valueIndex != lastIndex) {\\n                string memory lastValue = set._values[lastIndex];\\n\\n                // Move the lastValue to the index where the value to delete is\\n                set._values[valueIndex] = lastValue;\\n                // Update the tracked position of the lastValue (that was just moved)\\n                set._positions[lastValue] = position;\\n            }\\n\\n            // Delete the slot where the moved value was stored\\n            set._values.pop();\\n\\n            // Delete the tracked position for the deleted slot\\n            delete set._positions[value];\\n\\n            return true;\\n        } else {\\n            return false;\\n        }\\n    }\\n\\n    /**\\n     * @dev Removes all the values from a set. O(n).\\n     *\\n     * WARNING: Developers should keep in mind that this function has an unbounded cost and using it may render the\\n     * function uncallable if the set grows to the point where clearing it consumes too much gas to fit in a block.\\n     */\\n    function clear(StringSet storage set) internal {\\n        uint256 len = length(set);\\n        for (uint256 i = 0; i < len; ++i) {\\n            delete set._positions[set._values[i]];\\n        }\\n        Arrays.unsafeSetLength(set._values, 0);\\n    }\\n\\n    /**\\n     * @dev Returns true if the value is in the set. O(1).\\n     */\\n    function contains(StringSet storage set, string memory value) internal view returns (bool) {\\n        return set._positions[value] != 0;\\n    }\\n\\n    /**\\n     * @dev Returns the number of values on the set. O(1).\\n     */\\n    function length(StringSet storage set) internal view returns (uint256) {\\n        return set._values.length;\\n    }\\n\\n    /**\\n     * @dev Returns the value stored at position `index` in the set. O(1).\\n     *\\n     * Note that there are no guarantees on the ordering of values inside the\\n     * array, and it may change when more values are added or removed.\\n     *\\n     * Requirements:\\n     *\\n     * - `index` must be strictly less than {length}.\\n     */\\n    function at(StringSet storage set, uint256 index) internal view returns (string memory) {\\n        return set._values[index];\\n    }\\n\\n    /**\\n     * @dev Return the entire set in an array\\n     *\\n     * WARNING: This operation will copy the entire storage to memory, which can be quite expensive. This is designed\\n     * to mostly be used by view accessors that are queried without any gas fees. Developers should keep in mind that\\n     * this function has an unbounded cost, and using it as part of a state-changing function may render the function\\n     * uncallable if the set grows to a point where copying to memory consumes too much gas to fit in a block.\\n     */\\n    function values(StringSet storage set) internal view returns (string[] memory) {\\n        return set._values;\\n    }\\n\\n    /**\\n     * @dev Return a slice of the set in an array\\n     *\\n     * WARNING: This operation will copy the entire storage to memory, which can be quite expensive. This is designed\\n     * to mostly be used by view accessors that are queried without any gas fees. Developers should keep in mind that\\n     * this function has an unbounded cost, and using it as part of a state-changing function may render the function\\n     * uncallable if the set grows to a point where copying to memory consumes too much gas to fit in a block.\\n     */\\n    function values(StringSet storage set, uint256 start, uint256 end) internal view returns (string[] memory) {\\n        unchecked {\\n            end = Math.min(end, length(set));\\n            start = Math.min(start, end);\\n\\n            uint256 len = end - start;\\n            string[] memory result = new string[](len);\\n            for (uint256 i = 0; i < len; ++i) {\\n                result[i] = Arrays.unsafeAccess(set._values, start + i).value;\\n            }\\n            return result;\\n        }\\n    }\\n\\n    struct BytesSet {\\n        // Storage of set values\\n        bytes[] _values;\\n        // Position is the index of the value in the `values` array plus 1.\\n        // Position 0 is used to mean a value is not in the set.\\n        mapping(bytes value => uint256) _positions;\\n    }\\n\\n    /**\\n     * @dev Add a value to a set. O(1).\\n     *\\n     * Returns true if the value was added to the set, that is if it was not\\n     * already present.\\n     */\\n    function add(BytesSet storage set, bytes memory value) internal returns (bool) {\\n        if (!contains(set, value)) {\\n            set._values.push(value);\\n            // The value is stored at length-1, but we add 1 to all indexes\\n            // and use 0 as a sentinel value\\n            set._positions[value] = set._values.length;\\n            return true;\\n        } else {\\n            return false;\\n        }\\n    }\\n\\n    /**\\n     * @dev Removes a value from a set. O(1).\\n     *\\n     * Returns true if the value was removed from the set, that is if it was\\n     * present.\\n     */\\n    function remove(BytesSet storage set, bytes memory value) internal returns (bool) {\\n        // We cache the value's position to prevent multiple reads from the same storage slot\\n        uint256 position = set._positions[value];\\n\\n        if (position != 0) {\\n            // Equivalent to contains(set, value)\\n            // To delete an element from the _values array in O(1), we swap the element to delete with the last one in\\n            // the array, and then remove the last element (sometimes called as 'swap and pop').\\n            // This modifies the order of the array, as noted in {at}.\\n\\n            uint256 valueIndex = position - 1;\\n            uint256 lastIndex = set._values.length - 1;\\n\\n            if (valueIndex != lastIndex) {\\n                bytes memory lastValue = set._values[lastIndex];\\n\\n                // Move the lastValue to the index where the value to delete is\\n                set._values[valueIndex] = lastValue;\\n                // Update the tracked position of the lastValue (that was just moved)\\n                set._positions[lastValue] = position;\\n            }\\n\\n            // Delete the slot where the moved value was stored\\n            set._values.pop();\\n\\n            // Delete the tracked position for the deleted slot\\n            delete set._positions[value];\\n\\n            return true;\\n        } else {\\n            return false;\\n        }\\n    }\\n\\n    /**\\n     * @dev Removes all the values from a set. O(n).\\n     *\\n     * WARNING: Developers should keep in mind that this function has an unbounded cost and using it may render the\\n     * function uncallable if the set grows to the point where clearing it consumes too much gas to fit in a block.\\n     */\\n    function clear(BytesSet storage set) internal {\\n        uint256 len = length(set);\\n        for (uint256 i = 0; i < len; ++i) {\\n            delete set._positions[set._values[i]];\\n        }\\n        Arrays.unsafeSetLength(set._values, 0);\\n    }\\n\\n    /**\\n     * @dev Returns true if the value is in the set. O(1).\\n     */\\n    function contains(BytesSet storage set, bytes memory value) internal view returns (bool) {\\n        return set._positions[value] != 0;\\n    }\\n\\n    /**\\n     * @dev Returns the number of values on the set. O(1).\\n     */\\n    function length(BytesSet storage set) internal view returns (uint256) {\\n        return set._values.length;\\n    }\\n\\n    /**\\n     * @dev Returns the value stored at position `index` in the set. O(1).\\n     *\\n     * Note that there are no guarantees on the ordering of values inside the\\n     * array, and it may change when more values are added or removed.\\n     *\\n     * Requirements:\\n     *\\n     * - `index` must be strictly less than {length}.\\n     */\\n    function at(BytesSet storage set, uint256 index) internal view returns (bytes memory) {\\n        return set._values[index];\\n    }\\n\\n    /**\\n     * @dev Return the entire set in an array\\n     *\\n     * WARNING: This operation will copy the entire storage to memory, which can be quite expensive. This is designed\\n     * to mostly be used by view accessors that are queried without any gas fees. Developers should keep in mind that\\n     * this function has an unbounded cost, and using it as part of a state-changing function may render the function\\n     * uncallable if the set grows to a point where copying to memory consumes too much gas to fit in a block.\\n     */\\n    function values(BytesSet storage set) internal view returns (bytes[] memory) {\\n        return set._values;\\n    }\\n\\n    /**\\n     * @dev Return a slice of the set in an array\\n     *\\n     * WARNING: This operation will copy the entire storage to memory, which can be quite expensive. This is designed\\n     * to mostly be used by view accessors that are queried without any gas fees. Developers should keep in mind that\\n     * this function has an unbounded cost, and using it as part of a state-changing function may render the function\\n     * uncallable if the set grows to a point where copying to memory consumes too much gas to fit in a block.\\n     */\\n    function values(BytesSet storage set, uint256 start, uint256 end) internal view returns (bytes[] memory) {\\n        unchecked {\\n            end = Math.min(end, length(set));\\n            start = Math.min(start, end);\\n\\n            uint256 len = end - start;\\n            bytes[] memory result = new bytes[](len);\\n            for (uint256 i = 0; i < len; ++i) {\\n                result[i] = Arrays.unsafeAccess(set._values, start + i).value;\\n            }\\n            return result;\\n        }\\n    }\\n}\\n\"},\"@openzeppelin/contracts/utils/Arrays.sol\":{\"content\":\"// SPDX-License-Identifier: MIT\\n// OpenZeppelin Contracts (last updated v5.6.0) (utils/Arrays.sol)\\n// This file was procedurally generated from scripts/generate/templates/Arrays.js.\\n\\npragma solidity ^0.8.24;\\n\\nimport {Comparators} from \\\"./Comparators.sol\\\";\\nimport {SlotDerivation} from \\\"./SlotDerivation.sol\\\";\\nimport {StorageSlot} from \\\"./StorageSlot.sol\\\";\\nimport {Math} from \\\"./math/Math.sol\\\";\\n\\n/**\\n * @dev Collection of functions related to array types.\\n */\\nlibrary Arrays {\\n    using SlotDerivation for bytes32;\\n    using StorageSlot for bytes32;\\n\\n    /**\\n     * @dev Sort an array of uint256 (in memory) following the provided comparator function.\\n     *\\n     * This function does the sorting \\\"in place\\\", meaning that it overrides the input. The object is returned for\\n     * convenience, but that returned value can be discarded safely if the caller has a memory pointer to the array.\\n     *\\n     * NOTE: this function's cost is `O(n · log(n))` in average and `O(n²)` in the worst case, with n the length of the\\n     * array. Using it in view functions that are executed through `eth_call` is safe, but one should be very careful\\n     * when executing this as part of a transaction. If the array being sorted is too large, the sort operation may\\n     * consume more gas than is available in a block, leading to potential DoS.\\n     *\\n     * IMPORTANT: Consider memory side-effects when using custom comparator functions that access memory in an unsafe way.\\n     */\\n    function sort(\\n        uint256[] memory array,\\n        function(uint256, uint256) pure returns (bool) comp\\n    ) internal pure returns (uint256[] memory) {\\n        _quickSort(_begin(array), _end(array), comp);\\n        return array;\\n    }\\n\\n    /**\\n     * @dev Variant of {sort} that sorts an array of uint256 in increasing order.\\n     */\\n    function sort(uint256[] memory array) internal pure returns (uint256[] memory) {\\n        sort(array, Comparators.lt);\\n        return array;\\n    }\\n\\n    /**\\n     * @dev Sort an array of address (in memory) following the provided comparator function.\\n     *\\n     * This function does the sorting \\\"in place\\\", meaning that it overrides the input. The object is returned for\\n     * convenience, but that returned value can be discarded safely if the caller has a memory pointer to the array.\\n     *\\n     * NOTE: this function's cost is `O(n · log(n))` in average and `O(n²)` in the worst case, with n the length of the\\n     * array. Using it in view functions that are executed through `eth_call` is safe, but one should be very careful\\n     * when executing this as part of a transaction. If the array being sorted is too large, the sort operation may\\n     * consume more gas than is available in a block, leading to potential DoS.\\n     *\\n     * IMPORTANT: Consider memory side-effects when using custom comparator functions that access memory in an unsafe way.\\n     */\\n    function sort(\\n        address[] memory array,\\n        function(address, address) pure returns (bool) comp\\n    ) internal pure returns (address[] memory) {\\n        sort(_castToUint256Array(array), _castToUint256Comp(comp));\\n        return array;\\n    }\\n\\n    /**\\n     * @dev Variant of {sort} that sorts an array of address in increasing order.\\n     */\\n    function sort(address[] memory array) internal pure returns (address[] memory) {\\n        sort(_castToUint256Array(array), Comparators.lt);\\n        return array;\\n    }\\n\\n    /**\\n     * @dev Sort an array of bytes32 (in memory) following the provided comparator function.\\n     *\\n     * This function does the sorting \\\"in place\\\", meaning that it overrides the input. The object is returned for\\n     * convenience, but that returned value can be discarded safely if the caller has a memory pointer to the array.\\n     *\\n     * NOTE: this function's cost is `O(n · log(n))` in average and `O(n²)` in the worst case, with n the length of the\\n     * array. Using it in view functions that are executed through `eth_call` is safe, but one should be very careful\\n     * when executing this as part of a transaction. If the array being sorted is too large, the sort operation may\\n     * consume more gas than is available in a block, leading to potential DoS.\\n     *\\n     * IMPORTANT: Consider memory side-effects when using custom comparator functions that access memory in an unsafe way.\\n     */\\n    function sort(\\n        bytes32[] memory array,\\n        function(bytes32, bytes32) pure returns (bool) comp\\n    ) internal pure returns (bytes32[] memory) {\\n        sort(_castToUint256Array(array), _castToUint256Comp(comp));\\n        return array;\\n    }\\n\\n    /**\\n     * @dev Variant of {sort} that sorts an array of bytes32 in increasing order.\\n     */\\n    function sort(bytes32[] memory array) internal pure returns (bytes32[] memory) {\\n        sort(_castToUint256Array(array), Comparators.lt);\\n        return array;\\n    }\\n\\n    /**\\n     * @dev Performs a quick sort of a segment of memory. The segment sorted starts at `begin` (inclusive), and stops\\n     * at end (exclusive). Sorting follows the `comp` comparator.\\n     *\\n     * Invariant: `begin <= end`. This is the case when initially called by {sort} and is preserved in subcalls.\\n     *\\n     * IMPORTANT: Memory locations between `begin` and `end` are not validated/zeroed. This function should\\n     * be used only if the limits are within a memory array.\\n     */\\n    function _quickSort(uint256 begin, uint256 end, function(uint256, uint256) pure returns (bool) comp) private pure {\\n        unchecked {\\n            if (end - begin < 0x40) return;\\n\\n            // Use first element as pivot\\n            uint256 pivot = _mload(begin);\\n            // Position where the pivot should be at the end of the loop\\n            uint256 pos = begin;\\n\\n            for (uint256 it = begin + 0x20; it < end; it += 0x20) {\\n                if (comp(_mload(it), pivot)) {\\n                    // If the value stored at the iterator's position comes before the pivot, we increment the\\n                    // position of the pivot and move the value there.\\n                    pos += 0x20;\\n                    _swap(pos, it);\\n                }\\n            }\\n\\n            _swap(begin, pos); // Swap pivot into place\\n            _quickSort(begin, pos, comp); // Sort the left side of the pivot\\n            _quickSort(pos + 0x20, end, comp); // Sort the right side of the pivot\\n        }\\n    }\\n\\n    /**\\n     * @dev Pointer to the memory location of the first element of `array`.\\n     */\\n    function _begin(uint256[] memory array) private pure returns (uint256 ptr) {\\n        assembly (\\\"memory-safe\\\") {\\n            ptr := add(array, 0x20)\\n        }\\n    }\\n\\n    /**\\n     * @dev Pointer to the memory location of the first memory word (32bytes) after `array`. This is the memory word\\n     * that comes just after the last element of the array.\\n     */\\n    function _end(uint256[] memory array) private pure returns (uint256 ptr) {\\n        unchecked {\\n            return _begin(array) + array.length * 0x20;\\n        }\\n    }\\n\\n    /**\\n     * @dev Load memory word (as a uint256) at location `ptr`.\\n     */\\n    function _mload(uint256 ptr) private pure returns (uint256 value) {\\n        assembly {\\n            value := mload(ptr)\\n        }\\n    }\\n\\n    /**\\n     * @dev Swaps the elements memory location `ptr1` and `ptr2`.\\n     */\\n    function _swap(uint256 ptr1, uint256 ptr2) private pure {\\n        assembly {\\n            let value1 := mload(ptr1)\\n            let value2 := mload(ptr2)\\n            mstore(ptr1, value2)\\n            mstore(ptr2, value1)\\n        }\\n    }\\n\\n    /// @dev Helper: low level cast address memory array to uint256 memory array\\n    function _castToUint256Array(address[] memory input) private pure returns (uint256[] memory output) {\\n        assembly {\\n            output := input\\n        }\\n    }\\n\\n    /// @dev Helper: low level cast bytes32 memory array to uint256 memory array\\n    function _castToUint256Array(bytes32[] memory input) private pure returns (uint256[] memory output) {\\n        assembly {\\n            output := input\\n        }\\n    }\\n\\n    /// @dev Helper: low level cast address comp function to uint256 comp function\\n    function _castToUint256Comp(\\n        function(address, address) pure returns (bool) input\\n    ) private pure returns (function(uint256, uint256) pure returns (bool) output) {\\n        assembly {\\n            output := input\\n        }\\n    }\\n\\n    /// @dev Helper: low level cast bytes32 comp function to uint256 comp function\\n    function _castToUint256Comp(\\n        function(bytes32, bytes32) pure returns (bool) input\\n    ) private pure returns (function(uint256, uint256) pure returns (bool) output) {\\n        assembly {\\n            output := input\\n        }\\n    }\\n\\n    /**\\n     * @dev Searches a sorted `array` and returns the first index that contains\\n     * a value greater or equal to `element`. If no such index exists (i.e. all\\n     * values in the array are strictly less than `element`), the array length is\\n     * returned. Time complexity O(log n).\\n     *\\n     * NOTE: The `array` is expected to be sorted in ascending order, and to\\n     * contain no repeated elements.\\n     *\\n     * IMPORTANT: Deprecated. This implementation behaves as {lowerBound} but lacks\\n     * support for repeated elements in the array. The {lowerBound} function should\\n     * be used instead.\\n     */\\n    function findUpperBound(uint256[] storage array, uint256 element) internal view returns (uint256) {\\n        uint256 low = 0;\\n        uint256 high = array.length;\\n\\n        if (high == 0) {\\n            return 0;\\n        }\\n\\n        while (low < high) {\\n            uint256 mid = Math.average(low, high);\\n\\n            // Note that mid will always be strictly less than high (i.e. it will be a valid array index)\\n            // because Math.average rounds towards zero (it does integer division with truncation).\\n            if (unsafeAccess(array, mid).value > element) {\\n                high = mid;\\n            } else {\\n                low = mid + 1;\\n            }\\n        }\\n\\n        // At this point `low` is the exclusive upper bound. We will return the inclusive upper bound.\\n        if (low > 0 && unsafeAccess(array, low - 1).value == element) {\\n            return low - 1;\\n        } else {\\n            return low;\\n        }\\n    }\\n\\n    /**\\n     * @dev Searches an `array` sorted in ascending order and returns the first\\n     * index that contains a value greater or equal than `element`. If no such index\\n     * exists (i.e. all values in the array are strictly less than `element`), the array\\n     * length is returned. Time complexity O(log n).\\n     *\\n     * See C++'s https://en.cppreference.com/w/cpp/algorithm/lower_bound[lower_bound].\\n     */\\n    function lowerBound(uint256[] storage array, uint256 element) internal view returns (uint256) {\\n        uint256 low = 0;\\n        uint256 high = array.length;\\n\\n        if (high == 0) {\\n            return 0;\\n        }\\n\\n        while (low < high) {\\n            uint256 mid = Math.average(low, high);\\n\\n            // Note that mid will always be strictly less than high (i.e. it will be a valid array index)\\n            // because Math.average rounds towards zero (it does integer division with truncation).\\n            if (unsafeAccess(array, mid).value < element) {\\n                // this cannot overflow because mid < high\\n                unchecked {\\n                    low = mid + 1;\\n                }\\n            } else {\\n                high = mid;\\n            }\\n        }\\n\\n        return low;\\n    }\\n\\n    /**\\n     * @dev Searches an `array` sorted in ascending order and returns the first\\n     * index that contains a value strictly greater than `element`. If no such index\\n     * exists (i.e. all values in the array are strictly less than `element`), the array\\n     * length is returned. Time complexity O(log n).\\n     *\\n     * See C++'s https://en.cppreference.com/w/cpp/algorithm/upper_bound[upper_bound].\\n     */\\n    function upperBound(uint256[] storage array, uint256 element) internal view returns (uint256) {\\n        uint256 low = 0;\\n        uint256 high = array.length;\\n\\n        if (high == 0) {\\n            return 0;\\n        }\\n\\n        while (low < high) {\\n            uint256 mid = Math.average(low, high);\\n\\n            // Note that mid will always be strictly less than high (i.e. it will be a valid array index)\\n            // because Math.average rounds towards zero (it does integer division with truncation).\\n            if (unsafeAccess(array, mid).value > element) {\\n                high = mid;\\n            } else {\\n                // this cannot overflow because mid < high\\n                unchecked {\\n                    low = mid + 1;\\n                }\\n            }\\n        }\\n\\n        return low;\\n    }\\n\\n    /**\\n     * @dev Same as {lowerBound}, but with an array in memory.\\n     */\\n    function lowerBoundMemory(uint256[] memory array, uint256 element) internal pure returns (uint256) {\\n        uint256 low = 0;\\n        uint256 high = array.length;\\n\\n        if (high == 0) {\\n            return 0;\\n        }\\n\\n        while (low < high) {\\n            uint256 mid = Math.average(low, high);\\n\\n            // Note that mid will always be strictly less than high (i.e. it will be a valid array index)\\n            // because Math.average rounds towards zero (it does integer division with truncation).\\n            if (unsafeMemoryAccess(array, mid) < element) {\\n                // this cannot overflow because mid < high\\n                unchecked {\\n                    low = mid + 1;\\n                }\\n            } else {\\n                high = mid;\\n            }\\n        }\\n\\n        return low;\\n    }\\n\\n    /**\\n     * @dev Same as {upperBound}, but with an array in memory.\\n     */\\n    function upperBoundMemory(uint256[] memory array, uint256 element) internal pure returns (uint256) {\\n        uint256 low = 0;\\n        uint256 high = array.length;\\n\\n        if (high == 0) {\\n            return 0;\\n        }\\n\\n        while (low < high) {\\n            uint256 mid = Math.average(low, high);\\n\\n            // Note that mid will always be strictly less than high (i.e. it will be a valid array index)\\n            // because Math.average rounds towards zero (it does integer division with truncation).\\n            if (unsafeMemoryAccess(array, mid) > element) {\\n                high = mid;\\n            } else {\\n                // this cannot overflow because mid < high\\n                unchecked {\\n                    low = mid + 1;\\n                }\\n            }\\n        }\\n\\n        return low;\\n    }\\n\\n    /**\\n     * @dev Copies the content of `array`, from `start` (included) to the end of `array` into a new address array in\\n     * memory.\\n     *\\n     * NOTE: replicates the behavior of https://developer.mozilla.org/en-US/docs/Web/JavaScript/Reference/Global_Objects/Array/slice[Javascript's `Array.slice`]\\n     */\\n    function slice(address[] memory array, uint256 start) internal pure returns (address[] memory) {\\n        return slice(array, start, array.length);\\n    }\\n\\n    /**\\n     * @dev Copies the content of `array`, from `start` (included) to `end` (excluded) into a new address array in\\n     * memory. The `end` argument is truncated to the length of the `array`.\\n     *\\n     * NOTE: replicates the behavior of https://developer.mozilla.org/en-US/docs/Web/JavaScript/Reference/Global_Objects/Array/slice[Javascript's `Array.slice`]\\n     */\\n    function slice(address[] memory array, uint256 start, uint256 end) internal pure returns (address[] memory) {\\n        // sanitize\\n        end = Math.min(end, array.length);\\n        start = Math.min(start, end);\\n\\n        // allocate and copy\\n        address[] memory result = new address[](end - start);\\n        assembly (\\\"memory-safe\\\") {\\n            mcopy(add(result, 0x20), add(add(array, 0x20), mul(start, 0x20)), mul(sub(end, start), 0x20))\\n        }\\n\\n        return result;\\n    }\\n\\n    /**\\n     * @dev Copies the content of `array`, from `start` (included) to the end of `array` into a new bytes32 array in\\n     * memory.\\n     *\\n     * NOTE: replicates the behavior of https://developer.mozilla.org/en-US/docs/Web/JavaScript/Reference/Global_Objects/Array/slice[Javascript's `Array.slice`]\\n     */\\n    function slice(bytes32[] memory array, uint256 start) internal pure returns (bytes32[] memory) {\\n        return slice(array, start, array.length);\\n    }\\n\\n    /**\\n     * @dev Copies the content of `array`, from `start` (included) to `end` (excluded) into a new bytes32 array in\\n     * memory. The `end` argument is truncated to the length of the `array`.\\n     *\\n     * NOTE: replicates the behavior of https://developer.mozilla.org/en-US/docs/Web/JavaScript/Reference/Global_Objects/Array/slice[Javascript's `Array.slice`]\\n     */\\n    function slice(bytes32[] memory array, uint256 start, uint256 end) internal pure returns (bytes32[] memory) {\\n        // sanitize\\n        end = Math.min(end, array.length);\\n        start = Math.min(start, end);\\n\\n        // allocate and copy\\n        bytes32[] memory result = new bytes32[](end - start);\\n        assembly (\\\"memory-safe\\\") {\\n            mcopy(add(result, 0x20), add(add(array, 0x20), mul(start, 0x20)), mul(sub(end, start), 0x20))\\n        }\\n\\n        return result;\\n    }\\n\\n    /**\\n     * @dev Copies the content of `array`, from `start` (included) to the end of `array` into a new uint256 array in\\n     * memory.\\n     *\\n     * NOTE: replicates the behavior of https://developer.mozilla.org/en-US/docs/Web/JavaScript/Reference/Global_Objects/Array/slice[Javascript's `Array.slice`]\\n     */\\n    function slice(uint256[] memory array, uint256 start) internal pure returns (uint256[] memory) {\\n        return slice(array, start, array.length);\\n    }\\n\\n    /**\\n     * @dev Copies the content of `array`, from `start` (included) to `end` (excluded) into a new uint256 array in\\n     * memory. The `end` argument is truncated to the length of the `array`.\\n     *\\n     * NOTE: replicates the behavior of https://developer.mozilla.org/en-US/docs/Web/JavaScript/Reference/Global_Objects/Array/slice[Javascript's `Array.slice`]\\n     */\\n    function slice(uint256[] memory array, uint256 start, uint256 end) internal pure returns (uint256[] memory) {\\n        // sanitize\\n        end = Math.min(end, array.length);\\n        start = Math.min(start, end);\\n\\n        // allocate and copy\\n        uint256[] memory result = new uint256[](end - start);\\n        assembly (\\\"memory-safe\\\") {\\n            mcopy(add(result, 0x20), add(add(array, 0x20), mul(start, 0x20)), mul(sub(end, start), 0x20))\\n        }\\n\\n        return result;\\n    }\\n\\n    /**\\n     * @dev Moves the content of `array`, from `start` (included) to the end of `array` to the start of that array,\\n     * and shrinks the array length accordingly, effectively overwriting the array with array[start:].\\n     *\\n     * NOTE: This function modifies the provided array in place. If you need to preserve the original array, use {slice} instead.\\n     */\\n    function splice(address[] memory array, uint256 start) internal pure returns (address[] memory) {\\n        return splice(array, start, array.length);\\n    }\\n\\n    /**\\n     * @dev Moves the content of `array`, from `start` (included) to `end` (excluded) to the start of that array,\\n     * and shrinks the array length accordingly, effectively overwriting the array with array[start:end]. The\\n     * `end` argument is truncated to the length of the `array`.\\n     *\\n     * NOTE: This function modifies the provided array in place. If you need to preserve the original array, use {slice} instead.\\n     */\\n    function splice(address[] memory array, uint256 start, uint256 end) internal pure returns (address[] memory) {\\n        // sanitize\\n        end = Math.min(end, array.length);\\n        start = Math.min(start, end);\\n\\n        // move and resize\\n        assembly (\\\"memory-safe\\\") {\\n            mcopy(add(array, 0x20), add(add(array, 0x20), mul(start, 0x20)), mul(sub(end, start), 0x20))\\n            mstore(array, sub(end, start))\\n        }\\n\\n        return array;\\n    }\\n\\n    /**\\n     * @dev Replaces elements in `array` starting at `pos` with all elements from `replacement`.\\n     *\\n     * Parameters are clamped to valid ranges (e.g. `pos` is clamped to `[0, array.length]`).\\n     * If `pos >= array.length`, no replacement occurs and the array is returned unchanged.\\n     *\\n     * NOTE: This function modifies the provided array in place.\\n     */\\n    function replace(\\n        address[] memory array,\\n        uint256 pos,\\n        address[] memory replacement\\n    ) internal pure returns (address[] memory) {\\n        return replace(array, pos, replacement, 0, replacement.length);\\n    }\\n\\n    /**\\n     * @dev Replaces elements in `array` starting at `pos` with elements from `replacement` starting at `offset`.\\n     * Copies at most `length` elements from `replacement` to `array`.\\n     *\\n     * Parameters are clamped to valid ranges (i.e. `pos` is clamped to `[0, array.length]`, `offset` is\\n     * clamped to `[0, replacement.length]`, and `length` is clamped to `min(length, replacement.length - offset,\\n     * array.length - pos)`). If `pos >= array.length` or `offset >= replacement.length`, no replacement occurs\\n     * and the array is returned unchanged.\\n     *\\n     * NOTE: This function modifies the provided array in place.\\n     */\\n    function replace(\\n        address[] memory array,\\n        uint256 pos,\\n        address[] memory replacement,\\n        uint256 offset,\\n        uint256 length\\n    ) internal pure returns (address[] memory) {\\n        // sanitize\\n        pos = Math.min(pos, array.length);\\n        offset = Math.min(offset, replacement.length);\\n        length = Math.min(length, Math.min(replacement.length - offset, array.length - pos));\\n\\n        // replace\\n        assembly (\\\"memory-safe\\\") {\\n            mcopy(\\n                add(add(array, 0x20), mul(pos, 0x20)),\\n                add(add(replacement, 0x20), mul(offset, 0x20)),\\n                mul(length, 0x20)\\n            )\\n        }\\n\\n        return array;\\n    }\\n\\n    /**\\n     * @dev Moves the content of `array`, from `start` (included) to the end of `array` to the start of that array,\\n     * and shrinks the array length accordingly, effectively overwriting the array with array[start:].\\n     *\\n     * NOTE: This function modifies the provided array in place. If you need to preserve the original array, use {slice} instead.\\n     */\\n    function splice(bytes32[] memory array, uint256 start) internal pure returns (bytes32[] memory) {\\n        return splice(array, start, array.length);\\n    }\\n\\n    /**\\n     * @dev Moves the content of `array`, from `start` (included) to `end` (excluded) to the start of that array,\\n     * and shrinks the array length accordingly, effectively overwriting the array with array[start:end]. The\\n     * `end` argument is truncated to the length of the `array`.\\n     *\\n     * NOTE: This function modifies the provided array in place. If you need to preserve the original array, use {slice} instead.\\n     */\\n    function splice(bytes32[] memory array, uint256 start, uint256 end) internal pure returns (bytes32[] memory) {\\n        // sanitize\\n        end = Math.min(end, array.length);\\n        start = Math.min(start, end);\\n\\n        // move and resize\\n        assembly (\\\"memory-safe\\\") {\\n            mcopy(add(array, 0x20), add(add(array, 0x20), mul(start, 0x20)), mul(sub(end, start), 0x20))\\n            mstore(array, sub(end, start))\\n        }\\n\\n        return array;\\n    }\\n\\n    /**\\n     * @dev Replaces elements in `array` starting at `pos` with all elements from `replacement`.\\n     *\\n     * Parameters are clamped to valid ranges (e.g. `pos` is clamped to `[0, array.length]`).\\n     * If `pos >= array.length`, no replacement occurs and the array is returned unchanged.\\n     *\\n     * NOTE: This function modifies the provided array in place.\\n     */\\n    function replace(\\n        bytes32[] memory array,\\n        uint256 pos,\\n        bytes32[] memory replacement\\n    ) internal pure returns (bytes32[] memory) {\\n        return replace(array, pos, replacement, 0, replacement.length);\\n    }\\n\\n    /**\\n     * @dev Replaces elements in `array` starting at `pos` with elements from `replacement` starting at `offset`.\\n     * Copies at most `length` elements from `replacement` to `array`.\\n     *\\n     * Parameters are clamped to valid ranges (i.e. `pos` is clamped to `[0, array.length]`, `offset` is\\n     * clamped to `[0, replacement.length]`, and `length` is clamped to `min(length, replacement.length - offset,\\n     * array.length - pos)`). If `pos >= array.length` or `offset >= replacement.length`, no replacement occurs\\n     * and the array is returned unchanged.\\n     *\\n     * NOTE: This function modifies the provided array in place.\\n     */\\n    function replace(\\n        bytes32[] memory array,\\n        uint256 pos,\\n        bytes32[] memory replacement,\\n        uint256 offset,\\n        uint256 length\\n    ) internal pure returns (bytes32[] memory) {\\n        // sanitize\\n        pos = Math.min(pos, array.length);\\n        offset = Math.min(offset, replacement.length);\\n        length = Math.min(length, Math.min(replacement.length - offset, array.length - pos));\\n\\n        // replace\\n        assembly (\\\"memory-safe\\\") {\\n            mcopy(\\n                add(add(array, 0x20), mul(pos, 0x20)),\\n                add(add(replacement, 0x20), mul(offset, 0x20)),\\n                mul(length, 0x20)\\n            )\\n        }\\n\\n        return array;\\n    }\\n\\n    /**\\n     * @dev Moves the content of `array`, from `start` (included) to the end of `array` to the start of that array,\\n     * and shrinks the array length accordingly, effectively overwriting the array with array[start:].\\n     *\\n     * NOTE: This function modifies the provided array in place. If you need to preserve the original array, use {slice} instead.\\n     */\\n    function splice(uint256[] memory array, uint256 start) internal pure returns (uint256[] memory) {\\n        return splice(array, start, array.length);\\n    }\\n\\n    /**\\n     * @dev Moves the content of `array`, from `start` (included) to `end` (excluded) to the start of that array,\\n     * and shrinks the array length accordingly, effectively overwriting the array with array[start:end]. The\\n     * `end` argument is truncated to the length of the `array`.\\n     *\\n     * NOTE: This function modifies the provided array in place. If you need to preserve the original array, use {slice} instead.\\n     */\\n    function splice(uint256[] memory array, uint256 start, uint256 end) internal pure returns (uint256[] memory) {\\n        // sanitize\\n        end = Math.min(end, array.length);\\n        start = Math.min(start, end);\\n\\n        // move and resize\\n        assembly (\\\"memory-safe\\\") {\\n            mcopy(add(array, 0x20), add(add(array, 0x20), mul(start, 0x20)), mul(sub(end, start), 0x20))\\n            mstore(array, sub(end, start))\\n        }\\n\\n        return array;\\n    }\\n\\n    /**\\n     * @dev Replaces elements in `array` starting at `pos` with all elements from `replacement`.\\n     *\\n     * Parameters are clamped to valid ranges (e.g. `pos` is clamped to `[0, array.length]`).\\n     * If `pos >= array.length`, no replacement occurs and the array is returned unchanged.\\n     *\\n     * NOTE: This function modifies the provided array in place.\\n     */\\n    function replace(\\n        uint256[] memory array,\\n        uint256 pos,\\n        uint256[] memory replacement\\n    ) internal pure returns (uint256[] memory) {\\n        return replace(array, pos, replacement, 0, replacement.length);\\n    }\\n\\n    /**\\n     * @dev Replaces elements in `array` starting at `pos` with elements from `replacement` starting at `offset`.\\n     * Copies at most `length` elements from `replacement` to `array`.\\n     *\\n     * Parameters are clamped to valid ranges (i.e. `pos` is clamped to `[0, array.length]`, `offset` is\\n     * clamped to `[0, replacement.length]`, and `length` is clamped to `min(length, replacement.length - offset,\\n     * array.length - pos)`). If `pos >= array.length` or `offset >= replacement.length`, no replacement occurs\\n     * and the array is returned unchanged.\\n     *\\n     * NOTE: This function modifies the provided array in place.\\n     */\\n    function replace(\\n        uint256[] memory array,\\n        uint256 pos,\\n        uint256[] memory replacement,\\n        uint256 offset,\\n        uint256 length\\n    ) internal pure returns (uint256[] memory) {\\n        // sanitize\\n        pos = Math.min(pos, array.length);\\n        offset = Math.min(offset, replacement.length);\\n        length = Math.min(length, Math.min(replacement.length - offset, array.length - pos));\\n\\n        // replace\\n        assembly (\\\"memory-safe\\\") {\\n            mcopy(\\n                add(add(array, 0x20), mul(pos, 0x20)),\\n                add(add(replacement, 0x20), mul(offset, 0x20)),\\n                mul(length, 0x20)\\n            )\\n        }\\n\\n        return array;\\n    }\\n\\n    /**\\n     * @dev Access an array in an \\\"unsafe\\\" way. Skips solidity \\\"index-out-of-range\\\" check.\\n     *\\n     * WARNING: Only use if you are certain `pos` is lower than the array length.\\n     */\\n    function unsafeAccess(address[] storage arr, uint256 pos) internal pure returns (StorageSlot.AddressSlot storage) {\\n        bytes32 slot;\\n        assembly (\\\"memory-safe\\\") {\\n            slot := arr.slot\\n        }\\n        return slot.deriveArray().offset(pos).getAddressSlot();\\n    }\\n\\n    /**\\n     * @dev Access an array in an \\\"unsafe\\\" way. Skips solidity \\\"index-out-of-range\\\" check.\\n     *\\n     * WARNING: Only use if you are certain `pos` is lower than the array length.\\n     */\\n    function unsafeAccess(bytes32[] storage arr, uint256 pos) internal pure returns (StorageSlot.Bytes32Slot storage) {\\n        bytes32 slot;\\n        assembly (\\\"memory-safe\\\") {\\n            slot := arr.slot\\n        }\\n        return slot.deriveArray().offset(pos).getBytes32Slot();\\n    }\\n\\n    /**\\n     * @dev Access an array in an \\\"unsafe\\\" way. Skips solidity \\\"index-out-of-range\\\" check.\\n     *\\n     * WARNING: Only use if you are certain `pos` is lower than the array length.\\n     */\\n    function unsafeAccess(uint256[] storage arr, uint256 pos) internal pure returns (StorageSlot.Uint256Slot storage) {\\n        bytes32 slot;\\n        assembly (\\\"memory-safe\\\") {\\n            slot := arr.slot\\n        }\\n        return slot.deriveArray().offset(pos).getUint256Slot();\\n    }\\n\\n    /**\\n     * @dev Access an array in an \\\"unsafe\\\" way. Skips solidity \\\"index-out-of-range\\\" check.\\n     *\\n     * WARNING: Only use if you are certain `pos` is lower than the array length.\\n     */\\n    function unsafeAccess(bytes[] storage arr, uint256 pos) internal pure returns (StorageSlot.BytesSlot storage) {\\n        bytes32 slot;\\n        assembly (\\\"memory-safe\\\") {\\n            slot := arr.slot\\n        }\\n        return slot.deriveArray().offset(pos).getBytesSlot();\\n    }\\n\\n    /**\\n     * @dev Access an array in an \\\"unsafe\\\" way. Skips solidity \\\"index-out-of-range\\\" check.\\n     *\\n     * WARNING: Only use if you are certain `pos` is lower than the array length.\\n     */\\n    function unsafeAccess(string[] storage arr, uint256 pos) internal pure returns (StorageSlot.StringSlot storage) {\\n        bytes32 slot;\\n        assembly (\\\"memory-safe\\\") {\\n            slot := arr.slot\\n        }\\n        return slot.deriveArray().offset(pos).getStringSlot();\\n    }\\n\\n    /**\\n     * @dev Access an array in an \\\"unsafe\\\" way. Skips solidity \\\"index-out-of-range\\\" check.\\n     *\\n     * WARNING: Only use if you are certain `pos` is lower than the array length.\\n     */\\n    function unsafeMemoryAccess(address[] memory arr, uint256 pos) internal pure returns (address res) {\\n        assembly {\\n            res := mload(add(add(arr, 0x20), mul(pos, 0x20)))\\n        }\\n    }\\n\\n    /**\\n     * @dev Access an array in an \\\"unsafe\\\" way. Skips solidity \\\"index-out-of-range\\\" check.\\n     *\\n     * WARNING: Only use if you are certain `pos` is lower than the array length.\\n     */\\n    function unsafeMemoryAccess(bytes32[] memory arr, uint256 pos) internal pure returns (bytes32 res) {\\n        assembly {\\n            res := mload(add(add(arr, 0x20), mul(pos, 0x20)))\\n        }\\n    }\\n\\n    /**\\n     * @dev Access an array in an \\\"unsafe\\\" way. Skips solidity \\\"index-out-of-range\\\" check.\\n     *\\n     * WARNING: Only use if you are certain `pos` is lower than the array length.\\n     */\\n    function unsafeMemoryAccess(uint256[] memory arr, uint256 pos) internal pure returns (uint256 res) {\\n        assembly {\\n            res := mload(add(add(arr, 0x20), mul(pos, 0x20)))\\n        }\\n    }\\n\\n    /**\\n     * @dev Access an array in an \\\"unsafe\\\" way. Skips solidity \\\"index-out-of-range\\\" check.\\n     *\\n     * WARNING: Only use if you are certain `pos` is lower than the array length.\\n     */\\n    function unsafeMemoryAccess(bytes[] memory arr, uint256 pos) internal pure returns (bytes memory res) {\\n        assembly {\\n            res := mload(add(add(arr, 0x20), mul(pos, 0x20)))\\n        }\\n    }\\n\\n    /**\\n     * @dev Access an array in an \\\"unsafe\\\" way. Skips solidity \\\"index-out-of-range\\\" check.\\n     *\\n     * WARNING: Only use if you are certain `pos` is lower than the array length.\\n     */\\n    function unsafeMemoryAccess(string[] memory arr, uint256 pos) internal pure returns (string memory res) {\\n        assembly {\\n            res := mload(add(add(arr, 0x20), mul(pos, 0x20)))\\n        }\\n    }\\n\\n    /**\\n     * @dev Helper to set the length of a dynamic array. Directly writing to `.length` is forbidden.\\n     *\\n     * WARNING: this does not clear elements if length is reduced, or initialize elements if length is increased.\\n     */\\n    function unsafeSetLength(address[] storage array, uint256 len) internal {\\n        assembly (\\\"memory-safe\\\") {\\n            sstore(array.slot, len)\\n        }\\n    }\\n\\n    /**\\n     * @dev Helper to set the length of a dynamic array. Directly writing to `.length` is forbidden.\\n     *\\n     * WARNING: this does not clear elements if length is reduced, or initialize elements if length is increased.\\n     */\\n    function unsafeSetLength(bytes32[] storage array, uint256 len) internal {\\n        assembly (\\\"memory-safe\\\") {\\n            sstore(array.slot, len)\\n        }\\n    }\\n\\n    /**\\n     * @dev Helper to set the length of a dynamic array. Directly writing to `.length` is forbidden.\\n     *\\n     * WARNING: this does not clear elements if length is reduced, or initialize elements if length is increased.\\n     */\\n    function unsafeSetLength(uint256[] storage array, uint256 len) internal {\\n        assembly (\\\"memory-safe\\\") {\\n            sstore(array.slot, len)\\n        }\\n    }\\n\\n    /**\\n     * @dev Helper to set the length of a dynamic array. Directly writing to `.length` is forbidden.\\n     *\\n     * WARNING: this does not clear elements if length is reduced, or initialize elements if length is increased.\\n     */\\n    function unsafeSetLength(bytes[] storage array, uint256 len) internal {\\n        assembly (\\\"memory-safe\\\") {\\n            sstore(array.slot, len)\\n        }\\n    }\\n\\n    /**\\n     * @dev Helper to set the length of a dynamic array. Directly writing to `.length` is forbidden.\\n     *\\n     * WARNING: this does not clear elements if length is reduced, or initialize elements if length is increased.\\n     */\\n    function unsafeSetLength(string[] storage array, uint256 len) internal {\\n        assembly (\\\"memory-safe\\\") {\\n            sstore(array.slot, len)\\n        }\\n    }\\n}\\n\"},\"@openzeppelin/contracts/utils/Comparators.sol\":{\"content\":\"// SPDX-License-Identifier: MIT\\n// OpenZeppelin Contracts (last updated v5.1.0) (utils/Comparators.sol)\\n\\npragma solidity ^0.8.20;\\n\\n/**\\n * @dev Provides a set of functions to compare values.\\n *\\n * _Available since v5.1._\\n */\\nlibrary Comparators {\\n    function lt(uint256 a, uint256 b) internal pure returns (bool) {\\n        return a < b;\\n    }\\n\\n    function gt(uint256 a, uint256 b) internal pure returns (bool) {\\n        return a > b;\\n    }\\n}\\n\"},\"@openzeppelin/contracts/utils/SlotDerivation.sol\":{\"content\":\"// SPDX-License-Identifier: MIT\\n// OpenZeppelin Contracts (last updated v5.5.0) (utils/SlotDerivation.sol)\\n// This file was procedurally generated from scripts/generate/templates/SlotDerivation.js.\\n\\npragma solidity ^0.8.20;\\n\\n/**\\n * @dev Library for computing storage (and transient storage) locations from namespaces and deriving slots\\n * corresponding to standard patterns. The derivation method for array and mapping matches the storage layout used by\\n * the solidity language / compiler.\\n *\\n * See https://docs.soliditylang.org/en/v0.8.20/internals/layout_in_storage.html#mappings-and-dynamic-arrays[Solidity docs for mappings and dynamic arrays.].\\n *\\n * Example usage:\\n * ```solidity\\n * contract Example {\\n *     // Add the library methods\\n *     using StorageSlot for bytes32;\\n *     using SlotDerivation for *;\\n *\\n *     // Declare a namespace\\n *     string private constant _NAMESPACE = \\\"<namespace>\\\"; // eg. OpenZeppelin.Slot\\n *\\n *     function setValueInNamespace(uint256 key, address newValue) internal {\\n *         _NAMESPACE.erc7201Slot().deriveMapping(key).getAddressSlot().value = newValue;\\n *     }\\n *\\n *     function getValueInNamespace(uint256 key) internal view returns (address) {\\n *         return _NAMESPACE.erc7201Slot().deriveMapping(key).getAddressSlot().value;\\n *     }\\n * }\\n * ```\\n *\\n * TIP: Consider using this library along with {StorageSlot}.\\n *\\n * NOTE: This library provides a way to manipulate storage locations in a non-standard way. Tooling for checking\\n * upgrade safety will ignore the slots accessed through this library.\\n *\\n * _Available since v5.1._\\n */\\nlibrary SlotDerivation {\\n    /**\\n     * @dev Derive an ERC-7201 slot from a string (namespace).\\n     */\\n    function erc7201Slot(string memory namespace) internal pure returns (bytes32 slot) {\\n        assembly (\\\"memory-safe\\\") {\\n            mstore(0x00, sub(keccak256(add(namespace, 0x20), mload(namespace)), 1))\\n            slot := and(keccak256(0x00, 0x20), not(0xff))\\n        }\\n    }\\n\\n    /**\\n     * @dev Add an offset to a slot to get the n-th element of a structure or an array.\\n     */\\n    function offset(bytes32 slot, uint256 pos) internal pure returns (bytes32 result) {\\n        unchecked {\\n            return bytes32(uint256(slot) + pos);\\n        }\\n    }\\n\\n    /**\\n     * @dev Derive the location of the first element in an array from the slot where the length is stored.\\n     */\\n    function deriveArray(bytes32 slot) internal pure returns (bytes32 result) {\\n        assembly (\\\"memory-safe\\\") {\\n            mstore(0x00, slot)\\n            result := keccak256(0x00, 0x20)\\n        }\\n    }\\n\\n    /**\\n     * @dev Derive the location of a mapping element from the key.\\n     */\\n    function deriveMapping(bytes32 slot, address key) internal pure returns (bytes32 result) {\\n        assembly (\\\"memory-safe\\\") {\\n            mstore(0x00, and(key, shr(96, not(0))))\\n            mstore(0x20, slot)\\n            result := keccak256(0x00, 0x40)\\n        }\\n    }\\n\\n    /**\\n     * @dev Derive the location of a mapping element from the key.\\n     */\\n    function deriveMapping(bytes32 slot, bool key) internal pure returns (bytes32 result) {\\n        assembly (\\\"memory-safe\\\") {\\n            mstore(0x00, iszero(iszero(key)))\\n            mstore(0x20, slot)\\n            result := keccak256(0x00, 0x40)\\n        }\\n    }\\n\\n    /**\\n     * @dev Derive the location of a mapping element from the key.\\n     */\\n    function deriveMapping(bytes32 slot, bytes32 key) internal pure returns (bytes32 result) {\\n        assembly (\\\"memory-safe\\\") {\\n            mstore(0x00, key)\\n            mstore(0x20, slot)\\n            result := keccak256(0x00, 0x40)\\n        }\\n    }\\n\\n    /**\\n     * @dev Derive the location of a mapping element from the key.\\n     */\\n    function deriveMapping(bytes32 slot, uint256 key) internal pure returns (bytes32 result) {\\n        assembly (\\\"memory-safe\\\") {\\n            mstore(0x00, key)\\n            mstore(0x20, slot)\\n            result := keccak256(0x00, 0x40)\\n        }\\n    }\\n\\n    /**\\n     * @dev Derive the location of a mapping element from the key.\\n     */\\n    function deriveMapping(bytes32 slot, int256 key) internal pure returns (bytes32 result) {\\n        assembly (\\\"memory-safe\\\") {\\n            mstore(0x00, key)\\n            mstore(0x20, slot)\\n            result := keccak256(0x00, 0x40)\\n        }\\n    }\\n\\n    /**\\n     * @dev Derive the location of a mapping element from the key.\\n     */\\n    function deriveMapping(bytes32 slot, string memory key) internal pure returns (bytes32 result) {\\n        assembly (\\\"memory-safe\\\") {\\n            let length := mload(key)\\n            let begin := add(key, 0x20)\\n            let end := add(begin, length)\\n            let cache := mload(end)\\n            mstore(end, slot)\\n            result := keccak256(begin, add(length, 0x20))\\n            mstore(end, cache)\\n        }\\n    }\\n\\n    /**\\n     * @dev Derive the location of a mapping element from the key.\\n     */\\n    function deriveMapping(bytes32 slot, bytes memory key) internal pure returns (bytes32 result) {\\n        assembly (\\\"memory-safe\\\") {\\n            let length := mload(key)\\n            let begin := add(key, 0x20)\\n            let end := add(begin, length)\\n            let cache := mload(end)\\n            mstore(end, slot)\\n            result := keccak256(begin, add(length, 0x20))\\n            mstore(end, cache)\\n        }\\n    }\\n}\\n\"},\"@openzeppelin/contracts/utils/StorageSlot.sol\":{\"content\":\"// SPDX-License-Identifier: MIT\\n// OpenZeppelin Contracts (last updated v5.1.0) (utils/StorageSlot.sol)\\n// This file was procedurally generated from scripts/generate/templates/StorageSlot.js.\\n\\npragma solidity ^0.8.20;\\n\\n/**\\n * @dev Library for reading and writing primitive types to specific storage slots.\\n *\\n * Storage slots are often used to avoid storage conflict when dealing with upgradeable contracts.\\n * This library helps with reading and writing to such slots without the need for inline assembly.\\n *\\n * The functions in this library return Slot structs that contain a `value` member that can be used to read or write.\\n *\\n * Example usage to set ERC-1967 implementation slot:\\n * ```solidity\\n * contract ERC1967 {\\n *     // Define the slot. Alternatively, use the SlotDerivation library to derive the slot.\\n *     bytes32 internal constant _IMPLEMENTATION_SLOT = 0x360894a13ba1a3210667c828492db98dca3e2076cc3735a920a3ca505d382bbc;\\n *\\n *     function _getImplementation() internal view returns (address) {\\n *         return StorageSlot.getAddressSlot(_IMPLEMENTATION_SLOT).value;\\n *     }\\n *\\n *     function _setImplementation(address newImplementation) internal {\\n *         require(newImplementation.code.length > 0);\\n *         StorageSlot.getAddressSlot(_IMPLEMENTATION_SLOT).value = newImplementation;\\n *     }\\n * }\\n * ```\\n *\\n * TIP: Consider using this library along with {SlotDerivation}.\\n */\\nlibrary StorageSlot {\\n    struct AddressSlot {\\n        address value;\\n    }\\n\\n    struct BooleanSlot {\\n        bool value;\\n    }\\n\\n    struct Bytes32Slot {\\n        bytes32 value;\\n    }\\n\\n    struct Uint256Slot {\\n        uint256 value;\\n    }\\n\\n    struct Int256Slot {\\n        int256 value;\\n    }\\n\\n    struct StringSlot {\\n        string value;\\n    }\\n\\n    struct BytesSlot {\\n        bytes value;\\n    }\\n\\n    /**\\n     * @dev Returns an `AddressSlot` with member `value` located at `slot`.\\n     */\\n    function getAddressSlot(bytes32 slot) internal pure returns (AddressSlot storage r) {\\n        assembly (\\\"memory-safe\\\") {\\n            r.slot := slot\\n        }\\n    }\\n\\n    /**\\n     * @dev Returns a `BooleanSlot` with member `value` located at `slot`.\\n     */\\n    function getBooleanSlot(bytes32 slot) internal pure returns (BooleanSlot storage r) {\\n        assembly (\\\"memory-safe\\\") {\\n            r.slot := slot\\n        }\\n    }\\n\\n    /**\\n     * @dev Returns a `Bytes32Slot` with member `value` located at `slot`.\\n     */\\n    function getBytes32Slot(bytes32 slot) internal pure returns (Bytes32Slot storage r) {\\n        assembly (\\\"memory-safe\\\") {\\n            r.slot := slot\\n        }\\n    }\\n\\n    /**\\n     * @dev Returns a `Uint256Slot` with member `value` located at `slot`.\\n     */\\n    function getUint256Slot(bytes32 slot) internal pure returns (Uint256Slot storage r) {\\n        assembly (\\\"memory-safe\\\") {\\n            r.slot := slot\\n        }\\n    }\\n\\n    /**\\n     * @dev Returns a `Int256Slot` with member `value` located at `slot`.\\n     */\\n    function getInt256Slot(bytes32 slot) internal pure returns (Int256Slot storage r) {\\n        assembly (\\\"memory-safe\\\") {\\n            r.slot := slot\\n        }\\n    }\\n\\n    /**\\n     * @dev Returns a `StringSlot` with member `value` located at `slot`.\\n     */\\n    function getStringSlot(bytes32 slot) internal pure returns (StringSlot storage r) {\\n        assembly (\\\"memory-safe\\\") {\\n            r.slot := slot\\n        }\\n    }\\n\\n    /**\\n     * @dev Returns an `StringSlot` representation of the string storage pointer `store`.\\n     */\\n    function getStringSlot(string storage store) internal pure returns (StringSlot storage r) {\\n        assembly (\\\"memory-safe\\\") {\\n            r.slot := store.slot\\n        }\\n    }\\n\\n    /**\\n     * @dev Returns a `BytesSlot` with member `value` located at `slot`.\\n     */\\n    function getBytesSlot(bytes32 slot) internal pure returns (BytesSlot storage r) {\\n        assembly (\\\"memory-safe\\\") {\\n            r.slot := slot\\n        }\\n    }\\n\\n    /**\\n     * @dev Returns an `BytesSlot` representation of the bytes storage pointer `store`.\\n     */\\n    function getBytesSlot(bytes storage store) internal pure returns (BytesSlot storage r) {\\n        assembly (\\\"memory-safe\\\") {\\n            r.slot := store.slot\\n        }\\n    }\\n}\\n\"},\"@openzeppelin/contracts/utils/math/Math.sol\":{\"content\":\"// SPDX-License-Identifier: MIT\\n// OpenZeppelin Contracts (last updated v5.6.0) (utils/math/Math.sol)\\n\\npragma solidity ^0.8.20;\\n\\nimport {Panic} from \\\"../Panic.sol\\\";\\nimport {SafeCast} from \\\"./SafeCast.sol\\\";\\n\\n/**\\n * @dev Standard math utilities missing in the Solidity language.\\n */\\nlibrary Math {\\n    enum Rounding {\\n        Floor, // Toward negative infinity\\n        Ceil, // Toward positive infinity\\n        Trunc, // Toward zero\\n        Expand // Away from zero\\n    }\\n\\n    /**\\n     * @dev Return the 512-bit addition of two uint256.\\n     *\\n     * The result is stored in two 256 variables such that sum = high * 2²⁵⁶ + low.\\n     */\\n    function add512(uint256 a, uint256 b) internal pure returns (uint256 high, uint256 low) {\\n        assembly (\\\"memory-safe\\\") {\\n            low := add(a, b)\\n            high := lt(low, a)\\n        }\\n    }\\n\\n    /**\\n     * @dev Return the 512-bit multiplication of two uint256.\\n     *\\n     * The result is stored in two 256 variables such that product = high * 2²⁵⁶ + low.\\n     */\\n    function mul512(uint256 a, uint256 b) internal pure returns (uint256 high, uint256 low) {\\n        // 512-bit multiply [high low] = x * y. Compute the product mod 2²⁵⁶ and mod 2²⁵⁶ - 1, then use\\n        // the Chinese Remainder Theorem to reconstruct the 512 bit result. The result is stored in two 256\\n        // variables such that product = high * 2²⁵⁶ + low.\\n        assembly (\\\"memory-safe\\\") {\\n            let mm := mulmod(a, b, not(0))\\n            low := mul(a, b)\\n            high := sub(sub(mm, low), lt(mm, low))\\n        }\\n    }\\n\\n    /**\\n     * @dev Returns the addition of two unsigned integers, with a success flag (no overflow).\\n     */\\n    function tryAdd(uint256 a, uint256 b) internal pure returns (bool success, uint256 result) {\\n        unchecked {\\n            uint256 c = a + b;\\n            success = c >= a;\\n            result = c * SafeCast.toUint(success);\\n        }\\n    }\\n\\n    /**\\n     * @dev Returns the subtraction of two unsigned integers, with a success flag (no overflow).\\n     */\\n    function trySub(uint256 a, uint256 b) internal pure returns (bool success, uint256 result) {\\n        unchecked {\\n            uint256 c = a - b;\\n            success = c <= a;\\n            result = c * SafeCast.toUint(success);\\n        }\\n    }\\n\\n    /**\\n     * @dev Returns the multiplication of two unsigned integers, with a success flag (no overflow).\\n     */\\n    function tryMul(uint256 a, uint256 b) internal pure returns (bool success, uint256 result) {\\n        unchecked {\\n            uint256 c = a * b;\\n            assembly (\\\"memory-safe\\\") {\\n                // Only true when the multiplication doesn't overflow\\n                // (c / a == b) || (a == 0)\\n                success := or(eq(div(c, a), b), iszero(a))\\n            }\\n            // equivalent to: success ? c : 0\\n            result = c * SafeCast.toUint(success);\\n        }\\n    }\\n\\n    /**\\n     * @dev Returns the division of two unsigned integers, with a success flag (no division by zero).\\n     */\\n    function tryDiv(uint256 a, uint256 b) internal pure returns (bool success, uint256 result) {\\n        unchecked {\\n            success = b > 0;\\n            assembly (\\\"memory-safe\\\") {\\n                // The `DIV` opcode returns zero when the denominator is 0.\\n                result := div(a, b)\\n            }\\n        }\\n    }\\n\\n    /**\\n     * @dev Returns the remainder of dividing two unsigned integers, with a success flag (no division by zero).\\n     */\\n    function tryMod(uint256 a, uint256 b) internal pure returns (bool success, uint256 result) {\\n        unchecked {\\n            success = b > 0;\\n            assembly (\\\"memory-safe\\\") {\\n                // The `MOD` opcode returns zero when the denominator is 0.\\n                result := mod(a, b)\\n            }\\n        }\\n    }\\n\\n    /**\\n     * @dev Unsigned saturating addition, bounds to `2²⁵⁶ - 1` instead of overflowing.\\n     */\\n    function saturatingAdd(uint256 a, uint256 b) internal pure returns (uint256) {\\n        (bool success, uint256 result) = tryAdd(a, b);\\n        return ternary(success, result, type(uint256).max);\\n    }\\n\\n    /**\\n     * @dev Unsigned saturating subtraction, bounds to zero instead of overflowing.\\n     */\\n    function saturatingSub(uint256 a, uint256 b) internal pure returns (uint256) {\\n        (, uint256 result) = trySub(a, b);\\n        return result;\\n    }\\n\\n    /**\\n     * @dev Unsigned saturating multiplication, bounds to `2²⁵⁶ - 1` instead of overflowing.\\n     */\\n    function saturatingMul(uint256 a, uint256 b) internal pure returns (uint256) {\\n        (bool success, uint256 result) = tryMul(a, b);\\n        return ternary(success, result, type(uint256).max);\\n    }\\n\\n    /**\\n     * @dev Branchless ternary evaluation for `condition ? a : b`. Gas costs are constant.\\n     *\\n     * IMPORTANT: This function may reduce bytecode size and consume less gas when used standalone.\\n     * However, the compiler may optimize Solidity ternary operations (i.e. `condition ? a : b`) to only compute\\n     * one branch when needed, making this function more expensive.\\n     */\\n    function ternary(bool condition, uint256 a, uint256 b) internal pure returns (uint256) {\\n        unchecked {\\n            // branchless ternary works because:\\n            // b ^ (a ^ b) == a\\n            // b ^ 0 == b\\n            return b ^ ((a ^ b) * SafeCast.toUint(condition));\\n        }\\n    }\\n\\n    /**\\n     * @dev Returns the largest of two numbers.\\n     */\\n    function max(uint256 a, uint256 b) internal pure returns (uint256) {\\n        return ternary(a > b, a, b);\\n    }\\n\\n    /**\\n     * @dev Returns the smallest of two numbers.\\n     */\\n    function min(uint256 a, uint256 b) internal pure returns (uint256) {\\n        return ternary(a < b, a, b);\\n    }\\n\\n    /**\\n     * @dev Returns the average of two numbers. The result is rounded towards\\n     * zero.\\n     */\\n    function average(uint256 a, uint256 b) internal pure returns (uint256) {\\n        unchecked {\\n            // (a + b) / 2 can overflow.\\n            return (a & b) + (a ^ b) / 2;\\n        }\\n    }\\n\\n    /**\\n     * @dev Returns the ceiling of the division of two numbers.\\n     *\\n     * This differs from standard division with `/` in that it rounds towards infinity instead\\n     * of rounding towards zero.\\n     */\\n    function ceilDiv(uint256 a, uint256 b) internal pure returns (uint256) {\\n        if (b == 0) {\\n            // Guarantee the same behavior as in a regular Solidity division.\\n            Panic.panic(Panic.DIVISION_BY_ZERO);\\n        }\\n\\n        // The following calculation ensures accurate ceiling division without overflow.\\n        // Since a is non-zero, (a - 1) / b will not overflow.\\n        // The largest possible result occurs when (a - 1) / b is type(uint256).max,\\n        // but the largest value we can obtain is type(uint256).max - 1, which happens\\n        // when a = type(uint256).max and b = 1.\\n        unchecked {\\n            return SafeCast.toUint(a > 0) * ((a - 1) / b + 1);\\n        }\\n    }\\n\\n    /**\\n     * @dev Calculates floor(x * y / denominator) with full precision. Throws if result overflows a uint256 or\\n     * denominator == 0.\\n     *\\n     * Original credit to Remco Bloemen under MIT license (https://xn--2-umb.com/21/muldiv) with further edits by\\n     * Uniswap Labs also under MIT license.\\n     */\\n    function mulDiv(uint256 x, uint256 y, uint256 denominator) internal pure returns (uint256 result) {\\n        unchecked {\\n            (uint256 high, uint256 low) = mul512(x, y);\\n\\n            // Handle non-overflow cases, 256 by 256 division.\\n            if (high == 0) {\\n                // Solidity will revert if denominator == 0, unlike the div opcode on its own.\\n                // The surrounding unchecked block does not change this fact.\\n                // See https://docs.soliditylang.org/en/latest/control-structures.html#checked-or-unchecked-arithmetic.\\n                return low / denominator;\\n            }\\n\\n            // Make sure the result is less than 2²⁵⁶. Also prevents denominator == 0.\\n            if (denominator <= high) {\\n                Panic.panic(ternary(denominator == 0, Panic.DIVISION_BY_ZERO, Panic.UNDER_OVERFLOW));\\n            }\\n\\n            ///////////////////////////////////////////////\\n            // 512 by 256 division.\\n            ///////////////////////////////////////////////\\n\\n            // Make division exact by subtracting the remainder from [high low].\\n            uint256 remainder;\\n            assembly (\\\"memory-safe\\\") {\\n                // Compute remainder using mulmod.\\n                remainder := mulmod(x, y, denominator)\\n\\n                // Subtract 256 bit number from 512 bit number.\\n                high := sub(high, gt(remainder, low))\\n                low := sub(low, remainder)\\n            }\\n\\n            // Factor powers of two out of denominator and compute largest power of two divisor of denominator.\\n            // Always >= 1. See https://cs.stackexchange.com/q/138556/92363.\\n\\n            uint256 twos = denominator & (0 - denominator);\\n            assembly (\\\"memory-safe\\\") {\\n                // Divide denominator by twos.\\n                denominator := div(denominator, twos)\\n\\n                // Divide [high low] by twos.\\n                low := div(low, twos)\\n\\n                // Flip twos such that it is 2²⁵⁶ / twos. If twos is zero, then it becomes one.\\n                twos := add(div(sub(0, twos), twos), 1)\\n            }\\n\\n            // Shift in bits from high into low.\\n            low |= high * twos;\\n\\n            // Invert denominator mod 2²⁵⁶. Now that denominator is an odd number, it has an inverse modulo 2²⁵⁶ such\\n            // that denominator * inv ≡ 1 mod 2²⁵⁶. Compute the inverse by starting with a seed that is correct for\\n            // four bits. That is, denominator * inv ≡ 1 mod 2⁴.\\n            uint256 inverse = (3 * denominator) ^ 2;\\n\\n            // Use the Newton-Raphson iteration to improve the precision. Thanks to Hensel's lifting lemma, this also\\n            // works in modular arithmetic, doubling the correct bits in each step.\\n            inverse *= 2 - denominator * inverse; // inverse mod 2⁸\\n            inverse *= 2 - denominator * inverse; // inverse mod 2¹⁶\\n            inverse *= 2 - denominator * inverse; // inverse mod 2³²\\n            inverse *= 2 - denominator * inverse; // inverse mod 2⁶⁴\\n            inverse *= 2 - denominator * inverse; // inverse mod 2¹²⁸\\n            inverse *= 2 - denominator * inverse; // inverse mod 2²⁵⁶\\n\\n            // Because the division is now exact we can divide by multiplying with the modular inverse of denominator.\\n            // This will give us the correct result modulo 2²⁵⁶. Since the preconditions guarantee that the outcome is\\n            // less than 2²⁵⁶, this is the final result. We don't need to compute the high bits of the result and high\\n            // is no longer required.\\n            result = low * inverse;\\n            return result;\\n        }\\n    }\\n\\n    /**\\n     * @dev Calculates x * y / denominator with full precision, following the selected rounding direction.\\n     */\\n    function mulDiv(uint256 x, uint256 y, uint256 denominator, Rounding rounding) internal pure returns (uint256) {\\n        return mulDiv(x, y, denominator) + SafeCast.toUint(unsignedRoundsUp(rounding) && mulmod(x, y, denominator) > 0);\\n    }\\n\\n    /**\\n     * @dev Calculates floor(x * y >> n) with full precision. Throws if result overflows a uint256.\\n     */\\n    function mulShr(uint256 x, uint256 y, uint8 n) internal pure returns (uint256 result) {\\n        unchecked {\\n            (uint256 high, uint256 low) = mul512(x, y);\\n            if (high >= 1 << n) {\\n                Panic.panic(Panic.UNDER_OVERFLOW);\\n            }\\n            return (high << (256 - n)) | (low >> n);\\n        }\\n    }\\n\\n    /**\\n     * @dev Calculates x * y >> n with full precision, following the selected rounding direction.\\n     */\\n    function mulShr(uint256 x, uint256 y, uint8 n, Rounding rounding) internal pure returns (uint256) {\\n        return mulShr(x, y, n) + SafeCast.toUint(unsignedRoundsUp(rounding) && mulmod(x, y, 1 << n) > 0);\\n    }\\n\\n    /**\\n     * @dev Calculate the modular multiplicative inverse of a number in Z/nZ.\\n     *\\n     * If n is a prime, then Z/nZ is a field. In that case all elements are inversible, except 0.\\n     * If n is not a prime, then Z/nZ is not a field, and some elements might not be inversible.\\n     *\\n     * If the input value is not inversible, 0 is returned.\\n     *\\n     * NOTE: If you know for sure that n is (big) a prime, it may be cheaper to use Fermat's little theorem and get the\\n     * inverse using `Math.modExp(a, n - 2, n)`. See {invModPrime}.\\n     */\\n    function invMod(uint256 a, uint256 n) internal pure returns (uint256) {\\n        unchecked {\\n            if (n == 0) return 0;\\n\\n            // The inverse modulo is calculated using the Extended Euclidean Algorithm (iterative version)\\n            // Used to compute integers x and y such that: ax + ny = gcd(a, n).\\n            // When the gcd is 1, then the inverse of a modulo n exists and it's x.\\n            // ax + ny = 1\\n            // ax = 1 + (-y)n\\n            // ax ≡ 1 (mod n) # x is the inverse of a modulo n\\n\\n            // If the remainder is 0 the gcd is n right away.\\n            uint256 remainder = a % n;\\n            uint256 gcd = n;\\n\\n            // Therefore the initial coefficients are:\\n            // ax + ny = gcd(a, n) = n\\n            // 0a + 1n = n\\n            int256 x = 0;\\n            int256 y = 1;\\n\\n            while (remainder != 0) {\\n                uint256 quotient = gcd / remainder;\\n\\n                (gcd, remainder) = (\\n                    // The old remainder is the next gcd to try.\\n                    remainder,\\n                    // Compute the next remainder.\\n                    // Can't overflow given that (a % gcd) * (gcd // (a % gcd)) <= gcd\\n                    // where gcd is at most n (capped to type(uint256).max)\\n                    gcd - remainder * quotient\\n                );\\n\\n                (x, y) = (\\n                    // Increment the coefficient of a.\\n                    y,\\n                    // Decrement the coefficient of n.\\n                    // Can overflow, but the result is casted to uint256 so that the\\n                    // next value of y is \\\"wrapped around\\\" to a value between 0 and n - 1.\\n                    x - y * int256(quotient)\\n                );\\n            }\\n\\n            if (gcd != 1) return 0; // No inverse exists.\\n            return ternary(x < 0, n - uint256(-x), uint256(x)); // Wrap the result if it's negative.\\n        }\\n    }\\n\\n    /**\\n     * @dev Variant of {invMod}. More efficient, but only works if `p` is known to be a prime greater than `2`.\\n     *\\n     * From https://en.wikipedia.org/wiki/Fermat%27s_little_theorem[Fermat's little theorem], we know that if p is\\n     * prime, then `a**(p-1) ≡ 1 mod p`. As a consequence, we have `a * a**(p-2) ≡ 1 mod p`, which means that\\n     * `a**(p-2)` is the modular multiplicative inverse of a in Fp.\\n     *\\n     * NOTE: this function does NOT check that `p` is a prime greater than `2`.\\n     */\\n    function invModPrime(uint256 a, uint256 p) internal view returns (uint256) {\\n        unchecked {\\n            return Math.modExp(a, p - 2, p);\\n        }\\n    }\\n\\n    /**\\n     * @dev Returns the modular exponentiation of the specified base, exponent and modulus (b ** e % m)\\n     *\\n     * Requirements:\\n     * - modulus can't be zero\\n     * - underlying staticcall to precompile must succeed\\n     *\\n     * IMPORTANT: The result is only valid if the underlying call succeeds. When using this function, make\\n     * sure the chain you're using it on supports the precompiled contract for modular exponentiation\\n     * at address 0x05 as specified in https://eips.ethereum.org/EIPS/eip-198[EIP-198]. Otherwise,\\n     * the underlying function will succeed given the lack of a revert, but the result may be incorrectly\\n     * interpreted as 0.\\n     */\\n    function modExp(uint256 b, uint256 e, uint256 m) internal view returns (uint256) {\\n        (bool success, uint256 result) = tryModExp(b, e, m);\\n        if (!success) {\\n            Panic.panic(Panic.DIVISION_BY_ZERO);\\n        }\\n        return result;\\n    }\\n\\n    /**\\n     * @dev Returns the modular exponentiation of the specified base, exponent and modulus (b ** e % m).\\n     * It includes a success flag indicating if the operation succeeded. Operation will be marked as failed if trying\\n     * to operate modulo 0 or if the underlying precompile reverted.\\n     *\\n     * IMPORTANT: The result is only valid if the success flag is true. When using this function, make sure the chain\\n     * you're using it on supports the precompiled contract for modular exponentiation at address 0x05 as specified in\\n     * https://eips.ethereum.org/EIPS/eip-198[EIP-198]. Otherwise, the underlying function will succeed given the lack\\n     * of a revert, but the result may be incorrectly interpreted as 0.\\n     */\\n    function tryModExp(uint256 b, uint256 e, uint256 m) internal view returns (bool success, uint256 result) {\\n        if (m == 0) return (false, 0);\\n        assembly (\\\"memory-safe\\\") {\\n            let ptr := mload(0x40)\\n            // | Offset    | Content    | Content (Hex)                                                      |\\n            // |-----------|------------|--------------------------------------------------------------------|\\n            // | 0x00:0x1f | size of b  | 0x0000000000000000000000000000000000000000000000000000000000000020 |\\n            // | 0x20:0x3f | size of e  | 0x0000000000000000000000000000000000000000000000000000000000000020 |\\n            // | 0x40:0x5f | size of m  | 0x0000000000000000000000000000000000000000000000000000000000000020 |\\n            // | 0x60:0x7f | value of b | 0x<.............................................................b> |\\n            // | 0x80:0x9f | value of e | 0x<.............................................................e> |\\n            // | 0xa0:0xbf | value of m | 0x<.............................................................m> |\\n            mstore(ptr, 0x20)\\n            mstore(add(ptr, 0x20), 0x20)\\n            mstore(add(ptr, 0x40), 0x20)\\n            mstore(add(ptr, 0x60), b)\\n            mstore(add(ptr, 0x80), e)\\n            mstore(add(ptr, 0xa0), m)\\n\\n            // Given the result < m, it's guaranteed to fit in 32 bytes,\\n            // so we can use the memory scratch space located at offset 0.\\n            success := staticcall(gas(), 0x05, ptr, 0xc0, 0x00, 0x20)\\n            result := mload(0x00)\\n        }\\n    }\\n\\n    /**\\n     * @dev Variant of {modExp} that supports inputs of arbitrary length.\\n     */\\n    function modExp(bytes memory b, bytes memory e, bytes memory m) internal view returns (bytes memory) {\\n        (bool success, bytes memory result) = tryModExp(b, e, m);\\n        if (!success) {\\n            Panic.panic(Panic.DIVISION_BY_ZERO);\\n        }\\n        return result;\\n    }\\n\\n    /**\\n     * @dev Variant of {tryModExp} that supports inputs of arbitrary length.\\n     */\\n    function tryModExp(\\n        bytes memory b,\\n        bytes memory e,\\n        bytes memory m\\n    ) internal view returns (bool success, bytes memory result) {\\n        if (_zeroBytes(m)) return (false, new bytes(0));\\n\\n        uint256 mLen = m.length;\\n\\n        // Encode call args in result and move the free memory pointer\\n        result = abi.encodePacked(b.length, e.length, mLen, b, e, m);\\n\\n        assembly (\\\"memory-safe\\\") {\\n            let dataPtr := add(result, 0x20)\\n            // Write result on top of args to avoid allocating extra memory.\\n            success := staticcall(gas(), 0x05, dataPtr, mload(result), dataPtr, mLen)\\n            // Overwrite the length.\\n            // result.length > returndatasize() is guaranteed because returndatasize() == m.length\\n            mstore(result, mLen)\\n            // Set the memory pointer after the returned data.\\n            mstore(0x40, add(dataPtr, mLen))\\n        }\\n    }\\n\\n    /**\\n     * @dev Returns whether the provided byte array is zero.\\n     */\\n    function _zeroBytes(bytes memory buffer) private pure returns (bool) {\\n        uint256 chunk;\\n        for (uint256 i = 0; i < buffer.length; i += 0x20) {\\n            // See _unsafeReadBytesOffset from utils/Bytes.sol\\n            assembly (\\\"memory-safe\\\") {\\n                chunk := mload(add(add(buffer, 0x20), i))\\n            }\\n            if (chunk >> (8 * saturatingSub(i + 0x20, buffer.length)) != 0) {\\n                return false;\\n            }\\n        }\\n        return true;\\n    }\\n\\n    /**\\n     * @dev Returns the square root of a number. If the number is not a perfect square, the value is rounded\\n     * towards zero.\\n     *\\n     * This method is based on Newton's method for computing square roots; the algorithm is restricted to only\\n     * using integer operations.\\n     */\\n    function sqrt(uint256 a) internal pure returns (uint256) {\\n        unchecked {\\n            // Take care of easy edge cases when a == 0 or a == 1\\n            if (a <= 1) {\\n                return a;\\n            }\\n\\n            // In this function, we use Newton's method to get a root of `f(x) := x² - a`. It involves building a\\n            // sequence x_n that converges toward sqrt(a). For each iteration x_n, we also define the error between\\n            // the current value as `ε_n = | x_n - sqrt(a) |`.\\n            //\\n            // For our first estimation, we consider `e` the smallest power of 2 which is bigger than the square root\\n            // of the target. (i.e. `2**(e-1) ≤ sqrt(a) < 2**e`). We know that `e ≤ 128` because `(2¹²⁸)² = 2²⁵⁶` is\\n            // bigger than any uint256.\\n            //\\n            // By noticing that\\n            // `2**(e-1) ≤ sqrt(a) < 2**e → (2**(e-1))² ≤ a < (2**e)² → 2**(2*e-2) ≤ a < 2**(2*e)`\\n            // we can deduce that `e - 1` is `log2(a) / 2`. We can thus compute `x_n = 2**(e-1)` using a method similar\\n            // to the msb function.\\n            uint256 aa = a;\\n            uint256 xn = 1;\\n\\n            if (aa >= (1 << 128)) {\\n                aa >>= 128;\\n                xn <<= 64;\\n            }\\n            if (aa >= (1 << 64)) {\\n                aa >>= 64;\\n                xn <<= 32;\\n            }\\n            if (aa >= (1 << 32)) {\\n                aa >>= 32;\\n                xn <<= 16;\\n            }\\n            if (aa >= (1 << 16)) {\\n                aa >>= 16;\\n                xn <<= 8;\\n            }\\n            if (aa >= (1 << 8)) {\\n                aa >>= 8;\\n                xn <<= 4;\\n            }\\n            if (aa >= (1 << 4)) {\\n                aa >>= 4;\\n                xn <<= 2;\\n            }\\n            if (aa >= (1 << 2)) {\\n                xn <<= 1;\\n            }\\n\\n            // We now have x_n such that `x_n = 2**(e-1) ≤ sqrt(a) < 2**e = 2 * x_n`. This implies ε_n ≤ 2**(e-1).\\n            //\\n            // We can refine our estimation by noticing that the middle of that interval minimizes the error.\\n            // If we move x_n to equal 2**(e-1) + 2**(e-2), then we reduce the error to ε_n ≤ 2**(e-2).\\n            // This is going to be our x_0 (and ε_0)\\n            xn = (3 * xn) >> 1; // ε_0 := | x_0 - sqrt(a) | ≤ 2**(e-2)\\n\\n            // From here, Newton's method give us:\\n            // x_{n+1} = (x_n + a / x_n) / 2\\n            //\\n            // One should note that:\\n            // x_{n+1}² - a = ((x_n + a / x_n) / 2)² - a\\n            //              = ((x_n² + a) / (2 * x_n))² - a\\n            //              = (x_n⁴ + 2 * a * x_n² + a²) / (4 * x_n²) - a\\n            //              = (x_n⁴ + 2 * a * x_n² + a² - 4 * a * x_n²) / (4 * x_n²)\\n            //              = (x_n⁴ - 2 * a * x_n² + a²) / (4 * x_n²)\\n            //              = (x_n² - a)² / (2 * x_n)²\\n            //              = ((x_n² - a) / (2 * x_n))²\\n            //              ≥ 0\\n            // Which proves that for all n ≥ 1, sqrt(a) ≤ x_n\\n            //\\n            // This gives us the proof of quadratic convergence of the sequence:\\n            // ε_{n+1} = | x_{n+1} - sqrt(a) |\\n            //         = | (x_n + a / x_n) / 2 - sqrt(a) |\\n            //         = | (x_n² + a - 2*x_n*sqrt(a)) / (2 * x_n) |\\n            //         = | (x_n - sqrt(a))² / (2 * x_n) |\\n            //         = | ε_n² / (2 * x_n) |\\n            //         = ε_n² / | (2 * x_n) |\\n            //\\n            // For the first iteration, we have a special case where x_0 is known:\\n            // ε_1 = ε_0² / | (2 * x_0) |\\n            //     ≤ (2**(e-2))² / (2 * (2**(e-1) + 2**(e-2)))\\n            //     ≤ 2**(2*e-4) / (3 * 2**(e-1))\\n            //     ≤ 2**(e-3) / 3\\n            //     ≤ 2**(e-3-log2(3))\\n            //     ≤ 2**(e-4.5)\\n            //\\n            // For the following iterations, we use the fact that, 2**(e-1) ≤ sqrt(a) ≤ x_n:\\n            // ε_{n+1} = ε_n² / | (2 * x_n) |\\n            //         ≤ (2**(e-k))² / (2 * 2**(e-1))\\n            //         ≤ 2**(2*e-2*k) / 2**e\\n            //         ≤ 2**(e-2*k)\\n            xn = (xn + a / xn) >> 1; // ε_1 := | x_1 - sqrt(a) | ≤ 2**(e-4.5)  -- special case, see above\\n            xn = (xn + a / xn) >> 1; // ε_2 := | x_2 - sqrt(a) | ≤ 2**(e-9)    -- general case with k = 4.5\\n            xn = (xn + a / xn) >> 1; // ε_3 := | x_3 - sqrt(a) | ≤ 2**(e-18)   -- general case with k = 9\\n            xn = (xn + a / xn) >> 1; // ε_4 := | x_4 - sqrt(a) | ≤ 2**(e-36)   -- general case with k = 18\\n            xn = (xn + a / xn) >> 1; // ε_5 := | x_5 - sqrt(a) | ≤ 2**(e-72)   -- general case with k = 36\\n            xn = (xn + a / xn) >> 1; // ε_6 := | x_6 - sqrt(a) | ≤ 2**(e-144)  -- general case with k = 72\\n\\n            // Because e ≤ 128 (as discussed during the first estimation phase), we know have reached a precision\\n            // ε_6 ≤ 2**(e-144) < 1. Given we're operating on integers, then we can ensure that xn is now either\\n            // sqrt(a) or sqrt(a) + 1.\\n            return xn - SafeCast.toUint(xn > a / xn);\\n        }\\n    }\\n\\n    /**\\n     * @dev Calculates sqrt(a), following the selected rounding direction.\\n     */\\n    function sqrt(uint256 a, Rounding rounding) internal pure returns (uint256) {\\n        unchecked {\\n            uint256 result = sqrt(a);\\n            return result + SafeCast.toUint(unsignedRoundsUp(rounding) && result * result < a);\\n        }\\n    }\\n\\n    /**\\n     * @dev Return the log in base 2 of a positive value rounded towards zero.\\n     * Returns 0 if given 0.\\n     */\\n    function log2(uint256 x) internal pure returns (uint256 r) {\\n        // If value has upper 128 bits set, log2 result is at least 128\\n        r = SafeCast.toUint(x > 0xffffffffffffffffffffffffffffffff) << 7;\\n        // If upper 64 bits of 128-bit half set, add 64 to result\\n        r |= SafeCast.toUint((x >> r) > 0xffffffffffffffff) << 6;\\n        // If upper 32 bits of 64-bit half set, add 32 to result\\n        r |= SafeCast.toUint((x >> r) > 0xffffffff) << 5;\\n        // If upper 16 bits of 32-bit half set, add 16 to result\\n        r |= SafeCast.toUint((x >> r) > 0xffff) << 4;\\n        // If upper 8 bits of 16-bit half set, add 8 to result\\n        r |= SafeCast.toUint((x >> r) > 0xff) << 3;\\n        // If upper 4 bits of 8-bit half set, add 4 to result\\n        r |= SafeCast.toUint((x >> r) > 0xf) << 2;\\n\\n        // Shifts value right by the current result and use it as an index into this lookup table:\\n        //\\n        // | x (4 bits) |  index  | table[index] = MSB position |\\n        // |------------|---------|-----------------------------|\\n        // |    0000    |    0    |        table[0] = 0         |\\n        // |    0001    |    1    |        table[1] = 0         |\\n        // |    0010    |    2    |        table[2] = 1         |\\n        // |    0011    |    3    |        table[3] = 1         |\\n        // |    0100    |    4    |        table[4] = 2         |\\n        // |    0101    |    5    |        table[5] = 2         |\\n        // |    0110    |    6    |        table[6] = 2         |\\n        // |    0111    |    7    |        table[7] = 2         |\\n        // |    1000    |    8    |        table[8] = 3         |\\n        // |    1001    |    9    |        table[9] = 3         |\\n        // |    1010    |   10    |        table[10] = 3        |\\n        // |    1011    |   11    |        table[11] = 3        |\\n        // |    1100    |   12    |        table[12] = 3        |\\n        // |    1101    |   13    |        table[13] = 3        |\\n        // |    1110    |   14    |        table[14] = 3        |\\n        // |    1111    |   15    |        table[15] = 3        |\\n        //\\n        // The lookup table is represented as a 32-byte value with the MSB positions for 0-15 in the first 16 bytes (most significant half).\\n        assembly (\\\"memory-safe\\\") {\\n            r := or(r, byte(shr(r, x), 0x0000010102020202030303030303030300000000000000000000000000000000))\\n        }\\n    }\\n\\n    /**\\n     * @dev Return the log in base 2, following the selected rounding direction, of a positive value.\\n     * Returns 0 if given 0.\\n     */\\n    function log2(uint256 value, Rounding rounding) internal pure returns (uint256) {\\n        unchecked {\\n            uint256 result = log2(value);\\n            return result + SafeCast.toUint(unsignedRoundsUp(rounding) && 1 << result < value);\\n        }\\n    }\\n\\n    /**\\n     * @dev Return the log in base 10 of a positive value rounded towards zero.\\n     * Returns 0 if given 0.\\n     */\\n    function log10(uint256 value) internal pure returns (uint256) {\\n        uint256 result = 0;\\n        unchecked {\\n            if (value >= 10 ** 64) {\\n                value /= 10 ** 64;\\n                result += 64;\\n            }\\n            if (value >= 10 ** 32) {\\n                value /= 10 ** 32;\\n                result += 32;\\n            }\\n            if (value >= 10 ** 16) {\\n                value /= 10 ** 16;\\n                result += 16;\\n            }\\n            if (value >= 10 ** 8) {\\n                value /= 10 ** 8;\\n                result += 8;\\n            }\\n            if (value >= 10 ** 4) {\\n                value /= 10 ** 4;\\n                result += 4;\\n            }\\n            if (value >= 10 ** 2) {\\n                value /= 10 ** 2;\\n                result += 2;\\n            }\\n            if (value >= 10 ** 1) {\\n                result += 1;\\n            }\\n        }\\n        return result;\\n    }\\n\\n    /**\\n     * @dev Return the log in base 10, following the selected rounding direction, of a positive value.\\n     * Returns 0 if given 0.\\n     */\\n    function log10(uint256 value, Rounding rounding) internal pure returns (uint256) {\\n        unchecked {\\n            uint256 result = log10(value);\\n            return result + SafeCast.toUint(unsignedRoundsUp(rounding) && 10 ** result < value);\\n        }\\n    }\\n\\n    /**\\n     * @dev Return the log in base 256 of a positive value rounded towards zero.\\n     * Returns 0 if given 0.\\n     *\\n     * Adding one to the result gives the number of pairs of hex symbols needed to represent `value` as a hex string.\\n     */\\n    function log256(uint256 x) internal pure returns (uint256 r) {\\n        // If value has upper 128 bits set, log2 result is at least 128\\n        r = SafeCast.toUint(x > 0xffffffffffffffffffffffffffffffff) << 7;\\n        // If upper 64 bits of 128-bit half set, add 64 to result\\n        r |= SafeCast.toUint((x >> r) > 0xffffffffffffffff) << 6;\\n        // If upper 32 bits of 64-bit half set, add 32 to result\\n        r |= SafeCast.toUint((x >> r) > 0xffffffff) << 5;\\n        // If upper 16 bits of 32-bit half set, add 16 to result\\n        r |= SafeCast.toUint((x >> r) > 0xffff) << 4;\\n        // Add 1 if upper 8 bits of 16-bit half set, and divide accumulated result by 8\\n        return (r >> 3) | SafeCast.toUint((x >> r) > 0xff);\\n    }\\n\\n    /**\\n     * @dev Return the log in base 256, following the selected rounding direction, of a positive value.\\n     * Returns 0 if given 0.\\n     */\\n    function log256(uint256 value, Rounding rounding) internal pure returns (uint256) {\\n        unchecked {\\n            uint256 result = log256(value);\\n            return result + SafeCast.toUint(unsignedRoundsUp(rounding) && 1 << (result << 3) < value);\\n        }\\n    }\\n\\n    /**\\n     * @dev Returns whether a provided rounding mode is considered rounding up for unsigned integers.\\n     */\\n    function unsignedRoundsUp(Rounding rounding) internal pure returns (bool) {\\n        return uint8(rounding) % 2 == 1;\\n    }\\n\\n    /**\\n     * @dev Counts the number of leading zero bits in a uint256.\\n     */\\n    function clz(uint256 x) internal pure returns (uint256) {\\n        return ternary(x == 0, 256, 255 - log2(x));\\n    }\\n}\\n\"},\"@openzeppelin/contracts/utils/Panic.sol\":{\"content\":\"// SPDX-License-Identifier: MIT\\n// OpenZeppelin Contracts (last updated v5.1.0) (utils/Panic.sol)\\n\\npragma solidity ^0.8.20;\\n\\n/**\\n * @dev Helper library for emitting standardized panic codes.\\n *\\n * ```solidity\\n * contract Example {\\n *      using Panic for uint256;\\n *\\n *      // Use any of the declared internal constants\\n *      function foo() { Panic.GENERIC.panic(); }\\n *\\n *      // Alternatively\\n *      function foo() { Panic.panic(Panic.GENERIC); }\\n * }\\n * ```\\n *\\n * Follows the list from https://github.com/ethereum/solidity/blob/v0.8.24/libsolutil/ErrorCodes.h[libsolutil].\\n *\\n * _Available since v5.1._\\n */\\n// slither-disable-next-line unused-state\\nlibrary Panic {\\n    /// @dev generic / unspecified error\\n    uint256 internal constant GENERIC = 0x00;\\n    /// @dev used by the assert() builtin\\n    uint256 internal constant ASSERT = 0x01;\\n    /// @dev arithmetic underflow or overflow\\n    uint256 internal constant UNDER_OVERFLOW = 0x11;\\n    /// @dev division or modulo by zero\\n    uint256 internal constant DIVISION_BY_ZERO = 0x12;\\n    /// @dev enum conversion error\\n    uint256 internal constant ENUM_CONVERSION_ERROR = 0x21;\\n    /// @dev invalid encoding in storage\\n    uint256 internal constant STORAGE_ENCODING_ERROR = 0x22;\\n    /// @dev empty array pop\\n    uint256 internal constant EMPTY_ARRAY_POP = 0x31;\\n    /// @dev array out of bounds access\\n    uint256 internal constant ARRAY_OUT_OF_BOUNDS = 0x32;\\n    /// @dev resource error (too large allocation or too large array)\\n    uint256 internal constant RESOURCE_ERROR = 0x41;\\n    /// @dev calling invalid internal function\\n    uint256 internal constant INVALID_INTERNAL_FUNCTION = 0x51;\\n\\n    /// @dev Reverts with a panic code. Recommended to use with\\n    /// the internal constants with predefined codes.\\n    function panic(uint256 code) internal pure {\\n        assembly (\\\"memory-safe\\\") {\\n            mstore(0x00, 0x4e487b71)\\n            mstore(0x20, code)\\n            revert(0x1c, 0x24)\\n        }\\n    }\\n}\\n\"},\"@openzeppelin/contracts/utils/math/SafeCast.sol\":{\"content\":\"// SPDX-License-Identifier: MIT\\n// OpenZeppelin Contracts (last updated v5.6.0) (utils/math/SafeCast.sol)\\n// This file was procedurally generated from scripts/generate/templates/SafeCast.js.\\n\\npragma solidity ^0.8.20;\\n\\n/**\\n * @dev Wrappers over Solidity's uintXX/intXX/bool casting operators with added overflow\\n * checks.\\n *\\n * Downcasting from uint256/int256 in Solidity does not revert on overflow. This can\\n * easily result in undesired exploitation or bugs, since developers usually\\n * assume that overflows raise errors. `SafeCast` restores this intuition by\\n * reverting the transaction when such an operation overflows.\\n *\\n * Using this library instead of the unchecked operations eliminates an entire\\n * class of bugs, so it's recommended to use it always.\\n */\\nlibrary SafeCast {\\n    /**\\n     * @dev Value doesn't fit in a uint of `bits` size.\\n     */\\n    error SafeCastOverflowedUintDowncast(uint8 bits, uint256 value);\\n\\n    /**\\n     * @dev An int value doesn't fit in a uint of `bits` size.\\n     */\\n    error SafeCastOverflowedIntToUint(int256 value);\\n\\n    /**\\n     * @dev Value doesn't fit in an int of `bits` size.\\n     */\\n    error SafeCastOverflowedIntDowncast(uint8 bits, int256 value);\\n\\n    /**\\n     * @dev A uint value doesn't fit in an int of `bits` size.\\n     */\\n    error SafeCastOverflowedUintToInt(uint256 value);\\n\\n    /**\\n     * @dev Returns the downcasted uint248 from uint256, reverting on\\n     * overflow (when the input is greater than largest uint248).\\n     *\\n     * Counterpart to Solidity's `uint248` operator.\\n     *\\n     * Requirements:\\n     *\\n     * - input must fit into 248 bits\\n     */\\n    function toUint248(uint256 value) internal pure returns (uint248) {\\n        if (value > type(uint248).max) {\\n            revert SafeCastOverflowedUintDowncast(248, value);\\n        }\\n        return uint248(value);\\n    }\\n\\n    /**\\n     * @dev Returns the downcasted uint240 from uint256, reverting on\\n     * overflow (when the input is greater than largest uint240).\\n     *\\n     * Counterpart to Solidity's `uint240` operator.\\n     *\\n     * Requirements:\\n     *\\n     * - input must fit into 240 bits\\n     */\\n    function toUint240(uint256 value) internal pure returns (uint240) {\\n        if (value > type(uint240).max) {\\n            revert SafeCastOverflowedUintDowncast(240, value);\\n        }\\n        return uint240(value);\\n    }\\n\\n    /**\\n     * @dev Returns the downcasted uint232 from uint256, reverting on\\n     * overflow (when the input is greater than largest uint232).\\n     *\\n     * Counterpart to Solidity's `uint232` operator.\\n     *\\n     * Requirements:\\n     *\\n     * - input must fit into 232 bits\\n     */\\n    function toUint232(uint256 value) internal pure returns (uint232) {\\n        if (value > type(uint232).max) {\\n            revert SafeCastOverflowedUintDowncast(232, value);\\n        }\\n        return uint232(value);\\n    }\\n\\n    /**\\n     * @dev Returns the downcasted uint224 from uint256, reverting on\\n     * overflow (when the input is greater than largest uint224).\\n     *\\n     * Counterpart to Solidity's `uint224` operator.\\n     *\\n     * Requirements:\\n     *\\n     * - input must fit into 224 bits\\n     */\\n    function toUint224(uint256 value) internal pure returns (uint224) {\\n        if (value > type(uint224).max) {\\n            revert SafeCastOverflowedUintDowncast(224, value);\\n        }\\n        return uint224(value);\\n    }\\n\\n    /**\\n     * @dev Returns the downcasted uint216 from uint256, reverting on\\n     * overflow (when the input is greater than largest uint216).\\n     *\\n     * Counterpart to Solidity's `uint216` operator.\\n     *\\n     * Requirements:\\n     *\\n     * - input must fit into 216 bits\\n     */\\n    function toUint216(uint256 value) internal pure returns (uint216) {\\n        if (value > type(uint216).max) {\\n            revert SafeCastOverflowedUintDowncast(216, value);\\n        }\\n        return uint216(value);\\n    }\\n\\n    /**\\n     * @dev Returns the downcasted uint208 from uint256, reverting on\\n     * overflow (when the input is greater than largest uint208).\\n     *\\n     * Counterpart to Solidity's `uint208` operator.\\n     *\\n     * Requirements:\\n     *\\n     * - input must fit into 208 bits\\n     */\\n    function toUint208(uint256 value) internal pure returns (uint208) {\\n        if (value > type(uint208).max) {\\n            revert SafeCastOverflowedUintDowncast(208, value);\\n        }\\n        return uint208(value);\\n    }\\n\\n    /**\\n     * @dev Returns the downcasted uint200 from uint256, reverting on\\n     * overflow (when the input is greater than largest uint200).\\n     *\\n     * Counterpart to Solidity's `uint200` operator.\\n     *\\n     * Requirements:\\n     *\\n     * - input must fit into 200 bits\\n     */\\n    function toUint200(uint256 value) internal pure returns (uint200) {\\n        if (value > type(uint200).max) {\\n            revert SafeCastOverflowedUintDowncast(200, value);\\n        }\\n        return uint200(value);\\n    }\\n\\n    /**\\n     * @dev Returns the downcasted uint192 from uint256, reverting on\\n     * overflow (when the input is greater than largest uint192).\\n     *\\n     * Counterpart to Solidity's `uint192` operator.\\n     *\\n     * Requirements:\\n     *\\n     * - input must fit into 192 bits\\n     */\\n    function toUint192(uint256 value) internal pure returns (uint192) {\\n        if (value > type(uint192).max) {\\n            revert SafeCastOverflowedUintDowncast(192, value);\\n        }\\n        return uint192(value);\\n    }\\n\\n    /**\\n     * @dev Returns the downcasted uint184 from uint256, reverting on\\n     * overflow (when the input is greater than largest uint184).\\n     *\\n     * Counterpart to Solidity's `uint184` operator.\\n     *\\n     * Requirements:\\n     *\\n     * - input must fit into 184 bits\\n     */\\n    function toUint184(uint256 value) internal pure returns (uint184) {\\n        if (value > type(uint184).max) {\\n            revert SafeCastOverflowedUintDowncast(184, value);\\n        }\\n        return uint184(value);\\n    }\\n\\n    /**\\n     * @dev Returns the downcasted uint176 from uint256, reverting on\\n     * overflow (when the input is greater than largest uint176).\\n     *\\n     * Counterpart to Solidity's `uint176` operator.\\n     *\\n     * Requirements:\\n     *\\n     * - input must fit into 176 bits\\n     */\\n    function toUint176(uint256 value) internal pure returns (uint176) {\\n        if (value > type(uint176).max) {\\n            revert SafeCastOverflowedUintDowncast(176, value);\\n        }\\n        return uint176(value);\\n    }\\n\\n    /**\\n     * @dev Returns the downcasted uint168 from uint256, reverting on\\n     * overflow (when the input is greater than largest uint168).\\n     *\\n     * Counterpart to Solidity's `uint168` operator.\\n     *\\n     * Requirements:\\n     *\\n     * - input must fit into 168 bits\\n     */\\n    function toUint168(uint256 value) internal pure returns (uint168) {\\n        if (value > type(uint168).max) {\\n            revert SafeCastOverflowedUintDowncast(168, value);\\n        }\\n        return uint168(value);\\n    }\\n\\n    /**\\n     * @dev Returns the downcasted uint160 from uint256, reverting on\\n     * overflow (when the input is greater than largest uint160).\\n     *\\n     * Counterpart to Solidity's `uint160` operator.\\n     *\\n     * Requirements:\\n     *\\n     * - input must fit into 160 bits\\n     */\\n    function toUint160(uint256 value) internal pure returns (uint160) {\\n        if (value > type(uint160).max) {\\n            revert SafeCastOverflowedUintDowncast(160, value);\\n        }\\n        return uint160(value);\\n    }\\n\\n    /**\\n     * @dev Returns the downcasted uint152 from uint256, reverting on\\n     * overflow (when the input is greater than largest uint152).\\n     *\\n     * Counterpart to Solidity's `uint152` operator.\\n     *\\n     * Requirements:\\n     *\\n     * - input must fit into 152 bits\\n     */\\n    function toUint152(uint256 value) internal pure returns (uint152) {\\n        if (value > type(uint152).max) {\\n            revert SafeCastOverflowedUintDowncast(152, value);\\n        }\\n        return uint152(value);\\n    }\\n\\n    /**\\n     * @dev Returns the downcasted uint144 from uint256, reverting on\\n     * overflow (when the input is greater than largest uint144).\\n     *\\n     * Counterpart to Solidity's `uint144` operator.\\n     *\\n     * Requirements:\\n     *\\n     * - input must fit into 144 bits\\n     */\\n    function toUint144(uint256 value) internal pure returns (uint144) {\\n        if (value > type(uint144).max) {\\n            revert SafeCastOverflowedUintDowncast(144, value);\\n        }\\n        return uint144(value);\\n    }\\n\\n    /**\\n     * @dev Returns the downcasted uint136 from uint256, reverting on\\n     * overflow (when the input is greater than largest uint136).\\n     *\\n     * Counterpart to Solidity's `uint136` operator.\\n     *\\n     * Requirements:\\n     *\\n     * - input must fit into 136 bits\\n     */\\n    function toUint136(uint256 value) internal pure returns (uint136) {\\n        if (value > type(uint136).max) {\\n            revert SafeCastOverflowedUintDowncast(136, value);\\n        }\\n        return uint136(value);\\n    }\\n\\n    /**\\n     * @dev Returns the downcasted uint128 from uint256, reverting on\\n     * overflow (when the input is greater than largest uint128).\\n     *\\n     * Counterpart to Solidity's `uint128` operator.\\n     *\\n     * Requirements:\\n     *\\n     * - input must fit into 128 bits\\n     */\\n    function toUint128(uint256 value) internal pure returns (uint128) {\\n        if (value > type(uint128).max) {\\n            revert SafeCastOverflowedUintDowncast(128, value);\\n        }\\n        return uint128(value);\\n    }\\n\\n    /**\\n     * @dev Returns the downcasted uint120 from uint256, reverting on\\n     * overflow (when the input is greater than largest uint120).\\n     *\\n     * Counterpart to Solidity's `uint120` operator.\\n     *\\n     * Requirements:\\n     *\\n     * - input must fit into 120 bits\\n     */\\n    function toUint120(uint256 value) internal pure returns (uint120) {\\n        if (value > type(uint120).max) {\\n            revert SafeCastOverflowedUintDowncast(120, value);\\n        }\\n        return uint120(value);\\n    }\\n\\n    /**\\n     * @dev Returns the downcasted uint112 from uint256, reverting on\\n     * overflow (when the input is greater than largest uint112).\\n     *\\n     * Counterpart to Solidity's `uint112` operator.\\n     *\\n     * Requirements:\\n     *\\n     * - input must fit into 112 bits\\n     */\\n    function toUint112(uint256 value) internal pure returns (uint112) {\\n        if (value > type(uint112).max) {\\n            revert SafeCastOverflowedUintDowncast(112, value);\\n        }\\n        return uint112(value);\\n    }\\n\\n    /**\\n     * @dev Returns the downcasted uint104 from uint256, reverting on\\n     * overflow (when the input is greater than largest uint104).\\n     *\\n     * Counterpart to Solidity's `uint104` operator.\\n     *\\n     * Requirements:\\n     *\\n     * - input must fit into 104 bits\\n     */\\n    function toUint104(uint256 value) internal pure returns (uint104) {\\n        if (value > type(uint104).max) {\\n            revert SafeCastOverflowedUintDowncast(104, value);\\n        }\\n        return uint104(value);\\n    }\\n\\n    /**\\n     * @dev Returns the downcasted uint96 from uint256, reverting on\\n     * overflow (when the input is greater than largest uint96).\\n     *\\n     * Counterpart to Solidity's `uint96` operator.\\n     *\\n     * Requirements:\\n     *\\n     * - input must fit into 96 bits\\n     */\\n    function toUint96(uint256 value) internal pure returns (uint96) {\\n        if (value > type(uint96).max) {\\n            revert SafeCastOverflowedUintDowncast(96, value);\\n        }\\n        return uint96(value);\\n    }\\n\\n    /**\\n     * @dev Returns the downcasted uint88 from uint256, reverting on\\n     * overflow (when the input is greater than largest uint88).\\n     *\\n     * Counterpart to Solidity's `uint88` operator.\\n     *\\n     * Requirements:\\n     *\\n     * - input must fit into 88 bits\\n     */\\n    function toUint88(uint256 value) internal pure returns (uint88) {\\n        if (value > type(uint88).max) {\\n            revert SafeCastOverflowedUintDowncast(88, value);\\n        }\\n        return uint88(value);\\n    }\\n\\n    /**\\n     * @dev Returns the downcasted uint80 from uint256, reverting on\\n     * overflow (when the input is greater than largest uint80).\\n     *\\n     * Counterpart to Solidity's `uint80` operator.\\n     *\\n     * Requirements:\\n     *\\n     * - input must fit into 80 bits\\n     */\\n    function toUint80(uint256 value) internal pure returns (uint80) {\\n        if (value > type(uint80).max) {\\n            revert SafeCastOverflowedUintDowncast(80, value);\\n        }\\n        return uint80(value);\\n    }\\n\\n    /**\\n     * @dev Returns the downcasted uint72 from uint256, reverting on\\n     * overflow (when the input is greater than largest uint72).\\n     *\\n     * Counterpart to Solidity's `uint72` operator.\\n     *\\n     * Requirements:\\n     *\\n     * - input must fit into 72 bits\\n     */\\n    function toUint72(uint256 value) internal pure returns (uint72) {\\n        if (value > type(uint72).max) {\\n            revert SafeCastOverflowedUintDowncast(72, value);\\n        }\\n        return uint72(value);\\n    }\\n\\n    /**\\n     * @dev Returns the downcasted uint64 from uint256, reverting on\\n     * overflow (when the input is greater than largest uint64).\\n     *\\n     * Counterpart to Solidity's `uint64` operator.\\n     *\\n     * Requirements:\\n     *\\n     * - input must fit into 64 bits\\n     */\\n    function toUint64(uint256 value) internal pure returns (uint64) {\\n        if (value > type(uint64).max) {\\n            revert SafeCastOverflowedUintDowncast(64, value);\\n        }\\n        return uint64(value);\\n    }\\n\\n    /**\\n     * @dev Returns the downcasted uint56 from uint256, reverting on\\n     * overflow (when the input is greater than largest uint56).\\n     *\\n     * Counterpart to Solidity's `uint56` operator.\\n     *\\n     * Requirements:\\n     *\\n     * - input must fit into 56 bits\\n     */\\n    function toUint56(uint256 value) internal pure returns (uint56) {\\n        if (value > type(uint56).max) {\\n            revert SafeCastOverflowedUintDowncast(56, value);\\n        }\\n        return uint56(value);\\n    }\\n\\n    /**\\n     * @dev Returns the downcasted uint48 from uint256, reverting on\\n     * overflow (when the input is greater than largest uint48).\\n     *\\n     * Counterpart to Solidity's `uint48` operator.\\n     *\\n     * Requirements:\\n     *\\n     * - input must fit into 48 bits\\n     */\\n    function toUint48(uint256 value) internal pure returns (uint48) {\\n        if (value > type(uint48).max) {\\n            revert SafeCastOverflowedUintDowncast(48, value);\\n        }\\n        return uint48(value);\\n    }\\n\\n    /**\\n     * @dev Returns the downcasted uint40 from uint256, reverting on\\n     * overflow (when the input is greater than largest uint40).\\n     *\\n     * Counterpart to Solidity's `uint40` operator.\\n     *\\n     * Requirements:\\n     *\\n     * - input must fit into 40 bits\\n     */\\n    function toUint40(uint256 value) internal pure returns (uint40) {\\n        if (value > type(uint40).max) {\\n            revert SafeCastOverflowedUintDowncast(40, value);\\n        }\\n        return uint40(value);\\n    }\\n\\n    /**\\n     * @dev Returns the downcasted uint32 from uint256, reverting on\\n     * overflow (when the input is greater than largest uint32).\\n     *\\n     * Counterpart to Solidity's `uint32` operator.\\n     *\\n     * Requirements:\\n     *\\n     * - input must fit into 32 bits\\n     */\\n    function toUint32(uint256 value) internal pure returns (uint32) {\\n        if (value > type(uint32).max) {\\n            revert SafeCastOverflowedUintDowncast(32, value);\\n        }\\n        return uint32(value);\\n    }\\n\\n    /**\\n     * @dev Returns the downcasted uint24 from uint256, reverting on\\n     * overflow (when the input is greater than largest uint24).\\n     *\\n     * Counterpart to Solidity's `uint24` operator.\\n     *\\n     * Requirements:\\n     *\\n     * - input must fit into 24 bits\\n     */\\n    function toUint24(uint256 value) internal pure returns (uint24) {\\n        if (value > type(uint24).max) {\\n            revert SafeCastOverflowedUintDowncast(24, value);\\n        }\\n        return uint24(value);\\n    }\\n\\n    /**\\n     * @dev Returns the downcasted uint16 from uint256, reverting on\\n     * overflow (when the input is greater than largest uint16).\\n     *\\n     * Counterpart to Solidity's `uint16` operator.\\n     *\\n     * Requirements:\\n     *\\n     * - input must fit into 16 bits\\n     */\\n    function toUint16(uint256 value) internal pure returns (uint16) {\\n        if (value > type(uint16).max) {\\n            revert SafeCastOverflowedUintDowncast(16, value);\\n        }\\n        return uint16(value);\\n    }\\n\\n    /**\\n     * @dev Returns the downcasted uint8 from uint256, reverting on\\n     * overflow (when the input is greater than largest uint8).\\n     *\\n     * Counterpart to Solidity's `uint8` operator.\\n     *\\n     * Requirements:\\n     *\\n     * - input must fit into 8 bits\\n     */\\n    function toUint8(uint256 value) internal pure returns (uint8) {\\n        if (value > type(uint8).max) {\\n            revert SafeCastOverflowedUintDowncast(8, value);\\n        }\\n        return uint8(value);\\n    }\\n\\n    /**\\n     * @dev Converts a signed int256 into an unsigned uint256.\\n     *\\n     * Requirements:\\n     *\\n     * - input must be greater than or equal to 0.\\n     */\\n    function toUint256(int256 value) internal pure returns (uint256) {\\n        if (value < 0) {\\n            revert SafeCastOverflowedIntToUint(value);\\n        }\\n        return uint256(value);\\n    }\\n\\n    /**\\n     * @dev Returns the downcasted int248 from int256, reverting on\\n     * overflow (when the input is less than smallest int248 or\\n     * greater than largest int248).\\n     *\\n     * Counterpart to Solidity's `int248` operator.\\n     *\\n     * Requirements:\\n     *\\n     * - input must fit into 248 bits\\n     */\\n    function toInt248(int256 value) internal pure returns (int248 downcasted) {\\n        downcasted = int248(value);\\n        if (downcasted != value) {\\n            revert SafeCastOverflowedIntDowncast(248, value);\\n        }\\n    }\\n\\n    /**\\n     * @dev Returns the downcasted int240 from int256, reverting on\\n     * overflow (when the input is less than smallest int240 or\\n     * greater than largest int240).\\n     *\\n     * Counterpart to Solidity's `int240` operator.\\n     *\\n     * Requirements:\\n     *\\n     * - input must fit into 240 bits\\n     */\\n    function toInt240(int256 value) internal pure returns (int240 downcasted) {\\n        downcasted = int240(value);\\n        if (downcasted != value) {\\n            revert SafeCastOverflowedIntDowncast(240, value);\\n        }\\n    }\\n\\n    /**\\n     * @dev Returns the downcasted int232 from int256, reverting on\\n     * overflow (when the input is less than smallest int232 or\\n     * greater than largest int232).\\n     *\\n     * Counterpart to Solidity's `int232` operator.\\n     *\\n     * Requirements:\\n     *\\n     * - input must fit into 232 bits\\n     */\\n    function toInt232(int256 value) internal pure returns (int232 downcasted) {\\n        downcasted = int232(value);\\n        if (downcasted != value) {\\n            revert SafeCastOverflowedIntDowncast(232, value);\\n        }\\n    }\\n\\n    /**\\n     * @dev Returns the downcasted int224 from int256, reverting on\\n     * overflow (when the input is less than smallest int224 or\\n     * greater than largest int224).\\n     *\\n     * Counterpart to Solidity's `int224` operator.\\n     *\\n     * Requirements:\\n     *\\n     * - input must fit into 224 bits\\n     */\\n    function toInt224(int256 value) internal pure returns (int224 downcasted) {\\n        downcasted = int224(value);\\n        if (downcasted != value) {\\n            revert SafeCastOverflowedIntDowncast(224, value);\\n        }\\n    }\\n\\n    /**\\n     * @dev Returns the downcasted int216 from int256, reverting on\\n     * overflow (when the input is less than smallest int216 or\\n     * greater than largest int216).\\n     *\\n     * Counterpart to Solidity's `int216` operator.\\n     *\\n     * Requirements:\\n     *\\n     * - input must fit into 216 bits\\n     */\\n    function toInt216(int256 value) internal pure returns (int216 downcasted) {\\n        downcasted = int216(value);\\n        if (downcasted != value) {\\n            revert SafeCastOverflowedIntDowncast(216, value);\\n        }\\n    }\\n\\n    /**\\n     * @dev Returns the downcasted int208 from int256, reverting on\\n     * overflow (when the input is less than smallest int208 or\\n     * greater than largest int208).\\n     *\\n     * Counterpart to Solidity's `int208` operator.\\n     *\\n     * Requirements:\\n     *\\n     * - input must fit into 208 bits\\n     */\\n    function toInt208(int256 value) internal pure returns (int208 downcasted) {\\n        downcasted = int208(value);\\n        if (downcasted != value) {\\n            revert SafeCastOverflowedIntDowncast(208, value);\\n        }\\n    }\\n\\n    /**\\n     * @dev Returns the downcasted int200 from int256, reverting on\\n     * overflow (when the input is less than smallest int200 or\\n     * greater than largest int200).\\n     *\\n     * Counterpart to Solidity's `int200` operator.\\n     *\\n     * Requirements:\\n     *\\n     * - input must fit into 200 bits\\n     */\\n    function toInt200(int256 value) internal pure returns (int200 downcasted) {\\n        downcasted = int200(value);\\n        if (downcasted != value) {\\n            revert SafeCastOverflowedIntDowncast(200, value);\\n        }\\n    }\\n\\n    /**\\n     * @dev Returns the downcasted int192 from int256, reverting on\\n     * overflow (when the input is less than smallest int192 or\\n     * greater than largest int192).\\n     *\\n     * Counterpart to Solidity's `int192` operator.\\n     *\\n     * Requirements:\\n     *\\n     * - input must fit into 192 bits\\n     */\\n    function toInt192(int256 value) internal pure returns (int192 downcasted) {\\n        downcasted = int192(value);\\n        if (downcasted != value) {\\n            revert SafeCastOverflowedIntDowncast(192, value);\\n        }\\n    }\\n\\n    /**\\n     * @dev Returns the downcasted int184 from int256, reverting on\\n     * overflow (when the input is less than smallest int184 or\\n     * greater than largest int184).\\n     *\\n     * Counterpart to Solidity's `int184` operator.\\n     *\\n     * Requirements:\\n     *\\n     * - input must fit into 184 bits\\n     */\\n    function toInt184(int256 value) internal pure returns (int184 downcasted) {\\n        downcasted = int184(value);\\n        if (downcasted != value) {\\n            revert SafeCastOverflowedIntDowncast(184, value);\\n        }\\n    }\\n\\n    /**\\n     * @dev Returns the downcasted int176 from int256, reverting on\\n     * overflow (when the input is less than smallest int176 or\\n     * greater than largest int176).\\n     *\\n     * Counterpart to Solidity's `int176` operator.\\n     *\\n     * Requirements:\\n     *\\n     * - input must fit into 176 bits\\n     */\\n    function toInt176(int256 value) internal pure returns (int176 downcasted) {\\n        downcasted = int176(value);\\n        if (downcasted != value) {\\n            revert SafeCastOverflowedIntDowncast(176, value);\\n        }\\n    }\\n\\n    /**\\n     * @dev Returns the downcasted int168 from int256, reverting on\\n     * overflow (when the input is less than smallest int168 or\\n     * greater than largest int168).\\n     *\\n     * Counterpart to Solidity's `int168` operator.\\n     *\\n     * Requirements:\\n     *\\n     * - input must fit into 168 bits\\n     */\\n    function toInt168(int256 value) internal pure returns (int168 downcasted) {\\n        downcasted = int168(value);\\n        if (downcasted != value) {\\n            revert SafeCastOverflowedIntDowncast(168, value);\\n        }\\n    }\\n\\n    /**\\n     * @dev Returns the downcasted int160 from int256, reverting on\\n     * overflow (when the input is less than smallest int160 or\\n     * greater than largest int160).\\n     *\\n     * Counterpart to Solidity's `int160` operator.\\n     *\\n     * Requirements:\\n     *\\n     * - input must fit into 160 bits\\n     */\\n    function toInt160(int256 value) internal pure returns (int160 downcasted) {\\n        downcasted = int160(value);\\n        if (downcasted != value) {\\n            revert SafeCastOverflowedIntDowncast(160, value);\\n        }\\n    }\\n\\n    /**\\n     * @dev Returns the downcasted int152 from int256, reverting on\\n     * overflow (when the input is less than smallest int152 or\\n     * greater than largest int152).\\n     *\\n     * Counterpart to Solidity's `int152` operator.\\n     *\\n     * Requirements:\\n     *\\n     * - input must fit into 152 bits\\n     */\\n    function toInt152(int256 value) internal pure returns (int152 downcasted) {\\n        downcasted = int152(value);\\n        if (downcasted != value) {\\n            revert SafeCastOverflowedIntDowncast(152, value);\\n        }\\n    }\\n\\n    /**\\n     * @dev Returns the downcasted int144 from int256, reverting on\\n     * overflow (when the input is less than smallest int144 or\\n     * greater than largest int144).\\n     *\\n     * Counterpart to Solidity's `int144` operator.\\n     *\\n     * Requirements:\\n     *\\n     * - input must fit into 144 bits\\n     */\\n    function toInt144(int256 value) internal pure returns (int144 downcasted) {\\n        downcasted = int144(value);\\n        if (downcasted != value) {\\n            revert SafeCastOverflowedIntDowncast(144, value);\\n        }\\n    }\\n\\n    /**\\n     * @dev Returns the downcasted int136 from int256, reverting on\\n     * overflow (when the input is less than smallest int136 or\\n     * greater than largest int136).\\n     *\\n     * Counterpart to Solidity's `int136` operator.\\n     *\\n     * Requirements:\\n     *\\n     * - input must fit into 136 bits\\n     */\\n    function toInt136(int256 value) internal pure returns (int136 downcasted) {\\n        downcasted = int136(value);\\n        if (downcasted != value) {\\n            revert SafeCastOverflowedIntDowncast(136, value);\\n        }\\n    }\\n\\n    /**\\n     * @dev Returns the downcasted int128 from int256, reverting on\\n     * overflow (when the input is less than smallest int128 or\\n     * greater than largest int128).\\n     *\\n     * Counterpart to Solidity's `int128` operator.\\n     *\\n     * Requirements:\\n     *\\n     * - input must fit into 128 bits\\n     */\\n    function toInt128(int256 value) internal pure returns (int128 downcasted) {\\n        downcasted = int128(value);\\n        if (downcasted != value) {\\n            revert SafeCastOverflowedIntDowncast(128, value);\\n        }\\n    }\\n\\n    /**\\n     * @dev Returns the downcasted int120 from int256, reverting on\\n     * overflow (when the input is less than smallest int120 or\\n     * greater than largest int120).\\n     *\\n     * Counterpart to Solidity's `int120` operator.\\n     *\\n     * Requirements:\\n     *\\n     * - input must fit into 120 bits\\n     */\\n    function toInt120(int256 value) internal pure returns (int120 downcasted) {\\n        downcasted = int120(value);\\n        if (downcasted != value) {\\n            revert SafeCastOverflowedIntDowncast(120, value);\\n        }\\n    }\\n\\n    /**\\n     * @dev Returns the downcasted int112 from int256, reverting on\\n     * overflow (when the input is less than smallest int112 or\\n     * greater than largest int112).\\n     *\\n     * Counterpart to Solidity's `int112` operator.\\n     *\\n     * Requirements:\\n     *\\n     * - input must fit into 112 bits\\n     */\\n    function toInt112(int256 value) internal pure returns (int112 downcasted) {\\n        downcasted = int112(value);\\n        if (downcasted != value) {\\n            revert SafeCastOverflowedIntDowncast(112, value);\\n        }\\n    }\\n\\n    /**\\n     * @dev Returns the downcasted int104 from int256, reverting on\\n     * overflow (when the input is less than smallest int104 or\\n     * greater than largest int104).\\n     *\\n     * Counterpart to Solidity's `int104` operator.\\n     *\\n     * Requirements:\\n     *\\n     * - input must fit into 104 bits\\n     */\\n    function toInt104(int256 value) internal pure returns (int104 downcasted) {\\n        downcasted = int104(value);\\n        if (downcasted != value) {\\n            revert SafeCastOverflowedIntDowncast(104, value);\\n        }\\n    }\\n\\n    /**\\n     * @dev Returns the downcasted int96 from int256, reverting on\\n     * overflow (when the input is less than smallest int96 or\\n     * greater than largest int96).\\n     *\\n     * Counterpart to Solidity's `int96` operator.\\n     *\\n     * Requirements:\\n     *\\n     * - input must fit into 96 bits\\n     */\\n    function toInt96(int256 value) internal pure returns (int96 downcasted) {\\n        downcasted = int96(value);\\n        if (downcasted != value) {\\n            revert SafeCastOverflowedIntDowncast(96, value);\\n        }\\n    }\\n\\n    /**\\n     * @dev Returns the downcasted int88 from int256, reverting on\\n     * overflow (when the input is less than smallest int88 or\\n     * greater than largest int88).\\n     *\\n     * Counterpart to Solidity's `int88` operator.\\n     *\\n     * Requirements:\\n     *\\n     * - input must fit into 88 bits\\n     */\\n    function toInt88(int256 value) internal pure returns (int88 downcasted) {\\n        downcasted = int88(value);\\n        if (downcasted != value) {\\n            revert SafeCastOverflowedIntDowncast(88, value);\\n        }\\n    }\\n\\n    /**\\n     * @dev Returns the downcasted int80 from int256, reverting on\\n     * overflow (when the input is less than smallest int80 or\\n     * greater than largest int80).\\n     *\\n     * Counterpart to Solidity's `int80` operator.\\n     *\\n     * Requirements:\\n     *\\n     * - input must fit into 80 bits\\n     */\\n    function toInt80(int256 value) internal pure returns (int80 downcasted) {\\n        downcasted = int80(value);\\n        if (downcasted != value) {\\n            revert SafeCastOverflowedIntDowncast(80, value);\\n        }\\n    }\\n\\n    /**\\n     * @dev Returns the downcasted int72 from int256, reverting on\\n     * overflow (when the input is less than smallest int72 or\\n     * greater than largest int72).\\n     *\\n     * Counterpart to Solidity's `int72` operator.\\n     *\\n     * Requirements:\\n     *\\n     * - input must fit into 72 bits\\n     */\\n    function toInt72(int256 value) internal pure returns (int72 downcasted) {\\n        downcasted = int72(value);\\n        if (downcasted != value) {\\n            revert SafeCastOverflowedIntDowncast(72, value);\\n        }\\n    }\\n\\n    /**\\n     * @dev Returns the downcasted int64 from int256, reverting on\\n     * overflow (when the input is less than smallest int64 or\\n     * greater than largest int64).\\n     *\\n     * Counterpart to Solidity's `int64` operator.\\n     *\\n     * Requirements:\\n     *\\n     * - input must fit into 64 bits\\n     */\\n    function toInt64(int256 value) internal pure returns (int64 downcasted) {\\n        downcasted = int64(value);\\n        if (downcasted != value) {\\n            revert SafeCastOverflowedIntDowncast(64, value);\\n        }\\n    }\\n\\n    /**\\n     * @dev Returns the downcasted int56 from int256, reverting on\\n     * overflow (when the input is less than smallest int56 or\\n     * greater than largest int56).\\n     *\\n     * Counterpart to Solidity's `int56` operator.\\n     *\\n     * Requirements:\\n     *\\n     * - input must fit into 56 bits\\n     */\\n    function toInt56(int256 value) internal pure returns (int56 downcasted) {\\n        downcasted = int56(value);\\n        if (downcasted != value) {\\n            revert SafeCastOverflowedIntDowncast(56, value);\\n        }\\n    }\\n\\n    /**\\n     * @dev Returns the downcasted int48 from int256, reverting on\\n     * overflow (when the input is less than smallest int48 or\\n     * greater than largest int48).\\n     *\\n     * Counterpart to Solidity's `int48` operator.\\n     *\\n     * Requirements:\\n     *\\n     * - input must fit into 48 bits\\n     */\\n    function toInt48(int256 value) internal pure returns (int48 downcasted) {\\n        downcasted = int48(value);\\n        if (downcasted != value) {\\n            revert SafeCastOverflowedIntDowncast(48, value);\\n        }\\n    }\\n\\n    /**\\n     * @dev Returns the downcasted int40 from int256, reverting on\\n     * overflow (when the input is less than smallest int40 or\\n     * greater than largest int40).\\n     *\\n     * Counterpart to Solidity's `int40` operator.\\n     *\\n     * Requirements:\\n     *\\n     * - input must fit into 40 bits\\n     */\\n    function toInt40(int256 value) internal pure returns (int40 downcasted) {\\n        downcasted = int40(value);\\n        if (downcasted != value) {\\n            revert SafeCastOverflowedIntDowncast(40, value);\\n        }\\n    }\\n\\n    /**\\n     * @dev Returns the downcasted int32 from int256, reverting on\\n     * overflow (when the input is less than smallest int32 or\\n     * greater than largest int32).\\n     *\\n     * Counterpart to Solidity's `int32` operator.\\n     *\\n     * Requirements:\\n     *\\n     * - input must fit into 32 bits\\n     */\\n    function toInt32(int256 value) internal pure returns (int32 downcasted) {\\n        downcasted = int32(value);\\n        if (downcasted != value) {\\n            revert SafeCastOverflowedIntDowncast(32, value);\\n        }\\n    }\\n\\n    /**\\n     * @dev Returns the downcasted int24 from int256, reverting on\\n     * overflow (when the input is less than smallest int24 or\\n     * greater than largest int24).\\n     *\\n     * Counterpart to Solidity's `int24` operator.\\n     *\\n     * Requirements:\\n     *\\n     * - input must fit into 24 bits\\n     */\\n    function toInt24(int256 value) internal pure returns (int24 downcasted) {\\n        downcasted = int24(value);\\n        if (downcasted != value) {\\n            revert SafeCastOverflowedIntDowncast(24, value);\\n        }\\n    }\\n\\n    /**\\n     * @dev Returns the downcasted int16 from int256, reverting on\\n     * overflow (when the input is less than smallest int16 or\\n     * greater than largest int16).\\n     *\\n     * Counterpart to Solidity's `int16` operator.\\n     *\\n     * Requirements:\\n     *\\n     * - input must fit into 16 bits\\n     */\\n    function toInt16(int256 value) internal pure returns (int16 downcasted) {\\n        downcasted = int16(value);\\n        if (downcasted != value) {\\n            revert SafeCastOverflowedIntDowncast(16, value);\\n        }\\n    }\\n\\n    /**\\n     * @dev Returns the downcasted int8 from int256, reverting on\\n     * overflow (when the input is less than smallest int8 or\\n     * greater than largest int8).\\n     *\\n     * Counterpart to Solidity's `int8` operator.\\n     *\\n     * Requirements:\\n     *\\n     * - input must fit into 8 bits\\n     */\\n    function toInt8(int256 value) internal pure returns (int8 downcasted) {\\n        downcasted = int8(value);\\n        if (downcasted != value) {\\n            revert SafeCastOverflowedIntDowncast(8, value);\\n        }\\n    }\\n\\n    /**\\n     * @dev Converts an unsigned uint256 into a signed int256.\\n     *\\n     * Requirements:\\n     *\\n     * - input must be less than or equal to maxInt256.\\n     */\\n    function toInt256(uint256 value) internal pure returns (int256) {\\n        // Note: Unsafe cast below is okay because `type(int256).max` is guaranteed to be positive\\n        if (value > uint256(type(int256).max)) {\\n            revert SafeCastOverflowedUintToInt(value);\\n        }\\n        return int256(value);\\n    }\\n\\n    /**\\n     * @dev Cast a boolean (false or true) to a uint256 (0 or 1) with no jump.\\n     */\\n    function toUint(bool b) internal pure returns (uint256 u) {\\n        assembly (\\\"memory-safe\\\") {\\n            u := iszero(iszero(b))\\n        }\\n    }\\n}\\n\"},\"@openzeppelin/contracts/utils/Bytes.sol\":{\"content\":\"// SPDX-License-Identifier: MIT\\n// OpenZeppelin Contracts (last updated v5.6.0) (utils/Bytes.sol)\\n\\npragma solidity ^0.8.24;\\n\\nimport {Math} from \\\"./math/Math.sol\\\";\\n\\n/**\\n * @dev Bytes operations.\\n */\\nlibrary Bytes {\\n    /**\\n     * @dev Forward search for `s` in `buffer`\\n     * * If `s` is present in the buffer, returns the index of the first instance\\n     * * If `s` is not present in the buffer, returns type(uint256).max\\n     *\\n     * NOTE: replicates the behavior of https://developer.mozilla.org/en-US/docs/Web/JavaScript/Reference/Global_Objects/Array/indexOf[Javascript's `Array.indexOf`]\\n     */\\n    function indexOf(bytes memory buffer, bytes1 s) internal pure returns (uint256) {\\n        return indexOf(buffer, s, 0);\\n    }\\n\\n    /**\\n     * @dev Forward search for `s` in `buffer` starting at position `pos`\\n     * * If `s` is present in the buffer (at or after `pos`), returns the index of the next instance\\n     * * If `s` is not present in the buffer (at or after `pos`), returns type(uint256).max\\n     *\\n     * NOTE: replicates the behavior of https://developer.mozilla.org/en-US/docs/Web/JavaScript/Reference/Global_Objects/Array/indexOf[Javascript's `Array.indexOf`]\\n     */\\n    function indexOf(bytes memory buffer, bytes1 s, uint256 pos) internal pure returns (uint256) {\\n        uint256 length = buffer.length;\\n        for (uint256 i = pos; i < length; ++i) {\\n            if (bytes1(_unsafeReadBytesOffset(buffer, i)) == s) {\\n                return i;\\n            }\\n        }\\n        return type(uint256).max;\\n    }\\n\\n    /**\\n     * @dev Backward search for `s` in `buffer`\\n     * * If `s` is present in the buffer, returns the index of the last instance\\n     * * If `s` is not present in the buffer, returns type(uint256).max\\n     *\\n     * NOTE: replicates the behavior of https://developer.mozilla.org/en-US/docs/Web/JavaScript/Reference/Global_Objects/Array/lastIndexOf[Javascript's `Array.lastIndexOf`]\\n     */\\n    function lastIndexOf(bytes memory buffer, bytes1 s) internal pure returns (uint256) {\\n        return lastIndexOf(buffer, s, type(uint256).max);\\n    }\\n\\n    /**\\n     * @dev Backward search for `s` in `buffer` starting at position `pos`\\n     * * If `s` is present in the buffer (at or before `pos`), returns the index of the previous instance\\n     * * If `s` is not present in the buffer (at or before `pos`), returns type(uint256).max\\n     *\\n     * NOTE: replicates the behavior of https://developer.mozilla.org/en-US/docs/Web/JavaScript/Reference/Global_Objects/Array/lastIndexOf[Javascript's `Array.lastIndexOf`]\\n     */\\n    function lastIndexOf(bytes memory buffer, bytes1 s, uint256 pos) internal pure returns (uint256) {\\n        unchecked {\\n            uint256 length = buffer.length;\\n            for (uint256 i = Math.min(Math.saturatingAdd(pos, 1), length); i > 0; --i) {\\n                if (bytes1(_unsafeReadBytesOffset(buffer, i - 1)) == s) {\\n                    return i - 1;\\n                }\\n            }\\n            return type(uint256).max;\\n        }\\n    }\\n\\n    /**\\n     * @dev Copies the content of `buffer`, from `start` (included) to the end of `buffer` into a new bytes object in\\n     * memory.\\n     *\\n     * NOTE: replicates the behavior of https://developer.mozilla.org/en-US/docs/Web/JavaScript/Reference/Global_Objects/Array/slice[Javascript's `Array.slice`]\\n     */\\n    function slice(bytes memory buffer, uint256 start) internal pure returns (bytes memory) {\\n        return slice(buffer, start, buffer.length);\\n    }\\n\\n    /**\\n     * @dev Copies the content of `buffer`, from `start` (included) to `end` (excluded) into a new bytes object in\\n     * memory. The `end` argument is truncated to the length of the `buffer`.\\n     *\\n     * NOTE: replicates the behavior of https://developer.mozilla.org/en-US/docs/Web/JavaScript/Reference/Global_Objects/Array/slice[Javascript's `Array.slice`]\\n     */\\n    function slice(bytes memory buffer, uint256 start, uint256 end) internal pure returns (bytes memory) {\\n        // sanitize\\n        end = Math.min(end, buffer.length);\\n        start = Math.min(start, end);\\n\\n        // allocate and copy\\n        bytes memory result = new bytes(end - start);\\n        assembly (\\\"memory-safe\\\") {\\n            mcopy(add(result, 0x20), add(add(buffer, 0x20), start), sub(end, start))\\n        }\\n\\n        return result;\\n    }\\n\\n    /**\\n     * @dev Moves the content of `buffer`, from `start` (included) to the end of `buffer` to the start of that buffer,\\n     * and shrinks the buffer length accordingly, effectively overriding the content of buffer with buffer[start:].\\n     *\\n     * NOTE: This function modifies the provided buffer in place. If you need to preserve the original buffer, use {slice} instead\\n     */\\n    function splice(bytes memory buffer, uint256 start) internal pure returns (bytes memory) {\\n        return splice(buffer, start, buffer.length);\\n    }\\n\\n    /**\\n     * @dev Moves the content of `buffer`, from `start` (included) to `end` (excluded) to the start of that buffer,\\n     * and shrinks the buffer length accordingly, effectively overriding the content of buffer with buffer[start:end].\\n     * The `end` argument is truncated to the length of the `buffer`.\\n     *\\n     * NOTE: This function modifies the provided buffer in place. If you need to preserve the original buffer, use {slice} instead\\n     */\\n    function splice(bytes memory buffer, uint256 start, uint256 end) internal pure returns (bytes memory) {\\n        // sanitize\\n        end = Math.min(end, buffer.length);\\n        start = Math.min(start, end);\\n\\n        // move and resize\\n        assembly (\\\"memory-safe\\\") {\\n            mcopy(add(buffer, 0x20), add(add(buffer, 0x20), start), sub(end, start))\\n            mstore(buffer, sub(end, start))\\n        }\\n\\n        return buffer;\\n    }\\n\\n    /**\\n     * @dev Replaces bytes in `buffer` starting at `pos` with all bytes from `replacement`.\\n     *\\n     * Parameters are clamped to valid ranges (i.e. `pos` is clamped to `[0, buffer.length]`).\\n     * If `pos >= buffer.length`, no replacement occurs and the buffer is returned unchanged.\\n     *\\n     * NOTE: This function modifies the provided buffer in place.\\n     */\\n    function replace(bytes memory buffer, uint256 pos, bytes memory replacement) internal pure returns (bytes memory) {\\n        return replace(buffer, pos, replacement, 0, replacement.length);\\n    }\\n\\n    /**\\n     * @dev Replaces bytes in `buffer` starting at `pos` with bytes from `replacement` starting at `offset`.\\n     * Copies at most `length` bytes from `replacement` to `buffer`.\\n     *\\n     * Parameters are clamped to valid ranges (i.e. `pos` is clamped to `[0, buffer.length]`, `offset` is\\n     * clamped to `[0, replacement.length]`, and `length` is clamped to `min(length, replacement.length - offset,\\n     * buffer.length - pos))`. If `pos >= buffer.length` or `offset >= replacement.length`, no replacement occurs\\n     * and the buffer is returned unchanged.\\n     *\\n     * NOTE: This function modifies the provided buffer in place.\\n     */\\n    function replace(\\n        bytes memory buffer,\\n        uint256 pos,\\n        bytes memory replacement,\\n        uint256 offset,\\n        uint256 length\\n    ) internal pure returns (bytes memory) {\\n        // sanitize\\n        pos = Math.min(pos, buffer.length);\\n        offset = Math.min(offset, replacement.length);\\n        length = Math.min(length, Math.min(replacement.length - offset, buffer.length - pos));\\n\\n        // replace\\n        assembly (\\\"memory-safe\\\") {\\n            mcopy(add(add(buffer, 0x20), pos), add(add(replacement, 0x20), offset), length)\\n        }\\n\\n        return buffer;\\n    }\\n\\n    /**\\n     * @dev Concatenate an array of bytes into a single bytes object.\\n     *\\n     * For fixed bytes types, we recommend using the solidity built-in `bytes.concat` or (equivalent)\\n     * `abi.encodePacked`.\\n     *\\n     * NOTE: this could be done in assembly with a single loop that expands starting at the FMP, but that would be\\n     * significantly less readable. It might be worth benchmarking the savings of the full-assembly approach.\\n     */\\n    function concat(bytes[] memory buffers) internal pure returns (bytes memory) {\\n        uint256 length = 0;\\n        for (uint256 i = 0; i < buffers.length; ++i) {\\n            length += buffers[i].length;\\n        }\\n\\n        bytes memory result = new bytes(length);\\n\\n        uint256 offset = 0x20;\\n        for (uint256 i = 0; i < buffers.length; ++i) {\\n            bytes memory input = buffers[i];\\n            assembly (\\\"memory-safe\\\") {\\n                mcopy(add(result, offset), add(input, 0x20), mload(input))\\n            }\\n            unchecked {\\n                offset += input.length;\\n            }\\n        }\\n\\n        return result;\\n    }\\n\\n    /**\\n     * @dev Split each byte in `input` into two nibbles (4 bits each)\\n     *\\n     * Example: hex\\\"01234567\\\" → hex\\\"0001020304050607\\\"\\n     */\\n    function toNibbles(bytes memory input) internal pure returns (bytes memory output) {\\n        assembly (\\\"memory-safe\\\") {\\n            let length := mload(input)\\n            output := mload(0x40)\\n            mstore(0x40, add(add(output, 0x20), mul(length, 2)))\\n            mstore(output, mul(length, 2))\\n            for {\\n                let i := 0\\n            } lt(i, length) {\\n                i := add(i, 0x10)\\n            } {\\n                let chunk := shr(128, mload(add(add(input, 0x20), i)))\\n                chunk := and(\\n                    0x0000000000000000ffffffffffffffff0000000000000000ffffffffffffffff,\\n                    or(shl(64, chunk), chunk)\\n                )\\n                chunk := and(\\n                    0x00000000ffffffff00000000ffffffff00000000ffffffff00000000ffffffff,\\n                    or(shl(32, chunk), chunk)\\n                )\\n                chunk := and(\\n                    0x0000ffff0000ffff0000ffff0000ffff0000ffff0000ffff0000ffff0000ffff,\\n                    or(shl(16, chunk), chunk)\\n                )\\n                chunk := and(\\n                    0x00ff00ff00ff00ff00ff00ff00ff00ff00ff00ff00ff00ff00ff00ff00ff00ff,\\n                    or(shl(8, chunk), chunk)\\n                )\\n                chunk := and(\\n                    0x0f0f0f0f0f0f0f0f0f0f0f0f0f0f0f0f0f0f0f0f0f0f0f0f0f0f0f0f0f0f0f0f,\\n                    or(shl(4, chunk), chunk)\\n                )\\n                mstore(add(add(output, 0x20), mul(i, 2)), chunk)\\n            }\\n        }\\n    }\\n\\n    /**\\n     * @dev Returns true if the two byte buffers are equal.\\n     */\\n    function equal(bytes memory a, bytes memory b) internal pure returns (bool) {\\n        return a.length == b.length && keccak256(a) == keccak256(b);\\n    }\\n\\n    /**\\n     * @dev Reverses the byte order of a bytes32 value, converting between little-endian and big-endian.\\n     * Inspired by https://graphics.stanford.edu/~seander/bithacks.html#ReverseParallel[Reverse Parallel]\\n     */\\n    function reverseBytes32(bytes32 value) internal pure returns (bytes32) {\\n        value = // swap bytes\\n            ((value >> 8) & 0x00FF00FF00FF00FF00FF00FF00FF00FF00FF00FF00FF00FF00FF00FF00FF00FF) |\\n            ((value & 0x00FF00FF00FF00FF00FF00FF00FF00FF00FF00FF00FF00FF00FF00FF00FF00FF) << 8);\\n        value = // swap 2-byte long pairs\\n            ((value >> 16) & 0x0000FFFF0000FFFF0000FFFF0000FFFF0000FFFF0000FFFF0000FFFF0000FFFF) |\\n            ((value & 0x0000FFFF0000FFFF0000FFFF0000FFFF0000FFFF0000FFFF0000FFFF0000FFFF) << 16);\\n        value = // swap 4-byte long pairs\\n            ((value >> 32) & 0x00000000FFFFFFFF00000000FFFFFFFF00000000FFFFFFFF00000000FFFFFFFF) |\\n            ((value & 0x00000000FFFFFFFF00000000FFFFFFFF00000000FFFFFFFF00000000FFFFFFFF) << 32);\\n        value = // swap 8-byte long pairs\\n            ((value >> 64) & 0x0000000000000000FFFFFFFFFFFFFFFF0000000000000000FFFFFFFFFFFFFFFF) |\\n            ((value & 0x0000000000000000FFFFFFFFFFFFFFFF0000000000000000FFFFFFFFFFFFFFFF) << 64);\\n        return (value >> 128) | (value << 128); // swap 16-byte long pairs\\n    }\\n\\n    /// @dev Same as {reverseBytes32} but optimized for 128-bit values.\\n    function reverseBytes16(bytes16 value) internal pure returns (bytes16) {\\n        value = // swap bytes\\n            ((value & 0xFF00FF00FF00FF00FF00FF00FF00FF00) >> 8) |\\n            ((value & 0x00FF00FF00FF00FF00FF00FF00FF00FF) << 8);\\n        value = // swap 2-byte long pairs\\n            ((value & 0xFFFF0000FFFF0000FFFF0000FFFF0000) >> 16) |\\n            ((value & 0x0000FFFF0000FFFF0000FFFF0000FFFF) << 16);\\n        value = // swap 4-byte long pairs\\n            ((value & 0xFFFFFFFF00000000FFFFFFFF00000000) >> 32) |\\n            ((value & 0x00000000FFFFFFFF00000000FFFFFFFF) << 32);\\n        return (value >> 64) | (value << 64); // swap 8-byte long pairs\\n    }\\n\\n    /// @dev Same as {reverseBytes32} but optimized for 64-bit values.\\n    function reverseBytes8(bytes8 value) internal pure returns (bytes8) {\\n        value = ((value & 0xFF00FF00FF00FF00) >> 8) | ((value & 0x00FF00FF00FF00FF) << 8); // swap bytes\\n        value = ((value & 0xFFFF0000FFFF0000) >> 16) | ((value & 0x0000FFFF0000FFFF) << 16); // swap 2-byte long pairs\\n        return (value >> 32) | (value << 32); // swap 4-byte long pairs\\n    }\\n\\n    /// @dev Same as {reverseBytes32} but optimized for 32-bit values.\\n    function reverseBytes4(bytes4 value) internal pure returns (bytes4) {\\n        value = ((value & 0xFF00FF00) >> 8) | ((value & 0x00FF00FF) << 8); // swap bytes\\n        return (value >> 16) | (value << 16); // swap 2-byte long pairs\\n    }\\n\\n    /// @dev Same as {reverseBytes32} but optimized for 16-bit values.\\n    function reverseBytes2(bytes2 value) internal pure returns (bytes2) {\\n        return (value >> 8) | (value << 8);\\n    }\\n\\n    /**\\n     * @dev Counts the number of leading zero bits a bytes array. Returns `8 * buffer.length`\\n     * if the buffer is all zeros.\\n     */\\n    function clz(bytes memory buffer) internal pure returns (uint256) {\\n        for (uint256 i = 0; i < buffer.length; i += 0x20) {\\n            bytes32 chunk = _unsafeReadBytesOffset(buffer, i);\\n            if (chunk != bytes32(0)) {\\n                return Math.min(8 * i + Math.clz(uint256(chunk)), 8 * buffer.length);\\n            }\\n        }\\n        return 8 * buffer.length;\\n    }\\n\\n    /**\\n     * @dev Reads a bytes32 from a bytes array without bounds checking.\\n     *\\n     * NOTE: making this function internal would mean it could be used with memory unsafe offset, and marking the\\n     * assembly block as such would prevent some optimizations.\\n     */\\n    function _unsafeReadBytesOffset(bytes memory buffer, uint256 offset) private pure returns (bytes32 value) {\\n        // This is not memory safe in the general case, but all calls to this private function are within bounds.\\n        assembly (\\\"memory-safe\\\") {\\n            value := mload(add(add(buffer, 0x20), offset))\\n        }\\n    }\\n}\\n\"},\"@openzeppelin/contracts/utils/Calldata.sol\":{\"content\":\"// SPDX-License-Identifier: MIT\\n// OpenZeppelin Contracts (last updated v5.3.0) (utils/Calldata.sol)\\n\\npragma solidity ^0.8.20;\\n\\n/**\\n * @dev Helper library for manipulating objects in calldata.\\n */\\nlibrary Calldata {\\n    // slither-disable-next-line write-after-write\\n    function emptyBytes() internal pure returns (bytes calldata result) {\\n        assembly (\\\"memory-safe\\\") {\\n            result.offset := 0\\n            result.length := 0\\n        }\\n    }\\n\\n    // slither-disable-next-line write-after-write\\n    function emptyString() internal pure returns (string calldata result) {\\n        assembly (\\\"memory-safe\\\") {\\n            result.offset := 0\\n            result.length := 0\\n        }\\n    }\\n}\\n\"},\"@openzeppelin/contracts/account/Account.sol\":{\"content\":\"// SPDX-License-Identifier: MIT\\n// OpenZeppelin Contracts (last updated v5.6.0) (account/Account.sol)\\n\\npragma solidity ^0.8.20;\\n\\nimport {PackedUserOperation, IAccount, IEntryPoint} from \\\"../interfaces/draft-IERC4337.sol\\\";\\nimport {ERC4337Utils} from \\\"./utils/draft-ERC4337Utils.sol\\\";\\nimport {AbstractSigner} from \\\"../utils/cryptography/signers/AbstractSigner.sol\\\";\\nimport {LowLevelCall} from \\\"../utils/LowLevelCall.sol\\\";\\n\\n/**\\n * @dev A simple ERC4337 account implementation. This base implementation only includes the minimal logic to process\\n * user operations.\\n *\\n * Developers must implement the {AbstractSigner-_rawSignatureValidation} function to define the account's validation logic.\\n *\\n * NOTE: This core account doesn't include any mechanism for performing arbitrary external calls. This is an essential\\n * feature that all Account should have. We leave it up to the developers to implement the mechanism of their choice.\\n * Common choices include ERC-6900, ERC-7579 and ERC-7821 (among others).\\n *\\n * IMPORTANT: Implementing a mechanism to validate signatures is a security-sensitive operation as it may allow an\\n * attacker to bypass the account's security measures. Check out {SignerECDSA}, {SignerP256}, or {SignerRSA} for\\n * digital signature validation implementations.\\n *\\n * @custom:stateless\\n */\\nabstract contract Account is AbstractSigner, IAccount {\\n    /**\\n     * @dev Unauthorized call to the account.\\n     */\\n    error AccountUnauthorized(address sender);\\n\\n    /**\\n     * @dev Revert if the caller is not the entry point or the account itself.\\n     */\\n    modifier onlyEntryPointOrSelf() {\\n        _checkEntryPointOrSelf();\\n        _;\\n    }\\n\\n    /**\\n     * @dev Revert if the caller is not the entry point.\\n     */\\n    modifier onlyEntryPoint() {\\n        _checkEntryPoint();\\n        _;\\n    }\\n\\n    /**\\n     * @dev Canonical entry point for the account that forwards and validates user operations.\\n     */\\n    function entryPoint() public view virtual returns (IEntryPoint) {\\n        return ERC4337Utils.ENTRYPOINT_V09;\\n    }\\n\\n    /**\\n     * @dev Return the account nonce for the canonical sequence.\\n     */\\n    function getNonce() public view virtual returns (uint256) {\\n        return getNonce(0);\\n    }\\n\\n    /**\\n     * @dev Return the account nonce for a given sequence (key).\\n     */\\n    function getNonce(uint192 key) public view virtual returns (uint256) {\\n        return entryPoint().getNonce(address(this), key);\\n    }\\n\\n    /**\\n     * @inheritdoc IAccount\\n     */\\n    function validateUserOp(\\n        PackedUserOperation calldata userOp,\\n        bytes32 userOpHash,\\n        uint256 missingAccountFunds\\n    ) public virtual onlyEntryPoint returns (uint256) {\\n        uint256 validationData = _validateUserOp(userOp, userOpHash, userOp.signature);\\n        _payPrefund(missingAccountFunds);\\n        return validationData;\\n    }\\n\\n    /**\\n     * @dev Returns the validationData for a given user operation. By default, this checks the signature of the\\n     * signable hash (produced by {_signableUserOpHash}) using the abstract signer ({AbstractSigner-_rawSignatureValidation}).\\n     *\\n     * The `signature` parameter is taken directly from the user operation's `signature` field.\\n     * This design enables derived contracts to implement custom signature handling logic,\\n     * such as embedding additional data within the signature and processing it by overriding this function\\n     * and optionally invoking `super`.\\n     *\\n     * NOTE: The userOpHash is assumed to be correct. Calling this function with a userOpHash that does not match the\\n     * userOp will result in undefined behavior.\\n     */\\n    function _validateUserOp(\\n        PackedUserOperation calldata userOp,\\n        bytes32 userOpHash,\\n        bytes calldata signature\\n    ) internal virtual returns (uint256) {\\n        return\\n            _rawSignatureValidation(_signableUserOpHash(userOp, userOpHash), signature)\\n                ? ERC4337Utils.SIG_VALIDATION_SUCCESS\\n                : ERC4337Utils.SIG_VALIDATION_FAILED;\\n    }\\n\\n    /**\\n     * @dev Virtual function that returns the signable hash for a user operations. Since v0.8.0 of the entrypoint,\\n     * `userOpHash` is an EIP-712 hash that can be signed directly.\\n     */\\n    function _signableUserOpHash(\\n        PackedUserOperation calldata /*userOp*/,\\n        bytes32 userOpHash\\n    ) internal view virtual returns (bytes32) {\\n        return userOpHash;\\n    }\\n\\n    /**\\n     * @dev Sends the missing funds for executing the user operation to the {entrypoint}.\\n     * The `missingAccountFunds` must be defined by the entrypoint when calling {validateUserOp}.\\n     */\\n    function _payPrefund(uint256 missingAccountFunds) internal virtual {\\n        if (missingAccountFunds > 0) {\\n            LowLevelCall.callNoReturn(msg.sender, missingAccountFunds, \\\"\\\"); // The entrypoint should validate the result.\\n        }\\n    }\\n\\n    /**\\n     * @dev Ensures the caller is the {entrypoint}.\\n     */\\n    function _checkEntryPoint() internal view virtual {\\n        address sender = msg.sender;\\n        if (sender != address(entryPoint())) {\\n            revert AccountUnauthorized(sender);\\n        }\\n    }\\n\\n    /**\\n     * @dev Ensures the caller is the {entrypoint} or the account itself.\\n     */\\n    function _checkEntryPointOrSelf() internal view virtual {\\n        address sender = msg.sender;\\n        if (sender != address(this) && sender != address(entryPoint())) {\\n            revert AccountUnauthorized(sender);\\n        }\\n    }\\n\\n    /**\\n     * @dev Receive Ether.\\n     */\\n    receive() external payable virtual {}\\n}\\n\"},\"@openzeppelin/contracts/account/utils/draft-ERC4337Utils.sol\":{\"content\":\"// SPDX-License-Identifier: MIT\\n// OpenZeppelin Contracts (last updated v5.6.0) (account/utils/draft-ERC4337Utils.sol)\\n\\npragma solidity ^0.8.20;\\n\\nimport {IEntryPoint, PackedUserOperation} from \\\"../../interfaces/draft-IERC4337.sol\\\";\\nimport {Math} from \\\"../../utils/math/Math.sol\\\";\\nimport {Calldata} from \\\"../../utils/Calldata.sol\\\";\\nimport {Packing} from \\\"../../utils/Packing.sol\\\";\\n\\n/// @dev This is available on all entrypoint since v0.4.0, but is not formally part of the ERC.\\ninterface IEntryPointExtra {\\n    function getUserOpHash(PackedUserOperation calldata userOp) external view returns (bytes32);\\n}\\n\\n/**\\n * @dev Library with common ERC-4337 utility functions.\\n *\\n * See https://eips.ethereum.org/EIPS/eip-4337[ERC-4337].\\n */\\nlibrary ERC4337Utils {\\n    using Packing for *;\\n\\n    /// @dev Address of the entrypoint v0.7.0\\n    IEntryPoint internal constant ENTRYPOINT_V07 = IEntryPoint(0x0000000071727De22E5E9d8BAf0edAc6f37da032);\\n\\n    /// @dev Address of the entrypoint v0.8.0\\n    IEntryPoint internal constant ENTRYPOINT_V08 = IEntryPoint(0x4337084D9E255Ff0702461CF8895CE9E3b5Ff108);\\n\\n    /// @dev Address of the entrypoint v0.9.0\\n    IEntryPoint internal constant ENTRYPOINT_V09 = IEntryPoint(0x433709009B8330FDa32311DF1C2AFA402eD8D009);\\n\\n    /// @dev For simulation purposes, validateUserOp (and validatePaymasterUserOp) return this value on success.\\n    uint256 internal constant SIG_VALIDATION_SUCCESS = 0;\\n\\n    /// @dev For simulation purposes, validateUserOp (and validatePaymasterUserOp) must return this value in case of signature failure, instead of revert.\\n    uint256 internal constant SIG_VALIDATION_FAILED = 1;\\n\\n    /// @dev Magic value used in EntryPoint v0.9+ to detect the presence of a paymaster signature in `paymasterAndData`.\\n    bytes8 internal constant PAYMASTER_SIG_MAGIC = 0x22e325a297439656; // keccak256(\\\"PaymasterSignature\\\")[:8]\\n\\n    /// @dev Highest bit set to 1 in a 6-bytes field.\\n    uint48 internal constant BLOCK_RANGE_FLAG = 0x800000000000;\\n\\n    /// @dev Mask for the lower 47 bits of a 6-bytes field (equivalent to uint48(~BLOCK_RANGE_FLAG)).\\n    uint48 internal constant BLOCK_RANGE_MASK = 0x7fffffffffff;\\n\\n    /// @dev Validity range of the validation data.\\n    enum ValidationRange {\\n        TIMESTAMP,\\n        BLOCK\\n    }\\n\\n    /**\\n     * @dev Parses the validation data into its components and the validity range. See {packValidationData}.\\n     * Strips away the highest bit flag from the `validAfter` and `validUntil` fields.\\n     */\\n    function parseValidationData(\\n        uint256 validationData\\n    ) internal pure returns (address aggregator, uint48 validAfter, uint48 validUntil, ValidationRange range) {\\n        validAfter = uint48(bytes32(validationData).extract_32_6(0));\\n        validUntil = uint48(bytes32(validationData).extract_32_6(6));\\n        aggregator = address(bytes32(validationData).extract_32_20(12));\\n        range = ((validAfter & validUntil & BLOCK_RANGE_FLAG) == 0) ? ValidationRange.TIMESTAMP : ValidationRange.BLOCK;\\n\\n        validAfter &= BLOCK_RANGE_MASK;\\n        validUntil &= BLOCK_RANGE_MASK;\\n\\n        if (validUntil == 0) validUntil = BLOCK_RANGE_MASK;\\n    }\\n\\n    /// @dev Packs the validation data into a single uint256. See {parseValidationData}.\\n    function packValidationData(\\n        address aggregator,\\n        uint48 validAfter,\\n        uint48 validUntil\\n    ) internal pure returns (uint256) {\\n        return\\n            packValidationData(\\n                aggregator,\\n                validAfter,\\n                validUntil,\\n                (validAfter & validUntil & BLOCK_RANGE_FLAG) == 0 ? ValidationRange.TIMESTAMP : ValidationRange.BLOCK\\n            );\\n    }\\n\\n    /**\\n     * @dev Variant of {packValidationData} that forces which validity range to use. This overwrites the presence of\\n     * flags in `validAfter` and `validUntil`).\\n     */\\n    function packValidationData(\\n        address aggregator,\\n        uint48 validAfter,\\n        uint48 validUntil,\\n        ValidationRange range\\n    ) internal pure returns (uint256) {\\n        if (range == ValidationRange.TIMESTAMP) {\\n            validAfter &= BLOCK_RANGE_MASK;\\n            validUntil &= BLOCK_RANGE_MASK;\\n        } else if (range == ValidationRange.BLOCK) {\\n            validAfter |= BLOCK_RANGE_FLAG;\\n            validUntil |= BLOCK_RANGE_FLAG;\\n        }\\n        return uint256(bytes6(validAfter).pack_6_6(bytes6(validUntil)).pack_12_20(bytes20(aggregator)));\\n    }\\n\\n    /// @dev Variant of {packValidationData} that uses a boolean success flag instead of an aggregator address.\\n    function packValidationData(bool sigSuccess, uint48 validAfter, uint48 validUntil) internal pure returns (uint256) {\\n        return\\n            packValidationData(\\n                address(uint160(Math.ternary(sigSuccess, SIG_VALIDATION_SUCCESS, SIG_VALIDATION_FAILED))),\\n                validAfter,\\n                validUntil\\n            );\\n    }\\n\\n    /**\\n     * @dev Variant of {packValidationData} that uses a boolean success flag instead of an aggregator address and that\\n     * forces which validity range to use. This overwrites the presence of flags in `validAfter` and `validUntil`).\\n     */\\n    function packValidationData(\\n        bool sigSuccess,\\n        uint48 validAfter,\\n        uint48 validUntil,\\n        ValidationRange range\\n    ) internal pure returns (uint256) {\\n        return\\n            packValidationData(\\n                address(uint160(Math.ternary(sigSuccess, SIG_VALIDATION_SUCCESS, SIG_VALIDATION_FAILED))),\\n                validAfter,\\n                validUntil,\\n                range\\n            );\\n    }\\n\\n    /**\\n     * @dev Combines two validation data into a single one.\\n     *\\n     * The `aggregator` is set to {SIG_VALIDATION_SUCCESS} if both are successful, while\\n     * the `validAfter` is the maximum and the `validUntil` is the minimum of both.\\n     *\\n     * NOTE: Returns `SIG_VALIDATION_FAILED` if the validation ranges differ.\\n     */\\n    function combineValidationData(uint256 validationData1, uint256 validationData2) internal pure returns (uint256) {\\n        (address aggregator1, uint48 validAfter1, uint48 validUntil1, ValidationRange range1) = parseValidationData(\\n            validationData1\\n        );\\n        (address aggregator2, uint48 validAfter2, uint48 validUntil2, ValidationRange range2) = parseValidationData(\\n            validationData2\\n        );\\n\\n        if (range1 == range2) {\\n            bool success = aggregator1 == address(uint160(SIG_VALIDATION_SUCCESS)) &&\\n                aggregator2 == address(uint160(SIG_VALIDATION_SUCCESS));\\n            uint48 validAfter = uint48(Math.max(validAfter1, validAfter2));\\n            uint48 validUntil = uint48(Math.min(validUntil1, validUntil2));\\n            return packValidationData(success, validAfter, validUntil, range1);\\n        } else {\\n            return SIG_VALIDATION_FAILED;\\n        }\\n    }\\n\\n    /// @dev Returns the aggregator of the `validationData` and whether it is out of time range.\\n    function getValidationData(uint256 validationData) internal view returns (address aggregator, bool outOfTimeRange) {\\n        (address aggregator_, uint48 validAfter, uint48 validUntil, ValidationRange range) = parseValidationData(\\n            validationData\\n        );\\n        uint256 current = Math.ternary(range == ValidationRange.TIMESTAMP, block.timestamp, block.number);\\n        return (aggregator_, current <= validAfter || validUntil < current);\\n    }\\n\\n    /// @dev Get the hash of a user operation for a given entrypoint\\n    function hash(PackedUserOperation calldata self, address entrypoint) internal view returns (bytes32) {\\n        // NOTE: getUserOpHash is available since v0.4.0\\n        //\\n        // Prior to v0.8.0, this was easy to replicate for any entrypoint and chainId. Since v0.8.0 of the\\n        // entrypoint, this depends on the Entrypoint's domain separator, which cannot be hardcoded and is complex\\n        // to recompute. Domain separator could be fetch using the `getDomainSeparatorV4` getter, or recomputed from\\n        // the ERC-5267 getter, but both operation would require doing a view call to the entrypoint. Overall it feels\\n        // simpler and less error prone to get that functionality from the entrypoint directly.\\n        return IEntryPointExtra(entrypoint).getUserOpHash(self);\\n    }\\n\\n    /// @dev Returns `factory` from the {PackedUserOperation}, or address(0) if the initCode is empty or not properly formatted.\\n    function factory(PackedUserOperation calldata self) internal pure returns (address) {\\n        return self.initCode.length < 20 ? address(0) : address(bytes20(self.initCode[0:20]));\\n    }\\n\\n    /// @dev Returns `factoryData` from the {PackedUserOperation}, or empty bytes if the initCode is empty or not properly formatted.\\n    function factoryData(PackedUserOperation calldata self) internal pure returns (bytes calldata) {\\n        return self.initCode.length < 20 ? Calldata.emptyBytes() : self.initCode[20:];\\n    }\\n\\n    /// @dev Returns `verificationGasLimit` from the {PackedUserOperation}.\\n    function verificationGasLimit(PackedUserOperation calldata self) internal pure returns (uint256) {\\n        return uint128(self.accountGasLimits.extract_32_16(0));\\n    }\\n\\n    /// @dev Returns `callGasLimit` from the {PackedUserOperation}.\\n    function callGasLimit(PackedUserOperation calldata self) internal pure returns (uint256) {\\n        return uint128(self.accountGasLimits.extract_32_16(16));\\n    }\\n\\n    /// @dev Returns the first section of `gasFees` from the {PackedUserOperation}.\\n    function maxPriorityFeePerGas(PackedUserOperation calldata self) internal pure returns (uint256) {\\n        return uint128(self.gasFees.extract_32_16(0));\\n    }\\n\\n    /// @dev Returns the second section of `gasFees` from the {PackedUserOperation}.\\n    function maxFeePerGas(PackedUserOperation calldata self) internal pure returns (uint256) {\\n        return uint128(self.gasFees.extract_32_16(16));\\n    }\\n\\n    /// @dev Returns the total gas price for the {PackedUserOperation} (ie. `maxFeePerGas` or `maxPriorityFeePerGas + basefee`).\\n    function gasPrice(PackedUserOperation calldata self) internal view returns (uint256) {\\n        unchecked {\\n            // Following values are \\\"per gas\\\"\\n            uint256 maxPriorityFee = maxPriorityFeePerGas(self);\\n            uint256 maxFee = maxFeePerGas(self);\\n            return Math.min(maxFee, maxPriorityFee + block.basefee);\\n        }\\n    }\\n\\n    /// @dev Returns the first section of `paymasterAndData` from the {PackedUserOperation}.\\n    function paymaster(PackedUserOperation calldata self) internal pure returns (address) {\\n        return self.paymasterAndData.length < 52 ? address(0) : address(bytes20(self.paymasterAndData[0:20]));\\n    }\\n\\n    /// @dev Returns the second section of `paymasterAndData` from the {PackedUserOperation}.\\n    function paymasterVerificationGasLimit(PackedUserOperation calldata self) internal pure returns (uint256) {\\n        return self.paymasterAndData.length < 52 ? 0 : uint128(bytes16(self.paymasterAndData[20:36]));\\n    }\\n\\n    /// @dev Returns the third section of `paymasterAndData` from the {PackedUserOperation}.\\n    function paymasterPostOpGasLimit(PackedUserOperation calldata self) internal pure returns (uint256) {\\n        return self.paymasterAndData.length < 52 ? 0 : uint128(bytes16(self.paymasterAndData[36:52]));\\n    }\\n\\n    /**\\n     * @dev Returns the fourth section of `paymasterAndData` from the {PackedUserOperation}.\\n     * If a paymaster signature is present, it is excluded from the returned data.\\n     */\\n    function paymasterData(PackedUserOperation calldata self) internal pure returns (bytes calldata) {\\n        bool hasSignature = self.paymasterAndData.length > 9 &&\\n            bytes8(self.paymasterAndData[self.paymasterAndData.length - 8:]) == PAYMASTER_SIG_MAGIC;\\n        uint256 suffixLength = hasSignature ? _paymasterSignatureSize(self) + 10 : 0;\\n        return\\n            self.paymasterAndData.length < 52 + suffixLength\\n                ? Calldata.emptyBytes()\\n                : self.paymasterAndData[52:self.paymasterAndData.length - suffixLength];\\n    }\\n\\n    /**\\n     * @dev Returns the paymaster signature from `paymasterAndData` (EntryPoint v0.9+).\\n     * Returns empty bytes if no paymaster signature is present.\\n     */\\n    function paymasterSignature(PackedUserOperation calldata self) internal pure returns (bytes calldata) {\\n        if (\\n            self.paymasterAndData.length < 10 ||\\n            bytes8(self.paymasterAndData[self.paymasterAndData.length - 8:]) != PAYMASTER_SIG_MAGIC\\n        ) return Calldata.emptyBytes();\\n\\n        uint256 sigSize = _paymasterSignatureSize(self);\\n        uint256 sigEnd = self.paymasterAndData.length - 10;\\n        return\\n            self.paymasterAndData.length < 62 + sigSize\\n                ? Calldata.emptyBytes()\\n                : self.paymasterAndData[sigEnd - sigSize:sigEnd];\\n    }\\n\\n    /**\\n     * @dev Returns the size of the paymaster signature in `paymasterAndData` (EntryPoint v0.9+).\\n     * Does not check minimum length of `paymasterAndData`.\\n     */\\n    function _paymasterSignatureSize(PackedUserOperation calldata self) private pure returns (uint256) {\\n        return\\n            uint16(bytes2(self.paymasterAndData[self.paymasterAndData.length - 10:self.paymasterAndData.length - 8]));\\n    }\\n}\\n\"},\"@openzeppelin/contracts/utils/cryptography/signers/AbstractSigner.sol\":{\"content\":\"// SPDX-License-Identifier: MIT\\n// OpenZeppelin Contracts (last updated v5.4.0) (utils/cryptography/signers/AbstractSigner.sol)\\n\\npragma solidity ^0.8.20;\\n\\n/**\\n * @dev Abstract contract for signature validation.\\n *\\n * Developers must implement {_rawSignatureValidation} and use it as the lowest-level signature validation mechanism.\\n *\\n * @custom:stateless\\n */\\nabstract contract AbstractSigner {\\n    /**\\n     * @dev Signature validation algorithm.\\n     *\\n     * WARNING: Implementing a signature validation algorithm is a security-sensitive operation as it involves\\n     * cryptographic verification. It is important to review and test thoroughly before deployment. Consider\\n     * using one of the signature verification libraries (xref:api:utils/cryptography#ECDSA[ECDSA],\\n     * xref:api:utils/cryptography#P256[P256] or xref:api:utils/cryptography#RSA[RSA]).\\n     */\\n    function _rawSignatureValidation(bytes32 hash, bytes calldata signature) internal view virtual returns (bool);\\n}\\n\"},\"@openzeppelin/contracts/proxy/utils/Initializable.sol\":{\"content\":\"// SPDX-License-Identifier: MIT\\n// OpenZeppelin Contracts (last updated v5.3.0) (proxy/utils/Initializable.sol)\\n\\npragma solidity ^0.8.20;\\n\\n/**\\n * @dev This is a base contract to aid in writing upgradeable contracts, or any kind of contract that will be deployed\\n * behind a proxy. Since proxied contracts do not make use of a constructor, it's common to move constructor logic to an\\n * external initializer function, usually called `initialize`. It then becomes necessary to protect this initializer\\n * function so it can only be called once. The {initializer} modifier provided by this contract will have this effect.\\n *\\n * The initialization functions use a version number. Once a version number is used, it is consumed and cannot be\\n * reused. This mechanism prevents re-execution of each \\\"step\\\" but allows the creation of new initialization steps in\\n * case an upgrade adds a module that needs to be initialized.\\n *\\n * For example:\\n *\\n * [.hljs-theme-light.nopadding]\\n * ```solidity\\n * contract MyToken is ERC20Upgradeable {\\n *     function initialize() initializer public {\\n *         __ERC20_init(\\\"MyToken\\\", \\\"MTK\\\");\\n *     }\\n * }\\n *\\n * contract MyTokenV2 is MyToken, ERC20PermitUpgradeable {\\n *     function initializeV2() reinitializer(2) public {\\n *         __ERC20Permit_init(\\\"MyToken\\\");\\n *     }\\n * }\\n * ```\\n *\\n * TIP: To avoid leaving the proxy in an uninitialized state, the initializer function should be called as early as\\n * possible by providing the encoded function call as the `_data` argument to {ERC1967Proxy-constructor}.\\n *\\n * CAUTION: When used with inheritance, manual care must be taken to not invoke a parent initializer twice, or to ensure\\n * that all initializers are idempotent. This is not verified automatically as constructors are by Solidity.\\n *\\n * [CAUTION]\\n * ====\\n * Avoid leaving a contract uninitialized.\\n *\\n * An uninitialized contract can be taken over by an attacker. This applies to both a proxy and its implementation\\n * contract, which may impact the proxy. To prevent the implementation contract from being used, you should invoke\\n * the {_disableInitializers} function in the constructor to automatically lock it when it is deployed:\\n *\\n * [.hljs-theme-light.nopadding]\\n * ```\\n * /// @custom:oz-upgrades-unsafe-allow constructor\\n * constructor() {\\n *     _disableInitializers();\\n * }\\n * ```\\n * ====\\n */\\nabstract contract Initializable {\\n    /**\\n     * @dev Storage of the initializable contract.\\n     *\\n     * It's implemented on a custom ERC-7201 namespace to reduce the risk of storage collisions\\n     * when using with upgradeable contracts.\\n     *\\n     * @custom:storage-location erc7201:openzeppelin.storage.Initializable\\n     */\\n    struct InitializableStorage {\\n        /**\\n         * @dev Indicates that the contract has been initialized.\\n         */\\n        uint64 _initialized;\\n        /**\\n         * @dev Indicates that the contract is in the process of being initialized.\\n         */\\n        bool _initializing;\\n    }\\n\\n    // keccak256(abi.encode(uint256(keccak256(\\\"openzeppelin.storage.Initializable\\\")) - 1)) & ~bytes32(uint256(0xff))\\n    bytes32 private constant INITIALIZABLE_STORAGE = 0xf0c57e16840df040f15088dc2f81fe391c3923bec73e23a9662efc9c229c6a00;\\n\\n    /**\\n     * @dev The contract is already initialized.\\n     */\\n    error InvalidInitialization();\\n\\n    /**\\n     * @dev The contract is not initializing.\\n     */\\n    error NotInitializing();\\n\\n    /**\\n     * @dev Triggered when the contract has been initialized or reinitialized.\\n     */\\n    event Initialized(uint64 version);\\n\\n    /**\\n     * @dev A modifier that defines a protected initializer function that can be invoked at most once. In its scope,\\n     * `onlyInitializing` functions can be used to initialize parent contracts.\\n     *\\n     * Similar to `reinitializer(1)`, except that in the context of a constructor an `initializer` may be invoked any\\n     * number of times. This behavior in the constructor can be useful during testing and is not expected to be used in\\n     * production.\\n     *\\n     * Emits an {Initialized} event.\\n     */\\n    modifier initializer() {\\n        // solhint-disable-next-line var-name-mixedcase\\n        InitializableStorage storage $ = _getInitializableStorage();\\n\\n        // Cache values to avoid duplicated sloads\\n        bool isTopLevelCall = !$._initializing;\\n        uint64 initialized = $._initialized;\\n\\n        // Allowed calls:\\n        // - initialSetup: the contract is not in the initializing state and no previous version was\\n        //                 initialized\\n        // - construction: the contract is initialized at version 1 (no reinitialization) and the\\n        //                 current contract is just being deployed\\n        bool initialSetup = initialized == 0 && isTopLevelCall;\\n        bool construction = initialized == 1 && address(this).code.length == 0;\\n\\n        if (!initialSetup && !construction) {\\n            revert InvalidInitialization();\\n        }\\n        $._initialized = 1;\\n        if (isTopLevelCall) {\\n            $._initializing = true;\\n        }\\n        _;\\n        if (isTopLevelCall) {\\n            $._initializing = false;\\n            emit Initialized(1);\\n        }\\n    }\\n\\n    /**\\n     * @dev A modifier that defines a protected reinitializer function that can be invoked at most once, and only if the\\n     * contract hasn't been initialized to a greater version before. In its scope, `onlyInitializing` functions can be\\n     * used to initialize parent contracts.\\n     *\\n     * A reinitializer may be used after the original initialization step. This is essential to configure modules that\\n     * are added through upgrades and that require initialization.\\n     *\\n     * When `version` is 1, this modifier is similar to `initializer`, except that functions marked with `reinitializer`\\n     * cannot be nested. If one is invoked in the context of another, execution will revert.\\n     *\\n     * Note that versions can jump in increments greater than 1; this implies that if multiple reinitializers coexist in\\n     * a contract, executing them in the right order is up to the developer or operator.\\n     *\\n     * WARNING: Setting the version to 2**64 - 1 will prevent any future reinitialization.\\n     *\\n     * Emits an {Initialized} event.\\n     */\\n    modifier reinitializer(uint64 version) {\\n        // solhint-disable-next-line var-name-mixedcase\\n        InitializableStorage storage $ = _getInitializableStorage();\\n\\n        if ($._initializing || $._initialized >= version) {\\n            revert InvalidInitialization();\\n        }\\n        $._initialized = version;\\n        $._initializing = true;\\n        _;\\n        $._initializing = false;\\n        emit Initialized(version);\\n    }\\n\\n    /**\\n     * @dev Modifier to protect an initialization function so that it can only be invoked by functions with the\\n     * {initializer} and {reinitializer} modifiers, directly or indirectly.\\n     */\\n    modifier onlyInitializing() {\\n        _checkInitializing();\\n        _;\\n    }\\n\\n    /**\\n     * @dev Reverts if the contract is not in an initializing state. See {onlyInitializing}.\\n     */\\n    function _checkInitializing() internal view virtual {\\n        if (!_isInitializing()) {\\n            revert NotInitializing();\\n        }\\n    }\\n\\n    /**\\n     * @dev Locks the contract, preventing any future reinitialization. This cannot be part of an initializer call.\\n     * Calling this in the constructor of a contract will prevent that contract from being initialized or reinitialized\\n     * to any version. It is recommended to use this to lock implementation contracts that are designed to be called\\n     * through proxies.\\n     *\\n     * Emits an {Initialized} event the first time it is successfully executed.\\n     */\\n    function _disableInitializers() internal virtual {\\n        // solhint-disable-next-line var-name-mixedcase\\n        InitializableStorage storage $ = _getInitializableStorage();\\n\\n        if ($._initializing) {\\n            revert InvalidInitialization();\\n        }\\n        if ($._initialized != type(uint64).max) {\\n            $._initialized = type(uint64).max;\\n            emit Initialized(type(uint64).max);\\n        }\\n    }\\n\\n    /**\\n     * @dev Returns the highest version that has been initialized. See {reinitializer}.\\n     */\\n    function _getInitializedVersion() internal view returns (uint64) {\\n        return _getInitializableStorage()._initialized;\\n    }\\n\\n    /**\\n     * @dev Returns `true` if the contract is currently initializing. See {onlyInitializing}.\\n     */\\n    function _isInitializing() internal view returns (bool) {\\n        return _getInitializableStorage()._initializing;\\n    }\\n\\n    /**\\n     * @dev Pointer to storage slot. Allows integrators to override it with a custom storage location.\\n     *\\n     * NOTE: Consider following the ERC-7201 formula to derive storage locations.\\n     */\\n    function _initializableStorageSlot() internal pure virtual returns (bytes32) {\\n        return INITIALIZABLE_STORAGE;\\n    }\\n\\n    /**\\n     * @dev Returns a pointer to the storage namespace.\\n     */\\n    // solhint-disable-next-line var-name-mixedcase\\n    function _getInitializableStorage() private pure returns (InitializableStorage storage $) {\\n        bytes32 slot = _initializableStorageSlot();\\n        assembly {\\n            $.slot := slot\\n        }\\n    }\\n}\\n\"},\"@openzeppelin/contracts-upgradeable/utils/cryptography/signers/MultiSignerERC7913Upgradeable.sol\":{\"content\":\"// SPDX-License-Identifier: MIT\\n// OpenZeppelin Contracts (last updated v5.6.0) (utils/cryptography/signers/MultiSignerERC7913.sol)\\n\\npragma solidity ^0.8.26;\\n\\nimport {AbstractSigner} from \\\"@openzeppelin/contracts/utils/cryptography/signers/AbstractSigner.sol\\\";\\nimport {SignatureChecker} from \\\"@openzeppelin/contracts/utils/cryptography/SignatureChecker.sol\\\";\\nimport {EnumerableSet} from \\\"@openzeppelin/contracts/utils/structs/EnumerableSet.sol\\\";\\nimport {Initializable} from \\\"@openzeppelin/contracts/proxy/utils/Initializable.sol\\\";\\n\\n/**\\n * @dev Implementation of {AbstractSigner} using multiple ERC-7913 signers with a threshold-based\\n * signature verification system.\\n *\\n * This contract allows managing a set of authorized signers and requires a minimum number of\\n * signatures (threshold) to approve operations. It uses ERC-7913 formatted signers, which\\n * makes it natively compatible with ECDSA and ERC-1271 signers.\\n *\\n * Example of usage:\\n *\\n * ```solidity\\n * contract MyMultiSignerAccount is Account, MultiSignerERC7913, Initializable {\\n *     function initialize(bytes[] memory signers, uint64 threshold) public initializer {\\n *         _addSigners(signers);\\n *         _setThreshold(threshold);\\n *     }\\n *\\n *     function addSigners(bytes[] memory signers) public onlyEntryPointOrSelf {\\n *         _addSigners(signers);\\n *     }\\n *\\n *     function removeSigners(bytes[] memory signers) public onlyEntryPointOrSelf {\\n *         _removeSigners(signers);\\n *     }\\n *\\n *     function setThreshold(uint64 threshold) public onlyEntryPointOrSelf {\\n *         _setThreshold(threshold);\\n *     }\\n * }\\n * ```\\n *\\n * IMPORTANT: Failing to properly initialize the signers and threshold either during construction\\n * (if used standalone) or during initialization (if used as a clone) may leave the contract\\n * either front-runnable or unusable.\\n */\\nabstract contract MultiSignerERC7913Upgradeable is Initializable, AbstractSigner {\\n    using EnumerableSet for EnumerableSet.BytesSet;\\n    using SignatureChecker for *;\\n\\n    /// @custom:storage-location erc7201:openzeppelin.storage.MultiSignerERC7913\\n    struct MultiSignerERC7913Storage {\\n        EnumerableSet.BytesSet _signers;\\n        uint64 _threshold;\\n    }\\n\\n    // keccak256(abi.encode(uint256(keccak256(\\\"openzeppelin.storage.MultiSignerERC7913\\\")) - 1)) & ~bytes32(uint256(0xff))\\n    bytes32 private constant MultiSignerERC7913StorageLocation = 0xdfe169305a533e288e0557da8d289146d3cc75fa6e04c87599b048a60a4e5600;\\n\\n    function _getMultiSignerERC7913Storage() private pure returns (MultiSignerERC7913Storage storage $) {\\n        assembly {\\n            $.slot := MultiSignerERC7913StorageLocation\\n        }\\n    }\\n\\n    /// @dev Emitted when a signer is added.\\n    event ERC7913SignerAdded(bytes indexed signers);\\n\\n    /// @dev Emitted when a signers is removed.\\n    event ERC7913SignerRemoved(bytes indexed signers);\\n\\n    /// @dev Emitted when the threshold is updated.\\n    event ERC7913ThresholdSet(uint64 threshold);\\n\\n    /// @dev The `signer` already exists.\\n    error MultiSignerERC7913AlreadyExists(bytes signer);\\n\\n    /// @dev The `signer` does not exist.\\n    error MultiSignerERC7913NonexistentSigner(bytes signer);\\n\\n    /// @dev The `signer` is less than 20 bytes long.\\n    error MultiSignerERC7913InvalidSigner(bytes signer);\\n\\n    /// @dev The `threshold` is zero.\\n    error MultiSignerERC7913ZeroThreshold();\\n\\n    /// @dev The `threshold` is unreachable given the number of `signers`.\\n    error MultiSignerERC7913UnreachableThreshold(uint64 signers, uint64 threshold);\\n\\n    function __MultiSignerERC7913_init(bytes[] memory signers_, uint64 threshold_) internal onlyInitializing {\\n        __MultiSignerERC7913_init_unchained(signers_, threshold_);\\n    }\\n\\n    function __MultiSignerERC7913_init_unchained(bytes[] memory signers_, uint64 threshold_) internal onlyInitializing {\\n        _addSigners(signers_);\\n        _setThreshold(threshold_);\\n    }\\n\\n    /**\\n     * @dev Returns a slice of the set of authorized signers.\\n     *\\n     * Using `start = 0` and `end = type(uint64).max` will return the entire set of signers.\\n     *\\n     * WARNING: Depending on the `start` and `end`, this operation can copy a large amount of data to memory, which\\n     * can be expensive. This is designed for view accessors queried without gas fees. Using it in state-changing\\n     * functions may become uncallable if the slice grows too large.\\n     */\\n    function getSigners(uint64 start, uint64 end) public view virtual returns (bytes[] memory) {\\n        MultiSignerERC7913Storage storage $ = _getMultiSignerERC7913Storage();\\n        return $._signers.values(start, end);\\n    }\\n\\n    /// @dev Returns the number of authorized signers\\n    function getSignerCount() public view virtual returns (uint256) {\\n        MultiSignerERC7913Storage storage $ = _getMultiSignerERC7913Storage();\\n        return $._signers.length();\\n    }\\n\\n    /// @dev Returns whether the `signer` is an authorized signer.\\n    function isSigner(bytes memory signer) public view virtual returns (bool) {\\n        MultiSignerERC7913Storage storage $ = _getMultiSignerERC7913Storage();\\n        return $._signers.contains(signer);\\n    }\\n\\n    /// @dev Returns the minimum number of signers required to approve a multisignature operation.\\n    function threshold() public view virtual returns (uint64) {\\n        MultiSignerERC7913Storage storage $ = _getMultiSignerERC7913Storage();\\n        return $._threshold;\\n    }\\n\\n    /**\\n     * @dev Adds the `newSigners` to those allowed to sign on behalf of this contract.\\n     * Internal version without access control.\\n     *\\n     * Requirements:\\n     *\\n     * * Each of `newSigners` must be at least 20 bytes long. Reverts with {MultiSignerERC7913InvalidSigner} if not.\\n     * * Each of `newSigners` must not be authorized. See {isSigner}. Reverts with {MultiSignerERC7913AlreadyExists} if so.\\n     *\\n     * NOTE: This function does not validate that signers are controlled or represent appropriate entities. Integrators\\n     * must ensure signers are properly validated before adding them. Problematic signers can compromise\\n     * the multisig's security or functionality. Examples include uncontrolled addresses (e.g., `address(0)`),\\n     * the account's own address (which may cause recursive validation loops), or contracts that may unintentionally\\n     * allow arbitrary validation (e.g. using the identity precompile at `address(0x04)`, which would return the\\n     * ERC-1271 magic value for any `isValidSignature` call).\\n     */\\n    function _addSigners(bytes[] memory newSigners) internal virtual {\\n        MultiSignerERC7913Storage storage $ = _getMultiSignerERC7913Storage();\\n        for (uint256 i = 0; i < newSigners.length; ++i) {\\n            bytes memory signer = newSigners[i];\\n            require(signer.length >= 20, MultiSignerERC7913InvalidSigner(signer));\\n            require($._signers.add(signer), MultiSignerERC7913AlreadyExists(signer));\\n            emit ERC7913SignerAdded(signer);\\n        }\\n    }\\n\\n    /**\\n     * @dev Removes the `oldSigners` from the authorized signers. Internal version without access control.\\n     *\\n     * Requirements:\\n     *\\n     * * Each of `oldSigners` must be authorized. See {isSigner}. Otherwise {MultiSignerERC7913NonexistentSigner} is thrown.\\n     * * See {_validateReachableThreshold} for the threshold validation.\\n     */\\n    function _removeSigners(bytes[] memory oldSigners) internal virtual {\\n        MultiSignerERC7913Storage storage $ = _getMultiSignerERC7913Storage();\\n        for (uint256 i = 0; i < oldSigners.length; ++i) {\\n            bytes memory signer = oldSigners[i];\\n            require($._signers.remove(signer), MultiSignerERC7913NonexistentSigner(signer));\\n            emit ERC7913SignerRemoved(signer);\\n        }\\n        _validateReachableThreshold();\\n    }\\n\\n    /**\\n     * @dev Sets the signatures `threshold` required to approve a multisignature operation.\\n     * Internal version without access control.\\n     *\\n     * Requirements:\\n     *\\n     * * See {_validateReachableThreshold} for the threshold validation.\\n     */\\n    function _setThreshold(uint64 newThreshold) internal virtual {\\n        MultiSignerERC7913Storage storage $ = _getMultiSignerERC7913Storage();\\n        require(newThreshold > 0, MultiSignerERC7913ZeroThreshold());\\n        $._threshold = newThreshold;\\n        _validateReachableThreshold();\\n        emit ERC7913ThresholdSet(newThreshold);\\n    }\\n\\n    /**\\n     * @dev Validates the current threshold is reachable.\\n     *\\n     * Requirements:\\n     *\\n     * * The {getSignerCount} must be greater or equal than to the {threshold}. Throws\\n     * {MultiSignerERC7913UnreachableThreshold} if not.\\n     */\\n    function _validateReachableThreshold() internal view virtual {\\n        MultiSignerERC7913Storage storage $ = _getMultiSignerERC7913Storage();\\n        uint256 signersLength = $._signers.length();\\n        uint64 currentThreshold = threshold();\\n        require(\\n            signersLength >= currentThreshold,\\n            MultiSignerERC7913UnreachableThreshold(\\n                uint64(signersLength), // Safe cast. Economically impossible to overflow.\\n                currentThreshold\\n            )\\n        );\\n    }\\n\\n    /**\\n     * @dev Decodes, validates the signature and checks the signers are authorized.\\n     * See {_validateSignatures} and {_validateThreshold} for more details.\\n     *\\n     * Example of signature encoding:\\n     *\\n     * ```solidity\\n     * // Encode signers (verifier || key)\\n     * bytes memory signer1 = abi.encodePacked(verifier1, key1);\\n     * bytes memory signer2 = abi.encodePacked(verifier2, key2);\\n     *\\n     * // Order signers by their id\\n     * if (keccak256(signer1) > keccak256(signer2)) {\\n     *     (signer1, signer2) = (signer2, signer1);\\n     *     (signature1, signature2) = (signature2, signature1);\\n     * }\\n     *\\n     * // Assign ordered signers and signatures\\n     * bytes[] memory signers = new bytes[](2);\\n     * bytes[] memory signatures = new bytes[](2);\\n     * signers[0] = signer1;\\n     * signatures[0] = signature1;\\n     * signers[1] = signer2;\\n     * signatures[1] = signature2;\\n     *\\n     * // Encode the multi signature\\n     * bytes memory signature = abi.encode(signers, signatures);\\n     * ```\\n     *\\n     * Requirements:\\n     *\\n     * * The `signature` must be encoded as `abi.encode(signers, signatures)`.\\n     */\\n    function _rawSignatureValidation(\\n        bytes32 hash,\\n        bytes calldata signature\\n    ) internal view virtual override returns (bool) {\\n        if (signature.length == 0) return false; // For ERC-7739 compatibility\\n        (bytes[] memory signers, bytes[] memory signatures) = abi.decode(signature, (bytes[], bytes[]));\\n        return _validateThreshold(signers) && _validateSignatures(hash, signers, signatures);\\n    }\\n\\n    /**\\n     * @dev Validates the signatures using the signers and their corresponding signatures.\\n     * Returns whether the signers are authorized and the signatures are valid for the given hash.\\n     *\\n     * IMPORTANT: Sorting the signers by their `keccak256` hash will improve the gas efficiency of this function.\\n     * See {SignatureChecker-areValidSignaturesNow-bytes32-bytes[]-bytes[]} for more details.\\n     *\\n     * Requirements:\\n     *\\n     * * The `signatures` and `signers` arrays must be equal in length. Returns false otherwise.\\n     */\\n    function _validateSignatures(\\n        bytes32 hash,\\n        bytes[] memory signers,\\n        bytes[] memory signatures\\n    ) internal view virtual returns (bool valid) {\\n        for (uint256 i = 0; i < signers.length; ++i) {\\n            if (!isSigner(signers[i])) {\\n                return false;\\n            }\\n        }\\n        return hash.areValidSignaturesNow(signers, signatures);\\n    }\\n\\n    /**\\n     * @dev Validates that the number of signers meets the {threshold} requirement.\\n     * Assumes the signers were already validated. See {_validateSignatures} for more details.\\n     */\\n    function _validateThreshold(bytes[] memory validatingSigners) internal view virtual returns (bool) {\\n        return validatingSigners.length >= threshold();\\n    }\\n}\\n\"},\"@openzeppelin/contracts/utils/cryptography/SignatureChecker.sol\":{\"content\":\"// SPDX-License-Identifier: MIT\\n// OpenZeppelin Contracts (last updated v5.6.0) (utils/cryptography/SignatureChecker.sol)\\n\\npragma solidity ^0.8.24;\\n\\nimport {ECDSA} from \\\"./ECDSA.sol\\\";\\nimport {IERC1271} from \\\"../../interfaces/IERC1271.sol\\\";\\nimport {IERC7913SignatureVerifier} from \\\"../../interfaces/IERC7913.sol\\\";\\nimport {Bytes} from \\\"../Bytes.sol\\\";\\n\\n/**\\n * @dev Signature verification helper that can be used instead of `ECDSA.recover` to seamlessly support:\\n *\\n * * ECDSA signatures from externally owned accounts (EOAs)\\n * * ERC-1271 signatures from smart contract wallets like Argent and Safe Wallet (previously Gnosis Safe)\\n * * ERC-7913 signatures from keys that do not have an Ethereum address of their own\\n *\\n * See https://eips.ethereum.org/EIPS/eip-1271[ERC-1271] and https://eips.ethereum.org/EIPS/eip-7913[ERC-7913].\\n */\\nlibrary SignatureChecker {\\n    using Bytes for bytes;\\n\\n    /**\\n     * @dev Checks if a signature is valid for a given signer and data hash. If the signer has code, the\\n     * signature is validated against it using ERC-1271, otherwise it's validated using `ECDSA.recover`.\\n     *\\n     * NOTE: Unlike ECDSA signatures, contract signatures are revocable, and the outcome of this function can thus\\n     * change through time. It could return true at block N and false at block N+1 (or the opposite).\\n     *\\n     * NOTE: For an extended version of this function that supports ERC-7913 signatures, see {isValidSignatureNow-bytes-bytes32-bytes-}.\\n     */\\n    function isValidSignatureNow(address signer, bytes32 hash, bytes memory signature) internal view returns (bool) {\\n        if (signer.code.length == 0) {\\n            (address recovered, ECDSA.RecoverError err, ) = ECDSA.tryRecover(hash, signature);\\n            return err == ECDSA.RecoverError.NoError && recovered == signer;\\n        } else {\\n            return isValidERC1271SignatureNow(signer, hash, signature);\\n        }\\n    }\\n\\n    /**\\n     * @dev Variant of {isValidSignatureNow} that takes a signature in calldata\\n     */\\n    function isValidSignatureNowCalldata(\\n        address signer,\\n        bytes32 hash,\\n        bytes calldata signature\\n    ) internal view returns (bool) {\\n        if (signer.code.length == 0) {\\n            (address recovered, ECDSA.RecoverError err, ) = ECDSA.tryRecoverCalldata(hash, signature);\\n            return err == ECDSA.RecoverError.NoError && recovered == signer;\\n        } else {\\n            return isValidERC1271SignatureNowCalldata(signer, hash, signature);\\n        }\\n    }\\n\\n    /**\\n     * @dev Checks if a signature is valid for a given signer and data hash. The signature is validated\\n     * against the signer smart contract using ERC-1271.\\n     *\\n     * NOTE: Unlike ECDSA signatures, contract signatures are revocable, and the outcome of this function can thus\\n     * change through time. It could return true at block N and false at block N+1 (or the opposite).\\n     */\\n    function isValidERC1271SignatureNow(\\n        address signer,\\n        bytes32 hash,\\n        bytes memory signature\\n    ) internal view returns (bool result) {\\n        bytes4 selector = IERC1271.isValidSignature.selector;\\n        uint256 length = signature.length;\\n\\n        assembly (\\\"memory-safe\\\") {\\n            // Encoded calldata is :\\n            // [ 0x00 - 0x03 ] <selector>\\n            // [ 0x04 - 0x23 ] <hash>\\n            // [ 0x24 - 0x43 ] <signature offset> (0x40)\\n            // [ 0x44 - 0x63 ] <signature length>\\n            // [ 0x64 - ...  ] <signature data>\\n            let ptr := mload(0x40)\\n            mstore(ptr, selector)\\n            mstore(add(ptr, 0x04), hash)\\n            mstore(add(ptr, 0x24), 0x40)\\n            mcopy(add(ptr, 0x44), signature, add(length, 0x20))\\n\\n            let success := staticcall(gas(), signer, ptr, add(length, 0x64), 0x00, 0x20)\\n            result := and(success, and(gt(returndatasize(), 0x1f), eq(mload(0x00), selector)))\\n        }\\n    }\\n\\n    function isValidERC1271SignatureNowCalldata(\\n        address signer,\\n        bytes32 hash,\\n        bytes calldata signature\\n    ) internal view returns (bool result) {\\n        bytes4 selector = IERC1271.isValidSignature.selector;\\n        uint256 length = signature.length;\\n\\n        assembly (\\\"memory-safe\\\") {\\n            // Encoded calldata is :\\n            // [ 0x00 - 0x03 ] <selector>\\n            // [ 0x04 - 0x23 ] <hash>\\n            // [ 0x24 - 0x43 ] <signature offset> (0x40)\\n            // [ 0x44 - 0x63 ] <signature length>\\n            // [ 0x64 - ...  ] <signature data>\\n            let ptr := mload(0x40)\\n            mstore(ptr, selector)\\n            mstore(add(ptr, 0x04), hash)\\n            mstore(add(ptr, 0x24), 0x40)\\n            mstore(add(ptr, 0x44), length)\\n            calldatacopy(add(ptr, 0x64), signature.offset, length)\\n\\n            let success := staticcall(gas(), signer, ptr, add(length, 0x64), 0x00, 0x20)\\n            result := and(success, and(gt(returndatasize(), 0x1f), eq(mload(0x00), selector)))\\n        }\\n    }\\n\\n    /**\\n     * @dev Verifies a signature for a given ERC-7913 signer and hash.\\n     *\\n     * The signer is a `bytes` object that is the concatenation of an address and optionally a key:\\n     * `verifier || key`. A signer must be at least 20 bytes long.\\n     *\\n     * Verification is done as follows:\\n     *\\n     * * If `signer.length < 20`: verification fails\\n     * * If `signer.length == 20`: verification is done using {isValidSignatureNow}\\n     * * Otherwise: verification is done using {IERC7913SignatureVerifier}\\n     *\\n     * NOTE: Unlike ECDSA signatures, contract signatures are revocable, and the outcome of this function can thus\\n     * change through time. It could return true at block N and false at block N+1 (or the opposite).\\n     */\\n    function isValidSignatureNow(\\n        bytes memory signer,\\n        bytes32 hash,\\n        bytes memory signature\\n    ) internal view returns (bool) {\\n        if (signer.length < 20) {\\n            return false;\\n        } else if (signer.length == 20) {\\n            return isValidSignatureNow(address(bytes20(signer)), hash, signature);\\n        } else {\\n            (bool success, bytes memory result) = address(bytes20(signer)).staticcall(\\n                abi.encodeCall(IERC7913SignatureVerifier.verify, (signer.slice(20), hash, signature))\\n            );\\n            return (success &&\\n                result.length >= 32 &&\\n                abi.decode(result, (bytes32)) == bytes32(IERC7913SignatureVerifier.verify.selector));\\n        }\\n    }\\n\\n    /**\\n     * @dev Verifies multiple ERC-7913 `signatures` for a given `hash` using a set of `signers`.\\n     * Returns `false` if the number of signers and signatures is not the same.\\n     *\\n     * The signers should be ordered by their `keccak256` hash to ensure efficient duplication check. Unordered\\n     * signers are supported, but the uniqueness check will be more expensive.\\n     *\\n     * NOTE: Unlike ECDSA signatures, contract signatures are revocable, and the outcome of this function can thus\\n     * change through time. It could return true at block N and false at block N+1 (or the opposite).\\n     */\\n    function areValidSignaturesNow(\\n        bytes32 hash,\\n        bytes[] memory signers,\\n        bytes[] memory signatures\\n    ) internal view returns (bool) {\\n        if (signers.length != signatures.length) return false;\\n\\n        bytes32 lastId = bytes32(0);\\n\\n        for (uint256 i = 0; i < signers.length; ++i) {\\n            bytes memory signer = signers[i];\\n\\n            // If one of the signatures is invalid, reject the batch\\n            if (!isValidSignatureNow(signer, hash, signatures[i])) return false;\\n\\n            bytes32 id = keccak256(signer);\\n            // If the current signer ID is greater than all previous IDs, then this is a new signer.\\n            if (lastId < id) {\\n                lastId = id;\\n            } else {\\n                // If this signer id is not greater than all the previous ones, verify that it is not a duplicate of a previous one\\n                // This loop is never executed if the signers are ordered by id.\\n                for (uint256 j = 0; j < i; ++j) {\\n                    if (id == keccak256(signers[j])) return false;\\n                }\\n            }\\n        }\\n\\n        return true;\\n    }\\n}\\n\"},\"@openzeppelin/contracts/utils/cryptography/ECDSA.sol\":{\"content\":\"// SPDX-License-Identifier: MIT\\n// OpenZeppelin Contracts (last updated v5.6.0) (utils/cryptography/ECDSA.sol)\\n\\npragma solidity ^0.8.20;\\n\\n/**\\n * @dev Elliptic Curve Digital Signature Algorithm (ECDSA) operations.\\n *\\n * These functions can be used to verify that a message was signed by the holder\\n * of the private keys of a given address.\\n */\\nlibrary ECDSA {\\n    enum RecoverError {\\n        NoError,\\n        InvalidSignature,\\n        InvalidSignatureLength,\\n        InvalidSignatureS\\n    }\\n\\n    /**\\n     * @dev The signature is invalid.\\n     */\\n    error ECDSAInvalidSignature();\\n\\n    /**\\n     * @dev The signature has an invalid length.\\n     */\\n    error ECDSAInvalidSignatureLength(uint256 length);\\n\\n    /**\\n     * @dev The signature has an S value that is in the upper half order.\\n     */\\n    error ECDSAInvalidSignatureS(bytes32 s);\\n\\n    /**\\n     * @dev Returns the address that signed a hashed message (`hash`) with `signature` or an error. This will not\\n     * return address(0) without also returning an error description. Errors are documented using an enum (error type)\\n     * and a bytes32 providing additional information about the error.\\n     *\\n     * If no error is returned, then the address can be used for verification purposes.\\n     *\\n     * The `ecrecover` EVM precompile allows for malleable (non-unique) signatures:\\n     * this function rejects them by requiring the `s` value to be in the lower\\n     * half order, and the `v` value to be either 27 or 28.\\n     *\\n     * NOTE: This function only supports 65-byte signatures. ERC-2098 short signatures are rejected. This restriction\\n     * is DEPRECATED and will be removed in v6.0. Developers SHOULD NOT use signatures as unique identifiers; use hash\\n     * invalidation or nonces for replay protection.\\n     *\\n     * IMPORTANT: `hash` _must_ be the result of a hash operation for the\\n     * verification to be secure: it is possible to craft signatures that\\n     * recover to arbitrary addresses for non-hashed data. A safe way to ensure\\n     * this is by receiving a hash of the original message (which may otherwise\\n     * be too long), and then calling {MessageHashUtils-toEthSignedMessageHash} on it.\\n     *\\n     * Documentation for signature generation:\\n     *\\n     * - with https://web3js.readthedocs.io/en/v1.3.4/web3-eth-accounts.html#sign[Web3.js]\\n     * - with https://docs.ethers.io/v5/api/signer/#Signer-signMessage[ethers]\\n     */\\n    function tryRecover(\\n        bytes32 hash,\\n        bytes memory signature\\n    ) internal pure returns (address recovered, RecoverError err, bytes32 errArg) {\\n        if (signature.length == 65) {\\n            bytes32 r;\\n            bytes32 s;\\n            uint8 v;\\n            // ecrecover takes the signature parameters, and the only way to get them\\n            // currently is to use assembly.\\n            assembly (\\\"memory-safe\\\") {\\n                r := mload(add(signature, 0x20))\\n                s := mload(add(signature, 0x40))\\n                v := byte(0, mload(add(signature, 0x60)))\\n            }\\n            return tryRecover(hash, v, r, s);\\n        } else {\\n            return (address(0), RecoverError.InvalidSignatureLength, bytes32(signature.length));\\n        }\\n    }\\n\\n    /**\\n     * @dev Variant of {tryRecover} that takes a signature in calldata\\n     */\\n    function tryRecoverCalldata(\\n        bytes32 hash,\\n        bytes calldata signature\\n    ) internal pure returns (address recovered, RecoverError err, bytes32 errArg) {\\n        if (signature.length == 65) {\\n            bytes32 r;\\n            bytes32 s;\\n            uint8 v;\\n            // ecrecover takes the signature parameters, calldata slices would work here, but are\\n            // significantly more expensive (length check) than using calldataload in assembly.\\n            assembly (\\\"memory-safe\\\") {\\n                r := calldataload(signature.offset)\\n                s := calldataload(add(signature.offset, 0x20))\\n                v := byte(0, calldataload(add(signature.offset, 0x40)))\\n            }\\n            return tryRecover(hash, v, r, s);\\n        } else {\\n            return (address(0), RecoverError.InvalidSignatureLength, bytes32(signature.length));\\n        }\\n    }\\n\\n    /**\\n     * @dev Returns the address that signed a hashed message (`hash`) with\\n     * `signature`. This address can then be used for verification purposes.\\n     *\\n     * The `ecrecover` EVM precompile allows for malleable (non-unique) signatures:\\n     * this function rejects them by requiring the `s` value to be in the lower\\n     * half order, and the `v` value to be either 27 or 28.\\n     *\\n     * NOTE: This function only supports 65-byte signatures. ERC-2098 short signatures are rejected. This restriction\\n     * is DEPRECATED and will be removed in v6.0. Developers SHOULD NOT use signatures as unique identifiers; use hash\\n     * invalidation or nonces for replay protection.\\n     *\\n     * IMPORTANT: `hash` _must_ be the result of a hash operation for the\\n     * verification to be secure: it is possible to craft signatures that\\n     * recover to arbitrary addresses for non-hashed data. A safe way to ensure\\n     * this is by receiving a hash of the original message (which may otherwise\\n     * be too long), and then calling {MessageHashUtils-toEthSignedMessageHash} on it.\\n     */\\n    function recover(bytes32 hash, bytes memory signature) internal pure returns (address) {\\n        (address recovered, RecoverError error, bytes32 errorArg) = tryRecover(hash, signature);\\n        _throwError(error, errorArg);\\n        return recovered;\\n    }\\n\\n    /**\\n     * @dev Variant of {recover} that takes a signature in calldata\\n     */\\n    function recoverCalldata(bytes32 hash, bytes calldata signature) internal pure returns (address) {\\n        (address recovered, RecoverError error, bytes32 errorArg) = tryRecoverCalldata(hash, signature);\\n        _throwError(error, errorArg);\\n        return recovered;\\n    }\\n\\n    /**\\n     * @dev Overload of {ECDSA-tryRecover} that receives the `r` and `vs` short-signature fields separately.\\n     *\\n     * See https://eips.ethereum.org/EIPS/eip-2098[ERC-2098 short signatures]\\n     */\\n    function tryRecover(\\n        bytes32 hash,\\n        bytes32 r,\\n        bytes32 vs\\n    ) internal pure returns (address recovered, RecoverError err, bytes32 errArg) {\\n        unchecked {\\n            bytes32 s = vs & bytes32(0x7fffffffffffffffffffffffffffffffffffffffffffffffffffffffffffffff);\\n            // We do not check for an overflow here since the shift operation results in 0 or 1.\\n            uint8 v = uint8((uint256(vs) >> 255) + 27);\\n            return tryRecover(hash, v, r, s);\\n        }\\n    }\\n\\n    /**\\n     * @dev Overload of {ECDSA-recover} that receives the `r` and `vs` short-signature fields separately.\\n     */\\n    function recover(bytes32 hash, bytes32 r, bytes32 vs) internal pure returns (address) {\\n        (address recovered, RecoverError error, bytes32 errorArg) = tryRecover(hash, r, vs);\\n        _throwError(error, errorArg);\\n        return recovered;\\n    }\\n\\n    /**\\n     * @dev Overload of {ECDSA-tryRecover} that receives the `v`,\\n     * `r` and `s` signature fields separately.\\n     */\\n    function tryRecover(\\n        bytes32 hash,\\n        uint8 v,\\n        bytes32 r,\\n        bytes32 s\\n    ) internal pure returns (address recovered, RecoverError err, bytes32 errArg) {\\n        // EIP-2 still allows signature malleability for ecrecover(). Remove this possibility and make the signature\\n        // unique. Appendix F in the Ethereum Yellow paper (https://ethereum.github.io/yellowpaper/paper.pdf), defines\\n        // the valid range for s in (301): 0 < s < secp256k1n ÷ 2 + 1, and for v in (302): v ∈ {27, 28}. Most\\n        // signatures from current libraries generate a unique signature with an s-value in the lower half order.\\n        //\\n        // If your library generates malleable signatures, such as s-values in the upper range, calculate a new s-value\\n        // with 0xFFFFFFFFFFFFFFFFFFFFFFFFFFFFFFFEBAAEDCE6AF48A03BBFD25E8CD0364141 - s1 and flip v from 27 to 28 or\\n        // vice versa. If your library also generates signatures with 0/1 for v instead 27/28, add 27 to v to accept\\n        // these malleable signatures as well.\\n        if (uint256(s) > 0x7FFFFFFFFFFFFFFFFFFFFFFFFFFFFFFF5D576E7357A4501DDFE92F46681B20A0) {\\n            return (address(0), RecoverError.InvalidSignatureS, s);\\n        }\\n\\n        // If the signature is valid (and not malleable), return the signer address\\n        address signer = ecrecover(hash, v, r, s);\\n        if (signer == address(0)) {\\n            return (address(0), RecoverError.InvalidSignature, bytes32(0));\\n        }\\n\\n        return (signer, RecoverError.NoError, bytes32(0));\\n    }\\n\\n    /**\\n     * @dev Overload of {ECDSA-recover} that receives the `v`,\\n     * `r` and `s` signature fields separately.\\n     */\\n    function recover(bytes32 hash, uint8 v, bytes32 r, bytes32 s) internal pure returns (address) {\\n        (address recovered, RecoverError error, bytes32 errorArg) = tryRecover(hash, v, r, s);\\n        _throwError(error, errorArg);\\n        return recovered;\\n    }\\n\\n    /**\\n     * @dev Parse a signature into its `v`, `r` and `s` components. Supports 65-byte and 64-byte (ERC-2098)\\n     * formats. Returns (0,0,0) for invalid signatures.\\n     *\\n     * For 64-byte signatures, `v` is automatically normalized to 27 or 28.\\n     * For 65-byte signatures, `v` is returned as-is and MUST already be 27 or 28 for use with ecrecover.\\n     *\\n     * Consider validating the result before use, or use {tryRecover}/{recover} which perform full validation.\\n     */\\n    function parse(bytes memory signature) internal pure returns (uint8 v, bytes32 r, bytes32 s) {\\n        assembly (\\\"memory-safe\\\") {\\n            // Check the signature length\\n            switch mload(signature)\\n            // - case 65: r,s,v signature (standard)\\n            case 65 {\\n                r := mload(add(signature, 0x20))\\n                s := mload(add(signature, 0x40))\\n                v := byte(0, mload(add(signature, 0x60)))\\n            }\\n            // - case 64: r,vs signature (cf https://eips.ethereum.org/EIPS/eip-2098)\\n            case 64 {\\n                let vs := mload(add(signature, 0x40))\\n                r := mload(add(signature, 0x20))\\n                s := and(vs, shr(1, not(0)))\\n                v := add(shr(255, vs), 27)\\n            }\\n            default {\\n                r := 0\\n                s := 0\\n                v := 0\\n            }\\n        }\\n    }\\n\\n    /**\\n     * @dev Variant of {parse} that takes a signature in calldata\\n     */\\n    function parseCalldata(bytes calldata signature) internal pure returns (uint8 v, bytes32 r, bytes32 s) {\\n        assembly (\\\"memory-safe\\\") {\\n            // Check the signature length\\n            switch signature.length\\n            // - case 65: r,s,v signature (standard)\\n            case 65 {\\n                r := calldataload(signature.offset)\\n                s := calldataload(add(signature.offset, 0x20))\\n                v := byte(0, calldataload(add(signature.offset, 0x40)))\\n            }\\n            // - case 64: r,vs signature (cf https://eips.ethereum.org/EIPS/eip-2098)\\n            case 64 {\\n                let vs := calldataload(add(signature.offset, 0x20))\\n                r := calldataload(signature.offset)\\n                s := and(vs, shr(1, not(0)))\\n                v := add(shr(255, vs), 27)\\n            }\\n            default {\\n                r := 0\\n                s := 0\\n                v := 0\\n            }\\n        }\\n    }\\n\\n    /**\\n     * @dev Optionally reverts with the corresponding custom error according to the `error` argument provided.\\n     */\\n    function _throwError(RecoverError error, bytes32 errorArg) private pure {\\n        if (error == RecoverError.NoError) {\\n            return; // no error: do nothing\\n        } else if (error == RecoverError.InvalidSignature) {\\n            revert ECDSAInvalidSignature();\\n        } else if (error == RecoverError.InvalidSignatureLength) {\\n            revert ECDSAInvalidSignatureLength(uint256(errorArg));\\n        } else if (error == RecoverError.InvalidSignatureS) {\\n            revert ECDSAInvalidSignatureS(errorArg);\\n        }\\n    }\\n}\\n\"},\"@openzeppelin/contracts/interfaces/IERC7913.sol\":{\"content\":\"// SPDX-License-Identifier: MIT\\n// OpenZeppelin Contracts (last updated v5.4.0) (interfaces/IERC7913.sol)\\n\\npragma solidity >=0.5.0;\\n\\n/**\\n * @dev Signature verifier interface.\\n */\\ninterface IERC7913SignatureVerifier {\\n    /**\\n     * @dev Verifies `signature` as a valid signature of `hash` by `key`.\\n     *\\n     * MUST return the bytes4 magic value IERC7913SignatureVerifier.verify.selector if the signature is valid.\\n     * SHOULD return 0xffffffff or revert if the signature is not valid.\\n     * SHOULD return 0xffffffff or revert if the key is empty\\n     */\\n    function verify(bytes calldata key, bytes32 hash, bytes calldata signature) external view returns (bytes4);\\n}\\n\"},\"@openzeppelin/contracts/token/ERC1155/utils/ERC1155Holder.sol\":{\"content\":\"// SPDX-License-Identifier: MIT\\n// OpenZeppelin Contracts (last updated v5.5.0) (token/ERC1155/utils/ERC1155Holder.sol)\\n\\npragma solidity ^0.8.20;\\n\\nimport {IERC165, ERC165} from \\\"../../../utils/introspection/ERC165.sol\\\";\\nimport {IERC1155Receiver} from \\\"../IERC1155Receiver.sol\\\";\\n\\n/**\\n * @dev Simple implementation of `IERC1155Receiver` that will allow a contract to hold ERC-1155 tokens.\\n *\\n * IMPORTANT: When inheriting this contract, you must include a way to use the received tokens, otherwise they will be\\n * stuck.\\n *\\n * @custom:stateless\\n */\\nabstract contract ERC1155Holder is ERC165, IERC1155Receiver {\\n    /// @inheritdoc IERC165\\n    function supportsInterface(bytes4 interfaceId) public view virtual override(ERC165, IERC165) returns (bool) {\\n        return interfaceId == type(IERC1155Receiver).interfaceId || super.supportsInterface(interfaceId);\\n    }\\n\\n    function onERC1155Received(\\n        address,\\n        address,\\n        uint256,\\n        uint256,\\n        bytes memory\\n    ) public virtual override returns (bytes4) {\\n        return this.onERC1155Received.selector;\\n    }\\n\\n    function onERC1155BatchReceived(\\n        address,\\n        address,\\n        uint256[] memory,\\n        uint256[] memory,\\n        bytes memory\\n    ) public virtual override returns (bytes4) {\\n        return this.onERC1155BatchReceived.selector;\\n    }\\n}\\n\"},\"@openzeppelin/contracts/utils/introspection/ERC165.sol\":{\"content\":\"// SPDX-License-Identifier: MIT\\n// OpenZeppelin Contracts (last updated v5.4.0) (utils/introspection/ERC165.sol)\\n\\npragma solidity ^0.8.20;\\n\\nimport {IERC165} from \\\"./IERC165.sol\\\";\\n\\n/**\\n * @dev Implementation of the {IERC165} interface.\\n *\\n * Contracts that want to implement ERC-165 should inherit from this contract and override {supportsInterface} to check\\n * for the additional interface id that will be supported. For example:\\n *\\n * ```solidity\\n * function supportsInterface(bytes4 interfaceId) public view virtual override returns (bool) {\\n *     return interfaceId == type(MyInterface).interfaceId || super.supportsInterface(interfaceId);\\n * }\\n * ```\\n */\\nabstract contract ERC165 is IERC165 {\\n    /// @inheritdoc IERC165\\n    function supportsInterface(bytes4 interfaceId) public view virtual returns (bool) {\\n        return interfaceId == type(IERC165).interfaceId;\\n    }\\n}\\n\"},\"@openzeppelin/contracts/utils/introspection/IERC165.sol\":{\"content\":\"// SPDX-License-Identifier: MIT\\n// OpenZeppelin Contracts (last updated v5.4.0) (utils/introspection/IERC165.sol)\\n\\npragma solidity >=0.4.16;\\n\\n/**\\n * @dev Interface of the ERC-165 standard, as defined in the\\n * https://eips.ethereum.org/EIPS/eip-165[ERC].\\n *\\n * Implementers can declare support of contract interfaces, which can then be\\n * queried by others ({ERC165Checker}).\\n *\\n * For an implementation, see {ERC165}.\\n */\\ninterface IERC165 {\\n    /**\\n     * @dev Returns true if this contract implements the interface defined by\\n     * `interfaceId`. See the corresponding\\n     * https://eips.ethereum.org/EIPS/eip-165#how-interfaces-are-identified[ERC section]\\n     * to learn more about how these ids are created.\\n     *\\n     * This function call must use less than 30 000 gas.\\n     */\\n    function supportsInterface(bytes4 interfaceId) external view returns (bool);\\n}\\n\"},\"@openzeppelin/contracts/token/ERC1155/IERC1155Receiver.sol\":{\"content\":\"// SPDX-License-Identifier: MIT\\n// OpenZeppelin Contracts (last updated v5.4.0) (token/ERC1155/IERC1155Receiver.sol)\\n\\npragma solidity >=0.6.2;\\n\\nimport {IERC165} from \\\"../../utils/introspection/IERC165.sol\\\";\\n\\n/**\\n * @dev Interface that must be implemented by smart contracts in order to receive\\n * ERC-1155 token transfers.\\n */\\ninterface IERC1155Receiver is IERC165 {\\n    /**\\n     * @dev Handles the receipt of a single ERC-1155 token type. This function is\\n     * called at the end of a `safeTransferFrom` after the balance has been updated.\\n     *\\n     * NOTE: To accept the transfer, this must return\\n     * `bytes4(keccak256(\\\"onERC1155Received(address,address,uint256,uint256,bytes)\\\"))`\\n     * (i.e. 0xf23a6e61, or its own function selector).\\n     *\\n     * @param operator The address which initiated the transfer (i.e. msg.sender)\\n     * @param from The address which previously owned the token\\n     * @param id The ID of the token being transferred\\n     * @param value The amount of tokens being transferred\\n     * @param data Additional data with no specified format\\n     * @return `bytes4(keccak256(\\\"onERC1155Received(address,address,uint256,uint256,bytes)\\\"))` if transfer is allowed\\n     */\\n    function onERC1155Received(\\n        address operator,\\n        address from,\\n        uint256 id,\\n        uint256 value,\\n        bytes calldata data\\n    ) external returns (bytes4);\\n\\n    /**\\n     * @dev Handles the receipt of a multiple ERC-1155 token types. This function\\n     * is called at the end of a `safeBatchTransferFrom` after the balances have\\n     * been updated.\\n     *\\n     * NOTE: To accept the transfer(s), this must return\\n     * `bytes4(keccak256(\\\"onERC1155BatchReceived(address,address,uint256[],uint256[],bytes)\\\"))`\\n     * (i.e. 0xbc197c81, or its own function selector).\\n     *\\n     * @param operator The address which initiated the batch transfer (i.e. msg.sender)\\n     * @param from The address which previously owned the token\\n     * @param ids An array containing ids of each token being transferred (order and length must match values array)\\n     * @param values An array containing amounts of each token being transferred (order and length must match ids array)\\n     * @param data Additional data with no specified format\\n     * @return `bytes4(keccak256(\\\"onERC1155BatchReceived(address,address,uint256[],uint256[],bytes)\\\"))` if transfer is allowed\\n     */\\n    function onERC1155BatchReceived(\\n        address operator,\\n        address from,\\n        uint256[] calldata ids,\\n        uint256[] calldata values,\\n        bytes calldata data\\n    ) external returns (bytes4);\\n}\\n\"},\"@openzeppelin/contracts/token/ERC721/utils/ERC721Holder.sol\":{\"content\":\"// SPDX-License-Identifier: MIT\\n// OpenZeppelin Contracts (last updated v5.5.0) (token/ERC721/utils/ERC721Holder.sol)\\n\\npragma solidity ^0.8.20;\\n\\nimport {IERC721Receiver} from \\\"../IERC721Receiver.sol\\\";\\n\\n/**\\n * @dev Implementation of the {IERC721Receiver} interface.\\n *\\n * Accepts all token transfers.\\n * Make sure the contract is able to use its token with {IERC721-safeTransferFrom}, {IERC721-approve} or\\n * {IERC721-setApprovalForAll}.\\n *\\n * @custom:stateless\\n */\\nabstract contract ERC721Holder is IERC721Receiver {\\n    /**\\n     * @dev See {IERC721Receiver-onERC721Received}.\\n     *\\n     * Always returns `IERC721Receiver.onERC721Received.selector`.\\n     */\\n    function onERC721Received(address, address, uint256, bytes memory) public virtual returns (bytes4) {\\n        return this.onERC721Received.selector;\\n    }\\n}\\n\"},\"@openzeppelin/contracts/token/ERC721/IERC721Receiver.sol\":{\"content\":\"// SPDX-License-Identifier: MIT\\n// OpenZeppelin Contracts (last updated v5.4.0) (token/ERC721/IERC721Receiver.sol)\\n\\npragma solidity >=0.5.0;\\n\\n/**\\n * @title ERC-721 token receiver interface\\n * @dev Interface for any contract that wants to support safeTransfers\\n * from ERC-721 asset contracts.\\n */\\ninterface IERC721Receiver {\\n    /**\\n     * @dev Whenever an {IERC721} `tokenId` token is transferred to this contract via {IERC721-safeTransferFrom}\\n     * by `operator` from `from`, this function is called.\\n     *\\n     * It must return its Solidity selector to confirm the token transfer.\\n     * If any other value is returned or the interface is not implemented by the recipient, the transfer will be\\n     * reverted.\\n     *\\n     * The selector can be obtained in Solidity with `IERC721Receiver.onERC721Received.selector`.\\n     */\\n    function onERC721Received(\\n        address operator,\\n        address from,\\n        uint256 tokenId,\\n        bytes calldata data\\n    ) external returns (bytes4);\\n}\\n\"},\"@openzeppelin/contracts/utils/cryptography/EIP712.sol\":{\"content\":\"// SPDX-License-Identifier: MIT\\n// OpenZeppelin Contracts (last updated v5.5.0) (utils/cryptography/EIP712.sol)\\n\\npragma solidity ^0.8.24;\\n\\nimport {MessageHashUtils} from \\\"./MessageHashUtils.sol\\\";\\nimport {ShortStrings, ShortString} from \\\"../ShortStrings.sol\\\";\\nimport {IERC5267} from \\\"../../interfaces/IERC5267.sol\\\";\\n\\n/**\\n * @dev https://eips.ethereum.org/EIPS/eip-712[EIP-712] is a standard for hashing and signing of typed structured data.\\n *\\n * The encoding scheme specified in the EIP requires a domain separator and a hash of the typed structured data, whose\\n * encoding is very generic and therefore its implementation in Solidity is not feasible, thus this contract\\n * does not implement the encoding itself. Protocols need to implement the type-specific encoding they need in order to\\n * produce the hash of their typed data using a combination of `abi.encode` and `keccak256`.\\n *\\n * This contract implements the EIP-712 domain separator ({_domainSeparatorV4}) that is used as part of the encoding\\n * scheme, and the final step of the encoding to obtain the message digest that is then signed via ECDSA\\n * ({_hashTypedDataV4}).\\n *\\n * The implementation of the domain separator was designed to be as efficient as possible while still properly updating\\n * the chain id to protect against replay attacks on an eventual fork of the chain.\\n *\\n * NOTE: This contract implements the version of the encoding known as \\\"v4\\\", as implemented by the JSON RPC method\\n * https://docs.metamask.io/guide/signing-data.html[`eth_signTypedDataV4` in MetaMask].\\n *\\n * NOTE: In the upgradeable version of this contract, the cached values will correspond to the address, and the domain\\n * separator of the implementation contract. This will cause the {_domainSeparatorV4} function to always rebuild the\\n * separator from the immutable values, which is cheaper than accessing a cached version in cold storage.\\n *\\n * @custom:oz-upgrades-unsafe-allow state-variable-immutable\\n */\\nabstract contract EIP712 is IERC5267 {\\n    using ShortStrings for *;\\n\\n    bytes32 private constant TYPE_HASH =\\n        keccak256(\\\"EIP712Domain(string name,string version,uint256 chainId,address verifyingContract)\\\");\\n\\n    // Cache the domain separator as an immutable value, but also store the chain id that it corresponds to, in order to\\n    // invalidate the cached domain separator if the chain id changes.\\n    bytes32 private immutable _cachedDomainSeparator;\\n    uint256 private immutable _cachedChainId;\\n    address private immutable _cachedThis;\\n\\n    bytes32 private immutable _hashedName;\\n    bytes32 private immutable _hashedVersion;\\n\\n    ShortString private immutable _name;\\n    ShortString private immutable _version;\\n    // slither-disable-next-line constable-states\\n    string private _nameFallback;\\n    // slither-disable-next-line constable-states\\n    string private _versionFallback;\\n\\n    /**\\n     * @dev Initializes the domain separator and parameter caches.\\n     *\\n     * The meaning of `name` and `version` is specified in\\n     * https://eips.ethereum.org/EIPS/eip-712#definition-of-domainseparator[EIP-712]:\\n     *\\n     * - `name`: the user readable name of the signing domain, i.e. the name of the DApp or the protocol.\\n     * - `version`: the current major version of the signing domain.\\n     *\\n     * NOTE: These parameters cannot be changed except through a xref:learn::upgrading-smart-contracts.adoc[smart\\n     * contract upgrade].\\n     */\\n    constructor(string memory name, string memory version) {\\n        _name = name.toShortStringWithFallback(_nameFallback);\\n        _version = version.toShortStringWithFallback(_versionFallback);\\n        _hashedName = keccak256(bytes(name));\\n        _hashedVersion = keccak256(bytes(version));\\n\\n        _cachedChainId = block.chainid;\\n        _cachedDomainSeparator = _buildDomainSeparator();\\n        _cachedThis = address(this);\\n    }\\n\\n    /**\\n     * @dev Returns the domain separator for the current chain.\\n     */\\n    function _domainSeparatorV4() internal view returns (bytes32) {\\n        if (address(this) == _cachedThis && block.chainid == _cachedChainId) {\\n            return _cachedDomainSeparator;\\n        } else {\\n            return _buildDomainSeparator();\\n        }\\n    }\\n\\n    function _buildDomainSeparator() private view returns (bytes32) {\\n        return keccak256(abi.encode(TYPE_HASH, _hashedName, _hashedVersion, block.chainid, address(this)));\\n    }\\n\\n    /**\\n     * @dev Given an already https://eips.ethereum.org/EIPS/eip-712#definition-of-hashstruct[hashed struct], this\\n     * function returns the hash of the fully encoded EIP712 message for this domain.\\n     *\\n     * This hash can be used together with {ECDSA-recover} to obtain the signer of a message. For example:\\n     *\\n     * ```solidity\\n     * bytes32 digest = _hashTypedDataV4(keccak256(abi.encode(\\n     *     keccak256(\\\"Mail(address to,string contents)\\\"),\\n     *     mailTo,\\n     *     keccak256(bytes(mailContents))\\n     * )));\\n     * address signer = ECDSA.recover(digest, signature);\\n     * ```\\n     */\\n    function _hashTypedDataV4(bytes32 structHash) internal view virtual returns (bytes32) {\\n        return MessageHashUtils.toTypedDataHash(_domainSeparatorV4(), structHash);\\n    }\\n\\n    /// @inheritdoc IERC5267\\n    function eip712Domain()\\n        public\\n        view\\n        virtual\\n        returns (\\n            bytes1 fields,\\n            string memory name,\\n            string memory version,\\n            uint256 chainId,\\n            address verifyingContract,\\n            bytes32 salt,\\n            uint256[] memory extensions\\n        )\\n    {\\n        return (\\n            hex\\\"0f\\\", // 01111\\n            _EIP712Name(),\\n            _EIP712Version(),\\n            block.chainid,\\n            address(this),\\n            bytes32(0),\\n            new uint256[](0)\\n        );\\n    }\\n\\n    /**\\n     * @dev The name parameter for the EIP712 domain.\\n     *\\n     * NOTE: By default this function reads _name which is an immutable value.\\n     * It only reads from storage if necessary (in case the value is too large to fit in a ShortString).\\n     */\\n    // solhint-disable-next-line func-name-mixedcase\\n    function _EIP712Name() internal view returns (string memory) {\\n        return _name.toStringWithFallback(_nameFallback);\\n    }\\n\\n    /**\\n     * @dev The version parameter for the EIP712 domain.\\n     *\\n     * NOTE: By default this function reads _version which is an immutable value.\\n     * It only reads from storage if necessary (in case the value is too large to fit in a ShortString).\\n     */\\n    // solhint-disable-next-line func-name-mixedcase\\n    function _EIP712Version() internal view returns (string memory) {\\n        return _version.toStringWithFallback(_versionFallback);\\n    }\\n}\\n\"},\"@openzeppelin/contracts/utils/cryptography/MessageHashUtils.sol\":{\"content\":\"// SPDX-License-Identifier: MIT\\n// OpenZeppelin Contracts (last updated v5.6.0) (utils/cryptography/MessageHashUtils.sol)\\n\\npragma solidity ^0.8.24;\\n\\nimport {Strings} from \\\"../Strings.sol\\\";\\n\\n/**\\n * @dev Signature message hash utilities for producing digests to be consumed by {ECDSA} recovery or signing.\\n *\\n * The library provides methods for generating a hash of a message that conforms to the\\n * https://eips.ethereum.org/EIPS/eip-191[ERC-191] and https://eips.ethereum.org/EIPS/eip-712[EIP 712]\\n * specifications.\\n */\\nlibrary MessageHashUtils {\\n    error ERC5267ExtensionsNotSupported();\\n\\n    /**\\n     * @dev Returns the keccak256 digest of an ERC-191 signed data with version\\n     * `0x45` (`personal_sign` messages).\\n     *\\n     * The digest is calculated by prefixing a bytes32 `messageHash` with\\n     * `\\\"\\\\x19Ethereum Signed Message:\\\\n32\\\"` and hashing the result. It corresponds with the\\n     * hash signed when using the https://ethereum.org/en/developers/docs/apis/json-rpc/#eth_sign[`eth_sign`] JSON-RPC method.\\n     *\\n     * NOTE: The `messageHash` parameter is intended to be the result of hashing a raw message with\\n     * keccak256, although any bytes32 value can be safely used because the final digest will\\n     * be re-hashed.\\n     *\\n     * See {ECDSA-recover}.\\n     */\\n    function toEthSignedMessageHash(bytes32 messageHash) internal pure returns (bytes32 digest) {\\n        assembly (\\\"memory-safe\\\") {\\n            mstore(0x00, \\\"\\\\x19Ethereum Signed Message:\\\\n32\\\") // 32 is the bytes-length of messageHash\\n            mstore(0x1c, messageHash) // 0x1c (28) is the length of the prefix\\n            digest := keccak256(0x00, 0x3c) // 0x3c is the length of the prefix (0x1c) + messageHash (0x20)\\n        }\\n    }\\n\\n    /**\\n     * @dev Returns the keccak256 digest of an ERC-191 signed data with version\\n     * `0x45` (`personal_sign` messages).\\n     *\\n     * The digest is calculated by prefixing an arbitrary `message` with\\n     * `\\\"\\\\x19Ethereum Signed Message:\\\\n\\\" + len(message)` and hashing the result. It corresponds with the\\n     * hash signed when using the https://ethereum.org/en/developers/docs/apis/json-rpc/#eth_sign[`eth_sign`] JSON-RPC method.\\n     *\\n     * See {ECDSA-recover}.\\n     */\\n    function toEthSignedMessageHash(bytes memory message) internal pure returns (bytes32) {\\n        return\\n            keccak256(bytes.concat(\\\"\\\\x19Ethereum Signed Message:\\\\n\\\", bytes(Strings.toString(message.length)), message));\\n    }\\n\\n    /**\\n     * @dev Returns the keccak256 digest of an ERC-191 signed data with version\\n     * `0x00` (data with intended validator).\\n     *\\n     * The digest is calculated by prefixing an arbitrary `data` with `\\\"\\\\x19\\\\x00\\\"` and the intended\\n     * `validator` address. Then hashing the result.\\n     *\\n     * See {ECDSA-recover}.\\n     */\\n    function toDataWithIntendedValidatorHash(address validator, bytes memory data) internal pure returns (bytes32) {\\n        return keccak256(abi.encodePacked(hex\\\"19_00\\\", validator, data));\\n    }\\n\\n    /**\\n     * @dev Variant of {toDataWithIntendedValidatorHash-address-bytes} optimized for cases where `data` is a bytes32.\\n     */\\n    function toDataWithIntendedValidatorHash(\\n        address validator,\\n        bytes32 messageHash\\n    ) internal pure returns (bytes32 digest) {\\n        assembly (\\\"memory-safe\\\") {\\n            mstore(0x00, hex\\\"19_00\\\")\\n            mstore(0x02, shl(96, validator))\\n            mstore(0x16, messageHash)\\n            digest := keccak256(0x00, 0x36)\\n        }\\n    }\\n\\n    /**\\n     * @dev Returns the keccak256 digest of an EIP-712 typed data (ERC-191 version `0x01`).\\n     *\\n     * The digest is calculated from a `domainSeparator` and a `structHash`, by prefixing them with\\n     * `\\\\x19\\\\x01` and hashing the result. It corresponds to the hash signed by the\\n     * https://eips.ethereum.org/EIPS/eip-712[`eth_signTypedData`] JSON-RPC method as part of EIP-712.\\n     *\\n     * See {ECDSA-recover}.\\n     */\\n    function toTypedDataHash(bytes32 domainSeparator, bytes32 structHash) internal pure returns (bytes32 digest) {\\n        assembly (\\\"memory-safe\\\") {\\n            let ptr := mload(0x40)\\n            mstore(ptr, hex\\\"19_01\\\")\\n            mstore(add(ptr, 0x02), domainSeparator)\\n            mstore(add(ptr, 0x22), structHash)\\n            digest := keccak256(ptr, 0x42)\\n        }\\n    }\\n\\n    /**\\n     * @dev Returns the EIP-712 domain separator constructed from an `eip712Domain`. See {IERC5267-eip712Domain}\\n     *\\n     * This function dynamically constructs the domain separator based on which fields are present in the\\n     * `fields` parameter. It contains flags that indicate which domain fields are present:\\n     *\\n     * * Bit 0 (0x01): name\\n     * * Bit 1 (0x02): version\\n     * * Bit 2 (0x04): chainId\\n     * * Bit 3 (0x08): verifyingContract\\n     * * Bit 4 (0x10): salt\\n     *\\n     * Arguments that correspond to fields which are not present in `fields` are ignored. For example, if `fields` is\\n     * `0x0f` (`0b01111`), then the `salt` parameter is ignored.\\n     */\\n    function toDomainSeparator(\\n        bytes1 fields,\\n        string memory name,\\n        string memory version,\\n        uint256 chainId,\\n        address verifyingContract,\\n        bytes32 salt\\n    ) internal pure returns (bytes32 hash) {\\n        return\\n            toDomainSeparator(\\n                fields,\\n                keccak256(bytes(name)),\\n                keccak256(bytes(version)),\\n                chainId,\\n                verifyingContract,\\n                salt\\n            );\\n    }\\n\\n    /// @dev Variant of {toDomainSeparator-bytes1-string-string-uint256-address-bytes32} that uses hashed name and version.\\n    function toDomainSeparator(\\n        bytes1 fields,\\n        bytes32 nameHash,\\n        bytes32 versionHash,\\n        uint256 chainId,\\n        address verifyingContract,\\n        bytes32 salt\\n    ) internal pure returns (bytes32 hash) {\\n        bytes32 domainTypeHash = toDomainTypeHash(fields);\\n\\n        assembly (\\\"memory-safe\\\") {\\n            // align fields to the right for easy processing\\n            fields := shr(248, fields)\\n\\n            // FMP used as scratch space\\n            let fmp := mload(0x40)\\n            mstore(fmp, domainTypeHash)\\n\\n            let ptr := add(fmp, 0x20)\\n            if and(fields, 0x01) {\\n                mstore(ptr, nameHash)\\n                ptr := add(ptr, 0x20)\\n            }\\n            if and(fields, 0x02) {\\n                mstore(ptr, versionHash)\\n                ptr := add(ptr, 0x20)\\n            }\\n            if and(fields, 0x04) {\\n                mstore(ptr, chainId)\\n                ptr := add(ptr, 0x20)\\n            }\\n            if and(fields, 0x08) {\\n                mstore(ptr, verifyingContract)\\n                ptr := add(ptr, 0x20)\\n            }\\n            if and(fields, 0x10) {\\n                mstore(ptr, salt)\\n                ptr := add(ptr, 0x20)\\n            }\\n\\n            hash := keccak256(fmp, sub(ptr, fmp))\\n        }\\n    }\\n\\n    /// @dev Builds an EIP-712 domain type hash depending on the `fields` provided, following https://eips.ethereum.org/EIPS/eip-5267[ERC-5267]\\n    function toDomainTypeHash(bytes1 fields) internal pure returns (bytes32 hash) {\\n        if (fields & 0x20 == 0x20) revert ERC5267ExtensionsNotSupported();\\n\\n        assembly (\\\"memory-safe\\\") {\\n            // align fields to the right for easy processing\\n            fields := shr(248, fields)\\n\\n            // FMP used as scratch space\\n            let fmp := mload(0x40)\\n            mstore(fmp, \\\"EIP712Domain(\\\")\\n\\n            let ptr := add(fmp, 0x0d)\\n            // name field\\n            if and(fields, 0x01) {\\n                mstore(ptr, \\\"string name,\\\")\\n                ptr := add(ptr, 0x0c)\\n            }\\n            // version field\\n            if and(fields, 0x02) {\\n                mstore(ptr, \\\"string version,\\\")\\n                ptr := add(ptr, 0x0f)\\n            }\\n            // chainId field\\n            if and(fields, 0x04) {\\n                mstore(ptr, \\\"uint256 chainId,\\\")\\n                ptr := add(ptr, 0x10)\\n            }\\n            // verifyingContract field\\n            if and(fields, 0x08) {\\n                mstore(ptr, \\\"address verifyingContract,\\\")\\n                ptr := add(ptr, 0x1a)\\n            }\\n            // salt field\\n            if and(fields, 0x10) {\\n                mstore(ptr, \\\"bytes32 salt,\\\")\\n                ptr := add(ptr, 0x0d)\\n            }\\n            // if any field is enabled, remove the trailing comma\\n            ptr := sub(ptr, iszero(iszero(and(fields, 0x1f))))\\n            // add the closing brace\\n            mstore8(ptr, 0x29) // add closing brace\\n            ptr := add(ptr, 1)\\n\\n            hash := keccak256(fmp, sub(ptr, fmp))\\n        }\\n    }\\n}\\n\"},\"@openzeppelin/contracts/utils/Strings.sol\":{\"content\":\"// SPDX-License-Identifier: MIT\\n// OpenZeppelin Contracts (last updated v5.6.0) (utils/Strings.sol)\\n\\npragma solidity ^0.8.24;\\n\\nimport {Math} from \\\"./math/Math.sol\\\";\\nimport {SafeCast} from \\\"./math/SafeCast.sol\\\";\\nimport {SignedMath} from \\\"./math/SignedMath.sol\\\";\\nimport {Bytes} from \\\"./Bytes.sol\\\";\\n\\n/**\\n * @dev String operations.\\n */\\nlibrary Strings {\\n    using SafeCast for *;\\n\\n    bytes16 private constant HEX_DIGITS = \\\"0123456789abcdef\\\";\\n    uint8 private constant ADDRESS_LENGTH = 20;\\n    uint256 private constant SPECIAL_CHARS_LOOKUP =\\n        0xffffffff | // first 32 bits corresponding to the control characters (U+0000 to U+001F)\\n            (1 << 0x22) | // double quote\\n            (1 << 0x5c); // backslash\\n\\n    /**\\n     * @dev The `value` string doesn't fit in the specified `length`.\\n     */\\n    error StringsInsufficientHexLength(uint256 value, uint256 length);\\n\\n    /**\\n     * @dev The string being parsed contains characters that are not in scope of the given base.\\n     */\\n    error StringsInvalidChar();\\n\\n    /**\\n     * @dev The string being parsed is not a properly formatted address.\\n     */\\n    error StringsInvalidAddressFormat();\\n\\n    /**\\n     * @dev Converts a `uint256` to its ASCII `string` decimal representation.\\n     */\\n    function toString(uint256 value) internal pure returns (string memory) {\\n        unchecked {\\n            uint256 length = Math.log10(value) + 1;\\n            string memory buffer = new string(length);\\n            uint256 ptr;\\n            assembly (\\\"memory-safe\\\") {\\n                ptr := add(add(buffer, 0x20), length)\\n            }\\n            while (true) {\\n                ptr--;\\n                assembly (\\\"memory-safe\\\") {\\n                    mstore8(ptr, byte(mod(value, 10), HEX_DIGITS))\\n                }\\n                value /= 10;\\n                if (value == 0) break;\\n            }\\n            return buffer;\\n        }\\n    }\\n\\n    /**\\n     * @dev Converts a `int256` to its ASCII `string` decimal representation.\\n     */\\n    function toStringSigned(int256 value) internal pure returns (string memory) {\\n        return string.concat(value < 0 ? \\\"-\\\" : \\\"\\\", toString(SignedMath.abs(value)));\\n    }\\n\\n    /**\\n     * @dev Converts a `uint256` to its ASCII `string` hexadecimal representation.\\n     */\\n    function toHexString(uint256 value) internal pure returns (string memory) {\\n        unchecked {\\n            return toHexString(value, Math.log256(value) + 1);\\n        }\\n    }\\n\\n    /**\\n     * @dev Converts a `uint256` to its ASCII `string` hexadecimal representation with fixed length.\\n     */\\n    function toHexString(uint256 value, uint256 length) internal pure returns (string memory) {\\n        uint256 localValue = value;\\n        bytes memory buffer = new bytes(2 * length + 2);\\n        buffer[0] = \\\"0\\\";\\n        buffer[1] = \\\"x\\\";\\n        for (uint256 i = 2 * length + 1; i > 1; --i) {\\n            buffer[i] = HEX_DIGITS[localValue & 0xf];\\n            localValue >>= 4;\\n        }\\n        if (localValue != 0) {\\n            revert StringsInsufficientHexLength(value, length);\\n        }\\n        return string(buffer);\\n    }\\n\\n    /**\\n     * @dev Converts an `address` with fixed length of 20 bytes to its not checksummed ASCII `string` hexadecimal\\n     * representation.\\n     */\\n    function toHexString(address addr) internal pure returns (string memory) {\\n        return toHexString(uint256(uint160(addr)), ADDRESS_LENGTH);\\n    }\\n\\n    /**\\n     * @dev Converts an `address` with fixed length of 20 bytes to its checksummed ASCII `string` hexadecimal\\n     * representation, according to EIP-55.\\n     */\\n    function toChecksumHexString(address addr) internal pure returns (string memory) {\\n        bytes memory buffer = bytes(toHexString(addr));\\n\\n        // hash the hex part of buffer (skip length + 2 bytes, length 40)\\n        uint256 hashValue;\\n        assembly (\\\"memory-safe\\\") {\\n            hashValue := shr(96, keccak256(add(buffer, 0x22), 40))\\n        }\\n\\n        for (uint256 i = 41; i > 1; --i) {\\n            // possible values for buffer[i] are 48 (0) to 57 (9) and 97 (a) to 102 (f)\\n            if (hashValue & 0xf > 7 && uint8(buffer[i]) > 96) {\\n                // case shift by xoring with 0x20\\n                buffer[i] ^= 0x20;\\n            }\\n            hashValue >>= 4;\\n        }\\n        return string(buffer);\\n    }\\n\\n    /**\\n     * @dev Converts a `bytes` buffer to its ASCII `string` hexadecimal representation.\\n     */\\n    function toHexString(bytes memory input) internal pure returns (string memory) {\\n        unchecked {\\n            bytes memory buffer = new bytes(2 * input.length + 2);\\n            buffer[0] = \\\"0\\\";\\n            buffer[1] = \\\"x\\\";\\n            for (uint256 i = 0; i < input.length; ++i) {\\n                uint8 v = uint8(input[i]);\\n                buffer[2 * i + 2] = HEX_DIGITS[v >> 4];\\n                buffer[2 * i + 3] = HEX_DIGITS[v & 0xf];\\n            }\\n            return string(buffer);\\n        }\\n    }\\n\\n    /**\\n     * @dev Returns true if the two strings are equal.\\n     */\\n    function equal(string memory a, string memory b) internal pure returns (bool) {\\n        return Bytes.equal(bytes(a), bytes(b));\\n    }\\n\\n    /**\\n     * @dev Parse a decimal string and returns the value as a `uint256`.\\n     *\\n     * Requirements:\\n     * - The string must be formatted as `[0-9]*`\\n     * - The result must fit into an `uint256` type\\n     */\\n    function parseUint(string memory input) internal pure returns (uint256) {\\n        return parseUint(input, 0, bytes(input).length);\\n    }\\n\\n    /**\\n     * @dev Variant of {parseUint-string} that parses a substring of `input` located between position `begin` (included) and\\n     * `end` (excluded).\\n     *\\n     * Requirements:\\n     * - The substring must be formatted as `[0-9]*`\\n     * - The result must fit into an `uint256` type\\n     */\\n    function parseUint(string memory input, uint256 begin, uint256 end) internal pure returns (uint256) {\\n        (bool success, uint256 value) = tryParseUint(input, begin, end);\\n        if (!success) revert StringsInvalidChar();\\n        return value;\\n    }\\n\\n    /**\\n     * @dev Variant of {parseUint-string} that returns false if the parsing fails because of an invalid character.\\n     *\\n     * NOTE: This function will revert if the result does not fit in a `uint256`.\\n     */\\n    function tryParseUint(string memory input) internal pure returns (bool success, uint256 value) {\\n        return _tryParseUintUncheckedBounds(input, 0, bytes(input).length);\\n    }\\n\\n    /**\\n     * @dev Variant of {parseUint-string-uint256-uint256} that returns false if the parsing fails because of an invalid\\n     * character.\\n     *\\n     * NOTE: This function will revert if the result does not fit in a `uint256`.\\n     */\\n    function tryParseUint(\\n        string memory input,\\n        uint256 begin,\\n        uint256 end\\n    ) internal pure returns (bool success, uint256 value) {\\n        if (end > bytes(input).length || begin > end) return (false, 0);\\n        return _tryParseUintUncheckedBounds(input, begin, end);\\n    }\\n\\n    /**\\n     * @dev Implementation of {tryParseUint-string-uint256-uint256} that does not check bounds. Caller should make sure that\\n     * `begin <= end <= input.length`. Other inputs would result in undefined behavior.\\n     */\\n    function _tryParseUintUncheckedBounds(\\n        string memory input,\\n        uint256 begin,\\n        uint256 end\\n    ) private pure returns (bool success, uint256 value) {\\n        bytes memory buffer = bytes(input);\\n\\n        uint256 result = 0;\\n        for (uint256 i = begin; i < end; ++i) {\\n            uint8 chr = _tryParseChr(bytes1(_unsafeReadBytesOffset(buffer, i)));\\n            if (chr > 9) return (false, 0);\\n            result *= 10;\\n            result += chr;\\n        }\\n        return (true, result);\\n    }\\n\\n    /**\\n     * @dev Parse a decimal string and returns the value as a `int256`.\\n     *\\n     * Requirements:\\n     * - The string must be formatted as `[-+]?[0-9]*`\\n     * - The result must fit in an `int256` type.\\n     */\\n    function parseInt(string memory input) internal pure returns (int256) {\\n        return parseInt(input, 0, bytes(input).length);\\n    }\\n\\n    /**\\n     * @dev Variant of {parseInt-string} that parses a substring of `input` located between position `begin` (included) and\\n     * `end` (excluded).\\n     *\\n     * Requirements:\\n     * - The substring must be formatted as `[-+]?[0-9]*`\\n     * - The result must fit in an `int256` type.\\n     */\\n    function parseInt(string memory input, uint256 begin, uint256 end) internal pure returns (int256) {\\n        (bool success, int256 value) = tryParseInt(input, begin, end);\\n        if (!success) revert StringsInvalidChar();\\n        return value;\\n    }\\n\\n    /**\\n     * @dev Variant of {parseInt-string} that returns false if the parsing fails because of an invalid character or if\\n     * the result does not fit in a `int256`.\\n     *\\n     * NOTE: This function will revert if the absolute value of the result does not fit in a `uint256`.\\n     */\\n    function tryParseInt(string memory input) internal pure returns (bool success, int256 value) {\\n        return _tryParseIntUncheckedBounds(input, 0, bytes(input).length);\\n    }\\n\\n    uint256 private constant ABS_MIN_INT256 = 2 ** 255;\\n\\n    /**\\n     * @dev Variant of {parseInt-string-uint256-uint256} that returns false if the parsing fails because of an invalid\\n     * character or if the result does not fit in a `int256`.\\n     *\\n     * NOTE: This function will revert if the absolute value of the result does not fit in a `uint256`.\\n     */\\n    function tryParseInt(\\n        string memory input,\\n        uint256 begin,\\n        uint256 end\\n    ) internal pure returns (bool success, int256 value) {\\n        if (end > bytes(input).length || begin > end) return (false, 0);\\n        return _tryParseIntUncheckedBounds(input, begin, end);\\n    }\\n\\n    /**\\n     * @dev Implementation of {tryParseInt-string-uint256-uint256} that does not check bounds. Caller should make sure that\\n     * `begin <= end <= input.length`. Other inputs would result in undefined behavior.\\n     */\\n    function _tryParseIntUncheckedBounds(\\n        string memory input,\\n        uint256 begin,\\n        uint256 end\\n    ) private pure returns (bool success, int256 value) {\\n        bytes memory buffer = bytes(input);\\n\\n        // Check presence of a negative sign.\\n        bytes1 sign = begin == end ? bytes1(0) : bytes1(_unsafeReadBytesOffset(buffer, begin)); // don't do out-of-bound (possibly unsafe) read if sub-string is empty\\n        bool positiveSign = sign == bytes1(\\\"+\\\");\\n        bool negativeSign = sign == bytes1(\\\"-\\\");\\n        uint256 offset = (positiveSign || negativeSign).toUint();\\n\\n        (bool absSuccess, uint256 absValue) = tryParseUint(input, begin + offset, end);\\n\\n        if (absSuccess && absValue < ABS_MIN_INT256) {\\n            return (true, negativeSign ? -int256(absValue) : int256(absValue));\\n        } else if (absSuccess && negativeSign && absValue == ABS_MIN_INT256) {\\n            return (true, type(int256).min);\\n        } else return (false, 0);\\n    }\\n\\n    /**\\n     * @dev Parse a hexadecimal string (with or without \\\"0x\\\" prefix), and returns the value as a `uint256`.\\n     *\\n     * Requirements:\\n     * - The string must be formatted as `(0x)?[0-9a-fA-F]*`\\n     * - The result must fit in an `uint256` type.\\n     */\\n    function parseHexUint(string memory input) internal pure returns (uint256) {\\n        return parseHexUint(input, 0, bytes(input).length);\\n    }\\n\\n    /**\\n     * @dev Variant of {parseHexUint-string} that parses a substring of `input` located between position `begin` (included) and\\n     * `end` (excluded).\\n     *\\n     * Requirements:\\n     * - The substring must be formatted as `(0x)?[0-9a-fA-F]*`\\n     * - The result must fit in an `uint256` type.\\n     */\\n    function parseHexUint(string memory input, uint256 begin, uint256 end) internal pure returns (uint256) {\\n        (bool success, uint256 value) = tryParseHexUint(input, begin, end);\\n        if (!success) revert StringsInvalidChar();\\n        return value;\\n    }\\n\\n    /**\\n     * @dev Variant of {parseHexUint-string} that returns false if the parsing fails because of an invalid character.\\n     *\\n     * NOTE: This function will revert if the result does not fit in a `uint256`.\\n     */\\n    function tryParseHexUint(string memory input) internal pure returns (bool success, uint256 value) {\\n        return _tryParseHexUintUncheckedBounds(input, 0, bytes(input).length);\\n    }\\n\\n    /**\\n     * @dev Variant of {parseHexUint-string-uint256-uint256} that returns false if the parsing fails because of an\\n     * invalid character.\\n     *\\n     * NOTE: This function will revert if the result does not fit in a `uint256`.\\n     */\\n    function tryParseHexUint(\\n        string memory input,\\n        uint256 begin,\\n        uint256 end\\n    ) internal pure returns (bool success, uint256 value) {\\n        if (end > bytes(input).length || begin > end) return (false, 0);\\n        return _tryParseHexUintUncheckedBounds(input, begin, end);\\n    }\\n\\n    /**\\n     * @dev Implementation of {tryParseHexUint-string-uint256-uint256} that does not check bounds. Caller should make sure that\\n     * `begin <= end <= input.length`. Other inputs would result in undefined behavior.\\n     */\\n    function _tryParseHexUintUncheckedBounds(\\n        string memory input,\\n        uint256 begin,\\n        uint256 end\\n    ) private pure returns (bool success, uint256 value) {\\n        bytes memory buffer = bytes(input);\\n\\n        // skip 0x prefix if present\\n        bool hasPrefix = (end > begin + 1) && bytes2(_unsafeReadBytesOffset(buffer, begin)) == bytes2(\\\"0x\\\"); // don't do out-of-bound (possibly unsafe) read if sub-string is empty\\n        uint256 offset = hasPrefix.toUint() * 2;\\n\\n        uint256 result = 0;\\n        for (uint256 i = begin + offset; i < end; ++i) {\\n            uint8 chr = _tryParseChr(bytes1(_unsafeReadBytesOffset(buffer, i)));\\n            if (chr > 15) return (false, 0);\\n            result *= 16;\\n            unchecked {\\n                // Multiplying by 16 is equivalent to a shift of 4 bits (with additional overflow check).\\n                // This guarantees that adding a value < 16 will not cause an overflow, hence the unchecked.\\n                result += chr;\\n            }\\n        }\\n        return (true, result);\\n    }\\n\\n    /**\\n     * @dev Parse a hexadecimal string (with or without \\\"0x\\\" prefix), and returns the value as an `address`.\\n     *\\n     * Requirements:\\n     * - The string must be formatted as `(0x)?[0-9a-fA-F]{40}`\\n     */\\n    function parseAddress(string memory input) internal pure returns (address) {\\n        return parseAddress(input, 0, bytes(input).length);\\n    }\\n\\n    /**\\n     * @dev Variant of {parseAddress-string} that parses a substring of `input` located between position `begin` (included) and\\n     * `end` (excluded).\\n     *\\n     * Requirements:\\n     * - The substring must be formatted as `(0x)?[0-9a-fA-F]{40}`\\n     */\\n    function parseAddress(string memory input, uint256 begin, uint256 end) internal pure returns (address) {\\n        (bool success, address value) = tryParseAddress(input, begin, end);\\n        if (!success) revert StringsInvalidAddressFormat();\\n        return value;\\n    }\\n\\n    /**\\n     * @dev Variant of {parseAddress-string} that returns false if the parsing fails because the input is not a properly\\n     * formatted address. See {parseAddress-string} requirements.\\n     */\\n    function tryParseAddress(string memory input) internal pure returns (bool success, address value) {\\n        return tryParseAddress(input, 0, bytes(input).length);\\n    }\\n\\n    /**\\n     * @dev Variant of {parseAddress-string-uint256-uint256} that returns false if the parsing fails because input is not a properly\\n     * formatted address. See {parseAddress-string-uint256-uint256} requirements.\\n     */\\n    function tryParseAddress(\\n        string memory input,\\n        uint256 begin,\\n        uint256 end\\n    ) internal pure returns (bool success, address value) {\\n        if (end > bytes(input).length || begin > end) return (false, address(0));\\n\\n        bool hasPrefix = (end > begin + 1) && bytes2(_unsafeReadBytesOffset(bytes(input), begin)) == bytes2(\\\"0x\\\"); // don't do out-of-bound (possibly unsafe) read if sub-string is empty\\n        uint256 expectedLength = 40 + hasPrefix.toUint() * 2;\\n\\n        // check that input is the correct length\\n        if (end - begin == expectedLength) {\\n            // length guarantees that this does not overflow, and value is at most type(uint160).max\\n            (bool s, uint256 v) = _tryParseHexUintUncheckedBounds(input, begin, end);\\n            return (s, address(uint160(v)));\\n        } else {\\n            return (false, address(0));\\n        }\\n    }\\n\\n    function _tryParseChr(bytes1 chr) private pure returns (uint8) {\\n        uint8 value = uint8(chr);\\n\\n        // Try to parse `chr`:\\n        // - Case 1: [0-9]\\n        // - Case 2: [a-f]\\n        // - Case 3: [A-F]\\n        // - otherwise not supported\\n        unchecked {\\n            if (value > 47 && value < 58) value -= 48;\\n            else if (value > 96 && value < 103) value -= 87;\\n            else if (value > 64 && value < 71) value -= 55;\\n            else return type(uint8).max;\\n        }\\n\\n        return value;\\n    }\\n\\n    /**\\n     * @dev Escape special characters in JSON strings. This can be useful to prevent JSON injection in NFT metadata.\\n     *\\n     * WARNING: This function should only be used in double quoted JSON strings. Single quotes are not escaped.\\n     *\\n     * NOTE: This function escapes backslashes (including those in \\\\uXXXX sequences) and the characters in ranges\\n     * defined in section 2.5 of RFC-4627 (U+0000 to U+001F, U+0022 and U+005C). All control characters in U+0000\\n     * to U+001F are escaped (\\\\b, \\\\t, \\\\n, \\\\f, \\\\r use short form; others use \\\\u00XX). ECMAScript's `JSON.parse` does\\n     * recover escaped unicode characters that are not in this range, but other tooling may provide different results.\\n     */\\n    function escapeJSON(string memory input) internal pure returns (string memory) {\\n        bytes memory buffer = bytes(input);\\n\\n        // Put output at the FMP. Memory will be reserved later when we figure out the actual length of the escaped\\n        // string. All write are done using _unsafeWriteBytesOffset, which avoid the (expensive) length checks for\\n        // each character written.\\n        bytes memory output;\\n        assembly (\\\"memory-safe\\\") {\\n            output := mload(0x40)\\n        }\\n        uint256 outputLength = 0;\\n\\n        for (uint256 i = 0; i < buffer.length; ++i) {\\n            uint8 char = uint8(bytes1(_unsafeReadBytesOffset(buffer, i)));\\n            if (((SPECIAL_CHARS_LOOKUP & (1 << char)) != 0)) {\\n                _unsafeWriteBytesOffset(output, outputLength++, \\\"\\\\\\\\\\\");\\n                if (char == 0x08) _unsafeWriteBytesOffset(output, outputLength++, \\\"b\\\");\\n                else if (char == 0x09) _unsafeWriteBytesOffset(output, outputLength++, \\\"t\\\");\\n                else if (char == 0x0a) _unsafeWriteBytesOffset(output, outputLength++, \\\"n\\\");\\n                else if (char == 0x0c) _unsafeWriteBytesOffset(output, outputLength++, \\\"f\\\");\\n                else if (char == 0x0d) _unsafeWriteBytesOffset(output, outputLength++, \\\"r\\\");\\n                else if (char == 0x5c) _unsafeWriteBytesOffset(output, outputLength++, \\\"\\\\\\\\\\\");\\n                else if (char == 0x22) {\\n                    // solhint-disable-next-line quotes\\n                    _unsafeWriteBytesOffset(output, outputLength++, '\\\"');\\n                } else {\\n                    // U+0000 to U+001F without short form: output \\\\u00XX\\n                    _unsafeWriteBytesOffset(output, outputLength++, \\\"u\\\");\\n                    _unsafeWriteBytesOffset(output, outputLength++, \\\"0\\\");\\n                    _unsafeWriteBytesOffset(output, outputLength++, \\\"0\\\");\\n                    _unsafeWriteBytesOffset(output, outputLength++, HEX_DIGITS[char >> 4]);\\n                    _unsafeWriteBytesOffset(output, outputLength++, HEX_DIGITS[char & 0x0f]);\\n                }\\n            } else {\\n                _unsafeWriteBytesOffset(output, outputLength++, bytes1(char));\\n            }\\n        }\\n        // write the actual length and reserve memory\\n        assembly (\\\"memory-safe\\\") {\\n            mstore(output, outputLength)\\n            mstore(0x40, add(output, add(outputLength, 0x20)))\\n        }\\n\\n        return string(output);\\n    }\\n\\n    /**\\n     * @dev Reads a bytes32 from a bytes array without bounds checking.\\n     *\\n     * NOTE: making this function internal would mean it could be used with memory unsafe offset, and marking the\\n     * assembly block as such would prevent some optimizations.\\n     */\\n    function _unsafeReadBytesOffset(bytes memory buffer, uint256 offset) private pure returns (bytes32 value) {\\n        // This is not memory safe in the general case, but all calls to this private function are within bounds.\\n        assembly (\\\"memory-safe\\\") {\\n            value := mload(add(add(buffer, 0x20), offset))\\n        }\\n    }\\n\\n    /**\\n     * @dev Write a bytes1 to a bytes array without bounds checking.\\n     *\\n     * NOTE: making this function internal would mean it could be used with memory unsafe offset, and marking the\\n     * assembly block as such would prevent some optimizations.\\n     */\\n    function _unsafeWriteBytesOffset(bytes memory buffer, uint256 offset, bytes1 value) private pure {\\n        // This is not memory safe in the general case, but all calls to this private function are within bounds.\\n        assembly (\\\"memory-safe\\\") {\\n            mstore8(add(add(buffer, 0x20), offset), shr(248, value))\\n        }\\n    }\\n}\\n\"},\"@openzeppelin/contracts/utils/math/SignedMath.sol\":{\"content\":\"// SPDX-License-Identifier: MIT\\n// OpenZeppelin Contracts (last updated v5.1.0) (utils/math/SignedMath.sol)\\n\\npragma solidity ^0.8.20;\\n\\nimport {SafeCast} from \\\"./SafeCast.sol\\\";\\n\\n/**\\n * @dev Standard signed math utilities missing in the Solidity language.\\n */\\nlibrary SignedMath {\\n    /**\\n     * @dev Branchless ternary evaluation for `a ? b : c`. Gas costs are constant.\\n     *\\n     * IMPORTANT: This function may reduce bytecode size and consume less gas when used standalone.\\n     * However, the compiler may optimize Solidity ternary operations (i.e. `a ? b : c`) to only compute\\n     * one branch when needed, making this function more expensive.\\n     */\\n    function ternary(bool condition, int256 a, int256 b) internal pure returns (int256) {\\n        unchecked {\\n            // branchless ternary works because:\\n            // b ^ (a ^ b) == a\\n            // b ^ 0 == b\\n            return b ^ ((a ^ b) * int256(SafeCast.toUint(condition)));\\n        }\\n    }\\n\\n    /**\\n     * @dev Returns the largest of two signed numbers.\\n     */\\n    function max(int256 a, int256 b) internal pure returns (int256) {\\n        return ternary(a > b, a, b);\\n    }\\n\\n    /**\\n     * @dev Returns the smallest of two signed numbers.\\n     */\\n    function min(int256 a, int256 b) internal pure returns (int256) {\\n        return ternary(a < b, a, b);\\n    }\\n\\n    /**\\n     * @dev Returns the average of two signed numbers without overflow.\\n     * The result is rounded towards zero.\\n     */\\n    function average(int256 a, int256 b) internal pure returns (int256) {\\n        // Formula from the book \\\"Hacker's Delight\\\"\\n        int256 x = (a & b) + ((a ^ b) >> 1);\\n        return x + (int256(uint256(x) >> 255) & (a ^ b));\\n    }\\n\\n    /**\\n     * @dev Returns the absolute unsigned value of a signed value.\\n     */\\n    function abs(int256 n) internal pure returns (uint256) {\\n        unchecked {\\n            // Formula from the \\\"Bit Twiddling Hacks\\\" by Sean Eron Anderson.\\n            // Since `n` is a signed integer, the generated bytecode will use the SAR opcode to perform the right shift,\\n            // taking advantage of the most significant (or \\\"sign\\\" bit) in two's complement representation.\\n            // This opcode adds new most significant bits set to the value of the previous most significant bit. As a result,\\n            // the mask will either be `bytes32(0)` (if n is positive) or `~bytes32(0)` (if n is negative).\\n            int256 mask = n >> 255;\\n\\n            // A `bytes32(0)` mask leaves the input unchanged, while a `~bytes32(0)` mask complements it.\\n            return uint256((n + mask) ^ mask);\\n        }\\n    }\\n}\\n\"},\"@openzeppelin/contracts/utils/ShortStrings.sol\":{\"content\":\"// SPDX-License-Identifier: MIT\\n// OpenZeppelin Contracts (last updated v5.5.0) (utils/ShortStrings.sol)\\n\\npragma solidity ^0.8.20;\\n\\nimport {StorageSlot} from \\\"./StorageSlot.sol\\\";\\n\\n// | string  | 0xAAAAAAAAAAAAAAAAAAAAAAAAAAAAAAAAAAAAAAAAAAAAAAAAAAAAAAAAAAAAAA   |\\n// | length  | 0x                                                              BB |\\ntype ShortString is bytes32;\\n\\n/**\\n * @dev This library provides functions to convert short memory strings\\n * into a `ShortString` type that can be used as an immutable variable.\\n *\\n * Strings of arbitrary length can be optimized using this library if\\n * they are short enough (up to 31 bytes) by packing them with their\\n * length (1 byte) in a single EVM word (32 bytes). Additionally, a\\n * fallback mechanism can be used for every other case.\\n *\\n * Usage example:\\n *\\n * ```solidity\\n * contract Named {\\n *     using ShortStrings for *;\\n *\\n *     ShortString private immutable _name;\\n *     string private _nameFallback;\\n *\\n *     constructor(string memory contractName) {\\n *         _name = contractName.toShortStringWithFallback(_nameFallback);\\n *     }\\n *\\n *     function name() external view returns (string memory) {\\n *         return _name.toStringWithFallback(_nameFallback);\\n *     }\\n * }\\n * ```\\n */\\nlibrary ShortStrings {\\n    // Used as an identifier for strings longer than 31 bytes.\\n    bytes32 private constant FALLBACK_SENTINEL = 0x00000000000000000000000000000000000000000000000000000000000000FF;\\n\\n    error StringTooLong(string str);\\n    error InvalidShortString();\\n\\n    /**\\n     * @dev Encode a string of at most 31 chars into a `ShortString`.\\n     *\\n     * This will trigger a `StringTooLong` error is the input string is too long.\\n     */\\n    function toShortString(string memory str) internal pure returns (ShortString) {\\n        bytes memory bstr = bytes(str);\\n        if (bstr.length > 0x1f) {\\n            revert StringTooLong(str);\\n        }\\n        return ShortString.wrap(bytes32(uint256(bytes32(bstr)) | bstr.length));\\n    }\\n\\n    /**\\n     * @dev Decode a `ShortString` back to a \\\"normal\\\" string.\\n     */\\n    function toString(ShortString sstr) internal pure returns (string memory) {\\n        uint256 len = byteLength(sstr);\\n        // using `new string(len)` would work locally but is not memory safe.\\n        string memory str = new string(0x20);\\n        assembly (\\\"memory-safe\\\") {\\n            mstore(str, len)\\n            mstore(add(str, 0x20), sstr)\\n        }\\n        return str;\\n    }\\n\\n    /**\\n     * @dev Return the length of a `ShortString`.\\n     */\\n    function byteLength(ShortString sstr) internal pure returns (uint256) {\\n        uint256 result = uint256(ShortString.unwrap(sstr)) & 0xFF;\\n        if (result > 0x1f) {\\n            revert InvalidShortString();\\n        }\\n        return result;\\n    }\\n\\n    /**\\n     * @dev Encode a string into a `ShortString`, or write it to storage if it is too long.\\n     */\\n    function toShortStringWithFallback(string memory value, string storage store) internal returns (ShortString) {\\n        if (bytes(value).length < 0x20) {\\n            return toShortString(value);\\n        } else {\\n            StorageSlot.getStringSlot(store).value = value;\\n            return ShortString.wrap(FALLBACK_SENTINEL);\\n        }\\n    }\\n\\n    /**\\n     * @dev Decode a string that was encoded to `ShortString` or written to storage using {toShortStringWithFallback}.\\n     */\\n    function toStringWithFallback(ShortString value, string storage store) internal pure returns (string memory) {\\n        if (ShortString.unwrap(value) != FALLBACK_SENTINEL) {\\n            return toString(value);\\n        } else {\\n            return store;\\n        }\\n    }\\n\\n    /**\\n     * @dev Return the length of a string that was encoded to `ShortString` or written to storage using\\n     * {toShortStringWithFallback}.\\n     *\\n     * WARNING: This will return the \\\"byte length\\\" of the string. This may not reflect the actual length in terms of\\n     * actual characters as the UTF-8 encoding of a single character can span over multiple bytes.\\n     */\\n    function byteLengthWithFallback(ShortString value, string storage store) internal view returns (uint256) {\\n        if (ShortString.unwrap(value) != FALLBACK_SENTINEL) {\\n            return byteLength(value);\\n        } else {\\n            return bytes(store).length;\\n        }\\n    }\\n}\\n\"},\"@openzeppelin/contracts/interfaces/IERC5267.sol\":{\"content\":\"// SPDX-License-Identifier: MIT\\n// OpenZeppelin Contracts (last updated v5.4.0) (interfaces/IERC5267.sol)\\n\\npragma solidity >=0.4.16;\\n\\ninterface IERC5267 {\\n    /**\\n     * @dev MAY be emitted to signal that the domain could have changed.\\n     */\\n    event EIP712DomainChanged();\\n\\n    /**\\n     * @dev returns the fields and values that describe the domain separator used by this contract for EIP-712\\n     * signature.\\n     */\\n    function eip712Domain()\\n        external\\n        view\\n        returns (\\n            bytes1 fields,\\n            string memory name,\\n            string memory version,\\n            uint256 chainId,\\n            address verifyingContract,\\n            bytes32 salt,\\n            uint256[] memory extensions\\n        );\\n}\\n\"},\"@openzeppelin/contracts/utils/cryptography/signers/draft-ERC7739.sol\":{\"content\":\"// SPDX-License-Identifier: MIT\\n// OpenZeppelin Contracts (last updated v5.5.0) (utils/cryptography/signers/draft-ERC7739.sol)\\n\\npragma solidity ^0.8.24;\\n\\nimport {AbstractSigner} from \\\"./AbstractSigner.sol\\\";\\nimport {EIP712} from \\\"../EIP712.sol\\\";\\nimport {ERC7739Utils} from \\\"../draft-ERC7739Utils.sol\\\";\\nimport {IERC1271} from \\\"../../../interfaces/IERC1271.sol\\\";\\nimport {MessageHashUtils} from \\\"../MessageHashUtils.sol\\\";\\n\\n/**\\n * @dev Validates signatures wrapping the message hash in a nested EIP712 type. See {ERC7739Utils}.\\n *\\n * Linking the signature to the EIP-712 domain separator is a security measure to prevent signature replay across different\\n * EIP-712 domains (e.g. a single offchain owner of multiple contracts).\\n *\\n * This contract requires implementing the {_rawSignatureValidation} function, which passes the wrapped message hash,\\n * which may be either an typed data or a personal sign nested type.\\n *\\n * NOTE: xref:api:utils/cryptography#EIP712[EIP-712] uses xref:api:utils/cryptography#ShortStrings[ShortStrings] to\\n * optimize gas costs for short strings (up to 31 characters). Consider that strings longer than that will use storage,\\n * which may limit the ability of the signer to be used within the ERC-4337 validation phase (due to\\n * https://eips.ethereum.org/EIPS/eip-7562#storage-rules[ERC-7562 storage access rules]).\\n */\\nabstract contract ERC7739 is AbstractSigner, EIP712, IERC1271 {\\n    using ERC7739Utils for *;\\n    using MessageHashUtils for bytes32;\\n\\n    /**\\n     * @dev Attempts validating the signature in a nested EIP-712 type.\\n     *\\n     * A nested EIP-712 type might be presented in 2 different ways:\\n     *\\n     * - As a nested EIP-712 typed data\\n     * - As a _personal_ signature (an EIP-712 mimic of the `eth_personalSign` for a smart contract)\\n     */\\n    function isValidSignature(bytes32 hash, bytes calldata signature) public view virtual returns (bytes4 result) {\\n        // For the hash `0x7739773977397739773977397739773977397739773977397739773977397739` and an empty signature,\\n        // we return the magic value `0x77390001` as it's assumed impossible to find a preimage for it that can be used\\n        // maliciously. Useful for simulation purposes and to validate whether the contract supports ERC-7739.\\n        return\\n            (_isValidNestedTypedDataSignature(hash, signature) || _isValidNestedPersonalSignSignature(hash, signature))\\n                ? IERC1271.isValidSignature.selector\\n                : (hash == 0x7739773977397739773977397739773977397739773977397739773977397739 && signature.length == 0)\\n                    ? bytes4(0x77390001)\\n                    : bytes4(0xffffffff);\\n    }\\n\\n    /**\\n     * @dev Nested personal signature verification.\\n     */\\n    function _isValidNestedPersonalSignSignature(bytes32 hash, bytes calldata signature) private view returns (bool) {\\n        return _rawSignatureValidation(_domainSeparatorV4().toTypedDataHash(hash.personalSignStructHash()), signature);\\n    }\\n\\n    /**\\n     * @dev Nested EIP-712 typed data verification.\\n     */\\n    function _isValidNestedTypedDataSignature(\\n        bytes32 hash,\\n        bytes calldata encodedSignature\\n    ) private view returns (bool) {\\n        // decode signature\\n        (\\n            bytes calldata signature,\\n            bytes32 appSeparator,\\n            bytes32 contentsHash,\\n            string calldata contentsDescr\\n        ) = encodedSignature.decodeTypedDataSig();\\n\\n        (\\n            ,\\n            string memory name,\\n            string memory version,\\n            uint256 chainId,\\n            address verifyingContract,\\n            bytes32 salt,\\n\\n        ) = eip712Domain();\\n\\n        // Check that contentHash and separator are correct\\n        // Rebuild nested hash\\n        return\\n            hash == appSeparator.toTypedDataHash(contentsHash) &&\\n            bytes(contentsDescr).length != 0 &&\\n            _rawSignatureValidation(\\n                appSeparator.toTypedDataHash(\\n                    ERC7739Utils.typedDataSignStructHash(\\n                        contentsDescr,\\n                        contentsHash,\\n                        abi.encode(keccak256(bytes(name)), keccak256(bytes(version)), chainId, verifyingContract, salt)\\n                    )\\n                ),\\n                signature\\n            );\\n    }\\n}\\n\"},\"@openzeppelin/contracts/utils/cryptography/draft-ERC7739Utils.sol\":{\"content\":\"// SPDX-License-Identifier: MIT\\n// OpenZeppelin Contracts (last updated v5.6.0) (utils/cryptography/draft-ERC7739Utils.sol)\\n\\npragma solidity ^0.8.20;\\n\\nimport {Calldata} from \\\"../Calldata.sol\\\";\\nimport {Hashes} from \\\"./Hashes.sol\\\";\\n\\n/**\\n * @dev Utilities to process https://ercs.ethereum.org/ERCS/erc-7739[ERC-7739] typed data signatures\\n * that are specific to an EIP-712 domain.\\n *\\n * This library provides methods to wrap, unwrap and operate over typed data signatures with a defensive\\n * rehashing mechanism that includes the app's xref:api:utils/cryptography#EIP712-_domainSeparatorV4[EIP-712]\\n * and preserves readability of the signed content using an EIP-712 nested approach.\\n *\\n * A smart contract domain can validate a signature for a typed data structure in two ways:\\n *\\n * - As an application validating a typed data signature. See {typedDataSignStructHash}.\\n * - As a smart contract validating a raw message signature. See {personalSignStructHash}.\\n *\\n * NOTE: A provider for a smart contract wallet would need to return this signature as the\\n * result of a call to `personal_sign` or `eth_signTypedData`, and this may be unsupported by\\n * API clients that expect a return value of 129 bytes, or specifically the `r,s,v` parameters\\n * of an xref:api:utils/cryptography#ECDSA[ECDSA] signature, as is for example specified for\\n * xref:api:utils/cryptography#EIP712[EIP-712].\\n */\\nlibrary ERC7739Utils {\\n    /**\\n     * @dev An EIP-712 type to represent \\\"personal\\\" signatures\\n     * (i.e. mimic of `personal_sign` for smart contracts).\\n     */\\n    bytes32 private constant PERSONAL_SIGN_TYPEHASH = keccak256(\\\"PersonalSign(bytes prefixed)\\\");\\n\\n    /**\\n     * @dev Nest a signature for a given EIP-712 type into a nested signature for the domain of the app.\\n     *\\n     * Counterpart of {decodeTypedDataSig} to extract the original signature and the nested components.\\n     */\\n    function encodeTypedDataSig(\\n        bytes memory signature,\\n        bytes32 appSeparator,\\n        bytes32 contentsHash,\\n        string memory contentsDescr\\n    ) internal pure returns (bytes memory) {\\n        return\\n            abi.encodePacked(signature, appSeparator, contentsHash, contentsDescr, uint16(bytes(contentsDescr).length));\\n    }\\n\\n    /**\\n     * @dev Parses a nested signature into its components.\\n     *\\n     * Constructed as follows:\\n     *\\n     * `signature ‖ APP_DOMAIN_SEPARATOR ‖ contentsHash ‖ contentsDescr ‖ uint16(contentsDescr.length)`\\n     *\\n     * - `signature` is the signature for the (ERC-7739) nested struct hash. This signature indirectly signs over the\\n     *   original \\\"contents\\\" hash (from the app) and the account's domain separator.\\n     * - `APP_DOMAIN_SEPARATOR` is the EIP-712 {EIP712-_domainSeparatorV4} of the application smart contract that is\\n     *   requesting the signature verification (through ERC-1271).\\n     * - `contentsHash` is the hash of the underlying data structure or message.\\n     * - `contentsDescr` is a descriptor of the \\\"contents\\\" part of the EIP-712 type of the nested signature.\\n     *\\n     * NOTE: This function returns empty if the input format is invalid instead of reverting.\\n     */\\n    function decodeTypedDataSig(\\n        bytes calldata encodedSignature\\n    )\\n        internal\\n        pure\\n        returns (bytes calldata signature, bytes32 appSeparator, bytes32 contentsHash, string calldata contentsDescr)\\n    {\\n        unchecked {\\n            uint256 sigLength = encodedSignature.length;\\n\\n            // 66 bytes = contentsDescrLength (2 bytes) + contentsHash (32 bytes) + APP_DOMAIN_SEPARATOR (32 bytes).\\n            if (sigLength < 66) return (Calldata.emptyBytes(), 0, 0, Calldata.emptyString());\\n\\n            uint256 contentsDescrEnd = sigLength - 2; // Last 2 bytes\\n            uint256 contentsDescrLength = uint16(bytes2(encodedSignature[contentsDescrEnd:]));\\n\\n            // Check for space for `contentsDescr` in addition to the 66 bytes documented above\\n            if (sigLength < 66 + contentsDescrLength) return (Calldata.emptyBytes(), 0, 0, Calldata.emptyString());\\n\\n            uint256 contentsHashEnd = contentsDescrEnd - contentsDescrLength;\\n            uint256 separatorEnd = contentsHashEnd - 32;\\n            uint256 signatureEnd = separatorEnd - 32;\\n\\n            signature = encodedSignature[:signatureEnd];\\n            appSeparator = bytes32(encodedSignature[signatureEnd:separatorEnd]);\\n            contentsHash = bytes32(encodedSignature[separatorEnd:contentsHashEnd]);\\n            contentsDescr = string(encodedSignature[contentsHashEnd:contentsDescrEnd]);\\n        }\\n    }\\n\\n    /**\\n     * @dev Nests an `ERC-191` digest into a `PersonalSign` EIP-712 struct, and returns the corresponding struct hash.\\n     * This struct hash must be combined with a domain separator, using {MessageHashUtils-toTypedDataHash} before\\n     * being verified/recovered.\\n     *\\n     * This is used to simulate the `personal_sign` RPC method in the context of smart contracts.\\n     */\\n    function personalSignStructHash(bytes32 contents) internal pure returns (bytes32) {\\n        return Hashes.efficientKeccak256(PERSONAL_SIGN_TYPEHASH, contents);\\n    }\\n\\n    /**\\n     * @dev Nests an `EIP-712` hash (`contents`) into a `TypedDataSign` EIP-712 struct, and returns the corresponding\\n     * struct hash. This struct hash must be combined with a domain separator, using {MessageHashUtils-toTypedDataHash}\\n     * before being verified/recovered.\\n     */\\n    function typedDataSignStructHash(\\n        string calldata contentsName,\\n        string calldata contentsType,\\n        bytes32 contentsHash,\\n        bytes memory domainBytes\\n    ) internal pure returns (bytes32 result) {\\n        return\\n            bytes(contentsName).length == 0\\n                ? bytes32(0)\\n                : keccak256(\\n                    abi.encodePacked(typedDataSignTypehash(contentsName, contentsType), contentsHash, domainBytes)\\n                );\\n    }\\n\\n    /**\\n     * @dev Variant of {typedDataSignStructHash-string-string-bytes32-bytes} that takes a content descriptor\\n     * and decodes the `contentsName` and `contentsType` out of it.\\n     */\\n    function typedDataSignStructHash(\\n        string calldata contentsDescr,\\n        bytes32 contentsHash,\\n        bytes memory domainBytes\\n    ) internal pure returns (bytes32 result) {\\n        (string calldata contentsName, string calldata contentsType) = decodeContentsDescr(contentsDescr);\\n\\n        return typedDataSignStructHash(contentsName, contentsType, contentsHash, domainBytes);\\n    }\\n\\n    /**\\n     * @dev Compute the EIP-712 typehash of the `TypedDataSign` structure for a given type (and typename).\\n     */\\n    function typedDataSignTypehash(\\n        string calldata contentsName,\\n        string calldata contentsType\\n    ) internal pure returns (bytes32) {\\n        return\\n            keccak256(\\n                abi.encodePacked(\\n                    \\\"TypedDataSign(\\\",\\n                    contentsName,\\n                    \\\" contents,string name,string version,uint256 chainId,address verifyingContract,bytes32 salt)\\\",\\n                    contentsType\\n                )\\n            );\\n    }\\n\\n    /**\\n     * @dev Parse the type name out of the ERC-7739 contents type description. Supports both the implicit and explicit\\n     * modes.\\n     *\\n     * Following ERC-7739 specifications, a `contentsName` is considered invalid if it's empty or it contains\\n     * any of the following bytes , )\\\\x00\\n     *\\n     * If the `contentsType` is invalid, this returns an empty string. Otherwise, the return string has non-zero\\n     * length.\\n     */\\n    function decodeContentsDescr(\\n        string calldata contentsDescr\\n    ) internal pure returns (string calldata contentsName, string calldata contentsType) {\\n        bytes calldata buffer = bytes(contentsDescr);\\n        if (buffer.length == 0) {\\n            // pass through (fail)\\n        } else if (buffer[buffer.length - 1] == bytes1(\\\")\\\")) {\\n            // Implicit mode: read contentsName from the beginning, and keep the complete descr\\n            for (uint256 i = 0; i < buffer.length; ++i) {\\n                bytes1 current = buffer[i];\\n                if (current == bytes1(\\\"(\\\")) {\\n                    // if name is empty - passthrough (fail)\\n                    if (i == 0) break;\\n                    // we found the end of the contentsName\\n                    return (string(buffer[:i]), contentsDescr);\\n                } else if (_isForbiddenChar(current)) {\\n                    // we found an invalid character (forbidden) - passthrough (fail)\\n                    break;\\n                }\\n            }\\n        } else {\\n            // Explicit mode: read contentsName from the end, and remove it from the descr\\n            for (uint256 i = buffer.length; i > 0; --i) {\\n                bytes1 current = buffer[i - 1];\\n                if (current == bytes1(\\\")\\\")) {\\n                    // we found the end of the contentsName\\n                    return (string(buffer[i:]), string(buffer[:i]));\\n                } else if (_isForbiddenChar(current)) {\\n                    // we found an invalid character (forbidden) - passthrough (fail)\\n                    break;\\n                }\\n            }\\n        }\\n        return (Calldata.emptyString(), Calldata.emptyString());\\n    }\\n\\n    function _isForbiddenChar(bytes1 char) private pure returns (bool) {\\n        return char == 0x00 || char == bytes1(\\\" \\\") || char == bytes1(\\\",\\\") || char == bytes1(\\\"(\\\") || char == bytes1(\\\")\\\");\\n    }\\n}\\n\"},\"@openzeppelin/contracts/utils/cryptography/Hashes.sol\":{\"content\":\"// SPDX-License-Identifier: MIT\\n// OpenZeppelin Contracts (last updated v5.3.0) (utils/cryptography/Hashes.sol)\\n\\npragma solidity ^0.8.20;\\n\\n/**\\n * @dev Library of standard hash functions.\\n *\\n * _Available since v5.1._\\n */\\nlibrary Hashes {\\n    /**\\n     * @dev Commutative Keccak256 hash of a sorted pair of bytes32. Frequently used when working with merkle proofs.\\n     *\\n     * NOTE: Equivalent to the `standardNodeHash` in our https://github.com/OpenZeppelin/merkle-tree[JavaScript library].\\n     */\\n    function commutativeKeccak256(bytes32 a, bytes32 b) internal pure returns (bytes32) {\\n        return a < b ? efficientKeccak256(a, b) : efficientKeccak256(b, a);\\n    }\\n\\n    /**\\n     * @dev Implementation of keccak256(abi.encode(a, b)) that doesn't allocate or expand memory.\\n     */\\n    function efficientKeccak256(bytes32 a, bytes32 b) internal pure returns (bytes32 value) {\\n        assembly (\\\"memory-safe\\\") {\\n            mstore(0x00, a)\\n            mstore(0x20, b)\\n            value := keccak256(0x00, 0x40)\\n        }\\n    }\\n}\\n\"}},\"settings\":{\"optimizer\":{\"enabled\":true,\"runs\":200},\"outputSelection\":{\"*\":{\"\":[\"ast\"],\"*\":[\"abi\",\"metadata\",\"devdoc\",\"userdoc\",\"storageLayout\",\"evm.legacyAssembly\",\"evm.bytecode\",\"evm.deployedBytecode\",\"evm.methodIdentifiers\",\"evm.gasEstimates\",\"evm.assembly\"]}},\"remappings\":[]}}",
	"name": "DappMiner",
	"bytecode": {
		"linkReferences": {},
		"object": "610160604052348015610010575f5ffd5b5060408051808201825260098152682230b83826b4b732b960b91b602080830191909152825180840190935260018352603160f81b9083015290610054825f610105565b61012052610063816001610105565b61014052815160208084019190912060e052815190820120610100524660a0526100ef60e05161010051604080517f8b73c3c69bb8fe3d512ecc4cf759cc79239f7b179b0ffacaa9a75d522b39400f60208201529081019290925260608201524660808201523060a08201525f9060c00160405160208183030381529060405280519060200120905090565b60805250503060c052610100610137565b6103fb565b5f60208351101561012057610119836101d4565b9050610131565b8161012b84826102e5565b5060ff90505b92915050565b5f61014061021a565b805490915068010000000000000000900460ff16156101725760405163f92ee8a960e01b815260040160405180910390fd5b80546001600160401b03908116146101d15780546001600160401b0319166001600160401b0390811782556040519081527fc7f505b2f371ae2175ee4913f4499e1f2633a7b5936321eed1cdaeb6115181d29060200160405180910390a15b50565b5f5f829050601f81511115610207578260405163305a27a960e01b81526004016101fe91906103a3565b60405180910390fd5b8051610212826103d8565b179392505050565b5f807ff0c57e16840df040f15088dc2f81fe391c3923bec73e23a9662efc9c229c6a00610131565b634e487b7160e01b5f52604160045260245ffd5b600181811c9082168061026a57607f821691505b60208210810361028857634e487b7160e01b5f52602260045260245ffd5b50919050565b601f8211156102e057828211156102e057805f5260205f20601f840160051c60208510156102b957505f5b90810190601f840160051c035f5b818110156102dc575f838201556001016102c7565b5050505b505050565b81516001600160401b038111156102fe576102fe610242565b6103128161030c8454610256565b8461028e565b6020601f821160018114610344575f831561032d5750848201515b5f19600385901b1c1916600184901b17845561039c565b5f84815260208120601f198516915b828110156103735787850151825560209485019460019092019101610353565b508482101561039057868401515f19600387901b60f8161c191681555b505060018360011b0184555b5050505050565b602081525f82518060208401528060208501604085015e5f604082850101526040601f19601f83011684010191505092915050565b80516020808301519190811015610288575f1960209190910360031b1b16919050565b60805160a05160c05160e0516101005161012051610140516144f061044c5f395f6110a601525f61107a01525f6125cd01525f6125a501525f61250001525f61252a01525f61255401526144f05ff3fe60806040526004361061019f575f3560e01c806395fcd041116100eb578063bc197c8111610089578063d691c96411610063578063d691c96414610518578063e9ae5c531461052b578063f23a6e611461053e578063f2dc691d14610569576101a6565b8063bc197c81146104ba578063d03c7914146104e5578063d087d28814610504576101a6565b80639ddfdaf9116100c55780639ddfdaf914610442578063a71763a814610461578063b0d691fe14610480578063b715be81146104a6576101a6565b806395fcd041146103d657806396d4110b146104025780639cfd7cff14610421576101a6565b80633e1b0812116101585780637cc2046b116101325780637cc2046b146103455780637f5a7c7b1461036457806384b0196e146103905780639517e29f146103b7576101a6565b80633e1b0812146102c157806342cde4e8146102e057806343b9866514610326576101a6565b806301ffc9a7146101be578063112d3a7d146101f2578063150b7a02146102115780631626ba7e1461025457806317c4de351461027357806319822f7c14610294576101a6565b366101a657005b5f3660606101b2610588565b80519350602001915050f35b3480156101c9575f5ffd5b506101dd6101d83660046135d1565b610695565b60405190151581526020015b60405180910390f35b3480156101fd575f5ffd5b506101dd61020c36600461364b565b6106cb565b34801561021c575f5ffd5b5061023b61022b36600461375c565b630a85bd0160e11b949350505050565b6040516001600160e01b031990911681526020016101e9565b34801561025f575f5ffd5b5061023b61026e3660046137bf565b610711565b34801561027e575f5ffd5b5061029261028d36600461381c565b61074d565b005b34801561029f575f5ffd5b506102b36102ae366004613835565b610761565b6040519081526020016101e9565b3480156102cc575f5ffd5b506102b36102db366004613883565b61078e565b3480156102eb575f5ffd5b507fdfe169305a533e288e0557da8d289146d3cc75fa6e04c87599b048a60a4e5602546040516001600160401b0390911681526020016101e9565b348015610331575f5ffd5b506101dd6103403660046138a9565b61081b565b348015610350575f5ffd5b5061029261035f36600461397a565b610834565b34801561036f575f5ffd5b50610378610845565b6040516001600160a01b0390911681526020016101e9565b34801561039b575f5ffd5b506103a4610873565b6040516101e997969594939291906139d9565b3480156103c2575f5ffd5b506102926103d136600461364b565b6108b5565b3480156103e1575f5ffd5b506103f56103f0366004613a6f565b610903565b6040516101e99190613aa0565b34801561040d575f5ffd5b5061029261041c36600461397a565b61092a565b34801561042c575f5ffd5b5061043561093b565b6040516101e99190613b03565b34801561044d575f5ffd5b5061029261045c366004613b15565b61095b565b34801561046c575f5ffd5b5061029261047b36600461364b565b610a5c565b34801561048b575f5ffd5b5073433709009b8330fda32311df1c2afa402ed8d009610378565b3480156104b1575f5ffd5b506102b3610aa4565b3480156104c5575f5ffd5b5061023b6104d4366004613bb1565b63bc197c8160e01b95945050505050565b3480156104f0575f5ffd5b506101dd6104ff366004613c5d565b610abe565b34801561050f575f5ffd5b506102b3610b2e565b6103f56105263660046137bf565b610b3d565b6102926105393660046137bf565b610b67565b348015610549575f5ffd5b5061023b610558366004613c74565b63f23a6e6160e01b95945050505050565b348015610574575f5ffd5b506101dd610583366004613c5d565b610b7a565b60605f610593610845565b905060606001600160a01b0382161561061d5760405163d68f602560e01b81526001600160a01b0383169063d68f6025906105d890339034905f903690600401613cef565b5f604051808303815f875af11580156105f3573d5f5f3e3d5ffd5b505050506040513d5f823e601f3d908101601f1916820160405261061a9190810190613d16565b90505b610625610b8e565b92506001600160a01b0382161561069057604051630b9dfbed60e11b81526001600160a01b0383169063173bf7da90610662908490600401613b03565b5f604051808303815f87803b158015610679575f5ffd5b505af115801561068b573d5f5f3e3d5ffd5b505050505b505090565b5f6001600160e01b03198216630271189760e51b14806106c557506301ffc9a760e01b6001600160e01b03198316145b92915050565b5f6004851480156106f457506106df610845565b6001600160a01b0316846001600160a01b0316145b80610706575061070685858585610c34565b90505b949350505050565b5f5f61071e858585610cf6565b90506001600160e01b0319808216146107375780610742565b610742858585610d73565b9150505b9392505050565b610755610e32565b61075e81610e89565b50565b5f61076a610f24565b5f610783858561077e610100830183613d8a565b610f64565b905061070983610f71565b5f73433709009b8330fda32311df1c2afa402ed8d009604051631aab3f0d60e11b81523060048201526001600160c01b03841660248201526001600160a01b0391909116906335567e1a90604401602060405180830381865afa1580156107f7573d5f5f3e3d5ffd5b505050506040513d601f19601f820116820180604052508101906106c59190613dcc565b5f5f51602061449b5f395f51905f526107468184610f94565b61083c610e32565b61075e81610fc0565b7f2b49b75317ffc1021ca7da4ca3423bf8403e18b223e63e6bc7abe8f39a5ed700546001600160a01b031690565b5f6060805f5f5f6060610884611073565b61088c61109f565b604080515f80825260208201909252600f60f81b9b939a50919850469750309650945092509050565b6108bd610e32565b6108fd848484848080601f0160208091040260200160405190810160405280939291908181526020018383808284375f920191909152506110cc92505050565b50505050565b60605f51602061449b5f395f51905f52610709816001600160401b03868116908616611256565b610932610e32565b61075e81611395565b606060405180606001604052806033815260200161446860339139905090565b5f610964611468565b805490915060ff600160401b82041615906001600160401b03165f8115801561098a5750825b90505f826001600160401b031660011480156109a55750303b155b9050811580156109b3575080155b156109d15760405163f92ee8a960e01b815260040160405180910390fd5b845467ffffffffffffffff1916600117855583156109fb57845460ff60401b1916600160401b1785555b610a03611490565b610a0d878761149a565b8315610a5357845460ff60401b19168555604051600181527fc7f505b2f371ae2175ee4913f4499e1f2633a7b5936321eed1cdaeb6115181d29060200160405180910390a15b50505050505050565b610a64610e32565b6108fd848484848080601f0160208091040260200160405190810160405280939291908181526020018383808284375f920191909152506114ac92505050565b5f51602061449b5f395f51905f5280545f91905b91505090565b5f5f5f610aca846115c8565b505091509150610add825f60f81b611606565b80610af15750610af182600160f81b611606565b80610b095750610b09826001600160f81b0319611606565b80156107095750610b1a815f611606565b80610709575061070981600160f81b611606565b5f610b385f61078e565b905090565b606060025f80610b4f83338484611618565b610b5a87878761165f565b93505b5050509392505050565b610b6f610e32565b6108fd83838361165f565b5f60048214806106c557506106c582611773565b60605f610ba55f356001600160e01b031916611790565b90506001600160e01b03195f35166001600160a01b038216610bec5760405163af5a720360e01b81526001600160e01b031990911660048201526024015b60405180910390fd5b50610c1b81345f3633604051602001610c0793929190613de3565b6040516020818303038152906040526117d3565b15610c2857610ab86117e8565b610c30611801565b5090565b5f7f0a47d913d72b2639f4ca1c145cc07ddf7170b73b257c8e0d4fced7cc8e3e39005f198601610c7057610c68818661180c565b915050610709565b60028603610c8557610c68600282018661180c565b60038603610ceb57600383118015610c6857506001600160a01b0385166004808301905f90610cb69082888a613e04565b610cbf91613e2b565b6001600160e01b031916815260208101919091526040015f20546001600160a01b031614915050610709565b505f95945050505050565b5f610d0284848461182d565b80610d135750610d13848484611919565b610d63577f773977397739773977397739773977397739773977397739773977397739773984148015610d44575081155b610d56576001600160e01b0319610709565b637739000160e01b610709565b630b135d3f60e11b949350505050565b5f60148210610e21575f365f610d89868661193e565b91945092509050610d9d6001845f806106cb565b15610e1d57604051637aa8f17760e11b81526001600160a01b0384169063f551e2ee90610dd49033908b9087908790600401613cef565b602060405180830381865afa925050508015610e0d575060408051601f3d908101601f19168201909252610e0a91810190613e61565b60015b15610e1d57935061074692505050565b5050505b506001600160e01b03199392505050565b33308114801590610e6057506001600160a01b03811673433709009b8330fda32311df1c2afa402ed8d00914155b1561075e57604051637cf8632b60e01b81526001600160a01b0382166004820152602401610be3565b5f51602061449b5f395f51905f526001600160401b038216610ebe5760405163455daa5f60e11b815260040160405180910390fd5b60028101805467ffffffffffffffff19166001600160401b038416179055610ee4611969565b6040516001600160401b03831681527fa1bcbad4ca88e748de7f039cec105095bae000486ab6533efb33a31d79bdae5e9060200160405180910390a15050565b3373433709009b8330fda32311df1c2afa402ed8d009811461075e57604051637cf8632b60e01b81526001600160a01b0382166004820152602401610be3565b5f610706858585856119ec565b801561075e57610f90338260405180602001604052805f8152506117d3565b5050565b5f8260010182604051610fa79190613e93565b9081526040519081900360200190205415159392505050565b5f51602061449b5f395f51905f525f5b825181101561106a575f838281518110610fec57610fec613e9e565b602090810291909101015190506110038382611a93565b81906110235760405163b3a2e4cb60e01b8152600401610be39190613b03565b50806040516110329190613e93565b604051908190038120907fca2ece94b660c23bf1a2a217d383d94701ca9e368a082921f2d733d010e85505905f90a250600101610fd0565b50610f90611969565b6060610b387f00000000000000000000000000000000000000000000000000000000000000005f611c47565b6060610b387f00000000000000000000000000000000000000000000000000000000000000006001611c47565b5f6110d5610845565b905060606001600160a01b0382161561115f5760405163d68f602560e01b81526001600160a01b0383169063d68f60259061111a90339034905f903690600401613cef565b5f604051808303815f875af1158015611135573d5f5f3e3d5ffd5b505050506040513d5f823e601f3d908101601f1916820160405261115c9190810190613d16565b90505b7f2b49b75317ffc1021ca7da4ca3423bf8403e18b223e63e6bc7abe8f39a5ed70060031986016111da5780546001600160a01b031680156111bf57604051630c005e8d60e11b81526001600160a01b039091166004820152602401610be3565b5080546001600160a01b0319166001600160a01b0386161781555b6111e5868686611cf0565b506001600160a01b0382161561124f57604051630b9dfbed60e11b81526001600160a01b0383169063173bf7da90611221908490600401613b03565b5f604051808303815f87803b158015611238575f5ffd5b505af115801561124a573d5f5f3e3d5ffd5b505050505b5050505050565b606061126982611264865490565b611f81565b91506112758383611f81565b92508282035f816001600160401b03811115611293576112936136a0565b6040519080825280602002602001820160405280156112c657816020015b60608152602001906001900390816112b15790505b5090505f5b8281101561138b576112df87878301611f90565b80546112ea90613eb2565b80601f016020809104026020016040519081016040528092919081815260200182805461131690613eb2565b80156113615780601f1061133857610100808354040283529160200191611361565b820191905f5260205f20905b81548152906001019060200180831161134457829003601f168201915b505050505082828151811061137857611378613e9e565b60209081029190910101526001016112cb565b5095945050505050565b5f51602061449b5f395f51905f525f5b8251811015611463575f8382815181106113c1576113c1613e9e565b6020026020010151905060148151101581906113f157604051630310775b60e21b8152600401610be39190613b03565b506113fc8382611faf565b819061141c576040516325e17a4160e01b8152600401610be39190613b03565b508060405161142b9190613e93565b604051908190038120907f4b35ca4a0708fa3d38267e28bd9478214d7166d3483f78a0f35b00697219d2b2905f90a2506001016113a5565b505050565b5f807ff0c57e16840df040f15088dc2f81fe391c3923bec73e23a9662efc9c229c6a006106c5565b61149861200e565b565b6114a261200e565b610f908282612033565b5f6114b5610845565b905060606001600160a01b0382161561153f5760405163d68f602560e01b81526001600160a01b0383169063d68f6025906114fa90339034905f903690600401613cef565b5f604051808303815f875af1158015611515573d5f5f3e3d5ffd5b505050506040513d5f823e601f3d908101601f1916820160405261153c9190810190613d16565b90505b7f2b49b75317ffc1021ca7da4ca3423bf8403e18b223e63e6bc7abe8f39a5ed70060031986016115bd578054869086906001600160a01b038083169116146115ac57604051631343d68d60e01b815260048101929092526001600160a01b03166024820152604401610be3565b505080546001600160a01b03191681555b6111e586868661204d565b5f5f5f5f6115d6855f612222565b6115e1866001612222565b6115ec87600661225a565b6115f788600a612292565b93509350935093509193509193565b6001600160f81b031990811691161490565b611624848484846106cb565b8484909161165757604051631343d68d60e01b815260048101929092526001600160a01b03166024820152604401610be3565b505050505050565b60605f61166a610845565b905060606001600160a01b038216156116f45760405163d68f602560e01b81526001600160a01b0383169063d68f6025906116af90339034905f903690600401613cef565b5f604051808303815f875af11580156116ca573d5f5f3e3d5ffd5b505050506040513d5f823e601f3d908101601f191682016040526116f19190810190613d16565b90505b6116ff8686866122cd565b92506001600160a01b0382161561176a57604051630b9dfbed60e11b81526001600160a01b0383169063173bf7da9061173c908490600401613b03565b5f604051808303815f87803b158015611753575f5ffd5b505af1158015611765573d5f5f3e3d5ffd5b505050505b50509392505050565b5f60018214806117835750600282145b806106c557505060031490565b6001600160e01b0319165f9081527f0a47d913d72b2639f4ca1c145cc07ddf7170b73b257c8e0d4fced7cc8e3e390460205260409020546001600160a01b031690565b5f5f5f83516020850186885af1949350505050565b6040513d81523d5f602083013e3d602001810160405290565b6040513d5f823e3d81fd5b6001600160a01b0381165f9081526001830160205260408120541515610746565b5f365f5f5f365f61183e898961236b565b9550955095509550955095505f5f5f5f5f611857610873565b509550955095509550955050611876888a61246490919063ffffffff16565b8f14801561188357508515155b801561190657506119066118ff6118f889898c8a805190602001208a805190602001208a8a8a6040516020016118e4959493929190948552602085019390935260408401919091526001600160a01b03166060830152608082015260a00190565b604051602081830303815290604052612483565b8b90612464565b8c8c6124b5565b9f9e505050505050505050505050505050565b5f610709611937611929866124c1565b6119316124f4565b90612464565b84846124b5565b5f368161194b8486613eea565b60601c61195b8560148189613e04565b9250925092505b9250925092565b5f51602061449b5f395f51905f5280545f6119ab7fdfe169305a533e288e0557da8d289146d3cc75fa6e04c87599b048a60a4e5602546001600160401b031690565b905081816001600160401b03811682101561124f57604051638249d75760e01b81526001600160401b03928316600482015291166024820152604401610be3565b5f5f6119f78661261d565b9050611a066001825f806106cb565b611a1b57611a1686868686612635565b611a89565b604051639700320360e01b81526001600160a01b03821690639700320390611a499089908990600401613f61565b6020604051808303815f875af1158015611a65573d5f5f3e3d5ffd5b505050506040513d601f19601f82011682018060405250810190611a899190613dcc565b9695505050505050565b5f5f8360010183604051611aa79190613e93565b9081526020016040518091039020549050805f14611c37575f611acb600183614078565b85549091505f90611ade90600190614078565b9050808214611bdc575f865f018281548110611afc57611afc613e9e565b905f5260205f20018054611b0f90613eb2565b80601f0160208091040260200160405190810160405280929190818152602001828054611b3b90613eb2565b8015611b865780601f10611b5d57610100808354040283529160200191611b86565b820191905f5260205f20905b815481529060010190602001808311611b6957829003601f168201915b5050505050905080875f018481548110611ba257611ba2613e9e565b905f5260205f20019081611bb691906140d9565b50838760010182604051611bca9190613e93565b90815260405190819003602001902055505b8554869080611bed57611bed614193565b600190038181905f5260205f20015f611c069190613576565b90558560010185604051611c1a9190613e93565b90815260200160405180910390205f9055600193505050506106c5565b5f9150506106c5565b5092915050565b606060ff8314611c6157611c5a83612654565b90506106c5565b818054611c6d90613eb2565b80601f0160208091040260200160405190810160405280929190818152602001828054611c9990613eb2565b8015611ce45780601f10611cbb57610100808354040283529160200191611ce4565b820191905f5260205f20905b815481529060010190602001808311611cc757829003601f168201915b505050505090506106c5565b7f0a47d913d72b2639f4ca1c145cc07ddf7170b73b257c8e0d4fced7cc8e3e3900611d1a84610b7a565b8490611d3c576040516360fa2b2360e01b8152600401610be391815260200190565b5060405163ecd0596160e01b8152600481018590526001600160a01b0384169063ecd0596190602401602060405180830381865afa158015611d80573d5f5f3e3d5ffd5b505050506040513d601f19601f82011682018060405250810190611da491906141a7565b84849091611dd757604051638f89476f60e01b815260048101929092526001600160a01b03166024820152604401610be3565b505060018403611e2557611deb8184612691565b84849091611e1e576040516395d48a5b60e01b815260048101929092526001600160a01b03166024820152604401610be3565b5050611edf565b60028403611e3a57611deb6002820184612691565b60038403611edf575f611e4c836126a5565b6001600160e01b031982165f908152600485016020526040902054909450909150859085906001600160a01b031615611eaa576040516395d48a5b60e01b815260048101929092526001600160a01b03166024820152604401610be3565b50506001600160e01b0319165f908152600482016020526040902080546001600160a01b0319166001600160a01b0385161790555b6040516306d61fe760e41b81526001600160a01b03841690636d61fe7090611f0b908590600401613b03565b5f604051808303815f87803b158015611f22575f5ffd5b505af1158015611f34573d5f5f3e3d5ffd5b5050604080518781526001600160a01b03871660208201527fd21d0b289f126c4b473ea641963e766833c2f13866e4ff480abd787c100ef12393500190505b60405180910390a150505050565b5f828218828410028218610746565b5f82610709611fac84611fa8845f9081526020902090565b0190565b90565b5f611fba8383610f94565b6120075782546001810184555f8481526020902001611fd983826140d9565b5082546040516001850190611fef908590613e93565b908152604051908190036020019020555060016106c5565b505f6106c5565b6120166126e7565b61149857604051631afcd79f60e31b815260040160405180910390fd5b61203b61200e565b61204482611395565b610f9081610e89565b7f0a47d913d72b2639f4ca1c145cc07ddf7170b73b257c8e0d4fced7cc8e3e390061207784610b7a565b8490612099576040516360fa2b2360e01b8152600401610be391815260200190565b50600184036120e6576120ac8184612700565b848490916120df57604051631343d68d60e01b815260048101929092526001600160a01b03166024820152604401610be3565b505061219f565b600284036120fb576120ac6002820184612700565b6003840361219f575f61210d836126a5565b935090506001600160a01b03841661212482611790565b6001600160a01b031614801561214257506001600160a01b03841615155b8585909161217557604051631343d68d60e01b815260048101929092526001600160a01b03166024820152604401610be3565b50506001600160e01b0319165f908152600482016020526040902080546001600160a01b03191690555b6121e383836040516024016121b49190613b03565b60408051601f198184030181529190526020810180516001600160e01b0316638a91b0e360e01b179052612714565b50604080518581526001600160a01b03851660208201527f341347516a9de374859dfda710fa4828b2d48cb57d4fbe4c1149612b8e02276e9101611f73565b5f601f8260ff16111561224857604051631dd4bb1b60e11b815260040160405180910390fd5b506008021b6001600160f81b03191690565b5f601c8260ff16111561228057604051631dd4bb1b60e11b815260040160405180910390fd5b506008021b6001600160e01b03191690565b5f600a8260ff1611156122b857604051631dd4bb1b60e11b815260040160405180910390fd5b506008021b69ffffffffffffffffffff191690565b60605f5f6122da866115c8565b5050915091506122ed825f60f81b611606565b15612306576122fd858583612720565b92505050610746565b61231482600160f81b611606565b15612324576122fd85858361279c565b612336826001600160f81b0319611606565b15612346576122fd8585836128c2565b6040516358df354b60e11b81526001600160f81b031983166004820152602401610be3565b365f8080838186604281101561239357505f955085945084935083925082915081905061245a565b60011981015f6123a58a83818e613e04565b6123ae916141c6565b60f01c9050604281018310156123d957505f975087965086955085945084935083925061245a915050565b5f81830390505f6020820390505f6020820390508d8d5f9083926123ff93929190613e04565b9b509b508d8d8290849261241593929190613e04565b61241e916141fc565b99508d8d8390859261243293929190613e04565b61243b916141fc565b98508d8d8490879261244f93929190613e04565b975097505050505050505b9295509295509295565b60405161190160f01b8152600281019290925260228201526042902090565b5f365f365f6124928989612938565b93509350935093506124a8848484848b8b612aaf565b9998505050505050505050565b5f610709848484612afe565b7f983e65e5148e570cd828ead231ee759a8d7958721a768f93bc4483ba005c32de5f9081526020829052604081206106c5565b5f306001600160a01b037f00000000000000000000000000000000000000000000000000000000000000001614801561254c57507f000000000000000000000000000000000000000000000000000000000000000046145b1561257657507f000000000000000000000000000000000000000000000000000000000000000090565b610b38604080517f8b73c3c69bb8fe3d512ecc4cf759cc79239f7b179b0ffacaa9a75d522b39400f60208201527f0000000000000000000000000000000000000000000000000000000000000000918101919091527f000000000000000000000000000000000000000000000000000000000000000060608201524660808201523060a08201525f9060c00160405160208183030381529060405280519060200120905090565b5f61262c602083013582612b3a565b60601c92915050565b5f61263f84611937565b61264a576001610706565b505f949350505050565b60605f61266083612b72565b6040805160208082528183019092529192505f91906020820181803683375050509182525060208101929092525090565b5f610746836001600160a01b038416612b99565b5f606060038351116126ca5760405163fa29871160e01b815260040160405180910390fd5b6126d383614219565b6126de846004612bde565b91509150915091565b5f6126f0611468565b54600160401b900460ff16919050565b5f610746836001600160a01b038416612bec565b5f610746835f846117d3565b60605f5f365f6127308888612cc6565b6040805160018082528183019092529498509296509094509250816020015b606081526020019060019003908161274f5790505094506127745f8786868686612d0a565b855f8151811061278657612786613e9e565b6020026020010181905250505050509392505050565b6060365f6127aa8686612d8f565b9092509050806001600160401b038111156127c7576127c76136a0565b6040519080825280602002602001820160405280156127fa57816020015b60608152602001906001900390816127e55790505b5092505f5b81811015610b5d5761289d818685858581811061281e5761281e613e9e565b90506020028101906128309190614257565b61283e906020810190614275565b86868681811061285057612850613e9e565b90506020028101906128629190614257565b6020013587878781811061287857612878613e9e565b905060200281019061288a9190614257565b612898906040810190613d8a565b612d0a565b8482815181106128af576128af613e9e565b60209081029190910101526001016127ff565b60605f365f6128d18787612e54565b6040805160018082528183019092529396509194509250816020015b60608152602001906001900390816128ed5790505093506129115f86858585612e7e565b845f8151811061292357612923613e9e565b60200260200101819052505050509392505050565b365f818185858015612a9757602960f81b8282612956600182614078565b81811061296557612965613e9e565b9050013560f81c60f81b6001600160f81b03191603612a06575f5b81811015612a00575f83838381811061299b5761299b613e9e565b909101356001600160f81b031916915050601b60fb1b81016129e357815f036129c45750612a00565b6129d0825f8587613e04565b8b8b975097509750975050505050612aa6565b6129ec81612f0c565b156129f75750612a00565b50600101612980565b50612a97565b805b8015612a95575f8383612a1c600185614078565b818110612a2b57612a2b613e9e565b909101356001600160f81b03191691505060d760f81b8101612a7057612a5383838187613e04565b612a5f845f8789613e04565b975097509750975050505050612aa6565b612a7981612f0c565b15612a845750612a95565b50612a8e8161428e565b9050612a08565b505b5f805f80955095509550955050505b92959194509250565b5f8515612af157612ac287878787612f7e565b8383604051602001612ad6939291906142a3565b60405160208183030381529060405280519060200120612af3565b5f5b979650505050505050565b5f818103612b0d57505f610746565b5f80612b1b848601866142ba565b91509150612b2882612fb6565b8015611a895750611a89868383612ffc565b5f600c8260ff161115612b6057604051631dd4bb1b60e11b815260040160405180910390fd5b506008021b6001600160601b03191690565b5f60ff8216601f8111156106c557604051632cd44ac360e21b815260040160405180910390fd5b5f81815260018301602052604081205461200757508154600181810184555f8481526020808220909301849055845484825282860190935260409020919091556106c5565b60606107468383855161304b565b5f8181526001830160205260408120548015611c37575f612c0e600183614078565b85549091505f90612c2190600190614078565b9050808214612c80575f865f018281548110612c3f57612c3f613e9e565b905f5260205f200154905080875f018481548110612c5f57612c5f613e9e565b5f918252602080832090910192909255918252600188019052604090208390555b8554869080612c9157612c91614193565b600190038181905f5260205f20015f90559055856001015f8681526020019081526020015f205f9055600193505050506106c5565b5f803681612cd48587613eea565b60601c9350612ce7603460148789613e04565b612cf0916141fc565b9250612cff8560348189613e04565b949793965094505050565b60605f806001600160a01b03871615612d235786612d25565b305b6001600160a01b0316868686604051612d3f92919061431d565b5f6040518083038185875af1925050503d805f8114612d79576040519150601f19603f3d011682016040523d82523d5f602084013e612d7e565b606091505b50915091506124a8898984846130cb565b365f826020811015612db45760405163eb0bcc5d60e01b815260040160405180910390fd5b5f612dc26020828789613e04565b612dcb916141fc565b9050601f198201811115612df25760405163eb0bcc5d60e01b815260040160405180910390fd5b5f612e026020830183888a613e04565b612e0b916141fc565b90506001600160401b03811180612e29575080602002602083850303105b15612e475760405163eb0bcc5d60e01b815260040160405180910390fd5b9501602001959350505050565b5f3681612e618486613eea565b60601c9250612e738460148188613e04565b915091509250925092565b60605f806001600160a01b03861615612e975785612e99565b305b6001600160a01b03168585604051612eb292919061431d565b5f60405180830381855af49150503d805f8114612eea576040519150601f19603f3d011682016040523d82523d5f602084013e612eef565b606091505b5091509150612f00888884846130cb565b98975050505050505050565b5f6001600160f81b031982161580612f3157506001600160f81b03198216600160fd1b145b80612f4957506001600160f81b03198216600b60fa1b145b80612f6157506001600160f81b03198216600560fb1b145b806106c557506001600160f81b03198216602960f81b1492915050565b5f84848484604051602001612f96949392919061432c565b604051602081830303815290604052805190602001209050949350505050565b5f612fe87fdfe169305a533e288e0557da8d289146d3cc75fa6e04c87599b048a60a4e5602546001600160401b031690565b6001600160401b0316825110159050919050565b5f805b835181101561303f5761302a84828151811061301d5761301d613e9e565b602002602001015161081b565b613037575f915050610746565b600101612fff565b50610709848484613170565b6060613058828551611f81565b91506130648383611f81565b92505f6130718484614078565b6001600160401b03811115613088576130886136a0565b6040519080825280601f01601f1916602001820160405280156130b2576020820181803683370190505b509050838303846020870101602083015e949350505050565b60606130d7845f611606565b156130ec576130e68383613252565b50613168565b6130fa84600160f81b611606565b15613143578261313e577f2eea2f51f83910481f4b5ba28b7003a6e045d4b59f67dfff8d4c90119405008985836040516131359291906143d7565b60405180910390a15b613168565b6040516323a2408560e01b81526001600160f81b031985166004820152602401610be3565b509392505050565b5f815183511461318157505f610746565b5f805b8451811015613246575f8582815181106131a0576131a0613e9e565b602002602001015190506131ce81888785815181106131c1576131c1613e9e565b602002602001015161328f565b6131dd575f9350505050610746565b80516020820120808410156131f45780935061323c565b5f5b8381101561323a5787818151811061321057613210613e9e565b6020026020010151805190602001208203613232575f95505050505050610746565b6001016131f6565b505b5050600101613184565b50600195945050505050565b606082156132615750806106c5565b81511561327657613271826133a7565b6106c5565b60405163d6bda27560e01b815260040160405180910390fd5b5f6014845110156132a157505f610746565b83516014036132c7576132c06132b6856143ef565b60601c84846133af565b9050610746565b5f806132d2866143ef565b60601c6132e0876014612bde565b86866040516024016132f493929190614429565b60408051601f198184030181529181526020820180516001600160e01b031662495a6360e31b179052516133289190613e93565b5f60405180830381855afa9150503d805f8114613360576040519150601f19603f3d011682016040523d82523d5f602084013e613365565b606091505b509150915081801561337957506020815110155b80156122fd5750805162495a6360e31b9061339d9083016020908101908401613dcc565b1492505050610746565b805160208201fd5b5f836001600160a01b03163b5f0361340c575f5f6133cd8585613417565b5090925090505f8160038111156133e6576133e6614453565b1480156122fd5750856001600160a01b0316826001600160a01b03161492505050610746565b6132c084848461345d565b5f5f5f835160410361344e576020840151604085015160608601515f1a613440888285856134ae565b955095509550505050611962565b505081515f9150600290611962565b805160408051630b135d3f60e11b8082526004820186905260248201929092525f92906020820185604483015e60205f60648401838a5afa9050825f5114601f3d1116811693505050509392505050565b5f80807f7fffffffffffffffffffffffffffffff5d576e7357a4501ddfe92f46681b20a08411156134e757505f9150600390508261356c565b604080515f808252602082018084528a905260ff891692820192909252606081018790526080810186905260019060a0016020604051602081039080840390855afa158015613538573d5f5f3e3d5ffd5b5050604051601f1901519150506001600160a01b03811661356357505f92506001915082905061356c565b92505f91508190505b9450945094915050565b50805461358290613eb2565b5f825580601f10613591575050565b601f0160209004905f5260205f209061149891905f5b80821115611463575f818401556001016135a7565b6001600160e01b03198116811461075e575f5ffd5b5f602082840312156135e1575f5ffd5b8135610746816135bc565b80356001600160a01b0381168114613602575f5ffd5b919050565b5f5f83601f840112613617575f5ffd5b5081356001600160401b0381111561362d575f5ffd5b602083019150836020828501011115613644575f5ffd5b9250929050565b5f5f5f5f6060858703121561365e575f5ffd5b8435935061366e602086016135ec565b925060408501356001600160401b03811115613688575f5ffd5b61369487828801613607565b95989497509550505050565b634e487b7160e01b5f52604160045260245ffd5b604051601f8201601f191681016001600160401b03811182821017156136dc576136dc6136a0565b604052919050565b5f6001600160401b038211156136fc576136fc6136a0565b50601f01601f191660200190565b5f82601f830112613719575f5ffd5b813561372c613727826136e4565b6136b4565b818152846020838601011115613740575f5ffd5b816020850160208301375f918101602001919091529392505050565b5f5f5f5f6080858703121561376f575f5ffd5b613778856135ec565b9350613786602086016135ec565b92506040850135915060608501356001600160401b038111156137a7575f5ffd5b6137b38782880161370a565b91505092959194509250565b5f5f5f604084860312156137d1575f5ffd5b8335925060208401356001600160401b038111156137ed575f5ffd5b6137f986828701613607565b9497909650939450505050565b80356001600160401b0381168114613602575f5ffd5b5f6020828403121561382c575f5ffd5b61074682613806565b5f5f5f60608486031215613847575f5ffd5b83356001600160401b0381111561385c575f5ffd5b8401610120818703121561386e575f5ffd5b95602085013595506040909401359392505050565b5f60208284031215613893575f5ffd5b81356001600160c01b0381168114610746575f5ffd5b5f602082840312156138b9575f5ffd5b81356001600160401b038111156138ce575f5ffd5b6107098482850161370a565b5f6001600160401b038211156138f2576138f26136a0565b5060051b60200190565b5f82601f83011261390b575f5ffd5b8135613919613727826138da565b8082825260208201915060208360051b86010192508583111561393a575f5ffd5b602085015b8381101561138b5780356001600160401b0381111561395c575f5ffd5b61396b886020838a010161370a565b8452506020928301920161393f565b5f6020828403121561398a575f5ffd5b81356001600160401b0381111561399f575f5ffd5b610709848285016138fc565b5f81518084528060208401602086015e5f602082860101526020601f19601f83011685010191505092915050565b60ff60f81b8816815260e060208201525f6139f760e08301896139ab565b8281036040840152613a0981896139ab565b606084018890526001600160a01b038716608085015260a0840186905283810360c0850152845180825260208087019350909101905f5b81811015613a5e578351835260209384019390920191600101613a40565b50909b9a5050505050505050505050565b5f5f60408385031215613a80575f5ffd5b613a8983613806565b9150613a9760208401613806565b90509250929050565b5f602082016020835280845180835260408501915060408160051b8601019250602086015f5b82811015613af757603f19878603018452613ae28583516139ab565b94506020938401939190910190600101613ac6565b50929695505050505050565b602081525f61074660208301846139ab565b5f5f60408385031215613b26575f5ffd5b82356001600160401b03811115613b3b575f5ffd5b613b47858286016138fc565b925050613a9760208401613806565b5f82601f830112613b65575f5ffd5b8135613b73613727826138da565b8082825260208201915060208360051b860101925085831115613b94575f5ffd5b602085015b8381101561138b578035835260209283019201613b99565b5f5f5f5f5f60a08688031215613bc5575f5ffd5b613bce866135ec565b9450613bdc602087016135ec565b935060408601356001600160401b03811115613bf6575f5ffd5b613c0288828901613b56565b93505060608601356001600160401b03811115613c1d575f5ffd5b613c2988828901613b56565b92505060808601356001600160401b03811115613c44575f5ffd5b613c508882890161370a565b9150509295509295909350565b5f60208284031215613c6d575f5ffd5b5035919050565b5f5f5f5f5f60a08688031215613c88575f5ffd5b613c91866135ec565b9450613c9f602087016135ec565b9350604086013592506060860135915060808601356001600160401b03811115613c44575f5ffd5b81835281816020850137505f828201602090810191909152601f909101601f19169091010190565b60018060a01b0385168152836020820152606060408201525f611a89606083018486613cc7565b5f60208284031215613d26575f5ffd5b81516001600160401b03811115613d3b575f5ffd5b8201601f81018413613d4b575f5ffd5b8051613d59613727826136e4565b818152856020838501011115613d6d575f5ffd5b8160208401602083015e5f91810160200191909152949350505050565b5f5f8335601e19843603018112613d9f575f5ffd5b8301803591506001600160401b03821115613db8575f5ffd5b602001915036819003821315613644575f5ffd5b5f60208284031215613ddc575f5ffd5b5051919050565b8284823760609190911b6001600160601b0319169101908152601401919050565b5f5f85851115613e12575f5ffd5b83861115613e1e575f5ffd5b5050820193919092039150565b80356001600160e01b03198116906004841015611c40576001600160e01b031960049490940360031b84901b1690921692915050565b5f60208284031215613e71575f5ffd5b8151610746816135bc565b5f81518060208401855e5f93019283525090919050565b5f6107468284613e7c565b634e487b7160e01b5f52603260045260245ffd5b600181811c90821680613ec657607f821691505b602082108103613ee457634e487b7160e01b5f52602260045260245ffd5b50919050565b80356001600160601b03198116906014841015611c40576001600160601b031960149490940360031b84901b1690921692915050565b5f5f8335601e19843603018112613f35575f5ffd5b83016020810192503590506001600160401b03811115613f53575f5ffd5b803603821315613644575f5ffd5b60408152613f8260408201613f75856135ec565b6001600160a01b03169052565b602083013560608201525f613f9a6040850185613f20565b6101206080850152613fb161016085018284613cc7565b915050613fc16060860186613f20565b848303603f190160a0860152613fd8838284613cc7565b608088013560c08781019190915260a089013560e0808901919091529089013561010088015290935061401092508701905086613f20565b848303603f1901610120860152614028838284613cc7565b9250505061403a610100860186613f20565b848303603f1901610140860152614052838284613cc7565b93505050508260208301529392505050565b634e487b7160e01b5f52601160045260245ffd5b818103818111156106c5576106c5614064565b601f821115611463578282111561146357805f5260205f20601f840160051c60208510156140b657505f5b90810190601f840160051c035f5b81811015611657575f838201556001016140c4565b81516001600160401b038111156140f2576140f26136a0565b614106816141008454613eb2565b8461408b565b6020601f821160018114614138575f83156141215750848201515b5f19600385901b1c1916600184901b17845561124f565b5f84815260208120601f198516915b828110156141675787850151825560209485019460019092019101614147565b508482101561418457868401515f19600387901b60f8161c191681555b50505050600190811b01905550565b634e487b7160e01b5f52603160045260245ffd5b5f602082840312156141b7575f5ffd5b81518015158114610746575f5ffd5b80356001600160f01b03198116906002841015611c40576001600160f01b031960029490940360031b84901b1690921692915050565b803560208310156106c5575f19602084900360031b1b1692915050565b805160208201516001600160e01b0319811691906004821015614250576001600160e01b0319600483900360031b81901b82161692505b5050919050565b5f8235605e1983360301811261426b575f5ffd5b9190910192915050565b5f60208284031215614285575f5ffd5b610746826135ec565b5f8161429c5761429c614064565b505f190190565b8381528260208201525f6107066040830184613e7c565b5f5f604083850312156142cb575f5ffd5b82356001600160401b038111156142e0575f5ffd5b6142ec858286016138fc565b92505060208301356001600160401b03811115614307575f5ffd5b614313858286016138fc565b9150509250929050565b818382375f9101908152919050565b6d0a8f2e0cac888c2e8c2a6d2cedc560931b81528385600e8301375f8482017f20636f6e74656e74732c737472696e67206e616d652c737472696e6720766572600e8201527f73696f6e2c75696e7432353620636861696e49642c6164647265737320766572602e8201527f696679696e67436f6e74726163742c627974657333322073616c742900000000604e8201528385606a8301375f9301606a019283525090949350505050565b828152604060208201525f61070960408301846139ab565b805160208201516001600160601b0319811691906014821015614250576001600160601b031960149290920360031b82901b161692915050565b606081525f61443b60608301866139ab565b8460208401528281036040840152611a8981856139ab565b634e487b7160e01b5f52602160045260245ffdfe406f70656e7a657070656c696e2f636f6e7472616374732e4163636f756e7445524337353739486f6f6b65642e76312e302e30dfe169305a533e288e0557da8d289146d3cc75fa6e04c87599b048a60a4e5600a26469706673582212202f72437e8463ad5b2c5d7e7975ad396ed925bea04cdbbe395f644b4044d3063564736f6c63430008230033",
		"opcodes": "PUSH2 0x160 PUSH1 0x40 MSTORE CALLVALUE DUP1 ISZERO PUSH2 0x10 JUMPI PUSH0 PUSH0 REVERT JUMPDEST POP PUSH1 0x40 DUP1 MLOAD DUP1 DUP3 ADD DUP3 MSTORE PUSH1 0x9 DUP2 MSTORE PUSH9 0x2230B83826B4B732B9 PUSH1 0xB9 SHL PUSH1 0x20 DUP1 DUP4 ADD SWAP2 SWAP1 SWAP2 MSTORE DUP3 MLOAD DUP1 DUP5 ADD SWAP1 SWAP4 MSTORE PUSH1 0x1 DUP4 MSTORE PUSH1 0x31 PUSH1 0xF8 SHL SWAP1 DUP4 ADD MSTORE SWAP1 PUSH2 0x54 DUP3 PUSH0 PUSH2 0x105 JUMP JUMPDEST PUSH2 0x120 MSTORE PUSH2 0x63 DUP2 PUSH1 0x1 PUSH2 0x105 JUMP JUMPDEST PUSH2 0x140 MSTORE DUP2 MLOAD PUSH1 0x20 DUP1 DUP5 ADD SWAP2 SWAP1 SWAP2 KECCAK256 PUSH1 0xE0 MSTORE DUP2 MLOAD SWAP1 DUP3 ADD KECCAK256 PUSH2 0x100 MSTORE CHAINID PUSH1 0xA0 MSTORE PUSH2 0xEF PUSH1 0xE0 MLOAD PUSH2 0x100 MLOAD PUSH1 0x40 DUP1 MLOAD PUSH32 0x8B73C3C69BB8FE3D512ECC4CF759CC79239F7B179B0FFACAA9A75D522B39400F PUSH1 0x20 DUP3 ADD MSTORE SWAP1 DUP2 ADD SWAP3 SWAP1 SWAP3 MSTORE PUSH1 0x60 DUP3 ADD MSTORE CHAINID PUSH1 0x80 DUP3 ADD MSTORE ADDRESS PUSH1 0xA0 DUP3 ADD MSTORE PUSH0 SWAP1 PUSH1 0xC0 ADD PUSH1 0x40 MLOAD PUSH1 0x20 DUP2 DUP4 SUB SUB DUP2 MSTORE SWAP1 PUSH1 0x40 MSTORE DUP1 MLOAD SWAP1 PUSH1 0x20 ADD KECCAK256 SWAP1 POP SWAP1 JUMP JUMPDEST PUSH1 0x80 MSTORE POP POP ADDRESS PUSH1 0xC0 MSTORE PUSH2 0x100 PUSH2 0x137 JUMP JUMPDEST PUSH2 0x3FB JUMP JUMPDEST PUSH0 PUSH1 0x20 DUP4 MLOAD LT ISZERO PUSH2 0x120 JUMPI PUSH2 0x119 DUP4 PUSH2 0x1D4 JUMP JUMPDEST SWAP1 POP PUSH2 0x131 JUMP JUMPDEST DUP2 PUSH2 0x12B DUP5 DUP3 PUSH2 0x2E5 JUMP JUMPDEST POP PUSH1 0xFF SWAP1 POP JUMPDEST SWAP3 SWAP2 POP POP JUMP JUMPDEST PUSH0 PUSH2 0x140 PUSH2 0x21A JUMP JUMPDEST DUP1 SLOAD SWAP1 SWAP2 POP PUSH9 0x10000000000000000 SWAP1 DIV PUSH1 0xFF AND ISZERO PUSH2 0x172 JUMPI PUSH1 0x40 MLOAD PUSH4 0xF92EE8A9 PUSH1 0xE0 SHL DUP2 MSTORE PUSH1 0x4 ADD PUSH1 0x40 MLOAD DUP1 SWAP2 SUB SWAP1 REVERT JUMPDEST DUP1 SLOAD PUSH1 0x1 PUSH1 0x1 PUSH1 0x40 SHL SUB SWAP1 DUP2 AND EQ PUSH2 0x1D1 JUMPI DUP1 SLOAD PUSH1 0x1 PUSH1 0x1 PUSH1 0x40 SHL SUB NOT AND PUSH1 0x1 PUSH1 0x1 PUSH1 0x40 SHL SUB SWAP1 DUP2 OR DUP3 SSTORE PUSH1 0x40 MLOAD SWAP1 DUP2 MSTORE PUSH32 0xC7F505B2F371AE2175EE4913F4499E1F2633A7B5936321EED1CDAEB6115181D2 SWAP1 PUSH1 0x20 ADD PUSH1 0x40 MLOAD DUP1 SWAP2 SUB SWAP1 LOG1 JUMPDEST POP JUMP JUMPDEST PUSH0 PUSH0 DUP3 SWAP1 POP PUSH1 0x1F DUP2 MLOAD GT ISZERO PUSH2 0x207 JUMPI DUP3 PUSH1 0x40 MLOAD PUSH4 0x305A27A9 PUSH1 0xE0 SHL DUP2 MSTORE PUSH1 0x4 ADD PUSH2 0x1FE SWAP2 SWAP1 PUSH2 0x3A3 JUMP JUMPDEST PUSH1 0x40 MLOAD DUP1 SWAP2 SUB SWAP1 REVERT JUMPDEST DUP1 MLOAD PUSH2 0x212 DUP3 PUSH2 0x3D8 JUMP JUMPDEST OR SWAP4 SWAP3 POP POP POP JUMP JUMPDEST PUSH0 DUP1 PUSH32 0xF0C57E16840DF040F15088DC2F81FE391C3923BEC73E23A9662EFC9C229C6A00 PUSH2 0x131 JUMP JUMPDEST PUSH4 0x4E487B71 PUSH1 0xE0 SHL PUSH0 MSTORE PUSH1 0x41 PUSH1 0x4 MSTORE PUSH1 0x24 PUSH0 REVERT JUMPDEST PUSH1 0x1 DUP2 DUP2 SHR SWAP1 DUP3 AND DUP1 PUSH2 0x26A JUMPI PUSH1 0x7F DUP3 AND SWAP2 POP JUMPDEST PUSH1 0x20 DUP3 LT DUP2 SUB PUSH2 0x288 JUMPI PUSH4 0x4E487B71 PUSH1 0xE0 SHL PUSH0 MSTORE PUSH1 0x22 PUSH1 0x4 MSTORE PUSH1 0x24 PUSH0 REVERT JUMPDEST POP SWAP2 SWAP1 POP JUMP JUMPDEST PUSH1 0x1F DUP3 GT ISZERO PUSH2 0x2E0 JUMPI DUP3 DUP3 GT ISZERO PUSH2 0x2E0 JUMPI DUP1 PUSH0 MSTORE PUSH1 0x20 PUSH0 KECCAK256 PUSH1 0x1F DUP5 ADD PUSH1 0x5 SHR PUSH1 0x20 DUP6 LT ISZERO PUSH2 0x2B9 JUMPI POP PUSH0 JUMPDEST SWAP1 DUP2 ADD SWAP1 PUSH1 0x1F DUP5 ADD PUSH1 0x5 SHR SUB PUSH0 JUMPDEST DUP2 DUP2 LT ISZERO PUSH2 0x2DC JUMPI PUSH0 DUP4 DUP3 ADD SSTORE PUSH1 0x1 ADD PUSH2 0x2C7 JUMP JUMPDEST POP POP POP JUMPDEST POP POP POP JUMP JUMPDEST DUP2 MLOAD PUSH1 0x1 PUSH1 0x1 PUSH1 0x40 SHL SUB DUP2 GT ISZERO PUSH2 0x2FE JUMPI PUSH2 0x2FE PUSH2 0x242 JUMP JUMPDEST PUSH2 0x312 DUP2 PUSH2 0x30C DUP5 SLOAD PUSH2 0x256 JUMP JUMPDEST DUP5 PUSH2 0x28E JUMP JUMPDEST PUSH1 0x20 PUSH1 0x1F DUP3 GT PUSH1 0x1 DUP2 EQ PUSH2 0x344 JUMPI PUSH0 DUP4 ISZERO PUSH2 0x32D JUMPI POP DUP5 DUP3 ADD MLOAD JUMPDEST PUSH0 NOT PUSH1 0x3 DUP6 SWAP1 SHL SHR NOT AND PUSH1 0x1 DUP5 SWAP1 SHL OR DUP5 SSTORE PUSH2 0x39C JUMP JUMPDEST PUSH0 DUP5 DUP2 MSTORE PUSH1 0x20 DUP2 KECCAK256 PUSH1 0x1F NOT DUP6 AND SWAP2 JUMPDEST DUP3 DUP2 LT ISZERO PUSH2 0x373 JUMPI DUP8 DUP6 ADD MLOAD DUP3 SSTORE PUSH1 0x20 SWAP5 DUP6 ADD SWAP5 PUSH1 0x1 SWAP1 SWAP3 ADD SWAP2 ADD PUSH2 0x353 JUMP JUMPDEST POP DUP5 DUP3 LT ISZERO PUSH2 0x390 JUMPI DUP7 DUP5 ADD MLOAD PUSH0 NOT PUSH1 0x3 DUP8 SWAP1 SHL PUSH1 0xF8 AND SHR NOT AND DUP2 SSTORE JUMPDEST POP POP PUSH1 0x1 DUP4 PUSH1 0x1 SHL ADD DUP5 SSTORE JUMPDEST POP POP POP POP POP JUMP JUMPDEST PUSH1 0x20 DUP2 MSTORE PUSH0 DUP3 MLOAD DUP1 PUSH1 0x20 DUP5 ADD MSTORE DUP1 PUSH1 0x20 DUP6 ADD PUSH1 0x40 DUP6 ADD MCOPY PUSH0 PUSH1 0x40 DUP3 DUP6 ADD ADD MSTORE PUSH1 0x40 PUSH1 0x1F NOT PUSH1 0x1F DUP4 ADD AND DUP5 ADD ADD SWAP2 POP POP SWAP3 SWAP2 POP POP JUMP JUMPDEST DUP1 MLOAD PUSH1 0x20 DUP1 DUP4 ADD MLOAD SWAP2 SWAP1 DUP2 LT ISZERO PUSH2 0x288 JUMPI PUSH0 NOT PUSH1 0x20 SWAP2 SWAP1 SWAP2 SUB PUSH1 0x3 SHL SHL AND SWAP2 SWAP1 POP JUMP JUMPDEST PUSH1 0x80 MLOAD PUSH1 0xA0 MLOAD PUSH1 0xC0 MLOAD PUSH1 0xE0 MLOAD PUSH2 0x100 MLOAD PUSH2 0x120 MLOAD PUSH2 0x140 MLOAD PUSH2 0x44F0 PUSH2 0x44C PUSH0 CODECOPY PUSH0 PUSH2 0x10A6 ADD MSTORE PUSH0 PUSH2 0x107A ADD MSTORE PUSH0 PUSH2 0x25CD ADD MSTORE PUSH0 PUSH2 0x25A5 ADD MSTORE PUSH0 PUSH2 0x2500 ADD MSTORE PUSH0 PUSH2 0x252A ADD MSTORE PUSH0 PUSH2 0x2554 ADD MSTORE PUSH2 0x44F0 PUSH0 RETURN INVALID PUSH1 0x80 PUSH1 0x40 MSTORE PUSH1 0x4 CALLDATASIZE LT PUSH2 0x19F JUMPI PUSH0 CALLDATALOAD PUSH1 0xE0 SHR DUP1 PUSH4 0x95FCD041 GT PUSH2 0xEB JUMPI DUP1 PUSH4 0xBC197C81 GT PUSH2 0x89 JUMPI DUP1 PUSH4 0xD691C964 GT PUSH2 0x63 JUMPI DUP1 PUSH4 0xD691C964 EQ PUSH2 0x518 JUMPI DUP1 PUSH4 0xE9AE5C53 EQ PUSH2 0x52B JUMPI DUP1 PUSH4 0xF23A6E61 EQ PUSH2 0x53E JUMPI DUP1 PUSH4 0xF2DC691D EQ PUSH2 0x569 JUMPI PUSH2 0x1A6 JUMP JUMPDEST DUP1 PUSH4 0xBC197C81 EQ PUSH2 0x4BA JUMPI DUP1 PUSH4 0xD03C7914 EQ PUSH2 0x4E5 JUMPI DUP1 PUSH4 0xD087D288 EQ PUSH2 0x504 JUMPI PUSH2 0x1A6 JUMP JUMPDEST DUP1 PUSH4 0x9DDFDAF9 GT PUSH2 0xC5 JUMPI DUP1 PUSH4 0x9DDFDAF9 EQ PUSH2 0x442 JUMPI DUP1 PUSH4 0xA71763A8 EQ PUSH2 0x461 JUMPI DUP1 PUSH4 0xB0D691FE EQ PUSH2 0x480 JUMPI DUP1 PUSH4 0xB715BE81 EQ PUSH2 0x4A6 JUMPI PUSH2 0x1A6 JUMP JUMPDEST DUP1 PUSH4 0x95FCD041 EQ PUSH2 0x3D6 JUMPI DUP1 PUSH4 0x96D4110B EQ PUSH2 0x402 JUMPI DUP1 PUSH4 0x9CFD7CFF EQ PUSH2 0x421 JUMPI PUSH2 0x1A6 JUMP JUMPDEST DUP1 PUSH4 0x3E1B0812 GT PUSH2 0x158 JUMPI DUP1 PUSH4 0x7CC2046B GT PUSH2 0x132 JUMPI DUP1 PUSH4 0x7CC2046B EQ PUSH2 0x345 JUMPI DUP1 PUSH4 0x7F5A7C7B EQ PUSH2 0x364 JUMPI DUP1 PUSH4 0x84B0196E EQ PUSH2 0x390 JUMPI DUP1 PUSH4 0x9517E29F EQ PUSH2 0x3B7 JUMPI PUSH2 0x1A6 JUMP JUMPDEST DUP1 PUSH4 0x3E1B0812 EQ PUSH2 0x2C1 JUMPI DUP1 PUSH4 0x42CDE4E8 EQ PUSH2 0x2E0 JUMPI DUP1 PUSH4 0x43B98665 EQ PUSH2 0x326 JUMPI PUSH2 0x1A6 JUMP JUMPDEST DUP1 PUSH4 0x1FFC9A7 EQ PUSH2 0x1BE JUMPI DUP1 PUSH4 0x112D3A7D EQ PUSH2 0x1F2 JUMPI DUP1 PUSH4 0x150B7A02 EQ PUSH2 0x211 JUMPI DUP1 PUSH4 0x1626BA7E EQ PUSH2 0x254 JUMPI DUP1 PUSH4 0x17C4DE35 EQ PUSH2 0x273 JUMPI DUP1 PUSH4 0x19822F7C EQ PUSH2 0x294 JUMPI PUSH2 0x1A6 JUMP JUMPDEST CALLDATASIZE PUSH2 0x1A6 JUMPI STOP JUMPDEST PUSH0 CALLDATASIZE PUSH1 0x60 PUSH2 0x1B2 PUSH2 0x588 JUMP JUMPDEST DUP1 MLOAD SWAP4 POP PUSH1 0x20 ADD SWAP2 POP POP RETURN JUMPDEST CALLVALUE DUP1 ISZERO PUSH2 0x1C9 JUMPI PUSH0 PUSH0 REVERT JUMPDEST POP PUSH2 0x1DD PUSH2 0x1D8 CALLDATASIZE PUSH1 0x4 PUSH2 0x35D1 JUMP JUMPDEST PUSH2 0x695 JUMP JUMPDEST PUSH1 0x40 MLOAD SWAP1 ISZERO ISZERO DUP2 MSTORE PUSH1 0x20 ADD JUMPDEST PUSH1 0x40 MLOAD DUP1 SWAP2 SUB SWAP1 RETURN JUMPDEST CALLVALUE DUP1 ISZERO PUSH2 0x1FD JUMPI PUSH0 PUSH0 REVERT JUMPDEST POP PUSH2 0x1DD PUSH2 0x20C CALLDATASIZE PUSH1 0x4 PUSH2 0x364B JUMP JUMPDEST PUSH2 0x6CB JUMP JUMPDEST CALLVALUE DUP1 ISZERO PUSH2 0x21C JUMPI PUSH0 PUSH0 REVERT JUMPDEST POP PUSH2 0x23B PUSH2 0x22B CALLDATASIZE PUSH1 0x4 PUSH2 0x375C JUMP JUMPDEST PUSH4 0xA85BD01 PUSH1 0xE1 SHL SWAP5 SWAP4 POP POP POP POP JUMP JUMPDEST PUSH1 0x40 MLOAD PUSH1 0x1 PUSH1 0x1 PUSH1 0xE0 SHL SUB NOT SWAP1 SWAP2 AND DUP2 MSTORE PUSH1 0x20 ADD PUSH2 0x1E9 JUMP JUMPDEST CALLVALUE DUP1 ISZERO PUSH2 0x25F JUMPI PUSH0 PUSH0 REVERT JUMPDEST POP PUSH2 0x23B PUSH2 0x26E CALLDATASIZE PUSH1 0x4 PUSH2 0x37BF JUMP JUMPDEST PUSH2 0x711 JUMP JUMPDEST CALLVALUE DUP1 ISZERO PUSH2 0x27E JUMPI PUSH0 PUSH0 REVERT JUMPDEST POP PUSH2 0x292 PUSH2 0x28D CALLDATASIZE PUSH1 0x4 PUSH2 0x381C JUMP JUMPDEST PUSH2 0x74D JUMP JUMPDEST STOP JUMPDEST CALLVALUE DUP1 ISZERO PUSH2 0x29F JUMPI PUSH0 PUSH0 REVERT JUMPDEST POP PUSH2 0x2B3 PUSH2 0x2AE CALLDATASIZE PUSH1 0x4 PUSH2 0x3835 JUMP JUMPDEST PUSH2 0x761 JUMP JUMPDEST PUSH1 0x40 MLOAD SWAP1 DUP2 MSTORE PUSH1 0x20 ADD PUSH2 0x1E9 JUMP JUMPDEST CALLVALUE DUP1 ISZERO PUSH2 0x2CC JUMPI PUSH0 PUSH0 REVERT JUMPDEST POP PUSH2 0x2B3 PUSH2 0x2DB CALLDATASIZE PUSH1 0x4 PUSH2 0x3883 JUMP JUMPDEST PUSH2 0x78E JUMP JUMPDEST CALLVALUE DUP1 ISZERO PUSH2 0x2EB JUMPI PUSH0 PUSH0 REVERT JUMPDEST POP PUSH32 0xDFE169305A533E288E0557DA8D289146D3CC75FA6E04C87599B048A60A4E5602 SLOAD PUSH1 0x40 MLOAD PUSH1 0x1 PUSH1 0x1 PUSH1 0x40 SHL SUB SWAP1 SWAP2 AND DUP2 MSTORE PUSH1 0x20 ADD PUSH2 0x1E9 JUMP JUMPDEST CALLVALUE DUP1 ISZERO PUSH2 0x331 JUMPI PUSH0 PUSH0 REVERT JUMPDEST POP PUSH2 0x1DD PUSH2 0x340 CALLDATASIZE PUSH1 0x4 PUSH2 0x38A9 JUMP JUMPDEST PUSH2 0x81B JUMP JUMPDEST CALLVALUE DUP1 ISZERO PUSH2 0x350 JUMPI PUSH0 PUSH0 REVERT JUMPDEST POP PUSH2 0x292 PUSH2 0x35F CALLDATASIZE PUSH1 0x4 PUSH2 0x397A JUMP JUMPDEST PUSH2 0x834 JUMP JUMPDEST CALLVALUE DUP1 ISZERO PUSH2 0x36F JUMPI PUSH0 PUSH0 REVERT JUMPDEST POP PUSH2 0x378 PUSH2 0x845 JUMP JUMPDEST PUSH1 0x40 MLOAD PUSH1 0x1 PUSH1 0x1 PUSH1 0xA0 SHL SUB SWAP1 SWAP2 AND DUP2 MSTORE PUSH1 0x20 ADD PUSH2 0x1E9 JUMP JUMPDEST CALLVALUE DUP1 ISZERO PUSH2 0x39B JUMPI PUSH0 PUSH0 REVERT JUMPDEST POP PUSH2 0x3A4 PUSH2 0x873 JUMP JUMPDEST PUSH1 0x40 MLOAD PUSH2 0x1E9 SWAP8 SWAP7 SWAP6 SWAP5 SWAP4 SWAP3 SWAP2 SWAP1 PUSH2 0x39D9 JUMP JUMPDEST CALLVALUE DUP1 ISZERO PUSH2 0x3C2 JUMPI PUSH0 PUSH0 REVERT JUMPDEST POP PUSH2 0x292 PUSH2 0x3D1 CALLDATASIZE PUSH1 0x4 PUSH2 0x364B JUMP JUMPDEST PUSH2 0x8B5 JUMP JUMPDEST CALLVALUE DUP1 ISZERO PUSH2 0x3E1 JUMPI PUSH0 PUSH0 REVERT JUMPDEST POP PUSH2 0x3F5 PUSH2 0x3F0 CALLDATASIZE PUSH1 0x4 PUSH2 0x3A6F JUMP JUMPDEST PUSH2 0x903 JUMP JUMPDEST PUSH1 0x40 MLOAD PUSH2 0x1E9 SWAP2 SWAP1 PUSH2 0x3AA0 JUMP JUMPDEST CALLVALUE DUP1 ISZERO PUSH2 0x40D JUMPI PUSH0 PUSH0 REVERT JUMPDEST POP PUSH2 0x292 PUSH2 0x41C CALLDATASIZE PUSH1 0x4 PUSH2 0x397A JUMP JUMPDEST PUSH2 0x92A JUMP JUMPDEST CALLVALUE DUP1 ISZERO PUSH2 0x42C JUMPI PUSH0 PUSH0 REVERT JUMPDEST POP PUSH2 0x435 PUSH2 0x93B JUMP JUMPDEST PUSH1 0x40 MLOAD PUSH2 0x1E9 SWAP2 SWAP1 PUSH2 0x3B03 JUMP JUMPDEST CALLVALUE DUP1 ISZERO PUSH2 0x44D JUMPI PUSH0 PUSH0 REVERT JUMPDEST POP PUSH2 0x292 PUSH2 0x45C CALLDATASIZE PUSH1 0x4 PUSH2 0x3B15 JUMP JUMPDEST PUSH2 0x95B JUMP JUMPDEST CALLVALUE DUP1 ISZERO PUSH2 0x46C JUMPI PUSH0 PUSH0 REVERT JUMPDEST POP PUSH2 0x292 PUSH2 0x47B CALLDATASIZE PUSH1 0x4 PUSH2 0x364B JUMP JUMPDEST PUSH2 0xA5C JUMP JUMPDEST CALLVALUE DUP1 ISZERO PUSH2 0x48B JUMPI PUSH0 PUSH0 REVERT JUMPDEST POP PUSH20 0x433709009B8330FDA32311DF1C2AFA402ED8D009 PUSH2 0x378 JUMP JUMPDEST CALLVALUE DUP1 ISZERO PUSH2 0x4B1 JUMPI PUSH0 PUSH0 REVERT JUMPDEST POP PUSH2 0x2B3 PUSH2 0xAA4 JUMP JUMPDEST CALLVALUE DUP1 ISZERO PUSH2 0x4C5 JUMPI PUSH0 PUSH0 REVERT JUMPDEST POP PUSH2 0x23B PUSH2 0x4D4 CALLDATASIZE PUSH1 0x4 PUSH2 0x3BB1 JUMP JUMPDEST PUSH4 0xBC197C81 PUSH1 0xE0 SHL SWAP6 SWAP5 POP POP POP POP POP JUMP JUMPDEST CALLVALUE DUP1 ISZERO PUSH2 0x4F0 JUMPI PUSH0 PUSH0 REVERT JUMPDEST POP PUSH2 0x1DD PUSH2 0x4FF CALLDATASIZE PUSH1 0x4 PUSH2 0x3C5D JUMP JUMPDEST PUSH2 0xABE JUMP JUMPDEST CALLVALUE DUP1 ISZERO PUSH2 0x50F JUMPI PUSH0 PUSH0 REVERT JUMPDEST POP PUSH2 0x2B3 PUSH2 0xB2E JUMP JUMPDEST PUSH2 0x3F5 PUSH2 0x526 CALLDATASIZE PUSH1 0x4 PUSH2 0x37BF JUMP JUMPDEST PUSH2 0xB3D JUMP JUMPDEST PUSH2 0x292 PUSH2 0x539 CALLDATASIZE PUSH1 0x4 PUSH2 0x37BF JUMP JUMPDEST PUSH2 0xB67 JUMP JUMPDEST CALLVALUE DUP1 ISZERO PUSH2 0x549 JUMPI PUSH0 PUSH0 REVERT JUMPDEST POP PUSH2 0x23B PUSH2 0x558 CALLDATASIZE PUSH1 0x4 PUSH2 0x3C74 JUMP JUMPDEST PUSH4 0xF23A6E61 PUSH1 0xE0 SHL SWAP6 SWAP5 POP POP POP POP POP JUMP JUMPDEST CALLVALUE DUP1 ISZERO PUSH2 0x574 JUMPI PUSH0 PUSH0 REVERT JUMPDEST POP PUSH2 0x1DD PUSH2 0x583 CALLDATASIZE PUSH1 0x4 PUSH2 0x3C5D JUMP JUMPDEST PUSH2 0xB7A JUMP JUMPDEST PUSH1 0x60 PUSH0 PUSH2 0x593 PUSH2 0x845 JUMP JUMPDEST SWAP1 POP PUSH1 0x60 PUSH1 0x1 PUSH1 0x1 PUSH1 0xA0 SHL SUB DUP3 AND ISZERO PUSH2 0x61D JUMPI PUSH1 0x40 MLOAD PUSH4 0xD68F6025 PUSH1 0xE0 SHL DUP2 MSTORE PUSH1 0x1 PUSH1 0x1 PUSH1 0xA0 SHL SUB DUP4 AND SWAP1 PUSH4 0xD68F6025 SWAP1 PUSH2 0x5D8 SWAP1 CALLER SWAP1 CALLVALUE SWAP1 PUSH0 SWAP1 CALLDATASIZE SWAP1 PUSH1 0x4 ADD PUSH2 0x3CEF JUMP JUMPDEST PUSH0 PUSH1 0x40 MLOAD DUP1 DUP4 SUB DUP2 PUSH0 DUP8 GAS CALL ISZERO DUP1 ISZERO PUSH2 0x5F3 JUMPI RETURNDATASIZE PUSH0 PUSH0 RETURNDATACOPY RETURNDATASIZE PUSH0 REVERT JUMPDEST POP POP POP POP PUSH1 0x40 MLOAD RETURNDATASIZE PUSH0 DUP3 RETURNDATACOPY PUSH1 0x1F RETURNDATASIZE SWAP1 DUP2 ADD PUSH1 0x1F NOT AND DUP3 ADD PUSH1 0x40 MSTORE PUSH2 0x61A SWAP2 SWAP1 DUP2 ADD SWAP1 PUSH2 0x3D16 JUMP JUMPDEST SWAP1 POP JUMPDEST PUSH2 0x625 PUSH2 0xB8E JUMP JUMPDEST SWAP3 POP PUSH1 0x1 PUSH1 0x1 PUSH1 0xA0 SHL SUB DUP3 AND ISZERO PUSH2 0x690 JUMPI PUSH1 0x40 MLOAD PUSH4 0xB9DFBED PUSH1 0xE1 SHL DUP2 MSTORE PUSH1 0x1 PUSH1 0x1 PUSH1 0xA0 SHL SUB DUP4 AND SWAP1 PUSH4 0x173BF7DA SWAP1 PUSH2 0x662 SWAP1 DUP5 SWAP1 PUSH1 0x4 ADD PUSH2 0x3B03 JUMP JUMPDEST PUSH0 PUSH1 0x40 MLOAD DUP1 DUP4 SUB DUP2 PUSH0 DUP8 DUP1 EXTCODESIZE ISZERO DUP1 ISZERO PUSH2 0x679 JUMPI PUSH0 PUSH0 REVERT JUMPDEST POP GAS CALL ISZERO DUP1 ISZERO PUSH2 0x68B JUMPI RETURNDATASIZE PUSH0 PUSH0 RETURNDATACOPY RETURNDATASIZE PUSH0 REVERT JUMPDEST POP POP POP POP JUMPDEST POP POP SWAP1 JUMP JUMPDEST PUSH0 PUSH1 0x1 PUSH1 0x1 PUSH1 0xE0 SHL SUB NOT DUP3 AND PUSH4 0x2711897 PUSH1 0xE5 SHL EQ DUP1 PUSH2 0x6C5 JUMPI POP PUSH4 0x1FFC9A7 PUSH1 0xE0 SHL PUSH1 0x1 PUSH1 0x1 PUSH1 0xE0 SHL SUB NOT DUP4 AND EQ JUMPDEST SWAP3 SWAP2 POP POP JUMP JUMPDEST PUSH0 PUSH1 0x4 DUP6 EQ DUP1 ISZERO PUSH2 0x6F4 JUMPI POP PUSH2 0x6DF PUSH2 0x845 JUMP JUMPDEST PUSH1 0x1 PUSH1 0x1 PUSH1 0xA0 SHL SUB AND DUP5 PUSH1 0x1 PUSH1 0x1 PUSH1 0xA0 SHL SUB AND EQ JUMPDEST DUP1 PUSH2 0x706 JUMPI POP PUSH2 0x706 DUP6 DUP6 DUP6 DUP6 PUSH2 0xC34 JUMP JUMPDEST SWAP1 POP JUMPDEST SWAP5 SWAP4 POP POP POP POP JUMP JUMPDEST PUSH0 PUSH0 PUSH2 0x71E DUP6 DUP6 DUP6 PUSH2 0xCF6 JUMP JUMPDEST SWAP1 POP PUSH1 0x1 PUSH1 0x1 PUSH1 0xE0 SHL SUB NOT DUP1 DUP3 AND EQ PUSH2 0x737 JUMPI DUP1 PUSH2 0x742 JUMP JUMPDEST PUSH2 0x742 DUP6 DUP6 DUP6 PUSH2 0xD73 JUMP JUMPDEST SWAP2 POP POP JUMPDEST SWAP4 SWAP3 POP POP POP JUMP JUMPDEST PUSH2 0x755 PUSH2 0xE32 JUMP JUMPDEST PUSH2 0x75E DUP2 PUSH2 0xE89 JUMP JUMPDEST POP JUMP JUMPDEST PUSH0 PUSH2 0x76A PUSH2 0xF24 JUMP JUMPDEST PUSH0 PUSH2 0x783 DUP6 DUP6 PUSH2 0x77E PUSH2 0x100 DUP4 ADD DUP4 PUSH2 0x3D8A JUMP JUMPDEST PUSH2 0xF64 JUMP JUMPDEST SWAP1 POP PUSH2 0x709 DUP4 PUSH2 0xF71 JUMP JUMPDEST PUSH0 PUSH20 0x433709009B8330FDA32311DF1C2AFA402ED8D009 PUSH1 0x40 MLOAD PUSH4 0x1AAB3F0D PUSH1 0xE1 SHL DUP2 MSTORE ADDRESS PUSH1 0x4 DUP3 ADD MSTORE PUSH1 0x1 PUSH1 0x1 PUSH1 0xC0 SHL SUB DUP5 AND PUSH1 0x24 DUP3 ADD MSTORE PUSH1 0x1 PUSH1 0x1 PUSH1 0xA0 SHL SUB SWAP2 SWAP1 SWAP2 AND SWAP1 PUSH4 0x35567E1A SWAP1 PUSH1 0x44 ADD PUSH1 0x20 PUSH1 0x40 MLOAD DUP1 DUP4 SUB DUP2 DUP7 GAS STATICCALL ISZERO DUP1 ISZERO PUSH2 0x7F7 JUMPI RETURNDATASIZE PUSH0 PUSH0 RETURNDATACOPY RETURNDATASIZE PUSH0 REVERT JUMPDEST POP POP POP POP PUSH1 0x40 MLOAD RETURNDATASIZE PUSH1 0x1F NOT PUSH1 0x1F DUP3 ADD AND DUP3 ADD DUP1 PUSH1 0x40 MSTORE POP DUP2 ADD SWAP1 PUSH2 0x6C5 SWAP2 SWAP1 PUSH2 0x3DCC JUMP JUMPDEST PUSH0 PUSH0 MLOAD PUSH1 0x20 PUSH2 0x449B PUSH0 CODECOPY PUSH0 MLOAD SWAP1 PUSH0 MSTORE PUSH2 0x746 DUP2 DUP5 PUSH2 0xF94 JUMP JUMPDEST PUSH2 0x83C PUSH2 0xE32 JUMP JUMPDEST PUSH2 0x75E DUP2 PUSH2 0xFC0 JUMP JUMPDEST PUSH32 0x2B49B75317FFC1021CA7DA4CA3423BF8403E18B223E63E6BC7ABE8F39A5ED700 SLOAD PUSH1 0x1 PUSH1 0x1 PUSH1 0xA0 SHL SUB AND SWAP1 JUMP JUMPDEST PUSH0 PUSH1 0x60 DUP1 PUSH0 PUSH0 PUSH0 PUSH1 0x60 PUSH2 0x884 PUSH2 0x1073 JUMP JUMPDEST PUSH2 0x88C PUSH2 0x109F JUMP JUMPDEST PUSH1 0x40 DUP1 MLOAD PUSH0 DUP1 DUP3 MSTORE PUSH1 0x20 DUP3 ADD SWAP1 SWAP3 MSTORE PUSH1 0xF PUSH1 0xF8 SHL SWAP12 SWAP4 SWAP11 POP SWAP2 SWAP9 POP CHAINID SWAP8 POP ADDRESS SWAP7 POP SWAP5 POP SWAP3 POP SWAP1 POP JUMP JUMPDEST PUSH2 0x8BD PUSH2 0xE32 JUMP JUMPDEST PUSH2 0x8FD DUP5 DUP5 DUP5 DUP5 DUP1 DUP1 PUSH1 0x1F ADD PUSH1 0x20 DUP1 SWAP2 DIV MUL PUSH1 0x20 ADD PUSH1 0x40 MLOAD SWAP1 DUP2 ADD PUSH1 0x40 MSTORE DUP1 SWAP4 SWAP3 SWAP2 SWAP1 DUP2 DUP2 MSTORE PUSH1 0x20 ADD DUP4 DUP4 DUP1 DUP3 DUP5 CALLDATACOPY PUSH0 SWAP3 ADD SWAP2 SWAP1 SWAP2 MSTORE POP PUSH2 0x10CC SWAP3 POP POP POP JUMP JUMPDEST POP POP POP POP JUMP JUMPDEST PUSH1 0x60 PUSH0 MLOAD PUSH1 0x20 PUSH2 0x449B PUSH0 CODECOPY PUSH0 MLOAD SWAP1 PUSH0 MSTORE PUSH2 0x709 DUP2 PUSH1 0x1 PUSH1 0x1 PUSH1 0x40 SHL SUB DUP7 DUP2 AND SWAP1 DUP7 AND PUSH2 0x1256 JUMP JUMPDEST PUSH2 0x932 PUSH2 0xE32 JUMP JUMPDEST PUSH2 0x75E DUP2 PUSH2 0x1395 JUMP JUMPDEST PUSH1 0x60 PUSH1 0x40 MLOAD DUP1 PUSH1 0x60 ADD PUSH1 0x40 MSTORE DUP1 PUSH1 0x33 DUP2 MSTORE PUSH1 0x20 ADD PUSH2 0x4468 PUSH1 0x33 SWAP2 CODECOPY SWAP1 POP SWAP1 JUMP JUMPDEST PUSH0 PUSH2 0x964 PUSH2 0x1468 JUMP JUMPDEST DUP1 SLOAD SWAP1 SWAP2 POP PUSH1 0xFF PUSH1 0x1 PUSH1 0x40 SHL DUP3 DIV AND ISZERO SWAP1 PUSH1 0x1 PUSH1 0x1 PUSH1 0x40 SHL SUB AND PUSH0 DUP2 ISZERO DUP1 ISZERO PUSH2 0x98A JUMPI POP DUP3 JUMPDEST SWAP1 POP PUSH0 DUP3 PUSH1 0x1 PUSH1 0x1 PUSH1 0x40 SHL SUB AND PUSH1 0x1 EQ DUP1 ISZERO PUSH2 0x9A5 JUMPI POP ADDRESS EXTCODESIZE ISZERO JUMPDEST SWAP1 POP DUP2 ISZERO DUP1 ISZERO PUSH2 0x9B3 JUMPI POP DUP1 ISZERO JUMPDEST ISZERO PUSH2 0x9D1 JUMPI PUSH1 0x40 MLOAD PUSH4 0xF92EE8A9 PUSH1 0xE0 SHL DUP2 MSTORE PUSH1 0x4 ADD PUSH1 0x40 MLOAD DUP1 SWAP2 SUB SWAP1 REVERT JUMPDEST DUP5 SLOAD PUSH8 0xFFFFFFFFFFFFFFFF NOT AND PUSH1 0x1 OR DUP6 SSTORE DUP4 ISZERO PUSH2 0x9FB JUMPI DUP5 SLOAD PUSH1 0xFF PUSH1 0x40 SHL NOT AND PUSH1 0x1 PUSH1 0x40 SHL OR DUP6 SSTORE JUMPDEST PUSH2 0xA03 PUSH2 0x1490 JUMP JUMPDEST PUSH2 0xA0D DUP8 DUP8 PUSH2 0x149A JUMP JUMPDEST DUP4 ISZERO PUSH2 0xA53 JUMPI DUP5 SLOAD PUSH1 0xFF PUSH1 0x40 SHL NOT AND DUP6 SSTORE PUSH1 0x40 MLOAD PUSH1 0x1 DUP2 MSTORE PUSH32 0xC7F505B2F371AE2175EE4913F4499E1F2633A7B5936321EED1CDAEB6115181D2 SWAP1 PUSH1 0x20 ADD PUSH1 0x40 MLOAD DUP1 SWAP2 SUB SWAP1 LOG1 JUMPDEST POP POP POP POP POP POP POP JUMP JUMPDEST PUSH2 0xA64 PUSH2 0xE32 JUMP JUMPDEST PUSH2 0x8FD DUP5 DUP5 DUP5 DUP5 DUP1 DUP1 PUSH1 0x1F ADD PUSH1 0x20 DUP1 SWAP2 DIV MUL PUSH1 0x20 ADD PUSH1 0x40 MLOAD SWAP1 DUP2 ADD PUSH1 0x40 MSTORE DUP1 SWAP4 SWAP3 SWAP2 SWAP1 DUP2 DUP2 MSTORE PUSH1 0x20 ADD DUP4 DUP4 DUP1 DUP3 DUP5 CALLDATACOPY PUSH0 SWAP3 ADD SWAP2 SWAP1 SWAP2 MSTORE POP PUSH2 0x14AC SWAP3 POP POP POP JUMP JUMPDEST PUSH0 MLOAD PUSH1 0x20 PUSH2 0x449B PUSH0 CODECOPY PUSH0 MLOAD SWAP1 PUSH0 MSTORE DUP1 SLOAD PUSH0 SWAP2 SWAP1 JUMPDEST SWAP2 POP POP SWAP1 JUMP JUMPDEST PUSH0 PUSH0 PUSH0 PUSH2 0xACA DUP5 PUSH2 0x15C8 JUMP JUMPDEST POP POP SWAP2 POP SWAP2 POP PUSH2 0xADD DUP3 PUSH0 PUSH1 0xF8 SHL PUSH2 0x1606 JUMP JUMPDEST DUP1 PUSH2 0xAF1 JUMPI POP PUSH2 0xAF1 DUP3 PUSH1 0x1 PUSH1 0xF8 SHL PUSH2 0x1606 JUMP JUMPDEST DUP1 PUSH2 0xB09 JUMPI POP PUSH2 0xB09 DUP3 PUSH1 0x1 PUSH1 0x1 PUSH1 0xF8 SHL SUB NOT PUSH2 0x1606 JUMP JUMPDEST DUP1 ISZERO PUSH2 0x709 JUMPI POP PUSH2 0xB1A DUP2 PUSH0 PUSH2 0x1606 JUMP JUMPDEST DUP1 PUSH2 0x709 JUMPI POP PUSH2 0x709 DUP2 PUSH1 0x1 PUSH1 0xF8 SHL PUSH2 0x1606 JUMP JUMPDEST PUSH0 PUSH2 0xB38 PUSH0 PUSH2 0x78E JUMP JUMPDEST SWAP1 POP SWAP1 JUMP JUMPDEST PUSH1 0x60 PUSH1 0x2 PUSH0 DUP1 PUSH2 0xB4F DUP4 CALLER DUP5 DUP5 PUSH2 0x1618 JUMP JUMPDEST PUSH2 0xB5A DUP8 DUP8 DUP8 PUSH2 0x165F JUMP JUMPDEST SWAP4 POP JUMPDEST POP POP POP SWAP4 SWAP3 POP POP POP JUMP JUMPDEST PUSH2 0xB6F PUSH2 0xE32 JUMP JUMPDEST PUSH2 0x8FD DUP4 DUP4 DUP4 PUSH2 0x165F JUMP JUMPDEST PUSH0 PUSH1 0x4 DUP3 EQ DUP1 PUSH2 0x6C5 JUMPI POP PUSH2 0x6C5 DUP3 PUSH2 0x1773 JUMP JUMPDEST PUSH1 0x60 PUSH0 PUSH2 0xBA5 PUSH0 CALLDATALOAD PUSH1 0x1 PUSH1 0x1 PUSH1 0xE0 SHL SUB NOT AND PUSH2 0x1790 JUMP JUMPDEST SWAP1 POP PUSH1 0x1 PUSH1 0x1 PUSH1 0xE0 SHL SUB NOT PUSH0 CALLDATALOAD AND PUSH1 0x1 PUSH1 0x1 PUSH1 0xA0 SHL SUB DUP3 AND PUSH2 0xBEC JUMPI PUSH1 0x40 MLOAD PUSH4 0xAF5A7203 PUSH1 0xE0 SHL DUP2 MSTORE PUSH1 0x1 PUSH1 0x1 PUSH1 0xE0 SHL SUB NOT SWAP1 SWAP2 AND PUSH1 0x4 DUP3 ADD MSTORE PUSH1 0x24 ADD JUMPDEST PUSH1 0x40 MLOAD DUP1 SWAP2 SUB SWAP1 REVERT JUMPDEST POP PUSH2 0xC1B DUP2 CALLVALUE PUSH0 CALLDATASIZE CALLER PUSH1 0x40 MLOAD PUSH1 0x20 ADD PUSH2 0xC07 SWAP4 SWAP3 SWAP2 SWAP1 PUSH2 0x3DE3 JUMP JUMPDEST PUSH1 0x40 MLOAD PUSH1 0x20 DUP2 DUP4 SUB SUB DUP2 MSTORE SWAP1 PUSH1 0x40 MSTORE PUSH2 0x17D3 JUMP JUMPDEST ISZERO PUSH2 0xC28 JUMPI PUSH2 0xAB8 PUSH2 0x17E8 JUMP JUMPDEST PUSH2 0xC30 PUSH2 0x1801 JUMP JUMPDEST POP SWAP1 JUMP JUMPDEST PUSH0 PUSH32 0xA47D913D72B2639F4CA1C145CC07DDF7170B73B257C8E0D4FCED7CC8E3E3900 PUSH0 NOT DUP7 ADD PUSH2 0xC70 JUMPI PUSH2 0xC68 DUP2 DUP7 PUSH2 0x180C JUMP JUMPDEST SWAP2 POP POP PUSH2 0x709 JUMP JUMPDEST PUSH1 0x2 DUP7 SUB PUSH2 0xC85 JUMPI PUSH2 0xC68 PUSH1 0x2 DUP3 ADD DUP7 PUSH2 0x180C JUMP JUMPDEST PUSH1 0x3 DUP7 SUB PUSH2 0xCEB JUMPI PUSH1 0x3 DUP4 GT DUP1 ISZERO PUSH2 0xC68 JUMPI POP PUSH1 0x1 PUSH1 0x1 PUSH1 0xA0 SHL SUB DUP6 AND PUSH1 0x4 DUP1 DUP4 ADD SWAP1 PUSH0 SWAP1 PUSH2 0xCB6 SWAP1 DUP3 DUP9 DUP11 PUSH2 0x3E04 JUMP JUMPDEST PUSH2 0xCBF SWAP2 PUSH2 0x3E2B JUMP JUMPDEST PUSH1 0x1 PUSH1 0x1 PUSH1 0xE0 SHL SUB NOT AND DUP2 MSTORE PUSH1 0x20 DUP2 ADD SWAP2 SWAP1 SWAP2 MSTORE PUSH1 0x40 ADD PUSH0 KECCAK256 SLOAD PUSH1 0x1 PUSH1 0x1 PUSH1 0xA0 SHL SUB AND EQ SWAP2 POP POP PUSH2 0x709 JUMP JUMPDEST POP PUSH0 SWAP6 SWAP5 POP POP POP POP POP JUMP JUMPDEST PUSH0 PUSH2 0xD02 DUP5 DUP5 DUP5 PUSH2 0x182D JUMP JUMPDEST DUP1 PUSH2 0xD13 JUMPI POP PUSH2 0xD13 DUP5 DUP5 DUP5 PUSH2 0x1919 JUMP JUMPDEST PUSH2 0xD63 JUMPI PUSH32 0x7739773977397739773977397739773977397739773977397739773977397739 DUP5 EQ DUP1 ISZERO PUSH2 0xD44 JUMPI POP DUP2 ISZERO JUMPDEST PUSH2 0xD56 JUMPI PUSH1 0x1 PUSH1 0x1 PUSH1 0xE0 SHL SUB NOT PUSH2 0x709 JUMP JUMPDEST PUSH4 0x77390001 PUSH1 0xE0 SHL PUSH2 0x709 JUMP JUMPDEST PUSH4 0xB135D3F PUSH1 0xE1 SHL SWAP5 SWAP4 POP POP POP POP JUMP JUMPDEST PUSH0 PUSH1 0x14 DUP3 LT PUSH2 0xE21 JUMPI PUSH0 CALLDATASIZE PUSH0 PUSH2 0xD89 DUP7 DUP7 PUSH2 0x193E JUMP JUMPDEST SWAP2 SWAP5 POP SWAP3 POP SWAP1 POP PUSH2 0xD9D PUSH1 0x1 DUP5 PUSH0 DUP1 PUSH2 0x6CB JUMP JUMPDEST ISZERO PUSH2 0xE1D JUMPI PUSH1 0x40 MLOAD PUSH4 0x7AA8F177 PUSH1 0xE1 SHL DUP2 MSTORE PUSH1 0x1 PUSH1 0x1 PUSH1 0xA0 SHL SUB DUP5 AND SWAP1 PUSH4 0xF551E2EE SWAP1 PUSH2 0xDD4 SWAP1 CALLER SWAP1 DUP12 SWAP1 DUP8 SWAP1 DUP8 SWAP1 PUSH1 0x4 ADD PUSH2 0x3CEF JUMP JUMPDEST PUSH1 0x20 PUSH1 0x40 MLOAD DUP1 DUP4 SUB DUP2 DUP7 GAS STATICCALL SWAP3 POP POP POP DUP1 ISZERO PUSH2 0xE0D JUMPI POP PUSH1 0x40 DUP1 MLOAD PUSH1 0x1F RETURNDATASIZE SWAP1 DUP2 ADD PUSH1 0x1F NOT AND DUP3 ADD SWAP1 SWAP3 MSTORE PUSH2 0xE0A SWAP2 DUP2 ADD SWAP1 PUSH2 0x3E61 JUMP JUMPDEST PUSH1 0x1 JUMPDEST ISZERO PUSH2 0xE1D JUMPI SWAP4 POP PUSH2 0x746 SWAP3 POP POP POP JUMP JUMPDEST POP POP POP JUMPDEST POP PUSH1 0x1 PUSH1 0x1 PUSH1 0xE0 SHL SUB NOT SWAP4 SWAP3 POP POP POP JUMP JUMPDEST CALLER ADDRESS DUP2 EQ DUP1 ISZERO SWAP1 PUSH2 0xE60 JUMPI POP PUSH1 0x1 PUSH1 0x1 PUSH1 0xA0 SHL SUB DUP2 AND PUSH20 0x433709009B8330FDA32311DF1C2AFA402ED8D009 EQ ISZERO JUMPDEST ISZERO PUSH2 0x75E JUMPI PUSH1 0x40 MLOAD PUSH4 0x7CF8632B PUSH1 0xE0 SHL DUP2 MSTORE PUSH1 0x1 PUSH1 0x1 PUSH1 0xA0 SHL SUB DUP3 AND PUSH1 0x4 DUP3 ADD MSTORE PUSH1 0x24 ADD PUSH2 0xBE3 JUMP JUMPDEST PUSH0 MLOAD PUSH1 0x20 PUSH2 0x449B PUSH0 CODECOPY PUSH0 MLOAD SWAP1 PUSH0 MSTORE PUSH1 0x1 PUSH1 0x1 PUSH1 0x40 SHL SUB DUP3 AND PUSH2 0xEBE JUMPI PUSH1 0x40 MLOAD PUSH4 0x455DAA5F PUSH1 0xE1 SHL DUP2 MSTORE PUSH1 0x4 ADD PUSH1 0x40 MLOAD DUP1 SWAP2 SUB SWAP1 REVERT JUMPDEST PUSH1 0x2 DUP2 ADD DUP1 SLOAD PUSH8 0xFFFFFFFFFFFFFFFF NOT AND PUSH1 0x1 PUSH1 0x1 PUSH1 0x40 SHL SUB DUP5 AND OR SWAP1 SSTORE PUSH2 0xEE4 PUSH2 0x1969 JUMP JUMPDEST PUSH1 0x40 MLOAD PUSH1 0x1 PUSH1 0x1 PUSH1 0x40 SHL SUB DUP4 AND DUP2 MSTORE PUSH32 0xA1BCBAD4CA88E748DE7F039CEC105095BAE000486AB6533EFB33A31D79BDAE5E SWAP1 PUSH1 0x20 ADD PUSH1 0x40 MLOAD DUP1 SWAP2 SUB SWAP1 LOG1 POP POP JUMP JUMPDEST CALLER PUSH20 0x433709009B8330FDA32311DF1C2AFA402ED8D009 DUP2 EQ PUSH2 0x75E JUMPI PUSH1 0x40 MLOAD PUSH4 0x7CF8632B PUSH1 0xE0 SHL DUP2 MSTORE PUSH1 0x1 PUSH1 0x1 PUSH1 0xA0 SHL SUB DUP3 AND PUSH1 0x4 DUP3 ADD MSTORE PUSH1 0x24 ADD PUSH2 0xBE3 JUMP JUMPDEST PUSH0 PUSH2 0x706 DUP6 DUP6 DUP6 DUP6 PUSH2 0x19EC JUMP JUMPDEST DUP1 ISZERO PUSH2 0x75E JUMPI PUSH2 0xF90 CALLER DUP3 PUSH1 0x40 MLOAD DUP1 PUSH1 0x20 ADD PUSH1 0x40 MSTORE DUP1 PUSH0 DUP2 MSTORE POP PUSH2 0x17D3 JUMP JUMPDEST POP POP JUMP JUMPDEST PUSH0 DUP3 PUSH1 0x1 ADD DUP3 PUSH1 0x40 MLOAD PUSH2 0xFA7 SWAP2 SWAP1 PUSH2 0x3E93 JUMP JUMPDEST SWAP1 DUP2 MSTORE PUSH1 0x40 MLOAD SWAP1 DUP2 SWAP1 SUB PUSH1 0x20 ADD SWAP1 KECCAK256 SLOAD ISZERO ISZERO SWAP4 SWAP3 POP POP POP JUMP JUMPDEST PUSH0 MLOAD PUSH1 0x20 PUSH2 0x449B PUSH0 CODECOPY PUSH0 MLOAD SWAP1 PUSH0 MSTORE PUSH0 JUMPDEST DUP3 MLOAD DUP2 LT ISZERO PUSH2 0x106A JUMPI PUSH0 DUP4 DUP3 DUP2 MLOAD DUP2 LT PUSH2 0xFEC JUMPI PUSH2 0xFEC PUSH2 0x3E9E JUMP JUMPDEST PUSH1 0x20 SWAP1 DUP2 MUL SWAP2 SWAP1 SWAP2 ADD ADD MLOAD SWAP1 POP PUSH2 0x1003 DUP4 DUP3 PUSH2 0x1A93 JUMP JUMPDEST DUP2 SWAP1 PUSH2 0x1023 JUMPI PUSH1 0x40 MLOAD PUSH4 0xB3A2E4CB PUSH1 0xE0 SHL DUP2 MSTORE PUSH1 0x4 ADD PUSH2 0xBE3 SWAP2 SWAP1 PUSH2 0x3B03 JUMP JUMPDEST POP DUP1 PUSH1 0x40 MLOAD PUSH2 0x1032 SWAP2 SWAP1 PUSH2 0x3E93 JUMP JUMPDEST PUSH1 0x40 MLOAD SWAP1 DUP2 SWAP1 SUB DUP2 KECCAK256 SWAP1 PUSH32 0xCA2ECE94B660C23BF1A2A217D383D94701CA9E368A082921F2D733D010E85505 SWAP1 PUSH0 SWAP1 LOG2 POP PUSH1 0x1 ADD PUSH2 0xFD0 JUMP JUMPDEST POP PUSH2 0xF90 PUSH2 0x1969 JUMP JUMPDEST PUSH1 0x60 PUSH2 0xB38 PUSH32 0x0 PUSH0 PUSH2 0x1C47 JUMP JUMPDEST PUSH1 0x60 PUSH2 0xB38 PUSH32 0x0 PUSH1 0x1 PUSH2 0x1C47 JUMP JUMPDEST PUSH0 PUSH2 0x10D5 PUSH2 0x845 JUMP JUMPDEST SWAP1 POP PUSH1 0x60 PUSH1 0x1 PUSH1 0x1 PUSH1 0xA0 SHL SUB DUP3 AND ISZERO PUSH2 0x115F JUMPI PUSH1 0x40 MLOAD PUSH4 0xD68F6025 PUSH1 0xE0 SHL DUP2 MSTORE PUSH1 0x1 PUSH1 0x1 PUSH1 0xA0 SHL SUB DUP4 AND SWAP1 PUSH4 0xD68F6025 SWAP1 PUSH2 0x111A SWAP1 CALLER SWAP1 CALLVALUE SWAP1 PUSH0 SWAP1 CALLDATASIZE SWAP1 PUSH1 0x4 ADD PUSH2 0x3CEF JUMP JUMPDEST PUSH0 PUSH1 0x40 MLOAD DUP1 DUP4 SUB DUP2 PUSH0 DUP8 GAS CALL ISZERO DUP1 ISZERO PUSH2 0x1135 JUMPI RETURNDATASIZE PUSH0 PUSH0 RETURNDATACOPY RETURNDATASIZE PUSH0 REVERT JUMPDEST POP POP POP POP PUSH1 0x40 MLOAD RETURNDATASIZE PUSH0 DUP3 RETURNDATACOPY PUSH1 0x1F RETURNDATASIZE SWAP1 DUP2 ADD PUSH1 0x1F NOT AND DUP3 ADD PUSH1 0x40 MSTORE PUSH2 0x115C SWAP2 SWAP1 DUP2 ADD SWAP1 PUSH2 0x3D16 JUMP JUMPDEST SWAP1 POP JUMPDEST PUSH32 0x2B49B75317FFC1021CA7DA4CA3423BF8403E18B223E63E6BC7ABE8F39A5ED700 PUSH1 0x3 NOT DUP7 ADD PUSH2 0x11DA JUMPI DUP1 SLOAD PUSH1 0x1 PUSH1 0x1 PUSH1 0xA0 SHL SUB AND DUP1 ISZERO PUSH2 0x11BF JUMPI PUSH1 0x40 MLOAD PUSH4 0xC005E8D PUSH1 0xE1 SHL DUP2 MSTORE PUSH1 0x1 PUSH1 0x1 PUSH1 0xA0 SHL SUB SWAP1 SWAP2 AND PUSH1 0x4 DUP3 ADD MSTORE PUSH1 0x24 ADD PUSH2 0xBE3 JUMP JUMPDEST POP DUP1 SLOAD PUSH1 0x1 PUSH1 0x1 PUSH1 0xA0 SHL SUB NOT AND PUSH1 0x1 PUSH1 0x1 PUSH1 0xA0 SHL SUB DUP7 AND OR DUP2 SSTORE JUMPDEST PUSH2 0x11E5 DUP7 DUP7 DUP7 PUSH2 0x1CF0 JUMP JUMPDEST POP PUSH1 0x1 PUSH1 0x1 PUSH1 0xA0 SHL SUB DUP3 AND ISZERO PUSH2 0x124F JUMPI PUSH1 0x40 MLOAD PUSH4 0xB9DFBED PUSH1 0xE1 SHL DUP2 MSTORE PUSH1 0x1 PUSH1 0x1 PUSH1 0xA0 SHL SUB DUP4 AND SWAP1 PUSH4 0x173BF7DA SWAP1 PUSH2 0x1221 SWAP1 DUP5 SWAP1 PUSH1 0x4 ADD PUSH2 0x3B03 JUMP JUMPDEST PUSH0 PUSH1 0x40 MLOAD DUP1 DUP4 SUB DUP2 PUSH0 DUP8 DUP1 EXTCODESIZE ISZERO DUP1 ISZERO PUSH2 0x1238 JUMPI PUSH0 PUSH0 REVERT JUMPDEST POP GAS CALL ISZERO DUP1 ISZERO PUSH2 0x124A JUMPI RETURNDATASIZE PUSH0 PUSH0 RETURNDATACOPY RETURNDATASIZE PUSH0 REVERT JUMPDEST POP POP POP POP JUMPDEST POP POP POP POP POP JUMP JUMPDEST PUSH1 0x60 PUSH2 0x1269 DUP3 PUSH2 0x1264 DUP7 SLOAD SWAP1 JUMP JUMPDEST PUSH2 0x1F81 JUMP JUMPDEST SWAP2 POP PUSH2 0x1275 DUP4 DUP4 PUSH2 0x1F81 JUMP JUMPDEST SWAP3 POP DUP3 DUP3 SUB PUSH0 DUP2 PUSH1 0x1 PUSH1 0x1 PUSH1 0x40 SHL SUB DUP2 GT ISZERO PUSH2 0x1293 JUMPI PUSH2 0x1293 PUSH2 0x36A0 JUMP JUMPDEST PUSH1 0x40 MLOAD SWAP1 DUP1 DUP3 MSTORE DUP1 PUSH1 0x20 MUL PUSH1 0x20 ADD DUP3 ADD PUSH1 0x40 MSTORE DUP1 ISZERO PUSH2 0x12C6 JUMPI DUP2 PUSH1 0x20 ADD JUMPDEST PUSH1 0x60 DUP2 MSTORE PUSH1 0x20 ADD SWAP1 PUSH1 0x1 SWAP1 SUB SWAP1 DUP2 PUSH2 0x12B1 JUMPI SWAP1 POP JUMPDEST POP SWAP1 POP PUSH0 JUMPDEST DUP3 DUP2 LT ISZERO PUSH2 0x138B JUMPI PUSH2 0x12DF DUP8 DUP8 DUP4 ADD PUSH2 0x1F90 JUMP JUMPDEST DUP1 SLOAD PUSH2 0x12EA SWAP1 PUSH2 0x3EB2 JUMP JUMPDEST DUP1 PUSH1 0x1F ADD PUSH1 0x20 DUP1 SWAP2 DIV MUL PUSH1 0x20 ADD PUSH1 0x40 MLOAD SWAP1 DUP2 ADD PUSH1 0x40 MSTORE DUP1 SWAP3 SWAP2 SWAP1 DUP2 DUP2 MSTORE PUSH1 0x20 ADD DUP3 DUP1 SLOAD PUSH2 0x1316 SWAP1 PUSH2 0x3EB2 JUMP JUMPDEST DUP1 ISZERO PUSH2 0x1361 JUMPI DUP1 PUSH1 0x1F LT PUSH2 0x1338 JUMPI PUSH2 0x100 DUP1 DUP4 SLOAD DIV MUL DUP4 MSTORE SWAP2 PUSH1 0x20 ADD SWAP2 PUSH2 0x1361 JUMP JUMPDEST DUP3 ADD SWAP2 SWAP1 PUSH0 MSTORE PUSH1 0x20 PUSH0 KECCAK256 SWAP1 JUMPDEST DUP2 SLOAD DUP2 MSTORE SWAP1 PUSH1 0x1 ADD SWAP1 PUSH1 0x20 ADD DUP1 DUP4 GT PUSH2 0x1344 JUMPI DUP3 SWAP1 SUB PUSH1 0x1F AND DUP3 ADD SWAP2 JUMPDEST POP POP POP POP POP DUP3 DUP3 DUP2 MLOAD DUP2 LT PUSH2 0x1378 JUMPI PUSH2 0x1378 PUSH2 0x3E9E JUMP JUMPDEST PUSH1 0x20 SWAP1 DUP2 MUL SWAP2 SWAP1 SWAP2 ADD ADD MSTORE PUSH1 0x1 ADD PUSH2 0x12CB JUMP JUMPDEST POP SWAP6 SWAP5 POP POP POP POP POP JUMP JUMPDEST PUSH0 MLOAD PUSH1 0x20 PUSH2 0x449B PUSH0 CODECOPY PUSH0 MLOAD SWAP1 PUSH0 MSTORE PUSH0 JUMPDEST DUP3 MLOAD DUP2 LT ISZERO PUSH2 0x1463 JUMPI PUSH0 DUP4 DUP3 DUP2 MLOAD DUP2 LT PUSH2 0x13C1 JUMPI PUSH2 0x13C1 PUSH2 0x3E9E JUMP JUMPDEST PUSH1 0x20 MUL PUSH1 0x20 ADD ADD MLOAD SWAP1 POP PUSH1 0x14 DUP2 MLOAD LT ISZERO DUP2 SWAP1 PUSH2 0x13F1 JUMPI PUSH1 0x40 MLOAD PUSH4 0x310775B PUSH1 0xE2 SHL DUP2 MSTORE PUSH1 0x4 ADD PUSH2 0xBE3 SWAP2 SWAP1 PUSH2 0x3B03 JUMP JUMPDEST POP PUSH2 0x13FC DUP4 DUP3 PUSH2 0x1FAF JUMP JUMPDEST DUP2 SWAP1 PUSH2 0x141C JUMPI PUSH1 0x40 MLOAD PUSH4 0x25E17A41 PUSH1 0xE0 SHL DUP2 MSTORE PUSH1 0x4 ADD PUSH2 0xBE3 SWAP2 SWAP1 PUSH2 0x3B03 JUMP JUMPDEST POP DUP1 PUSH1 0x40 MLOAD PUSH2 0x142B SWAP2 SWAP1 PUSH2 0x3E93 JUMP JUMPDEST PUSH1 0x40 MLOAD SWAP1 DUP2 SWAP1 SUB DUP2 KECCAK256 SWAP1 PUSH32 0x4B35CA4A0708FA3D38267E28BD9478214D7166D3483F78A0F35B00697219D2B2 SWAP1 PUSH0 SWAP1 LOG2 POP PUSH1 0x1 ADD PUSH2 0x13A5 JUMP JUMPDEST POP POP POP JUMP JUMPDEST PUSH0 DUP1 PUSH32 0xF0C57E16840DF040F15088DC2F81FE391C3923BEC73E23A9662EFC9C229C6A00 PUSH2 0x6C5 JUMP JUMPDEST PUSH2 0x1498 PUSH2 0x200E JUMP JUMPDEST JUMP JUMPDEST PUSH2 0x14A2 PUSH2 0x200E JUMP JUMPDEST PUSH2 0xF90 DUP3 DUP3 PUSH2 0x2033 JUMP JUMPDEST PUSH0 PUSH2 0x14B5 PUSH2 0x845 JUMP JUMPDEST SWAP1 POP PUSH1 0x60 PUSH1 0x1 PUSH1 0x1 PUSH1 0xA0 SHL SUB DUP3 AND ISZERO PUSH2 0x153F JUMPI PUSH1 0x40 MLOAD PUSH4 0xD68F6025 PUSH1 0xE0 SHL DUP2 MSTORE PUSH1 0x1 PUSH1 0x1 PUSH1 0xA0 SHL SUB DUP4 AND SWAP1 PUSH4 0xD68F6025 SWAP1 PUSH2 0x14FA SWAP1 CALLER SWAP1 CALLVALUE SWAP1 PUSH0 SWAP1 CALLDATASIZE SWAP1 PUSH1 0x4 ADD PUSH2 0x3CEF JUMP JUMPDEST PUSH0 PUSH1 0x40 MLOAD DUP1 DUP4 SUB DUP2 PUSH0 DUP8 GAS CALL ISZERO DUP1 ISZERO PUSH2 0x1515 JUMPI RETURNDATASIZE PUSH0 PUSH0 RETURNDATACOPY RETURNDATASIZE PUSH0 REVERT JUMPDEST POP POP POP POP PUSH1 0x40 MLOAD RETURNDATASIZE PUSH0 DUP3 RETURNDATACOPY PUSH1 0x1F RETURNDATASIZE SWAP1 DUP2 ADD PUSH1 0x1F NOT AND DUP3 ADD PUSH1 0x40 MSTORE PUSH2 0x153C SWAP2 SWAP1 DUP2 ADD SWAP1 PUSH2 0x3D16 JUMP JUMPDEST SWAP1 POP JUMPDEST PUSH32 0x2B49B75317FFC1021CA7DA4CA3423BF8403E18B223E63E6BC7ABE8F39A5ED700 PUSH1 0x3 NOT DUP7 ADD PUSH2 0x15BD JUMPI DUP1 SLOAD DUP7 SWAP1 DUP7 SWAP1 PUSH1 0x1 PUSH1 0x1 PUSH1 0xA0 SHL SUB DUP1 DUP4 AND SWAP2 AND EQ PUSH2 0x15AC JUMPI PUSH1 0x40 MLOAD PUSH4 0x1343D68D PUSH1 0xE0 SHL DUP2 MSTORE PUSH1 0x4 DUP2 ADD SWAP3 SWAP1 SWAP3 MSTORE PUSH1 0x1 PUSH1 0x1 PUSH1 0xA0 SHL SUB AND PUSH1 0x24 DUP3 ADD MSTORE PUSH1 0x44 ADD PUSH2 0xBE3 JUMP JUMPDEST POP POP DUP1 SLOAD PUSH1 0x1 PUSH1 0x1 PUSH1 0xA0 SHL SUB NOT AND DUP2 SSTORE JUMPDEST PUSH2 0x11E5 DUP7 DUP7 DUP7 PUSH2 0x204D JUMP JUMPDEST PUSH0 PUSH0 PUSH0 PUSH0 PUSH2 0x15D6 DUP6 PUSH0 PUSH2 0x2222 JUMP JUMPDEST PUSH2 0x15E1 DUP7 PUSH1 0x1 PUSH2 0x2222 JUMP JUMPDEST PUSH2 0x15EC DUP8 PUSH1 0x6 PUSH2 0x225A JUMP JUMPDEST PUSH2 0x15F7 DUP9 PUSH1 0xA PUSH2 0x2292 JUMP JUMPDEST SWAP4 POP SWAP4 POP SWAP4 POP SWAP4 POP SWAP2 SWAP4 POP SWAP2 SWAP4 JUMP JUMPDEST PUSH1 0x1 PUSH1 0x1 PUSH1 0xF8 SHL SUB NOT SWAP1 DUP2 AND SWAP2 AND EQ SWAP1 JUMP JUMPDEST PUSH2 0x1624 DUP5 DUP5 DUP5 DUP5 PUSH2 0x6CB JUMP JUMPDEST DUP5 DUP5 SWAP1 SWAP2 PUSH2 0x1657 JUMPI PUSH1 0x40 MLOAD PUSH4 0x1343D68D PUSH1 0xE0 SHL DUP2 MSTORE PUSH1 0x4 DUP2 ADD SWAP3 SWAP1 SWAP3 MSTORE PUSH1 0x1 PUSH1 0x1 PUSH1 0xA0 SHL SUB AND PUSH1 0x24 DUP3 ADD MSTORE PUSH1 0x44 ADD PUSH2 0xBE3 JUMP JUMPDEST POP POP POP POP POP POP JUMP JUMPDEST PUSH1 0x60 PUSH0 PUSH2 0x166A PUSH2 0x845 JUMP JUMPDEST SWAP1 POP PUSH1 0x60 PUSH1 0x1 PUSH1 0x1 PUSH1 0xA0 SHL SUB DUP3 AND ISZERO PUSH2 0x16F4 JUMPI PUSH1 0x40 MLOAD PUSH4 0xD68F6025 PUSH1 0xE0 SHL DUP2 MSTORE PUSH1 0x1 PUSH1 0x1 PUSH1 0xA0 SHL SUB DUP4 AND SWAP1 PUSH4 0xD68F6025 SWAP1 PUSH2 0x16AF SWAP1 CALLER SWAP1 CALLVALUE SWAP1 PUSH0 SWAP1 CALLDATASIZE SWAP1 PUSH1 0x4 ADD PUSH2 0x3CEF JUMP JUMPDEST PUSH0 PUSH1 0x40 MLOAD DUP1 DUP4 SUB DUP2 PUSH0 DUP8 GAS CALL ISZERO DUP1 ISZERO PUSH2 0x16CA JUMPI RETURNDATASIZE PUSH0 PUSH0 RETURNDATACOPY RETURNDATASIZE PUSH0 REVERT JUMPDEST POP POP POP POP PUSH1 0x40 MLOAD RETURNDATASIZE PUSH0 DUP3 RETURNDATACOPY PUSH1 0x1F RETURNDATASIZE SWAP1 DUP2 ADD PUSH1 0x1F NOT AND DUP3 ADD PUSH1 0x40 MSTORE PUSH2 0x16F1 SWAP2 SWAP1 DUP2 ADD SWAP1 PUSH2 0x3D16 JUMP JUMPDEST SWAP1 POP JUMPDEST PUSH2 0x16FF DUP7 DUP7 DUP7 PUSH2 0x22CD JUMP JUMPDEST SWAP3 POP PUSH1 0x1 PUSH1 0x1 PUSH1 0xA0 SHL SUB DUP3 AND ISZERO PUSH2 0x176A JUMPI PUSH1 0x40 MLOAD PUSH4 0xB9DFBED PUSH1 0xE1 SHL DUP2 MSTORE PUSH1 0x1 PUSH1 0x1 PUSH1 0xA0 SHL SUB DUP4 AND SWAP1 PUSH4 0x173BF7DA SWAP1 PUSH2 0x173C SWAP1 DUP5 SWAP1 PUSH1 0x4 ADD PUSH2 0x3B03 JUMP JUMPDEST PUSH0 PUSH1 0x40 MLOAD DUP1 DUP4 SUB DUP2 PUSH0 DUP8 DUP1 EXTCODESIZE ISZERO DUP1 ISZERO PUSH2 0x1753 JUMPI PUSH0 PUSH0 REVERT JUMPDEST POP GAS CALL ISZERO DUP1 ISZERO PUSH2 0x1765 JUMPI RETURNDATASIZE PUSH0 PUSH0 RETURNDATACOPY RETURNDATASIZE PUSH0 REVERT JUMPDEST POP POP POP POP JUMPDEST POP POP SWAP4 SWAP3 POP POP POP JUMP JUMPDEST PUSH0 PUSH1 0x1 DUP3 EQ DUP1 PUSH2 0x1783 JUMPI POP PUSH1 0x2 DUP3 EQ JUMPDEST DUP1 PUSH2 0x6C5 JUMPI POP POP PUSH1 0x3 EQ SWAP1 JUMP JUMPDEST PUSH1 0x1 PUSH1 0x1 PUSH1 0xE0 SHL SUB NOT AND PUSH0 SWAP1 DUP2 MSTORE PUSH32 0xA47D913D72B2639F4CA1C145CC07DDF7170B73B257C8E0D4FCED7CC8E3E3904 PUSH1 0x20 MSTORE PUSH1 0x40 SWAP1 KECCAK256 SLOAD PUSH1 0x1 PUSH1 0x1 PUSH1 0xA0 SHL SUB AND SWAP1 JUMP JUMPDEST PUSH0 PUSH0 PUSH0 DUP4 MLOAD PUSH1 0x20 DUP6 ADD DUP7 DUP9 GAS CALL SWAP5 SWAP4 POP POP POP POP JUMP JUMPDEST PUSH1 0x40 MLOAD RETURNDATASIZE DUP2 MSTORE RETURNDATASIZE PUSH0 PUSH1 0x20 DUP4 ADD RETURNDATACOPY RETURNDATASIZE PUSH1 0x20 ADD DUP2 ADD PUSH1 0x40 MSTORE SWAP1 JUMP JUMPDEST PUSH1 0x40 MLOAD RETURNDATASIZE PUSH0 DUP3 RETURNDATACOPY RETURNDATASIZE DUP2 REVERT JUMPDEST PUSH1 0x1 PUSH1 0x1 PUSH1 0xA0 SHL SUB DUP2 AND PUSH0 SWAP1 DUP2 MSTORE PUSH1 0x1 DUP4 ADD PUSH1 0x20 MSTORE PUSH1 0x40 DUP2 KECCAK256 SLOAD ISZERO ISZERO PUSH2 0x746 JUMP JUMPDEST PUSH0 CALLDATASIZE PUSH0 PUSH0 PUSH0 CALLDATASIZE PUSH0 PUSH2 0x183E DUP10 DUP10 PUSH2 0x236B JUMP JUMPDEST SWAP6 POP SWAP6 POP SWAP6 POP SWAP6 POP SWAP6 POP SWAP6 POP PUSH0 PUSH0 PUSH0 PUSH0 PUSH0 PUSH2 0x1857 PUSH2 0x873 JUMP JUMPDEST POP SWAP6 POP SWAP6 POP SWAP6 POP SWAP6 POP SWAP6 POP POP PUSH2 0x1876 DUP9 DUP11 PUSH2 0x2464 SWAP1 SWAP2 SWAP1 PUSH4 0xFFFFFFFF AND JUMP JUMPDEST DUP16 EQ DUP1 ISZERO PUSH2 0x1883 JUMPI POP DUP6 ISZERO ISZERO JUMPDEST DUP1 ISZERO PUSH2 0x1906 JUMPI POP PUSH2 0x1906 PUSH2 0x18FF PUSH2 0x18F8 DUP10 DUP10 DUP13 DUP11 DUP1 MLOAD SWAP1 PUSH1 0x20 ADD KECCAK256 DUP11 DUP1 MLOAD SWAP1 PUSH1 0x20 ADD KECCAK256 DUP11 DUP11 DUP11 PUSH1 0x40 MLOAD PUSH1 0x20 ADD PUSH2 0x18E4 SWAP6 SWAP5 SWAP4 SWAP3 SWAP2 SWAP1 SWAP5 DUP6 MSTORE PUSH1 0x20 DUP6 ADD SWAP4 SWAP1 SWAP4 MSTORE PUSH1 0x40 DUP5 ADD SWAP2 SWAP1 SWAP2 MSTORE PUSH1 0x1 PUSH1 0x1 PUSH1 0xA0 SHL SUB AND PUSH1 0x60 DUP4 ADD MSTORE PUSH1 0x80 DUP3 ADD MSTORE PUSH1 0xA0 ADD SWAP1 JUMP JUMPDEST PUSH1 0x40 MLOAD PUSH1 0x20 DUP2 DUP4 SUB SUB DUP2 MSTORE SWAP1 PUSH1 0x40 MSTORE PUSH2 0x2483 JUMP JUMPDEST DUP12 SWAP1 PUSH2 0x2464 JUMP JUMPDEST DUP13 DUP13 PUSH2 0x24B5 JUMP JUMPDEST SWAP16 SWAP15 POP POP POP POP POP POP POP POP POP POP POP POP POP POP POP JUMP JUMPDEST PUSH0 PUSH2 0x709 PUSH2 0x1937 PUSH2 0x1929 DUP7 PUSH2 0x24C1 JUMP JUMPDEST PUSH2 0x1931 PUSH2 0x24F4 JUMP JUMPDEST SWAP1 PUSH2 0x2464 JUMP JUMPDEST DUP5 DUP5 PUSH2 0x24B5 JUMP JUMPDEST PUSH0 CALLDATASIZE DUP2 PUSH2 0x194B DUP5 DUP7 PUSH2 0x3EEA JUMP JUMPDEST PUSH1 0x60 SHR PUSH2 0x195B DUP6 PUSH1 0x14 DUP2 DUP10 PUSH2 0x3E04 JUMP JUMPDEST SWAP3 POP SWAP3 POP SWAP3 POP JUMPDEST SWAP3 POP SWAP3 POP SWAP3 JUMP JUMPDEST PUSH0 MLOAD PUSH1 0x20 PUSH2 0x449B PUSH0 CODECOPY PUSH0 MLOAD SWAP1 PUSH0 MSTORE DUP1 SLOAD PUSH0 PUSH2 0x19AB PUSH32 0xDFE169305A533E288E0557DA8D289146D3CC75FA6E04C87599B048A60A4E5602 SLOAD PUSH1 0x1 PUSH1 0x1 PUSH1 0x40 SHL SUB AND SWAP1 JUMP JUMPDEST SWAP1 POP DUP2 DUP2 PUSH1 0x1 PUSH1 0x1 PUSH1 0x40 SHL SUB DUP2 AND DUP3 LT ISZERO PUSH2 0x124F JUMPI PUSH1 0x40 MLOAD PUSH4 0x8249D757 PUSH1 0xE0 SHL DUP2 MSTORE PUSH1 0x1 PUSH1 0x1 PUSH1 0x40 SHL SUB SWAP3 DUP4 AND PUSH1 0x4 DUP3 ADD MSTORE SWAP2 AND PUSH1 0x24 DUP3 ADD MSTORE PUSH1 0x44 ADD PUSH2 0xBE3 JUMP JUMPDEST PUSH0 PUSH0 PUSH2 0x19F7 DUP7 PUSH2 0x261D JUMP JUMPDEST SWAP1 POP PUSH2 0x1A06 PUSH1 0x1 DUP3 PUSH0 DUP1 PUSH2 0x6CB JUMP JUMPDEST PUSH2 0x1A1B JUMPI PUSH2 0x1A16 DUP7 DUP7 DUP7 DUP7 PUSH2 0x2635 JUMP JUMPDEST PUSH2 0x1A89 JUMP JUMPDEST PUSH1 0x40 MLOAD PUSH4 0x97003203 PUSH1 0xE0 SHL DUP2 MSTORE PUSH1 0x1 PUSH1 0x1 PUSH1 0xA0 SHL SUB DUP3 AND SWAP1 PUSH4 0x97003203 SWAP1 PUSH2 0x1A49 SWAP1 DUP10 SWAP1 DUP10 SWAP1 PUSH1 0x4 ADD PUSH2 0x3F61 JUMP JUMPDEST PUSH1 0x20 PUSH1 0x40 MLOAD DUP1 DUP4 SUB DUP2 PUSH0 DUP8 GAS CALL ISZERO DUP1 ISZERO PUSH2 0x1A65 JUMPI RETURNDATASIZE PUSH0 PUSH0 RETURNDATACOPY RETURNDATASIZE PUSH0 REVERT JUMPDEST POP POP POP POP PUSH1 0x40 MLOAD RETURNDATASIZE PUSH1 0x1F NOT PUSH1 0x1F DUP3 ADD AND DUP3 ADD DUP1 PUSH1 0x40 MSTORE POP DUP2 ADD SWAP1 PUSH2 0x1A89 SWAP2 SWAP1 PUSH2 0x3DCC JUMP JUMPDEST SWAP7 SWAP6 POP POP POP POP POP POP JUMP JUMPDEST PUSH0 PUSH0 DUP4 PUSH1 0x1 ADD DUP4 PUSH1 0x40 MLOAD PUSH2 0x1AA7 SWAP2 SWAP1 PUSH2 0x3E93 JUMP JUMPDEST SWAP1 DUP2 MSTORE PUSH1 0x20 ADD PUSH1 0x40 MLOAD DUP1 SWAP2 SUB SWAP1 KECCAK256 SLOAD SWAP1 POP DUP1 PUSH0 EQ PUSH2 0x1C37 JUMPI PUSH0 PUSH2 0x1ACB PUSH1 0x1 DUP4 PUSH2 0x4078 JUMP JUMPDEST DUP6 SLOAD SWAP1 SWAP2 POP PUSH0 SWAP1 PUSH2 0x1ADE SWAP1 PUSH1 0x1 SWAP1 PUSH2 0x4078 JUMP JUMPDEST SWAP1 POP DUP1 DUP3 EQ PUSH2 0x1BDC JUMPI PUSH0 DUP7 PUSH0 ADD DUP3 DUP2 SLOAD DUP2 LT PUSH2 0x1AFC JUMPI PUSH2 0x1AFC PUSH2 0x3E9E JUMP JUMPDEST SWAP1 PUSH0 MSTORE PUSH1 0x20 PUSH0 KECCAK256 ADD DUP1 SLOAD PUSH2 0x1B0F SWAP1 PUSH2 0x3EB2 JUMP JUMPDEST DUP1 PUSH1 0x1F ADD PUSH1 0x20 DUP1 SWAP2 DIV MUL PUSH1 0x20 ADD PUSH1 0x40 MLOAD SWAP1 DUP2 ADD PUSH1 0x40 MSTORE DUP1 SWAP3 SWAP2 SWAP1 DUP2 DUP2 MSTORE PUSH1 0x20 ADD DUP3 DUP1 SLOAD PUSH2 0x1B3B SWAP1 PUSH2 0x3EB2 JUMP JUMPDEST DUP1 ISZERO PUSH2 0x1B86 JUMPI DUP1 PUSH1 0x1F LT PUSH2 0x1B5D JUMPI PUSH2 0x100 DUP1 DUP4 SLOAD DIV MUL DUP4 MSTORE SWAP2 PUSH1 0x20 ADD SWAP2 PUSH2 0x1B86 JUMP JUMPDEST DUP3 ADD SWAP2 SWAP1 PUSH0 MSTORE PUSH1 0x20 PUSH0 KECCAK256 SWAP1 JUMPDEST DUP2 SLOAD DUP2 MSTORE SWAP1 PUSH1 0x1 ADD SWAP1 PUSH1 0x20 ADD DUP1 DUP4 GT PUSH2 0x1B69 JUMPI DUP3 SWAP1 SUB PUSH1 0x1F AND DUP3 ADD SWAP2 JUMPDEST POP POP POP POP POP SWAP1 POP DUP1 DUP8 PUSH0 ADD DUP5 DUP2 SLOAD DUP2 LT PUSH2 0x1BA2 JUMPI PUSH2 0x1BA2 PUSH2 0x3E9E JUMP JUMPDEST SWAP1 PUSH0 MSTORE PUSH1 0x20 PUSH0 KECCAK256 ADD SWAP1 DUP2 PUSH2 0x1BB6 SWAP2 SWAP1 PUSH2 0x40D9 JUMP JUMPDEST POP DUP4 DUP8 PUSH1 0x1 ADD DUP3 PUSH1 0x40 MLOAD PUSH2 0x1BCA SWAP2 SWAP1 PUSH2 0x3E93 JUMP JUMPDEST SWAP1 DUP2 MSTORE PUSH1 0x40 MLOAD SWAP1 DUP2 SWAP1 SUB PUSH1 0x20 ADD SWAP1 KECCAK256 SSTORE POP JUMPDEST DUP6 SLOAD DUP7 SWAP1 DUP1 PUSH2 0x1BED JUMPI PUSH2 0x1BED PUSH2 0x4193 JUMP JUMPDEST PUSH1 0x1 SWAP1 SUB DUP2 DUP2 SWAP1 PUSH0 MSTORE PUSH1 0x20 PUSH0 KECCAK256 ADD PUSH0 PUSH2 0x1C06 SWAP2 SWAP1 PUSH2 0x3576 JUMP JUMPDEST SWAP1 SSTORE DUP6 PUSH1 0x1 ADD DUP6 PUSH1 0x40 MLOAD PUSH2 0x1C1A SWAP2 SWAP1 PUSH2 0x3E93 JUMP JUMPDEST SWAP1 DUP2 MSTORE PUSH1 0x20 ADD PUSH1 0x40 MLOAD DUP1 SWAP2 SUB SWAP1 KECCAK256 PUSH0 SWAP1 SSTORE PUSH1 0x1 SWAP4 POP POP POP POP PUSH2 0x6C5 JUMP JUMPDEST PUSH0 SWAP2 POP POP PUSH2 0x6C5 JUMP JUMPDEST POP SWAP3 SWAP2 POP POP JUMP JUMPDEST PUSH1 0x60 PUSH1 0xFF DUP4 EQ PUSH2 0x1C61 JUMPI PUSH2 0x1C5A DUP4 PUSH2 0x2654 JUMP JUMPDEST SWAP1 POP PUSH2 0x6C5 JUMP JUMPDEST DUP2 DUP1 SLOAD PUSH2 0x1C6D SWAP1 PUSH2 0x3EB2 JUMP JUMPDEST DUP1 PUSH1 0x1F ADD PUSH1 0x20 DUP1 SWAP2 DIV MUL PUSH1 0x20 ADD PUSH1 0x40 MLOAD SWAP1 DUP2 ADD PUSH1 0x40 MSTORE DUP1 SWAP3 SWAP2 SWAP1 DUP2 DUP2 MSTORE PUSH1 0x20 ADD DUP3 DUP1 SLOAD PUSH2 0x1C99 SWAP1 PUSH2 0x3EB2 JUMP JUMPDEST DUP1 ISZERO PUSH2 0x1CE4 JUMPI DUP1 PUSH1 0x1F LT PUSH2 0x1CBB JUMPI PUSH2 0x100 DUP1 DUP4 SLOAD DIV MUL DUP4 MSTORE SWAP2 PUSH1 0x20 ADD SWAP2 PUSH2 0x1CE4 JUMP JUMPDEST DUP3 ADD SWAP2 SWAP1 PUSH0 MSTORE PUSH1 0x20 PUSH0 KECCAK256 SWAP1 JUMPDEST DUP2 SLOAD DUP2 MSTORE SWAP1 PUSH1 0x1 ADD SWAP1 PUSH1 0x20 ADD DUP1 DUP4 GT PUSH2 0x1CC7 JUMPI DUP3 SWAP1 SUB PUSH1 0x1F AND DUP3 ADD SWAP2 JUMPDEST POP POP POP POP POP SWAP1 POP PUSH2 0x6C5 JUMP JUMPDEST PUSH32 0xA47D913D72B2639F4CA1C145CC07DDF7170B73B257C8E0D4FCED7CC8E3E3900 PUSH2 0x1D1A DUP5 PUSH2 0xB7A JUMP JUMPDEST DUP5 SWAP1 PUSH2 0x1D3C JUMPI PUSH1 0x40 MLOAD PUSH4 0x60FA2B23 PUSH1 0xE0 SHL DUP2 MSTORE PUSH1 0x4 ADD PUSH2 0xBE3 SWAP2 DUP2 MSTORE PUSH1 0x20 ADD SWAP1 JUMP JUMPDEST POP PUSH1 0x40 MLOAD PUSH4 0xECD05961 PUSH1 0xE0 SHL DUP2 MSTORE PUSH1 0x4 DUP2 ADD DUP6 SWAP1 MSTORE PUSH1 0x1 PUSH1 0x1 PUSH1 0xA0 SHL SUB DUP5 AND SWAP1 PUSH4 0xECD05961 SWAP1 PUSH1 0x24 ADD PUSH1 0x20 PUSH1 0x40 MLOAD DUP1 DUP4 SUB DUP2 DUP7 GAS STATICCALL ISZERO DUP1 ISZERO PUSH2 0x1D80 JUMPI RETURNDATASIZE PUSH0 PUSH0 RETURNDATACOPY RETURNDATASIZE PUSH0 REVERT JUMPDEST POP POP POP POP PUSH1 0x40 MLOAD RETURNDATASIZE PUSH1 0x1F NOT PUSH1 0x1F DUP3 ADD AND DUP3 ADD DUP1 PUSH1 0x40 MSTORE POP DUP2 ADD SWAP1 PUSH2 0x1DA4 SWAP2 SWAP1 PUSH2 0x41A7 JUMP JUMPDEST DUP5 DUP5 SWAP1 SWAP2 PUSH2 0x1DD7 JUMPI PUSH1 0x40 MLOAD PUSH4 0x8F89476F PUSH1 0xE0 SHL DUP2 MSTORE PUSH1 0x4 DUP2 ADD SWAP3 SWAP1 SWAP3 MSTORE PUSH1 0x1 PUSH1 0x1 PUSH1 0xA0 SHL SUB AND PUSH1 0x24 DUP3 ADD MSTORE PUSH1 0x44 ADD PUSH2 0xBE3 JUMP JUMPDEST POP POP PUSH1 0x1 DUP5 SUB PUSH2 0x1E25 JUMPI PUSH2 0x1DEB DUP2 DUP5 PUSH2 0x2691 JUMP JUMPDEST DUP5 DUP5 SWAP1 SWAP2 PUSH2 0x1E1E JUMPI PUSH1 0x40 MLOAD PUSH4 0x95D48A5B PUSH1 0xE0 SHL DUP2 MSTORE PUSH1 0x4 DUP2 ADD SWAP3 SWAP1 SWAP3 MSTORE PUSH1 0x1 PUSH1 0x1 PUSH1 0xA0 SHL SUB AND PUSH1 0x24 DUP3 ADD MSTORE PUSH1 0x44 ADD PUSH2 0xBE3 JUMP JUMPDEST POP POP PUSH2 0x1EDF JUMP JUMPDEST PUSH1 0x2 DUP5 SUB PUSH2 0x1E3A JUMPI PUSH2 0x1DEB PUSH1 0x2 DUP3 ADD DUP5 PUSH2 0x2691 JUMP JUMPDEST PUSH1 0x3 DUP5 SUB PUSH2 0x1EDF JUMPI PUSH0 PUSH2 0x1E4C DUP4 PUSH2 0x26A5 JUMP JUMPDEST PUSH1 0x1 PUSH1 0x1 PUSH1 0xE0 SHL SUB NOT DUP3 AND PUSH0 SWAP1 DUP2 MSTORE PUSH1 0x4 DUP6 ADD PUSH1 0x20 MSTORE PUSH1 0x40 SWAP1 KECCAK256 SLOAD SWAP1 SWAP5 POP SWAP1 SWAP2 POP DUP6 SWAP1 DUP6 SWAP1 PUSH1 0x1 PUSH1 0x1 PUSH1 0xA0 SHL SUB AND ISZERO PUSH2 0x1EAA JUMPI PUSH1 0x40 MLOAD PUSH4 0x95D48A5B PUSH1 0xE0 SHL DUP2 MSTORE PUSH1 0x4 DUP2 ADD SWAP3 SWAP1 SWAP3 MSTORE PUSH1 0x1 PUSH1 0x1 PUSH1 0xA0 SHL SUB AND PUSH1 0x24 DUP3 ADD MSTORE PUSH1 0x44 ADD PUSH2 0xBE3 JUMP JUMPDEST POP POP PUSH1 0x1 PUSH1 0x1 PUSH1 0xE0 SHL SUB NOT AND PUSH0 SWAP1 DUP2 MSTORE PUSH1 0x4 DUP3 ADD PUSH1 0x20 MSTORE PUSH1 0x40 SWAP1 KECCAK256 DUP1 SLOAD PUSH1 0x1 PUSH1 0x1 PUSH1 0xA0 SHL SUB NOT AND PUSH1 0x1 PUSH1 0x1 PUSH1 0xA0 SHL SUB DUP6 AND OR SWAP1 SSTORE JUMPDEST PUSH1 0x40 MLOAD PUSH4 0x6D61FE7 PUSH1 0xE4 SHL DUP2 MSTORE PUSH1 0x1 PUSH1 0x1 PUSH1 0xA0 SHL SUB DUP5 AND SWAP1 PUSH4 0x6D61FE70 SWAP1 PUSH2 0x1F0B SWAP1 DUP6 SWAP1 PUSH1 0x4 ADD PUSH2 0x3B03 JUMP JUMPDEST PUSH0 PUSH1 0x40 MLOAD DUP1 DUP4 SUB DUP2 PUSH0 DUP8 DUP1 EXTCODESIZE ISZERO DUP1 ISZERO PUSH2 0x1F22 JUMPI PUSH0 PUSH0 REVERT JUMPDEST POP GAS CALL ISZERO DUP1 ISZERO PUSH2 0x1F34 JUMPI RETURNDATASIZE PUSH0 PUSH0 RETURNDATACOPY RETURNDATASIZE PUSH0 REVERT JUMPDEST POP POP PUSH1 0x40 DUP1 MLOAD DUP8 DUP2 MSTORE PUSH1 0x1 PUSH1 0x1 PUSH1 0xA0 SHL SUB DUP8 AND PUSH1 0x20 DUP3 ADD MSTORE PUSH32 0xD21D0B289F126C4B473EA641963E766833C2F13866E4FF480ABD787C100EF123 SWAP4 POP ADD SWAP1 POP JUMPDEST PUSH1 0x40 MLOAD DUP1 SWAP2 SUB SWAP1 LOG1 POP POP POP POP JUMP JUMPDEST PUSH0 DUP3 DUP3 XOR DUP3 DUP5 LT MUL DUP3 XOR PUSH2 0x746 JUMP JUMPDEST PUSH0 DUP3 PUSH2 0x709 PUSH2 0x1FAC DUP5 PUSH2 0x1FA8 DUP5 PUSH0 SWAP1 DUP2 MSTORE PUSH1 0x20 SWAP1 KECCAK256 SWAP1 JUMP JUMPDEST ADD SWAP1 JUMP JUMPDEST SWAP1 JUMP JUMPDEST PUSH0 PUSH2 0x1FBA DUP4 DUP4 PUSH2 0xF94 JUMP JUMPDEST PUSH2 0x2007 JUMPI DUP3 SLOAD PUSH1 0x1 DUP2 ADD DUP5 SSTORE PUSH0 DUP5 DUP2 MSTORE PUSH1 0x20 SWAP1 KECCAK256 ADD PUSH2 0x1FD9 DUP4 DUP3 PUSH2 0x40D9 JUMP JUMPDEST POP DUP3 SLOAD PUSH1 0x40 MLOAD PUSH1 0x1 DUP6 ADD SWAP1 PUSH2 0x1FEF SWAP1 DUP6 SWAP1 PUSH2 0x3E93 JUMP JUMPDEST SWAP1 DUP2 MSTORE PUSH1 0x40 MLOAD SWAP1 DUP2 SWAP1 SUB PUSH1 0x20 ADD SWAP1 KECCAK256 SSTORE POP PUSH1 0x1 PUSH2 0x6C5 JUMP JUMPDEST POP PUSH0 PUSH2 0x6C5 JUMP JUMPDEST PUSH2 0x2016 PUSH2 0x26E7 JUMP JUMPDEST PUSH2 0x1498 JUMPI PUSH1 0x40 MLOAD PUSH4 0x1AFCD79F PUSH1 0xE3 SHL DUP2 MSTORE PUSH1 0x4 ADD PUSH1 0x40 MLOAD DUP1 SWAP2 SUB SWAP1 REVERT JUMPDEST PUSH2 0x203B PUSH2 0x200E JUMP JUMPDEST PUSH2 0x2044 DUP3 PUSH2 0x1395 JUMP JUMPDEST PUSH2 0xF90 DUP2 PUSH2 0xE89 JUMP JUMPDEST PUSH32 0xA47D913D72B2639F4CA1C145CC07DDF7170B73B257C8E0D4FCED7CC8E3E3900 PUSH2 0x2077 DUP5 PUSH2 0xB7A JUMP JUMPDEST DUP5 SWAP1 PUSH2 0x2099 JUMPI PUSH1 0x40 MLOAD PUSH4 0x60FA2B23 PUSH1 0xE0 SHL DUP2 MSTORE PUSH1 0x4 ADD PUSH2 0xBE3 SWAP2 DUP2 MSTORE PUSH1 0x20 ADD SWAP1 JUMP JUMPDEST POP PUSH1 0x1 DUP5 SUB PUSH2 0x20E6 JUMPI PUSH2 0x20AC DUP2 DUP5 PUSH2 0x2700 JUMP JUMPDEST DUP5 DUP5 SWAP1 SWAP2 PUSH2 0x20DF JUMPI PUSH1 0x40 MLOAD PUSH4 0x1343D68D PUSH1 0xE0 SHL DUP2 MSTORE PUSH1 0x4 DUP2 ADD SWAP3 SWAP1 SWAP3 MSTORE PUSH1 0x1 PUSH1 0x1 PUSH1 0xA0 SHL SUB AND PUSH1 0x24 DUP3 ADD MSTORE PUSH1 0x44 ADD PUSH2 0xBE3 JUMP JUMPDEST POP POP PUSH2 0x219F JUMP JUMPDEST PUSH1 0x2 DUP5 SUB PUSH2 0x20FB JUMPI PUSH2 0x20AC PUSH1 0x2 DUP3 ADD DUP5 PUSH2 0x2700 JUMP JUMPDEST PUSH1 0x3 DUP5 SUB PUSH2 0x219F JUMPI PUSH0 PUSH2 0x210D DUP4 PUSH2 0x26A5 JUMP JUMPDEST SWAP4 POP SWAP1 POP PUSH1 0x1 PUSH1 0x1 PUSH1 0xA0 SHL SUB DUP5 AND PUSH2 0x2124 DUP3 PUSH2 0x1790 JUMP JUMPDEST PUSH1 0x1 PUSH1 0x1 PUSH1 0xA0 SHL SUB AND EQ DUP1 ISZERO PUSH2 0x2142 JUMPI POP PUSH1 0x1 PUSH1 0x1 PUSH1 0xA0 SHL SUB DUP5 AND ISZERO ISZERO JUMPDEST DUP6 DUP6 SWAP1 SWAP2 PUSH2 0x2175 JUMPI PUSH1 0x40 MLOAD PUSH4 0x1343D68D PUSH1 0xE0 SHL DUP2 MSTORE PUSH1 0x4 DUP2 ADD SWAP3 SWAP1 SWAP3 MSTORE PUSH1 0x1 PUSH1 0x1 PUSH1 0xA0 SHL SUB AND PUSH1 0x24 DUP3 ADD MSTORE PUSH1 0x44 ADD PUSH2 0xBE3 JUMP JUMPDEST POP POP PUSH1 0x1 PUSH1 0x1 PUSH1 0xE0 SHL SUB NOT AND PUSH0 SWAP1 DUP2 MSTORE PUSH1 0x4 DUP3 ADD PUSH1 0x20 MSTORE PUSH1 0x40 SWAP1 KECCAK256 DUP1 SLOAD PUSH1 0x1 PUSH1 0x1 PUSH1 0xA0 SHL SUB NOT AND SWAP1 SSTORE JUMPDEST PUSH2 0x21E3 DUP4 DUP4 PUSH1 0x40 MLOAD PUSH1 0x24 ADD PUSH2 0x21B4 SWAP2 SWAP1 PUSH2 0x3B03 JUMP JUMPDEST PUSH1 0x40 DUP1 MLOAD PUSH1 0x1F NOT DUP2 DUP5 SUB ADD DUP2 MSTORE SWAP2 SWAP1 MSTORE PUSH1 0x20 DUP2 ADD DUP1 MLOAD PUSH1 0x1 PUSH1 0x1 PUSH1 0xE0 SHL SUB AND PUSH4 0x8A91B0E3 PUSH1 0xE0 SHL OR SWAP1 MSTORE PUSH2 0x2714 JUMP JUMPDEST POP PUSH1 0x40 DUP1 MLOAD DUP6 DUP2 MSTORE PUSH1 0x1 PUSH1 0x1 PUSH1 0xA0 SHL SUB DUP6 AND PUSH1 0x20 DUP3 ADD MSTORE PUSH32 0x341347516A9DE374859DFDA710FA4828B2D48CB57D4FBE4C1149612B8E02276E SWAP2 ADD PUSH2 0x1F73 JUMP JUMPDEST PUSH0 PUSH1 0x1F DUP3 PUSH1 0xFF AND GT ISZERO PUSH2 0x2248 JUMPI PUSH1 0x40 MLOAD PUSH4 0x1DD4BB1B PUSH1 0xE1 SHL DUP2 MSTORE PUSH1 0x4 ADD PUSH1 0x40 MLOAD DUP1 SWAP2 SUB SWAP1 REVERT JUMPDEST POP PUSH1 0x8 MUL SHL PUSH1 0x1 PUSH1 0x1 PUSH1 0xF8 SHL SUB NOT AND SWAP1 JUMP JUMPDEST PUSH0 PUSH1 0x1C DUP3 PUSH1 0xFF AND GT ISZERO PUSH2 0x2280 JUMPI PUSH1 0x40 MLOAD PUSH4 0x1DD4BB1B PUSH1 0xE1 SHL DUP2 MSTORE PUSH1 0x4 ADD PUSH1 0x40 MLOAD DUP1 SWAP2 SUB SWAP1 REVERT JUMPDEST POP PUSH1 0x8 MUL SHL PUSH1 0x1 PUSH1 0x1 PUSH1 0xE0 SHL SUB NOT AND SWAP1 JUMP JUMPDEST PUSH0 PUSH1 0xA DUP3 PUSH1 0xFF AND GT ISZERO PUSH2 0x22B8 JUMPI PUSH1 0x40 MLOAD PUSH4 0x1DD4BB1B PUSH1 0xE1 SHL DUP2 MSTORE PUSH1 0x4 ADD PUSH1 0x40 MLOAD DUP1 SWAP2 SUB SWAP1 REVERT JUMPDEST POP PUSH1 0x8 MUL SHL PUSH10 0xFFFFFFFFFFFFFFFFFFFF NOT AND SWAP1 JUMP JUMPDEST PUSH1 0x60 PUSH0 PUSH0 PUSH2 0x22DA DUP7 PUSH2 0x15C8 JUMP JUMPDEST POP POP SWAP2 POP SWAP2 POP PUSH2 0x22ED DUP3 PUSH0 PUSH1 0xF8 SHL PUSH2 0x1606 JUMP JUMPDEST ISZERO PUSH2 0x2306 JUMPI PUSH2 0x22FD DUP6 DUP6 DUP4 PUSH2 0x2720 JUMP JUMPDEST SWAP3 POP POP POP PUSH2 0x746 JUMP JUMPDEST PUSH2 0x2314 DUP3 PUSH1 0x1 PUSH1 0xF8 SHL PUSH2 0x1606 JUMP JUMPDEST ISZERO PUSH2 0x2324 JUMPI PUSH2 0x22FD DUP6 DUP6 DUP4 PUSH2 0x279C JUMP JUMPDEST PUSH2 0x2336 DUP3 PUSH1 0x1 PUSH1 0x1 PUSH1 0xF8 SHL SUB NOT PUSH2 0x1606 JUMP JUMPDEST ISZERO PUSH2 0x2346 JUMPI PUSH2 0x22FD DUP6 DUP6 DUP4 PUSH2 0x28C2 JUMP JUMPDEST PUSH1 0x40 MLOAD PUSH4 0x58DF354B PUSH1 0xE1 SHL DUP2 MSTORE PUSH1 0x1 PUSH1 0x1 PUSH1 0xF8 SHL SUB NOT DUP4 AND PUSH1 0x4 DUP3 ADD MSTORE PUSH1 0x24 ADD PUSH2 0xBE3 JUMP JUMPDEST CALLDATASIZE PUSH0 DUP1 DUP1 DUP4 DUP2 DUP7 PUSH1 0x42 DUP2 LT ISZERO PUSH2 0x2393 JUMPI POP PUSH0 SWAP6 POP DUP6 SWAP5 POP DUP5 SWAP4 POP DUP4 SWAP3 POP DUP3 SWAP2 POP DUP2 SWAP1 POP PUSH2 0x245A JUMP JUMPDEST PUSH1 0x1 NOT DUP2 ADD PUSH0 PUSH2 0x23A5 DUP11 DUP4 DUP2 DUP15 PUSH2 0x3E04 JUMP JUMPDEST PUSH2 0x23AE SWAP2 PUSH2 0x41C6 JUMP JUMPDEST PUSH1 0xF0 SHR SWAP1 POP PUSH1 0x42 DUP2 ADD DUP4 LT ISZERO PUSH2 0x23D9 JUMPI POP PUSH0 SWAP8 POP DUP8 SWAP7 POP DUP7 SWAP6 POP DUP6 SWAP5 POP DUP5 SWAP4 POP DUP4 SWAP3 POP PUSH2 0x245A SWAP2 POP POP JUMP JUMPDEST PUSH0 DUP2 DUP4 SUB SWAP1 POP PUSH0 PUSH1 0x20 DUP3 SUB SWAP1 POP PUSH0 PUSH1 0x20 DUP3 SUB SWAP1 POP DUP14 DUP14 PUSH0 SWAP1 DUP4 SWAP3 PUSH2 0x23FF SWAP4 SWAP3 SWAP2 SWAP1 PUSH2 0x3E04 JUMP JUMPDEST SWAP12 POP SWAP12 POP DUP14 DUP14 DUP3 SWAP1 DUP5 SWAP3 PUSH2 0x2415 SWAP4 SWAP3 SWAP2 SWAP1 PUSH2 0x3E04 JUMP JUMPDEST PUSH2 0x241E SWAP2 PUSH2 0x41FC JUMP JUMPDEST SWAP10 POP DUP14 DUP14 DUP4 SWAP1 DUP6 SWAP3 PUSH2 0x2432 SWAP4 SWAP3 SWAP2 SWAP1 PUSH2 0x3E04 JUMP JUMPDEST PUSH2 0x243B SWAP2 PUSH2 0x41FC JUMP JUMPDEST SWAP9 POP DUP14 DUP14 DUP5 SWAP1 DUP8 SWAP3 PUSH2 0x244F SWAP4 SWAP3 SWAP2 SWAP1 PUSH2 0x3E04 JUMP JUMPDEST SWAP8 POP SWAP8 POP POP POP POP POP POP POP JUMPDEST SWAP3 SWAP6 POP SWAP3 SWAP6 POP SWAP3 SWAP6 JUMP JUMPDEST PUSH1 0x40 MLOAD PUSH2 0x1901 PUSH1 0xF0 SHL DUP2 MSTORE PUSH1 0x2 DUP2 ADD SWAP3 SWAP1 SWAP3 MSTORE PUSH1 0x22 DUP3 ADD MSTORE PUSH1 0x42 SWAP1 KECCAK256 SWAP1 JUMP JUMPDEST PUSH0 CALLDATASIZE PUSH0 CALLDATASIZE PUSH0 PUSH2 0x2492 DUP10 DUP10 PUSH2 0x2938 JUMP JUMPDEST SWAP4 POP SWAP4 POP SWAP4 POP SWAP4 POP PUSH2 0x24A8 DUP5 DUP5 DUP5 DUP5 DUP12 DUP12 PUSH2 0x2AAF JUMP JUMPDEST SWAP10 SWAP9 POP POP POP POP POP POP POP POP POP JUMP JUMPDEST PUSH0 PUSH2 0x709 DUP5 DUP5 DUP5 PUSH2 0x2AFE JUMP JUMPDEST PUSH32 0x983E65E5148E570CD828EAD231EE759A8D7958721A768F93BC4483BA005C32DE PUSH0 SWAP1 DUP2 MSTORE PUSH1 0x20 DUP3 SWAP1 MSTORE PUSH1 0x40 DUP2 KECCAK256 PUSH2 0x6C5 JUMP JUMPDEST PUSH0 ADDRESS PUSH1 0x1 PUSH1 0x1 PUSH1 0xA0 SHL SUB PUSH32 0x0 AND EQ DUP1 ISZERO PUSH2 0x254C JUMPI POP PUSH32 0x0 CHAINID EQ JUMPDEST ISZERO PUSH2 0x2576 JUMPI POP PUSH32 0x0 SWAP1 JUMP JUMPDEST PUSH2 0xB38 PUSH1 0x40 DUP1 MLOAD PUSH32 0x8B73C3C69BB8FE3D512ECC4CF759CC79239F7B179B0FFACAA9A75D522B39400F PUSH1 0x20 DUP3 ADD MSTORE PUSH32 0x0 SWAP2 DUP2 ADD SWAP2 SWAP1 SWAP2 MSTORE PUSH32 0x0 PUSH1 0x60 DUP3 ADD MSTORE CHAINID PUSH1 0x80 DUP3 ADD MSTORE ADDRESS PUSH1 0xA0 DUP3 ADD MSTORE PUSH0 SWAP1 PUSH1 0xC0 ADD PUSH1 0x40 MLOAD PUSH1 0x20 DUP2 DUP4 SUB SUB DUP2 MSTORE SWAP1 PUSH1 0x40 MSTORE DUP1 MLOAD SWAP1 PUSH1 0x20 ADD KECCAK256 SWAP1 POP SWAP1 JUMP JUMPDEST PUSH0 PUSH2 0x262C PUSH1 0x20 DUP4 ADD CALLDATALOAD DUP3 PUSH2 0x2B3A JUMP JUMPDEST PUSH1 0x60 SHR SWAP3 SWAP2 POP POP JUMP JUMPDEST PUSH0 PUSH2 0x263F DUP5 PUSH2 0x1937 JUMP JUMPDEST PUSH2 0x264A JUMPI PUSH1 0x1 PUSH2 0x706 JUMP JUMPDEST POP PUSH0 SWAP5 SWAP4 POP POP POP POP JUMP JUMPDEST PUSH1 0x60 PUSH0 PUSH2 0x2660 DUP4 PUSH2 0x2B72 JUMP JUMPDEST PUSH1 0x40 DUP1 MLOAD PUSH1 0x20 DUP1 DUP3 MSTORE DUP2 DUP4 ADD SWAP1 SWAP3 MSTORE SWAP2 SWAP3 POP PUSH0 SWAP2 SWAP1 PUSH1 0x20 DUP3 ADD DUP2 DUP1 CALLDATASIZE DUP4 CALLDATACOPY POP POP POP SWAP2 DUP3 MSTORE POP PUSH1 0x20 DUP2 ADD SWAP3 SWAP1 SWAP3 MSTORE POP SWAP1 JUMP JUMPDEST PUSH0 PUSH2 0x746 DUP4 PUSH1 0x1 PUSH1 0x1 PUSH1 0xA0 SHL SUB DUP5 AND PUSH2 0x2B99 JUMP JUMPDEST PUSH0 PUSH1 0x60 PUSH1 0x3 DUP4 MLOAD GT PUSH2 0x26CA JUMPI PUSH1 0x40 MLOAD PUSH4 0xFA298711 PUSH1 0xE0 SHL DUP2 MSTORE PUSH1 0x4 ADD PUSH1 0x40 MLOAD DUP1 SWAP2 SUB SWAP1 REVERT JUMPDEST PUSH2 0x26D3 DUP4 PUSH2 0x4219 JUMP JUMPDEST PUSH2 0x26DE DUP5 PUSH1 0x4 PUSH2 0x2BDE JUMP JUMPDEST SWAP2 POP SWAP2 POP SWAP2 POP SWAP2 JUMP JUMPDEST PUSH0 PUSH2 0x26F0 PUSH2 0x1468 JUMP JUMPDEST SLOAD PUSH1 0x1 PUSH1 0x40 SHL SWAP1 DIV PUSH1 0xFF AND SWAP2 SWAP1 POP JUMP JUMPDEST PUSH0 PUSH2 0x746 DUP4 PUSH1 0x1 PUSH1 0x1 PUSH1 0xA0 SHL SUB DUP5 AND PUSH2 0x2BEC JUMP JUMPDEST PUSH0 PUSH2 0x746 DUP4 PUSH0 DUP5 PUSH2 0x17D3 JUMP JUMPDEST PUSH1 0x60 PUSH0 PUSH0 CALLDATASIZE PUSH0 PUSH2 0x2730 DUP9 DUP9 PUSH2 0x2CC6 JUMP JUMPDEST PUSH1 0x40 DUP1 MLOAD PUSH1 0x1 DUP1 DUP3 MSTORE DUP2 DUP4 ADD SWAP1 SWAP3 MSTORE SWAP5 SWAP9 POP SWAP3 SWAP7 POP SWAP1 SWAP5 POP SWAP3 POP DUP2 PUSH1 0x20 ADD JUMPDEST PUSH1 0x60 DUP2 MSTORE PUSH1 0x20 ADD SWAP1 PUSH1 0x1 SWAP1 SUB SWAP1 DUP2 PUSH2 0x274F JUMPI SWAP1 POP POP SWAP5 POP PUSH2 0x2774 PUSH0 DUP8 DUP7 DUP7 DUP7 DUP7 PUSH2 0x2D0A JUMP JUMPDEST DUP6 PUSH0 DUP2 MLOAD DUP2 LT PUSH2 0x2786 JUMPI PUSH2 0x2786 PUSH2 0x3E9E JUMP JUMPDEST PUSH1 0x20 MUL PUSH1 0x20 ADD ADD DUP2 SWAP1 MSTORE POP POP POP POP POP SWAP4 SWAP3 POP POP POP JUMP JUMPDEST PUSH1 0x60 CALLDATASIZE PUSH0 PUSH2 0x27AA DUP7 DUP7 PUSH2 0x2D8F JUMP JUMPDEST SWAP1 SWAP3 POP SWAP1 POP DUP1 PUSH1 0x1 PUSH1 0x1 PUSH1 0x40 SHL SUB DUP2 GT ISZERO PUSH2 0x27C7 JUMPI PUSH2 0x27C7 PUSH2 0x36A0 JUMP JUMPDEST PUSH1 0x40 MLOAD SWAP1 DUP1 DUP3 MSTORE DUP1 PUSH1 0x20 MUL PUSH1 0x20 ADD DUP3 ADD PUSH1 0x40 MSTORE DUP1 ISZERO PUSH2 0x27FA JUMPI DUP2 PUSH1 0x20 ADD JUMPDEST PUSH1 0x60 DUP2 MSTORE PUSH1 0x20 ADD SWAP1 PUSH1 0x1 SWAP1 SUB SWAP1 DUP2 PUSH2 0x27E5 JUMPI SWAP1 POP JUMPDEST POP SWAP3 POP PUSH0 JUMPDEST DUP2 DUP2 LT ISZERO PUSH2 0xB5D JUMPI PUSH2 0x289D DUP2 DUP7 DUP6 DUP6 DUP6 DUP2 DUP2 LT PUSH2 0x281E JUMPI PUSH2 0x281E PUSH2 0x3E9E JUMP JUMPDEST SWAP1 POP PUSH1 0x20 MUL DUP2 ADD SWAP1 PUSH2 0x2830 SWAP2 SWAP1 PUSH2 0x4257 JUMP JUMPDEST PUSH2 0x283E SWAP1 PUSH1 0x20 DUP2 ADD SWAP1 PUSH2 0x4275 JUMP JUMPDEST DUP7 DUP7 DUP7 DUP2 DUP2 LT PUSH2 0x2850 JUMPI PUSH2 0x2850 PUSH2 0x3E9E JUMP JUMPDEST SWAP1 POP PUSH1 0x20 MUL DUP2 ADD SWAP1 PUSH2 0x2862 SWAP2 SWAP1 PUSH2 0x4257 JUMP JUMPDEST PUSH1 0x20 ADD CALLDATALOAD DUP8 DUP8 DUP8 DUP2 DUP2 LT PUSH2 0x2878 JUMPI PUSH2 0x2878 PUSH2 0x3E9E JUMP JUMPDEST SWAP1 POP PUSH1 0x20 MUL DUP2 ADD SWAP1 PUSH2 0x288A SWAP2 SWAP1 PUSH2 0x4257 JUMP JUMPDEST PUSH2 0x2898 SWAP1 PUSH1 0x40 DUP2 ADD SWAP1 PUSH2 0x3D8A JUMP JUMPDEST PUSH2 0x2D0A JUMP JUMPDEST DUP5 DUP3 DUP2 MLOAD DUP2 LT PUSH2 0x28AF JUMPI PUSH2 0x28AF PUSH2 0x3E9E JUMP JUMPDEST PUSH1 0x20 SWAP1 DUP2 MUL SWAP2 SWAP1 SWAP2 ADD ADD MSTORE PUSH1 0x1 ADD PUSH2 0x27FF JUMP JUMPDEST PUSH1 0x60 PUSH0 CALLDATASIZE PUSH0 PUSH2 0x28D1 DUP8 DUP8 PUSH2 0x2E54 JUMP JUMPDEST PUSH1 0x40 DUP1 MLOAD PUSH1 0x1 DUP1 DUP3 MSTORE DUP2 DUP4 ADD SWAP1 SWAP3 MSTORE SWAP4 SWAP7 POP SWAP2 SWAP5 POP SWAP3 POP DUP2 PUSH1 0x20 ADD JUMPDEST PUSH1 0x60 DUP2 MSTORE PUSH1 0x20 ADD SWAP1 PUSH1 0x1 SWAP1 SUB SWAP1 DUP2 PUSH2 0x28ED JUMPI SWAP1 POP POP SWAP4 POP PUSH2 0x2911 PUSH0 DUP7 DUP6 DUP6 DUP6 PUSH2 0x2E7E JUMP JUMPDEST DUP5 PUSH0 DUP2 MLOAD DUP2 LT PUSH2 0x2923 JUMPI PUSH2 0x2923 PUSH2 0x3E9E JUMP JUMPDEST PUSH1 0x20 MUL PUSH1 0x20 ADD ADD DUP2 SWAP1 MSTORE POP POP POP POP SWAP4 SWAP3 POP POP POP JUMP JUMPDEST CALLDATASIZE PUSH0 DUP2 DUP2 DUP6 DUP6 DUP1 ISZERO PUSH2 0x2A97 JUMPI PUSH1 0x29 PUSH1 0xF8 SHL DUP3 DUP3 PUSH2 0x2956 PUSH1 0x1 DUP3 PUSH2 0x4078 JUMP JUMPDEST DUP2 DUP2 LT PUSH2 0x2965 JUMPI PUSH2 0x2965 PUSH2 0x3E9E JUMP JUMPDEST SWAP1 POP ADD CALLDATALOAD PUSH1 0xF8 SHR PUSH1 0xF8 SHL PUSH1 0x1 PUSH1 0x1 PUSH1 0xF8 SHL SUB NOT AND SUB PUSH2 0x2A06 JUMPI PUSH0 JUMPDEST DUP2 DUP2 LT ISZERO PUSH2 0x2A00 JUMPI PUSH0 DUP4 DUP4 DUP4 DUP2 DUP2 LT PUSH2 0x299B JUMPI PUSH2 0x299B PUSH2 0x3E9E JUMP JUMPDEST SWAP1 SWAP2 ADD CALLDATALOAD PUSH1 0x1 PUSH1 0x1 PUSH1 0xF8 SHL SUB NOT AND SWAP2 POP POP PUSH1 0x1B PUSH1 0xFB SHL DUP2 ADD PUSH2 0x29E3 JUMPI DUP2 PUSH0 SUB PUSH2 0x29C4 JUMPI POP PUSH2 0x2A00 JUMP JUMPDEST PUSH2 0x29D0 DUP3 PUSH0 DUP6 DUP8 PUSH2 0x3E04 JUMP JUMPDEST DUP12 DUP12 SWAP8 POP SWAP8 POP SWAP8 POP SWAP8 POP POP POP POP POP PUSH2 0x2AA6 JUMP JUMPDEST PUSH2 0x29EC DUP2 PUSH2 0x2F0C JUMP JUMPDEST ISZERO PUSH2 0x29F7 JUMPI POP PUSH2 0x2A00 JUMP JUMPDEST POP PUSH1 0x1 ADD PUSH2 0x2980 JUMP JUMPDEST POP PUSH2 0x2A97 JUMP JUMPDEST DUP1 JUMPDEST DUP1 ISZERO PUSH2 0x2A95 JUMPI PUSH0 DUP4 DUP4 PUSH2 0x2A1C PUSH1 0x1 DUP6 PUSH2 0x4078 JUMP JUMPDEST DUP2 DUP2 LT PUSH2 0x2A2B JUMPI PUSH2 0x2A2B PUSH2 0x3E9E JUMP JUMPDEST SWAP1 SWAP2 ADD CALLDATALOAD PUSH1 0x1 PUSH1 0x1 PUSH1 0xF8 SHL SUB NOT AND SWAP2 POP POP PUSH1 0xD7 PUSH1 0xF8 SHL DUP2 ADD PUSH2 0x2A70 JUMPI PUSH2 0x2A53 DUP4 DUP4 DUP2 DUP8 PUSH2 0x3E04 JUMP JUMPDEST PUSH2 0x2A5F DUP5 PUSH0 DUP8 DUP10 PUSH2 0x3E04 JUMP JUMPDEST SWAP8 POP SWAP8 POP SWAP8 POP SWAP8 POP POP POP POP POP PUSH2 0x2AA6 JUMP JUMPDEST PUSH2 0x2A79 DUP2 PUSH2 0x2F0C JUMP JUMPDEST ISZERO PUSH2 0x2A84 JUMPI POP PUSH2 0x2A95 JUMP JUMPDEST POP PUSH2 0x2A8E DUP2 PUSH2 0x428E JUMP JUMPDEST SWAP1 POP PUSH2 0x2A08 JUMP JUMPDEST POP JUMPDEST PUSH0 DUP1 PUSH0 DUP1 SWAP6 POP SWAP6 POP SWAP6 POP SWAP6 POP POP POP JUMPDEST SWAP3 SWAP6 SWAP2 SWAP5 POP SWAP3 POP JUMP JUMPDEST PUSH0 DUP6 ISZERO PUSH2 0x2AF1 JUMPI PUSH2 0x2AC2 DUP8 DUP8 DUP8 DUP8 PUSH2 0x2F7E JUMP JUMPDEST DUP4 DUP4 PUSH1 0x40 MLOAD PUSH1 0x20 ADD PUSH2 0x2AD6 SWAP4 SWAP3 SWAP2 SWAP1 PUSH2 0x42A3 JUMP JUMPDEST PUSH1 0x40 MLOAD PUSH1 0x20 DUP2 DUP4 SUB SUB DUP2 MSTORE SWAP1 PUSH1 0x40 MSTORE DUP1 MLOAD SWAP1 PUSH1 0x20 ADD KECCAK256 PUSH2 0x2AF3 JUMP JUMPDEST PUSH0 JUMPDEST SWAP8 SWAP7 POP POP POP POP POP POP POP JUMP JUMPDEST PUSH0 DUP2 DUP2 SUB PUSH2 0x2B0D JUMPI POP PUSH0 PUSH2 0x746 JUMP JUMPDEST PUSH0 DUP1 PUSH2 0x2B1B DUP5 DUP7 ADD DUP7 PUSH2 0x42BA JUMP JUMPDEST SWAP2 POP SWAP2 POP PUSH2 0x2B28 DUP3 PUSH2 0x2FB6 JUMP JUMPDEST DUP1 ISZERO PUSH2 0x1A89 JUMPI POP PUSH2 0x1A89 DUP7 DUP4 DUP4 PUSH2 0x2FFC JUMP JUMPDEST PUSH0 PUSH1 0xC DUP3 PUSH1 0xFF AND GT ISZERO PUSH2 0x2B60 JUMPI PUSH1 0x40 MLOAD PUSH4 0x1DD4BB1B PUSH1 0xE1 SHL DUP2 MSTORE PUSH1 0x4 ADD PUSH1 0x40 MLOAD DUP1 SWAP2 SUB SWAP1 REVERT JUMPDEST POP PUSH1 0x8 MUL SHL PUSH1 0x1 PUSH1 0x1 PUSH1 0x60 SHL SUB NOT AND SWAP1 JUMP JUMPDEST PUSH0 PUSH1 0xFF DUP3 AND PUSH1 0x1F DUP2 GT ISZERO PUSH2 0x6C5 JUMPI PUSH1 0x40 MLOAD PUSH4 0x2CD44AC3 PUSH1 0xE2 SHL DUP2 MSTORE PUSH1 0x4 ADD PUSH1 0x40 MLOAD DUP1 SWAP2 SUB SWAP1 REVERT JUMPDEST PUSH0 DUP2 DUP2 MSTORE PUSH1 0x1 DUP4 ADD PUSH1 0x20 MSTORE PUSH1 0x40 DUP2 KECCAK256 SLOAD PUSH2 0x2007 JUMPI POP DUP2 SLOAD PUSH1 0x1 DUP2 DUP2 ADD DUP5 SSTORE PUSH0 DUP5 DUP2 MSTORE PUSH1 0x20 DUP1 DUP3 KECCAK256 SWAP1 SWAP4 ADD DUP5 SWAP1 SSTORE DUP5 SLOAD DUP5 DUP3 MSTORE DUP3 DUP7 ADD SWAP1 SWAP4 MSTORE PUSH1 0x40 SWAP1 KECCAK256 SWAP2 SWAP1 SWAP2 SSTORE PUSH2 0x6C5 JUMP JUMPDEST PUSH1 0x60 PUSH2 0x746 DUP4 DUP4 DUP6 MLOAD PUSH2 0x304B JUMP JUMPDEST PUSH0 DUP2 DUP2 MSTORE PUSH1 0x1 DUP4 ADD PUSH1 0x20 MSTORE PUSH1 0x40 DUP2 KECCAK256 SLOAD DUP1 ISZERO PUSH2 0x1C37 JUMPI PUSH0 PUSH2 0x2C0E PUSH1 0x1 DUP4 PUSH2 0x4078 JUMP JUMPDEST DUP6 SLOAD SWAP1 SWAP2 POP PUSH0 SWAP1 PUSH2 0x2C21 SWAP1 PUSH1 0x1 SWAP1 PUSH2 0x4078 JUMP JUMPDEST SWAP1 POP DUP1 DUP3 EQ PUSH2 0x2C80 JUMPI PUSH0 DUP7 PUSH0 ADD DUP3 DUP2 SLOAD DUP2 LT PUSH2 0x2C3F JUMPI PUSH2 0x2C3F PUSH2 0x3E9E JUMP JUMPDEST SWAP1 PUSH0 MSTORE PUSH1 0x20 PUSH0 KECCAK256 ADD SLOAD SWAP1 POP DUP1 DUP8 PUSH0 ADD DUP5 DUP2 SLOAD DUP2 LT PUSH2 0x2C5F JUMPI PUSH2 0x2C5F PUSH2 0x3E9E JUMP JUMPDEST PUSH0 SWAP2 DUP3 MSTORE PUSH1 0x20 DUP1 DUP4 KECCAK256 SWAP1 SWAP2 ADD SWAP3 SWAP1 SWAP3 SSTORE SWAP2 DUP3 MSTORE PUSH1 0x1 DUP9 ADD SWAP1 MSTORE PUSH1 0x40 SWAP1 KECCAK256 DUP4 SWAP1 SSTORE JUMPDEST DUP6 SLOAD DUP7 SWAP1 DUP1 PUSH2 0x2C91 JUMPI PUSH2 0x2C91 PUSH2 0x4193 JUMP JUMPDEST PUSH1 0x1 SWAP1 SUB DUP2 DUP2 SWAP1 PUSH0 MSTORE PUSH1 0x20 PUSH0 KECCAK256 ADD PUSH0 SWAP1 SSTORE SWAP1 SSTORE DUP6 PUSH1 0x1 ADD PUSH0 DUP7 DUP2 MSTORE PUSH1 0x20 ADD SWAP1 DUP2 MSTORE PUSH1 0x20 ADD PUSH0 KECCAK256 PUSH0 SWAP1 SSTORE PUSH1 0x1 SWAP4 POP POP POP POP PUSH2 0x6C5 JUMP JUMPDEST PUSH0 DUP1 CALLDATASIZE DUP2 PUSH2 0x2CD4 DUP6 DUP8 PUSH2 0x3EEA JUMP JUMPDEST PUSH1 0x60 SHR SWAP4 POP PUSH2 0x2CE7 PUSH1 0x34 PUSH1 0x14 DUP8 DUP10 PUSH2 0x3E04 JUMP JUMPDEST PUSH2 0x2CF0 SWAP2 PUSH2 0x41FC JUMP JUMPDEST SWAP3 POP PUSH2 0x2CFF DUP6 PUSH1 0x34 DUP2 DUP10 PUSH2 0x3E04 JUMP JUMPDEST SWAP5 SWAP8 SWAP4 SWAP7 POP SWAP5 POP POP POP JUMP JUMPDEST PUSH1 0x60 PUSH0 DUP1 PUSH1 0x1 PUSH1 0x1 PUSH1 0xA0 SHL SUB DUP8 AND ISZERO PUSH2 0x2D23 JUMPI DUP7 PUSH2 0x2D25 JUMP JUMPDEST ADDRESS JUMPDEST PUSH1 0x1 PUSH1 0x1 PUSH1 0xA0 SHL SUB AND DUP7 DUP7 DUP7 PUSH1 0x40 MLOAD PUSH2 0x2D3F SWAP3 SWAP2 SWAP1 PUSH2 0x431D JUMP JUMPDEST PUSH0 PUSH1 0x40 MLOAD DUP1 DUP4 SUB DUP2 DUP6 DUP8 GAS CALL SWAP3 POP POP POP RETURNDATASIZE DUP1 PUSH0 DUP2 EQ PUSH2 0x2D79 JUMPI PUSH1 0x40 MLOAD SWAP2 POP PUSH1 0x1F NOT PUSH1 0x3F RETURNDATASIZE ADD AND DUP3 ADD PUSH1 0x40 MSTORE RETURNDATASIZE DUP3 MSTORE RETURNDATASIZE PUSH0 PUSH1 0x20 DUP5 ADD RETURNDATACOPY PUSH2 0x2D7E JUMP JUMPDEST PUSH1 0x60 SWAP2 POP JUMPDEST POP SWAP2 POP SWAP2 POP PUSH2 0x24A8 DUP10 DUP10 DUP5 DUP5 PUSH2 0x30CB JUMP JUMPDEST CALLDATASIZE PUSH0 DUP3 PUSH1 0x20 DUP2 LT ISZERO PUSH2 0x2DB4 JUMPI PUSH1 0x40 MLOAD PUSH4 0xEB0BCC5D PUSH1 0xE0 SHL DUP2 MSTORE PUSH1 0x4 ADD PUSH1 0x40 MLOAD DUP1 SWAP2 SUB SWAP1 REVERT JUMPDEST PUSH0 PUSH2 0x2DC2 PUSH1 0x20 DUP3 DUP8 DUP10 PUSH2 0x3E04 JUMP JUMPDEST PUSH2 0x2DCB SWAP2 PUSH2 0x41FC JUMP JUMPDEST SWAP1 POP PUSH1 0x1F NOT DUP3 ADD DUP2 GT ISZERO PUSH2 0x2DF2 JUMPI PUSH1 0x40 MLOAD PUSH4 0xEB0BCC5D PUSH1 0xE0 SHL DUP2 MSTORE PUSH1 0x4 ADD PUSH1 0x40 MLOAD DUP1 SWAP2 SUB SWAP1 REVERT JUMPDEST PUSH0 PUSH2 0x2E02 PUSH1 0x20 DUP4 ADD DUP4 DUP9 DUP11 PUSH2 0x3E04 JUMP JUMPDEST PUSH2 0x2E0B SWAP2 PUSH2 0x41FC JUMP JUMPDEST SWAP1 POP PUSH1 0x1 PUSH1 0x1 PUSH1 0x40 SHL SUB DUP2 GT DUP1 PUSH2 0x2E29 JUMPI POP DUP1 PUSH1 0x20 MUL PUSH1 0x20 DUP4 DUP6 SUB SUB LT JUMPDEST ISZERO PUSH2 0x2E47 JUMPI PUSH1 0x40 MLOAD PUSH4 0xEB0BCC5D PUSH1 0xE0 SHL DUP2 MSTORE PUSH1 0x4 ADD PUSH1 0x40 MLOAD DUP1 SWAP2 SUB SWAP1 REVERT JUMPDEST SWAP6 ADD PUSH1 0x20 ADD SWAP6 SWAP4 POP POP POP POP JUMP JUMPDEST PUSH0 CALLDATASIZE DUP2 PUSH2 0x2E61 DUP5 DUP7 PUSH2 0x3EEA JUMP JUMPDEST PUSH1 0x60 SHR SWAP3 POP PUSH2 0x2E73 DUP5 PUSH1 0x14 DUP2 DUP9 PUSH2 0x3E04 JUMP JUMPDEST SWAP2 POP SWAP2 POP SWAP3 POP SWAP3 POP SWAP3 JUMP JUMPDEST PUSH1 0x60 PUSH0 DUP1 PUSH1 0x1 PUSH1 0x1 PUSH1 0xA0 SHL SUB DUP7 AND ISZERO PUSH2 0x2E97 JUMPI DUP6 PUSH2 0x2E99 JUMP JUMPDEST ADDRESS JUMPDEST PUSH1 0x1 PUSH1 0x1 PUSH1 0xA0 SHL SUB AND DUP6 DUP6 PUSH1 0x40 MLOAD PUSH2 0x2EB2 SWAP3 SWAP2 SWAP1 PUSH2 0x431D JUMP JUMPDEST PUSH0 PUSH1 0x40 MLOAD DUP1 DUP4 SUB DUP2 DUP6 GAS DELEGATECALL SWAP2 POP POP RETURNDATASIZE DUP1 PUSH0 DUP2 EQ PUSH2 0x2EEA JUMPI PUSH1 0x40 MLOAD SWAP2 POP PUSH1 0x1F NOT PUSH1 0x3F RETURNDATASIZE ADD AND DUP3 ADD PUSH1 0x40 MSTORE RETURNDATASIZE DUP3 MSTORE RETURNDATASIZE PUSH0 PUSH1 0x20 DUP5 ADD RETURNDATACOPY PUSH2 0x2EEF JUMP JUMPDEST PUSH1 0x60 SWAP2 POP JUMPDEST POP SWAP2 POP SWAP2 POP PUSH2 0x2F00 DUP9 DUP9 DUP5 DUP5 PUSH2 0x30CB JUMP JUMPDEST SWAP9 SWAP8 POP POP POP POP POP POP POP POP JUMP JUMPDEST PUSH0 PUSH1 0x1 PUSH1 0x1 PUSH1 0xF8 SHL SUB NOT DUP3 AND ISZERO DUP1 PUSH2 0x2F31 JUMPI POP PUSH1 0x1 PUSH1 0x1 PUSH1 0xF8 SHL SUB NOT DUP3 AND PUSH1 0x1 PUSH1 0xFD SHL EQ JUMPDEST DUP1 PUSH2 0x2F49 JUMPI POP PUSH1 0x1 PUSH1 0x1 PUSH1 0xF8 SHL SUB NOT DUP3 AND PUSH1 0xB PUSH1 0xFA SHL EQ JUMPDEST DUP1 PUSH2 0x2F61 JUMPI POP PUSH1 0x1 PUSH1 0x1 PUSH1 0xF8 SHL SUB NOT DUP3 AND PUSH1 0x5 PUSH1 0xFB SHL EQ JUMPDEST DUP1 PUSH2 0x6C5 JUMPI POP PUSH1 0x1 PUSH1 0x1 PUSH1 0xF8 SHL SUB NOT DUP3 AND PUSH1 0x29 PUSH1 0xF8 SHL EQ SWAP3 SWAP2 POP POP JUMP JUMPDEST PUSH0 DUP5 DUP5 DUP5 DUP5 PUSH1 0x40 MLOAD PUSH1 0x20 ADD PUSH2 0x2F96 SWAP5 SWAP4 SWAP3 SWAP2 SWAP1 PUSH2 0x432C JUMP JUMPDEST PUSH1 0x40 MLOAD PUSH1 0x20 DUP2 DUP4 SUB SUB DUP2 MSTORE SWAP1 PUSH1 0x40 MSTORE DUP1 MLOAD SWAP1 PUSH1 0x20 ADD KECCAK256 SWAP1 POP SWAP5 SWAP4 POP POP POP POP JUMP JUMPDEST PUSH0 PUSH2 0x2FE8 PUSH32 0xDFE169305A533E288E0557DA8D289146D3CC75FA6E04C87599B048A60A4E5602 SLOAD PUSH1 0x1 PUSH1 0x1 PUSH1 0x40 SHL SUB AND SWAP1 JUMP JUMPDEST PUSH1 0x1 PUSH1 0x1 PUSH1 0x40 SHL SUB AND DUP3 MLOAD LT ISZERO SWAP1 POP SWAP2 SWAP1 POP JUMP JUMPDEST PUSH0 DUP1 JUMPDEST DUP4 MLOAD DUP2 LT ISZERO PUSH2 0x303F JUMPI PUSH2 0x302A DUP5 DUP3 DUP2 MLOAD DUP2 LT PUSH2 0x301D JUMPI PUSH2 0x301D PUSH2 0x3E9E JUMP JUMPDEST PUSH1 0x20 MUL PUSH1 0x20 ADD ADD MLOAD PUSH2 0x81B JUMP JUMPDEST PUSH2 0x3037 JUMPI PUSH0 SWAP2 POP POP PUSH2 0x746 JUMP JUMPDEST PUSH1 0x1 ADD PUSH2 0x2FFF JUMP JUMPDEST POP PUSH2 0x709 DUP5 DUP5 DUP5 PUSH2 0x3170 JUMP JUMPDEST PUSH1 0x60 PUSH2 0x3058 DUP3 DUP6 MLOAD PUSH2 0x1F81 JUMP JUMPDEST SWAP2 POP PUSH2 0x3064 DUP4 DUP4 PUSH2 0x1F81 JUMP JUMPDEST SWAP3 POP PUSH0 PUSH2 0x3071 DUP5 DUP5 PUSH2 0x4078 JUMP JUMPDEST PUSH1 0x1 PUSH1 0x1 PUSH1 0x40 SHL SUB DUP2 GT ISZERO PUSH2 0x3088 JUMPI PUSH2 0x3088 PUSH2 0x36A0 JUMP JUMPDEST PUSH1 0x40 MLOAD SWAP1 DUP1 DUP3 MSTORE DUP1 PUSH1 0x1F ADD PUSH1 0x1F NOT AND PUSH1 0x20 ADD DUP3 ADD PUSH1 0x40 MSTORE DUP1 ISZERO PUSH2 0x30B2 JUMPI PUSH1 0x20 DUP3 ADD DUP2 DUP1 CALLDATASIZE DUP4 CALLDATACOPY ADD SWAP1 POP JUMPDEST POP SWAP1 POP DUP4 DUP4 SUB DUP5 PUSH1 0x20 DUP8 ADD ADD PUSH1 0x20 DUP4 ADD MCOPY SWAP5 SWAP4 POP POP POP POP JUMP JUMPDEST PUSH1 0x60 PUSH2 0x30D7 DUP5 PUSH0 PUSH2 0x1606 JUMP JUMPDEST ISZERO PUSH2 0x30EC JUMPI PUSH2 0x30E6 DUP4 DUP4 PUSH2 0x3252 JUMP JUMPDEST POP PUSH2 0x3168 JUMP JUMPDEST PUSH2 0x30FA DUP5 PUSH1 0x1 PUSH1 0xF8 SHL PUSH2 0x1606 JUMP JUMPDEST ISZERO PUSH2 0x3143 JUMPI DUP3 PUSH2 0x313E JUMPI PUSH32 0x2EEA2F51F83910481F4B5BA28B7003A6E045D4B59F67DFFF8D4C901194050089 DUP6 DUP4 PUSH1 0x40 MLOAD PUSH2 0x3135 SWAP3 SWAP2 SWAP1 PUSH2 0x43D7 JUMP JUMPDEST PUSH1 0x40 MLOAD DUP1 SWAP2 SUB SWAP1 LOG1 JUMPDEST PUSH2 0x3168 JUMP JUMPDEST PUSH1 0x40 MLOAD PUSH4 0x23A24085 PUSH1 0xE0 SHL DUP2 MSTORE PUSH1 0x1 PUSH1 0x1 PUSH1 0xF8 SHL SUB NOT DUP6 AND PUSH1 0x4 DUP3 ADD MSTORE PUSH1 0x24 ADD PUSH2 0xBE3 JUMP JUMPDEST POP SWAP4 SWAP3 POP POP POP JUMP JUMPDEST PUSH0 DUP2 MLOAD DUP4 MLOAD EQ PUSH2 0x3181 JUMPI POP PUSH0 PUSH2 0x746 JUMP JUMPDEST PUSH0 DUP1 JUMPDEST DUP5 MLOAD DUP2 LT ISZERO PUSH2 0x3246 JUMPI PUSH0 DUP6 DUP3 DUP2 MLOAD DUP2 LT PUSH2 0x31A0 JUMPI PUSH2 0x31A0 PUSH2 0x3E9E JUMP JUMPDEST PUSH1 0x20 MUL PUSH1 0x20 ADD ADD MLOAD SWAP1 POP PUSH2 0x31CE DUP2 DUP9 DUP8 DUP6 DUP2 MLOAD DUP2 LT PUSH2 0x31C1 JUMPI PUSH2 0x31C1 PUSH2 0x3E9E JUMP JUMPDEST PUSH1 0x20 MUL PUSH1 0x20 ADD ADD MLOAD PUSH2 0x328F JUMP JUMPDEST PUSH2 0x31DD JUMPI PUSH0 SWAP4 POP POP POP POP PUSH2 0x746 JUMP JUMPDEST DUP1 MLOAD PUSH1 0x20 DUP3 ADD KECCAK256 DUP1 DUP5 LT ISZERO PUSH2 0x31F4 JUMPI DUP1 SWAP4 POP PUSH2 0x323C JUMP JUMPDEST PUSH0 JUMPDEST DUP4 DUP2 LT ISZERO PUSH2 0x323A JUMPI DUP8 DUP2 DUP2 MLOAD DUP2 LT PUSH2 0x3210 JUMPI PUSH2 0x3210 PUSH2 0x3E9E JUMP JUMPDEST PUSH1 0x20 MUL PUSH1 0x20 ADD ADD MLOAD DUP1 MLOAD SWAP1 PUSH1 0x20 ADD KECCAK256 DUP3 SUB PUSH2 0x3232 JUMPI PUSH0 SWAP6 POP POP POP POP POP POP PUSH2 0x746 JUMP JUMPDEST PUSH1 0x1 ADD PUSH2 0x31F6 JUMP JUMPDEST POP JUMPDEST POP POP PUSH1 0x1 ADD PUSH2 0x3184 JUMP JUMPDEST POP PUSH1 0x1 SWAP6 SWAP5 POP POP POP POP POP JUMP JUMPDEST PUSH1 0x60 DUP3 ISZERO PUSH2 0x3261 JUMPI POP DUP1 PUSH2 0x6C5 JUMP JUMPDEST DUP2 MLOAD ISZERO PUSH2 0x3276 JUMPI PUSH2 0x3271 DUP3 PUSH2 0x33A7 JUMP JUMPDEST PUSH2 0x6C5 JUMP JUMPDEST PUSH1 0x40 MLOAD PUSH4 0xD6BDA275 PUSH1 0xE0 SHL DUP2 MSTORE PUSH1 0x4 ADD PUSH1 0x40 MLOAD DUP1 SWAP2 SUB SWAP1 REVERT JUMPDEST PUSH0 PUSH1 0x14 DUP5 MLOAD LT ISZERO PUSH2 0x32A1 JUMPI POP PUSH0 PUSH2 0x746 JUMP JUMPDEST DUP4 MLOAD PUSH1 0x14 SUB PUSH2 0x32C7 JUMPI PUSH2 0x32C0 PUSH2 0x32B6 DUP6 PUSH2 0x43EF JUMP JUMPDEST PUSH1 0x60 SHR DUP5 DUP5 PUSH2 0x33AF JUMP JUMPDEST SWAP1 POP PUSH2 0x746 JUMP JUMPDEST PUSH0 DUP1 PUSH2 0x32D2 DUP7 PUSH2 0x43EF JUMP JUMPDEST PUSH1 0x60 SHR PUSH2 0x32E0 DUP8 PUSH1 0x14 PUSH2 0x2BDE JUMP JUMPDEST DUP7 DUP7 PUSH1 0x40 MLOAD PUSH1 0x24 ADD PUSH2 0x32F4 SWAP4 SWAP3 SWAP2 SWAP1 PUSH2 0x4429 JUMP JUMPDEST PUSH1 0x40 DUP1 MLOAD PUSH1 0x1F NOT DUP2 DUP5 SUB ADD DUP2 MSTORE SWAP2 DUP2 MSTORE PUSH1 0x20 DUP3 ADD DUP1 MLOAD PUSH1 0x1 PUSH1 0x1 PUSH1 0xE0 SHL SUB AND PUSH3 0x495A63 PUSH1 0xE3 SHL OR SWAP1 MSTORE MLOAD PUSH2 0x3328 SWAP2 SWAP1 PUSH2 0x3E93 JUMP JUMPDEST PUSH0 PUSH1 0x40 MLOAD DUP1 DUP4 SUB DUP2 DUP6 GAS STATICCALL SWAP2 POP POP RETURNDATASIZE DUP1 PUSH0 DUP2 EQ PUSH2 0x3360 JUMPI PUSH1 0x40 MLOAD SWAP2 POP PUSH1 0x1F NOT PUSH1 0x3F RETURNDATASIZE ADD AND DUP3 ADD PUSH1 0x40 MSTORE RETURNDATASIZE DUP3 MSTORE RETURNDATASIZE PUSH0 PUSH1 0x20 DUP5 ADD RETURNDATACOPY PUSH2 0x3365 JUMP JUMPDEST PUSH1 0x60 SWAP2 POP JUMPDEST POP SWAP2 POP SWAP2 POP DUP2 DUP1 ISZERO PUSH2 0x3379 JUMPI POP PUSH1 0x20 DUP2 MLOAD LT ISZERO JUMPDEST DUP1 ISZERO PUSH2 0x22FD JUMPI POP DUP1 MLOAD PUSH3 0x495A63 PUSH1 0xE3 SHL SWAP1 PUSH2 0x339D SWAP1 DUP4 ADD PUSH1 0x20 SWAP1 DUP2 ADD SWAP1 DUP5 ADD PUSH2 0x3DCC JUMP JUMPDEST EQ SWAP3 POP POP POP PUSH2 0x746 JUMP JUMPDEST DUP1 MLOAD PUSH1 0x20 DUP3 ADD REVERT JUMPDEST PUSH0 DUP4 PUSH1 0x1 PUSH1 0x1 PUSH1 0xA0 SHL SUB AND EXTCODESIZE PUSH0 SUB PUSH2 0x340C JUMPI PUSH0 PUSH0 PUSH2 0x33CD DUP6 DUP6 PUSH2 0x3417 JUMP JUMPDEST POP SWAP1 SWAP3 POP SWAP1 POP PUSH0 DUP2 PUSH1 0x3 DUP2 GT ISZERO PUSH2 0x33E6 JUMPI PUSH2 0x33E6 PUSH2 0x4453 JUMP JUMPDEST EQ DUP1 ISZERO PUSH2 0x22FD JUMPI POP DUP6 PUSH1 0x1 PUSH1 0x1 PUSH1 0xA0 SHL SUB AND DUP3 PUSH1 0x1 PUSH1 0x1 PUSH1 0xA0 SHL SUB AND EQ SWAP3 POP POP POP PUSH2 0x746 JUMP JUMPDEST PUSH2 0x32C0 DUP5 DUP5 DUP5 PUSH2 0x345D JUMP JUMPDEST PUSH0 PUSH0 PUSH0 DUP4 MLOAD PUSH1 0x41 SUB PUSH2 0x344E JUMPI PUSH1 0x20 DUP5 ADD MLOAD PUSH1 0x40 DUP6 ADD MLOAD PUSH1 0x60 DUP7 ADD MLOAD PUSH0 BYTE PUSH2 0x3440 DUP9 DUP3 DUP6 DUP6 PUSH2 0x34AE JUMP JUMPDEST SWAP6 POP SWAP6 POP SWAP6 POP POP POP POP PUSH2 0x1962 JUMP JUMPDEST POP POP DUP2 MLOAD PUSH0 SWAP2 POP PUSH1 0x2 SWAP1 PUSH2 0x1962 JUMP JUMPDEST DUP1 MLOAD PUSH1 0x40 DUP1 MLOAD PUSH4 0xB135D3F PUSH1 0xE1 SHL DUP1 DUP3 MSTORE PUSH1 0x4 DUP3 ADD DUP7 SWAP1 MSTORE PUSH1 0x24 DUP3 ADD SWAP3 SWAP1 SWAP3 MSTORE PUSH0 SWAP3 SWAP1 PUSH1 0x20 DUP3 ADD DUP6 PUSH1 0x44 DUP4 ADD MCOPY PUSH1 0x20 PUSH0 PUSH1 0x64 DUP5 ADD DUP4 DUP11 GAS STATICCALL SWAP1 POP DUP3 PUSH0 MLOAD EQ PUSH1 0x1F RETURNDATASIZE GT AND DUP2 AND SWAP4 POP POP POP POP SWAP4 SWAP3 POP POP POP JUMP JUMPDEST PUSH0 DUP1 DUP1 PUSH32 0x7FFFFFFFFFFFFFFFFFFFFFFFFFFFFFFF5D576E7357A4501DDFE92F46681B20A0 DUP5 GT ISZERO PUSH2 0x34E7 JUMPI POP PUSH0 SWAP2 POP PUSH1 0x3 SWAP1 POP DUP3 PUSH2 0x356C JUMP JUMPDEST PUSH1 0x40 DUP1 MLOAD PUSH0 DUP1 DUP3 MSTORE PUSH1 0x20 DUP3 ADD DUP1 DUP5 MSTORE DUP11 SWAP1 MSTORE PUSH1 0xFF DUP10 AND SWAP3 DUP3 ADD SWAP3 SWAP1 SWAP3 MSTORE PUSH1 0x60 DUP2 ADD DUP8 SWAP1 MSTORE PUSH1 0x80 DUP2 ADD DUP7 SWAP1 MSTORE PUSH1 0x1 SWAP1 PUSH1 0xA0 ADD PUSH1 0x20 PUSH1 0x40 MLOAD PUSH1 0x20 DUP2 SUB SWAP1 DUP1 DUP5 SUB SWAP1 DUP6 GAS STATICCALL ISZERO DUP1 ISZERO PUSH2 0x3538 JUMPI RETURNDATASIZE PUSH0 PUSH0 RETURNDATACOPY RETURNDATASIZE PUSH0 REVERT JUMPDEST POP POP PUSH1 0x40 MLOAD PUSH1 0x1F NOT ADD MLOAD SWAP2 POP POP PUSH1 0x1 PUSH1 0x1 PUSH1 0xA0 SHL SUB DUP2 AND PUSH2 0x3563 JUMPI POP PUSH0 SWAP3 POP PUSH1 0x1 SWAP2 POP DUP3 SWAP1 POP PUSH2 0x356C JUMP JUMPDEST SWAP3 POP PUSH0 SWAP2 POP DUP2 SWAP1 POP JUMPDEST SWAP5 POP SWAP5 POP SWAP5 SWAP2 POP POP JUMP JUMPDEST POP DUP1 SLOAD PUSH2 0x3582 SWAP1 PUSH2 0x3EB2 JUMP JUMPDEST PUSH0 DUP3 SSTORE DUP1 PUSH1 0x1F LT PUSH2 0x3591 JUMPI POP POP JUMP JUMPDEST PUSH1 0x1F ADD PUSH1 0x20 SWAP1 DIV SWAP1 PUSH0 MSTORE PUSH1 0x20 PUSH0 KECCAK256 SWAP1 PUSH2 0x1498 SWAP2 SWAP1 PUSH0 JUMPDEST DUP1 DUP3 GT ISZERO PUSH2 0x1463 JUMPI PUSH0 DUP2 DUP5 ADD SSTORE PUSH1 0x1 ADD PUSH2 0x35A7 JUMP JUMPDEST PUSH1 0x1 PUSH1 0x1 PUSH1 0xE0 SHL SUB NOT DUP2 AND DUP2 EQ PUSH2 0x75E JUMPI PUSH0 PUSH0 REVERT JUMPDEST PUSH0 PUSH1 0x20 DUP3 DUP5 SUB SLT ISZERO PUSH2 0x35E1 JUMPI PUSH0 PUSH0 REVERT JUMPDEST DUP2 CALLDATALOAD PUSH2 0x746 DUP2 PUSH2 0x35BC JUMP JUMPDEST DUP1 CALLDATALOAD PUSH1 0x1 PUSH1 0x1 PUSH1 0xA0 SHL SUB DUP2 AND DUP2 EQ PUSH2 0x3602 JUMPI PUSH0 PUSH0 REVERT JUMPDEST SWAP2 SWAP1 POP JUMP JUMPDEST PUSH0 PUSH0 DUP4 PUSH1 0x1F DUP5 ADD SLT PUSH2 0x3617 JUMPI PUSH0 PUSH0 REVERT JUMPDEST POP DUP2 CALLDATALOAD PUSH1 0x1 PUSH1 0x1 PUSH1 0x40 SHL SUB DUP2 GT ISZERO PUSH2 0x362D JUMPI PUSH0 PUSH0 REVERT JUMPDEST PUSH1 0x20 DUP4 ADD SWAP2 POP DUP4 PUSH1 0x20 DUP3 DUP6 ADD ADD GT ISZERO PUSH2 0x3644 JUMPI PUSH0 PUSH0 REVERT JUMPDEST SWAP3 POP SWAP3 SWAP1 POP JUMP JUMPDEST PUSH0 PUSH0 PUSH0 PUSH0 PUSH1 0x60 DUP6 DUP8 SUB SLT ISZERO PUSH2 0x365E JUMPI PUSH0 PUSH0 REVERT JUMPDEST DUP5 CALLDATALOAD SWAP4 POP PUSH2 0x366E PUSH1 0x20 DUP7 ADD PUSH2 0x35EC JUMP JUMPDEST SWAP3 POP PUSH1 0x40 DUP6 ADD CALLDATALOAD PUSH1 0x1 PUSH1 0x1 PUSH1 0x40 SHL SUB DUP2 GT ISZERO PUSH2 0x3688 JUMPI PUSH0 PUSH0 REVERT JUMPDEST PUSH2 0x3694 DUP8 DUP3 DUP9 ADD PUSH2 0x3607 JUMP JUMPDEST SWAP6 SWAP9 SWAP5 SWAP8 POP SWAP6 POP POP POP POP JUMP JUMPDEST PUSH4 0x4E487B71 PUSH1 0xE0 SHL PUSH0 MSTORE PUSH1 0x41 PUSH1 0x4 MSTORE PUSH1 0x24 PUSH0 REVERT JUMPDEST PUSH1 0x40 MLOAD PUSH1 0x1F DUP3 ADD PUSH1 0x1F NOT AND DUP2 ADD PUSH1 0x1 PUSH1 0x1 PUSH1 0x40 SHL SUB DUP2 GT DUP3 DUP3 LT OR ISZERO PUSH2 0x36DC JUMPI PUSH2 0x36DC PUSH2 0x36A0 JUMP JUMPDEST PUSH1 0x40 MSTORE SWAP2 SWAP1 POP JUMP JUMPDEST PUSH0 PUSH1 0x1 PUSH1 0x1 PUSH1 0x40 SHL SUB DUP3 GT ISZERO PUSH2 0x36FC JUMPI PUSH2 0x36FC PUSH2 0x36A0 JUMP JUMPDEST POP PUSH1 0x1F ADD PUSH1 0x1F NOT AND PUSH1 0x20 ADD SWAP1 JUMP JUMPDEST PUSH0 DUP3 PUSH1 0x1F DUP4 ADD SLT PUSH2 0x3719 JUMPI PUSH0 PUSH0 REVERT JUMPDEST DUP2 CALLDATALOAD PUSH2 0x372C PUSH2 0x3727 DUP3 PUSH2 0x36E4 JUMP JUMPDEST PUSH2 0x36B4 JUMP JUMPDEST DUP2 DUP2 MSTORE DUP5 PUSH1 0x20 DUP4 DUP7 ADD ADD GT ISZERO PUSH2 0x3740 JUMPI PUSH0 PUSH0 REVERT JUMPDEST DUP2 PUSH1 0x20 DUP6 ADD PUSH1 0x20 DUP4 ADD CALLDATACOPY PUSH0 SWAP2 DUP2 ADD PUSH1 0x20 ADD SWAP2 SWAP1 SWAP2 MSTORE SWAP4 SWAP3 POP POP POP JUMP JUMPDEST PUSH0 PUSH0 PUSH0 PUSH0 PUSH1 0x80 DUP6 DUP8 SUB SLT ISZERO PUSH2 0x376F JUMPI PUSH0 PUSH0 REVERT JUMPDEST PUSH2 0x3778 DUP6 PUSH2 0x35EC JUMP JUMPDEST SWAP4 POP PUSH2 0x3786 PUSH1 0x20 DUP7 ADD PUSH2 0x35EC JUMP JUMPDEST SWAP3 POP PUSH1 0x40 DUP6 ADD CALLDATALOAD SWAP2 POP PUSH1 0x60 DUP6 ADD CALLDATALOAD PUSH1 0x1 PUSH1 0x1 PUSH1 0x40 SHL SUB DUP2 GT ISZERO PUSH2 0x37A7 JUMPI PUSH0 PUSH0 REVERT JUMPDEST PUSH2 0x37B3 DUP8 DUP3 DUP9 ADD PUSH2 0x370A JUMP JUMPDEST SWAP2 POP POP SWAP3 SWAP6 SWAP2 SWAP5 POP SWAP3 POP JUMP JUMPDEST PUSH0 PUSH0 PUSH0 PUSH1 0x40 DUP5 DUP7 SUB SLT ISZERO PUSH2 0x37D1 JUMPI PUSH0 PUSH0 REVERT JUMPDEST DUP4 CALLDATALOAD SWAP3 POP PUSH1 0x20 DUP5 ADD CALLDATALOAD PUSH1 0x1 PUSH1 0x1 PUSH1 0x40 SHL SUB DUP2 GT ISZERO PUSH2 0x37ED JUMPI PUSH0 PUSH0 REVERT JUMPDEST PUSH2 0x37F9 DUP7 DUP3 DUP8 ADD PUSH2 0x3607 JUMP JUMPDEST SWAP5 SWAP8 SWAP1 SWAP7 POP SWAP4 SWAP5 POP POP POP POP JUMP JUMPDEST DUP1 CALLDATALOAD PUSH1 0x1 PUSH1 0x1 PUSH1 0x40 SHL SUB DUP2 AND DUP2 EQ PUSH2 0x3602 JUMPI PUSH0 PUSH0 REVERT JUMPDEST PUSH0 PUSH1 0x20 DUP3 DUP5 SUB SLT ISZERO PUSH2 0x382C JUMPI PUSH0 PUSH0 REVERT JUMPDEST PUSH2 0x746 DUP3 PUSH2 0x3806 JUMP JUMPDEST PUSH0 PUSH0 PUSH0 PUSH1 0x60 DUP5 DUP7 SUB SLT ISZERO PUSH2 0x3847 JUMPI PUSH0 PUSH0 REVERT JUMPDEST DUP4 CALLDATALOAD PUSH1 0x1 PUSH1 0x1 PUSH1 0x40 SHL SUB DUP2 GT ISZERO PUSH2 0x385C JUMPI PUSH0 PUSH0 REVERT JUMPDEST DUP5 ADD PUSH2 0x120 DUP2 DUP8 SUB SLT ISZERO PUSH2 0x386E JUMPI PUSH0 PUSH0 REVERT JUMPDEST SWAP6 PUSH1 0x20 DUP6 ADD CALLDATALOAD SWAP6 POP PUSH1 0x40 SWAP1 SWAP5 ADD CALLDATALOAD SWAP4 SWAP3 POP POP POP JUMP JUMPDEST PUSH0 PUSH1 0x20 DUP3 DUP5 SUB SLT ISZERO PUSH2 0x3893 JUMPI PUSH0 PUSH0 REVERT JUMPDEST DUP2 CALLDATALOAD PUSH1 0x1 PUSH1 0x1 PUSH1 0xC0 SHL SUB DUP2 AND DUP2 EQ PUSH2 0x746 JUMPI PUSH0 PUSH0 REVERT JUMPDEST PUSH0 PUSH1 0x20 DUP3 DUP5 SUB SLT ISZERO PUSH2 0x38B9 JUMPI PUSH0 PUSH0 REVERT JUMPDEST DUP2 CALLDATALOAD PUSH1 0x1 PUSH1 0x1 PUSH1 0x40 SHL SUB DUP2 GT ISZERO PUSH2 0x38CE JUMPI PUSH0 PUSH0 REVERT JUMPDEST PUSH2 0x709 DUP5 DUP3 DUP6 ADD PUSH2 0x370A JUMP JUMPDEST PUSH0 PUSH1 0x1 PUSH1 0x1 PUSH1 0x40 SHL SUB DUP3 GT ISZERO PUSH2 0x38F2 JUMPI PUSH2 0x38F2 PUSH2 0x36A0 JUMP JUMPDEST POP PUSH1 0x5 SHL PUSH1 0x20 ADD SWAP1 JUMP JUMPDEST PUSH0 DUP3 PUSH1 0x1F DUP4 ADD SLT PUSH2 0x390B JUMPI PUSH0 PUSH0 REVERT JUMPDEST DUP2 CALLDATALOAD PUSH2 0x3919 PUSH2 0x3727 DUP3 PUSH2 0x38DA JUMP JUMPDEST DUP1 DUP3 DUP3 MSTORE PUSH1 0x20 DUP3 ADD SWAP2 POP PUSH1 0x20 DUP4 PUSH1 0x5 SHL DUP7 ADD ADD SWAP3 POP DUP6 DUP4 GT ISZERO PUSH2 0x393A JUMPI PUSH0 PUSH0 REVERT JUMPDEST PUSH1 0x20 DUP6 ADD JUMPDEST DUP4 DUP2 LT ISZERO PUSH2 0x138B JUMPI DUP1 CALLDATALOAD PUSH1 0x1 PUSH1 0x1 PUSH1 0x40 SHL SUB DUP2 GT ISZERO PUSH2 0x395C JUMPI PUSH0 PUSH0 REVERT JUMPDEST PUSH2 0x396B DUP9 PUSH1 0x20 DUP4 DUP11 ADD ADD PUSH2 0x370A JUMP JUMPDEST DUP5 MSTORE POP PUSH1 0x20 SWAP3 DUP4 ADD SWAP3 ADD PUSH2 0x393F JUMP JUMPDEST PUSH0 PUSH1 0x20 DUP3 DUP5 SUB SLT ISZERO PUSH2 0x398A JUMPI PUSH0 PUSH0 REVERT JUMPDEST DUP2 CALLDATALOAD PUSH1 0x1 PUSH1 0x1 PUSH1 0x40 SHL SUB DUP2 GT ISZERO PUSH2 0x399F JUMPI PUSH0 PUSH0 REVERT JUMPDEST PUSH2 0x709 DUP5 DUP3 DUP6 ADD PUSH2 0x38FC JUMP JUMPDEST PUSH0 DUP2 MLOAD DUP1 DUP5 MSTORE DUP1 PUSH1 0x20 DUP5 ADD PUSH1 0x20 DUP7 ADD MCOPY PUSH0 PUSH1 0x20 DUP3 DUP7 ADD ADD MSTORE PUSH1 0x20 PUSH1 0x1F NOT PUSH1 0x1F DUP4 ADD AND DUP6 ADD ADD SWAP2 POP POP SWAP3 SWAP2 POP POP JUMP JUMPDEST PUSH1 0xFF PUSH1 0xF8 SHL DUP9 AND DUP2 MSTORE PUSH1 0xE0 PUSH1 0x20 DUP3 ADD MSTORE PUSH0 PUSH2 0x39F7 PUSH1 0xE0 DUP4 ADD DUP10 PUSH2 0x39AB JUMP JUMPDEST DUP3 DUP2 SUB PUSH1 0x40 DUP5 ADD MSTORE PUSH2 0x3A09 DUP2 DUP10 PUSH2 0x39AB JUMP JUMPDEST PUSH1 0x60 DUP5 ADD DUP9 SWAP1 MSTORE PUSH1 0x1 PUSH1 0x1 PUSH1 0xA0 SHL SUB DUP8 AND PUSH1 0x80 DUP6 ADD MSTORE PUSH1 0xA0 DUP5 ADD DUP7 SWAP1 MSTORE DUP4 DUP2 SUB PUSH1 0xC0 DUP6 ADD MSTORE DUP5 MLOAD DUP1 DUP3 MSTORE PUSH1 0x20 DUP1 DUP8 ADD SWAP4 POP SWAP1 SWAP2 ADD SWAP1 PUSH0 JUMPDEST DUP2 DUP2 LT ISZERO PUSH2 0x3A5E JUMPI DUP4 MLOAD DUP4 MSTORE PUSH1 0x20 SWAP4 DUP5 ADD SWAP4 SWAP1 SWAP3 ADD SWAP2 PUSH1 0x1 ADD PUSH2 0x3A40 JUMP JUMPDEST POP SWAP1 SWAP12 SWAP11 POP POP POP POP POP POP POP POP POP POP POP JUMP JUMPDEST PUSH0 PUSH0 PUSH1 0x40 DUP4 DUP6 SUB SLT ISZERO PUSH2 0x3A80 JUMPI PUSH0 PUSH0 REVERT JUMPDEST PUSH2 0x3A89 DUP4 PUSH2 0x3806 JUMP JUMPDEST SWAP2 POP PUSH2 0x3A97 PUSH1 0x20 DUP5 ADD PUSH2 0x3806 JUMP JUMPDEST SWAP1 POP SWAP3 POP SWAP3 SWAP1 POP JUMP JUMPDEST PUSH0 PUSH1 0x20 DUP3 ADD PUSH1 0x20 DUP4 MSTORE DUP1 DUP5 MLOAD DUP1 DUP4 MSTORE PUSH1 0x40 DUP6 ADD SWAP2 POP PUSH1 0x40 DUP2 PUSH1 0x5 SHL DUP7 ADD ADD SWAP3 POP PUSH1 0x20 DUP7 ADD PUSH0 JUMPDEST DUP3 DUP2 LT ISZERO PUSH2 0x3AF7 JUMPI PUSH1 0x3F NOT DUP8 DUP7 SUB ADD DUP5 MSTORE PUSH2 0x3AE2 DUP6 DUP4 MLOAD PUSH2 0x39AB JUMP JUMPDEST SWAP5 POP PUSH1 0x20 SWAP4 DUP5 ADD SWAP4 SWAP2 SWAP1 SWAP2 ADD SWAP1 PUSH1 0x1 ADD PUSH2 0x3AC6 JUMP JUMPDEST POP SWAP3 SWAP7 SWAP6 POP POP POP POP POP POP JUMP JUMPDEST PUSH1 0x20 DUP2 MSTORE PUSH0 PUSH2 0x746 PUSH1 0x20 DUP4 ADD DUP5 PUSH2 0x39AB JUMP JUMPDEST PUSH0 PUSH0 PUSH1 0x40 DUP4 DUP6 SUB SLT ISZERO PUSH2 0x3B26 JUMPI PUSH0 PUSH0 REVERT JUMPDEST DUP3 CALLDATALOAD PUSH1 0x1 PUSH1 0x1 PUSH1 0x40 SHL SUB DUP2 GT ISZERO PUSH2 0x3B3B JUMPI PUSH0 PUSH0 REVERT JUMPDEST PUSH2 0x3B47 DUP6 DUP3 DUP7 ADD PUSH2 0x38FC JUMP JUMPDEST SWAP3 POP POP PUSH2 0x3A97 PUSH1 0x20 DUP5 ADD PUSH2 0x3806 JUMP JUMPDEST PUSH0 DUP3 PUSH1 0x1F DUP4 ADD SLT PUSH2 0x3B65 JUMPI PUSH0 PUSH0 REVERT JUMPDEST DUP2 CALLDATALOAD PUSH2 0x3B73 PUSH2 0x3727 DUP3 PUSH2 0x38DA JUMP JUMPDEST DUP1 DUP3 DUP3 MSTORE PUSH1 0x20 DUP3 ADD SWAP2 POP PUSH1 0x20 DUP4 PUSH1 0x5 SHL DUP7 ADD ADD SWAP3 POP DUP6 DUP4 GT ISZERO PUSH2 0x3B94 JUMPI PUSH0 PUSH0 REVERT JUMPDEST PUSH1 0x20 DUP6 ADD JUMPDEST DUP4 DUP2 LT ISZERO PUSH2 0x138B JUMPI DUP1 CALLDATALOAD DUP4 MSTORE PUSH1 0x20 SWAP3 DUP4 ADD SWAP3 ADD PUSH2 0x3B99 JUMP JUMPDEST PUSH0 PUSH0 PUSH0 PUSH0 PUSH0 PUSH1 0xA0 DUP7 DUP9 SUB SLT ISZERO PUSH2 0x3BC5 JUMPI PUSH0 PUSH0 REVERT JUMPDEST PUSH2 0x3BCE DUP7 PUSH2 0x35EC JUMP JUMPDEST SWAP5 POP PUSH2 0x3BDC PUSH1 0x20 DUP8 ADD PUSH2 0x35EC JUMP JUMPDEST SWAP4 POP PUSH1 0x40 DUP7 ADD CALLDATALOAD PUSH1 0x1 PUSH1 0x1 PUSH1 0x40 SHL SUB DUP2 GT ISZERO PUSH2 0x3BF6 JUMPI PUSH0 PUSH0 REVERT JUMPDEST PUSH2 0x3C02 DUP9 DUP3 DUP10 ADD PUSH2 0x3B56 JUMP JUMPDEST SWAP4 POP POP PUSH1 0x60 DUP7 ADD CALLDATALOAD PUSH1 0x1 PUSH1 0x1 PUSH1 0x40 SHL SUB DUP2 GT ISZERO PUSH2 0x3C1D JUMPI PUSH0 PUSH0 REVERT JUMPDEST PUSH2 0x3C29 DUP9 DUP3 DUP10 ADD PUSH2 0x3B56 JUMP JUMPDEST SWAP3 POP POP PUSH1 0x80 DUP7 ADD CALLDATALOAD PUSH1 0x1 PUSH1 0x1 PUSH1 0x40 SHL SUB DUP2 GT ISZERO PUSH2 0x3C44 JUMPI PUSH0 PUSH0 REVERT JUMPDEST PUSH2 0x3C50 DUP9 DUP3 DUP10 ADD PUSH2 0x370A JUMP JUMPDEST SWAP2 POP POP SWAP3 SWAP6 POP SWAP3 SWAP6 SWAP1 SWAP4 POP JUMP JUMPDEST PUSH0 PUSH1 0x20 DUP3 DUP5 SUB SLT ISZERO PUSH2 0x3C6D JUMPI PUSH0 PUSH0 REVERT JUMPDEST POP CALLDATALOAD SWAP2 SWAP1 POP JUMP JUMPDEST PUSH0 PUSH0 PUSH0 PUSH0 PUSH0 PUSH1 0xA0 DUP7 DUP9 SUB SLT ISZERO PUSH2 0x3C88 JUMPI PUSH0 PUSH0 REVERT JUMPDEST PUSH2 0x3C91 DUP7 PUSH2 0x35EC JUMP JUMPDEST SWAP5 POP PUSH2 0x3C9F PUSH1 0x20 DUP8 ADD PUSH2 0x35EC JUMP JUMPDEST SWAP4 POP PUSH1 0x40 DUP7 ADD CALLDATALOAD SWAP3 POP PUSH1 0x60 DUP7 ADD CALLDATALOAD SWAP2 POP PUSH1 0x80 DUP7 ADD CALLDATALOAD PUSH1 0x1 PUSH1 0x1 PUSH1 0x40 SHL SUB DUP2 GT ISZERO PUSH2 0x3C44 JUMPI PUSH0 PUSH0 REVERT JUMPDEST DUP2 DUP4 MSTORE DUP2 DUP2 PUSH1 0x20 DUP6 ADD CALLDATACOPY POP PUSH0 DUP3 DUP3 ADD PUSH1 0x20 SWAP1 DUP2 ADD SWAP2 SWAP1 SWAP2 MSTORE PUSH1 0x1F SWAP1 SWAP2 ADD PUSH1 0x1F NOT AND SWAP1 SWAP2 ADD ADD SWAP1 JUMP JUMPDEST PUSH1 0x1 DUP1 PUSH1 0xA0 SHL SUB DUP6 AND DUP2 MSTORE DUP4 PUSH1 0x20 DUP3 ADD MSTORE PUSH1 0x60 PUSH1 0x40 DUP3 ADD MSTORE PUSH0 PUSH2 0x1A89 PUSH1 0x60 DUP4 ADD DUP5 DUP7 PUSH2 0x3CC7 JUMP JUMPDEST PUSH0 PUSH1 0x20 DUP3 DUP5 SUB SLT ISZERO PUSH2 0x3D26 JUMPI PUSH0 PUSH0 REVERT JUMPDEST DUP2 MLOAD PUSH1 0x1 PUSH1 0x1 PUSH1 0x40 SHL SUB DUP2 GT ISZERO PUSH2 0x3D3B JUMPI PUSH0 PUSH0 REVERT JUMPDEST DUP3 ADD PUSH1 0x1F DUP2 ADD DUP5 SGT PUSH2 0x3D4B JUMPI PUSH0 PUSH0 REVERT JUMPDEST DUP1 MLOAD PUSH2 0x3D59 PUSH2 0x3727 DUP3 PUSH2 0x36E4 JUMP JUMPDEST DUP2 DUP2 MSTORE DUP6 PUSH1 0x20 DUP4 DUP6 ADD ADD GT ISZERO PUSH2 0x3D6D JUMPI PUSH0 PUSH0 REVERT JUMPDEST DUP2 PUSH1 0x20 DUP5 ADD PUSH1 0x20 DUP4 ADD MCOPY PUSH0 SWAP2 DUP2 ADD PUSH1 0x20 ADD SWAP2 SWAP1 SWAP2 MSTORE SWAP5 SWAP4 POP POP POP POP JUMP JUMPDEST PUSH0 PUSH0 DUP4 CALLDATALOAD PUSH1 0x1E NOT DUP5 CALLDATASIZE SUB ADD DUP2 SLT PUSH2 0x3D9F JUMPI PUSH0 PUSH0 REVERT JUMPDEST DUP4 ADD DUP1 CALLDATALOAD SWAP2 POP PUSH1 0x1 PUSH1 0x1 PUSH1 0x40 SHL SUB DUP3 GT ISZERO PUSH2 0x3DB8 JUMPI PUSH0 PUSH0 REVERT JUMPDEST PUSH1 0x20 ADD SWAP2 POP CALLDATASIZE DUP2 SWAP1 SUB DUP3 SGT ISZERO PUSH2 0x3644 JUMPI PUSH0 PUSH0 REVERT JUMPDEST PUSH0 PUSH1 0x20 DUP3 DUP5 SUB SLT ISZERO PUSH2 0x3DDC JUMPI PUSH0 PUSH0 REVERT JUMPDEST POP MLOAD SWAP2 SWAP1 POP JUMP JUMPDEST DUP3 DUP5 DUP3 CALLDATACOPY PUSH1 0x60 SWAP2 SWAP1 SWAP2 SHL PUSH1 0x1 PUSH1 0x1 PUSH1 0x60 SHL SUB NOT AND SWAP2 ADD SWAP1 DUP2 MSTORE PUSH1 0x14 ADD SWAP2 SWAP1 POP JUMP JUMPDEST PUSH0 PUSH0 DUP6 DUP6 GT ISZERO PUSH2 0x3E12 JUMPI PUSH0 PUSH0 REVERT JUMPDEST DUP4 DUP7 GT ISZERO PUSH2 0x3E1E JUMPI PUSH0 PUSH0 REVERT JUMPDEST POP POP DUP3 ADD SWAP4 SWAP2 SWAP1 SWAP3 SUB SWAP2 POP JUMP JUMPDEST DUP1 CALLDATALOAD PUSH1 0x1 PUSH1 0x1 PUSH1 0xE0 SHL SUB NOT DUP2 AND SWAP1 PUSH1 0x4 DUP5 LT ISZERO PUSH2 0x1C40 JUMPI PUSH1 0x1 PUSH1 0x1 PUSH1 0xE0 SHL SUB NOT PUSH1 0x4 SWAP5 SWAP1 SWAP5 SUB PUSH1 0x3 SHL DUP5 SWAP1 SHL AND SWAP1 SWAP3 AND SWAP3 SWAP2 POP POP JUMP JUMPDEST PUSH0 PUSH1 0x20 DUP3 DUP5 SUB SLT ISZERO PUSH2 0x3E71 JUMPI PUSH0 PUSH0 REVERT JUMPDEST DUP2 MLOAD PUSH2 0x746 DUP2 PUSH2 0x35BC JUMP JUMPDEST PUSH0 DUP2 MLOAD DUP1 PUSH1 0x20 DUP5 ADD DUP6 MCOPY PUSH0 SWAP4 ADD SWAP3 DUP4 MSTORE POP SWAP1 SWAP2 SWAP1 POP JUMP JUMPDEST PUSH0 PUSH2 0x746 DUP3 DUP5 PUSH2 0x3E7C JUMP JUMPDEST PUSH4 0x4E487B71 PUSH1 0xE0 SHL PUSH0 MSTORE PUSH1 0x32 PUSH1 0x4 MSTORE PUSH1 0x24 PUSH0 REVERT JUMPDEST PUSH1 0x1 DUP2 DUP2 SHR SWAP1 DUP3 AND DUP1 PUSH2 0x3EC6 JUMPI PUSH1 0x7F DUP3 AND SWAP2 POP JUMPDEST PUSH1 0x20 DUP3 LT DUP2 SUB PUSH2 0x3EE4 JUMPI PUSH4 0x4E487B71 PUSH1 0xE0 SHL PUSH0 MSTORE PUSH1 0x22 PUSH1 0x4 MSTORE PUSH1 0x24 PUSH0 REVERT JUMPDEST POP SWAP2 SWAP1 POP JUMP JUMPDEST DUP1 CALLDATALOAD PUSH1 0x1 PUSH1 0x1 PUSH1 0x60 SHL SUB NOT DUP2 AND SWAP1 PUSH1 0x14 DUP5 LT ISZERO PUSH2 0x1C40 JUMPI PUSH1 0x1 PUSH1 0x1 PUSH1 0x60 SHL SUB NOT PUSH1 0x14 SWAP5 SWAP1 SWAP5 SUB PUSH1 0x3 SHL DUP5 SWAP1 SHL AND SWAP1 SWAP3 AND SWAP3 SWAP2 POP POP JUMP JUMPDEST PUSH0 PUSH0 DUP4 CALLDATALOAD PUSH1 0x1E NOT DUP5 CALLDATASIZE SUB ADD DUP2 SLT PUSH2 0x3F35 JUMPI PUSH0 PUSH0 REVERT JUMPDEST DUP4 ADD PUSH1 0x20 DUP2 ADD SWAP3 POP CALLDATALOAD SWAP1 POP PUSH1 0x1 PUSH1 0x1 PUSH1 0x40 SHL SUB DUP2 GT ISZERO PUSH2 0x3F53 JUMPI PUSH0 PUSH0 REVERT JUMPDEST DUP1 CALLDATASIZE SUB DUP3 SGT ISZERO PUSH2 0x3644 JUMPI PUSH0 PUSH0 REVERT JUMPDEST PUSH1 0x40 DUP2 MSTORE PUSH2 0x3F82 PUSH1 0x40 DUP3 ADD PUSH2 0x3F75 DUP6 PUSH2 0x35EC JUMP JUMPDEST PUSH1 0x1 PUSH1 0x1 PUSH1 0xA0 SHL SUB AND SWAP1 MSTORE JUMP JUMPDEST PUSH1 0x20 DUP4 ADD CALLDATALOAD PUSH1 0x60 DUP3 ADD MSTORE PUSH0 PUSH2 0x3F9A PUSH1 0x40 DUP6 ADD DUP6 PUSH2 0x3F20 JUMP JUMPDEST PUSH2 0x120 PUSH1 0x80 DUP6 ADD MSTORE PUSH2 0x3FB1 PUSH2 0x160 DUP6 ADD DUP3 DUP5 PUSH2 0x3CC7 JUMP JUMPDEST SWAP2 POP POP PUSH2 0x3FC1 PUSH1 0x60 DUP7 ADD DUP7 PUSH2 0x3F20 JUMP JUMPDEST DUP5 DUP4 SUB PUSH1 0x3F NOT ADD PUSH1 0xA0 DUP7 ADD MSTORE PUSH2 0x3FD8 DUP4 DUP3 DUP5 PUSH2 0x3CC7 JUMP JUMPDEST PUSH1 0x80 DUP9 ADD CALLDATALOAD PUSH1 0xC0 DUP8 DUP2 ADD SWAP2 SWAP1 SWAP2 MSTORE PUSH1 0xA0 DUP10 ADD CALLDATALOAD PUSH1 0xE0 DUP1 DUP10 ADD SWAP2 SWAP1 SWAP2 MSTORE SWAP1 DUP10 ADD CALLDATALOAD PUSH2 0x100 DUP9 ADD MSTORE SWAP1 SWAP4 POP PUSH2 0x4010 SWAP3 POP DUP8 ADD SWAP1 POP DUP7 PUSH2 0x3F20 JUMP JUMPDEST DUP5 DUP4 SUB PUSH1 0x3F NOT ADD PUSH2 0x120 DUP7 ADD MSTORE PUSH2 0x4028 DUP4 DUP3 DUP5 PUSH2 0x3CC7 JUMP JUMPDEST SWAP3 POP POP POP PUSH2 0x403A PUSH2 0x100 DUP7 ADD DUP7 PUSH2 0x3F20 JUMP JUMPDEST DUP5 DUP4 SUB PUSH1 0x3F NOT ADD PUSH2 0x140 DUP7 ADD MSTORE PUSH2 0x4052 DUP4 DUP3 DUP5 PUSH2 0x3CC7 JUMP JUMPDEST SWAP4 POP POP POP POP DUP3 PUSH1 0x20 DUP4 ADD MSTORE SWAP4 SWAP3 POP POP POP JUMP JUMPDEST PUSH4 0x4E487B71 PUSH1 0xE0 SHL PUSH0 MSTORE PUSH1 0x11 PUSH1 0x4 MSTORE PUSH1 0x24 PUSH0 REVERT JUMPDEST DUP2 DUP2 SUB DUP2 DUP2 GT ISZERO PUSH2 0x6C5 JUMPI PUSH2 0x6C5 PUSH2 0x4064 JUMP JUMPDEST PUSH1 0x1F DUP3 GT ISZERO PUSH2 0x1463 JUMPI DUP3 DUP3 GT ISZERO PUSH2 0x1463 JUMPI DUP1 PUSH0 MSTORE PUSH1 0x20 PUSH0 KECCAK256 PUSH1 0x1F DUP5 ADD PUSH1 0x5 SHR PUSH1 0x20 DUP6 LT ISZERO PUSH2 0x40B6 JUMPI POP PUSH0 JUMPDEST SWAP1 DUP2 ADD SWAP1 PUSH1 0x1F DUP5 ADD PUSH1 0x5 SHR SUB PUSH0 JUMPDEST DUP2 DUP2 LT ISZERO PUSH2 0x1657 JUMPI PUSH0 DUP4 DUP3 ADD SSTORE PUSH1 0x1 ADD PUSH2 0x40C4 JUMP JUMPDEST DUP2 MLOAD PUSH1 0x1 PUSH1 0x1 PUSH1 0x40 SHL SUB DUP2 GT ISZERO PUSH2 0x40F2 JUMPI PUSH2 0x40F2 PUSH2 0x36A0 JUMP JUMPDEST PUSH2 0x4106 DUP2 PUSH2 0x4100 DUP5 SLOAD PUSH2 0x3EB2 JUMP JUMPDEST DUP5 PUSH2 0x408B JUMP JUMPDEST PUSH1 0x20 PUSH1 0x1F DUP3 GT PUSH1 0x1 DUP2 EQ PUSH2 0x4138 JUMPI PUSH0 DUP4 ISZERO PUSH2 0x4121 JUMPI POP DUP5 DUP3 ADD MLOAD JUMPDEST PUSH0 NOT PUSH1 0x3 DUP6 SWAP1 SHL SHR NOT AND PUSH1 0x1 DUP5 SWAP1 SHL OR DUP5 SSTORE PUSH2 0x124F JUMP JUMPDEST PUSH0 DUP5 DUP2 MSTORE PUSH1 0x20 DUP2 KECCAK256 PUSH1 0x1F NOT DUP6 AND SWAP2 JUMPDEST DUP3 DUP2 LT ISZERO PUSH2 0x4167 JUMPI DUP8 DUP6 ADD MLOAD DUP3 SSTORE PUSH1 0x20 SWAP5 DUP6 ADD SWAP5 PUSH1 0x1 SWAP1 SWAP3 ADD SWAP2 ADD PUSH2 0x4147 JUMP JUMPDEST POP DUP5 DUP3 LT ISZERO PUSH2 0x4184 JUMPI DUP7 DUP5 ADD MLOAD PUSH0 NOT PUSH1 0x3 DUP8 SWAP1 SHL PUSH1 0xF8 AND SHR NOT AND DUP2 SSTORE JUMPDEST POP POP POP POP PUSH1 0x1 SWAP1 DUP2 SHL ADD SWAP1 SSTORE POP JUMP JUMPDEST PUSH4 0x4E487B71 PUSH1 0xE0 SHL PUSH0 MSTORE PUSH1 0x31 PUSH1 0x4 MSTORE PUSH1 0x24 PUSH0 REVERT JUMPDEST PUSH0 PUSH1 0x20 DUP3 DUP5 SUB SLT ISZERO PUSH2 0x41B7 JUMPI PUSH0 PUSH0 REVERT JUMPDEST DUP2 MLOAD DUP1 ISZERO ISZERO DUP2 EQ PUSH2 0x746 JUMPI PUSH0 PUSH0 REVERT JUMPDEST DUP1 CALLDATALOAD PUSH1 0x1 PUSH1 0x1 PUSH1 0xF0 SHL SUB NOT DUP2 AND SWAP1 PUSH1 0x2 DUP5 LT ISZERO PUSH2 0x1C40 JUMPI PUSH1 0x1 PUSH1 0x1 PUSH1 0xF0 SHL SUB NOT PUSH1 0x2 SWAP5 SWAP1 SWAP5 SUB PUSH1 0x3 SHL DUP5 SWAP1 SHL AND SWAP1 SWAP3 AND SWAP3 SWAP2 POP POP JUMP JUMPDEST DUP1 CALLDATALOAD PUSH1 0x20 DUP4 LT ISZERO PUSH2 0x6C5 JUMPI PUSH0 NOT PUSH1 0x20 DUP5 SWAP1 SUB PUSH1 0x3 SHL SHL AND SWAP3 SWAP2 POP POP JUMP JUMPDEST DUP1 MLOAD PUSH1 0x20 DUP3 ADD MLOAD PUSH1 0x1 PUSH1 0x1 PUSH1 0xE0 SHL SUB NOT DUP2 AND SWAP2 SWAP1 PUSH1 0x4 DUP3 LT ISZERO PUSH2 0x4250 JUMPI PUSH1 0x1 PUSH1 0x1 PUSH1 0xE0 SHL SUB NOT PUSH1 0x4 DUP4 SWAP1 SUB PUSH1 0x3 SHL DUP2 SWAP1 SHL DUP3 AND AND SWAP3 POP JUMPDEST POP POP SWAP2 SWAP1 POP JUMP JUMPDEST PUSH0 DUP3 CALLDATALOAD PUSH1 0x5E NOT DUP4 CALLDATASIZE SUB ADD DUP2 SLT PUSH2 0x426B JUMPI PUSH0 PUSH0 REVERT JUMPDEST SWAP2 SWAP1 SWAP2 ADD SWAP3 SWAP2 POP POP JUMP JUMPDEST PUSH0 PUSH1 0x20 DUP3 DUP5 SUB SLT ISZERO PUSH2 0x4285 JUMPI PUSH0 PUSH0 REVERT JUMPDEST PUSH2 0x746 DUP3 PUSH2 0x35EC JUMP JUMPDEST PUSH0 DUP2 PUSH2 0x429C JUMPI PUSH2 0x429C PUSH2 0x4064 JUMP JUMPDEST POP PUSH0 NOT ADD SWAP1 JUMP JUMPDEST DUP4 DUP2 MSTORE DUP3 PUSH1 0x20 DUP3 ADD MSTORE PUSH0 PUSH2 0x706 PUSH1 0x40 DUP4 ADD DUP5 PUSH2 0x3E7C JUMP JUMPDEST PUSH0 PUSH0 PUSH1 0x40 DUP4 DUP6 SUB SLT ISZERO PUSH2 0x42CB JUMPI PUSH0 PUSH0 REVERT JUMPDEST DUP3 CALLDATALOAD PUSH1 0x1 PUSH1 0x1 PUSH1 0x40 SHL SUB DUP2 GT ISZERO PUSH2 0x42E0 JUMPI PUSH0 PUSH0 REVERT JUMPDEST PUSH2 0x42EC DUP6 DUP3 DUP7 ADD PUSH2 0x38FC JUMP JUMPDEST SWAP3 POP POP PUSH1 0x20 DUP4 ADD CALLDATALOAD PUSH1 0x1 PUSH1 0x1 PUSH1 0x40 SHL SUB DUP2 GT ISZERO PUSH2 0x4307 JUMPI PUSH0 PUSH0 REVERT JUMPDEST PUSH2 0x4313 DUP6 DUP3 DUP7 ADD PUSH2 0x38FC JUMP JUMPDEST SWAP2 POP POP SWAP3 POP SWAP3 SWAP1 POP JUMP JUMPDEST DUP2 DUP4 DUP3 CALLDATACOPY PUSH0 SWAP2 ADD SWAP1 DUP2 MSTORE SWAP2 SWAP1 POP JUMP JUMPDEST PUSH14 0xA8F2E0CAC888C2E8C2A6D2CEDC5 PUSH1 0x93 SHL DUP2 MSTORE DUP4 DUP6 PUSH1 0xE DUP4 ADD CALLDATACOPY PUSH0 DUP5 DUP3 ADD PUSH32 0x20636F6E74656E74732C737472696E67206E616D652C737472696E6720766572 PUSH1 0xE DUP3 ADD MSTORE PUSH32 0x73696F6E2C75696E7432353620636861696E49642C6164647265737320766572 PUSH1 0x2E DUP3 ADD MSTORE PUSH32 0x696679696E67436F6E74726163742C627974657333322073616C742900000000 PUSH1 0x4E DUP3 ADD MSTORE DUP4 DUP6 PUSH1 0x6A DUP4 ADD CALLDATACOPY PUSH0 SWAP4 ADD PUSH1 0x6A ADD SWAP3 DUP4 MSTORE POP SWAP1 SWAP5 SWAP4 POP POP POP POP JUMP JUMPDEST DUP3 DUP2 MSTORE PUSH1 0x40 PUSH1 0x20 DUP3 ADD MSTORE PUSH0 PUSH2 0x709 PUSH1 0x40 DUP4 ADD DUP5 PUSH2 0x39AB JUMP JUMPDEST DUP1 MLOAD PUSH1 0x20 DUP3 ADD MLOAD PUSH1 0x1 PUSH1 0x1 PUSH1 0x60 SHL SUB NOT DUP2 AND SWAP2 SWAP1 PUSH1 0x14 DUP3 LT ISZERO PUSH2 0x4250 JUMPI PUSH1 0x1 PUSH1 0x1 PUSH1 0x60 SHL SUB NOT PUSH1 0x14 SWAP3 SWAP1 SWAP3 SUB PUSH1 0x3 SHL DUP3 SWAP1 SHL AND AND SWAP3 SWAP2 POP POP JUMP JUMPDEST PUSH1 0x60 DUP2 MSTORE PUSH0 PUSH2 0x443B PUSH1 0x60 DUP4 ADD DUP7 PUSH2 0x39AB JUMP JUMPDEST DUP5 PUSH1 0x20 DUP5 ADD MSTORE DUP3 DUP2 SUB PUSH1 0x40 DUP5 ADD MSTORE PUSH2 0x1A89 DUP2 DUP6 PUSH2 0x39AB JUMP JUMPDEST PUSH4 0x4E487B71 PUSH1 0xE0 SHL PUSH0 MSTORE PUSH1 0x21 PUSH1 0x4 MSTORE PUSH1 0x24 PUSH0 REVERT INVALID BLOCKHASH PUSH16 0x70656E7A657070656C696E2F636F6E74 PUSH19 0x616374732E4163636F756E7445524337353739 BASEFEE PUSH16 0x6F6B65642E76312E302E30DFE169305A MSTORE8 RETURNDATACOPY 0x28 DUP15 SDIV JUMPI 0xDA DUP14 0x28 SWAP2 CHAINID 0xD3 0xCC PUSH22 0xFA6E04C87599B048A60A4E5600A26469706673582212 KECCAK256 0x2F PUSH19 0x437E8463AD5B2C5D7E7975AD396ED925BEA04C 0xDB 0xBE CODECOPY PUSH0 PUSH5 0x4B4044D306 CALLDATALOAD PUSH5 0x736F6C6343 STOP ADDMOD 0x23 STOP CALLER "
	},
	"abi": [
		{
			"inputs": [],
			"stateMutability": "nonpayable",
			"type": "constructor"
		},
		{
			"inputs": [
				{
					"internalType": "address",
					"name": "sender",
					"type": "address"
				}
			],
			"name": "AccountUnauthorized",
			"type": "error"
		},
		{
			"inputs": [
				{
					"internalType": "uint256",
					"name": "moduleTypeId",
					"type": "uint256"
				},
				{
					"internalType": "address",
					"name": "module",
					"type": "address"
				}
			],
			"name": "ERC7579AlreadyInstalledModule",
			"type": "error"
		},
		{
			"inputs": [],
			"name": "ERC7579CannotDecodeFallbackData",
			"type": "error"
		},
		{
			"inputs": [],
			"name": "ERC7579DecodingError",
			"type": "error"
		},
		{
			"inputs": [
				{
					"internalType": "address",
					"name": "hook",
					"type": "address"
				}
			],
			"name": "ERC7579HookModuleAlreadyPresent",
			"type": "error"
		},
		{
			"inputs": [
				{
					"internalType": "uint256",
					"name": "moduleTypeId",
					"type": "uint256"
				},
				{
					"internalType": "address",
					"name": "module",
					"type": "address"
				}
			],
			"name": "ERC7579MismatchedModuleTypeId",
			"type": "error"
		},
		{
			"inputs": [
				{
					"internalType": "bytes4",
					"name": "selector",
					"type": "bytes4"
				}
			],
			"name": "ERC7579MissingFallbackHandler",
			"type": "error"
		},
		{
			"inputs": [
				{
					"internalType": "uint256",
					"name": "moduleTypeId",
					"type": "uint256"
				},
				{
					"internalType": "address",
					"name": "module",
					"type": "address"
				}
			],
			"name": "ERC7579UninstalledModule",
			"type": "error"
		},
		{
			"inputs": [
				{
					"internalType": "CallType",
					"name": "callType",
					"type": "bytes1"
				}
			],
			"name": "ERC7579UnsupportedCallType",
			"type": "error"
		},
		{
			"inputs": [
				{
					"internalType": "ExecType",
					"name": "execType",
					"type": "bytes1"
				}
			],
			"name": "ERC7579UnsupportedExecType",
			"type": "error"
		},
		{
			"inputs": [
				{
					"internalType": "uint256",
					"name": "moduleTypeId",
					"type": "uint256"
				}
			],
			"name": "ERC7579UnsupportedModuleType",
			"type": "error"
		},
		{
			"inputs": [],
			"name": "FailedCall",
			"type": "error"
		},
		{
			"inputs": [],
			"name": "InvalidInitialization",
			"type": "error"
		},
		{
			"inputs": [],
			"name": "InvalidShortString",
			"type": "error"
		},
		{
			"inputs": [
				{
					"internalType": "bytes",
					"name": "signer",
					"type": "bytes"
				}
			],
			"name": "MultiSignerERC7913AlreadyExists",
			"type": "error"
		},
		{
			"inputs": [
				{
					"internalType": "bytes",
					"name": "signer",
					"type": "bytes"
				}
			],
			"name": "MultiSignerERC7913InvalidSigner",
			"type": "error"
		},
		{
			"inputs": [
				{
					"internalType": "bytes",
					"name": "signer",
					"type": "bytes"
				}
			],
			"name": "MultiSignerERC7913NonexistentSigner",
			"type": "error"
		},
		{
			"inputs": [
				{
					"internalType": "uint64",
					"name": "signers",
					"type": "uint64"
				},
				{
					"internalType": "uint64",
					"name": "threshold",
					"type": "uint64"
				}
			],
			"name": "MultiSignerERC7913UnreachableThreshold",
			"type": "error"
		},
		{
			"inputs": [],
			"name": "MultiSignerERC7913ZeroThreshold",
			"type": "error"
		},
		{
			"inputs": [],
			"name": "NotInitializing",
			"type": "error"
		},
		{
			"inputs": [],
			"name": "OutOfRangeAccess",
			"type": "error"
		},
		{
			"inputs": [
				{
					"internalType": "string",
					"name": "str",
					"type": "string"
				}
			],
			"name": "StringTooLong",
			"type": "error"
		},
		{
			"anonymous": false,
			"inputs": [],
			"name": "EIP712DomainChanged",
			"type": "event"
		},
		{
			"anonymous": false,
			"inputs": [
				{
					"indexed": false,
					"internalType": "uint256",
					"name": "batchExecutionIndex",
					"type": "uint256"
				},
				{
					"indexed": false,
					"internalType": "bytes",
					"name": "returndata",
					"type": "bytes"
				}
			],
			"name": "ERC7579TryExecuteFail",
			"type": "event"
		},
		{
			"anonymous": false,
			"inputs": [
				{
					"indexed": true,
					"internalType": "bytes",
					"name": "signers",
					"type": "bytes"
				}
			],
			"name": "ERC7913SignerAdded",
			"type": "event"
		},
		{
			"anonymous": false,
			"inputs": [
				{
					"indexed": true,
					"internalType": "bytes",
					"name": "signers",
					"type": "bytes"
				}
			],
			"name": "ERC7913SignerRemoved",
			"type": "event"
		},
		{
			"anonymous": false,
			"inputs": [
				{
					"indexed": false,
					"internalType": "uint64",
					"name": "threshold",
					"type": "uint64"
				}
			],
			"name": "ERC7913ThresholdSet",
			"type": "event"
		},
		{
			"anonymous": false,
			"inputs": [
				{
					"indexed": false,
					"internalType": "uint64",
					"name": "version",
					"type": "uint64"
				}
			],
			"name": "Initialized",
			"type": "event"
		},
		{
			"anonymous": false,
			"inputs": [
				{
					"indexed": false,
					"internalType": "uint256",
					"name": "moduleTypeId",
					"type": "uint256"
				},
				{
					"indexed": false,
					"internalType": "address",
					"name": "module",
					"type": "address"
				}
			],
			"name": "ModuleInstalled",
			"type": "event"
		},
		{
			"anonymous": false,
			"inputs": [
				{
					"indexed": false,
					"internalType": "uint256",
					"name": "moduleTypeId",
					"type": "uint256"
				},
				{
					"indexed": false,
					"internalType": "address",
					"name": "module",
					"type": "address"
				}
			],
			"name": "ModuleUninstalled",
			"type": "event"
		},
		{
			"stateMutability": "payable",
			"type": "fallback"
		},
		{
			"inputs": [],
			"name": "accountId",
			"outputs": [
				{
					"internalType": "string",
					"name": "",
					"type": "string"
				}
			],
			"stateMutability": "view",
			"type": "function"
		},
		{
			"inputs": [
				{
					"internalType": "bytes[]",
					"name": "signers",
					"type": "bytes[]"
				}
			],
			"name": "addSigners",
			"outputs": [],
			"stateMutability": "nonpayable",
			"type": "function"
		},
		{
			"inputs": [],
			"name": "eip712Domain",
			"outputs": [
				{
					"internalType": "bytes1",
					"name": "fields",
					"type": "bytes1"
				},
				{
					"internalType": "string",
					"name": "name",
					"type": "string"
				},
				{
					"internalType": "string",
					"name": "version",
					"type": "string"
				},
				{
					"internalType": "uint256",
					"name": "chainId",
					"type": "uint256"
				},
				{
					"internalType": "address",
					"name": "verifyingContract",
					"type": "address"
				},
				{
					"internalType": "bytes32",
					"name": "salt",
					"type": "bytes32"
				},
				{
					"internalType": "uint256[]",
					"name": "extensions",
					"type": "uint256[]"
				}
			],
			"stateMutability": "view",
			"type": "function"
		},
		{
			"inputs": [],
			"name": "entryPoint",
			"outputs": [
				{
					"internalType": "contract IEntryPoint",
					"name": "",
					"type": "address"
				}
			],
			"stateMutability": "view",
			"type": "function"
		},
		{
			"inputs": [
				{
					"internalType": "bytes32",
					"name": "mode",
					"type": "bytes32"
				},
				{
					"internalType": "bytes",
					"name": "executionCalldata",
					"type": "bytes"
				}
			],
			"name": "execute",
			"outputs": [],
			"stateMutability": "payable",
			"type": "function"
		},
		{
			"inputs": [
				{
					"internalType": "bytes32",
					"name": "mode",
					"type": "bytes32"
				},
				{
					"internalType": "bytes",
					"name": "executionCalldata",
					"type": "bytes"
				}
			],
			"name": "executeFromExecutor",
			"outputs": [
				{
					"internalType": "bytes[]",
					"name": "returnData",
					"type": "bytes[]"
				}
			],
			"stateMutability": "payable",
			"type": "function"
		},
		{
			"inputs": [
				{
					"internalType": "uint192",
					"name": "key",
					"type": "uint192"
				}
			],
			"name": "getNonce",
			"outputs": [
				{
					"internalType": "uint256",
					"name": "",
					"type": "uint256"
				}
			],
			"stateMutability": "view",
			"type": "function"
		},
		{
			"inputs": [],
			"name": "getNonce",
			"outputs": [
				{
					"internalType": "uint256",
					"name": "",
					"type": "uint256"
				}
			],
			"stateMutability": "view",
			"type": "function"
		},
		{
			"inputs": [],
			"name": "getSignerCount",
			"outputs": [
				{
					"internalType": "uint256",
					"name": "",
					"type": "uint256"
				}
			],
			"stateMutability": "view",
			"type": "function"
		},
		{
			"inputs": [
				{
					"internalType": "uint64",
					"name": "start",
					"type": "uint64"
				},
				{
					"internalType": "uint64",
					"name": "end",
					"type": "uint64"
				}
			],
			"name": "getSigners",
			"outputs": [
				{
					"internalType": "bytes[]",
					"name": "",
					"type": "bytes[]"
				}
			],
			"stateMutability": "view",
			"type": "function"
		},
		{
			"inputs": [],
			"name": "hook",
			"outputs": [
				{
					"internalType": "address",
					"name": "",
					"type": "address"
				}
			],
			"stateMutability": "view",
			"type": "function"
		},
		{
			"inputs": [
				{
					"internalType": "bytes[]",
					"name": "signers",
					"type": "bytes[]"
				},
				{
					"internalType": "uint64",
					"name": "threshold",
					"type": "uint64"
				}
			],
			"name": "initialize",
			"outputs": [],
			"stateMutability": "nonpayable",
			"type": "function"
		},
		{
			"inputs": [
				{
					"internalType": "uint256",
					"name": "moduleTypeId",
					"type": "uint256"
				},
				{
					"internalType": "address",
					"name": "module",
					"type": "address"
				},
				{
					"internalType": "bytes",
					"name": "initData",
					"type": "bytes"
				}
			],
			"name": "installModule",
			"outputs": [],
			"stateMutability": "nonpayable",
			"type": "function"
		},
		{
			"inputs": [
				{
					"internalType": "uint256",
					"name": "moduleTypeId",
					"type": "uint256"
				},
				{
					"internalType": "address",
					"name": "module",
					"type": "address"
				},
				{
					"internalType": "bytes",
					"name": "data",
					"type": "bytes"
				}
			],
			"name": "isModuleInstalled",
			"outputs": [
				{
					"internalType": "bool",
					"name": "",
					"type": "bool"
				}
			],
			"stateMutability": "view",
			"type": "function"
		},
		{
			"inputs": [
				{
					"internalType": "bytes",
					"name": "signer",
					"type": "bytes"
				}
			],
			"name": "isSigner",
			"outputs": [
				{
					"internalType": "bool",
					"name": "",
					"type": "bool"
				}
			],
			"stateMutability": "view",
			"type": "function"
		},
		{
			"inputs": [
				{
					"internalType": "bytes32",
					"name": "hash",
					"type": "bytes32"
				},
				{
					"internalType": "bytes",
					"name": "signature",
					"type": "bytes"
				}
			],
			"name": "isValidSignature",
			"outputs": [
				{
					"internalType": "bytes4",
					"name": "",
					"type": "bytes4"
				}
			],
			"stateMutability": "view",
			"type": "function"
		},
		{
			"inputs": [
				{
					"internalType": "address",
					"name": "",
					"type": "address"
				},
				{
					"internalType": "address",
					"name": "",
					"type": "address"
				},
				{
					"internalType": "uint256[]",
					"name": "",
					"type": "uint256[]"
				},
				{
					"internalType": "uint256[]",
					"name": "",
					"type": "uint256[]"
				},
				{
					"internalType": "bytes",
					"name": "",
					"type": "bytes"
				}
			],
			"name": "onERC1155BatchReceived",
			"outputs": [
				{
					"internalType": "bytes4",
					"name": "",
					"type": "bytes4"
				}
			],
			"stateMutability": "nonpayable",
			"type": "function"
		},
		{
			"inputs": [
				{
					"internalType": "address",
					"name": "",
					"type": "address"
				},
				{
					"internalType": "address",
					"name": "",
					"type": "address"
				},
				{
					"internalType": "uint256",
					"name": "",
					"type": "uint256"
				},
				{
					"internalType": "uint256",
					"name": "",
					"type": "uint256"
				},
				{
					"internalType": "bytes",
					"name": "",
					"type": "bytes"
				}
			],
			"name": "onERC1155Received",
			"outputs": [
				{
					"internalType": "bytes4",
					"name": "",
					"type": "bytes4"
				}
			],
			"stateMutability": "nonpayable",
			"type": "function"
		},
		{
			"inputs": [
				{
					"internalType": "address",
					"name": "",
					"type": "address"
				},
				{
					"internalType": "address",
					"name": "",
					"type": "address"
				},
				{
					"internalType": "uint256",
					"name": "",
					"type": "uint256"
				},
				{
					"internalType": "bytes",
					"name": "",
					"type": "bytes"
				}
			],
			"name": "onERC721Received",
			"outputs": [
				{
					"internalType": "bytes4",
					"name": "",
					"type": "bytes4"
				}
			],
			"stateMutability": "nonpayable",
			"type": "function"
		},
		{
			"inputs": [
				{
					"internalType": "bytes[]",
					"name": "signers",
					"type": "bytes[]"
				}
			],
			"name": "removeSigners",
			"outputs": [],
			"stateMutability": "nonpayable",
			"type": "function"
		},
		{
			"inputs": [
				{
					"internalType": "uint64",
					"name": "threshold",
					"type": "uint64"
				}
			],
			"name": "setThreshold",
			"outputs": [],
			"stateMutability": "nonpayable",
			"type": "function"
		},
		{
			"inputs": [
				{
					"internalType": "bytes32",
					"name": "encodedMode",
					"type": "bytes32"
				}
			],
			"name": "supportsExecutionMode",
			"outputs": [
				{
					"internalType": "bool",
					"name": "",
					"type": "bool"
				}
			],
			"stateMutability": "view",
			"type": "function"
		},
		{
			"inputs": [
				{
					"internalType": "bytes4",
					"name": "interfaceId",
					"type": "bytes4"
				}
			],
			"name": "supportsInterface",
			"outputs": [
				{
					"internalType": "bool",
					"name": "",
					"type": "bool"
				}
			],
			"stateMutability": "view",
			"type": "function"
		},
		{
			"inputs": [
				{
					"internalType": "uint256",
					"name": "moduleTypeId",
					"type": "uint256"
				}
			],
			"name": "supportsModule",
			"outputs": [
				{
					"internalType": "bool",
					"name": "",
					"type": "bool"
				}
			],
			"stateMutability": "view",
			"type": "function"
		},
		{
			"inputs": [],
			"name": "threshold",
			"outputs": [
				{
					"internalType": "uint64",
					"name": "",
					"type": "uint64"
				}
			],
			"stateMutability": "view",
			"type": "function"
		},
		{
			"inputs": [
				{
					"internalType": "uint256",
					"name": "moduleTypeId",
					"type": "uint256"
				},
				{
					"internalType": "address",
					"name": "module",
					"type": "address"
				},
				{
					"internalType": "bytes",
					"name": "deInitData",
					"type": "bytes"
				}
			],
			"name": "uninstallModule",
			"outputs": [],
			"stateMutability": "nonpayable",
			"type": "function"
		},
		{
			"inputs": [
				{
					"components": [
						{
							"internalType": "address",
							"name": "sender",
							"type": "address"
						},
						{
							"internalType": "uint256",
							"name": "nonce",
							"type": "uint256"
						},
						{
							"internalType": "bytes",
							"name": "initCode",
							"type": "bytes"
						},
						{
							"internalType": "bytes",
							"name": "callData",
							"type": "bytes"
						},
						{
							"internalType": "bytes32",
							"name": "accountGasLimits",
							"type": "bytes32"
						},
						{
							"internalType": "uint256",
							"name": "preVerificationGas",
							"type": "uint256"
						},
						{
							"internalType": "bytes32",
							"name": "gasFees",
							"type": "bytes32"
						},
						{
							"internalType": "bytes",
							"name": "paymasterAndData",
							"type": "bytes"
						},
						{
							"internalType": "bytes",
							"name": "signature",
							"type": "bytes"
						}
					],
					"internalType": "struct PackedUserOperation",
					"name": "userOp",
					"type": "tuple"
				},
				{
					"internalType": "bytes32",
					"name": "userOpHash",
					"type": "bytes32"
				},
				{
					"internalType": "uint256",
					"name": "missingAccountFunds",
					"type": "uint256"
				}
			],
			"name": "validateUserOp",
			"outputs": [
				{
					"internalType": "uint256",
					"name": "",
					"type": "uint256"
				}
			],
			"stateMutability": "nonpayable",
			"type": "function"
		},
		{
			"stateMutability": "payable",
			"type": "receive"
		}
	],
	"storageLayout": {
		"storage": [
			{
				"astId": 13747,
				"contract": "contracts/DappMiner.sol:DappMiner",
				"label": "_nameFallback",
				"offset": 0,
				"slot": "0",
				"type": "t_string_storage"
			},
			{
				"astId": 13749,
				"contract": "contracts/DappMiner.sol:DappMiner",
				"label": "_versionFallback",
				"offset": 0,
				"slot": "1",
				"type": "t_string_storage"
			}
		],
		"types": {
			"t_string_storage": {
				"encoding": "bytes",
				"label": "string",
				"numberOfBytes": "32"
			}
		}
	},
	"web3Deploy": "var dappminerContract = new web3.eth.Contract([{\"inputs\":[],\"stateMutability\":\"nonpayable\",\"type\":\"constructor\"},{\"inputs\":[{\"internalType\":\"address\",\"name\":\"sender\",\"type\":\"address\"}],\"name\":\"AccountUnauthorized\",\"type\":\"error\"},{\"inputs\":[{\"internalType\":\"uint256\",\"name\":\"moduleTypeId\",\"type\":\"uint256\"},{\"internalType\":\"address\",\"name\":\"module\",\"type\":\"address\"}],\"name\":\"ERC7579AlreadyInstalledModule\",\"type\":\"error\"},{\"inputs\":[],\"name\":\"ERC7579CannotDecodeFallbackData\",\"type\":\"error\"},{\"inputs\":[],\"name\":\"ERC7579DecodingError\",\"type\":\"error\"},{\"inputs\":[{\"internalType\":\"address\",\"name\":\"hook\",\"type\":\"address\"}],\"name\":\"ERC7579HookModuleAlreadyPresent\",\"type\":\"error\"},{\"inputs\":[{\"internalType\":\"uint256\",\"name\":\"moduleTypeId\",\"type\":\"uint256\"},{\"internalType\":\"address\",\"name\":\"module\",\"type\":\"address\"}],\"name\":\"ERC7579MismatchedModuleTypeId\",\"type\":\"error\"},{\"inputs\":[{\"internalType\":\"bytes4\",\"name\":\"selector\",\"type\":\"bytes4\"}],\"name\":\"ERC7579MissingFallbackHandler\",\"type\":\"error\"},{\"inputs\":[{\"internalType\":\"uint256\",\"name\":\"moduleTypeId\",\"type\":\"uint256\"},{\"internalType\":\"address\",\"name\":\"module\",\"type\":\"address\"}],\"name\":\"ERC7579UninstalledModule\",\"type\":\"error\"},{\"inputs\":[{\"internalType\":\"CallType\",\"name\":\"callType\",\"type\":\"bytes1\"}],\"name\":\"ERC7579UnsupportedCallType\",\"type\":\"error\"},{\"inputs\":[{\"internalType\":\"ExecType\",\"name\":\"execType\",\"type\":\"bytes1\"}],\"name\":\"ERC7579UnsupportedExecType\",\"type\":\"error\"},{\"inputs\":[{\"internalType\":\"uint256\",\"name\":\"moduleTypeId\",\"type\":\"uint256\"}],\"name\":\"ERC7579UnsupportedModuleType\",\"type\":\"error\"},{\"inputs\":[],\"name\":\"FailedCall\",\"type\":\"error\"},{\"inputs\":[],\"name\":\"InvalidInitialization\",\"type\":\"error\"},{\"inputs\":[],\"name\":\"InvalidShortString\",\"type\":\"error\"},{\"inputs\":[{\"internalType\":\"bytes\",\"name\":\"signer\",\"type\":\"bytes\"}],\"name\":\"MultiSignerERC7913AlreadyExists\",\"type\":\"error\"},{\"inputs\":[{\"internalType\":\"bytes\",\"name\":\"signer\",\"type\":\"bytes\"}],\"name\":\"MultiSignerERC7913InvalidSigner\",\"type\":\"error\"},{\"inputs\":[{\"internalType\":\"bytes\",\"name\":\"signer\",\"type\":\"bytes\"}],\"name\":\"MultiSignerERC7913NonexistentSigner\",\"type\":\"error\"},{\"inputs\":[{\"internalType\":\"uint64\",\"name\":\"signers\",\"type\":\"uint64\"},{\"internalType\":\"uint64\",\"name\":\"threshold\",\"type\":\"uint64\"}],\"name\":\"MultiSignerERC7913UnreachableThreshold\",\"type\":\"error\"},{\"inputs\":[],\"name\":\"MultiSignerERC7913ZeroThreshold\",\"type\":\"error\"},{\"inputs\":[],\"name\":\"NotInitializing\",\"type\":\"error\"},{\"inputs\":[],\"name\":\"OutOfRangeAccess\",\"type\":\"error\"},{\"inputs\":[{\"internalType\":\"string\",\"name\":\"str\",\"type\":\"string\"}],\"name\":\"StringTooLong\",\"type\":\"error\"},{\"anonymous\":false,\"inputs\":[],\"name\":\"EIP712DomainChanged\",\"type\":\"event\"},{\"anonymous\":false,\"inputs\":[{\"indexed\":false,\"internalType\":\"uint256\",\"name\":\"batchExecutionIndex\",\"type\":\"uint256\"},{\"indexed\":false,\"internalType\":\"bytes\",\"name\":\"returndata\",\"type\":\"bytes\"}],\"name\":\"ERC7579TryExecuteFail\",\"type\":\"event\"},{\"anonymous\":false,\"inputs\":[{\"indexed\":true,\"internalType\":\"bytes\",\"name\":\"signers\",\"type\":\"bytes\"}],\"name\":\"ERC7913SignerAdded\",\"type\":\"event\"},{\"anonymous\":false,\"inputs\":[{\"indexed\":true,\"internalType\":\"bytes\",\"name\":\"signers\",\"type\":\"bytes\"}],\"name\":\"ERC7913SignerRemoved\",\"type\":\"event\"},{\"anonymous\":false,\"inputs\":[{\"indexed\":false,\"internalType\":\"uint64\",\"name\":\"threshold\",\"type\":\"uint64\"}],\"name\":\"ERC7913ThresholdSet\",\"type\":\"event\"},{\"anonymous\":false,\"inputs\":[{\"indexed\":false,\"internalType\":\"uint64\",\"name\":\"version\",\"type\":\"uint64\"}],\"name\":\"Initialized\",\"type\":\"event\"},{\"anonymous\":false,\"inputs\":[{\"indexed\":false,\"internalType\":\"uint256\",\"name\":\"moduleTypeId\",\"type\":\"uint256\"},{\"indexed\":false,\"internalType\":\"address\",\"name\":\"module\",\"type\":\"address\"}],\"name\":\"ModuleInstalled\",\"type\":\"event\"},{\"anonymous\":false,\"inputs\":[{\"indexed\":false,\"internalType\":\"uint256\",\"name\":\"moduleTypeId\",\"type\":\"uint256\"},{\"indexed\":false,\"internalType\":\"address\",\"name\":\"module\",\"type\":\"address\"}],\"name\":\"ModuleUninstalled\",\"type\":\"event\"},{\"stateMutability\":\"payable\",\"type\":\"fallback\"},{\"inputs\":[],\"name\":\"accountId\",\"outputs\":[{\"internalType\":\"string\",\"name\":\"\",\"type\":\"string\"}],\"stateMutability\":\"view\",\"type\":\"function\"},{\"inputs\":[{\"internalType\":\"bytes[]\",\"name\":\"signers\",\"type\":\"bytes[]\"}],\"name\":\"addSigners\",\"outputs\":[],\"stateMutability\":\"nonpayable\",\"type\":\"function\"},{\"inputs\":[],\"name\":\"eip712Domain\",\"outputs\":[{\"internalType\":\"bytes1\",\"name\":\"fields\",\"type\":\"bytes1\"},{\"internalType\":\"string\",\"name\":\"name\",\"type\":\"string\"},{\"internalType\":\"string\",\"name\":\"version\",\"type\":\"string\"},{\"internalType\":\"uint256\",\"name\":\"chainId\",\"type\":\"uint256\"},{\"internalType\":\"address\",\"name\":\"verifyingContract\",\"type\":\"address\"},{\"internalType\":\"bytes32\",\"name\":\"salt\",\"type\":\"bytes32\"},{\"internalType\":\"uint256[]\",\"name\":\"extensions\",\"type\":\"uint256[]\"}],\"stateMutability\":\"view\",\"type\":\"function\"},{\"inputs\":[],\"name\":\"entryPoint\",\"outputs\":[{\"internalType\":\"contract IEntryPoint\",\"name\":\"\",\"type\":\"address\"}],\"stateMutability\":\"view\",\"type\":\"function\"},{\"inputs\":[{\"internalType\":\"bytes32\",\"name\":\"mode\",\"type\":\"bytes32\"},{\"internalType\":\"bytes\",\"name\":\"executionCalldata\",\"type\":\"bytes\"}],\"name\":\"execute\",\"outputs\":[],\"stateMutability\":\"payable\",\"type\":\"function\"},{\"inputs\":[{\"internalType\":\"bytes32\",\"name\":\"mode\",\"type\":\"bytes32\"},{\"internalType\":\"bytes\",\"name\":\"executionCalldata\",\"type\":\"bytes\"}],\"name\":\"executeFromExecutor\",\"outputs\":[{\"internalType\":\"bytes[]\",\"name\":\"returnData\",\"type\":\"bytes[]\"}],\"stateMutability\":\"payable\",\"type\":\"function\"},{\"inputs\":[{\"internalType\":\"uint192\",\"name\":\"key\",\"type\":\"uint192\"}],\"name\":\"getNonce\",\"outputs\":[{\"internalType\":\"uint256\",\"name\":\"\",\"type\":\"uint256\"}],\"stateMutability\":\"view\",\"type\":\"function\"},{\"inputs\":[],\"name\":\"getNonce\",\"outputs\":[{\"internalType\":\"uint256\",\"name\":\"\",\"type\":\"uint256\"}],\"stateMutability\":\"view\",\"type\":\"function\"},{\"inputs\":[],\"name\":\"getSignerCount\",\"outputs\":[{\"internalType\":\"uint256\",\"name\":\"\",\"type\":\"uint256\"}],\"stateMutability\":\"view\",\"type\":\"function\"},{\"inputs\":[{\"internalType\":\"uint64\",\"name\":\"start\",\"type\":\"uint64\"},{\"internalType\":\"uint64\",\"name\":\"end\",\"type\":\"uint64\"}],\"name\":\"getSigners\",\"outputs\":[{\"internalType\":\"bytes[]\",\"name\":\"\",\"type\":\"bytes[]\"}],\"stateMutability\":\"view\",\"type\":\"function\"},{\"inputs\":[],\"name\":\"hook\",\"outputs\":[{\"internalType\":\"address\",\"name\":\"\",\"type\":\"address\"}],\"stateMutability\":\"view\",\"type\":\"function\"},{\"inputs\":[{\"internalType\":\"bytes[]\",\"name\":\"signers\",\"type\":\"bytes[]\"},{\"internalType\":\"uint64\",\"name\":\"threshold\",\"type\":\"uint64\"}],\"name\":\"initialize\",\"outputs\":[],\"stateMutability\":\"nonpayable\",\"type\":\"function\"},{\"inputs\":[{\"internalType\":\"uint256\",\"name\":\"moduleTypeId\",\"type\":\"uint256\"},{\"internalType\":\"address\",\"name\":\"module\",\"type\":\"address\"},{\"internalType\":\"bytes\",\"name\":\"initData\",\"type\":\"bytes\"}],\"name\":\"installModule\",\"outputs\":[],\"stateMutability\":\"nonpayable\",\"type\":\"function\"},{\"inputs\":[{\"internalType\":\"uint256\",\"name\":\"moduleTypeId\",\"type\":\"uint256\"},{\"internalType\":\"address\",\"name\":\"module\",\"type\":\"address\"},{\"internalType\":\"bytes\",\"name\":\"data\",\"type\":\"bytes\"}],\"name\":\"isModuleInstalled\",\"outputs\":[{\"internalType\":\"bool\",\"name\":\"\",\"type\":\"bool\"}],\"stateMutability\":\"view\",\"type\":\"function\"},{\"inputs\":[{\"internalType\":\"bytes\",\"name\":\"signer\",\"type\":\"bytes\"}],\"name\":\"isSigner\",\"outputs\":[{\"internalType\":\"bool\",\"name\":\"\",\"type\":\"bool\"}],\"stateMutability\":\"view\",\"type\":\"function\"},{\"inputs\":[{\"internalType\":\"bytes32\",\"name\":\"hash\",\"type\":\"bytes32\"},{\"internalType\":\"bytes\",\"name\":\"signature\",\"type\":\"bytes\"}],\"name\":\"isValidSignature\",\"outputs\":[{\"internalType\":\"bytes4\",\"name\":\"\",\"type\":\"bytes4\"}],\"stateMutability\":\"view\",\"type\":\"function\"},{\"inputs\":[{\"internalType\":\"address\",\"name\":\"\",\"type\":\"address\"},{\"internalType\":\"address\",\"name\":\"\",\"type\":\"address\"},{\"internalType\":\"uint256[]\",\"name\":\"\",\"type\":\"uint256[]\"},{\"internalType\":\"uint256[]\",\"name\":\"\",\"type\":\"uint256[]\"},{\"internalType\":\"bytes\",\"name\":\"\",\"type\":\"bytes\"}],\"name\":\"onERC1155BatchReceived\",\"outputs\":[{\"internalType\":\"bytes4\",\"name\":\"\",\"type\":\"bytes4\"}],\"stateMutability\":\"nonpayable\",\"type\":\"function\"},{\"inputs\":[{\"internalType\":\"address\",\"name\":\"\",\"type\":\"address\"},{\"internalType\":\"address\",\"name\":\"\",\"type\":\"address\"},{\"internalType\":\"uint256\",\"name\":\"\",\"type\":\"uint256\"},{\"internalType\":\"uint256\",\"name\":\"\",\"type\":\"uint256\"},{\"internalType\":\"bytes\",\"name\":\"\",\"type\":\"bytes\"}],\"name\":\"onERC1155Received\",\"outputs\":[{\"internalType\":\"bytes4\",\"name\":\"\",\"type\":\"bytes4\"}],\"stateMutability\":\"nonpayable\",\"type\":\"function\"},{\"inputs\":[{\"internalType\":\"address\",\"name\":\"\",\"type\":\"address\"},{\"internalType\":\"address\",\"name\":\"\",\"type\":\"address\"},{\"internalType\":\"uint256\",\"name\":\"\",\"type\":\"uint256\"},{\"internalType\":\"bytes\",\"name\":\"\",\"type\":\"bytes\"}],\"name\":\"onERC721Received\",\"outputs\":[{\"internalType\":\"bytes4\",\"name\":\"\",\"type\":\"bytes4\"}],\"stateMutability\":\"nonpayable\",\"type\":\"function\"},{\"inputs\":[{\"internalType\":\"bytes[]\",\"name\":\"signers\",\"type\":\"bytes[]\"}],\"name\":\"removeSigners\",\"outputs\":[],\"stateMutability\":\"nonpayable\",\"type\":\"function\"},{\"inputs\":[{\"internalType\":\"uint64\",\"name\":\"threshold\",\"type\":\"uint64\"}],\"name\":\"setThreshold\",\"outputs\":[],\"stateMutability\":\"nonpayable\",\"type\":\"function\"},{\"inputs\":[{\"internalType\":\"bytes32\",\"name\":\"encodedMode\",\"type\":\"bytes32\"}],\"name\":\"supportsExecutionMode\",\"outputs\":[{\"internalType\":\"bool\",\"name\":\"\",\"type\":\"bool\"}],\"stateMutability\":\"view\",\"type\":\"function\"},{\"inputs\":[{\"internalType\":\"bytes4\",\"name\":\"interfaceId\",\"type\":\"bytes4\"}],\"name\":\"supportsInterface\",\"outputs\":[{\"internalType\":\"bool\",\"name\":\"\",\"type\":\"bool\"}],\"stateMutability\":\"view\",\"type\":\"function\"},{\"inputs\":[{\"internalType\":\"uint256\",\"name\":\"moduleTypeId\",\"type\":\"uint256\"}],\"name\":\"supportsModule\",\"outputs\":[{\"internalType\":\"bool\",\"name\":\"\",\"type\":\"bool\"}],\"stateMutability\":\"view\",\"type\":\"function\"},{\"inputs\":[],\"name\":\"threshold\",\"outputs\":[{\"internalType\":\"uint64\",\"name\":\"\",\"type\":\"uint64\"}],\"stateMutability\":\"view\",\"type\":\"function\"},{\"inputs\":[{\"internalType\":\"uint256\",\"name\":\"moduleTypeId\",\"type\":\"uint256\"},{\"internalType\":\"address\",\"name\":\"module\",\"type\":\"address\"},{\"internalType\":\"bytes\",\"name\":\"deInitData\",\"type\":\"bytes\"}],\"name\":\"uninstallModule\",\"outputs\":[],\"stateMutability\":\"nonpayable\",\"type\":\"function\"},{\"inputs\":[{\"components\":[{\"internalType\":\"address\",\"name\":\"sender\",\"type\":\"address\"},{\"internalType\":\"uint256\",\"name\":\"nonce\",\"type\":\"uint256\"},{\"internalType\":\"bytes\",\"name\":\"initCode\",\"type\":\"bytes\"},{\"internalType\":\"bytes\",\"name\":\"callData\",\"type\":\"bytes\"},{\"internalType\":\"bytes32\",\"name\":\"accountGasLimits\",\"type\":\"bytes32\"},{\"internalType\":\"uint256\",\"name\":\"preVerificationGas\",\"type\":\"uint256\"},{\"internalType\":\"bytes32\",\"name\":\"gasFees\",\"type\":\"bytes32\"},{\"internalType\":\"bytes\",\"name\":\"paymasterAndData\",\"type\":\"bytes\"},{\"internalType\":\"bytes\",\"name\":\"signature\",\"type\":\"bytes\"}],\"internalType\":\"struct PackedUserOperation\",\"name\":\"userOp\",\"type\":\"tuple\"},{\"internalType\":\"bytes32\",\"name\":\"userOpHash\",\"type\":\"bytes32\"},{\"internalType\":\"uint256\",\"name\":\"missingAccountFunds\",\"type\":\"uint256\"}],\"name\":\"validateUserOp\",\"outputs\":[{\"internalType\":\"uint256\",\"name\":\"\",\"type\":\"uint256\"}],\"stateMutability\":\"nonpayable\",\"type\":\"function\"},{\"stateMutability\":\"payable\",\"type\":\"receive\"}]);\nvar dappminer = dappminerContract.deploy({\n     data: '0x610160604052348015610010575f5ffd5b5060408051808201825260098152682230b83826b4b732b960b91b602080830191909152825180840190935260018352603160f81b9083015290610054825f610105565b61012052610063816001610105565b61014052815160208084019190912060e052815190820120610100524660a0526100ef60e05161010051604080517f8b73c3c69bb8fe3d512ecc4cf759cc79239f7b179b0ffacaa9a75d522b39400f60208201529081019290925260608201524660808201523060a08201525f9060c00160405160208183030381529060405280519060200120905090565b60805250503060c052610100610137565b6103fb565b5f60208351101561012057610119836101d4565b9050610131565b8161012b84826102e5565b5060ff90505b92915050565b5f61014061021a565b805490915068010000000000000000900460ff16156101725760405163f92ee8a960e01b815260040160405180910390fd5b80546001600160401b03908116146101d15780546001600160401b0319166001600160401b0390811782556040519081527fc7f505b2f371ae2175ee4913f4499e1f2633a7b5936321eed1cdaeb6115181d29060200160405180910390a15b50565b5f5f829050601f81511115610207578260405163305a27a960e01b81526004016101fe91906103a3565b60405180910390fd5b8051610212826103d8565b179392505050565b5f807ff0c57e16840df040f15088dc2f81fe391c3923bec73e23a9662efc9c229c6a00610131565b634e487b7160e01b5f52604160045260245ffd5b600181811c9082168061026a57607f821691505b60208210810361028857634e487b7160e01b5f52602260045260245ffd5b50919050565b601f8211156102e057828211156102e057805f5260205f20601f840160051c60208510156102b957505f5b90810190601f840160051c035f5b818110156102dc575f838201556001016102c7565b5050505b505050565b81516001600160401b038111156102fe576102fe610242565b6103128161030c8454610256565b8461028e565b6020601f821160018114610344575f831561032d5750848201515b5f19600385901b1c1916600184901b17845561039c565b5f84815260208120601f198516915b828110156103735787850151825560209485019460019092019101610353565b508482101561039057868401515f19600387901b60f8161c191681555b505060018360011b0184555b5050505050565b602081525f82518060208401528060208501604085015e5f604082850101526040601f19601f83011684010191505092915050565b80516020808301519190811015610288575f1960209190910360031b1b16919050565b60805160a05160c05160e0516101005161012051610140516144f061044c5f395f6110a601525f61107a01525f6125cd01525f6125a501525f61250001525f61252a01525f61255401526144f05ff3fe60806040526004361061019f575f3560e01c806395fcd041116100eb578063bc197c8111610089578063d691c96411610063578063d691c96414610518578063e9ae5c531461052b578063f23a6e611461053e578063f2dc691d14610569576101a6565b8063bc197c81146104ba578063d03c7914146104e5578063d087d28814610504576101a6565b80639ddfdaf9116100c55780639ddfdaf914610442578063a71763a814610461578063b0d691fe14610480578063b715be81146104a6576101a6565b806395fcd041146103d657806396d4110b146104025780639cfd7cff14610421576101a6565b80633e1b0812116101585780637cc2046b116101325780637cc2046b146103455780637f5a7c7b1461036457806384b0196e146103905780639517e29f146103b7576101a6565b80633e1b0812146102c157806342cde4e8146102e057806343b9866514610326576101a6565b806301ffc9a7146101be578063112d3a7d146101f2578063150b7a02146102115780631626ba7e1461025457806317c4de351461027357806319822f7c14610294576101a6565b366101a657005b5f3660606101b2610588565b80519350602001915050f35b3480156101c9575f5ffd5b506101dd6101d83660046135d1565b610695565b60405190151581526020015b60405180910390f35b3480156101fd575f5ffd5b506101dd61020c36600461364b565b6106cb565b34801561021c575f5ffd5b5061023b61022b36600461375c565b630a85bd0160e11b949350505050565b6040516001600160e01b031990911681526020016101e9565b34801561025f575f5ffd5b5061023b61026e3660046137bf565b610711565b34801561027e575f5ffd5b5061029261028d36600461381c565b61074d565b005b34801561029f575f5ffd5b506102b36102ae366004613835565b610761565b6040519081526020016101e9565b3480156102cc575f5ffd5b506102b36102db366004613883565b61078e565b3480156102eb575f5ffd5b507fdfe169305a533e288e0557da8d289146d3cc75fa6e04c87599b048a60a4e5602546040516001600160401b0390911681526020016101e9565b348015610331575f5ffd5b506101dd6103403660046138a9565b61081b565b348015610350575f5ffd5b5061029261035f36600461397a565b610834565b34801561036f575f5ffd5b50610378610845565b6040516001600160a01b0390911681526020016101e9565b34801561039b575f5ffd5b506103a4610873565b6040516101e997969594939291906139d9565b3480156103c2575f5ffd5b506102926103d136600461364b565b6108b5565b3480156103e1575f5ffd5b506103f56103f0366004613a6f565b610903565b6040516101e99190613aa0565b34801561040d575f5ffd5b5061029261041c36600461397a565b61092a565b34801561042c575f5ffd5b5061043561093b565b6040516101e99190613b03565b34801561044d575f5ffd5b5061029261045c366004613b15565b61095b565b34801561046c575f5ffd5b5061029261047b36600461364b565b610a5c565b34801561048b575f5ffd5b5073433709009b8330fda32311df1c2afa402ed8d009610378565b3480156104b1575f5ffd5b506102b3610aa4565b3480156104c5575f5ffd5b5061023b6104d4366004613bb1565b63bc197c8160e01b95945050505050565b3480156104f0575f5ffd5b506101dd6104ff366004613c5d565b610abe565b34801561050f575f5ffd5b506102b3610b2e565b6103f56105263660046137bf565b610b3d565b6102926105393660046137bf565b610b67565b348015610549575f5ffd5b5061023b610558366004613c74565b63f23a6e6160e01b95945050505050565b348015610574575f5ffd5b506101dd610583366004613c5d565b610b7a565b60605f610593610845565b905060606001600160a01b0382161561061d5760405163d68f602560e01b81526001600160a01b0383169063d68f6025906105d890339034905f903690600401613cef565b5f604051808303815f875af11580156105f3573d5f5f3e3d5ffd5b505050506040513d5f823e601f3d908101601f1916820160405261061a9190810190613d16565b90505b610625610b8e565b92506001600160a01b0382161561069057604051630b9dfbed60e11b81526001600160a01b0383169063173bf7da90610662908490600401613b03565b5f604051808303815f87803b158015610679575f5ffd5b505af115801561068b573d5f5f3e3d5ffd5b505050505b505090565b5f6001600160e01b03198216630271189760e51b14806106c557506301ffc9a760e01b6001600160e01b03198316145b92915050565b5f6004851480156106f457506106df610845565b6001600160a01b0316846001600160a01b0316145b80610706575061070685858585610c34565b90505b949350505050565b5f5f61071e858585610cf6565b90506001600160e01b0319808216146107375780610742565b610742858585610d73565b9150505b9392505050565b610755610e32565b61075e81610e89565b50565b5f61076a610f24565b5f610783858561077e610100830183613d8a565b610f64565b905061070983610f71565b5f73433709009b8330fda32311df1c2afa402ed8d009604051631aab3f0d60e11b81523060048201526001600160c01b03841660248201526001600160a01b0391909116906335567e1a90604401602060405180830381865afa1580156107f7573d5f5f3e3d5ffd5b505050506040513d601f19601f820116820180604052508101906106c59190613dcc565b5f5f51602061449b5f395f51905f526107468184610f94565b61083c610e32565b61075e81610fc0565b7f2b49b75317ffc1021ca7da4ca3423bf8403e18b223e63e6bc7abe8f39a5ed700546001600160a01b031690565b5f6060805f5f5f6060610884611073565b61088c61109f565b604080515f80825260208201909252600f60f81b9b939a50919850469750309650945092509050565b6108bd610e32565b6108fd848484848080601f0160208091040260200160405190810160405280939291908181526020018383808284375f920191909152506110cc92505050565b50505050565b60605f51602061449b5f395f51905f52610709816001600160401b03868116908616611256565b610932610e32565b61075e81611395565b606060405180606001604052806033815260200161446860339139905090565b5f610964611468565b805490915060ff600160401b82041615906001600160401b03165f8115801561098a5750825b90505f826001600160401b031660011480156109a55750303b155b9050811580156109b3575080155b156109d15760405163f92ee8a960e01b815260040160405180910390fd5b845467ffffffffffffffff1916600117855583156109fb57845460ff60401b1916600160401b1785555b610a03611490565b610a0d878761149a565b8315610a5357845460ff60401b19168555604051600181527fc7f505b2f371ae2175ee4913f4499e1f2633a7b5936321eed1cdaeb6115181d29060200160405180910390a15b50505050505050565b610a64610e32565b6108fd848484848080601f0160208091040260200160405190810160405280939291908181526020018383808284375f920191909152506114ac92505050565b5f51602061449b5f395f51905f5280545f91905b91505090565b5f5f5f610aca846115c8565b505091509150610add825f60f81b611606565b80610af15750610af182600160f81b611606565b80610b095750610b09826001600160f81b0319611606565b80156107095750610b1a815f611606565b80610709575061070981600160f81b611606565b5f610b385f61078e565b905090565b606060025f80610b4f83338484611618565b610b5a87878761165f565b93505b5050509392505050565b610b6f610e32565b6108fd83838361165f565b5f60048214806106c557506106c582611773565b60605f610ba55f356001600160e01b031916611790565b90506001600160e01b03195f35166001600160a01b038216610bec5760405163af5a720360e01b81526001600160e01b031990911660048201526024015b60405180910390fd5b50610c1b81345f3633604051602001610c0793929190613de3565b6040516020818303038152906040526117d3565b15610c2857610ab86117e8565b610c30611801565b5090565b5f7f0a47d913d72b2639f4ca1c145cc07ddf7170b73b257c8e0d4fced7cc8e3e39005f198601610c7057610c68818661180c565b915050610709565b60028603610c8557610c68600282018661180c565b60038603610ceb57600383118015610c6857506001600160a01b0385166004808301905f90610cb69082888a613e04565b610cbf91613e2b565b6001600160e01b031916815260208101919091526040015f20546001600160a01b031614915050610709565b505f95945050505050565b5f610d0284848461182d565b80610d135750610d13848484611919565b610d63577f773977397739773977397739773977397739773977397739773977397739773984148015610d44575081155b610d56576001600160e01b0319610709565b637739000160e01b610709565b630b135d3f60e11b949350505050565b5f60148210610e21575f365f610d89868661193e565b91945092509050610d9d6001845f806106cb565b15610e1d57604051637aa8f17760e11b81526001600160a01b0384169063f551e2ee90610dd49033908b9087908790600401613cef565b602060405180830381865afa925050508015610e0d575060408051601f3d908101601f19168201909252610e0a91810190613e61565b60015b15610e1d57935061074692505050565b5050505b506001600160e01b03199392505050565b33308114801590610e6057506001600160a01b03811673433709009b8330fda32311df1c2afa402ed8d00914155b1561075e57604051637cf8632b60e01b81526001600160a01b0382166004820152602401610be3565b5f51602061449b5f395f51905f526001600160401b038216610ebe5760405163455daa5f60e11b815260040160405180910390fd5b60028101805467ffffffffffffffff19166001600160401b038416179055610ee4611969565b6040516001600160401b03831681527fa1bcbad4ca88e748de7f039cec105095bae000486ab6533efb33a31d79bdae5e9060200160405180910390a15050565b3373433709009b8330fda32311df1c2afa402ed8d009811461075e57604051637cf8632b60e01b81526001600160a01b0382166004820152602401610be3565b5f610706858585856119ec565b801561075e57610f90338260405180602001604052805f8152506117d3565b5050565b5f8260010182604051610fa79190613e93565b9081526040519081900360200190205415159392505050565b5f51602061449b5f395f51905f525f5b825181101561106a575f838281518110610fec57610fec613e9e565b602090810291909101015190506110038382611a93565b81906110235760405163b3a2e4cb60e01b8152600401610be39190613b03565b50806040516110329190613e93565b604051908190038120907fca2ece94b660c23bf1a2a217d383d94701ca9e368a082921f2d733d010e85505905f90a250600101610fd0565b50610f90611969565b6060610b387f00000000000000000000000000000000000000000000000000000000000000005f611c47565b6060610b387f00000000000000000000000000000000000000000000000000000000000000006001611c47565b5f6110d5610845565b905060606001600160a01b0382161561115f5760405163d68f602560e01b81526001600160a01b0383169063d68f60259061111a90339034905f903690600401613cef565b5f604051808303815f875af1158015611135573d5f5f3e3d5ffd5b505050506040513d5f823e601f3d908101601f1916820160405261115c9190810190613d16565b90505b7f2b49b75317ffc1021ca7da4ca3423bf8403e18b223e63e6bc7abe8f39a5ed70060031986016111da5780546001600160a01b031680156111bf57604051630c005e8d60e11b81526001600160a01b039091166004820152602401610be3565b5080546001600160a01b0319166001600160a01b0386161781555b6111e5868686611cf0565b506001600160a01b0382161561124f57604051630b9dfbed60e11b81526001600160a01b0383169063173bf7da90611221908490600401613b03565b5f604051808303815f87803b158015611238575f5ffd5b505af115801561124a573d5f5f3e3d5ffd5b505050505b5050505050565b606061126982611264865490565b611f81565b91506112758383611f81565b92508282035f816001600160401b03811115611293576112936136a0565b6040519080825280602002602001820160405280156112c657816020015b60608152602001906001900390816112b15790505b5090505f5b8281101561138b576112df87878301611f90565b80546112ea90613eb2565b80601f016020809104026020016040519081016040528092919081815260200182805461131690613eb2565b80156113615780601f1061133857610100808354040283529160200191611361565b820191905f5260205f20905b81548152906001019060200180831161134457829003601f168201915b505050505082828151811061137857611378613e9e565b60209081029190910101526001016112cb565b5095945050505050565b5f51602061449b5f395f51905f525f5b8251811015611463575f8382815181106113c1576113c1613e9e565b6020026020010151905060148151101581906113f157604051630310775b60e21b8152600401610be39190613b03565b506113fc8382611faf565b819061141c576040516325e17a4160e01b8152600401610be39190613b03565b508060405161142b9190613e93565b604051908190038120907f4b35ca4a0708fa3d38267e28bd9478214d7166d3483f78a0f35b00697219d2b2905f90a2506001016113a5565b505050565b5f807ff0c57e16840df040f15088dc2f81fe391c3923bec73e23a9662efc9c229c6a006106c5565b61149861200e565b565b6114a261200e565b610f908282612033565b5f6114b5610845565b905060606001600160a01b0382161561153f5760405163d68f602560e01b81526001600160a01b0383169063d68f6025906114fa90339034905f903690600401613cef565b5f604051808303815f875af1158015611515573d5f5f3e3d5ffd5b505050506040513d5f823e601f3d908101601f1916820160405261153c9190810190613d16565b90505b7f2b49b75317ffc1021ca7da4ca3423bf8403e18b223e63e6bc7abe8f39a5ed70060031986016115bd578054869086906001600160a01b038083169116146115ac57604051631343d68d60e01b815260048101929092526001600160a01b03166024820152604401610be3565b505080546001600160a01b03191681555b6111e586868661204d565b5f5f5f5f6115d6855f612222565b6115e1866001612222565b6115ec87600661225a565b6115f788600a612292565b93509350935093509193509193565b6001600160f81b031990811691161490565b611624848484846106cb565b8484909161165757604051631343d68d60e01b815260048101929092526001600160a01b03166024820152604401610be3565b505050505050565b60605f61166a610845565b905060606001600160a01b038216156116f45760405163d68f602560e01b81526001600160a01b0383169063d68f6025906116af90339034905f903690600401613cef565b5f604051808303815f875af11580156116ca573d5f5f3e3d5ffd5b505050506040513d5f823e601f3d908101601f191682016040526116f19190810190613d16565b90505b6116ff8686866122cd565b92506001600160a01b0382161561176a57604051630b9dfbed60e11b81526001600160a01b0383169063173bf7da9061173c908490600401613b03565b5f604051808303815f87803b158015611753575f5ffd5b505af1158015611765573d5f5f3e3d5ffd5b505050505b50509392505050565b5f60018214806117835750600282145b806106c557505060031490565b6001600160e01b0319165f9081527f0a47d913d72b2639f4ca1c145cc07ddf7170b73b257c8e0d4fced7cc8e3e390460205260409020546001600160a01b031690565b5f5f5f83516020850186885af1949350505050565b6040513d81523d5f602083013e3d602001810160405290565b6040513d5f823e3d81fd5b6001600160a01b0381165f9081526001830160205260408120541515610746565b5f365f5f5f365f61183e898961236b565b9550955095509550955095505f5f5f5f5f611857610873565b509550955095509550955050611876888a61246490919063ffffffff16565b8f14801561188357508515155b801561190657506119066118ff6118f889898c8a805190602001208a805190602001208a8a8a6040516020016118e4959493929190948552602085019390935260408401919091526001600160a01b03166060830152608082015260a00190565b604051602081830303815290604052612483565b8b90612464565b8c8c6124b5565b9f9e505050505050505050505050505050565b5f610709611937611929866124c1565b6119316124f4565b90612464565b84846124b5565b5f368161194b8486613eea565b60601c61195b8560148189613e04565b9250925092505b9250925092565b5f51602061449b5f395f51905f5280545f6119ab7fdfe169305a533e288e0557da8d289146d3cc75fa6e04c87599b048a60a4e5602546001600160401b031690565b905081816001600160401b03811682101561124f57604051638249d75760e01b81526001600160401b03928316600482015291166024820152604401610be3565b5f5f6119f78661261d565b9050611a066001825f806106cb565b611a1b57611a1686868686612635565b611a89565b604051639700320360e01b81526001600160a01b03821690639700320390611a499089908990600401613f61565b6020604051808303815f875af1158015611a65573d5f5f3e3d5ffd5b505050506040513d601f19601f82011682018060405250810190611a899190613dcc565b9695505050505050565b5f5f8360010183604051611aa79190613e93565b9081526020016040518091039020549050805f14611c37575f611acb600183614078565b85549091505f90611ade90600190614078565b9050808214611bdc575f865f018281548110611afc57611afc613e9e565b905f5260205f20018054611b0f90613eb2565b80601f0160208091040260200160405190810160405280929190818152602001828054611b3b90613eb2565b8015611b865780601f10611b5d57610100808354040283529160200191611b86565b820191905f5260205f20905b815481529060010190602001808311611b6957829003601f168201915b5050505050905080875f018481548110611ba257611ba2613e9e565b905f5260205f20019081611bb691906140d9565b50838760010182604051611bca9190613e93565b90815260405190819003602001902055505b8554869080611bed57611bed614193565b600190038181905f5260205f20015f611c069190613576565b90558560010185604051611c1a9190613e93565b90815260200160405180910390205f9055600193505050506106c5565b5f9150506106c5565b5092915050565b606060ff8314611c6157611c5a83612654565b90506106c5565b818054611c6d90613eb2565b80601f0160208091040260200160405190810160405280929190818152602001828054611c9990613eb2565b8015611ce45780601f10611cbb57610100808354040283529160200191611ce4565b820191905f5260205f20905b815481529060010190602001808311611cc757829003601f168201915b505050505090506106c5565b7f0a47d913d72b2639f4ca1c145cc07ddf7170b73b257c8e0d4fced7cc8e3e3900611d1a84610b7a565b8490611d3c576040516360fa2b2360e01b8152600401610be391815260200190565b5060405163ecd0596160e01b8152600481018590526001600160a01b0384169063ecd0596190602401602060405180830381865afa158015611d80573d5f5f3e3d5ffd5b505050506040513d601f19601f82011682018060405250810190611da491906141a7565b84849091611dd757604051638f89476f60e01b815260048101929092526001600160a01b03166024820152604401610be3565b505060018403611e2557611deb8184612691565b84849091611e1e576040516395d48a5b60e01b815260048101929092526001600160a01b03166024820152604401610be3565b5050611edf565b60028403611e3a57611deb6002820184612691565b60038403611edf575f611e4c836126a5565b6001600160e01b031982165f908152600485016020526040902054909450909150859085906001600160a01b031615611eaa576040516395d48a5b60e01b815260048101929092526001600160a01b03166024820152604401610be3565b50506001600160e01b0319165f908152600482016020526040902080546001600160a01b0319166001600160a01b0385161790555b6040516306d61fe760e41b81526001600160a01b03841690636d61fe7090611f0b908590600401613b03565b5f604051808303815f87803b158015611f22575f5ffd5b505af1158015611f34573d5f5f3e3d5ffd5b5050604080518781526001600160a01b03871660208201527fd21d0b289f126c4b473ea641963e766833c2f13866e4ff480abd787c100ef12393500190505b60405180910390a150505050565b5f828218828410028218610746565b5f82610709611fac84611fa8845f9081526020902090565b0190565b90565b5f611fba8383610f94565b6120075782546001810184555f8481526020902001611fd983826140d9565b5082546040516001850190611fef908590613e93565b908152604051908190036020019020555060016106c5565b505f6106c5565b6120166126e7565b61149857604051631afcd79f60e31b815260040160405180910390fd5b61203b61200e565b61204482611395565b610f9081610e89565b7f0a47d913d72b2639f4ca1c145cc07ddf7170b73b257c8e0d4fced7cc8e3e390061207784610b7a565b8490612099576040516360fa2b2360e01b8152600401610be391815260200190565b50600184036120e6576120ac8184612700565b848490916120df57604051631343d68d60e01b815260048101929092526001600160a01b03166024820152604401610be3565b505061219f565b600284036120fb576120ac6002820184612700565b6003840361219f575f61210d836126a5565b935090506001600160a01b03841661212482611790565b6001600160a01b031614801561214257506001600160a01b03841615155b8585909161217557604051631343d68d60e01b815260048101929092526001600160a01b03166024820152604401610be3565b50506001600160e01b0319165f908152600482016020526040902080546001600160a01b03191690555b6121e383836040516024016121b49190613b03565b60408051601f198184030181529190526020810180516001600160e01b0316638a91b0e360e01b179052612714565b50604080518581526001600160a01b03851660208201527f341347516a9de374859dfda710fa4828b2d48cb57d4fbe4c1149612b8e02276e9101611f73565b5f601f8260ff16111561224857604051631dd4bb1b60e11b815260040160405180910390fd5b506008021b6001600160f81b03191690565b5f601c8260ff16111561228057604051631dd4bb1b60e11b815260040160405180910390fd5b506008021b6001600160e01b03191690565b5f600a8260ff1611156122b857604051631dd4bb1b60e11b815260040160405180910390fd5b506008021b69ffffffffffffffffffff191690565b60605f5f6122da866115c8565b5050915091506122ed825f60f81b611606565b15612306576122fd858583612720565b92505050610746565b61231482600160f81b611606565b15612324576122fd85858361279c565b612336826001600160f81b0319611606565b15612346576122fd8585836128c2565b6040516358df354b60e11b81526001600160f81b031983166004820152602401610be3565b365f8080838186604281101561239357505f955085945084935083925082915081905061245a565b60011981015f6123a58a83818e613e04565b6123ae916141c6565b60f01c9050604281018310156123d957505f975087965086955085945084935083925061245a915050565b5f81830390505f6020820390505f6020820390508d8d5f9083926123ff93929190613e04565b9b509b508d8d8290849261241593929190613e04565b61241e916141fc565b99508d8d8390859261243293929190613e04565b61243b916141fc565b98508d8d8490879261244f93929190613e04565b975097505050505050505b9295509295509295565b60405161190160f01b8152600281019290925260228201526042902090565b5f365f365f6124928989612938565b93509350935093506124a8848484848b8b612aaf565b9998505050505050505050565b5f610709848484612afe565b7f983e65e5148e570cd828ead231ee759a8d7958721a768f93bc4483ba005c32de5f9081526020829052604081206106c5565b5f306001600160a01b037f00000000000000000000000000000000000000000000000000000000000000001614801561254c57507f000000000000000000000000000000000000000000000000000000000000000046145b1561257657507f000000000000000000000000000000000000000000000000000000000000000090565b610b38604080517f8b73c3c69bb8fe3d512ecc4cf759cc79239f7b179b0ffacaa9a75d522b39400f60208201527f0000000000000000000000000000000000000000000000000000000000000000918101919091527f000000000000000000000000000000000000000000000000000000000000000060608201524660808201523060a08201525f9060c00160405160208183030381529060405280519060200120905090565b5f61262c602083013582612b3a565b60601c92915050565b5f61263f84611937565b61264a576001610706565b505f949350505050565b60605f61266083612b72565b6040805160208082528183019092529192505f91906020820181803683375050509182525060208101929092525090565b5f610746836001600160a01b038416612b99565b5f606060038351116126ca5760405163fa29871160e01b815260040160405180910390fd5b6126d383614219565b6126de846004612bde565b91509150915091565b5f6126f0611468565b54600160401b900460ff16919050565b5f610746836001600160a01b038416612bec565b5f610746835f846117d3565b60605f5f365f6127308888612cc6565b6040805160018082528183019092529498509296509094509250816020015b606081526020019060019003908161274f5790505094506127745f8786868686612d0a565b855f8151811061278657612786613e9e565b6020026020010181905250505050509392505050565b6060365f6127aa8686612d8f565b9092509050806001600160401b038111156127c7576127c76136a0565b6040519080825280602002602001820160405280156127fa57816020015b60608152602001906001900390816127e55790505b5092505f5b81811015610b5d5761289d818685858581811061281e5761281e613e9e565b90506020028101906128309190614257565b61283e906020810190614275565b86868681811061285057612850613e9e565b90506020028101906128629190614257565b6020013587878781811061287857612878613e9e565b905060200281019061288a9190614257565b612898906040810190613d8a565b612d0a565b8482815181106128af576128af613e9e565b60209081029190910101526001016127ff565b60605f365f6128d18787612e54565b6040805160018082528183019092529396509194509250816020015b60608152602001906001900390816128ed5790505093506129115f86858585612e7e565b845f8151811061292357612923613e9e565b60200260200101819052505050509392505050565b365f818185858015612a9757602960f81b8282612956600182614078565b81811061296557612965613e9e565b9050013560f81c60f81b6001600160f81b03191603612a06575f5b81811015612a00575f83838381811061299b5761299b613e9e565b909101356001600160f81b031916915050601b60fb1b81016129e357815f036129c45750612a00565b6129d0825f8587613e04565b8b8b975097509750975050505050612aa6565b6129ec81612f0c565b156129f75750612a00565b50600101612980565b50612a97565b805b8015612a95575f8383612a1c600185614078565b818110612a2b57612a2b613e9e565b909101356001600160f81b03191691505060d760f81b8101612a7057612a5383838187613e04565b612a5f845f8789613e04565b975097509750975050505050612aa6565b612a7981612f0c565b15612a845750612a95565b50612a8e8161428e565b9050612a08565b505b5f805f80955095509550955050505b92959194509250565b5f8515612af157612ac287878787612f7e565b8383604051602001612ad6939291906142a3565b60405160208183030381529060405280519060200120612af3565b5f5b979650505050505050565b5f818103612b0d57505f610746565b5f80612b1b848601866142ba565b91509150612b2882612fb6565b8015611a895750611a89868383612ffc565b5f600c8260ff161115612b6057604051631dd4bb1b60e11b815260040160405180910390fd5b506008021b6001600160601b03191690565b5f60ff8216601f8111156106c557604051632cd44ac360e21b815260040160405180910390fd5b5f81815260018301602052604081205461200757508154600181810184555f8481526020808220909301849055845484825282860190935260409020919091556106c5565b60606107468383855161304b565b5f8181526001830160205260408120548015611c37575f612c0e600183614078565b85549091505f90612c2190600190614078565b9050808214612c80575f865f018281548110612c3f57612c3f613e9e565b905f5260205f200154905080875f018481548110612c5f57612c5f613e9e565b5f918252602080832090910192909255918252600188019052604090208390555b8554869080612c9157612c91614193565b600190038181905f5260205f20015f90559055856001015f8681526020019081526020015f205f9055600193505050506106c5565b5f803681612cd48587613eea565b60601c9350612ce7603460148789613e04565b612cf0916141fc565b9250612cff8560348189613e04565b949793965094505050565b60605f806001600160a01b03871615612d235786612d25565b305b6001600160a01b0316868686604051612d3f92919061431d565b5f6040518083038185875af1925050503d805f8114612d79576040519150601f19603f3d011682016040523d82523d5f602084013e612d7e565b606091505b50915091506124a8898984846130cb565b365f826020811015612db45760405163eb0bcc5d60e01b815260040160405180910390fd5b5f612dc26020828789613e04565b612dcb916141fc565b9050601f198201811115612df25760405163eb0bcc5d60e01b815260040160405180910390fd5b5f612e026020830183888a613e04565b612e0b916141fc565b90506001600160401b03811180612e29575080602002602083850303105b15612e475760405163eb0bcc5d60e01b815260040160405180910390fd5b9501602001959350505050565b5f3681612e618486613eea565b60601c9250612e738460148188613e04565b915091509250925092565b60605f806001600160a01b03861615612e975785612e99565b305b6001600160a01b03168585604051612eb292919061431d565b5f60405180830381855af49150503d805f8114612eea576040519150601f19603f3d011682016040523d82523d5f602084013e612eef565b606091505b5091509150612f00888884846130cb565b98975050505050505050565b5f6001600160f81b031982161580612f3157506001600160f81b03198216600160fd1b145b80612f4957506001600160f81b03198216600b60fa1b145b80612f6157506001600160f81b03198216600560fb1b145b806106c557506001600160f81b03198216602960f81b1492915050565b5f84848484604051602001612f96949392919061432c565b604051602081830303815290604052805190602001209050949350505050565b5f612fe87fdfe169305a533e288e0557da8d289146d3cc75fa6e04c87599b048a60a4e5602546001600160401b031690565b6001600160401b0316825110159050919050565b5f805b835181101561303f5761302a84828151811061301d5761301d613e9e565b602002602001015161081b565b613037575f915050610746565b600101612fff565b50610709848484613170565b6060613058828551611f81565b91506130648383611f81565b92505f6130718484614078565b6001600160401b03811115613088576130886136a0565b6040519080825280601f01601f1916602001820160405280156130b2576020820181803683370190505b509050838303846020870101602083015e949350505050565b60606130d7845f611606565b156130ec576130e68383613252565b50613168565b6130fa84600160f81b611606565b15613143578261313e577f2eea2f51f83910481f4b5ba28b7003a6e045d4b59f67dfff8d4c90119405008985836040516131359291906143d7565b60405180910390a15b613168565b6040516323a2408560e01b81526001600160f81b031985166004820152602401610be3565b509392505050565b5f815183511461318157505f610746565b5f805b8451811015613246575f8582815181106131a0576131a0613e9e565b602002602001015190506131ce81888785815181106131c1576131c1613e9e565b602002602001015161328f565b6131dd575f9350505050610746565b80516020820120808410156131f45780935061323c565b5f5b8381101561323a5787818151811061321057613210613e9e565b6020026020010151805190602001208203613232575f95505050505050610746565b6001016131f6565b505b5050600101613184565b50600195945050505050565b606082156132615750806106c5565b81511561327657613271826133a7565b6106c5565b60405163d6bda27560e01b815260040160405180910390fd5b5f6014845110156132a157505f610746565b83516014036132c7576132c06132b6856143ef565b60601c84846133af565b9050610746565b5f806132d2866143ef565b60601c6132e0876014612bde565b86866040516024016132f493929190614429565b60408051601f198184030181529181526020820180516001600160e01b031662495a6360e31b179052516133289190613e93565b5f60405180830381855afa9150503d805f8114613360576040519150601f19603f3d011682016040523d82523d5f602084013e613365565b606091505b509150915081801561337957506020815110155b80156122fd5750805162495a6360e31b9061339d9083016020908101908401613dcc565b1492505050610746565b805160208201fd5b5f836001600160a01b03163b5f0361340c575f5f6133cd8585613417565b5090925090505f8160038111156133e6576133e6614453565b1480156122fd5750856001600160a01b0316826001600160a01b03161492505050610746565b6132c084848461345d565b5f5f5f835160410361344e576020840151604085015160608601515f1a613440888285856134ae565b955095509550505050611962565b505081515f9150600290611962565b805160408051630b135d3f60e11b8082526004820186905260248201929092525f92906020820185604483015e60205f60648401838a5afa9050825f5114601f3d1116811693505050509392505050565b5f80807f7fffffffffffffffffffffffffffffff5d576e7357a4501ddfe92f46681b20a08411156134e757505f9150600390508261356c565b604080515f808252602082018084528a905260ff891692820192909252606081018790526080810186905260019060a0016020604051602081039080840390855afa158015613538573d5f5f3e3d5ffd5b5050604051601f1901519150506001600160a01b03811661356357505f92506001915082905061356c565b92505f91508190505b9450945094915050565b50805461358290613eb2565b5f825580601f10613591575050565b601f0160209004905f5260205f209061149891905f5b80821115611463575f818401556001016135a7565b6001600160e01b03198116811461075e575f5ffd5b5f602082840312156135e1575f5ffd5b8135610746816135bc565b80356001600160a01b0381168114613602575f5ffd5b919050565b5f5f83601f840112613617575f5ffd5b5081356001600160401b0381111561362d575f5ffd5b602083019150836020828501011115613644575f5ffd5b9250929050565b5f5f5f5f6060858703121561365e575f5ffd5b8435935061366e602086016135ec565b925060408501356001600160401b03811115613688575f5ffd5b61369487828801613607565b95989497509550505050565b634e487b7160e01b5f52604160045260245ffd5b604051601f8201601f191681016001600160401b03811182821017156136dc576136dc6136a0565b604052919050565b5f6001600160401b038211156136fc576136fc6136a0565b50601f01601f191660200190565b5f82601f830112613719575f5ffd5b813561372c613727826136e4565b6136b4565b818152846020838601011115613740575f5ffd5b816020850160208301375f918101602001919091529392505050565b5f5f5f5f6080858703121561376f575f5ffd5b613778856135ec565b9350613786602086016135ec565b92506040850135915060608501356001600160401b038111156137a7575f5ffd5b6137b38782880161370a565b91505092959194509250565b5f5f5f604084860312156137d1575f5ffd5b8335925060208401356001600160401b038111156137ed575f5ffd5b6137f986828701613607565b9497909650939450505050565b80356001600160401b0381168114613602575f5ffd5b5f6020828403121561382c575f5ffd5b61074682613806565b5f5f5f60608486031215613847575f5ffd5b83356001600160401b0381111561385c575f5ffd5b8401610120818703121561386e575f5ffd5b95602085013595506040909401359392505050565b5f60208284031215613893575f5ffd5b81356001600160c01b0381168114610746575f5ffd5b5f602082840312156138b9575f5ffd5b81356001600160401b038111156138ce575f5ffd5b6107098482850161370a565b5f6001600160401b038211156138f2576138f26136a0565b5060051b60200190565b5f82601f83011261390b575f5ffd5b8135613919613727826138da565b8082825260208201915060208360051b86010192508583111561393a575f5ffd5b602085015b8381101561138b5780356001600160401b0381111561395c575f5ffd5b61396b886020838a010161370a565b8452506020928301920161393f565b5f6020828403121561398a575f5ffd5b81356001600160401b0381111561399f575f5ffd5b610709848285016138fc565b5f81518084528060208401602086015e5f602082860101526020601f19601f83011685010191505092915050565b60ff60f81b8816815260e060208201525f6139f760e08301896139ab565b8281036040840152613a0981896139ab565b606084018890526001600160a01b038716608085015260a0840186905283810360c0850152845180825260208087019350909101905f5b81811015613a5e578351835260209384019390920191600101613a40565b50909b9a5050505050505050505050565b5f5f60408385031215613a80575f5ffd5b613a8983613806565b9150613a9760208401613806565b90509250929050565b5f602082016020835280845180835260408501915060408160051b8601019250602086015f5b82811015613af757603f19878603018452613ae28583516139ab565b94506020938401939190910190600101613ac6565b50929695505050505050565b602081525f61074660208301846139ab565b5f5f60408385031215613b26575f5ffd5b82356001600160401b03811115613b3b575f5ffd5b613b47858286016138fc565b925050613a9760208401613806565b5f82601f830112613b65575f5ffd5b8135613b73613727826138da565b8082825260208201915060208360051b860101925085831115613b94575f5ffd5b602085015b8381101561138b578035835260209283019201613b99565b5f5f5f5f5f60a08688031215613bc5575f5ffd5b613bce866135ec565b9450613bdc602087016135ec565b935060408601356001600160401b03811115613bf6575f5ffd5b613c0288828901613b56565b93505060608601356001600160401b03811115613c1d575f5ffd5b613c2988828901613b56565b92505060808601356001600160401b03811115613c44575f5ffd5b613c508882890161370a565b9150509295509295909350565b5f60208284031215613c6d575f5ffd5b5035919050565b5f5f5f5f5f60a08688031215613c88575f5ffd5b613c91866135ec565b9450613c9f602087016135ec565b9350604086013592506060860135915060808601356001600160401b03811115613c44575f5ffd5b81835281816020850137505f828201602090810191909152601f909101601f19169091010190565b60018060a01b0385168152836020820152606060408201525f611a89606083018486613cc7565b5f60208284031215613d26575f5ffd5b81516001600160401b03811115613d3b575f5ffd5b8201601f81018413613d4b575f5ffd5b8051613d59613727826136e4565b818152856020838501011115613d6d575f5ffd5b8160208401602083015e5f91810160200191909152949350505050565b5f5f8335601e19843603018112613d9f575f5ffd5b8301803591506001600160401b03821115613db8575f5ffd5b602001915036819003821315613644575f5ffd5b5f60208284031215613ddc575f5ffd5b5051919050565b8284823760609190911b6001600160601b0319169101908152601401919050565b5f5f85851115613e12575f5ffd5b83861115613e1e575f5ffd5b5050820193919092039150565b80356001600160e01b03198116906004841015611c40576001600160e01b031960049490940360031b84901b1690921692915050565b5f60208284031215613e71575f5ffd5b8151610746816135bc565b5f81518060208401855e5f93019283525090919050565b5f6107468284613e7c565b634e487b7160e01b5f52603260045260245ffd5b600181811c90821680613ec657607f821691505b602082108103613ee457634e487b7160e01b5f52602260045260245ffd5b50919050565b80356001600160601b03198116906014841015611c40576001600160601b031960149490940360031b84901b1690921692915050565b5f5f8335601e19843603018112613f35575f5ffd5b83016020810192503590506001600160401b03811115613f53575f5ffd5b803603821315613644575f5ffd5b60408152613f8260408201613f75856135ec565b6001600160a01b03169052565b602083013560608201525f613f9a6040850185613f20565b6101206080850152613fb161016085018284613cc7565b915050613fc16060860186613f20565b848303603f190160a0860152613fd8838284613cc7565b608088013560c08781019190915260a089013560e0808901919091529089013561010088015290935061401092508701905086613f20565b848303603f1901610120860152614028838284613cc7565b9250505061403a610100860186613f20565b848303603f1901610140860152614052838284613cc7565b93505050508260208301529392505050565b634e487b7160e01b5f52601160045260245ffd5b818103818111156106c5576106c5614064565b601f821115611463578282111561146357805f5260205f20601f840160051c60208510156140b657505f5b90810190601f840160051c035f5b81811015611657575f838201556001016140c4565b81516001600160401b038111156140f2576140f26136a0565b614106816141008454613eb2565b8461408b565b6020601f821160018114614138575f83156141215750848201515b5f19600385901b1c1916600184901b17845561124f565b5f84815260208120601f198516915b828110156141675787850151825560209485019460019092019101614147565b508482101561418457868401515f19600387901b60f8161c191681555b50505050600190811b01905550565b634e487b7160e01b5f52603160045260245ffd5b5f602082840312156141b7575f5ffd5b81518015158114610746575f5ffd5b80356001600160f01b03198116906002841015611c40576001600160f01b031960029490940360031b84901b1690921692915050565b803560208310156106c5575f19602084900360031b1b1692915050565b805160208201516001600160e01b0319811691906004821015614250576001600160e01b0319600483900360031b81901b82161692505b5050919050565b5f8235605e1983360301811261426b575f5ffd5b9190910192915050565b5f60208284031215614285575f5ffd5b610746826135ec565b5f8161429c5761429c614064565b505f190190565b8381528260208201525f6107066040830184613e7c565b5f5f604083850312156142cb575f5ffd5b82356001600160401b038111156142e0575f5ffd5b6142ec858286016138fc565b92505060208301356001600160401b03811115614307575f5ffd5b614313858286016138fc565b9150509250929050565b818382375f9101908152919050565b6d0a8f2e0cac888c2e8c2a6d2cedc560931b81528385600e8301375f8482017f20636f6e74656e74732c737472696e67206e616d652c737472696e6720766572600e8201527f73696f6e2c75696e7432353620636861696e49642c6164647265737320766572602e8201527f696679696e67436f6e74726163742c627974657333322073616c742900000000604e8201528385606a8301375f9301606a019283525090949350505050565b828152604060208201525f61070960408301846139ab565b805160208201516001600160601b0319811691906014821015614250576001600160601b031960149290920360031b82901b161692915050565b606081525f61443b60608301866139ab565b8460208401528281036040840152611a8981856139ab565b634e487b7160e01b5f52602160045260245ffdfe406f70656e7a657070656c696e2f636f6e7472616374732e4163636f756e7445524337353739486f6f6b65642e76312e302e30dfe169305a533e288e0557da8d289146d3cc75fa6e04c87599b048a60a4e5600a26469706673582212202f72437e8463ad5b2c5d7e7975ad396ed925bea04cdbbe395f644b4044d3063564736f6c63430008230033', \n     arguments: [\n     ]\n}).send({\n     from: web3.eth.accounts[0], \n     gas: '4700000'\n   }, function (e, contract){\n    console.log(e, contract);\n    if (typeof contract.address !== 'undefined') {\n         console.log('Contract mined! address: ' + contract.address + ' transactionHash: ' + contract.transactionHash);\n    }\n })",
	"functionHashes": {
		"9cfd7cff": "accountId()",
		"96d4110b": "addSigners(bytes[])",
		"84b0196e": "eip712Domain()",
		"b0d691fe": "entryPoint()",
		"e9ae5c53": "execute(bytes32,bytes)",
		"d691c964": "executeFromExecutor(bytes32,bytes)",
		"d087d288": "getNonce()",
		"3e1b0812": "getNonce(uint192)",
		"b715be81": "getSignerCount()",
		"95fcd041": "getSigners(uint64,uint64)",
		"7f5a7c7b": "hook()",
		"9ddfdaf9": "initialize(bytes[],uint64)",
		"9517e29f": "installModule(uint256,address,bytes)",
		"112d3a7d": "isModuleInstalled(uint256,address,bytes)",
		"43b98665": "isSigner(bytes)",
		"1626ba7e": "isValidSignature(bytes32,bytes)",
		"bc197c81": "onERC1155BatchReceived(address,address,uint256[],uint256[],bytes)",
		"f23a6e61": "onERC1155Received(address,address,uint256,uint256,bytes)",
		"150b7a02": "onERC721Received(address,address,uint256,bytes)",
		"7cc2046b": "removeSigners(bytes[])",
		"17c4de35": "setThreshold(uint64)",
		"d03c7914": "supportsExecutionMode(bytes32)",
		"01ffc9a7": "supportsInterface(bytes4)",
		"f2dc691d": "supportsModule(uint256)",
		"42cde4e8": "threshold()",
		"a71763a8": "uninstallModule(uint256,address,bytes)",
		"19822f7c": "validateUserOp((address,uint256,bytes,bytes,bytes32,uint256,bytes32,bytes,bytes),bytes32,uint256)"
	},
	"gasEstimates": {
		"Creation": {
			"codeDepositCost": "3529600",
			"executionCost": "infinite",
			"totalCost": "infinite"
		},
		"External": {
			"": "infinite",
			"accountId()": "infinite",
			"addSigners(bytes[])": "infinite",
			"eip712Domain()": "infinite",
			"entryPoint()": "301",
			"execute(bytes32,bytes)": "infinite",
			"executeFromExecutor(bytes32,bytes)": "infinite",
			"getNonce()": "infinite",
			"getNonce(uint192)": "infinite",
			"getSignerCount()": "infinite",
			"getSigners(uint64,uint64)": "infinite",
			"hook()": "2412",
			"initialize(bytes[],uint64)": "infinite",
			"installModule(uint256,address,bytes)": "infinite",
			"isModuleInstalled(uint256,address,bytes)": "infinite",
			"isSigner(bytes)": "infinite",
			"isValidSignature(bytes32,bytes)": "infinite",
			"onERC1155BatchReceived(address,address,uint256[],uint256[],bytes)": "infinite",
			"onERC1155Received(address,address,uint256,uint256,bytes)": "infinite",
			"onERC721Received(address,address,uint256,bytes)": "infinite",
			"removeSigners(bytes[])": "infinite",
			"setThreshold(uint64)": "infinite",
			"supportsExecutionMode(bytes32)": "infinite",
			"supportsInterface(bytes4)": "476",
			"supportsModule(uint256)": "515",
			"threshold()": "2368",
			"uninstallModule(uint256,address,bytes)": "infinite",
			"validateUserOp((address,uint256,bytes,bytes,bytes32,uint256,bytes32,bytes,bytes),bytes32,uint256)": "infinite"
		},
		"Internal": {
			"_rawSignatureValidation(bytes32,bytes calldata)": "infinite",
			"_validateUserOp(struct PackedUserOperation calldata,bytes32,bytes calldata)": "infinite"
		}
	},
	"devdoc": {
		"custom:security-contact": "bahansatekambing@gmail.com",
		"errors": {
			"AccountUnauthorized(address)": [
				{
					"details": "Unauthorized call to the account."
				}
			],
			"ERC7579AlreadyInstalledModule(uint256,address)": [
				{
					"details": "The module is already installed."
				}
			],
			"ERC7579CannotDecodeFallbackData()": [
				{
					"details": "The provided initData/deInitData for a fallback module is too short to extract a selector."
				}
			],
			"ERC7579DecodingError()": [
				{
					"details": "Input calldata not properly formatted and possibly malicious."
				}
			],
			"ERC7579HookModuleAlreadyPresent(address)": [
				{
					"details": "A hook module is already present. This contract only supports one hook module."
				}
			],
			"ERC7579MismatchedModuleTypeId(uint256,address)": [
				{
					"details": "The provided module doesn't match the provided module type."
				}
			],
			"ERC7579MissingFallbackHandler(bytes4)": [
				{
					"details": "The account's {fallback} was called with a selector that doesn't have an installed handler."
				}
			],
			"ERC7579UninstalledModule(uint256,address)": [
				{
					"details": "The module is not installed."
				}
			],
			"ERC7579UnsupportedCallType(bytes1)": [
				{
					"details": "The provided {CallType} is not supported."
				}
			],
			"ERC7579UnsupportedExecType(bytes1)": [
				{
					"details": "The provided {ExecType} is not supported."
				}
			],
			"ERC7579UnsupportedModuleType(uint256)": [
				{
					"details": "The module type is not supported."
				}
			],
			"FailedCall()": [
				{
					"details": "A call to an address target failed. The target may have reverted."
				}
			],
			"InvalidInitialization()": [
				{
					"details": "The contract is already initialized."
				}
			],
			"MultiSignerERC7913AlreadyExists(bytes)": [
				{
					"details": "The `signer` already exists."
				}
			],
			"MultiSignerERC7913InvalidSigner(bytes)": [
				{
					"details": "The `signer` is less than 20 bytes long."
				}
			],
			"MultiSignerERC7913NonexistentSigner(bytes)": [
				{
					"details": "The `signer` does not exist."
				}
			],
			"MultiSignerERC7913UnreachableThreshold(uint64,uint64)": [
				{
					"details": "The `threshold` is unreachable given the number of `signers`."
				}
			],
			"MultiSignerERC7913ZeroThreshold()": [
				{
					"details": "The `threshold` is zero."
				}
			],
			"NotInitializing()": [
				{
					"details": "The contract is not initializing."
				}
			]
		},
		"events": {
			"EIP712DomainChanged()": {
				"details": "MAY be emitted to signal that the domain could have changed."
			},
			"ERC7579TryExecuteFail(uint256,bytes)": {
				"details": "Emits when an {EXECTYPE_TRY} execution fails.",
				"params": {
					"batchExecutionIndex": "The index of the failed call in the execution batch.",
					"returndata": "The returned data from the failed call."
				}
			},
			"ERC7913SignerAdded(bytes)": {
				"details": "Emitted when a signer is added."
			},
			"ERC7913SignerRemoved(bytes)": {
				"details": "Emitted when a signers is removed."
			},
			"ERC7913ThresholdSet(uint64)": {
				"details": "Emitted when the threshold is updated."
			},
			"Initialized(uint64)": {
				"details": "Triggered when the contract has been initialized or reinitialized."
			}
		},
		"kind": "dev",
		"methods": {
			"accountId()": {
				"details": "Returns the account id of the smart account",
				"returns": {
					"_0": "the account id of the smart account MUST return a non-empty string The accountId SHOULD be structured like so:        \"vendorname.accountname.semver\" The id SHOULD be unique across all smart accounts"
				}
			},
			"constructor": {
				"custom:oz-upgrades-unsafe-allow-reachable": "constructor"
			},
			"eip712Domain()": {
				"details": "returns the fields and values that describe the domain separator used by this contract for EIP-712 signature."
			},
			"entryPoint()": {
				"details": "Canonical entry point for the account that forwards and validates user operations."
			},
			"execute(bytes32,bytes)": {
				"details": "Executes a transaction on behalf of the account.",
				"params": {
					"executionCalldata": "The encoded execution call data MUST ensure adequate authorization control: e.g. onlyEntryPointOrSelf if used with ERC-4337 If a mode is requested that is not supported by the Account, it MUST revert",
					"mode": "The encoded execution mode of the transaction. See account/utils/draft-ERC7579Utils.sol (Mode encoding via encodeMode/decodeMode) for details"
				}
			},
			"executeFromExecutor(bytes32,bytes)": {
				"details": "Executes a transaction on behalf of the account.         This function is intended to be called by Executor Modules",
				"params": {
					"executionCalldata": "The encoded execution call data",
					"mode": "The encoded execution mode of the transaction. See account/utils/draft-ERC7579Utils.sol (Mode encoding via encodeMode/decodeMode) for details"
				},
				"returns": {
					"returnData": "An array with the returned data of each executed subcall MUST ensure adequate authorization control: i.e. onlyExecutorModule If a mode is requested that is not supported by the Account, it MUST revert"
				}
			},
			"getNonce()": {
				"details": "Return the account nonce for the canonical sequence."
			},
			"getNonce(uint192)": {
				"details": "Return the account nonce for a given sequence (key)."
			},
			"getSignerCount()": {
				"details": "Returns the number of authorized signers"
			},
			"getSigners(uint64,uint64)": {
				"details": "Returns a slice of the set of authorized signers. Using `start = 0` and `end = type(uint64).max` will return the entire set of signers. WARNING: Depending on the `start` and `end`, this operation can copy a large amount of data to memory, which can be expensive. This is designed for view accessors queried without gas fees. Using it in state-changing functions may become uncallable if the slice grows too large."
			},
			"hook()": {
				"details": "Returns the hook module address if installed, or `address(0)` otherwise."
			},
			"installModule(uint256,address,bytes)": {
				"details": "Installs a Module of a certain type on the smart account",
				"params": {
					"initData": "arbitrary data that may be passed to the module during `onInstall` initialization. MUST implement authorization control MUST call `onInstall` on the module with the `initData` parameter if provided MUST emit ModuleInstalled event MUST revert if the module is already installed or the initialization on the module failed",
					"module": "the module address",
					"moduleTypeId": "the module type ID according to the ERC-7579 spec"
				}
			},
			"isModuleInstalled(uint256,address,bytes)": {
				"details": "Returns whether a module is installed on the smart account",
				"params": {
					"additionalContext": "arbitrary data that may be passed to determine if the module is installed MUST return true if the module is installed and false otherwise",
					"module": "the module address",
					"moduleTypeId": "the module type ID according the ERC-7579 spec"
				}
			},
			"isSigner(bytes)": {
				"details": "Returns whether the `signer` is an authorized signer."
			},
			"onERC721Received(address,address,uint256,bytes)": {
				"details": "See {IERC721Receiver-onERC721Received}. Always returns `IERC721Receiver.onERC721Received.selector`."
			},
			"supportsExecutionMode(bytes32)": {
				"details": "Supported call types: * Single (`0x00`): A single transaction execution. * Batch (`0x01`): A batch of transactions execution. * Delegate (`0xff`): A delegate call execution. Supported exec types: * Default (`0x00`): Default execution type (revert on failure). * Try (`0x01`): Try execution type (emits ERC7579TryExecuteFail on failure).",
				"params": {
					"encodedMode": "the encoded mode MUST return true if the account supports the mode and false otherwise"
				}
			},
			"supportsInterface(bytes4)": {
				"details": "Returns true if this contract implements the interface defined by `interfaceId`. See the corresponding https://eips.ethereum.org/EIPS/eip-165#how-interfaces-are-identified[ERC section] to learn more about how these ids are created. This function call must use less than 30 000 gas."
			},
			"supportsModule(uint256)": {
				"details": "Supports hook modules. See {AccountERC7579-supportsModule}"
			},
			"threshold()": {
				"details": "Returns the minimum number of signers required to approve a multisignature operation."
			},
			"uninstallModule(uint256,address,bytes)": {
				"details": "Uninstalls a Module of a certain type on the smart account",
				"params": {
					"deInitData": "arbitrary data that may be passed to the module during `onUninstall` deinitialization. MUST implement authorization control MUST call `onUninstall` on the module with the `deInitData` parameter if provided MUST emit ModuleUninstalled event MUST revert if the module is not installed or the deInitialization on the module failed",
					"module": "the module address",
					"moduleTypeId": "the module type ID according the ERC-7579 spec"
				}
			},
			"validateUserOp((address,uint256,bytes,bytes,bytes32,uint256,bytes32,bytes,bytes),bytes32,uint256)": {
				"details": "Validates a user operation. * MUST validate the caller is a trusted EntryPoint * MUST validate that the signature is a valid signature of the userOpHash, and SHOULD   return SIG_VALIDATION_FAILED (and not revert) on signature mismatch. Any other error MUST revert. * MUST pay the entryPoint (caller) at least the “missingAccountFunds” (which might   be zero, in case the current account’s deposit is high enough) Returns an encoded packed validation data that is composed of the following elements: - `authorizer` (`address`): 0 for success, 1 for failure, otherwise the address of an authorizer contract - `validUntil` (`uint48`): The UserOp is valid only up to this time. Zero for “infinite”. - `validAfter` (`uint48`): The UserOp is valid only after this time."
			}
		},
		"version": 1
	},
	"userdoc": {
		"kind": "user",
		"methods": {},
		"version": 1
	},
	"Runtime Bytecode": {
		"immutableReferences": {
			"13731": [
				{
					"length": 32,
					"start": 9556
				}
			],
			"13733": [
				{
					"length": 32,
					"start": 9514
				}
			],
			"13735": [
				{
					"length": 32,
					"start": 9472
				}
			],
			"13737": [
				{
					"length": 32,
					"start": 9637
				}
			],
			"13739": [
				{
					"length": 32,
					"start": 9677
				}
			],
			"13742": [
				{
					"length": 32,
					"start": 4218
				}
			],
			"13745": [
				{
					"length": 32,
					"start": 4262
				}
			]
		},
		"linkReferences": {},
		"object": "60806040526004361061019f575f3560e01c806395fcd041116100eb578063bc197c8111610089578063d691c96411610063578063d691c96414610518578063e9ae5c531461052b578063f23a6e611461053e578063f2dc691d14610569576101a6565b8063bc197c81146104ba578063d03c7914146104e5578063d087d28814610504576101a6565b80639ddfdaf9116100c55780639ddfdaf914610442578063a71763a814610461578063b0d691fe14610480578063b715be81146104a6576101a6565b806395fcd041146103d657806396d4110b146104025780639cfd7cff14610421576101a6565b80633e1b0812116101585780637cc2046b116101325780637cc2046b146103455780637f5a7c7b1461036457806384b0196e146103905780639517e29f146103b7576101a6565b80633e1b0812146102c157806342cde4e8146102e057806343b9866514610326576101a6565b806301ffc9a7146101be578063112d3a7d146101f2578063150b7a02146102115780631626ba7e1461025457806317c4de351461027357806319822f7c14610294576101a6565b366101a657005b5f3660606101b2610588565b80519350602001915050f35b3480156101c9575f5ffd5b506101dd6101d83660046135d1565b610695565b60405190151581526020015b60405180910390f35b3480156101fd575f5ffd5b506101dd61020c36600461364b565b6106cb565b34801561021c575f5ffd5b5061023b61022b36600461375c565b630a85bd0160e11b949350505050565b6040516001600160e01b031990911681526020016101e9565b34801561025f575f5ffd5b5061023b61026e3660046137bf565b610711565b34801561027e575f5ffd5b5061029261028d36600461381c565b61074d565b005b34801561029f575f5ffd5b506102b36102ae366004613835565b610761565b6040519081526020016101e9565b3480156102cc575f5ffd5b506102b36102db366004613883565b61078e565b3480156102eb575f5ffd5b507fdfe169305a533e288e0557da8d289146d3cc75fa6e04c87599b048a60a4e5602546040516001600160401b0390911681526020016101e9565b348015610331575f5ffd5b506101dd6103403660046138a9565b61081b565b348015610350575f5ffd5b5061029261035f36600461397a565b610834565b34801561036f575f5ffd5b50610378610845565b6040516001600160a01b0390911681526020016101e9565b34801561039b575f5ffd5b506103a4610873565b6040516101e997969594939291906139d9565b3480156103c2575f5ffd5b506102926103d136600461364b565b6108b5565b3480156103e1575f5ffd5b506103f56103f0366004613a6f565b610903565b6040516101e99190613aa0565b34801561040d575f5ffd5b5061029261041c36600461397a565b61092a565b34801561042c575f5ffd5b5061043561093b565b6040516101e99190613b03565b34801561044d575f5ffd5b5061029261045c366004613b15565b61095b565b34801561046c575f5ffd5b5061029261047b36600461364b565b610a5c565b34801561048b575f5ffd5b5073433709009b8330fda32311df1c2afa402ed8d009610378565b3480156104b1575f5ffd5b506102b3610aa4565b3480156104c5575f5ffd5b5061023b6104d4366004613bb1565b63bc197c8160e01b95945050505050565b3480156104f0575f5ffd5b506101dd6104ff366004613c5d565b610abe565b34801561050f575f5ffd5b506102b3610b2e565b6103f56105263660046137bf565b610b3d565b6102926105393660046137bf565b610b67565b348015610549575f5ffd5b5061023b610558366004613c74565b63f23a6e6160e01b95945050505050565b348015610574575f5ffd5b506101dd610583366004613c5d565b610b7a565b60605f610593610845565b905060606001600160a01b0382161561061d5760405163d68f602560e01b81526001600160a01b0383169063d68f6025906105d890339034905f903690600401613cef565b5f604051808303815f875af11580156105f3573d5f5f3e3d5ffd5b505050506040513d5f823e601f3d908101601f1916820160405261061a9190810190613d16565b90505b610625610b8e565b92506001600160a01b0382161561069057604051630b9dfbed60e11b81526001600160a01b0383169063173bf7da90610662908490600401613b03565b5f604051808303815f87803b158015610679575f5ffd5b505af115801561068b573d5f5f3e3d5ffd5b505050505b505090565b5f6001600160e01b03198216630271189760e51b14806106c557506301ffc9a760e01b6001600160e01b03198316145b92915050565b5f6004851480156106f457506106df610845565b6001600160a01b0316846001600160a01b0316145b80610706575061070685858585610c34565b90505b949350505050565b5f5f61071e858585610cf6565b90506001600160e01b0319808216146107375780610742565b610742858585610d73565b9150505b9392505050565b610755610e32565b61075e81610e89565b50565b5f61076a610f24565b5f610783858561077e610100830183613d8a565b610f64565b905061070983610f71565b5f73433709009b8330fda32311df1c2afa402ed8d009604051631aab3f0d60e11b81523060048201526001600160c01b03841660248201526001600160a01b0391909116906335567e1a90604401602060405180830381865afa1580156107f7573d5f5f3e3d5ffd5b505050506040513d601f19601f820116820180604052508101906106c59190613dcc565b5f5f51602061449b5f395f51905f526107468184610f94565b61083c610e32565b61075e81610fc0565b7f2b49b75317ffc1021ca7da4ca3423bf8403e18b223e63e6bc7abe8f39a5ed700546001600160a01b031690565b5f6060805f5f5f6060610884611073565b61088c61109f565b604080515f80825260208201909252600f60f81b9b939a50919850469750309650945092509050565b6108bd610e32565b6108fd848484848080601f0160208091040260200160405190810160405280939291908181526020018383808284375f920191909152506110cc92505050565b50505050565b60605f51602061449b5f395f51905f52610709816001600160401b03868116908616611256565b610932610e32565b61075e81611395565b606060405180606001604052806033815260200161446860339139905090565b5f610964611468565b805490915060ff600160401b82041615906001600160401b03165f8115801561098a5750825b90505f826001600160401b031660011480156109a55750303b155b9050811580156109b3575080155b156109d15760405163f92ee8a960e01b815260040160405180910390fd5b845467ffffffffffffffff1916600117855583156109fb57845460ff60401b1916600160401b1785555b610a03611490565b610a0d878761149a565b8315610a5357845460ff60401b19168555604051600181527fc7f505b2f371ae2175ee4913f4499e1f2633a7b5936321eed1cdaeb6115181d29060200160405180910390a15b50505050505050565b610a64610e32565b6108fd848484848080601f0160208091040260200160405190810160405280939291908181526020018383808284375f920191909152506114ac92505050565b5f51602061449b5f395f51905f5280545f91905b91505090565b5f5f5f610aca846115c8565b505091509150610add825f60f81b611606565b80610af15750610af182600160f81b611606565b80610b095750610b09826001600160f81b0319611606565b80156107095750610b1a815f611606565b80610709575061070981600160f81b611606565b5f610b385f61078e565b905090565b606060025f80610b4f83338484611618565b610b5a87878761165f565b93505b5050509392505050565b610b6f610e32565b6108fd83838361165f565b5f60048214806106c557506106c582611773565b60605f610ba55f356001600160e01b031916611790565b90506001600160e01b03195f35166001600160a01b038216610bec5760405163af5a720360e01b81526001600160e01b031990911660048201526024015b60405180910390fd5b50610c1b81345f3633604051602001610c0793929190613de3565b6040516020818303038152906040526117d3565b15610c2857610ab86117e8565b610c30611801565b5090565b5f7f0a47d913d72b2639f4ca1c145cc07ddf7170b73b257c8e0d4fced7cc8e3e39005f198601610c7057610c68818661180c565b915050610709565b60028603610c8557610c68600282018661180c565b60038603610ceb57600383118015610c6857506001600160a01b0385166004808301905f90610cb69082888a613e04565b610cbf91613e2b565b6001600160e01b031916815260208101919091526040015f20546001600160a01b031614915050610709565b505f95945050505050565b5f610d0284848461182d565b80610d135750610d13848484611919565b610d63577f773977397739773977397739773977397739773977397739773977397739773984148015610d44575081155b610d56576001600160e01b0319610709565b637739000160e01b610709565b630b135d3f60e11b949350505050565b5f60148210610e21575f365f610d89868661193e565b91945092509050610d9d6001845f806106cb565b15610e1d57604051637aa8f17760e11b81526001600160a01b0384169063f551e2ee90610dd49033908b9087908790600401613cef565b602060405180830381865afa925050508015610e0d575060408051601f3d908101601f19168201909252610e0a91810190613e61565b60015b15610e1d57935061074692505050565b5050505b506001600160e01b03199392505050565b33308114801590610e6057506001600160a01b03811673433709009b8330fda32311df1c2afa402ed8d00914155b1561075e57604051637cf8632b60e01b81526001600160a01b0382166004820152602401610be3565b5f51602061449b5f395f51905f526001600160401b038216610ebe5760405163455daa5f60e11b815260040160405180910390fd5b60028101805467ffffffffffffffff19166001600160401b038416179055610ee4611969565b6040516001600160401b03831681527fa1bcbad4ca88e748de7f039cec105095bae000486ab6533efb33a31d79bdae5e9060200160405180910390a15050565b3373433709009b8330fda32311df1c2afa402ed8d009811461075e57604051637cf8632b60e01b81526001600160a01b0382166004820152602401610be3565b5f610706858585856119ec565b801561075e57610f90338260405180602001604052805f8152506117d3565b5050565b5f8260010182604051610fa79190613e93565b9081526040519081900360200190205415159392505050565b5f51602061449b5f395f51905f525f5b825181101561106a575f838281518110610fec57610fec613e9e565b602090810291909101015190506110038382611a93565b81906110235760405163b3a2e4cb60e01b8152600401610be39190613b03565b50806040516110329190613e93565b604051908190038120907fca2ece94b660c23bf1a2a217d383d94701ca9e368a082921f2d733d010e85505905f90a250600101610fd0565b50610f90611969565b6060610b387f00000000000000000000000000000000000000000000000000000000000000005f611c47565b6060610b387f00000000000000000000000000000000000000000000000000000000000000006001611c47565b5f6110d5610845565b905060606001600160a01b0382161561115f5760405163d68f602560e01b81526001600160a01b0383169063d68f60259061111a90339034905f903690600401613cef565b5f604051808303815f875af1158015611135573d5f5f3e3d5ffd5b505050506040513d5f823e601f3d908101601f1916820160405261115c9190810190613d16565b90505b7f2b49b75317ffc1021ca7da4ca3423bf8403e18b223e63e6bc7abe8f39a5ed70060031986016111da5780546001600160a01b031680156111bf57604051630c005e8d60e11b81526001600160a01b039091166004820152602401610be3565b5080546001600160a01b0319166001600160a01b0386161781555b6111e5868686611cf0565b506001600160a01b0382161561124f57604051630b9dfbed60e11b81526001600160a01b0383169063173bf7da90611221908490600401613b03565b5f604051808303815f87803b158015611238575f5ffd5b505af115801561124a573d5f5f3e3d5ffd5b505050505b5050505050565b606061126982611264865490565b611f81565b91506112758383611f81565b92508282035f816001600160401b03811115611293576112936136a0565b6040519080825280602002602001820160405280156112c657816020015b60608152602001906001900390816112b15790505b5090505f5b8281101561138b576112df87878301611f90565b80546112ea90613eb2565b80601f016020809104026020016040519081016040528092919081815260200182805461131690613eb2565b80156113615780601f1061133857610100808354040283529160200191611361565b820191905f5260205f20905b81548152906001019060200180831161134457829003601f168201915b505050505082828151811061137857611378613e9e565b60209081029190910101526001016112cb565b5095945050505050565b5f51602061449b5f395f51905f525f5b8251811015611463575f8382815181106113c1576113c1613e9e565b6020026020010151905060148151101581906113f157604051630310775b60e21b8152600401610be39190613b03565b506113fc8382611faf565b819061141c576040516325e17a4160e01b8152600401610be39190613b03565b508060405161142b9190613e93565b604051908190038120907f4b35ca4a0708fa3d38267e28bd9478214d7166d3483f78a0f35b00697219d2b2905f90a2506001016113a5565b505050565b5f807ff0c57e16840df040f15088dc2f81fe391c3923bec73e23a9662efc9c229c6a006106c5565b61149861200e565b565b6114a261200e565b610f908282612033565b5f6114b5610845565b905060606001600160a01b0382161561153f5760405163d68f602560e01b81526001600160a01b0383169063d68f6025906114fa90339034905f903690600401613cef565b5f604051808303815f875af1158015611515573d5f5f3e3d5ffd5b505050506040513d5f823e601f3d908101601f1916820160405261153c9190810190613d16565b90505b7f2b49b75317ffc1021ca7da4ca3423bf8403e18b223e63e6bc7abe8f39a5ed70060031986016115bd578054869086906001600160a01b038083169116146115ac57604051631343d68d60e01b815260048101929092526001600160a01b03166024820152604401610be3565b505080546001600160a01b03191681555b6111e586868661204d565b5f5f5f5f6115d6855f612222565b6115e1866001612222565b6115ec87600661225a565b6115f788600a612292565b93509350935093509193509193565b6001600160f81b031990811691161490565b611624848484846106cb565b8484909161165757604051631343d68d60e01b815260048101929092526001600160a01b03166024820152604401610be3565b505050505050565b60605f61166a610845565b905060606001600160a01b038216156116f45760405163d68f602560e01b81526001600160a01b0383169063d68f6025906116af90339034905f903690600401613cef565b5f604051808303815f875af11580156116ca573d5f5f3e3d5ffd5b505050506040513d5f823e601f3d908101601f191682016040526116f19190810190613d16565b90505b6116ff8686866122cd565b92506001600160a01b0382161561176a57604051630b9dfbed60e11b81526001600160a01b0383169063173bf7da9061173c908490600401613b03565b5f604051808303815f87803b158015611753575f5ffd5b505af1158015611765573d5f5f3e3d5ffd5b505050505b50509392505050565b5f60018214806117835750600282145b806106c557505060031490565b6001600160e01b0319165f9081527f0a47d913d72b2639f4ca1c145cc07ddf7170b73b257c8e0d4fced7cc8e3e390460205260409020546001600160a01b031690565b5f5f5f83516020850186885af1949350505050565b6040513d81523d5f602083013e3d602001810160405290565b6040513d5f823e3d81fd5b6001600160a01b0381165f9081526001830160205260408120541515610746565b5f365f5f5f365f61183e898961236b565b9550955095509550955095505f5f5f5f5f611857610873565b509550955095509550955050611876888a61246490919063ffffffff16565b8f14801561188357508515155b801561190657506119066118ff6118f889898c8a805190602001208a805190602001208a8a8a6040516020016118e4959493929190948552602085019390935260408401919091526001600160a01b03166060830152608082015260a00190565b604051602081830303815290604052612483565b8b90612464565b8c8c6124b5565b9f9e505050505050505050505050505050565b5f610709611937611929866124c1565b6119316124f4565b90612464565b84846124b5565b5f368161194b8486613eea565b60601c61195b8560148189613e04565b9250925092505b9250925092565b5f51602061449b5f395f51905f5280545f6119ab7fdfe169305a533e288e0557da8d289146d3cc75fa6e04c87599b048a60a4e5602546001600160401b031690565b905081816001600160401b03811682101561124f57604051638249d75760e01b81526001600160401b03928316600482015291166024820152604401610be3565b5f5f6119f78661261d565b9050611a066001825f806106cb565b611a1b57611a1686868686612635565b611a89565b604051639700320360e01b81526001600160a01b03821690639700320390611a499089908990600401613f61565b6020604051808303815f875af1158015611a65573d5f5f3e3d5ffd5b505050506040513d601f19601f82011682018060405250810190611a899190613dcc565b9695505050505050565b5f5f8360010183604051611aa79190613e93565b9081526020016040518091039020549050805f14611c37575f611acb600183614078565b85549091505f90611ade90600190614078565b9050808214611bdc575f865f018281548110611afc57611afc613e9e565b905f5260205f20018054611b0f90613eb2565b80601f0160208091040260200160405190810160405280929190818152602001828054611b3b90613eb2565b8015611b865780601f10611b5d57610100808354040283529160200191611b86565b820191905f5260205f20905b815481529060010190602001808311611b6957829003601f168201915b5050505050905080875f018481548110611ba257611ba2613e9e565b905f5260205f20019081611bb691906140d9565b50838760010182604051611bca9190613e93565b90815260405190819003602001902055505b8554869080611bed57611bed614193565b600190038181905f5260205f20015f611c069190613576565b90558560010185604051611c1a9190613e93565b90815260200160405180910390205f9055600193505050506106c5565b5f9150506106c5565b5092915050565b606060ff8314611c6157611c5a83612654565b90506106c5565b818054611c6d90613eb2565b80601f0160208091040260200160405190810160405280929190818152602001828054611c9990613eb2565b8015611ce45780601f10611cbb57610100808354040283529160200191611ce4565b820191905f5260205f20905b815481529060010190602001808311611cc757829003601f168201915b505050505090506106c5565b7f0a47d913d72b2639f4ca1c145cc07ddf7170b73b257c8e0d4fced7cc8e3e3900611d1a84610b7a565b8490611d3c576040516360fa2b2360e01b8152600401610be391815260200190565b5060405163ecd0596160e01b8152600481018590526001600160a01b0384169063ecd0596190602401602060405180830381865afa158015611d80573d5f5f3e3d5ffd5b505050506040513d601f19601f82011682018060405250810190611da491906141a7565b84849091611dd757604051638f89476f60e01b815260048101929092526001600160a01b03166024820152604401610be3565b505060018403611e2557611deb8184612691565b84849091611e1e576040516395d48a5b60e01b815260048101929092526001600160a01b03166024820152604401610be3565b5050611edf565b60028403611e3a57611deb6002820184612691565b60038403611edf575f611e4c836126a5565b6001600160e01b031982165f908152600485016020526040902054909450909150859085906001600160a01b031615611eaa576040516395d48a5b60e01b815260048101929092526001600160a01b03166024820152604401610be3565b50506001600160e01b0319165f908152600482016020526040902080546001600160a01b0319166001600160a01b0385161790555b6040516306d61fe760e41b81526001600160a01b03841690636d61fe7090611f0b908590600401613b03565b5f604051808303815f87803b158015611f22575f5ffd5b505af1158015611f34573d5f5f3e3d5ffd5b5050604080518781526001600160a01b03871660208201527fd21d0b289f126c4b473ea641963e766833c2f13866e4ff480abd787c100ef12393500190505b60405180910390a150505050565b5f828218828410028218610746565b5f82610709611fac84611fa8845f9081526020902090565b0190565b90565b5f611fba8383610f94565b6120075782546001810184555f8481526020902001611fd983826140d9565b5082546040516001850190611fef908590613e93565b908152604051908190036020019020555060016106c5565b505f6106c5565b6120166126e7565b61149857604051631afcd79f60e31b815260040160405180910390fd5b61203b61200e565b61204482611395565b610f9081610e89565b7f0a47d913d72b2639f4ca1c145cc07ddf7170b73b257c8e0d4fced7cc8e3e390061207784610b7a565b8490612099576040516360fa2b2360e01b8152600401610be391815260200190565b50600184036120e6576120ac8184612700565b848490916120df57604051631343d68d60e01b815260048101929092526001600160a01b03166024820152604401610be3565b505061219f565b600284036120fb576120ac6002820184612700565b6003840361219f575f61210d836126a5565b935090506001600160a01b03841661212482611790565b6001600160a01b031614801561214257506001600160a01b03841615155b8585909161217557604051631343d68d60e01b815260048101929092526001600160a01b03166024820152604401610be3565b50506001600160e01b0319165f908152600482016020526040902080546001600160a01b03191690555b6121e383836040516024016121b49190613b03565b60408051601f198184030181529190526020810180516001600160e01b0316638a91b0e360e01b179052612714565b50604080518581526001600160a01b03851660208201527f341347516a9de374859dfda710fa4828b2d48cb57d4fbe4c1149612b8e02276e9101611f73565b5f601f8260ff16111561224857604051631dd4bb1b60e11b815260040160405180910390fd5b506008021b6001600160f81b03191690565b5f601c8260ff16111561228057604051631dd4bb1b60e11b815260040160405180910390fd5b506008021b6001600160e01b03191690565b5f600a8260ff1611156122b857604051631dd4bb1b60e11b815260040160405180910390fd5b506008021b69ffffffffffffffffffff191690565b60605f5f6122da866115c8565b5050915091506122ed825f60f81b611606565b15612306576122fd858583612720565b92505050610746565b61231482600160f81b611606565b15612324576122fd85858361279c565b612336826001600160f81b0319611606565b15612346576122fd8585836128c2565b6040516358df354b60e11b81526001600160f81b031983166004820152602401610be3565b365f8080838186604281101561239357505f955085945084935083925082915081905061245a565b60011981015f6123a58a83818e613e04565b6123ae916141c6565b60f01c9050604281018310156123d957505f975087965086955085945084935083925061245a915050565b5f81830390505f6020820390505f6020820390508d8d5f9083926123ff93929190613e04565b9b509b508d8d8290849261241593929190613e04565b61241e916141fc565b99508d8d8390859261243293929190613e04565b61243b916141fc565b98508d8d8490879261244f93929190613e04565b975097505050505050505b9295509295509295565b60405161190160f01b8152600281019290925260228201526042902090565b5f365f365f6124928989612938565b93509350935093506124a8848484848b8b612aaf565b9998505050505050505050565b5f610709848484612afe565b7f983e65e5148e570cd828ead231ee759a8d7958721a768f93bc4483ba005c32de5f9081526020829052604081206106c5565b5f306001600160a01b037f00000000000000000000000000000000000000000000000000000000000000001614801561254c57507f000000000000000000000000000000000000000000000000000000000000000046145b1561257657507f000000000000000000000000000000000000000000000000000000000000000090565b610b38604080517f8b73c3c69bb8fe3d512ecc4cf759cc79239f7b179b0ffacaa9a75d522b39400f60208201527f0000000000000000000000000000000000000000000000000000000000000000918101919091527f000000000000000000000000000000000000000000000000000000000000000060608201524660808201523060a08201525f9060c00160405160208183030381529060405280519060200120905090565b5f61262c602083013582612b3a565b60601c92915050565b5f61263f84611937565b61264a576001610706565b505f949350505050565b60605f61266083612b72565b6040805160208082528183019092529192505f91906020820181803683375050509182525060208101929092525090565b5f610746836001600160a01b038416612b99565b5f606060038351116126ca5760405163fa29871160e01b815260040160405180910390fd5b6126d383614219565b6126de846004612bde565b91509150915091565b5f6126f0611468565b54600160401b900460ff16919050565b5f610746836001600160a01b038416612bec565b5f610746835f846117d3565b60605f5f365f6127308888612cc6565b6040805160018082528183019092529498509296509094509250816020015b606081526020019060019003908161274f5790505094506127745f8786868686612d0a565b855f8151811061278657612786613e9e565b6020026020010181905250505050509392505050565b6060365f6127aa8686612d8f565b9092509050806001600160401b038111156127c7576127c76136a0565b6040519080825280602002602001820160405280156127fa57816020015b60608152602001906001900390816127e55790505b5092505f5b81811015610b5d5761289d818685858581811061281e5761281e613e9e565b90506020028101906128309190614257565b61283e906020810190614275565b86868681811061285057612850613e9e565b90506020028101906128629190614257565b6020013587878781811061287857612878613e9e565b905060200281019061288a9190614257565b612898906040810190613d8a565b612d0a565b8482815181106128af576128af613e9e565b60209081029190910101526001016127ff565b60605f365f6128d18787612e54565b6040805160018082528183019092529396509194509250816020015b60608152602001906001900390816128ed5790505093506129115f86858585612e7e565b845f8151811061292357612923613e9e565b60200260200101819052505050509392505050565b365f818185858015612a9757602960f81b8282612956600182614078565b81811061296557612965613e9e565b9050013560f81c60f81b6001600160f81b03191603612a06575f5b81811015612a00575f83838381811061299b5761299b613e9e565b909101356001600160f81b031916915050601b60fb1b81016129e357815f036129c45750612a00565b6129d0825f8587613e04565b8b8b975097509750975050505050612aa6565b6129ec81612f0c565b156129f75750612a00565b50600101612980565b50612a97565b805b8015612a95575f8383612a1c600185614078565b818110612a2b57612a2b613e9e565b909101356001600160f81b03191691505060d760f81b8101612a7057612a5383838187613e04565b612a5f845f8789613e04565b975097509750975050505050612aa6565b612a7981612f0c565b15612a845750612a95565b50612a8e8161428e565b9050612a08565b505b5f805f80955095509550955050505b92959194509250565b5f8515612af157612ac287878787612f7e565b8383604051602001612ad6939291906142a3565b60405160208183030381529060405280519060200120612af3565b5f5b979650505050505050565b5f818103612b0d57505f610746565b5f80612b1b848601866142ba565b91509150612b2882612fb6565b8015611a895750611a89868383612ffc565b5f600c8260ff161115612b6057604051631dd4bb1b60e11b815260040160405180910390fd5b506008021b6001600160601b03191690565b5f60ff8216601f8111156106c557604051632cd44ac360e21b815260040160405180910390fd5b5f81815260018301602052604081205461200757508154600181810184555f8481526020808220909301849055845484825282860190935260409020919091556106c5565b60606107468383855161304b565b5f8181526001830160205260408120548015611c37575f612c0e600183614078565b85549091505f90612c2190600190614078565b9050808214612c80575f865f018281548110612c3f57612c3f613e9e565b905f5260205f200154905080875f018481548110612c5f57612c5f613e9e565b5f918252602080832090910192909255918252600188019052604090208390555b8554869080612c9157612c91614193565b600190038181905f5260205f20015f90559055856001015f8681526020019081526020015f205f9055600193505050506106c5565b5f803681612cd48587613eea565b60601c9350612ce7603460148789613e04565b612cf0916141fc565b9250612cff8560348189613e04565b949793965094505050565b60605f806001600160a01b03871615612d235786612d25565b305b6001600160a01b0316868686604051612d3f92919061431d565b5f6040518083038185875af1925050503d805f8114612d79576040519150601f19603f3d011682016040523d82523d5f602084013e612d7e565b606091505b50915091506124a8898984846130cb565b365f826020811015612db45760405163eb0bcc5d60e01b815260040160405180910390fd5b5f612dc26020828789613e04565b612dcb916141fc565b9050601f198201811115612df25760405163eb0bcc5d60e01b815260040160405180910390fd5b5f612e026020830183888a613e04565b612e0b916141fc565b90506001600160401b03811180612e29575080602002602083850303105b15612e475760405163eb0bcc5d60e01b815260040160405180910390fd5b9501602001959350505050565b5f3681612e618486613eea565b60601c9250612e738460148188613e04565b915091509250925092565b60605f806001600160a01b03861615612e975785612e99565b305b6001600160a01b03168585604051612eb292919061431d565b5f60405180830381855af49150503d805f8114612eea576040519150601f19603f3d011682016040523d82523d5f602084013e612eef565b606091505b5091509150612f00888884846130cb565b98975050505050505050565b5f6001600160f81b031982161580612f3157506001600160f81b03198216600160fd1b145b80612f4957506001600160f81b03198216600b60fa1b145b80612f6157506001600160f81b03198216600560fb1b145b806106c557506001600160f81b03198216602960f81b1492915050565b5f84848484604051602001612f96949392919061432c565b604051602081830303815290604052805190602001209050949350505050565b5f612fe87fdfe169305a533e288e0557da8d289146d3cc75fa6e04c87599b048a60a4e5602546001600160401b031690565b6001600160401b0316825110159050919050565b5f805b835181101561303f5761302a84828151811061301d5761301d613e9e565b602002602001015161081b565b613037575f915050610746565b600101612fff565b50610709848484613170565b6060613058828551611f81565b91506130648383611f81565b92505f6130718484614078565b6001600160401b03811115613088576130886136a0565b6040519080825280601f01601f1916602001820160405280156130b2576020820181803683370190505b509050838303846020870101602083015e949350505050565b60606130d7845f611606565b156130ec576130e68383613252565b50613168565b6130fa84600160f81b611606565b15613143578261313e577f2eea2f51f83910481f4b5ba28b7003a6e045d4b59f67dfff8d4c90119405008985836040516131359291906143d7565b60405180910390a15b613168565b6040516323a2408560e01b81526001600160f81b031985166004820152602401610be3565b509392505050565b5f815183511461318157505f610746565b5f805b8451811015613246575f8582815181106131a0576131a0613e9e565b602002602001015190506131ce81888785815181106131c1576131c1613e9e565b602002602001015161328f565b6131dd575f9350505050610746565b80516020820120808410156131f45780935061323c565b5f5b8381101561323a5787818151811061321057613210613e9e565b6020026020010151805190602001208203613232575f95505050505050610746565b6001016131f6565b505b5050600101613184565b50600195945050505050565b606082156132615750806106c5565b81511561327657613271826133a7565b6106c5565b60405163d6bda27560e01b815260040160405180910390fd5b5f6014845110156132a157505f610746565b83516014036132c7576132c06132b6856143ef565b60601c84846133af565b9050610746565b5f806132d2866143ef565b60601c6132e0876014612bde565b86866040516024016132f493929190614429565b60408051601f198184030181529181526020820180516001600160e01b031662495a6360e31b179052516133289190613e93565b5f60405180830381855afa9150503d805f8114613360576040519150601f19603f3d011682016040523d82523d5f602084013e613365565b606091505b509150915081801561337957506020815110155b80156122fd5750805162495a6360e31b9061339d9083016020908101908401613dcc565b1492505050610746565b805160208201fd5b5f836001600160a01b03163b5f0361340c575f5f6133cd8585613417565b5090925090505f8160038111156133e6576133e6614453565b1480156122fd5750856001600160a01b0316826001600160a01b03161492505050610746565b6132c084848461345d565b5f5f5f835160410361344e576020840151604085015160608601515f1a613440888285856134ae565b955095509550505050611962565b505081515f9150600290611962565b805160408051630b135d3f60e11b8082526004820186905260248201929092525f92906020820185604483015e60205f60648401838a5afa9050825f5114601f3d1116811693505050509392505050565b5f80807f7fffffffffffffffffffffffffffffff5d576e7357a4501ddfe92f46681b20a08411156134e757505f9150600390508261356c565b604080515f808252602082018084528a905260ff891692820192909252606081018790526080810186905260019060a0016020604051602081039080840390855afa158015613538573d5f5f3e3d5ffd5b5050604051601f1901519150506001600160a01b03811661356357505f92506001915082905061356c565b92505f91508190505b9450945094915050565b50805461358290613eb2565b5f825580601f10613591575050565b601f0160209004905f5260205f209061149891905f5b80821115611463575f818401556001016135a7565b6001600160e01b03198116811461075e575f5ffd5b5f602082840312156135e1575f5ffd5b8135610746816135bc565b80356001600160a01b0381168114613602575f5ffd5b919050565b5f5f83601f840112613617575f5ffd5b5081356001600160401b0381111561362d575f5ffd5b602083019150836020828501011115613644575f5ffd5b9250929050565b5f5f5f5f6060858703121561365e575f5ffd5b8435935061366e602086016135ec565b925060408501356001600160401b03811115613688575f5ffd5b61369487828801613607565b95989497509550505050565b634e487b7160e01b5f52604160045260245ffd5b604051601f8201601f191681016001600160401b03811182821017156136dc576136dc6136a0565b604052919050565b5f6001600160401b038211156136fc576136fc6136a0565b50601f01601f191660200190565b5f82601f830112613719575f5ffd5b813561372c613727826136e4565b6136b4565b818152846020838601011115613740575f5ffd5b816020850160208301375f918101602001919091529392505050565b5f5f5f5f6080858703121561376f575f5ffd5b613778856135ec565b9350613786602086016135ec565b92506040850135915060608501356001600160401b038111156137a7575f5ffd5b6137b38782880161370a565b91505092959194509250565b5f5f5f604084860312156137d1575f5ffd5b8335925060208401356001600160401b038111156137ed575f5ffd5b6137f986828701613607565b9497909650939450505050565b80356001600160401b0381168114613602575f5ffd5b5f6020828403121561382c575f5ffd5b61074682613806565b5f5f5f60608486031215613847575f5ffd5b83356001600160401b0381111561385c575f5ffd5b8401610120818703121561386e575f5ffd5b95602085013595506040909401359392505050565b5f60208284031215613893575f5ffd5b81356001600160c01b0381168114610746575f5ffd5b5f602082840312156138b9575f5ffd5b81356001600160401b038111156138ce575f5ffd5b6107098482850161370a565b5f6001600160401b038211156138f2576138f26136a0565b5060051b60200190565b5f82601f83011261390b575f5ffd5b8135613919613727826138da565b8082825260208201915060208360051b86010192508583111561393a575f5ffd5b602085015b8381101561138b5780356001600160401b0381111561395c575f5ffd5b61396b886020838a010161370a565b8452506020928301920161393f565b5f6020828403121561398a575f5ffd5b81356001600160401b0381111561399f575f5ffd5b610709848285016138fc565b5f81518084528060208401602086015e5f602082860101526020601f19601f83011685010191505092915050565b60ff60f81b8816815260e060208201525f6139f760e08301896139ab565b8281036040840152613a0981896139ab565b606084018890526001600160a01b038716608085015260a0840186905283810360c0850152845180825260208087019350909101905f5b81811015613a5e578351835260209384019390920191600101613a40565b50909b9a5050505050505050505050565b5f5f60408385031215613a80575f5ffd5b613a8983613806565b9150613a9760208401613806565b90509250929050565b5f602082016020835280845180835260408501915060408160051b8601019250602086015f5b82811015613af757603f19878603018452613ae28583516139ab565b94506020938401939190910190600101613ac6565b50929695505050505050565b602081525f61074660208301846139ab565b5f5f60408385031215613b26575f5ffd5b82356001600160401b03811115613b3b575f5ffd5b613b47858286016138fc565b925050613a9760208401613806565b5f82601f830112613b65575f5ffd5b8135613b73613727826138da565b8082825260208201915060208360051b860101925085831115613b94575f5ffd5b602085015b8381101561138b578035835260209283019201613b99565b5f5f5f5f5f60a08688031215613bc5575f5ffd5b613bce866135ec565b9450613bdc602087016135ec565b935060408601356001600160401b03811115613bf6575f5ffd5b613c0288828901613b56565b93505060608601356001600160401b03811115613c1d575f5ffd5b613c2988828901613b56565b92505060808601356001600160401b03811115613c44575f5ffd5b613c508882890161370a565b9150509295509295909350565b5f60208284031215613c6d575f5ffd5b5035919050565b5f5f5f5f5f60a08688031215613c88575f5ffd5b613c91866135ec565b9450613c9f602087016135ec565b9350604086013592506060860135915060808601356001600160401b03811115613c44575f5ffd5b81835281816020850137505f828201602090810191909152601f909101601f19169091010190565b60018060a01b0385168152836020820152606060408201525f611a89606083018486613cc7565b5f60208284031215613d26575f5ffd5b81516001600160401b03811115613d3b575f5ffd5b8201601f81018413613d4b575f5ffd5b8051613d59613727826136e4565b818152856020838501011115613d6d575f5ffd5b8160208401602083015e5f91810160200191909152949350505050565b5f5f8335601e19843603018112613d9f575f5ffd5b8301803591506001600160401b03821115613db8575f5ffd5b602001915036819003821315613644575f5ffd5b5f60208284031215613ddc575f5ffd5b5051919050565b8284823760609190911b6001600160601b0319169101908152601401919050565b5f5f85851115613e12575f5ffd5b83861115613e1e575f5ffd5b5050820193919092039150565b80356001600160e01b03198116906004841015611c40576001600160e01b031960049490940360031b84901b1690921692915050565b5f60208284031215613e71575f5ffd5b8151610746816135bc565b5f81518060208401855e5f93019283525090919050565b5f6107468284613e7c565b634e487b7160e01b5f52603260045260245ffd5b600181811c90821680613ec657607f821691505b602082108103613ee457634e487b7160e01b5f52602260045260245ffd5b50919050565b80356001600160601b03198116906014841015611c40576001600160601b031960149490940360031b84901b1690921692915050565b5f5f8335601e19843603018112613f35575f5ffd5b83016020810192503590506001600160401b03811115613f53575f5ffd5b803603821315613644575f5ffd5b60408152613f8260408201613f75856135ec565b6001600160a01b03169052565b602083013560608201525f613f9a6040850185613f20565b6101206080850152613fb161016085018284613cc7565b915050613fc16060860186613f20565b848303603f190160a0860152613fd8838284613cc7565b608088013560c08781019190915260a089013560e0808901919091529089013561010088015290935061401092508701905086613f20565b848303603f1901610120860152614028838284613cc7565b9250505061403a610100860186613f20565b848303603f1901610140860152614052838284613cc7565b93505050508260208301529392505050565b634e487b7160e01b5f52601160045260245ffd5b818103818111156106c5576106c5614064565b601f821115611463578282111561146357805f5260205f20601f840160051c60208510156140b657505f5b90810190601f840160051c035f5b81811015611657575f838201556001016140c4565b81516001600160401b038111156140f2576140f26136a0565b614106816141008454613eb2565b8461408b565b6020601f821160018114614138575f83156141215750848201515b5f19600385901b1c1916600184901b17845561124f565b5f84815260208120601f198516915b828110156141675787850151825560209485019460019092019101614147565b508482101561418457868401515f19600387901b60f8161c191681555b50505050600190811b01905550565b634e487b7160e01b5f52603160045260245ffd5b5f602082840312156141b7575f5ffd5b81518015158114610746575f5ffd5b80356001600160f01b03198116906002841015611c40576001600160f01b031960029490940360031b84901b1690921692915050565b803560208310156106c5575f19602084900360031b1b1692915050565b805160208201516001600160e01b0319811691906004821015614250576001600160e01b0319600483900360031b81901b82161692505b5050919050565b5f8235605e1983360301811261426b575f5ffd5b9190910192915050565b5f60208284031215614285575f5ffd5b610746826135ec565b5f8161429c5761429c614064565b505f190190565b8381528260208201525f6107066040830184613e7c565b5f5f604083850312156142cb575f5ffd5b82356001600160401b038111156142e0575f5ffd5b6142ec858286016138fc565b92505060208301356001600160401b03811115614307575f5ffd5b614313858286016138fc565b9150509250929050565b818382375f9101908152919050565b6d0a8f2e0cac888c2e8c2a6d2cedc560931b81528385600e8301375f8482017f20636f6e74656e74732c737472696e67206e616d652c737472696e6720766572600e8201527f73696f6e2c75696e7432353620636861696e49642c6164647265737320766572602e8201527f696679696e67436f6e74726163742c627974657333322073616c742900000000604e8201528385606a8301375f9301606a019283525090949350505050565b828152604060208201525f61070960408301846139ab565b805160208201516001600160601b0319811691906014821015614250576001600160601b031960149290920360031b82901b161692915050565b606081525f61443b60608301866139ab565b8460208401528281036040840152611a8981856139ab565b634e487b7160e01b5f52602160045260245ffdfe406f70656e7a657070656c696e2f636f6e7472616374732e4163636f756e7445524337353739486f6f6b65642e76312e302e30dfe169305a533e288e0557da8d289146d3cc75fa6e04c87599b048a60a4e5600a26469706673582212202f72437e8463ad5b2c5d7e7975ad396ed925bea04cdbbe395f644b4044d3063564736f6c63430008230033",
		"opcodes": "PUSH1 0x80 PUSH1 0x40 MSTORE PUSH1 0x4 CALLDATASIZE LT PUSH2 0x19F JUMPI PUSH0 CALLDATALOAD PUSH1 0xE0 SHR DUP1 PUSH4 0x95FCD041 GT PUSH2 0xEB JUMPI DUP1 PUSH4 0xBC197C81 GT PUSH2 0x89 JUMPI DUP1 PUSH4 0xD691C964 GT PUSH2 0x63 JUMPI DUP1 PUSH4 0xD691C964 EQ PUSH2 0x518 JUMPI DUP1 PUSH4 0xE9AE5C53 EQ PUSH2 0x52B JUMPI DUP1 PUSH4 0xF23A6E61 EQ PUSH2 0x53E JUMPI DUP1 PUSH4 0xF2DC691D EQ PUSH2 0x569 JUMPI PUSH2 0x1A6 JUMP JUMPDEST DUP1 PUSH4 0xBC197C81 EQ PUSH2 0x4BA JUMPI DUP1 PUSH4 0xD03C7914 EQ PUSH2 0x4E5 JUMPI DUP1 PUSH4 0xD087D288 EQ PUSH2 0x504 JUMPI PUSH2 0x1A6 JUMP JUMPDEST DUP1 PUSH4 0x9DDFDAF9 GT PUSH2 0xC5 JUMPI DUP1 PUSH4 0x9DDFDAF9 EQ PUSH2 0x442 JUMPI DUP1 PUSH4 0xA71763A8 EQ PUSH2 0x461 JUMPI DUP1 PUSH4 0xB0D691FE EQ PUSH2 0x480 JUMPI DUP1 PUSH4 0xB715BE81 EQ PUSH2 0x4A6 JUMPI PUSH2 0x1A6 JUMP JUMPDEST DUP1 PUSH4 0x95FCD041 EQ PUSH2 0x3D6 JUMPI DUP1 PUSH4 0x96D4110B EQ PUSH2 0x402 JUMPI DUP1 PUSH4 0x9CFD7CFF EQ PUSH2 0x421 JUMPI PUSH2 0x1A6 JUMP JUMPDEST DUP1 PUSH4 0x3E1B0812 GT PUSH2 0x158 JUMPI DUP1 PUSH4 0x7CC2046B GT PUSH2 0x132 JUMPI DUP1 PUSH4 0x7CC2046B EQ PUSH2 0x345 JUMPI DUP1 PUSH4 0x7F5A7C7B EQ PUSH2 0x364 JUMPI DUP1 PUSH4 0x84B0196E EQ PUSH2 0x390 JUMPI DUP1 PUSH4 0x9517E29F EQ PUSH2 0x3B7 JUMPI PUSH2 0x1A6 JUMP JUMPDEST DUP1 PUSH4 0x3E1B0812 EQ PUSH2 0x2C1 JUMPI DUP1 PUSH4 0x42CDE4E8 EQ PUSH2 0x2E0 JUMPI DUP1 PUSH4 0x43B98665 EQ PUSH2 0x326 JUMPI PUSH2 0x1A6 JUMP JUMPDEST DUP1 PUSH4 0x1FFC9A7 EQ PUSH2 0x1BE JUMPI DUP1 PUSH4 0x112D3A7D EQ PUSH2 0x1F2 JUMPI DUP1 PUSH4 0x150B7A02 EQ PUSH2 0x211 JUMPI DUP1 PUSH4 0x1626BA7E EQ PUSH2 0x254 JUMPI DUP1 PUSH4 0x17C4DE35 EQ PUSH2 0x273 JUMPI DUP1 PUSH4 0x19822F7C EQ PUSH2 0x294 JUMPI PUSH2 0x1A6 JUMP JUMPDEST CALLDATASIZE PUSH2 0x1A6 JUMPI STOP JUMPDEST PUSH0 CALLDATASIZE PUSH1 0x60 PUSH2 0x1B2 PUSH2 0x588 JUMP JUMPDEST DUP1 MLOAD SWAP4 POP PUSH1 0x20 ADD SWAP2 POP POP RETURN JUMPDEST CALLVALUE DUP1 ISZERO PUSH2 0x1C9 JUMPI PUSH0 PUSH0 REVERT JUMPDEST POP PUSH2 0x1DD PUSH2 0x1D8 CALLDATASIZE PUSH1 0x4 PUSH2 0x35D1 JUMP JUMPDEST PUSH2 0x695 JUMP JUMPDEST PUSH1 0x40 MLOAD SWAP1 ISZERO ISZERO DUP2 MSTORE PUSH1 0x20 ADD JUMPDEST PUSH1 0x40 MLOAD DUP1 SWAP2 SUB SWAP1 RETURN JUMPDEST CALLVALUE DUP1 ISZERO PUSH2 0x1FD JUMPI PUSH0 PUSH0 REVERT JUMPDEST POP PUSH2 0x1DD PUSH2 0x20C CALLDATASIZE PUSH1 0x4 PUSH2 0x364B JUMP JUMPDEST PUSH2 0x6CB JUMP JUMPDEST CALLVALUE DUP1 ISZERO PUSH2 0x21C JUMPI PUSH0 PUSH0 REVERT JUMPDEST POP PUSH2 0x23B PUSH2 0x22B CALLDATASIZE PUSH1 0x4 PUSH2 0x375C JUMP JUMPDEST PUSH4 0xA85BD01 PUSH1 0xE1 SHL SWAP5 SWAP4 POP POP POP POP JUMP JUMPDEST PUSH1 0x40 MLOAD PUSH1 0x1 PUSH1 0x1 PUSH1 0xE0 SHL SUB NOT SWAP1 SWAP2 AND DUP2 MSTORE PUSH1 0x20 ADD PUSH2 0x1E9 JUMP JUMPDEST CALLVALUE DUP1 ISZERO PUSH2 0x25F JUMPI PUSH0 PUSH0 REVERT JUMPDEST POP PUSH2 0x23B PUSH2 0x26E CALLDATASIZE PUSH1 0x4 PUSH2 0x37BF JUMP JUMPDEST PUSH2 0x711 JUMP JUMPDEST CALLVALUE DUP1 ISZERO PUSH2 0x27E JUMPI PUSH0 PUSH0 REVERT JUMPDEST POP PUSH2 0x292 PUSH2 0x28D CALLDATASIZE PUSH1 0x4 PUSH2 0x381C JUMP JUMPDEST PUSH2 0x74D JUMP JUMPDEST STOP JUMPDEST CALLVALUE DUP1 ISZERO PUSH2 0x29F JUMPI PUSH0 PUSH0 REVERT JUMPDEST POP PUSH2 0x2B3 PUSH2 0x2AE CALLDATASIZE PUSH1 0x4 PUSH2 0x3835 JUMP JUMPDEST PUSH2 0x761 JUMP JUMPDEST PUSH1 0x40 MLOAD SWAP1 DUP2 MSTORE PUSH1 0x20 ADD PUSH2 0x1E9 JUMP JUMPDEST CALLVALUE DUP1 ISZERO PUSH2 0x2CC JUMPI PUSH0 PUSH0 REVERT JUMPDEST POP PUSH2 0x2B3 PUSH2 0x2DB CALLDATASIZE PUSH1 0x4 PUSH2 0x3883 JUMP JUMPDEST PUSH2 0x78E JUMP JUMPDEST CALLVALUE DUP1 ISZERO PUSH2 0x2EB JUMPI PUSH0 PUSH0 REVERT JUMPDEST POP PUSH32 0xDFE169305A533E288E0557DA8D289146D3CC75FA6E04C87599B048A60A4E5602 SLOAD PUSH1 0x40 MLOAD PUSH1 0x1 PUSH1 0x1 PUSH1 0x40 SHL SUB SWAP1 SWAP2 AND DUP2 MSTORE PUSH1 0x20 ADD PUSH2 0x1E9 JUMP JUMPDEST CALLVALUE DUP1 ISZERO PUSH2 0x331 JUMPI PUSH0 PUSH0 REVERT JUMPDEST POP PUSH2 0x1DD PUSH2 0x340 CALLDATASIZE PUSH1 0x4 PUSH2 0x38A9 JUMP JUMPDEST PUSH2 0x81B JUMP JUMPDEST CALLVALUE DUP1 ISZERO PUSH2 0x350 JUMPI PUSH0 PUSH0 REVERT JUMPDEST POP PUSH2 0x292 PUSH2 0x35F CALLDATASIZE PUSH1 0x4 PUSH2 0x397A JUMP JUMPDEST PUSH2 0x834 JUMP JUMPDEST CALLVALUE DUP1 ISZERO PUSH2 0x36F JUMPI PUSH0 PUSH0 REVERT JUMPDEST POP PUSH2 0x378 PUSH2 0x845 JUMP JUMPDEST PUSH1 0x40 MLOAD PUSH1 0x1 PUSH1 0x1 PUSH1 0xA0 SHL SUB SWAP1 SWAP2 AND DUP2 MSTORE PUSH1 0x20 ADD PUSH2 0x1E9 JUMP JUMPDEST CALLVALUE DUP1 ISZERO PUSH2 0x39B JUMPI PUSH0 PUSH0 REVERT JUMPDEST POP PUSH2 0x3A4 PUSH2 0x873 JUMP JUMPDEST PUSH1 0x40 MLOAD PUSH2 0x1E9 SWAP8 SWAP7 SWAP6 SWAP5 SWAP4 SWAP3 SWAP2 SWAP1 PUSH2 0x39D9 JUMP JUMPDEST CALLVALUE DUP1 ISZERO PUSH2 0x3C2 JUMPI PUSH0 PUSH0 REVERT JUMPDEST POP PUSH2 0x292 PUSH2 0x3D1 CALLDATASIZE PUSH1 0x4 PUSH2 0x364B JUMP JUMPDEST PUSH2 0x8B5 JUMP JUMPDEST CALLVALUE DUP1 ISZERO PUSH2 0x3E1 JUMPI PUSH0 PUSH0 REVERT JUMPDEST POP PUSH2 0x3F5 PUSH2 0x3F0 CALLDATASIZE PUSH1 0x4 PUSH2 0x3A6F JUMP JUMPDEST PUSH2 0x903 JUMP JUMPDEST PUSH1 0x40 MLOAD PUSH2 0x1E9 SWAP2 SWAP1 PUSH2 0x3AA0 JUMP JUMPDEST CALLVALUE DUP1 ISZERO PUSH2 0x40D JUMPI PUSH0 PUSH0 REVERT JUMPDEST POP PUSH2 0x292 PUSH2 0x41C CALLDATASIZE PUSH1 0x4 PUSH2 0x397A JUMP JUMPDEST PUSH2 0x92A JUMP JUMPDEST CALLVALUE DUP1 ISZERO PUSH2 0x42C JUMPI PUSH0 PUSH0 REVERT JUMPDEST POP PUSH2 0x435 PUSH2 0x93B JUMP JUMPDEST PUSH1 0x40 MLOAD PUSH2 0x1E9 SWAP2 SWAP1 PUSH2 0x3B03 JUMP JUMPDEST CALLVALUE DUP1 ISZERO PUSH2 0x44D JUMPI PUSH0 PUSH0 REVERT JUMPDEST POP PUSH2 0x292 PUSH2 0x45C CALLDATASIZE PUSH1 0x4 PUSH2 0x3B15 JUMP JUMPDEST PUSH2 0x95B JUMP JUMPDEST CALLVALUE DUP1 ISZERO PUSH2 0x46C JUMPI PUSH0 PUSH0 REVERT JUMPDEST POP PUSH2 0x292 PUSH2 0x47B CALLDATASIZE PUSH1 0x4 PUSH2 0x364B JUMP JUMPDEST PUSH2 0xA5C JUMP JUMPDEST CALLVALUE DUP1 ISZERO PUSH2 0x48B JUMPI PUSH0 PUSH0 REVERT JUMPDEST POP PUSH20 0x433709009B8330FDA32311DF1C2AFA402ED8D009 PUSH2 0x378 JUMP JUMPDEST CALLVALUE DUP1 ISZERO PUSH2 0x4B1 JUMPI PUSH0 PUSH0 REVERT JUMPDEST POP PUSH2 0x2B3 PUSH2 0xAA4 JUMP JUMPDEST CALLVALUE DUP1 ISZERO PUSH2 0x4C5 JUMPI PUSH0 PUSH0 REVERT JUMPDEST POP PUSH2 0x23B PUSH2 0x4D4 CALLDATASIZE PUSH1 0x4 PUSH2 0x3BB1 JUMP JUMPDEST PUSH4 0xBC197C81 PUSH1 0xE0 SHL SWAP6 SWAP5 POP POP POP POP POP JUMP JUMPDEST CALLVALUE DUP1 ISZERO PUSH2 0x4F0 JUMPI PUSH0 PUSH0 REVERT JUMPDEST POP PUSH2 0x1DD PUSH2 0x4FF CALLDATASIZE PUSH1 0x4 PUSH2 0x3C5D JUMP JUMPDEST PUSH2 0xABE JUMP JUMPDEST CALLVALUE DUP1 ISZERO PUSH2 0x50F JUMPI PUSH0 PUSH0 REVERT JUMPDEST POP PUSH2 0x2B3 PUSH2 0xB2E JUMP JUMPDEST PUSH2 0x3F5 PUSH2 0x526 CALLDATASIZE PUSH1 0x4 PUSH2 0x37BF JUMP JUMPDEST PUSH2 0xB3D JUMP JUMPDEST PUSH2 0x292 PUSH2 0x539 CALLDATASIZE PUSH1 0x4 PUSH2 0x37BF JUMP JUMPDEST PUSH2 0xB67 JUMP JUMPDEST CALLVALUE DUP1 ISZERO PUSH2 0x549 JUMPI PUSH0 PUSH0 REVERT JUMPDEST POP PUSH2 0x23B PUSH2 0x558 CALLDATASIZE PUSH1 0x4 PUSH2 0x3C74 JUMP JUMPDEST PUSH4 0xF23A6E61 PUSH1 0xE0 SHL SWAP6 SWAP5 POP POP POP POP POP JUMP JUMPDEST CALLVALUE DUP1 ISZERO PUSH2 0x574 JUMPI PUSH0 PUSH0 REVERT JUMPDEST POP PUSH2 0x1DD PUSH2 0x583 CALLDATASIZE PUSH1 0x4 PUSH2 0x3C5D JUMP JUMPDEST PUSH2 0xB7A JUMP JUMPDEST PUSH1 0x60 PUSH0 PUSH2 0x593 PUSH2 0x845 JUMP JUMPDEST SWAP1 POP PUSH1 0x60 PUSH1 0x1 PUSH1 0x1 PUSH1 0xA0 SHL SUB DUP3 AND ISZERO PUSH2 0x61D JUMPI PUSH1 0x40 MLOAD PUSH4 0xD68F6025 PUSH1 0xE0 SHL DUP2 MSTORE PUSH1 0x1 PUSH1 0x1 PUSH1 0xA0 SHL SUB DUP4 AND SWAP1 PUSH4 0xD68F6025 SWAP1 PUSH2 0x5D8 SWAP1 CALLER SWAP1 CALLVALUE SWAP1 PUSH0 SWAP1 CALLDATASIZE SWAP1 PUSH1 0x4 ADD PUSH2 0x3CEF JUMP JUMPDEST PUSH0 PUSH1 0x40 MLOAD DUP1 DUP4 SUB DUP2 PUSH0 DUP8 GAS CALL ISZERO DUP1 ISZERO PUSH2 0x5F3 JUMPI RETURNDATASIZE PUSH0 PUSH0 RETURNDATACOPY RETURNDATASIZE PUSH0 REVERT JUMPDEST POP POP POP POP PUSH1 0x40 MLOAD RETURNDATASIZE PUSH0 DUP3 RETURNDATACOPY PUSH1 0x1F RETURNDATASIZE SWAP1 DUP2 ADD PUSH1 0x1F NOT AND DUP3 ADD PUSH1 0x40 MSTORE PUSH2 0x61A SWAP2 SWAP1 DUP2 ADD SWAP1 PUSH2 0x3D16 JUMP JUMPDEST SWAP1 POP JUMPDEST PUSH2 0x625 PUSH2 0xB8E JUMP JUMPDEST SWAP3 POP PUSH1 0x1 PUSH1 0x1 PUSH1 0xA0 SHL SUB DUP3 AND ISZERO PUSH2 0x690 JUMPI PUSH1 0x40 MLOAD PUSH4 0xB9DFBED PUSH1 0xE1 SHL DUP2 MSTORE PUSH1 0x1 PUSH1 0x1 PUSH1 0xA0 SHL SUB DUP4 AND SWAP1 PUSH4 0x173BF7DA SWAP1 PUSH2 0x662 SWAP1 DUP5 SWAP1 PUSH1 0x4 ADD PUSH2 0x3B03 JUMP JUMPDEST PUSH0 PUSH1 0x40 MLOAD DUP1 DUP4 SUB DUP2 PUSH0 DUP8 DUP1 EXTCODESIZE ISZERO DUP1 ISZERO PUSH2 0x679 JUMPI PUSH0 PUSH0 REVERT JUMPDEST POP GAS CALL ISZERO DUP1 ISZERO PUSH2 0x68B JUMPI RETURNDATASIZE PUSH0 PUSH0 RETURNDATACOPY RETURNDATASIZE PUSH0 REVERT JUMPDEST POP POP POP POP JUMPDEST POP POP SWAP1 JUMP JUMPDEST PUSH0 PUSH1 0x1 PUSH1 0x1 PUSH1 0xE0 SHL SUB NOT DUP3 AND PUSH4 0x2711897 PUSH1 0xE5 SHL EQ DUP1 PUSH2 0x6C5 JUMPI POP PUSH4 0x1FFC9A7 PUSH1 0xE0 SHL PUSH1 0x1 PUSH1 0x1 PUSH1 0xE0 SHL SUB NOT DUP4 AND EQ JUMPDEST SWAP3 SWAP2 POP POP JUMP JUMPDEST PUSH0 PUSH1 0x4 DUP6 EQ DUP1 ISZERO PUSH2 0x6F4 JUMPI POP PUSH2 0x6DF PUSH2 0x845 JUMP JUMPDEST PUSH1 0x1 PUSH1 0x1 PUSH1 0xA0 SHL SUB AND DUP5 PUSH1 0x1 PUSH1 0x1 PUSH1 0xA0 SHL SUB AND EQ JUMPDEST DUP1 PUSH2 0x706 JUMPI POP PUSH2 0x706 DUP6 DUP6 DUP6 DUP6 PUSH2 0xC34 JUMP JUMPDEST SWAP1 POP JUMPDEST SWAP5 SWAP4 POP POP POP POP JUMP JUMPDEST PUSH0 PUSH0 PUSH2 0x71E DUP6 DUP6 DUP6 PUSH2 0xCF6 JUMP JUMPDEST SWAP1 POP PUSH1 0x1 PUSH1 0x1 PUSH1 0xE0 SHL SUB NOT DUP1 DUP3 AND EQ PUSH2 0x737 JUMPI DUP1 PUSH2 0x742 JUMP JUMPDEST PUSH2 0x742 DUP6 DUP6 DUP6 PUSH2 0xD73 JUMP JUMPDEST SWAP2 POP POP JUMPDEST SWAP4 SWAP3 POP POP POP JUMP JUMPDEST PUSH2 0x755 PUSH2 0xE32 JUMP JUMPDEST PUSH2 0x75E DUP2 PUSH2 0xE89 JUMP JUMPDEST POP JUMP JUMPDEST PUSH0 PUSH2 0x76A PUSH2 0xF24 JUMP JUMPDEST PUSH0 PUSH2 0x783 DUP6 DUP6 PUSH2 0x77E PUSH2 0x100 DUP4 ADD DUP4 PUSH2 0x3D8A JUMP JUMPDEST PUSH2 0xF64 JUMP JUMPDEST SWAP1 POP PUSH2 0x709 DUP4 PUSH2 0xF71 JUMP JUMPDEST PUSH0 PUSH20 0x433709009B8330FDA32311DF1C2AFA402ED8D009 PUSH1 0x40 MLOAD PUSH4 0x1AAB3F0D PUSH1 0xE1 SHL DUP2 MSTORE ADDRESS PUSH1 0x4 DUP3 ADD MSTORE PUSH1 0x1 PUSH1 0x1 PUSH1 0xC0 SHL SUB DUP5 AND PUSH1 0x24 DUP3 ADD MSTORE PUSH1 0x1 PUSH1 0x1 PUSH1 0xA0 SHL SUB SWAP2 SWAP1 SWAP2 AND SWAP1 PUSH4 0x35567E1A SWAP1 PUSH1 0x44 ADD PUSH1 0x20 PUSH1 0x40 MLOAD DUP1 DUP4 SUB DUP2 DUP7 GAS STATICCALL ISZERO DUP1 ISZERO PUSH2 0x7F7 JUMPI RETURNDATASIZE PUSH0 PUSH0 RETURNDATACOPY RETURNDATASIZE PUSH0 REVERT JUMPDEST POP POP POP POP PUSH1 0x40 MLOAD RETURNDATASIZE PUSH1 0x1F NOT PUSH1 0x1F DUP3 ADD AND DUP3 ADD DUP1 PUSH1 0x40 MSTORE POP DUP2 ADD SWAP1 PUSH2 0x6C5 SWAP2 SWAP1 PUSH2 0x3DCC JUMP JUMPDEST PUSH0 PUSH0 MLOAD PUSH1 0x20 PUSH2 0x449B PUSH0 CODECOPY PUSH0 MLOAD SWAP1 PUSH0 MSTORE PUSH2 0x746 DUP2 DUP5 PUSH2 0xF94 JUMP JUMPDEST PUSH2 0x83C PUSH2 0xE32 JUMP JUMPDEST PUSH2 0x75E DUP2 PUSH2 0xFC0 JUMP JUMPDEST PUSH32 0x2B49B75317FFC1021CA7DA4CA3423BF8403E18B223E63E6BC7ABE8F39A5ED700 SLOAD PUSH1 0x1 PUSH1 0x1 PUSH1 0xA0 SHL SUB AND SWAP1 JUMP JUMPDEST PUSH0 PUSH1 0x60 DUP1 PUSH0 PUSH0 PUSH0 PUSH1 0x60 PUSH2 0x884 PUSH2 0x1073 JUMP JUMPDEST PUSH2 0x88C PUSH2 0x109F JUMP JUMPDEST PUSH1 0x40 DUP1 MLOAD PUSH0 DUP1 DUP3 MSTORE PUSH1 0x20 DUP3 ADD SWAP1 SWAP3 MSTORE PUSH1 0xF PUSH1 0xF8 SHL SWAP12 SWAP4 SWAP11 POP SWAP2 SWAP9 POP CHAINID SWAP8 POP ADDRESS SWAP7 POP SWAP5 POP SWAP3 POP SWAP1 POP JUMP JUMPDEST PUSH2 0x8BD PUSH2 0xE32 JUMP JUMPDEST PUSH2 0x8FD DUP5 DUP5 DUP5 DUP5 DUP1 DUP1 PUSH1 0x1F ADD PUSH1 0x20 DUP1 SWAP2 DIV MUL PUSH1 0x20 ADD PUSH1 0x40 MLOAD SWAP1 DUP2 ADD PUSH1 0x40 MSTORE DUP1 SWAP4 SWAP3 SWAP2 SWAP1 DUP2 DUP2 MSTORE PUSH1 0x20 ADD DUP4 DUP4 DUP1 DUP3 DUP5 CALLDATACOPY PUSH0 SWAP3 ADD SWAP2 SWAP1 SWAP2 MSTORE POP PUSH2 0x10CC SWAP3 POP POP POP JUMP JUMPDEST POP POP POP POP JUMP JUMPDEST PUSH1 0x60 PUSH0 MLOAD PUSH1 0x20 PUSH2 0x449B PUSH0 CODECOPY PUSH0 MLOAD SWAP1 PUSH0 MSTORE PUSH2 0x709 DUP2 PUSH1 0x1 PUSH1 0x1 PUSH1 0x40 SHL SUB DUP7 DUP2 AND SWAP1 DUP7 AND PUSH2 0x1256 JUMP JUMPDEST PUSH2 0x932 PUSH2 0xE32 JUMP JUMPDEST PUSH2 0x75E DUP2 PUSH2 0x1395 JUMP JUMPDEST PUSH1 0x60 PUSH1 0x40 MLOAD DUP1 PUSH1 0x60 ADD PUSH1 0x40 MSTORE DUP1 PUSH1 0x33 DUP2 MSTORE PUSH1 0x20 ADD PUSH2 0x4468 PUSH1 0x33 SWAP2 CODECOPY SWAP1 POP SWAP1 JUMP JUMPDEST PUSH0 PUSH2 0x964 PUSH2 0x1468 JUMP JUMPDEST DUP1 SLOAD SWAP1 SWAP2 POP PUSH1 0xFF PUSH1 0x1 PUSH1 0x40 SHL DUP3 DIV AND ISZERO SWAP1 PUSH1 0x1 PUSH1 0x1 PUSH1 0x40 SHL SUB AND PUSH0 DUP2 ISZERO DUP1 ISZERO PUSH2 0x98A JUMPI POP DUP3 JUMPDEST SWAP1 POP PUSH0 DUP3 PUSH1 0x1 PUSH1 0x1 PUSH1 0x40 SHL SUB AND PUSH1 0x1 EQ DUP1 ISZERO PUSH2 0x9A5 JUMPI POP ADDRESS EXTCODESIZE ISZERO JUMPDEST SWAP1 POP DUP2 ISZERO DUP1 ISZERO PUSH2 0x9B3 JUMPI POP DUP1 ISZERO JUMPDEST ISZERO PUSH2 0x9D1 JUMPI PUSH1 0x40 MLOAD PUSH4 0xF92EE8A9 PUSH1 0xE0 SHL DUP2 MSTORE PUSH1 0x4 ADD PUSH1 0x40 MLOAD DUP1 SWAP2 SUB SWAP1 REVERT JUMPDEST DUP5 SLOAD PUSH8 0xFFFFFFFFFFFFFFFF NOT AND PUSH1 0x1 OR DUP6 SSTORE DUP4 ISZERO PUSH2 0x9FB JUMPI DUP5 SLOAD PUSH1 0xFF PUSH1 0x40 SHL NOT AND PUSH1 0x1 PUSH1 0x40 SHL OR DUP6 SSTORE JUMPDEST PUSH2 0xA03 PUSH2 0x1490 JUMP JUMPDEST PUSH2 0xA0D DUP8 DUP8 PUSH2 0x149A JUMP JUMPDEST DUP4 ISZERO PUSH2 0xA53 JUMPI DUP5 SLOAD PUSH1 0xFF PUSH1 0x40 SHL NOT AND DUP6 SSTORE PUSH1 0x40 MLOAD PUSH1 0x1 DUP2 MSTORE PUSH32 0xC7F505B2F371AE2175EE4913F4499E1F2633A7B5936321EED1CDAEB6115181D2 SWAP1 PUSH1 0x20 ADD PUSH1 0x40 MLOAD DUP1 SWAP2 SUB SWAP1 LOG1 JUMPDEST POP POP POP POP POP POP POP JUMP JUMPDEST PUSH2 0xA64 PUSH2 0xE32 JUMP JUMPDEST PUSH2 0x8FD DUP5 DUP5 DUP5 DUP5 DUP1 DUP1 PUSH1 0x1F ADD PUSH1 0x20 DUP1 SWAP2 DIV MUL PUSH1 0x20 ADD PUSH1 0x40 MLOAD SWAP1 DUP2 ADD PUSH1 0x40 MSTORE DUP1 SWAP4 SWAP3 SWAP2 SWAP1 DUP2 DUP2 MSTORE PUSH1 0x20 ADD DUP4 DUP4 DUP1 DUP3 DUP5 CALLDATACOPY PUSH0 SWAP3 ADD SWAP2 SWAP1 SWAP2 MSTORE POP PUSH2 0x14AC SWAP3 POP POP POP JUMP JUMPDEST PUSH0 MLOAD PUSH1 0x20 PUSH2 0x449B PUSH0 CODECOPY PUSH0 MLOAD SWAP1 PUSH0 MSTORE DUP1 SLOAD PUSH0 SWAP2 SWAP1 JUMPDEST SWAP2 POP POP SWAP1 JUMP JUMPDEST PUSH0 PUSH0 PUSH0 PUSH2 0xACA DUP5 PUSH2 0x15C8 JUMP JUMPDEST POP POP SWAP2 POP SWAP2 POP PUSH2 0xADD DUP3 PUSH0 PUSH1 0xF8 SHL PUSH2 0x1606 JUMP JUMPDEST DUP1 PUSH2 0xAF1 JUMPI POP PUSH2 0xAF1 DUP3 PUSH1 0x1 PUSH1 0xF8 SHL PUSH2 0x1606 JUMP JUMPDEST DUP1 PUSH2 0xB09 JUMPI POP PUSH2 0xB09 DUP3 PUSH1 0x1 PUSH1 0x1 PUSH1 0xF8 SHL SUB NOT PUSH2 0x1606 JUMP JUMPDEST DUP1 ISZERO PUSH2 0x709 JUMPI POP PUSH2 0xB1A DUP2 PUSH0 PUSH2 0x1606 JUMP JUMPDEST DUP1 PUSH2 0x709 JUMPI POP PUSH2 0x709 DUP2 PUSH1 0x1 PUSH1 0xF8 SHL PUSH2 0x1606 JUMP JUMPDEST PUSH0 PUSH2 0xB38 PUSH0 PUSH2 0x78E JUMP JUMPDEST SWAP1 POP SWAP1 JUMP JUMPDEST PUSH1 0x60 PUSH1 0x2 PUSH0 DUP1 PUSH2 0xB4F DUP4 CALLER DUP5 DUP5 PUSH2 0x1618 JUMP JUMPDEST PUSH2 0xB5A DUP8 DUP8 DUP8 PUSH2 0x165F JUMP JUMPDEST SWAP4 POP JUMPDEST POP POP POP SWAP4 SWAP3 POP POP POP JUMP JUMPDEST PUSH2 0xB6F PUSH2 0xE32 JUMP JUMPDEST PUSH2 0x8FD DUP4 DUP4 DUP4 PUSH2 0x165F JUMP JUMPDEST PUSH0 PUSH1 0x4 DUP3 EQ DUP1 PUSH2 0x6C5 JUMPI POP PUSH2 0x6C5 DUP3 PUSH2 0x1773 JUMP JUMPDEST PUSH1 0x60 PUSH0 PUSH2 0xBA5 PUSH0 CALLDATALOAD PUSH1 0x1 PUSH1 0x1 PUSH1 0xE0 SHL SUB NOT AND PUSH2 0x1790 JUMP JUMPDEST SWAP1 POP PUSH1 0x1 PUSH1 0x1 PUSH1 0xE0 SHL SUB NOT PUSH0 CALLDATALOAD AND PUSH1 0x1 PUSH1 0x1 PUSH1 0xA0 SHL SUB DUP3 AND PUSH2 0xBEC JUMPI PUSH1 0x40 MLOAD PUSH4 0xAF5A7203 PUSH1 0xE0 SHL DUP2 MSTORE PUSH1 0x1 PUSH1 0x1 PUSH1 0xE0 SHL SUB NOT SWAP1 SWAP2 AND PUSH1 0x4 DUP3 ADD MSTORE PUSH1 0x24 ADD JUMPDEST PUSH1 0x40 MLOAD DUP1 SWAP2 SUB SWAP1 REVERT JUMPDEST POP PUSH2 0xC1B DUP2 CALLVALUE PUSH0 CALLDATASIZE CALLER PUSH1 0x40 MLOAD PUSH1 0x20 ADD PUSH2 0xC07 SWAP4 SWAP3 SWAP2 SWAP1 PUSH2 0x3DE3 JUMP JUMPDEST PUSH1 0x40 MLOAD PUSH1 0x20 DUP2 DUP4 SUB SUB DUP2 MSTORE SWAP1 PUSH1 0x40 MSTORE PUSH2 0x17D3 JUMP JUMPDEST ISZERO PUSH2 0xC28 JUMPI PUSH2 0xAB8 PUSH2 0x17E8 JUMP JUMPDEST PUSH2 0xC30 PUSH2 0x1801 JUMP JUMPDEST POP SWAP1 JUMP JUMPDEST PUSH0 PUSH32 0xA47D913D72B2639F4CA1C145CC07DDF7170B73B257C8E0D4FCED7CC8E3E3900 PUSH0 NOT DUP7 ADD PUSH2 0xC70 JUMPI PUSH2 0xC68 DUP2 DUP7 PUSH2 0x180C JUMP JUMPDEST SWAP2 POP POP PUSH2 0x709 JUMP JUMPDEST PUSH1 0x2 DUP7 SUB PUSH2 0xC85 JUMPI PUSH2 0xC68 PUSH1 0x2 DUP3 ADD DUP7 PUSH2 0x180C JUMP JUMPDEST PUSH1 0x3 DUP7 SUB PUSH2 0xCEB JUMPI PUSH1 0x3 DUP4 GT DUP1 ISZERO PUSH2 0xC68 JUMPI POP PUSH1 0x1 PUSH1 0x1 PUSH1 0xA0 SHL SUB DUP6 AND PUSH1 0x4 DUP1 DUP4 ADD SWAP1 PUSH0 SWAP1 PUSH2 0xCB6 SWAP1 DUP3 DUP9 DUP11 PUSH2 0x3E04 JUMP JUMPDEST PUSH2 0xCBF SWAP2 PUSH2 0x3E2B JUMP JUMPDEST PUSH1 0x1 PUSH1 0x1 PUSH1 0xE0 SHL SUB NOT AND DUP2 MSTORE PUSH1 0x20 DUP2 ADD SWAP2 SWAP1 SWAP2 MSTORE PUSH1 0x40 ADD PUSH0 KECCAK256 SLOAD PUSH1 0x1 PUSH1 0x1 PUSH1 0xA0 SHL SUB AND EQ SWAP2 POP POP PUSH2 0x709 JUMP JUMPDEST POP PUSH0 SWAP6 SWAP5 POP POP POP POP POP JUMP JUMPDEST PUSH0 PUSH2 0xD02 DUP5 DUP5 DUP5 PUSH2 0x182D JUMP JUMPDEST DUP1 PUSH2 0xD13 JUMPI POP PUSH2 0xD13 DUP5 DUP5 DUP5 PUSH2 0x1919 JUMP JUMPDEST PUSH2 0xD63 JUMPI PUSH32 0x7739773977397739773977397739773977397739773977397739773977397739 DUP5 EQ DUP1 ISZERO PUSH2 0xD44 JUMPI POP DUP2 ISZERO JUMPDEST PUSH2 0xD56 JUMPI PUSH1 0x1 PUSH1 0x1 PUSH1 0xE0 SHL SUB NOT PUSH2 0x709 JUMP JUMPDEST PUSH4 0x77390001 PUSH1 0xE0 SHL PUSH2 0x709 JUMP JUMPDEST PUSH4 0xB135D3F PUSH1 0xE1 SHL SWAP5 SWAP4 POP POP POP POP JUMP JUMPDEST PUSH0 PUSH1 0x14 DUP3 LT PUSH2 0xE21 JUMPI PUSH0 CALLDATASIZE PUSH0 PUSH2 0xD89 DUP7 DUP7 PUSH2 0x193E JUMP JUMPDEST SWAP2 SWAP5 POP SWAP3 POP SWAP1 POP PUSH2 0xD9D PUSH1 0x1 DUP5 PUSH0 DUP1 PUSH2 0x6CB JUMP JUMPDEST ISZERO PUSH2 0xE1D JUMPI PUSH1 0x40 MLOAD PUSH4 0x7AA8F177 PUSH1 0xE1 SHL DUP2 MSTORE PUSH1 0x1 PUSH1 0x1 PUSH1 0xA0 SHL SUB DUP5 AND SWAP1 PUSH4 0xF551E2EE SWAP1 PUSH2 0xDD4 SWAP1 CALLER SWAP1 DUP12 SWAP1 DUP8 SWAP1 DUP8 SWAP1 PUSH1 0x4 ADD PUSH2 0x3CEF JUMP JUMPDEST PUSH1 0x20 PUSH1 0x40 MLOAD DUP1 DUP4 SUB DUP2 DUP7 GAS STATICCALL SWAP3 POP POP POP DUP1 ISZERO PUSH2 0xE0D JUMPI POP PUSH1 0x40 DUP1 MLOAD PUSH1 0x1F RETURNDATASIZE SWAP1 DUP2 ADD PUSH1 0x1F NOT AND DUP3 ADD SWAP1 SWAP3 MSTORE PUSH2 0xE0A SWAP2 DUP2 ADD SWAP1 PUSH2 0x3E61 JUMP JUMPDEST PUSH1 0x1 JUMPDEST ISZERO PUSH2 0xE1D JUMPI SWAP4 POP PUSH2 0x746 SWAP3 POP POP POP JUMP JUMPDEST POP POP POP JUMPDEST POP PUSH1 0x1 PUSH1 0x1 PUSH1 0xE0 SHL SUB NOT SWAP4 SWAP3 POP POP POP JUMP JUMPDEST CALLER ADDRESS DUP2 EQ DUP1 ISZERO SWAP1 PUSH2 0xE60 JUMPI POP PUSH1 0x1 PUSH1 0x1 PUSH1 0xA0 SHL SUB DUP2 AND PUSH20 0x433709009B8330FDA32311DF1C2AFA402ED8D009 EQ ISZERO JUMPDEST ISZERO PUSH2 0x75E JUMPI PUSH1 0x40 MLOAD PUSH4 0x7CF8632B PUSH1 0xE0 SHL DUP2 MSTORE PUSH1 0x1 PUSH1 0x1 PUSH1 0xA0 SHL SUB DUP3 AND PUSH1 0x4 DUP3 ADD MSTORE PUSH1 0x24 ADD PUSH2 0xBE3 JUMP JUMPDEST PUSH0 MLOAD PUSH1 0x20 PUSH2 0x449B PUSH0 CODECOPY PUSH0 MLOAD SWAP1 PUSH0 MSTORE PUSH1 0x1 PUSH1 0x1 PUSH1 0x40 SHL SUB DUP3 AND PUSH2 0xEBE JUMPI PUSH1 0x40 MLOAD PUSH4 0x455DAA5F PUSH1 0xE1 SHL DUP2 MSTORE PUSH1 0x4 ADD PUSH1 0x40 MLOAD DUP1 SWAP2 SUB SWAP1 REVERT JUMPDEST PUSH1 0x2 DUP2 ADD DUP1 SLOAD PUSH8 0xFFFFFFFFFFFFFFFF NOT AND PUSH1 0x1 PUSH1 0x1 PUSH1 0x40 SHL SUB DUP5 AND OR SWAP1 SSTORE PUSH2 0xEE4 PUSH2 0x1969 JUMP JUMPDEST PUSH1 0x40 MLOAD PUSH1 0x1 PUSH1 0x1 PUSH1 0x40 SHL SUB DUP4 AND DUP2 MSTORE PUSH32 0xA1BCBAD4CA88E748DE7F039CEC105095BAE000486AB6533EFB33A31D79BDAE5E SWAP1 PUSH1 0x20 ADD PUSH1 0x40 MLOAD DUP1 SWAP2 SUB SWAP1 LOG1 POP POP JUMP JUMPDEST CALLER PUSH20 0x433709009B8330FDA32311DF1C2AFA402ED8D009 DUP2 EQ PUSH2 0x75E JUMPI PUSH1 0x40 MLOAD PUSH4 0x7CF8632B PUSH1 0xE0 SHL DUP2 MSTORE PUSH1 0x1 PUSH1 0x1 PUSH1 0xA0 SHL SUB DUP3 AND PUSH1 0x4 DUP3 ADD MSTORE PUSH1 0x24 ADD PUSH2 0xBE3 JUMP JUMPDEST PUSH0 PUSH2 0x706 DUP6 DUP6 DUP6 DUP6 PUSH2 0x19EC JUMP JUMPDEST DUP1 ISZERO PUSH2 0x75E JUMPI PUSH2 0xF90 CALLER DUP3 PUSH1 0x40 MLOAD DUP1 PUSH1 0x20 ADD PUSH1 0x40 MSTORE DUP1 PUSH0 DUP2 MSTORE POP PUSH2 0x17D3 JUMP JUMPDEST POP POP JUMP JUMPDEST PUSH0 DUP3 PUSH1 0x1 ADD DUP3 PUSH1 0x40 MLOAD PUSH2 0xFA7 SWAP2 SWAP1 PUSH2 0x3E93 JUMP JUMPDEST SWAP1 DUP2 MSTORE PUSH1 0x40 MLOAD SWAP1 DUP2 SWAP1 SUB PUSH1 0x20 ADD SWAP1 KECCAK256 SLOAD ISZERO ISZERO SWAP4 SWAP3 POP POP POP JUMP JUMPDEST PUSH0 MLOAD PUSH1 0x20 PUSH2 0x449B PUSH0 CODECOPY PUSH0 MLOAD SWAP1 PUSH0 MSTORE PUSH0 JUMPDEST DUP3 MLOAD DUP2 LT ISZERO PUSH2 0x106A JUMPI PUSH0 DUP4 DUP3 DUP2 MLOAD DUP2 LT PUSH2 0xFEC JUMPI PUSH2 0xFEC PUSH2 0x3E9E JUMP JUMPDEST PUSH1 0x20 SWAP1 DUP2 MUL SWAP2 SWAP1 SWAP2 ADD ADD MLOAD SWAP1 POP PUSH2 0x1003 DUP4 DUP3 PUSH2 0x1A93 JUMP JUMPDEST DUP2 SWAP1 PUSH2 0x1023 JUMPI PUSH1 0x40 MLOAD PUSH4 0xB3A2E4CB PUSH1 0xE0 SHL DUP2 MSTORE PUSH1 0x4 ADD PUSH2 0xBE3 SWAP2 SWAP1 PUSH2 0x3B03 JUMP JUMPDEST POP DUP1 PUSH1 0x40 MLOAD PUSH2 0x1032 SWAP2 SWAP1 PUSH2 0x3E93 JUMP JUMPDEST PUSH1 0x40 MLOAD SWAP1 DUP2 SWAP1 SUB DUP2 KECCAK256 SWAP1 PUSH32 0xCA2ECE94B660C23BF1A2A217D383D94701CA9E368A082921F2D733D010E85505 SWAP1 PUSH0 SWAP1 LOG2 POP PUSH1 0x1 ADD PUSH2 0xFD0 JUMP JUMPDEST POP PUSH2 0xF90 PUSH2 0x1969 JUMP JUMPDEST PUSH1 0x60 PUSH2 0xB38 PUSH32 0x0 PUSH0 PUSH2 0x1C47 JUMP JUMPDEST PUSH1 0x60 PUSH2 0xB38 PUSH32 0x0 PUSH1 0x1 PUSH2 0x1C47 JUMP JUMPDEST PUSH0 PUSH2 0x10D5 PUSH2 0x845 JUMP JUMPDEST SWAP1 POP PUSH1 0x60 PUSH1 0x1 PUSH1 0x1 PUSH1 0xA0 SHL SUB DUP3 AND ISZERO PUSH2 0x115F JUMPI PUSH1 0x40 MLOAD PUSH4 0xD68F6025 PUSH1 0xE0 SHL DUP2 MSTORE PUSH1 0x1 PUSH1 0x1 PUSH1 0xA0 SHL SUB DUP4 AND SWAP1 PUSH4 0xD68F6025 SWAP1 PUSH2 0x111A SWAP1 CALLER SWAP1 CALLVALUE SWAP1 PUSH0 SWAP1 CALLDATASIZE SWAP1 PUSH1 0x4 ADD PUSH2 0x3CEF JUMP JUMPDEST PUSH0 PUSH1 0x40 MLOAD DUP1 DUP4 SUB DUP2 PUSH0 DUP8 GAS CALL ISZERO DUP1 ISZERO PUSH2 0x1135 JUMPI RETURNDATASIZE PUSH0 PUSH0 RETURNDATACOPY RETURNDATASIZE PUSH0 REVERT JUMPDEST POP POP POP POP PUSH1 0x40 MLOAD RETURNDATASIZE PUSH0 DUP3 RETURNDATACOPY PUSH1 0x1F RETURNDATASIZE SWAP1 DUP2 ADD PUSH1 0x1F NOT AND DUP3 ADD PUSH1 0x40 MSTORE PUSH2 0x115C SWAP2 SWAP1 DUP2 ADD SWAP1 PUSH2 0x3D16 JUMP JUMPDEST SWAP1 POP JUMPDEST PUSH32 0x2B49B75317FFC1021CA7DA4CA3423BF8403E18B223E63E6BC7ABE8F39A5ED700 PUSH1 0x3 NOT DUP7 ADD PUSH2 0x11DA JUMPI DUP1 SLOAD PUSH1 0x1 PUSH1 0x1 PUSH1 0xA0 SHL SUB AND DUP1 ISZERO PUSH2 0x11BF JUMPI PUSH1 0x40 MLOAD PUSH4 0xC005E8D PUSH1 0xE1 SHL DUP2 MSTORE PUSH1 0x1 PUSH1 0x1 PUSH1 0xA0 SHL SUB SWAP1 SWAP2 AND PUSH1 0x4 DUP3 ADD MSTORE PUSH1 0x24 ADD PUSH2 0xBE3 JUMP JUMPDEST POP DUP1 SLOAD PUSH1 0x1 PUSH1 0x1 PUSH1 0xA0 SHL SUB NOT AND PUSH1 0x1 PUSH1 0x1 PUSH1 0xA0 SHL SUB DUP7 AND OR DUP2 SSTORE JUMPDEST PUSH2 0x11E5 DUP7 DUP7 DUP7 PUSH2 0x1CF0 JUMP JUMPDEST POP PUSH1 0x1 PUSH1 0x1 PUSH1 0xA0 SHL SUB DUP3 AND ISZERO PUSH2 0x124F JUMPI PUSH1 0x40 MLOAD PUSH4 0xB9DFBED PUSH1 0xE1 SHL DUP2 MSTORE PUSH1 0x1 PUSH1 0x1 PUSH1 0xA0 SHL SUB DUP4 AND SWAP1 PUSH4 0x173BF7DA SWAP1 PUSH2 0x1221 SWAP1 DUP5 SWAP1 PUSH1 0x4 ADD PUSH2 0x3B03 JUMP JUMPDEST PUSH0 PUSH1 0x40 MLOAD DUP1 DUP4 SUB DUP2 PUSH0 DUP8 DUP1 EXTCODESIZE ISZERO DUP1 ISZERO PUSH2 0x1238 JUMPI PUSH0 PUSH0 REVERT JUMPDEST POP GAS CALL ISZERO DUP1 ISZERO PUSH2 0x124A JUMPI RETURNDATASIZE PUSH0 PUSH0 RETURNDATACOPY RETURNDATASIZE PUSH0 REVERT JUMPDEST POP POP POP POP JUMPDEST POP POP POP POP POP JUMP JUMPDEST PUSH1 0x60 PUSH2 0x1269 DUP3 PUSH2 0x1264 DUP7 SLOAD SWAP1 JUMP JUMPDEST PUSH2 0x1F81 JUMP JUMPDEST SWAP2 POP PUSH2 0x1275 DUP4 DUP4 PUSH2 0x1F81 JUMP JUMPDEST SWAP3 POP DUP3 DUP3 SUB PUSH0 DUP2 PUSH1 0x1 PUSH1 0x1 PUSH1 0x40 SHL SUB DUP2 GT ISZERO PUSH2 0x1293 JUMPI PUSH2 0x1293 PUSH2 0x36A0 JUMP JUMPDEST PUSH1 0x40 MLOAD SWAP1 DUP1 DUP3 MSTORE DUP1 PUSH1 0x20 MUL PUSH1 0x20 ADD DUP3 ADD PUSH1 0x40 MSTORE DUP1 ISZERO PUSH2 0x12C6 JUMPI DUP2 PUSH1 0x20 ADD JUMPDEST PUSH1 0x60 DUP2 MSTORE PUSH1 0x20 ADD SWAP1 PUSH1 0x1 SWAP1 SUB SWAP1 DUP2 PUSH2 0x12B1 JUMPI SWAP1 POP JUMPDEST POP SWAP1 POP PUSH0 JUMPDEST DUP3 DUP2 LT ISZERO PUSH2 0x138B JUMPI PUSH2 0x12DF DUP8 DUP8 DUP4 ADD PUSH2 0x1F90 JUMP JUMPDEST DUP1 SLOAD PUSH2 0x12EA SWAP1 PUSH2 0x3EB2 JUMP JUMPDEST DUP1 PUSH1 0x1F ADD PUSH1 0x20 DUP1 SWAP2 DIV MUL PUSH1 0x20 ADD PUSH1 0x40 MLOAD SWAP1 DUP2 ADD PUSH1 0x40 MSTORE DUP1 SWAP3 SWAP2 SWAP1 DUP2 DUP2 MSTORE PUSH1 0x20 ADD DUP3 DUP1 SLOAD PUSH2 0x1316 SWAP1 PUSH2 0x3EB2 JUMP JUMPDEST DUP1 ISZERO PUSH2 0x1361 JUMPI DUP1 PUSH1 0x1F LT PUSH2 0x1338 JUMPI PUSH2 0x100 DUP1 DUP4 SLOAD DIV MUL DUP4 MSTORE SWAP2 PUSH1 0x20 ADD SWAP2 PUSH2 0x1361 JUMP JUMPDEST DUP3 ADD SWAP2 SWAP1 PUSH0 MSTORE PUSH1 0x20 PUSH0 KECCAK256 SWAP1 JUMPDEST DUP2 SLOAD DUP2 MSTORE SWAP1 PUSH1 0x1 ADD SWAP1 PUSH1 0x20 ADD DUP1 DUP4 GT PUSH2 0x1344 JUMPI DUP3 SWAP1 SUB PUSH1 0x1F AND DUP3 ADD SWAP2 JUMPDEST POP POP POP POP POP DUP3 DUP3 DUP2 MLOAD DUP2 LT PUSH2 0x1378 JUMPI PUSH2 0x1378 PUSH2 0x3E9E JUMP JUMPDEST PUSH1 0x20 SWAP1 DUP2 MUL SWAP2 SWAP1 SWAP2 ADD ADD MSTORE PUSH1 0x1 ADD PUSH2 0x12CB JUMP JUMPDEST POP SWAP6 SWAP5 POP POP POP POP POP JUMP JUMPDEST PUSH0 MLOAD PUSH1 0x20 PUSH2 0x449B PUSH0 CODECOPY PUSH0 MLOAD SWAP1 PUSH0 MSTORE PUSH0 JUMPDEST DUP3 MLOAD DUP2 LT ISZERO PUSH2 0x1463 JUMPI PUSH0 DUP4 DUP3 DUP2 MLOAD DUP2 LT PUSH2 0x13C1 JUMPI PUSH2 0x13C1 PUSH2 0x3E9E JUMP JUMPDEST PUSH1 0x20 MUL PUSH1 0x20 ADD ADD MLOAD SWAP1 POP PUSH1 0x14 DUP2 MLOAD LT ISZERO DUP2 SWAP1 PUSH2 0x13F1 JUMPI PUSH1 0x40 MLOAD PUSH4 0x310775B PUSH1 0xE2 SHL DUP2 MSTORE PUSH1 0x4 ADD PUSH2 0xBE3 SWAP2 SWAP1 PUSH2 0x3B03 JUMP JUMPDEST POP PUSH2 0x13FC DUP4 DUP3 PUSH2 0x1FAF JUMP JUMPDEST DUP2 SWAP1 PUSH2 0x141C JUMPI PUSH1 0x40 MLOAD PUSH4 0x25E17A41 PUSH1 0xE0 SHL DUP2 MSTORE PUSH1 0x4 ADD PUSH2 0xBE3 SWAP2 SWAP1 PUSH2 0x3B03 JUMP JUMPDEST POP DUP1 PUSH1 0x40 MLOAD PUSH2 0x142B SWAP2 SWAP1 PUSH2 0x3E93 JUMP JUMPDEST PUSH1 0x40 MLOAD SWAP1 DUP2 SWAP1 SUB DUP2 KECCAK256 SWAP1 PUSH32 0x4B35CA4A0708FA3D38267E28BD9478214D7166D3483F78A0F35B00697219D2B2 SWAP1 PUSH0 SWAP1 LOG2 POP PUSH1 0x1 ADD PUSH2 0x13A5 JUMP JUMPDEST POP POP POP JUMP JUMPDEST PUSH0 DUP1 PUSH32 0xF0C57E16840DF040F15088DC2F81FE391C3923BEC73E23A9662EFC9C229C6A00 PUSH2 0x6C5 JUMP JUMPDEST PUSH2 0x1498 PUSH2 0x200E JUMP JUMPDEST JUMP JUMPDEST PUSH2 0x14A2 PUSH2 0x200E JUMP JUMPDEST PUSH2 0xF90 DUP3 DUP3 PUSH2 0x2033 JUMP JUMPDEST PUSH0 PUSH2 0x14B5 PUSH2 0x845 JUMP JUMPDEST SWAP1 POP PUSH1 0x60 PUSH1 0x1 PUSH1 0x1 PUSH1 0xA0 SHL SUB DUP3 AND ISZERO PUSH2 0x153F JUMPI PUSH1 0x40 MLOAD PUSH4 0xD68F6025 PUSH1 0xE0 SHL DUP2 MSTORE PUSH1 0x1 PUSH1 0x1 PUSH1 0xA0 SHL SUB DUP4 AND SWAP1 PUSH4 0xD68F6025 SWAP1 PUSH2 0x14FA SWAP1 CALLER SWAP1 CALLVALUE SWAP1 PUSH0 SWAP1 CALLDATASIZE SWAP1 PUSH1 0x4 ADD PUSH2 0x3CEF JUMP JUMPDEST PUSH0 PUSH1 0x40 MLOAD DUP1 DUP4 SUB DUP2 PUSH0 DUP8 GAS CALL ISZERO DUP1 ISZERO PUSH2 0x1515 JUMPI RETURNDATASIZE PUSH0 PUSH0 RETURNDATACOPY RETURNDATASIZE PUSH0 REVERT JUMPDEST POP POP POP POP PUSH1 0x40 MLOAD RETURNDATASIZE PUSH0 DUP3 RETURNDATACOPY PUSH1 0x1F RETURNDATASIZE SWAP1 DUP2 ADD PUSH1 0x1F NOT AND DUP3 ADD PUSH1 0x40 MSTORE PUSH2 0x153C SWAP2 SWAP1 DUP2 ADD SWAP1 PUSH2 0x3D16 JUMP JUMPDEST SWAP1 POP JUMPDEST PUSH32 0x2B49B75317FFC1021CA7DA4CA3423BF8403E18B223E63E6BC7ABE8F39A5ED700 PUSH1 0x3 NOT DUP7 ADD PUSH2 0x15BD JUMPI DUP1 SLOAD DUP7 SWAP1 DUP7 SWAP1 PUSH1 0x1 PUSH1 0x1 PUSH1 0xA0 SHL SUB DUP1 DUP4 AND SWAP2 AND EQ PUSH2 0x15AC JUMPI PUSH1 0x40 MLOAD PUSH4 0x1343D68D PUSH1 0xE0 SHL DUP2 MSTORE PUSH1 0x4 DUP2 ADD SWAP3 SWAP1 SWAP3 MSTORE PUSH1 0x1 PUSH1 0x1 PUSH1 0xA0 SHL SUB AND PUSH1 0x24 DUP3 ADD MSTORE PUSH1 0x44 ADD PUSH2 0xBE3 JUMP JUMPDEST POP POP DUP1 SLOAD PUSH1 0x1 PUSH1 0x1 PUSH1 0xA0 SHL SUB NOT AND DUP2 SSTORE JUMPDEST PUSH2 0x11E5 DUP7 DUP7 DUP7 PUSH2 0x204D JUMP JUMPDEST PUSH0 PUSH0 PUSH0 PUSH0 PUSH2 0x15D6 DUP6 PUSH0 PUSH2 0x2222 JUMP JUMPDEST PUSH2 0x15E1 DUP7 PUSH1 0x1 PUSH2 0x2222 JUMP JUMPDEST PUSH2 0x15EC DUP8 PUSH1 0x6 PUSH2 0x225A JUMP JUMPDEST PUSH2 0x15F7 DUP9 PUSH1 0xA PUSH2 0x2292 JUMP JUMPDEST SWAP4 POP SWAP4 POP SWAP4 POP SWAP4 POP SWAP2 SWAP4 POP SWAP2 SWAP4 JUMP JUMPDEST PUSH1 0x1 PUSH1 0x1 PUSH1 0xF8 SHL SUB NOT SWAP1 DUP2 AND SWAP2 AND EQ SWAP1 JUMP JUMPDEST PUSH2 0x1624 DUP5 DUP5 DUP5 DUP5 PUSH2 0x6CB JUMP JUMPDEST DUP5 DUP5 SWAP1 SWAP2 PUSH2 0x1657 JUMPI PUSH1 0x40 MLOAD PUSH4 0x1343D68D PUSH1 0xE0 SHL DUP2 MSTORE PUSH1 0x4 DUP2 ADD SWAP3 SWAP1 SWAP3 MSTORE PUSH1 0x1 PUSH1 0x1 PUSH1 0xA0 SHL SUB AND PUSH1 0x24 DUP3 ADD MSTORE PUSH1 0x44 ADD PUSH2 0xBE3 JUMP JUMPDEST POP POP POP POP POP POP JUMP JUMPDEST PUSH1 0x60 PUSH0 PUSH2 0x166A PUSH2 0x845 JUMP JUMPDEST SWAP1 POP PUSH1 0x60 PUSH1 0x1 PUSH1 0x1 PUSH1 0xA0 SHL SUB DUP3 AND ISZERO PUSH2 0x16F4 JUMPI PUSH1 0x40 MLOAD PUSH4 0xD68F6025 PUSH1 0xE0 SHL DUP2 MSTORE PUSH1 0x1 PUSH1 0x1 PUSH1 0xA0 SHL SUB DUP4 AND SWAP1 PUSH4 0xD68F6025 SWAP1 PUSH2 0x16AF SWAP1 CALLER SWAP1 CALLVALUE SWAP1 PUSH0 SWAP1 CALLDATASIZE SWAP1 PUSH1 0x4 ADD PUSH2 0x3CEF JUMP JUMPDEST PUSH0 PUSH1 0x40 MLOAD DUP1 DUP4 SUB DUP2 PUSH0 DUP8 GAS CALL ISZERO DUP1 ISZERO PUSH2 0x16CA JUMPI RETURNDATASIZE PUSH0 PUSH0 RETURNDATACOPY RETURNDATASIZE PUSH0 REVERT JUMPDEST POP POP POP POP PUSH1 0x40 MLOAD RETURNDATASIZE PUSH0 DUP3 RETURNDATACOPY PUSH1 0x1F RETURNDATASIZE SWAP1 DUP2 ADD PUSH1 0x1F NOT AND DUP3 ADD PUSH1 0x40 MSTORE PUSH2 0x16F1 SWAP2 SWAP1 DUP2 ADD SWAP1 PUSH2 0x3D16 JUMP JUMPDEST SWAP1 POP JUMPDEST PUSH2 0x16FF DUP7 DUP7 DUP7 PUSH2 0x22CD JUMP JUMPDEST SWAP3 POP PUSH1 0x1 PUSH1 0x1 PUSH1 0xA0 SHL SUB DUP3 AND ISZERO PUSH2 0x176A JUMPI PUSH1 0x40 MLOAD PUSH4 0xB9DFBED PUSH1 0xE1 SHL DUP2 MSTORE PUSH1 0x1 PUSH1 0x1 PUSH1 0xA0 SHL SUB DUP4 AND SWAP1 PUSH4 0x173BF7DA SWAP1 PUSH2 0x173C SWAP1 DUP5 SWAP1 PUSH1 0x4 ADD PUSH2 0x3B03 JUMP JUMPDEST PUSH0 PUSH1 0x40 MLOAD DUP1 DUP4 SUB DUP2 PUSH0 DUP8 DUP1 EXTCODESIZE ISZERO DUP1 ISZERO PUSH2 0x1753 JUMPI PUSH0 PUSH0 REVERT JUMPDEST POP GAS CALL ISZERO DUP1 ISZERO PUSH2 0x1765 JUMPI RETURNDATASIZE PUSH0 PUSH0 RETURNDATACOPY RETURNDATASIZE PUSH0 REVERT JUMPDEST POP POP POP POP JUMPDEST POP POP SWAP4 SWAP3 POP POP POP JUMP JUMPDEST PUSH0 PUSH1 0x1 DUP3 EQ DUP1 PUSH2 0x1783 JUMPI POP PUSH1 0x2 DUP3 EQ JUMPDEST DUP1 PUSH2 0x6C5 JUMPI POP POP PUSH1 0x3 EQ SWAP1 JUMP JUMPDEST PUSH1 0x1 PUSH1 0x1 PUSH1 0xE0 SHL SUB NOT AND PUSH0 SWAP1 DUP2 MSTORE PUSH32 0xA47D913D72B2639F4CA1C145CC07DDF7170B73B257C8E0D4FCED7CC8E3E3904 PUSH1 0x20 MSTORE PUSH1 0x40 SWAP1 KECCAK256 SLOAD PUSH1 0x1 PUSH1 0x1 PUSH1 0xA0 SHL SUB AND SWAP1 JUMP JUMPDEST PUSH0 PUSH0 PUSH0 DUP4 MLOAD PUSH1 0x20 DUP6 ADD DUP7 DUP9 GAS CALL SWAP5 SWAP4 POP POP POP POP JUMP JUMPDEST PUSH1 0x40 MLOAD RETURNDATASIZE DUP2 MSTORE RETURNDATASIZE PUSH0 PUSH1 0x20 DUP4 ADD RETURNDATACOPY RETURNDATASIZE PUSH1 0x20 ADD DUP2 ADD PUSH1 0x40 MSTORE SWAP1 JUMP JUMPDEST PUSH1 0x40 MLOAD RETURNDATASIZE PUSH0 DUP3 RETURNDATACOPY RETURNDATASIZE DUP2 REVERT JUMPDEST PUSH1 0x1 PUSH1 0x1 PUSH1 0xA0 SHL SUB DUP2 AND PUSH0 SWAP1 DUP2 MSTORE PUSH1 0x1 DUP4 ADD PUSH1 0x20 MSTORE PUSH1 0x40 DUP2 KECCAK256 SLOAD ISZERO ISZERO PUSH2 0x746 JUMP JUMPDEST PUSH0 CALLDATASIZE PUSH0 PUSH0 PUSH0 CALLDATASIZE PUSH0 PUSH2 0x183E DUP10 DUP10 PUSH2 0x236B JUMP JUMPDEST SWAP6 POP SWAP6 POP SWAP6 POP SWAP6 POP SWAP6 POP SWAP6 POP PUSH0 PUSH0 PUSH0 PUSH0 PUSH0 PUSH2 0x1857 PUSH2 0x873 JUMP JUMPDEST POP SWAP6 POP SWAP6 POP SWAP6 POP SWAP6 POP SWAP6 POP POP PUSH2 0x1876 DUP9 DUP11 PUSH2 0x2464 SWAP1 SWAP2 SWAP1 PUSH4 0xFFFFFFFF AND JUMP JUMPDEST DUP16 EQ DUP1 ISZERO PUSH2 0x1883 JUMPI POP DUP6 ISZERO ISZERO JUMPDEST DUP1 ISZERO PUSH2 0x1906 JUMPI POP PUSH2 0x1906 PUSH2 0x18FF PUSH2 0x18F8 DUP10 DUP10 DUP13 DUP11 DUP1 MLOAD SWAP1 PUSH1 0x20 ADD KECCAK256 DUP11 DUP1 MLOAD SWAP1 PUSH1 0x20 ADD KECCAK256 DUP11 DUP11 DUP11 PUSH1 0x40 MLOAD PUSH1 0x20 ADD PUSH2 0x18E4 SWAP6 SWAP5 SWAP4 SWAP3 SWAP2 SWAP1 SWAP5 DUP6 MSTORE PUSH1 0x20 DUP6 ADD SWAP4 SWAP1 SWAP4 MSTORE PUSH1 0x40 DUP5 ADD SWAP2 SWAP1 SWAP2 MSTORE PUSH1 0x1 PUSH1 0x1 PUSH1 0xA0 SHL SUB AND PUSH1 0x60 DUP4 ADD MSTORE PUSH1 0x80 DUP3 ADD MSTORE PUSH1 0xA0 ADD SWAP1 JUMP JUMPDEST PUSH1 0x40 MLOAD PUSH1 0x20 DUP2 DUP4 SUB SUB DUP2 MSTORE SWAP1 PUSH1 0x40 MSTORE PUSH2 0x2483 JUMP JUMPDEST DUP12 SWAP1 PUSH2 0x2464 JUMP JUMPDEST DUP13 DUP13 PUSH2 0x24B5 JUMP JUMPDEST SWAP16 SWAP15 POP POP POP POP POP POP POP POP POP POP POP POP POP POP POP JUMP JUMPDEST PUSH0 PUSH2 0x709 PUSH2 0x1937 PUSH2 0x1929 DUP7 PUSH2 0x24C1 JUMP JUMPDEST PUSH2 0x1931 PUSH2 0x24F4 JUMP JUMPDEST SWAP1 PUSH2 0x2464 JUMP JUMPDEST DUP5 DUP5 PUSH2 0x24B5 JUMP JUMPDEST PUSH0 CALLDATASIZE DUP2 PUSH2 0x194B DUP5 DUP7 PUSH2 0x3EEA JUMP JUMPDEST PUSH1 0x60 SHR PUSH2 0x195B DUP6 PUSH1 0x14 DUP2 DUP10 PUSH2 0x3E04 JUMP JUMPDEST SWAP3 POP SWAP3 POP SWAP3 POP JUMPDEST SWAP3 POP SWAP3 POP SWAP3 JUMP JUMPDEST PUSH0 MLOAD PUSH1 0x20 PUSH2 0x449B PUSH0 CODECOPY PUSH0 MLOAD SWAP1 PUSH0 MSTORE DUP1 SLOAD PUSH0 PUSH2 0x19AB PUSH32 0xDFE169305A533E288E0557DA8D289146D3CC75FA6E04C87599B048A60A4E5602 SLOAD PUSH1 0x1 PUSH1 0x1 PUSH1 0x40 SHL SUB AND SWAP1 JUMP JUMPDEST SWAP1 POP DUP2 DUP2 PUSH1 0x1 PUSH1 0x1 PUSH1 0x40 SHL SUB DUP2 AND DUP3 LT ISZERO PUSH2 0x124F JUMPI PUSH1 0x40 MLOAD PUSH4 0x8249D757 PUSH1 0xE0 SHL DUP2 MSTORE PUSH1 0x1 PUSH1 0x1 PUSH1 0x40 SHL SUB SWAP3 DUP4 AND PUSH1 0x4 DUP3 ADD MSTORE SWAP2 AND PUSH1 0x24 DUP3 ADD MSTORE PUSH1 0x44 ADD PUSH2 0xBE3 JUMP JUMPDEST PUSH0 PUSH0 PUSH2 0x19F7 DUP7 PUSH2 0x261D JUMP JUMPDEST SWAP1 POP PUSH2 0x1A06 PUSH1 0x1 DUP3 PUSH0 DUP1 PUSH2 0x6CB JUMP JUMPDEST PUSH2 0x1A1B JUMPI PUSH2 0x1A16 DUP7 DUP7 DUP7 DUP7 PUSH2 0x2635 JUMP JUMPDEST PUSH2 0x1A89 JUMP JUMPDEST PUSH1 0x40 MLOAD PUSH4 0x97003203 PUSH1 0xE0 SHL DUP2 MSTORE PUSH1 0x1 PUSH1 0x1 PUSH1 0xA0 SHL SUB DUP3 AND SWAP1 PUSH4 0x97003203 SWAP1 PUSH2 0x1A49 SWAP1 DUP10 SWAP1 DUP10 SWAP1 PUSH1 0x4 ADD PUSH2 0x3F61 JUMP JUMPDEST PUSH1 0x20 PUSH1 0x40 MLOAD DUP1 DUP4 SUB DUP2 PUSH0 DUP8 GAS CALL ISZERO DUP1 ISZERO PUSH2 0x1A65 JUMPI RETURNDATASIZE PUSH0 PUSH0 RETURNDATACOPY RETURNDATASIZE PUSH0 REVERT JUMPDEST POP POP POP POP PUSH1 0x40 MLOAD RETURNDATASIZE PUSH1 0x1F NOT PUSH1 0x1F DUP3 ADD AND DUP3 ADD DUP1 PUSH1 0x40 MSTORE POP DUP2 ADD SWAP1 PUSH2 0x1A89 SWAP2 SWAP1 PUSH2 0x3DCC JUMP JUMPDEST SWAP7 SWAP6 POP POP POP POP POP POP JUMP JUMPDEST PUSH0 PUSH0 DUP4 PUSH1 0x1 ADD DUP4 PUSH1 0x40 MLOAD PUSH2 0x1AA7 SWAP2 SWAP1 PUSH2 0x3E93 JUMP JUMPDEST SWAP1 DUP2 MSTORE PUSH1 0x20 ADD PUSH1 0x40 MLOAD DUP1 SWAP2 SUB SWAP1 KECCAK256 SLOAD SWAP1 POP DUP1 PUSH0 EQ PUSH2 0x1C37 JUMPI PUSH0 PUSH2 0x1ACB PUSH1 0x1 DUP4 PUSH2 0x4078 JUMP JUMPDEST DUP6 SLOAD SWAP1 SWAP2 POP PUSH0 SWAP1 PUSH2 0x1ADE SWAP1 PUSH1 0x1 SWAP1 PUSH2 0x4078 JUMP JUMPDEST SWAP1 POP DUP1 DUP3 EQ PUSH2 0x1BDC JUMPI PUSH0 DUP7 PUSH0 ADD DUP3 DUP2 SLOAD DUP2 LT PUSH2 0x1AFC JUMPI PUSH2 0x1AFC PUSH2 0x3E9E JUMP JUMPDEST SWAP1 PUSH0 MSTORE PUSH1 0x20 PUSH0 KECCAK256 ADD DUP1 SLOAD PUSH2 0x1B0F SWAP1 PUSH2 0x3EB2 JUMP JUMPDEST DUP1 PUSH1 0x1F ADD PUSH1 0x20 DUP1 SWAP2 DIV MUL PUSH1 0x20 ADD PUSH1 0x40 MLOAD SWAP1 DUP2 ADD PUSH1 0x40 MSTORE DUP1 SWAP3 SWAP2 SWAP1 DUP2 DUP2 MSTORE PUSH1 0x20 ADD DUP3 DUP1 SLOAD PUSH2 0x1B3B SWAP1 PUSH2 0x3EB2 JUMP JUMPDEST DUP1 ISZERO PUSH2 0x1B86 JUMPI DUP1 PUSH1 0x1F LT PUSH2 0x1B5D JUMPI PUSH2 0x100 DUP1 DUP4 SLOAD DIV MUL DUP4 MSTORE SWAP2 PUSH1 0x20 ADD SWAP2 PUSH2 0x1B86 JUMP JUMPDEST DUP3 ADD SWAP2 SWAP1 PUSH0 MSTORE PUSH1 0x20 PUSH0 KECCAK256 SWAP1 JUMPDEST DUP2 SLOAD DUP2 MSTORE SWAP1 PUSH1 0x1 ADD SWAP1 PUSH1 0x20 ADD DUP1 DUP4 GT PUSH2 0x1B69 JUMPI DUP3 SWAP1 SUB PUSH1 0x1F AND DUP3 ADD SWAP2 JUMPDEST POP POP POP POP POP SWAP1 POP DUP1 DUP8 PUSH0 ADD DUP5 DUP2 SLOAD DUP2 LT PUSH2 0x1BA2 JUMPI PUSH2 0x1BA2 PUSH2 0x3E9E JUMP JUMPDEST SWAP1 PUSH0 MSTORE PUSH1 0x20 PUSH0 KECCAK256 ADD SWAP1 DUP2 PUSH2 0x1BB6 SWAP2 SWAP1 PUSH2 0x40D9 JUMP JUMPDEST POP DUP4 DUP8 PUSH1 0x1 ADD DUP3 PUSH1 0x40 MLOAD PUSH2 0x1BCA SWAP2 SWAP1 PUSH2 0x3E93 JUMP JUMPDEST SWAP1 DUP2 MSTORE PUSH1 0x40 MLOAD SWAP1 DUP2 SWAP1 SUB PUSH1 0x20 ADD SWAP1 KECCAK256 SSTORE POP JUMPDEST DUP6 SLOAD DUP7 SWAP1 DUP1 PUSH2 0x1BED JUMPI PUSH2 0x1BED PUSH2 0x4193 JUMP JUMPDEST PUSH1 0x1 SWAP1 SUB DUP2 DUP2 SWAP1 PUSH0 MSTORE PUSH1 0x20 PUSH0 KECCAK256 ADD PUSH0 PUSH2 0x1C06 SWAP2 SWAP1 PUSH2 0x3576 JUMP JUMPDEST SWAP1 SSTORE DUP6 PUSH1 0x1 ADD DUP6 PUSH1 0x40 MLOAD PUSH2 0x1C1A SWAP2 SWAP1 PUSH2 0x3E93 JUMP JUMPDEST SWAP1 DUP2 MSTORE PUSH1 0x20 ADD PUSH1 0x40 MLOAD DUP1 SWAP2 SUB SWAP1 KECCAK256 PUSH0 SWAP1 SSTORE PUSH1 0x1 SWAP4 POP POP POP POP PUSH2 0x6C5 JUMP JUMPDEST PUSH0 SWAP2 POP POP PUSH2 0x6C5 JUMP JUMPDEST POP SWAP3 SWAP2 POP POP JUMP JUMPDEST PUSH1 0x60 PUSH1 0xFF DUP4 EQ PUSH2 0x1C61 JUMPI PUSH2 0x1C5A DUP4 PUSH2 0x2654 JUMP JUMPDEST SWAP1 POP PUSH2 0x6C5 JUMP JUMPDEST DUP2 DUP1 SLOAD PUSH2 0x1C6D SWAP1 PUSH2 0x3EB2 JUMP JUMPDEST DUP1 PUSH1 0x1F ADD PUSH1 0x20 DUP1 SWAP2 DIV MUL PUSH1 0x20 ADD PUSH1 0x40 MLOAD SWAP1 DUP2 ADD PUSH1 0x40 MSTORE DUP1 SWAP3 SWAP2 SWAP1 DUP2 DUP2 MSTORE PUSH1 0x20 ADD DUP3 DUP1 SLOAD PUSH2 0x1C99 SWAP1 PUSH2 0x3EB2 JUMP JUMPDEST DUP1 ISZERO PUSH2 0x1CE4 JUMPI DUP1 PUSH1 0x1F LT PUSH2 0x1CBB JUMPI PUSH2 0x100 DUP1 DUP4 SLOAD DIV MUL DUP4 MSTORE SWAP2 PUSH1 0x20 ADD SWAP2 PUSH2 0x1CE4 JUMP JUMPDEST DUP3 ADD SWAP2 SWAP1 PUSH0 MSTORE PUSH1 0x20 PUSH0 KECCAK256 SWAP1 JUMPDEST DUP2 SLOAD DUP2 MSTORE SWAP1 PUSH1 0x1 ADD SWAP1 PUSH1 0x20 ADD DUP1 DUP4 GT PUSH2 0x1CC7 JUMPI DUP3 SWAP1 SUB PUSH1 0x1F AND DUP3 ADD SWAP2 JUMPDEST POP POP POP POP POP SWAP1 POP PUSH2 0x6C5 JUMP JUMPDEST PUSH32 0xA47D913D72B2639F4CA1C145CC07DDF7170B73B257C8E0D4FCED7CC8E3E3900 PUSH2 0x1D1A DUP5 PUSH2 0xB7A JUMP JUMPDEST DUP5 SWAP1 PUSH2 0x1D3C JUMPI PUSH1 0x40 MLOAD PUSH4 0x60FA2B23 PUSH1 0xE0 SHL DUP2 MSTORE PUSH1 0x4 ADD PUSH2 0xBE3 SWAP2 DUP2 MSTORE PUSH1 0x20 ADD SWAP1 JUMP JUMPDEST POP PUSH1 0x40 MLOAD PUSH4 0xECD05961 PUSH1 0xE0 SHL DUP2 MSTORE PUSH1 0x4 DUP2 ADD DUP6 SWAP1 MSTORE PUSH1 0x1 PUSH1 0x1 PUSH1 0xA0 SHL SUB DUP5 AND SWAP1 PUSH4 0xECD05961 SWAP1 PUSH1 0x24 ADD PUSH1 0x20 PUSH1 0x40 MLOAD DUP1 DUP4 SUB DUP2 DUP7 GAS STATICCALL ISZERO DUP1 ISZERO PUSH2 0x1D80 JUMPI RETURNDATASIZE PUSH0 PUSH0 RETURNDATACOPY RETURNDATASIZE PUSH0 REVERT JUMPDEST POP POP POP POP PUSH1 0x40 MLOAD RETURNDATASIZE PUSH1 0x1F NOT PUSH1 0x1F DUP3 ADD AND DUP3 ADD DUP1 PUSH1 0x40 MSTORE POP DUP2 ADD SWAP1 PUSH2 0x1DA4 SWAP2 SWAP1 PUSH2 0x41A7 JUMP JUMPDEST DUP5 DUP5 SWAP1 SWAP2 PUSH2 0x1DD7 JUMPI PUSH1 0x40 MLOAD PUSH4 0x8F89476F PUSH1 0xE0 SHL DUP2 MSTORE PUSH1 0x4 DUP2 ADD SWAP3 SWAP1 SWAP3 MSTORE PUSH1 0x1 PUSH1 0x1 PUSH1 0xA0 SHL SUB AND PUSH1 0x24 DUP3 ADD MSTORE PUSH1 0x44 ADD PUSH2 0xBE3 JUMP JUMPDEST POP POP PUSH1 0x1 DUP5 SUB PUSH2 0x1E25 JUMPI PUSH2 0x1DEB DUP2 DUP5 PUSH2 0x2691 JUMP JUMPDEST DUP5 DUP5 SWAP1 SWAP2 PUSH2 0x1E1E JUMPI PUSH1 0x40 MLOAD PUSH4 0x95D48A5B PUSH1 0xE0 SHL DUP2 MSTORE PUSH1 0x4 DUP2 ADD SWAP3 SWAP1 SWAP3 MSTORE PUSH1 0x1 PUSH1 0x1 PUSH1 0xA0 SHL SUB AND PUSH1 0x24 DUP3 ADD MSTORE PUSH1 0x44 ADD PUSH2 0xBE3 JUMP JUMPDEST POP POP PUSH2 0x1EDF JUMP JUMPDEST PUSH1 0x2 DUP5 SUB PUSH2 0x1E3A JUMPI PUSH2 0x1DEB PUSH1 0x2 DUP3 ADD DUP5 PUSH2 0x2691 JUMP JUMPDEST PUSH1 0x3 DUP5 SUB PUSH2 0x1EDF JUMPI PUSH0 PUSH2 0x1E4C DUP4 PUSH2 0x26A5 JUMP JUMPDEST PUSH1 0x1 PUSH1 0x1 PUSH1 0xE0 SHL SUB NOT DUP3 AND PUSH0 SWAP1 DUP2 MSTORE PUSH1 0x4 DUP6 ADD PUSH1 0x20 MSTORE PUSH1 0x40 SWAP1 KECCAK256 SLOAD SWAP1 SWAP5 POP SWAP1 SWAP2 POP DUP6 SWAP1 DUP6 SWAP1 PUSH1 0x1 PUSH1 0x1 PUSH1 0xA0 SHL SUB AND ISZERO PUSH2 0x1EAA JUMPI PUSH1 0x40 MLOAD PUSH4 0x95D48A5B PUSH1 0xE0 SHL DUP2 MSTORE PUSH1 0x4 DUP2 ADD SWAP3 SWAP1 SWAP3 MSTORE PUSH1 0x1 PUSH1 0x1 PUSH1 0xA0 SHL SUB AND PUSH1 0x24 DUP3 ADD MSTORE PUSH1 0x44 ADD PUSH2 0xBE3 JUMP JUMPDEST POP POP PUSH1 0x1 PUSH1 0x1 PUSH1 0xE0 SHL SUB NOT AND PUSH0 SWAP1 DUP2 MSTORE PUSH1 0x4 DUP3 ADD PUSH1 0x20 MSTORE PUSH1 0x40 SWAP1 KECCAK256 DUP1 SLOAD PUSH1 0x1 PUSH1 0x1 PUSH1 0xA0 SHL SUB NOT AND PUSH1 0x1 PUSH1 0x1 PUSH1 0xA0 SHL SUB DUP6 AND OR SWAP1 SSTORE JUMPDEST PUSH1 0x40 MLOAD PUSH4 0x6D61FE7 PUSH1 0xE4 SHL DUP2 MSTORE PUSH1 0x1 PUSH1 0x1 PUSH1 0xA0 SHL SUB DUP5 AND SWAP1 PUSH4 0x6D61FE70 SWAP1 PUSH2 0x1F0B SWAP1 DUP6 SWAP1 PUSH1 0x4 ADD PUSH2 0x3B03 JUMP JUMPDEST PUSH0 PUSH1 0x40 MLOAD DUP1 DUP4 SUB DUP2 PUSH0 DUP8 DUP1 EXTCODESIZE ISZERO DUP1 ISZERO PUSH2 0x1F22 JUMPI PUSH0 PUSH0 REVERT JUMPDEST POP GAS CALL ISZERO DUP1 ISZERO PUSH2 0x1F34 JUMPI RETURNDATASIZE PUSH0 PUSH0 RETURNDATACOPY RETURNDATASIZE PUSH0 REVERT JUMPDEST POP POP PUSH1 0x40 DUP1 MLOAD DUP8 DUP2 MSTORE PUSH1 0x1 PUSH1 0x1 PUSH1 0xA0 SHL SUB DUP8 AND PUSH1 0x20 DUP3 ADD MSTORE PUSH32 0xD21D0B289F126C4B473EA641963E766833C2F13866E4FF480ABD787C100EF123 SWAP4 POP ADD SWAP1 POP JUMPDEST PUSH1 0x40 MLOAD DUP1 SWAP2 SUB SWAP1 LOG1 POP POP POP POP JUMP JUMPDEST PUSH0 DUP3 DUP3 XOR DUP3 DUP5 LT MUL DUP3 XOR PUSH2 0x746 JUMP JUMPDEST PUSH0 DUP3 PUSH2 0x709 PUSH2 0x1FAC DUP5 PUSH2 0x1FA8 DUP5 PUSH0 SWAP1 DUP2 MSTORE PUSH1 0x20 SWAP1 KECCAK256 SWAP1 JUMP JUMPDEST ADD SWAP1 JUMP JUMPDEST SWAP1 JUMP JUMPDEST PUSH0 PUSH2 0x1FBA DUP4 DUP4 PUSH2 0xF94 JUMP JUMPDEST PUSH2 0x2007 JUMPI DUP3 SLOAD PUSH1 0x1 DUP2 ADD DUP5 SSTORE PUSH0 DUP5 DUP2 MSTORE PUSH1 0x20 SWAP1 KECCAK256 ADD PUSH2 0x1FD9 DUP4 DUP3 PUSH2 0x40D9 JUMP JUMPDEST POP DUP3 SLOAD PUSH1 0x40 MLOAD PUSH1 0x1 DUP6 ADD SWAP1 PUSH2 0x1FEF SWAP1 DUP6 SWAP1 PUSH2 0x3E93 JUMP JUMPDEST SWAP1 DUP2 MSTORE PUSH1 0x40 MLOAD SWAP1 DUP2 SWAP1 SUB PUSH1 0x20 ADD SWAP1 KECCAK256 SSTORE POP PUSH1 0x1 PUSH2 0x6C5 JUMP JUMPDEST POP PUSH0 PUSH2 0x6C5 JUMP JUMPDEST PUSH2 0x2016 PUSH2 0x26E7 JUMP JUMPDEST PUSH2 0x1498 JUMPI PUSH1 0x40 MLOAD PUSH4 0x1AFCD79F PUSH1 0xE3 SHL DUP2 MSTORE PUSH1 0x4 ADD PUSH1 0x40 MLOAD DUP1 SWAP2 SUB SWAP1 REVERT JUMPDEST PUSH2 0x203B PUSH2 0x200E JUMP JUMPDEST PUSH2 0x2044 DUP3 PUSH2 0x1395 JUMP JUMPDEST PUSH2 0xF90 DUP2 PUSH2 0xE89 JUMP JUMPDEST PUSH32 0xA47D913D72B2639F4CA1C145CC07DDF7170B73B257C8E0D4FCED7CC8E3E3900 PUSH2 0x2077 DUP5 PUSH2 0xB7A JUMP JUMPDEST DUP5 SWAP1 PUSH2 0x2099 JUMPI PUSH1 0x40 MLOAD PUSH4 0x60FA2B23 PUSH1 0xE0 SHL DUP2 MSTORE PUSH1 0x4 ADD PUSH2 0xBE3 SWAP2 DUP2 MSTORE PUSH1 0x20 ADD SWAP1 JUMP JUMPDEST POP PUSH1 0x1 DUP5 SUB PUSH2 0x20E6 JUMPI PUSH2 0x20AC DUP2 DUP5 PUSH2 0x2700 JUMP JUMPDEST DUP5 DUP5 SWAP1 SWAP2 PUSH2 0x20DF JUMPI PUSH1 0x40 MLOAD PUSH4 0x1343D68D PUSH1 0xE0 SHL DUP2 MSTORE PUSH1 0x4 DUP2 ADD SWAP3 SWAP1 SWAP3 MSTORE PUSH1 0x1 PUSH1 0x1 PUSH1 0xA0 SHL SUB AND PUSH1 0x24 DUP3 ADD MSTORE PUSH1 0x44 ADD PUSH2 0xBE3 JUMP JUMPDEST POP POP PUSH2 0x219F JUMP JUMPDEST PUSH1 0x2 DUP5 SUB PUSH2 0x20FB JUMPI PUSH2 0x20AC PUSH1 0x2 DUP3 ADD DUP5 PUSH2 0x2700 JUMP JUMPDEST PUSH1 0x3 DUP5 SUB PUSH2 0x219F JUMPI PUSH0 PUSH2 0x210D DUP4 PUSH2 0x26A5 JUMP JUMPDEST SWAP4 POP SWAP1 POP PUSH1 0x1 PUSH1 0x1 PUSH1 0xA0 SHL SUB DUP5 AND PUSH2 0x2124 DUP3 PUSH2 0x1790 JUMP JUMPDEST PUSH1 0x1 PUSH1 0x1 PUSH1 0xA0 SHL SUB AND EQ DUP1 ISZERO PUSH2 0x2142 JUMPI POP PUSH1 0x1 PUSH1 0x1 PUSH1 0xA0 SHL SUB DUP5 AND ISZERO ISZERO JUMPDEST DUP6 DUP6 SWAP1 SWAP2 PUSH2 0x2175 JUMPI PUSH1 0x40 MLOAD PUSH4 0x1343D68D PUSH1 0xE0 SHL DUP2 MSTORE PUSH1 0x4 DUP2 ADD SWAP3 SWAP1 SWAP3 MSTORE PUSH1 0x1 PUSH1 0x1 PUSH1 0xA0 SHL SUB AND PUSH1 0x24 DUP3 ADD MSTORE PUSH1 0x44 ADD PUSH2 0xBE3 JUMP JUMPDEST POP POP PUSH1 0x1 PUSH1 0x1 PUSH1 0xE0 SHL SUB NOT AND PUSH0 SWAP1 DUP2 MSTORE PUSH1 0x4 DUP3 ADD PUSH1 0x20 MSTORE PUSH1 0x40 SWAP1 KECCAK256 DUP1 SLOAD PUSH1 0x1 PUSH1 0x1 PUSH1 0xA0 SHL SUB NOT AND SWAP1 SSTORE JUMPDEST PUSH2 0x21E3 DUP4 DUP4 PUSH1 0x40 MLOAD PUSH1 0x24 ADD PUSH2 0x21B4 SWAP2 SWAP1 PUSH2 0x3B03 JUMP JUMPDEST PUSH1 0x40 DUP1 MLOAD PUSH1 0x1F NOT DUP2 DUP5 SUB ADD DUP2 MSTORE SWAP2 SWAP1 MSTORE PUSH1 0x20 DUP2 ADD DUP1 MLOAD PUSH1 0x1 PUSH1 0x1 PUSH1 0xE0 SHL SUB AND PUSH4 0x8A91B0E3 PUSH1 0xE0 SHL OR SWAP1 MSTORE PUSH2 0x2714 JUMP JUMPDEST POP PUSH1 0x40 DUP1 MLOAD DUP6 DUP2 MSTORE PUSH1 0x1 PUSH1 0x1 PUSH1 0xA0 SHL SUB DUP6 AND PUSH1 0x20 DUP3 ADD MSTORE PUSH32 0x341347516A9DE374859DFDA710FA4828B2D48CB57D4FBE4C1149612B8E02276E SWAP2 ADD PUSH2 0x1F73 JUMP JUMPDEST PUSH0 PUSH1 0x1F DUP3 PUSH1 0xFF AND GT ISZERO PUSH2 0x2248 JUMPI PUSH1 0x40 MLOAD PUSH4 0x1DD4BB1B PUSH1 0xE1 SHL DUP2 MSTORE PUSH1 0x4 ADD PUSH1 0x40 MLOAD DUP1 SWAP2 SUB SWAP1 REVERT JUMPDEST POP PUSH1 0x8 MUL SHL PUSH1 0x1 PUSH1 0x1 PUSH1 0xF8 SHL SUB NOT AND SWAP1 JUMP JUMPDEST PUSH0 PUSH1 0x1C DUP3 PUSH1 0xFF AND GT ISZERO PUSH2 0x2280 JUMPI PUSH1 0x40 MLOAD PUSH4 0x1DD4BB1B PUSH1 0xE1 SHL DUP2 MSTORE PUSH1 0x4 ADD PUSH1 0x40 MLOAD DUP1 SWAP2 SUB SWAP1 REVERT JUMPDEST POP PUSH1 0x8 MUL SHL PUSH1 0x1 PUSH1 0x1 PUSH1 0xE0 SHL SUB NOT AND SWAP1 JUMP JUMPDEST PUSH0 PUSH1 0xA DUP3 PUSH1 0xFF AND GT ISZERO PUSH2 0x22B8 JUMPI PUSH1 0x40 MLOAD PUSH4 0x1DD4BB1B PUSH1 0xE1 SHL DUP2 MSTORE PUSH1 0x4 ADD PUSH1 0x40 MLOAD DUP1 SWAP2 SUB SWAP1 REVERT JUMPDEST POP PUSH1 0x8 MUL SHL PUSH10 0xFFFFFFFFFFFFFFFFFFFF NOT AND SWAP1 JUMP JUMPDEST PUSH1 0x60 PUSH0 PUSH0 PUSH2 0x22DA DUP7 PUSH2 0x15C8 JUMP JUMPDEST POP POP SWAP2 POP SWAP2 POP PUSH2 0x22ED DUP3 PUSH0 PUSH1 0xF8 SHL PUSH2 0x1606 JUMP JUMPDEST ISZERO PUSH2 0x2306 JUMPI PUSH2 0x22FD DUP6 DUP6 DUP4 PUSH2 0x2720 JUMP JUMPDEST SWAP3 POP POP POP PUSH2 0x746 JUMP JUMPDEST PUSH2 0x2314 DUP3 PUSH1 0x1 PUSH1 0xF8 SHL PUSH2 0x1606 JUMP JUMPDEST ISZERO PUSH2 0x2324 JUMPI PUSH2 0x22FD DUP6 DUP6 DUP4 PUSH2 0x279C JUMP JUMPDEST PUSH2 0x2336 DUP3 PUSH1 0x1 PUSH1 0x1 PUSH1 0xF8 SHL SUB NOT PUSH2 0x1606 JUMP JUMPDEST ISZERO PUSH2 0x2346 JUMPI PUSH2 0x22FD DUP6 DUP6 DUP4 PUSH2 0x28C2 JUMP JUMPDEST PUSH1 0x40 MLOAD PUSH4 0x58DF354B PUSH1 0xE1 SHL DUP2 MSTORE PUSH1 0x1 PUSH1 0x1 PUSH1 0xF8 SHL SUB NOT DUP4 AND PUSH1 0x4 DUP3 ADD MSTORE PUSH1 0x24 ADD PUSH2 0xBE3 JUMP JUMPDEST CALLDATASIZE PUSH0 DUP1 DUP1 DUP4 DUP2 DUP7 PUSH1 0x42 DUP2 LT ISZERO PUSH2 0x2393 JUMPI POP PUSH0 SWAP6 POP DUP6 SWAP5 POP DUP5 SWAP4 POP DUP4 SWAP3 POP DUP3 SWAP2 POP DUP2 SWAP1 POP PUSH2 0x245A JUMP JUMPDEST PUSH1 0x1 NOT DUP2 ADD PUSH0 PUSH2 0x23A5 DUP11 DUP4 DUP2 DUP15 PUSH2 0x3E04 JUMP JUMPDEST PUSH2 0x23AE SWAP2 PUSH2 0x41C6 JUMP JUMPDEST PUSH1 0xF0 SHR SWAP1 POP PUSH1 0x42 DUP2 ADD DUP4 LT ISZERO PUSH2 0x23D9 JUMPI POP PUSH0 SWAP8 POP DUP8 SWAP7 POP DUP7 SWAP6 POP DUP6 SWAP5 POP DUP5 SWAP4 POP DUP4 SWAP3 POP PUSH2 0x245A SWAP2 POP POP JUMP JUMPDEST PUSH0 DUP2 DUP4 SUB SWAP1 POP PUSH0 PUSH1 0x20 DUP3 SUB SWAP1 POP PUSH0 PUSH1 0x20 DUP3 SUB SWAP1 POP DUP14 DUP14 PUSH0 SWAP1 DUP4 SWAP3 PUSH2 0x23FF SWAP4 SWAP3 SWAP2 SWAP1 PUSH2 0x3E04 JUMP JUMPDEST SWAP12 POP SWAP12 POP DUP14 DUP14 DUP3 SWAP1 DUP5 SWAP3 PUSH2 0x2415 SWAP4 SWAP3 SWAP2 SWAP1 PUSH2 0x3E04 JUMP JUMPDEST PUSH2 0x241E SWAP2 PUSH2 0x41FC JUMP JUMPDEST SWAP10 POP DUP14 DUP14 DUP4 SWAP1 DUP6 SWAP3 PUSH2 0x2432 SWAP4 SWAP3 SWAP2 SWAP1 PUSH2 0x3E04 JUMP JUMPDEST PUSH2 0x243B SWAP2 PUSH2 0x41FC JUMP JUMPDEST SWAP9 POP DUP14 DUP14 DUP5 SWAP1 DUP8 SWAP3 PUSH2 0x244F SWAP4 SWAP3 SWAP2 SWAP1 PUSH2 0x3E04 JUMP JUMPDEST SWAP8 POP SWAP8 POP POP POP POP POP POP POP JUMPDEST SWAP3 SWAP6 POP SWAP3 SWAP6 POP SWAP3 SWAP6 JUMP JUMPDEST PUSH1 0x40 MLOAD PUSH2 0x1901 PUSH1 0xF0 SHL DUP2 MSTORE PUSH1 0x2 DUP2 ADD SWAP3 SWAP1 SWAP3 MSTORE PUSH1 0x22 DUP3 ADD MSTORE PUSH1 0x42 SWAP1 KECCAK256 SWAP1 JUMP JUMPDEST PUSH0 CALLDATASIZE PUSH0 CALLDATASIZE PUSH0 PUSH2 0x2492 DUP10 DUP10 PUSH2 0x2938 JUMP JUMPDEST SWAP4 POP SWAP4 POP SWAP4 POP SWAP4 POP PUSH2 0x24A8 DUP5 DUP5 DUP5 DUP5 DUP12 DUP12 PUSH2 0x2AAF JUMP JUMPDEST SWAP10 SWAP9 POP POP POP POP POP POP POP POP POP JUMP JUMPDEST PUSH0 PUSH2 0x709 DUP5 DUP5 DUP5 PUSH2 0x2AFE JUMP JUMPDEST PUSH32 0x983E65E5148E570CD828EAD231EE759A8D7958721A768F93BC4483BA005C32DE PUSH0 SWAP1 DUP2 MSTORE PUSH1 0x20 DUP3 SWAP1 MSTORE PUSH1 0x40 DUP2 KECCAK256 PUSH2 0x6C5 JUMP JUMPDEST PUSH0 ADDRESS PUSH1 0x1 PUSH1 0x1 PUSH1 0xA0 SHL SUB PUSH32 0x0 AND EQ DUP1 ISZERO PUSH2 0x254C JUMPI POP PUSH32 0x0 CHAINID EQ JUMPDEST ISZERO PUSH2 0x2576 JUMPI POP PUSH32 0x0 SWAP1 JUMP JUMPDEST PUSH2 0xB38 PUSH1 0x40 DUP1 MLOAD PUSH32 0x8B73C3C69BB8FE3D512ECC4CF759CC79239F7B179B0FFACAA9A75D522B39400F PUSH1 0x20 DUP3 ADD MSTORE PUSH32 0x0 SWAP2 DUP2 ADD SWAP2 SWAP1 SWAP2 MSTORE PUSH32 0x0 PUSH1 0x60 DUP3 ADD MSTORE CHAINID PUSH1 0x80 DUP3 ADD MSTORE ADDRESS PUSH1 0xA0 DUP3 ADD MSTORE PUSH0 SWAP1 PUSH1 0xC0 ADD PUSH1 0x40 MLOAD PUSH1 0x20 DUP2 DUP4 SUB SUB DUP2 MSTORE SWAP1 PUSH1 0x40 MSTORE DUP1 MLOAD SWAP1 PUSH1 0x20 ADD KECCAK256 SWAP1 POP SWAP1 JUMP JUMPDEST PUSH0 PUSH2 0x262C PUSH1 0x20 DUP4 ADD CALLDATALOAD DUP3 PUSH2 0x2B3A JUMP JUMPDEST PUSH1 0x60 SHR SWAP3 SWAP2 POP POP JUMP JUMPDEST PUSH0 PUSH2 0x263F DUP5 PUSH2 0x1937 JUMP JUMPDEST PUSH2 0x264A JUMPI PUSH1 0x1 PUSH2 0x706 JUMP JUMPDEST POP PUSH0 SWAP5 SWAP4 POP POP POP POP JUMP JUMPDEST PUSH1 0x60 PUSH0 PUSH2 0x2660 DUP4 PUSH2 0x2B72 JUMP JUMPDEST PUSH1 0x40 DUP1 MLOAD PUSH1 0x20 DUP1 DUP3 MSTORE DUP2 DUP4 ADD SWAP1 SWAP3 MSTORE SWAP2 SWAP3 POP PUSH0 SWAP2 SWAP1 PUSH1 0x20 DUP3 ADD DUP2 DUP1 CALLDATASIZE DUP4 CALLDATACOPY POP POP POP SWAP2 DUP3 MSTORE POP PUSH1 0x20 DUP2 ADD SWAP3 SWAP1 SWAP3 MSTORE POP SWAP1 JUMP JUMPDEST PUSH0 PUSH2 0x746 DUP4 PUSH1 0x1 PUSH1 0x1 PUSH1 0xA0 SHL SUB DUP5 AND PUSH2 0x2B99 JUMP JUMPDEST PUSH0 PUSH1 0x60 PUSH1 0x3 DUP4 MLOAD GT PUSH2 0x26CA JUMPI PUSH1 0x40 MLOAD PUSH4 0xFA298711 PUSH1 0xE0 SHL DUP2 MSTORE PUSH1 0x4 ADD PUSH1 0x40 MLOAD DUP1 SWAP2 SUB SWAP1 REVERT JUMPDEST PUSH2 0x26D3 DUP4 PUSH2 0x4219 JUMP JUMPDEST PUSH2 0x26DE DUP5 PUSH1 0x4 PUSH2 0x2BDE JUMP JUMPDEST SWAP2 POP SWAP2 POP SWAP2 POP SWAP2 JUMP JUMPDEST PUSH0 PUSH2 0x26F0 PUSH2 0x1468 JUMP JUMPDEST SLOAD PUSH1 0x1 PUSH1 0x40 SHL SWAP1 DIV PUSH1 0xFF AND SWAP2 SWAP1 POP JUMP JUMPDEST PUSH0 PUSH2 0x746 DUP4 PUSH1 0x1 PUSH1 0x1 PUSH1 0xA0 SHL SUB DUP5 AND PUSH2 0x2BEC JUMP JUMPDEST PUSH0 PUSH2 0x746 DUP4 PUSH0 DUP5 PUSH2 0x17D3 JUMP JUMPDEST PUSH1 0x60 PUSH0 PUSH0 CALLDATASIZE PUSH0 PUSH2 0x2730 DUP9 DUP9 PUSH2 0x2CC6 JUMP JUMPDEST PUSH1 0x40 DUP1 MLOAD PUSH1 0x1 DUP1 DUP3 MSTORE DUP2 DUP4 ADD SWAP1 SWAP3 MSTORE SWAP5 SWAP9 POP SWAP3 SWAP7 POP SWAP1 SWAP5 POP SWAP3 POP DUP2 PUSH1 0x20 ADD JUMPDEST PUSH1 0x60 DUP2 MSTORE PUSH1 0x20 ADD SWAP1 PUSH1 0x1 SWAP1 SUB SWAP1 DUP2 PUSH2 0x274F JUMPI SWAP1 POP POP SWAP5 POP PUSH2 0x2774 PUSH0 DUP8 DUP7 DUP7 DUP7 DUP7 PUSH2 0x2D0A JUMP JUMPDEST DUP6 PUSH0 DUP2 MLOAD DUP2 LT PUSH2 0x2786 JUMPI PUSH2 0x2786 PUSH2 0x3E9E JUMP JUMPDEST PUSH1 0x20 MUL PUSH1 0x20 ADD ADD DUP2 SWAP1 MSTORE POP POP POP POP POP SWAP4 SWAP3 POP POP POP JUMP JUMPDEST PUSH1 0x60 CALLDATASIZE PUSH0 PUSH2 0x27AA DUP7 DUP7 PUSH2 0x2D8F JUMP JUMPDEST SWAP1 SWAP3 POP SWAP1 POP DUP1 PUSH1 0x1 PUSH1 0x1 PUSH1 0x40 SHL SUB DUP2 GT ISZERO PUSH2 0x27C7 JUMPI PUSH2 0x27C7 PUSH2 0x36A0 JUMP JUMPDEST PUSH1 0x40 MLOAD SWAP1 DUP1 DUP3 MSTORE DUP1 PUSH1 0x20 MUL PUSH1 0x20 ADD DUP3 ADD PUSH1 0x40 MSTORE DUP1 ISZERO PUSH2 0x27FA JUMPI DUP2 PUSH1 0x20 ADD JUMPDEST PUSH1 0x60 DUP2 MSTORE PUSH1 0x20 ADD SWAP1 PUSH1 0x1 SWAP1 SUB SWAP1 DUP2 PUSH2 0x27E5 JUMPI SWAP1 POP JUMPDEST POP SWAP3 POP PUSH0 JUMPDEST DUP2 DUP2 LT ISZERO PUSH2 0xB5D JUMPI PUSH2 0x289D DUP2 DUP7 DUP6 DUP6 DUP6 DUP2 DUP2 LT PUSH2 0x281E JUMPI PUSH2 0x281E PUSH2 0x3E9E JUMP JUMPDEST SWAP1 POP PUSH1 0x20 MUL DUP2 ADD SWAP1 PUSH2 0x2830 SWAP2 SWAP1 PUSH2 0x4257 JUMP JUMPDEST PUSH2 0x283E SWAP1 PUSH1 0x20 DUP2 ADD SWAP1 PUSH2 0x4275 JUMP JUMPDEST DUP7 DUP7 DUP7 DUP2 DUP2 LT PUSH2 0x2850 JUMPI PUSH2 0x2850 PUSH2 0x3E9E JUMP JUMPDEST SWAP1 POP PUSH1 0x20 MUL DUP2 ADD SWAP1 PUSH2 0x2862 SWAP2 SWAP1 PUSH2 0x4257 JUMP JUMPDEST PUSH1 0x20 ADD CALLDATALOAD DUP8 DUP8 DUP8 DUP2 DUP2 LT PUSH2 0x2878 JUMPI PUSH2 0x2878 PUSH2 0x3E9E JUMP JUMPDEST SWAP1 POP PUSH1 0x20 MUL DUP2 ADD SWAP1 PUSH2 0x288A SWAP2 SWAP1 PUSH2 0x4257 JUMP JUMPDEST PUSH2 0x2898 SWAP1 PUSH1 0x40 DUP2 ADD SWAP1 PUSH2 0x3D8A JUMP JUMPDEST PUSH2 0x2D0A JUMP JUMPDEST DUP5 DUP3 DUP2 MLOAD DUP2 LT PUSH2 0x28AF JUMPI PUSH2 0x28AF PUSH2 0x3E9E JUMP JUMPDEST PUSH1 0x20 SWAP1 DUP2 MUL SWAP2 SWAP1 SWAP2 ADD ADD MSTORE PUSH1 0x1 ADD PUSH2 0x27FF JUMP JUMPDEST PUSH1 0x60 PUSH0 CALLDATASIZE PUSH0 PUSH2 0x28D1 DUP8 DUP8 PUSH2 0x2E54 JUMP JUMPDEST PUSH1 0x40 DUP1 MLOAD PUSH1 0x1 DUP1 DUP3 MSTORE DUP2 DUP4 ADD SWAP1 SWAP3 MSTORE SWAP4 SWAP7 POP SWAP2 SWAP5 POP SWAP3 POP DUP2 PUSH1 0x20 ADD JUMPDEST PUSH1 0x60 DUP2 MSTORE PUSH1 0x20 ADD SWAP1 PUSH1 0x1 SWAP1 SUB SWAP1 DUP2 PUSH2 0x28ED JUMPI SWAP1 POP POP SWAP4 POP PUSH2 0x2911 PUSH0 DUP7 DUP6 DUP6 DUP6 PUSH2 0x2E7E JUMP JUMPDEST DUP5 PUSH0 DUP2 MLOAD DUP2 LT PUSH2 0x2923 JUMPI PUSH2 0x2923 PUSH2 0x3E9E JUMP JUMPDEST PUSH1 0x20 MUL PUSH1 0x20 ADD ADD DUP2 SWAP1 MSTORE POP POP POP POP SWAP4 SWAP3 POP POP POP JUMP JUMPDEST CALLDATASIZE PUSH0 DUP2 DUP2 DUP6 DUP6 DUP1 ISZERO PUSH2 0x2A97 JUMPI PUSH1 0x29 PUSH1 0xF8 SHL DUP3 DUP3 PUSH2 0x2956 PUSH1 0x1 DUP3 PUSH2 0x4078 JUMP JUMPDEST DUP2 DUP2 LT PUSH2 0x2965 JUMPI PUSH2 0x2965 PUSH2 0x3E9E JUMP JUMPDEST SWAP1 POP ADD CALLDATALOAD PUSH1 0xF8 SHR PUSH1 0xF8 SHL PUSH1 0x1 PUSH1 0x1 PUSH1 0xF8 SHL SUB NOT AND SUB PUSH2 0x2A06 JUMPI PUSH0 JUMPDEST DUP2 DUP2 LT ISZERO PUSH2 0x2A00 JUMPI PUSH0 DUP4 DUP4 DUP4 DUP2 DUP2 LT PUSH2 0x299B JUMPI PUSH2 0x299B PUSH2 0x3E9E JUMP JUMPDEST SWAP1 SWAP2 ADD CALLDATALOAD PUSH1 0x1 PUSH1 0x1 PUSH1 0xF8 SHL SUB NOT AND SWAP2 POP POP PUSH1 0x1B PUSH1 0xFB SHL DUP2 ADD PUSH2 0x29E3 JUMPI DUP2 PUSH0 SUB PUSH2 0x29C4 JUMPI POP PUSH2 0x2A00 JUMP JUMPDEST PUSH2 0x29D0 DUP3 PUSH0 DUP6 DUP8 PUSH2 0x3E04 JUMP JUMPDEST DUP12 DUP12 SWAP8 POP SWAP8 POP SWAP8 POP SWAP8 POP POP POP POP POP PUSH2 0x2AA6 JUMP JUMPDEST PUSH2 0x29EC DUP2 PUSH2 0x2F0C JUMP JUMPDEST ISZERO PUSH2 0x29F7 JUMPI POP PUSH2 0x2A00 JUMP JUMPDEST POP PUSH1 0x1 ADD PUSH2 0x2980 JUMP JUMPDEST POP PUSH2 0x2A97 JUMP JUMPDEST DUP1 JUMPDEST DUP1 ISZERO PUSH2 0x2A95 JUMPI PUSH0 DUP4 DUP4 PUSH2 0x2A1C PUSH1 0x1 DUP6 PUSH2 0x4078 JUMP JUMPDEST DUP2 DUP2 LT PUSH2 0x2A2B JUMPI PUSH2 0x2A2B PUSH2 0x3E9E JUMP JUMPDEST SWAP1 SWAP2 ADD CALLDATALOAD PUSH1 0x1 PUSH1 0x1 PUSH1 0xF8 SHL SUB NOT AND SWAP2 POP POP PUSH1 0xD7 PUSH1 0xF8 SHL DUP2 ADD PUSH2 0x2A70 JUMPI PUSH2 0x2A53 DUP4 DUP4 DUP2 DUP8 PUSH2 0x3E04 JUMP JUMPDEST PUSH2 0x2A5F DUP5 PUSH0 DUP8 DUP10 PUSH2 0x3E04 JUMP JUMPDEST SWAP8 POP SWAP8 POP SWAP8 POP SWAP8 POP POP POP POP POP PUSH2 0x2AA6 JUMP JUMPDEST PUSH2 0x2A79 DUP2 PUSH2 0x2F0C JUMP JUMPDEST ISZERO PUSH2 0x2A84 JUMPI POP PUSH2 0x2A95 JUMP JUMPDEST POP PUSH2 0x2A8E DUP2 PUSH2 0x428E JUMP JUMPDEST SWAP1 POP PUSH2 0x2A08 JUMP JUMPDEST POP JUMPDEST PUSH0 DUP1 PUSH0 DUP1 SWAP6 POP SWAP6 POP SWAP6 POP SWAP6 POP POP POP JUMPDEST SWAP3 SWAP6 SWAP2 SWAP5 POP SWAP3 POP JUMP JUMPDEST PUSH0 DUP6 ISZERO PUSH2 0x2AF1 JUMPI PUSH2 0x2AC2 DUP8 DUP8 DUP8 DUP8 PUSH2 0x2F7E JUMP JUMPDEST DUP4 DUP4 PUSH1 0x40 MLOAD PUSH1 0x20 ADD PUSH2 0x2AD6 SWAP4 SWAP3 SWAP2 SWAP1 PUSH2 0x42A3 JUMP JUMPDEST PUSH1 0x40 MLOAD PUSH1 0x20 DUP2 DUP4 SUB SUB DUP2 MSTORE SWAP1 PUSH1 0x40 MSTORE DUP1 MLOAD SWAP1 PUSH1 0x20 ADD KECCAK256 PUSH2 0x2AF3 JUMP JUMPDEST PUSH0 JUMPDEST SWAP8 SWAP7 POP POP POP POP POP POP POP JUMP JUMPDEST PUSH0 DUP2 DUP2 SUB PUSH2 0x2B0D JUMPI POP PUSH0 PUSH2 0x746 JUMP JUMPDEST PUSH0 DUP1 PUSH2 0x2B1B DUP5 DUP7 ADD DUP7 PUSH2 0x42BA JUMP JUMPDEST SWAP2 POP SWAP2 POP PUSH2 0x2B28 DUP3 PUSH2 0x2FB6 JUMP JUMPDEST DUP1 ISZERO PUSH2 0x1A89 JUMPI POP PUSH2 0x1A89 DUP7 DUP4 DUP4 PUSH2 0x2FFC JUMP JUMPDEST PUSH0 PUSH1 0xC DUP3 PUSH1 0xFF AND GT ISZERO PUSH2 0x2B60 JUMPI PUSH1 0x40 MLOAD PUSH4 0x1DD4BB1B PUSH1 0xE1 SHL DUP2 MSTORE PUSH1 0x4 ADD PUSH1 0x40 MLOAD DUP1 SWAP2 SUB SWAP1 REVERT JUMPDEST POP PUSH1 0x8 MUL SHL PUSH1 0x1 PUSH1 0x1 PUSH1 0x60 SHL SUB NOT AND SWAP1 JUMP JUMPDEST PUSH0 PUSH1 0xFF DUP3 AND PUSH1 0x1F DUP2 GT ISZERO PUSH2 0x6C5 JUMPI PUSH1 0x40 MLOAD PUSH4 0x2CD44AC3 PUSH1 0xE2 SHL DUP2 MSTORE PUSH1 0x4 ADD PUSH1 0x40 MLOAD DUP1 SWAP2 SUB SWAP1 REVERT JUMPDEST PUSH0 DUP2 DUP2 MSTORE PUSH1 0x1 DUP4 ADD PUSH1 0x20 MSTORE PUSH1 0x40 DUP2 KECCAK256 SLOAD PUSH2 0x2007 JUMPI POP DUP2 SLOAD PUSH1 0x1 DUP2 DUP2 ADD DUP5 SSTORE PUSH0 DUP5 DUP2 MSTORE PUSH1 0x20 DUP1 DUP3 KECCAK256 SWAP1 SWAP4 ADD DUP5 SWAP1 SSTORE DUP5 SLOAD DUP5 DUP3 MSTORE DUP3 DUP7 ADD SWAP1 SWAP4 MSTORE PUSH1 0x40 SWAP1 KECCAK256 SWAP2 SWAP1 SWAP2 SSTORE PUSH2 0x6C5 JUMP JUMPDEST PUSH1 0x60 PUSH2 0x746 DUP4 DUP4 DUP6 MLOAD PUSH2 0x304B JUMP JUMPDEST PUSH0 DUP2 DUP2 MSTORE PUSH1 0x1 DUP4 ADD PUSH1 0x20 MSTORE PUSH1 0x40 DUP2 KECCAK256 SLOAD DUP1 ISZERO PUSH2 0x1C37 JUMPI PUSH0 PUSH2 0x2C0E PUSH1 0x1 DUP4 PUSH2 0x4078 JUMP JUMPDEST DUP6 SLOAD SWAP1 SWAP2 POP PUSH0 SWAP1 PUSH2 0x2C21 SWAP1 PUSH1 0x1 SWAP1 PUSH2 0x4078 JUMP JUMPDEST SWAP1 POP DUP1 DUP3 EQ PUSH2 0x2C80 JUMPI PUSH0 DUP7 PUSH0 ADD DUP3 DUP2 SLOAD DUP2 LT PUSH2 0x2C3F JUMPI PUSH2 0x2C3F PUSH2 0x3E9E JUMP JUMPDEST SWAP1 PUSH0 MSTORE PUSH1 0x20 PUSH0 KECCAK256 ADD SLOAD SWAP1 POP DUP1 DUP8 PUSH0 ADD DUP5 DUP2 SLOAD DUP2 LT PUSH2 0x2C5F JUMPI PUSH2 0x2C5F PUSH2 0x3E9E JUMP JUMPDEST PUSH0 SWAP2 DUP3 MSTORE PUSH1 0x20 DUP1 DUP4 KECCAK256 SWAP1 SWAP2 ADD SWAP3 SWAP1 SWAP3 SSTORE SWAP2 DUP3 MSTORE PUSH1 0x1 DUP9 ADD SWAP1 MSTORE PUSH1 0x40 SWAP1 KECCAK256 DUP4 SWAP1 SSTORE JUMPDEST DUP6 SLOAD DUP7 SWAP1 DUP1 PUSH2 0x2C91 JUMPI PUSH2 0x2C91 PUSH2 0x4193 JUMP JUMPDEST PUSH1 0x1 SWAP1 SUB DUP2 DUP2 SWAP1 PUSH0 MSTORE PUSH1 0x20 PUSH0 KECCAK256 ADD PUSH0 SWAP1 SSTORE SWAP1 SSTORE DUP6 PUSH1 0x1 ADD PUSH0 DUP7 DUP2 MSTORE PUSH1 0x20 ADD SWAP1 DUP2 MSTORE PUSH1 0x20 ADD PUSH0 KECCAK256 PUSH0 SWAP1 SSTORE PUSH1 0x1 SWAP4 POP POP POP POP PUSH2 0x6C5 JUMP JUMPDEST PUSH0 DUP1 CALLDATASIZE DUP2 PUSH2 0x2CD4 DUP6 DUP8 PUSH2 0x3EEA JUMP JUMPDEST PUSH1 0x60 SHR SWAP4 POP PUSH2 0x2CE7 PUSH1 0x34 PUSH1 0x14 DUP8 DUP10 PUSH2 0x3E04 JUMP JUMPDEST PUSH2 0x2CF0 SWAP2 PUSH2 0x41FC JUMP JUMPDEST SWAP3 POP PUSH2 0x2CFF DUP6 PUSH1 0x34 DUP2 DUP10 PUSH2 0x3E04 JUMP JUMPDEST SWAP5 SWAP8 SWAP4 SWAP7 POP SWAP5 POP POP POP JUMP JUMPDEST PUSH1 0x60 PUSH0 DUP1 PUSH1 0x1 PUSH1 0x1 PUSH1 0xA0 SHL SUB DUP8 AND ISZERO PUSH2 0x2D23 JUMPI DUP7 PUSH2 0x2D25 JUMP JUMPDEST ADDRESS JUMPDEST PUSH1 0x1 PUSH1 0x1 PUSH1 0xA0 SHL SUB AND DUP7 DUP7 DUP7 PUSH1 0x40 MLOAD PUSH2 0x2D3F SWAP3 SWAP2 SWAP1 PUSH2 0x431D JUMP JUMPDEST PUSH0 PUSH1 0x40 MLOAD DUP1 DUP4 SUB DUP2 DUP6 DUP8 GAS CALL SWAP3 POP POP POP RETURNDATASIZE DUP1 PUSH0 DUP2 EQ PUSH2 0x2D79 JUMPI PUSH1 0x40 MLOAD SWAP2 POP PUSH1 0x1F NOT PUSH1 0x3F RETURNDATASIZE ADD AND DUP3 ADD PUSH1 0x40 MSTORE RETURNDATASIZE DUP3 MSTORE RETURNDATASIZE PUSH0 PUSH1 0x20 DUP5 ADD RETURNDATACOPY PUSH2 0x2D7E JUMP JUMPDEST PUSH1 0x60 SWAP2 POP JUMPDEST POP SWAP2 POP SWAP2 POP PUSH2 0x24A8 DUP10 DUP10 DUP5 DUP5 PUSH2 0x30CB JUMP JUMPDEST CALLDATASIZE PUSH0 DUP3 PUSH1 0x20 DUP2 LT ISZERO PUSH2 0x2DB4 JUMPI PUSH1 0x40 MLOAD PUSH4 0xEB0BCC5D PUSH1 0xE0 SHL DUP2 MSTORE PUSH1 0x4 ADD PUSH1 0x40 MLOAD DUP1 SWAP2 SUB SWAP1 REVERT JUMPDEST PUSH0 PUSH2 0x2DC2 PUSH1 0x20 DUP3 DUP8 DUP10 PUSH2 0x3E04 JUMP JUMPDEST PUSH2 0x2DCB SWAP2 PUSH2 0x41FC JUMP JUMPDEST SWAP1 POP PUSH1 0x1F NOT DUP3 ADD DUP2 GT ISZERO PUSH2 0x2DF2 JUMPI PUSH1 0x40 MLOAD PUSH4 0xEB0BCC5D PUSH1 0xE0 SHL DUP2 MSTORE PUSH1 0x4 ADD PUSH1 0x40 MLOAD DUP1 SWAP2 SUB SWAP1 REVERT JUMPDEST PUSH0 PUSH2 0x2E02 PUSH1 0x20 DUP4 ADD DUP4 DUP9 DUP11 PUSH2 0x3E04 JUMP JUMPDEST PUSH2 0x2E0B SWAP2 PUSH2 0x41FC JUMP JUMPDEST SWAP1 POP PUSH1 0x1 PUSH1 0x1 PUSH1 0x40 SHL SUB DUP2 GT DUP1 PUSH2 0x2E29 JUMPI POP DUP1 PUSH1 0x20 MUL PUSH1 0x20 DUP4 DUP6 SUB SUB LT JUMPDEST ISZERO PUSH2 0x2E47 JUMPI PUSH1 0x40 MLOAD PUSH4 0xEB0BCC5D PUSH1 0xE0 SHL DUP2 MSTORE PUSH1 0x4 ADD PUSH1 0x40 MLOAD DUP1 SWAP2 SUB SWAP1 REVERT JUMPDEST SWAP6 ADD PUSH1 0x20 ADD SWAP6 SWAP4 POP POP POP POP JUMP JUMPDEST PUSH0 CALLDATASIZE DUP2 PUSH2 0x2E61 DUP5 DUP7 PUSH2 0x3EEA JUMP JUMPDEST PUSH1 0x60 SHR SWAP3 POP PUSH2 0x2E73 DUP5 PUSH1 0x14 DUP2 DUP9 PUSH2 0x3E04 JUMP JUMPDEST SWAP2 POP SWAP2 POP SWAP3 POP SWAP3 POP SWAP3 JUMP JUMPDEST PUSH1 0x60 PUSH0 DUP1 PUSH1 0x1 PUSH1 0x1 PUSH1 0xA0 SHL SUB DUP7 AND ISZERO PUSH2 0x2E97 JUMPI DUP6 PUSH2 0x2E99 JUMP JUMPDEST ADDRESS JUMPDEST PUSH1 0x1 PUSH1 0x1 PUSH1 0xA0 SHL SUB AND DUP6 DUP6 PUSH1 0x40 MLOAD PUSH2 0x2EB2 SWAP3 SWAP2 SWAP1 PUSH2 0x431D JUMP JUMPDEST PUSH0 PUSH1 0x40 MLOAD DUP1 DUP4 SUB DUP2 DUP6 GAS DELEGATECALL SWAP2 POP POP RETURNDATASIZE DUP1 PUSH0 DUP2 EQ PUSH2 0x2EEA JUMPI PUSH1 0x40 MLOAD SWAP2 POP PUSH1 0x1F NOT PUSH1 0x3F RETURNDATASIZE ADD AND DUP3 ADD PUSH1 0x40 MSTORE RETURNDATASIZE DUP3 MSTORE RETURNDATASIZE PUSH0 PUSH1 0x20 DUP5 ADD RETURNDATACOPY PUSH2 0x2EEF JUMP JUMPDEST PUSH1 0x60 SWAP2 POP JUMPDEST POP SWAP2 POP SWAP2 POP PUSH2 0x2F00 DUP9 DUP9 DUP5 DUP5 PUSH2 0x30CB JUMP JUMPDEST SWAP9 SWAP8 POP POP POP POP POP POP POP POP JUMP JUMPDEST PUSH0 PUSH1 0x1 PUSH1 0x1 PUSH1 0xF8 SHL SUB NOT DUP3 AND ISZERO DUP1 PUSH2 0x2F31 JUMPI POP PUSH1 0x1 PUSH1 0x1 PUSH1 0xF8 SHL SUB NOT DUP3 AND PUSH1 0x1 PUSH1 0xFD SHL EQ JUMPDEST DUP1 PUSH2 0x2F49 JUMPI POP PUSH1 0x1 PUSH1 0x1 PUSH1 0xF8 SHL SUB NOT DUP3 AND PUSH1 0xB PUSH1 0xFA SHL EQ JUMPDEST DUP1 PUSH2 0x2F61 JUMPI POP PUSH1 0x1 PUSH1 0x1 PUSH1 0xF8 SHL SUB NOT DUP3 AND PUSH1 0x5 PUSH1 0xFB SHL EQ JUMPDEST DUP1 PUSH2 0x6C5 JUMPI POP PUSH1 0x1 PUSH1 0x1 PUSH1 0xF8 SHL SUB NOT DUP3 AND PUSH1 0x29 PUSH1 0xF8 SHL EQ SWAP3 SWAP2 POP POP JUMP JUMPDEST PUSH0 DUP5 DUP5 DUP5 DUP5 PUSH1 0x40 MLOAD PUSH1 0x20 ADD PUSH2 0x2F96 SWAP5 SWAP4 SWAP3 SWAP2 SWAP1 PUSH2 0x432C JUMP JUMPDEST PUSH1 0x40 MLOAD PUSH1 0x20 DUP2 DUP4 SUB SUB DUP2 MSTORE SWAP1 PUSH1 0x40 MSTORE DUP1 MLOAD SWAP1 PUSH1 0x20 ADD KECCAK256 SWAP1 POP SWAP5 SWAP4 POP POP POP POP JUMP JUMPDEST PUSH0 PUSH2 0x2FE8 PUSH32 0xDFE169305A533E288E0557DA8D289146D3CC75FA6E04C87599B048A60A4E5602 SLOAD PUSH1 0x1 PUSH1 0x1 PUSH1 0x40 SHL SUB AND SWAP1 JUMP JUMPDEST PUSH1 0x1 PUSH1 0x1 PUSH1 0x40 SHL SUB AND DUP3 MLOAD LT ISZERO SWAP1 POP SWAP2 SWAP1 POP JUMP JUMPDEST PUSH0 DUP1 JUMPDEST DUP4 MLOAD DUP2 LT ISZERO PUSH2 0x303F JUMPI PUSH2 0x302A DUP5 DUP3 DUP2 MLOAD DUP2 LT PUSH2 0x301D JUMPI PUSH2 0x301D PUSH2 0x3E9E JUMP JUMPDEST PUSH1 0x20 MUL PUSH1 0x20 ADD ADD MLOAD PUSH2 0x81B JUMP JUMPDEST PUSH2 0x3037 JUMPI PUSH0 SWAP2 POP POP PUSH2 0x746 JUMP JUMPDEST PUSH1 0x1 ADD PUSH2 0x2FFF JUMP JUMPDEST POP PUSH2 0x709 DUP5 DUP5 DUP5 PUSH2 0x3170 JUMP JUMPDEST PUSH1 0x60 PUSH2 0x3058 DUP3 DUP6 MLOAD PUSH2 0x1F81 JUMP JUMPDEST SWAP2 POP PUSH2 0x3064 DUP4 DUP4 PUSH2 0x1F81 JUMP JUMPDEST SWAP3 POP PUSH0 PUSH2 0x3071 DUP5 DUP5 PUSH2 0x4078 JUMP JUMPDEST PUSH1 0x1 PUSH1 0x1 PUSH1 0x40 SHL SUB DUP2 GT ISZERO PUSH2 0x3088 JUMPI PUSH2 0x3088 PUSH2 0x36A0 JUMP JUMPDEST PUSH1 0x40 MLOAD SWAP1 DUP1 DUP3 MSTORE DUP1 PUSH1 0x1F ADD PUSH1 0x1F NOT AND PUSH1 0x20 ADD DUP3 ADD PUSH1 0x40 MSTORE DUP1 ISZERO PUSH2 0x30B2 JUMPI PUSH1 0x20 DUP3 ADD DUP2 DUP1 CALLDATASIZE DUP4 CALLDATACOPY ADD SWAP1 POP JUMPDEST POP SWAP1 POP DUP4 DUP4 SUB DUP5 PUSH1 0x20 DUP8 ADD ADD PUSH1 0x20 DUP4 ADD MCOPY SWAP5 SWAP4 POP POP POP POP JUMP JUMPDEST PUSH1 0x60 PUSH2 0x30D7 DUP5 PUSH0 PUSH2 0x1606 JUMP JUMPDEST ISZERO PUSH2 0x30EC JUMPI PUSH2 0x30E6 DUP4 DUP4 PUSH2 0x3252 JUMP JUMPDEST POP PUSH2 0x3168 JUMP JUMPDEST PUSH2 0x30FA DUP5 PUSH1 0x1 PUSH1 0xF8 SHL PUSH2 0x1606 JUMP JUMPDEST ISZERO PUSH2 0x3143 JUMPI DUP3 PUSH2 0x313E JUMPI PUSH32 0x2EEA2F51F83910481F4B5BA28B7003A6E045D4B59F67DFFF8D4C901194050089 DUP6 DUP4 PUSH1 0x40 MLOAD PUSH2 0x3135 SWAP3 SWAP2 SWAP1 PUSH2 0x43D7 JUMP JUMPDEST PUSH1 0x40 MLOAD DUP1 SWAP2 SUB SWAP1 LOG1 JUMPDEST PUSH2 0x3168 JUMP JUMPDEST PUSH1 0x40 MLOAD PUSH4 0x23A24085 PUSH1 0xE0 SHL DUP2 MSTORE PUSH1 0x1 PUSH1 0x1 PUSH1 0xF8 SHL SUB NOT DUP6 AND PUSH1 0x4 DUP3 ADD MSTORE PUSH1 0x24 ADD PUSH2 0xBE3 JUMP JUMPDEST POP SWAP4 SWAP3 POP POP POP JUMP JUMPDEST PUSH0 DUP2 MLOAD DUP4 MLOAD EQ PUSH2 0x3181 JUMPI POP PUSH0 PUSH2 0x746 JUMP JUMPDEST PUSH0 DUP1 JUMPDEST DUP5 MLOAD DUP2 LT ISZERO PUSH2 0x3246 JUMPI PUSH0 DUP6 DUP3 DUP2 MLOAD DUP2 LT PUSH2 0x31A0 JUMPI PUSH2 0x31A0 PUSH2 0x3E9E JUMP JUMPDEST PUSH1 0x20 MUL PUSH1 0x20 ADD ADD MLOAD SWAP1 POP PUSH2 0x31CE DUP2 DUP9 DUP8 DUP6 DUP2 MLOAD DUP2 LT PUSH2 0x31C1 JUMPI PUSH2 0x31C1 PUSH2 0x3E9E JUMP JUMPDEST PUSH1 0x20 MUL PUSH1 0x20 ADD ADD MLOAD PUSH2 0x328F JUMP JUMPDEST PUSH2 0x31DD JUMPI PUSH0 SWAP4 POP POP POP POP PUSH2 0x746 JUMP JUMPDEST DUP1 MLOAD PUSH1 0x20 DUP3 ADD KECCAK256 DUP1 DUP5 LT ISZERO PUSH2 0x31F4 JUMPI DUP1 SWAP4 POP PUSH2 0x323C JUMP JUMPDEST PUSH0 JUMPDEST DUP4 DUP2 LT ISZERO PUSH2 0x323A JUMPI DUP8 DUP2 DUP2 MLOAD DUP2 LT PUSH2 0x3210 JUMPI PUSH2 0x3210 PUSH2 0x3E9E JUMP JUMPDEST PUSH1 0x20 MUL PUSH1 0x20 ADD ADD MLOAD DUP1 MLOAD SWAP1 PUSH1 0x20 ADD KECCAK256 DUP3 SUB PUSH2 0x3232 JUMPI PUSH0 SWAP6 POP POP POP POP POP POP PUSH2 0x746 JUMP JUMPDEST PUSH1 0x1 ADD PUSH2 0x31F6 JUMP JUMPDEST POP JUMPDEST POP POP PUSH1 0x1 ADD PUSH2 0x3184 JUMP JUMPDEST POP PUSH1 0x1 SWAP6 SWAP5 POP POP POP POP POP JUMP JUMPDEST PUSH1 0x60 DUP3 ISZERO PUSH2 0x3261 JUMPI POP DUP1 PUSH2 0x6C5 JUMP JUMPDEST DUP2 MLOAD ISZERO PUSH2 0x3276 JUMPI PUSH2 0x3271 DUP3 PUSH2 0x33A7 JUMP JUMPDEST PUSH2 0x6C5 JUMP JUMPDEST PUSH1 0x40 MLOAD PUSH4 0xD6BDA275 PUSH1 0xE0 SHL DUP2 MSTORE PUSH1 0x4 ADD PUSH1 0x40 MLOAD DUP1 SWAP2 SUB SWAP1 REVERT JUMPDEST PUSH0 PUSH1 0x14 DUP5 MLOAD LT ISZERO PUSH2 0x32A1 JUMPI POP PUSH0 PUSH2 0x746 JUMP JUMPDEST DUP4 MLOAD PUSH1 0x14 SUB PUSH2 0x32C7 JUMPI PUSH2 0x32C0 PUSH2 0x32B6 DUP6 PUSH2 0x43EF JUMP JUMPDEST PUSH1 0x60 SHR DUP5 DUP5 PUSH2 0x33AF JUMP JUMPDEST SWAP1 POP PUSH2 0x746 JUMP JUMPDEST PUSH0 DUP1 PUSH2 0x32D2 DUP7 PUSH2 0x43EF JUMP JUMPDEST PUSH1 0x60 SHR PUSH2 0x32E0 DUP8 PUSH1 0x14 PUSH2 0x2BDE JUMP JUMPDEST DUP7 DUP7 PUSH1 0x40 MLOAD PUSH1 0x24 ADD PUSH2 0x32F4 SWAP4 SWAP3 SWAP2 SWAP1 PUSH2 0x4429 JUMP JUMPDEST PUSH1 0x40 DUP1 MLOAD PUSH1 0x1F NOT DUP2 DUP5 SUB ADD DUP2 MSTORE SWAP2 DUP2 MSTORE PUSH1 0x20 DUP3 ADD DUP1 MLOAD PUSH1 0x1 PUSH1 0x1 PUSH1 0xE0 SHL SUB AND PUSH3 0x495A63 PUSH1 0xE3 SHL OR SWAP1 MSTORE MLOAD PUSH2 0x3328 SWAP2 SWAP1 PUSH2 0x3E93 JUMP JUMPDEST PUSH0 PUSH1 0x40 MLOAD DUP1 DUP4 SUB DUP2 DUP6 GAS STATICCALL SWAP2 POP POP RETURNDATASIZE DUP1 PUSH0 DUP2 EQ PUSH2 0x3360 JUMPI PUSH1 0x40 MLOAD SWAP2 POP PUSH1 0x1F NOT PUSH1 0x3F RETURNDATASIZE ADD AND DUP3 ADD PUSH1 0x40 MSTORE RETURNDATASIZE DUP3 MSTORE RETURNDATASIZE PUSH0 PUSH1 0x20 DUP5 ADD RETURNDATACOPY PUSH2 0x3365 JUMP JUMPDEST PUSH1 0x60 SWAP2 POP JUMPDEST POP SWAP2 POP SWAP2 POP DUP2 DUP1 ISZERO PUSH2 0x3379 JUMPI POP PUSH1 0x20 DUP2 MLOAD LT ISZERO JUMPDEST DUP1 ISZERO PUSH2 0x22FD JUMPI POP DUP1 MLOAD PUSH3 0x495A63 PUSH1 0xE3 SHL SWAP1 PUSH2 0x339D SWAP1 DUP4 ADD PUSH1 0x20 SWAP1 DUP2 ADD SWAP1 DUP5 ADD PUSH2 0x3DCC JUMP JUMPDEST EQ SWAP3 POP POP POP PUSH2 0x746 JUMP JUMPDEST DUP1 MLOAD PUSH1 0x20 DUP3 ADD REVERT JUMPDEST PUSH0 DUP4 PUSH1 0x1 PUSH1 0x1 PUSH1 0xA0 SHL SUB AND EXTCODESIZE PUSH0 SUB PUSH2 0x340C JUMPI PUSH0 PUSH0 PUSH2 0x33CD DUP6 DUP6 PUSH2 0x3417 JUMP JUMPDEST POP SWAP1 SWAP3 POP SWAP1 POP PUSH0 DUP2 PUSH1 0x3 DUP2 GT ISZERO PUSH2 0x33E6 JUMPI PUSH2 0x33E6 PUSH2 0x4453 JUMP JUMPDEST EQ DUP1 ISZERO PUSH2 0x22FD JUMPI POP DUP6 PUSH1 0x1 PUSH1 0x1 PUSH1 0xA0 SHL SUB AND DUP3 PUSH1 0x1 PUSH1 0x1 PUSH1 0xA0 SHL SUB AND EQ SWAP3 POP POP POP PUSH2 0x746 JUMP JUMPDEST PUSH2 0x32C0 DUP5 DUP5 DUP5 PUSH2 0x345D JUMP JUMPDEST PUSH0 PUSH0 PUSH0 DUP4 MLOAD PUSH1 0x41 SUB PUSH2 0x344E JUMPI PUSH1 0x20 DUP5 ADD MLOAD PUSH1 0x40 DUP6 ADD MLOAD PUSH1 0x60 DUP7 ADD MLOAD PUSH0 BYTE PUSH2 0x3440 DUP9 DUP3 DUP6 DUP6 PUSH2 0x34AE JUMP JUMPDEST SWAP6 POP SWAP6 POP SWAP6 POP POP POP POP PUSH2 0x1962 JUMP JUMPDEST POP POP DUP2 MLOAD PUSH0 SWAP2 POP PUSH1 0x2 SWAP1 PUSH2 0x1962 JUMP JUMPDEST DUP1 MLOAD PUSH1 0x40 DUP1 MLOAD PUSH4 0xB135D3F PUSH1 0xE1 SHL DUP1 DUP3 MSTORE PUSH1 0x4 DUP3 ADD DUP7 SWAP1 MSTORE PUSH1 0x24 DUP3 ADD SWAP3 SWAP1 SWAP3 MSTORE PUSH0 SWAP3 SWAP1 PUSH1 0x20 DUP3 ADD DUP6 PUSH1 0x44 DUP4 ADD MCOPY PUSH1 0x20 PUSH0 PUSH1 0x64 DUP5 ADD DUP4 DUP11 GAS STATICCALL SWAP1 POP DUP3 PUSH0 MLOAD EQ PUSH1 0x1F RETURNDATASIZE GT AND DUP2 AND SWAP4 POP POP POP POP SWAP4 SWAP3 POP POP POP JUMP JUMPDEST PUSH0 DUP1 DUP1 PUSH32 0x7FFFFFFFFFFFFFFFFFFFFFFFFFFFFFFF5D576E7357A4501DDFE92F46681B20A0 DUP5 GT ISZERO PUSH2 0x34E7 JUMPI POP PUSH0 SWAP2 POP PUSH1 0x3 SWAP1 POP DUP3 PUSH2 0x356C JUMP JUMPDEST PUSH1 0x40 DUP1 MLOAD PUSH0 DUP1 DUP3 MSTORE PUSH1 0x20 DUP3 ADD DUP1 DUP5 MSTORE DUP11 SWAP1 MSTORE PUSH1 0xFF DUP10 AND SWAP3 DUP3 ADD SWAP3 SWAP1 SWAP3 MSTORE PUSH1 0x60 DUP2 ADD DUP8 SWAP1 MSTORE PUSH1 0x80 DUP2 ADD DUP7 SWAP1 MSTORE PUSH1 0x1 SWAP1 PUSH1 0xA0 ADD PUSH1 0x20 PUSH1 0x40 MLOAD PUSH1 0x20 DUP2 SUB SWAP1 DUP1 DUP5 SUB SWAP1 DUP6 GAS STATICCALL ISZERO DUP1 ISZERO PUSH2 0x3538 JUMPI RETURNDATASIZE PUSH0 PUSH0 RETURNDATACOPY RETURNDATASIZE PUSH0 REVERT JUMPDEST POP POP PUSH1 0x40 MLOAD PUSH1 0x1F NOT ADD MLOAD SWAP2 POP POP PUSH1 0x1 PUSH1 0x1 PUSH1 0xA0 SHL SUB DUP2 AND PUSH2 0x3563 JUMPI POP PUSH0 SWAP3 POP PUSH1 0x1 SWAP2 POP DUP3 SWAP1 POP PUSH2 0x356C JUMP JUMPDEST SWAP3 POP PUSH0 SWAP2 POP DUP2 SWAP1 POP JUMPDEST SWAP5 POP SWAP5 POP SWAP5 SWAP2 POP POP JUMP JUMPDEST POP DUP1 SLOAD PUSH2 0x3582 SWAP1 PUSH2 0x3EB2 JUMP JUMPDEST PUSH0 DUP3 SSTORE DUP1 PUSH1 0x1F LT PUSH2 0x3591 JUMPI POP POP JUMP JUMPDEST PUSH1 0x1F ADD PUSH1 0x20 SWAP1 DIV SWAP1 PUSH0 MSTORE PUSH1 0x20 PUSH0 KECCAK256 SWAP1 PUSH2 0x1498 SWAP2 SWAP1 PUSH0 JUMPDEST DUP1 DUP3 GT ISZERO PUSH2 0x1463 JUMPI PUSH0 DUP2 DUP5 ADD SSTORE PUSH1 0x1 ADD PUSH2 0x35A7 JUMP JUMPDEST PUSH1 0x1 PUSH1 0x1 PUSH1 0xE0 SHL SUB NOT DUP2 AND DUP2 EQ PUSH2 0x75E JUMPI PUSH0 PUSH0 REVERT JUMPDEST PUSH0 PUSH1 0x20 DUP3 DUP5 SUB SLT ISZERO PUSH2 0x35E1 JUMPI PUSH0 PUSH0 REVERT JUMPDEST DUP2 CALLDATALOAD PUSH2 0x746 DUP2 PUSH2 0x35BC JUMP JUMPDEST DUP1 CALLDATALOAD PUSH1 0x1 PUSH1 0x1 PUSH1 0xA0 SHL SUB DUP2 AND DUP2 EQ PUSH2 0x3602 JUMPI PUSH0 PUSH0 REVERT JUMPDEST SWAP2 SWAP1 POP JUMP JUMPDEST PUSH0 PUSH0 DUP4 PUSH1 0x1F DUP5 ADD SLT PUSH2 0x3617 JUMPI PUSH0 PUSH0 REVERT JUMPDEST POP DUP2 CALLDATALOAD PUSH1 0x1 PUSH1 0x1 PUSH1 0x40 SHL SUB DUP2 GT ISZERO PUSH2 0x362D JUMPI PUSH0 PUSH0 REVERT JUMPDEST PUSH1 0x20 DUP4 ADD SWAP2 POP DUP4 PUSH1 0x20 DUP3 DUP6 ADD ADD GT ISZERO PUSH2 0x3644 JUMPI PUSH0 PUSH0 REVERT JUMPDEST SWAP3 POP SWAP3 SWAP1 POP JUMP JUMPDEST PUSH0 PUSH0 PUSH0 PUSH0 PUSH1 0x60 DUP6 DUP8 SUB SLT ISZERO PUSH2 0x365E JUMPI PUSH0 PUSH0 REVERT JUMPDEST DUP5 CALLDATALOAD SWAP4 POP PUSH2 0x366E PUSH1 0x20 DUP7 ADD PUSH2 0x35EC JUMP JUMPDEST SWAP3 POP PUSH1 0x40 DUP6 ADD CALLDATALOAD PUSH1 0x1 PUSH1 0x1 PUSH1 0x40 SHL SUB DUP2 GT ISZERO PUSH2 0x3688 JUMPI PUSH0 PUSH0 REVERT JUMPDEST PUSH2 0x3694 DUP8 DUP3 DUP9 ADD PUSH2 0x3607 JUMP JUMPDEST SWAP6 SWAP9 SWAP5 SWAP8 POP SWAP6 POP POP POP POP JUMP JUMPDEST PUSH4 0x4E487B71 PUSH1 0xE0 SHL PUSH0 MSTORE PUSH1 0x41 PUSH1 0x4 MSTORE PUSH1 0x24 PUSH0 REVERT JUMPDEST PUSH1 0x40 MLOAD PUSH1 0x1F DUP3 ADD PUSH1 0x1F NOT AND DUP2 ADD PUSH1 0x1 PUSH1 0x1 PUSH1 0x40 SHL SUB DUP2 GT DUP3 DUP3 LT OR ISZERO PUSH2 0x36DC JUMPI PUSH2 0x36DC PUSH2 0x36A0 JUMP JUMPDEST PUSH1 0x40 MSTORE SWAP2 SWAP1 POP JUMP JUMPDEST PUSH0 PUSH1 0x1 PUSH1 0x1 PUSH1 0x40 SHL SUB DUP3 GT ISZERO PUSH2 0x36FC JUMPI PUSH2 0x36FC PUSH2 0x36A0 JUMP JUMPDEST POP PUSH1 0x1F ADD PUSH1 0x1F NOT AND PUSH1 0x20 ADD SWAP1 JUMP JUMPDEST PUSH0 DUP3 PUSH1 0x1F DUP4 ADD SLT PUSH2 0x3719 JUMPI PUSH0 PUSH0 REVERT JUMPDEST DUP2 CALLDATALOAD PUSH2 0x372C PUSH2 0x3727 DUP3 PUSH2 0x36E4 JUMP JUMPDEST PUSH2 0x36B4 JUMP JUMPDEST DUP2 DUP2 MSTORE DUP5 PUSH1 0x20 DUP4 DUP7 ADD ADD GT ISZERO PUSH2 0x3740 JUMPI PUSH0 PUSH0 REVERT JUMPDEST DUP2 PUSH1 0x20 DUP6 ADD PUSH1 0x20 DUP4 ADD CALLDATACOPY PUSH0 SWAP2 DUP2 ADD PUSH1 0x20 ADD SWAP2 SWAP1 SWAP2 MSTORE SWAP4 SWAP3 POP POP POP JUMP JUMPDEST PUSH0 PUSH0 PUSH0 PUSH0 PUSH1 0x80 DUP6 DUP8 SUB SLT ISZERO PUSH2 0x376F JUMPI PUSH0 PUSH0 REVERT JUMPDEST PUSH2 0x3778 DUP6 PUSH2 0x35EC JUMP JUMPDEST SWAP4 POP PUSH2 0x3786 PUSH1 0x20 DUP7 ADD PUSH2 0x35EC JUMP JUMPDEST SWAP3 POP PUSH1 0x40 DUP6 ADD CALLDATALOAD SWAP2 POP PUSH1 0x60 DUP6 ADD CALLDATALOAD PUSH1 0x1 PUSH1 0x1 PUSH1 0x40 SHL SUB DUP2 GT ISZERO PUSH2 0x37A7 JUMPI PUSH0 PUSH0 REVERT JUMPDEST PUSH2 0x37B3 DUP8 DUP3 DUP9 ADD PUSH2 0x370A JUMP JUMPDEST SWAP2 POP POP SWAP3 SWAP6 SWAP2 SWAP5 POP SWAP3 POP JUMP JUMPDEST PUSH0 PUSH0 PUSH0 PUSH1 0x40 DUP5 DUP7 SUB SLT ISZERO PUSH2 0x37D1 JUMPI PUSH0 PUSH0 REVERT JUMPDEST DUP4 CALLDATALOAD SWAP3 POP PUSH1 0x20 DUP5 ADD CALLDATALOAD PUSH1 0x1 PUSH1 0x1 PUSH1 0x40 SHL SUB DUP2 GT ISZERO PUSH2 0x37ED JUMPI PUSH0 PUSH0 REVERT JUMPDEST PUSH2 0x37F9 DUP7 DUP3 DUP8 ADD PUSH2 0x3607 JUMP JUMPDEST SWAP5 SWAP8 SWAP1 SWAP7 POP SWAP4 SWAP5 POP POP POP POP JUMP JUMPDEST DUP1 CALLDATALOAD PUSH1 0x1 PUSH1 0x1 PUSH1 0x40 SHL SUB DUP2 AND DUP2 EQ PUSH2 0x3602 JUMPI PUSH0 PUSH0 REVERT JUMPDEST PUSH0 PUSH1 0x20 DUP3 DUP5 SUB SLT ISZERO PUSH2 0x382C JUMPI PUSH0 PUSH0 REVERT JUMPDEST PUSH2 0x746 DUP3 PUSH2 0x3806 JUMP JUMPDEST PUSH0 PUSH0 PUSH0 PUSH1 0x60 DUP5 DUP7 SUB SLT ISZERO PUSH2 0x3847 JUMPI PUSH0 PUSH0 REVERT JUMPDEST DUP4 CALLDATALOAD PUSH1 0x1 PUSH1 0x1 PUSH1 0x40 SHL SUB DUP2 GT ISZERO PUSH2 0x385C JUMPI PUSH0 PUSH0 REVERT JUMPDEST DUP5 ADD PUSH2 0x120 DUP2 DUP8 SUB SLT ISZERO PUSH2 0x386E JUMPI PUSH0 PUSH0 REVERT JUMPDEST SWAP6 PUSH1 0x20 DUP6 ADD CALLDATALOAD SWAP6 POP PUSH1 0x40 SWAP1 SWAP5 ADD CALLDATALOAD SWAP4 SWAP3 POP POP POP JUMP JUMPDEST PUSH0 PUSH1 0x20 DUP3 DUP5 SUB SLT ISZERO PUSH2 0x3893 JUMPI PUSH0 PUSH0 REVERT JUMPDEST DUP2 CALLDATALOAD PUSH1 0x1 PUSH1 0x1 PUSH1 0xC0 SHL SUB DUP2 AND DUP2 EQ PUSH2 0x746 JUMPI PUSH0 PUSH0 REVERT JUMPDEST PUSH0 PUSH1 0x20 DUP3 DUP5 SUB SLT ISZERO PUSH2 0x38B9 JUMPI PUSH0 PUSH0 REVERT JUMPDEST DUP2 CALLDATALOAD PUSH1 0x1 PUSH1 0x1 PUSH1 0x40 SHL SUB DUP2 GT ISZERO PUSH2 0x38CE JUMPI PUSH0 PUSH0 REVERT JUMPDEST PUSH2 0x709 DUP5 DUP3 DUP6 ADD PUSH2 0x370A JUMP JUMPDEST PUSH0 PUSH1 0x1 PUSH1 0x1 PUSH1 0x40 SHL SUB DUP3 GT ISZERO PUSH2 0x38F2 JUMPI PUSH2 0x38F2 PUSH2 0x36A0 JUMP JUMPDEST POP PUSH1 0x5 SHL PUSH1 0x20 ADD SWAP1 JUMP JUMPDEST PUSH0 DUP3 PUSH1 0x1F DUP4 ADD SLT PUSH2 0x390B JUMPI PUSH0 PUSH0 REVERT JUMPDEST DUP2 CALLDATALOAD PUSH2 0x3919 PUSH2 0x3727 DUP3 PUSH2 0x38DA JUMP JUMPDEST DUP1 DUP3 DUP3 MSTORE PUSH1 0x20 DUP3 ADD SWAP2 POP PUSH1 0x20 DUP4 PUSH1 0x5 SHL DUP7 ADD ADD SWAP3 POP DUP6 DUP4 GT ISZERO PUSH2 0x393A JUMPI PUSH0 PUSH0 REVERT JUMPDEST PUSH1 0x20 DUP6 ADD JUMPDEST DUP4 DUP2 LT ISZERO PUSH2 0x138B JUMPI DUP1 CALLDATALOAD PUSH1 0x1 PUSH1 0x1 PUSH1 0x40 SHL SUB DUP2 GT ISZERO PUSH2 0x395C JUMPI PUSH0 PUSH0 REVERT JUMPDEST PUSH2 0x396B DUP9 PUSH1 0x20 DUP4 DUP11 ADD ADD PUSH2 0x370A JUMP JUMPDEST DUP5 MSTORE POP PUSH1 0x20 SWAP3 DUP4 ADD SWAP3 ADD PUSH2 0x393F JUMP JUMPDEST PUSH0 PUSH1 0x20 DUP3 DUP5 SUB SLT ISZERO PUSH2 0x398A JUMPI PUSH0 PUSH0 REVERT JUMPDEST DUP2 CALLDATALOAD PUSH1 0x1 PUSH1 0x1 PUSH1 0x40 SHL SUB DUP2 GT ISZERO PUSH2 0x399F JUMPI PUSH0 PUSH0 REVERT JUMPDEST PUSH2 0x709 DUP5 DUP3 DUP6 ADD PUSH2 0x38FC JUMP JUMPDEST PUSH0 DUP2 MLOAD DUP1 DUP5 MSTORE DUP1 PUSH1 0x20 DUP5 ADD PUSH1 0x20 DUP7 ADD MCOPY PUSH0 PUSH1 0x20 DUP3 DUP7 ADD ADD MSTORE PUSH1 0x20 PUSH1 0x1F NOT PUSH1 0x1F DUP4 ADD AND DUP6 ADD ADD SWAP2 POP POP SWAP3 SWAP2 POP POP JUMP JUMPDEST PUSH1 0xFF PUSH1 0xF8 SHL DUP9 AND DUP2 MSTORE PUSH1 0xE0 PUSH1 0x20 DUP3 ADD MSTORE PUSH0 PUSH2 0x39F7 PUSH1 0xE0 DUP4 ADD DUP10 PUSH2 0x39AB JUMP JUMPDEST DUP3 DUP2 SUB PUSH1 0x40 DUP5 ADD MSTORE PUSH2 0x3A09 DUP2 DUP10 PUSH2 0x39AB JUMP JUMPDEST PUSH1 0x60 DUP5 ADD DUP9 SWAP1 MSTORE PUSH1 0x1 PUSH1 0x1 PUSH1 0xA0 SHL SUB DUP8 AND PUSH1 0x80 DUP6 ADD MSTORE PUSH1 0xA0 DUP5 ADD DUP7 SWAP1 MSTORE DUP4 DUP2 SUB PUSH1 0xC0 DUP6 ADD MSTORE DUP5 MLOAD DUP1 DUP3 MSTORE PUSH1 0x20 DUP1 DUP8 ADD SWAP4 POP SWAP1 SWAP2 ADD SWAP1 PUSH0 JUMPDEST DUP2 DUP2 LT ISZERO PUSH2 0x3A5E JUMPI DUP4 MLOAD DUP4 MSTORE PUSH1 0x20 SWAP4 DUP5 ADD SWAP4 SWAP1 SWAP3 ADD SWAP2 PUSH1 0x1 ADD PUSH2 0x3A40 JUMP JUMPDEST POP SWAP1 SWAP12 SWAP11 POP POP POP POP POP POP POP POP POP POP POP JUMP JUMPDEST PUSH0 PUSH0 PUSH1 0x40 DUP4 DUP6 SUB SLT ISZERO PUSH2 0x3A80 JUMPI PUSH0 PUSH0 REVERT JUMPDEST PUSH2 0x3A89 DUP4 PUSH2 0x3806 JUMP JUMPDEST SWAP2 POP PUSH2 0x3A97 PUSH1 0x20 DUP5 ADD PUSH2 0x3806 JUMP JUMPDEST SWAP1 POP SWAP3 POP SWAP3 SWAP1 POP JUMP JUMPDEST PUSH0 PUSH1 0x20 DUP3 ADD PUSH1 0x20 DUP4 MSTORE DUP1 DUP5 MLOAD DUP1 DUP4 MSTORE PUSH1 0x40 DUP6 ADD SWAP2 POP PUSH1 0x40 DUP2 PUSH1 0x5 SHL DUP7 ADD ADD SWAP3 POP PUSH1 0x20 DUP7 ADD PUSH0 JUMPDEST DUP3 DUP2 LT ISZERO PUSH2 0x3AF7 JUMPI PUSH1 0x3F NOT DUP8 DUP7 SUB ADD DUP5 MSTORE PUSH2 0x3AE2 DUP6 DUP4 MLOAD PUSH2 0x39AB JUMP JUMPDEST SWAP5 POP PUSH1 0x20 SWAP4 DUP5 ADD SWAP4 SWAP2 SWAP1 SWAP2 ADD SWAP1 PUSH1 0x1 ADD PUSH2 0x3AC6 JUMP JUMPDEST POP SWAP3 SWAP7 SWAP6 POP POP POP POP POP POP JUMP JUMPDEST PUSH1 0x20 DUP2 MSTORE PUSH0 PUSH2 0x746 PUSH1 0x20 DUP4 ADD DUP5 PUSH2 0x39AB JUMP JUMPDEST PUSH0 PUSH0 PUSH1 0x40 DUP4 DUP6 SUB SLT ISZERO PUSH2 0x3B26 JUMPI PUSH0 PUSH0 REVERT JUMPDEST DUP3 CALLDATALOAD PUSH1 0x1 PUSH1 0x1 PUSH1 0x40 SHL SUB DUP2 GT ISZERO PUSH2 0x3B3B JUMPI PUSH0 PUSH0 REVERT JUMPDEST PUSH2 0x3B47 DUP6 DUP3 DUP7 ADD PUSH2 0x38FC JUMP JUMPDEST SWAP3 POP POP PUSH2 0x3A97 PUSH1 0x20 DUP5 ADD PUSH2 0x3806 JUMP JUMPDEST PUSH0 DUP3 PUSH1 0x1F DUP4 ADD SLT PUSH2 0x3B65 JUMPI PUSH0 PUSH0 REVERT JUMPDEST DUP2 CALLDATALOAD PUSH2 0x3B73 PUSH2 0x3727 DUP3 PUSH2 0x38DA JUMP JUMPDEST DUP1 DUP3 DUP3 MSTORE PUSH1 0x20 DUP3 ADD SWAP2 POP PUSH1 0x20 DUP4 PUSH1 0x5 SHL DUP7 ADD ADD SWAP3 POP DUP6 DUP4 GT ISZERO PUSH2 0x3B94 JUMPI PUSH0 PUSH0 REVERT JUMPDEST PUSH1 0x20 DUP6 ADD JUMPDEST DUP4 DUP2 LT ISZERO PUSH2 0x138B JUMPI DUP1 CALLDATALOAD DUP4 MSTORE PUSH1 0x20 SWAP3 DUP4 ADD SWAP3 ADD PUSH2 0x3B99 JUMP JUMPDEST PUSH0 PUSH0 PUSH0 PUSH0 PUSH0 PUSH1 0xA0 DUP7 DUP9 SUB SLT ISZERO PUSH2 0x3BC5 JUMPI PUSH0 PUSH0 REVERT JUMPDEST PUSH2 0x3BCE DUP7 PUSH2 0x35EC JUMP JUMPDEST SWAP5 POP PUSH2 0x3BDC PUSH1 0x20 DUP8 ADD PUSH2 0x35EC JUMP JUMPDEST SWAP4 POP PUSH1 0x40 DUP7 ADD CALLDATALOAD PUSH1 0x1 PUSH1 0x1 PUSH1 0x40 SHL SUB DUP2 GT ISZERO PUSH2 0x3BF6 JUMPI PUSH0 PUSH0 REVERT JUMPDEST PUSH2 0x3C02 DUP9 DUP3 DUP10 ADD PUSH2 0x3B56 JUMP JUMPDEST SWAP4 POP POP PUSH1 0x60 DUP7 ADD CALLDATALOAD PUSH1 0x1 PUSH1 0x1 PUSH1 0x40 SHL SUB DUP2 GT ISZERO PUSH2 0x3C1D JUMPI PUSH0 PUSH0 REVERT JUMPDEST PUSH2 0x3C29 DUP9 DUP3 DUP10 ADD PUSH2 0x3B56 JUMP JUMPDEST SWAP3 POP POP PUSH1 0x80 DUP7 ADD CALLDATALOAD PUSH1 0x1 PUSH1 0x1 PUSH1 0x40 SHL SUB DUP2 GT ISZERO PUSH2 0x3C44 JUMPI PUSH0 PUSH0 REVERT JUMPDEST PUSH2 0x3C50 DUP9 DUP3 DUP10 ADD PUSH2 0x370A JUMP JUMPDEST SWAP2 POP POP SWAP3 SWAP6 POP SWAP3 SWAP6 SWAP1 SWAP4 POP JUMP JUMPDEST PUSH0 PUSH1 0x20 DUP3 DUP5 SUB SLT ISZERO PUSH2 0x3C6D JUMPI PUSH0 PUSH0 REVERT JUMPDEST POP CALLDATALOAD SWAP2 SWAP1 POP JUMP JUMPDEST PUSH0 PUSH0 PUSH0 PUSH0 PUSH0 PUSH1 0xA0 DUP7 DUP9 SUB SLT ISZERO PUSH2 0x3C88 JUMPI PUSH0 PUSH0 REVERT JUMPDEST PUSH2 0x3C91 DUP7 PUSH2 0x35EC JUMP JUMPDEST SWAP5 POP PUSH2 0x3C9F PUSH1 0x20 DUP8 ADD PUSH2 0x35EC JUMP JUMPDEST SWAP4 POP PUSH1 0x40 DUP7 ADD CALLDATALOAD SWAP3 POP PUSH1 0x60 DUP7 ADD CALLDATALOAD SWAP2 POP PUSH1 0x80 DUP7 ADD CALLDATALOAD PUSH1 0x1 PUSH1 0x1 PUSH1 0x40 SHL SUB DUP2 GT ISZERO PUSH2 0x3C44 JUMPI PUSH0 PUSH0 REVERT JUMPDEST DUP2 DUP4 MSTORE DUP2 DUP2 PUSH1 0x20 DUP6 ADD CALLDATACOPY POP PUSH0 DUP3 DUP3 ADD PUSH1 0x20 SWAP1 DUP2 ADD SWAP2 SWAP1 SWAP2 MSTORE PUSH1 0x1F SWAP1 SWAP2 ADD PUSH1 0x1F NOT AND SWAP1 SWAP2 ADD ADD SWAP1 JUMP JUMPDEST PUSH1 0x1 DUP1 PUSH1 0xA0 SHL SUB DUP6 AND DUP2 MSTORE DUP4 PUSH1 0x20 DUP3 ADD MSTORE PUSH1 0x60 PUSH1 0x40 DUP3 ADD MSTORE PUSH0 PUSH2 0x1A89 PUSH1 0x60 DUP4 ADD DUP5 DUP7 PUSH2 0x3CC7 JUMP JUMPDEST PUSH0 PUSH1 0x20 DUP3 DUP5 SUB SLT ISZERO PUSH2 0x3D26 JUMPI PUSH0 PUSH0 REVERT JUMPDEST DUP2 MLOAD PUSH1 0x1 PUSH1 0x1 PUSH1 0x40 SHL SUB DUP2 GT ISZERO PUSH2 0x3D3B JUMPI PUSH0 PUSH0 REVERT JUMPDEST DUP3 ADD PUSH1 0x1F DUP2 ADD DUP5 SGT PUSH2 0x3D4B JUMPI PUSH0 PUSH0 REVERT JUMPDEST DUP1 MLOAD PUSH2 0x3D59 PUSH2 0x3727 DUP3 PUSH2 0x36E4 JUMP JUMPDEST DUP2 DUP2 MSTORE DUP6 PUSH1 0x20 DUP4 DUP6 ADD ADD GT ISZERO PUSH2 0x3D6D JUMPI PUSH0 PUSH0 REVERT JUMPDEST DUP2 PUSH1 0x20 DUP5 ADD PUSH1 0x20 DUP4 ADD MCOPY PUSH0 SWAP2 DUP2 ADD PUSH1 0x20 ADD SWAP2 SWAP1 SWAP2 MSTORE SWAP5 SWAP4 POP POP POP POP JUMP JUMPDEST PUSH0 PUSH0 DUP4 CALLDATALOAD PUSH1 0x1E NOT DUP5 CALLDATASIZE SUB ADD DUP2 SLT PUSH2 0x3D9F JUMPI PUSH0 PUSH0 REVERT JUMPDEST DUP4 ADD DUP1 CALLDATALOAD SWAP2 POP PUSH1 0x1 PUSH1 0x1 PUSH1 0x40 SHL SUB DUP3 GT ISZERO PUSH2 0x3DB8 JUMPI PUSH0 PUSH0 REVERT JUMPDEST PUSH1 0x20 ADD SWAP2 POP CALLDATASIZE DUP2 SWAP1 SUB DUP3 SGT ISZERO PUSH2 0x3644 JUMPI PUSH0 PUSH0 REVERT JUMPDEST PUSH0 PUSH1 0x20 DUP3 DUP5 SUB SLT ISZERO PUSH2 0x3DDC JUMPI PUSH0 PUSH0 REVERT JUMPDEST POP MLOAD SWAP2 SWAP1 POP JUMP JUMPDEST DUP3 DUP5 DUP3 CALLDATACOPY PUSH1 0x60 SWAP2 SWAP1 SWAP2 SHL PUSH1 0x1 PUSH1 0x1 PUSH1 0x60 SHL SUB NOT AND SWAP2 ADD SWAP1 DUP2 MSTORE PUSH1 0x14 ADD SWAP2 SWAP1 POP JUMP JUMPDEST PUSH0 PUSH0 DUP6 DUP6 GT ISZERO PUSH2 0x3E12 JUMPI PUSH0 PUSH0 REVERT JUMPDEST DUP4 DUP7 GT ISZERO PUSH2 0x3E1E JUMPI PUSH0 PUSH0 REVERT JUMPDEST POP POP DUP3 ADD SWAP4 SWAP2 SWAP1 SWAP3 SUB SWAP2 POP JUMP JUMPDEST DUP1 CALLDATALOAD PUSH1 0x1 PUSH1 0x1 PUSH1 0xE0 SHL SUB NOT DUP2 AND SWAP1 PUSH1 0x4 DUP5 LT ISZERO PUSH2 0x1C40 JUMPI PUSH1 0x1 PUSH1 0x1 PUSH1 0xE0 SHL SUB NOT PUSH1 0x4 SWAP5 SWAP1 SWAP5 SUB PUSH1 0x3 SHL DUP5 SWAP1 SHL AND SWAP1 SWAP3 AND SWAP3 SWAP2 POP POP JUMP JUMPDEST PUSH0 PUSH1 0x20 DUP3 DUP5 SUB SLT ISZERO PUSH2 0x3E71 JUMPI PUSH0 PUSH0 REVERT JUMPDEST DUP2 MLOAD PUSH2 0x746 DUP2 PUSH2 0x35BC JUMP JUMPDEST PUSH0 DUP2 MLOAD DUP1 PUSH1 0x20 DUP5 ADD DUP6 MCOPY PUSH0 SWAP4 ADD SWAP3 DUP4 MSTORE POP SWAP1 SWAP2 SWAP1 POP JUMP JUMPDEST PUSH0 PUSH2 0x746 DUP3 DUP5 PUSH2 0x3E7C JUMP JUMPDEST PUSH4 0x4E487B71 PUSH1 0xE0 SHL PUSH0 MSTORE PUSH1 0x32 PUSH1 0x4 MSTORE PUSH1 0x24 PUSH0 REVERT JUMPDEST PUSH1 0x1 DUP2 DUP2 SHR SWAP1 DUP3 AND DUP1 PUSH2 0x3EC6 JUMPI PUSH1 0x7F DUP3 AND SWAP2 POP JUMPDEST PUSH1 0x20 DUP3 LT DUP2 SUB PUSH2 0x3EE4 JUMPI PUSH4 0x4E487B71 PUSH1 0xE0 SHL PUSH0 MSTORE PUSH1 0x22 PUSH1 0x4 MSTORE PUSH1 0x24 PUSH0 REVERT JUMPDEST POP SWAP2 SWAP1 POP JUMP JUMPDEST DUP1 CALLDATALOAD PUSH1 0x1 PUSH1 0x1 PUSH1 0x60 SHL SUB NOT DUP2 AND SWAP1 PUSH1 0x14 DUP5 LT ISZERO PUSH2 0x1C40 JUMPI PUSH1 0x1 PUSH1 0x1 PUSH1 0x60 SHL SUB NOT PUSH1 0x14 SWAP5 SWAP1 SWAP5 SUB PUSH1 0x3 SHL DUP5 SWAP1 SHL AND SWAP1 SWAP3 AND SWAP3 SWAP2 POP POP JUMP JUMPDEST PUSH0 PUSH0 DUP4 CALLDATALOAD PUSH1 0x1E NOT DUP5 CALLDATASIZE SUB ADD DUP2 SLT PUSH2 0x3F35 JUMPI PUSH0 PUSH0 REVERT JUMPDEST DUP4 ADD PUSH1 0x20 DUP2 ADD SWAP3 POP CALLDATALOAD SWAP1 POP PUSH1 0x1 PUSH1 0x1 PUSH1 0x40 SHL SUB DUP2 GT ISZERO PUSH2 0x3F53 JUMPI PUSH0 PUSH0 REVERT JUMPDEST DUP1 CALLDATASIZE SUB DUP3 SGT ISZERO PUSH2 0x3644 JUMPI PUSH0 PUSH0 REVERT JUMPDEST PUSH1 0x40 DUP2 MSTORE PUSH2 0x3F82 PUSH1 0x40 DUP3 ADD PUSH2 0x3F75 DUP6 PUSH2 0x35EC JUMP JUMPDEST PUSH1 0x1 PUSH1 0x1 PUSH1 0xA0 SHL SUB AND SWAP1 MSTORE JUMP JUMPDEST PUSH1 0x20 DUP4 ADD CALLDATALOAD PUSH1 0x60 DUP3 ADD MSTORE PUSH0 PUSH2 0x3F9A PUSH1 0x40 DUP6 ADD DUP6 PUSH2 0x3F20 JUMP JUMPDEST PUSH2 0x120 PUSH1 0x80 DUP6 ADD MSTORE PUSH2 0x3FB1 PUSH2 0x160 DUP6 ADD DUP3 DUP5 PUSH2 0x3CC7 JUMP JUMPDEST SWAP2 POP POP PUSH2 0x3FC1 PUSH1 0x60 DUP7 ADD DUP7 PUSH2 0x3F20 JUMP JUMPDEST DUP5 DUP4 SUB PUSH1 0x3F NOT ADD PUSH1 0xA0 DUP7 ADD MSTORE PUSH2 0x3FD8 DUP4 DUP3 DUP5 PUSH2 0x3CC7 JUMP JUMPDEST PUSH1 0x80 DUP9 ADD CALLDATALOAD PUSH1 0xC0 DUP8 DUP2 ADD SWAP2 SWAP1 SWAP2 MSTORE PUSH1 0xA0 DUP10 ADD CALLDATALOAD PUSH1 0xE0 DUP1 DUP10 ADD SWAP2 SWAP1 SWAP2 MSTORE SWAP1 DUP10 ADD CALLDATALOAD PUSH2 0x100 DUP9 ADD MSTORE SWAP1 SWAP4 POP PUSH2 0x4010 SWAP3 POP DUP8 ADD SWAP1 POP DUP7 PUSH2 0x3F20 JUMP JUMPDEST DUP5 DUP4 SUB PUSH1 0x3F NOT ADD PUSH2 0x120 DUP7 ADD MSTORE PUSH2 0x4028 DUP4 DUP3 DUP5 PUSH2 0x3CC7 JUMP JUMPDEST SWAP3 POP POP POP PUSH2 0x403A PUSH2 0x100 DUP7 ADD DUP7 PUSH2 0x3F20 JUMP JUMPDEST DUP5 DUP4 SUB PUSH1 0x3F NOT ADD PUSH2 0x140 DUP7 ADD MSTORE PUSH2 0x4052 DUP4 DUP3 DUP5 PUSH2 0x3CC7 JUMP JUMPDEST SWAP4 POP POP POP POP DUP3 PUSH1 0x20 DUP4 ADD MSTORE SWAP4 SWAP3 POP POP POP JUMP JUMPDEST PUSH4 0x4E487B71 PUSH1 0xE0 SHL PUSH0 MSTORE PUSH1 0x11 PUSH1 0x4 MSTORE PUSH1 0x24 PUSH0 REVERT JUMPDEST DUP2 DUP2 SUB DUP2 DUP2 GT ISZERO PUSH2 0x6C5 JUMPI PUSH2 0x6C5 PUSH2 0x4064 JUMP JUMPDEST PUSH1 0x1F DUP3 GT ISZERO PUSH2 0x1463 JUMPI DUP3 DUP3 GT ISZERO PUSH2 0x1463 JUMPI DUP1 PUSH0 MSTORE PUSH1 0x20 PUSH0 KECCAK256 PUSH1 0x1F DUP5 ADD PUSH1 0x5 SHR PUSH1 0x20 DUP6 LT ISZERO PUSH2 0x40B6 JUMPI POP PUSH0 JUMPDEST SWAP1 DUP2 ADD SWAP1 PUSH1 0x1F DUP5 ADD PUSH1 0x5 SHR SUB PUSH0 JUMPDEST DUP2 DUP2 LT ISZERO PUSH2 0x1657 JUMPI PUSH0 DUP4 DUP3 ADD SSTORE PUSH1 0x1 ADD PUSH2 0x40C4 JUMP JUMPDEST DUP2 MLOAD PUSH1 0x1 PUSH1 0x1 PUSH1 0x40 SHL SUB DUP2 GT ISZERO PUSH2 0x40F2 JUMPI PUSH2 0x40F2 PUSH2 0x36A0 JUMP JUMPDEST PUSH2 0x4106 DUP2 PUSH2 0x4100 DUP5 SLOAD PUSH2 0x3EB2 JUMP JUMPDEST DUP5 PUSH2 0x408B JUMP JUMPDEST PUSH1 0x20 PUSH1 0x1F DUP3 GT PUSH1 0x1 DUP2 EQ PUSH2 0x4138 JUMPI PUSH0 DUP4 ISZERO PUSH2 0x4121 JUMPI POP DUP5 DUP3 ADD MLOAD JUMPDEST PUSH0 NOT PUSH1 0x3 DUP6 SWAP1 SHL SHR NOT AND PUSH1 0x1 DUP5 SWAP1 SHL OR DUP5 SSTORE PUSH2 0x124F JUMP JUMPDEST PUSH0 DUP5 DUP2 MSTORE PUSH1 0x20 DUP2 KECCAK256 PUSH1 0x1F NOT DUP6 AND SWAP2 JUMPDEST DUP3 DUP2 LT ISZERO PUSH2 0x4167 JUMPI DUP8 DUP6 ADD MLOAD DUP3 SSTORE PUSH1 0x20 SWAP5 DUP6 ADD SWAP5 PUSH1 0x1 SWAP1 SWAP3 ADD SWAP2 ADD PUSH2 0x4147 JUMP JUMPDEST POP DUP5 DUP3 LT ISZERO PUSH2 0x4184 JUMPI DUP7 DUP5 ADD MLOAD PUSH0 NOT PUSH1 0x3 DUP8 SWAP1 SHL PUSH1 0xF8 AND SHR NOT AND DUP2 SSTORE JUMPDEST POP POP POP POP PUSH1 0x1 SWAP1 DUP2 SHL ADD SWAP1 SSTORE POP JUMP JUMPDEST PUSH4 0x4E487B71 PUSH1 0xE0 SHL PUSH0 MSTORE PUSH1 0x31 PUSH1 0x4 MSTORE PUSH1 0x24 PUSH0 REVERT JUMPDEST PUSH0 PUSH1 0x20 DUP3 DUP5 SUB SLT ISZERO PUSH2 0x41B7 JUMPI PUSH0 PUSH0 REVERT JUMPDEST DUP2 MLOAD DUP1 ISZERO ISZERO DUP2 EQ PUSH2 0x746 JUMPI PUSH0 PUSH0 REVERT JUMPDEST DUP1 CALLDATALOAD PUSH1 0x1 PUSH1 0x1 PUSH1 0xF0 SHL SUB NOT DUP2 AND SWAP1 PUSH1 0x2 DUP5 LT ISZERO PUSH2 0x1C40 JUMPI PUSH1 0x1 PUSH1 0x1 PUSH1 0xF0 SHL SUB NOT PUSH1 0x2 SWAP5 SWAP1 SWAP5 SUB PUSH1 0x3 SHL DUP5 SWAP1 SHL AND SWAP1 SWAP3 AND SWAP3 SWAP2 POP POP JUMP JUMPDEST DUP1 CALLDATALOAD PUSH1 0x20 DUP4 LT ISZERO PUSH2 0x6C5 JUMPI PUSH0 NOT PUSH1 0x20 DUP5 SWAP1 SUB PUSH1 0x3 SHL SHL AND SWAP3 SWAP2 POP POP JUMP JUMPDEST DUP1 MLOAD PUSH1 0x20 DUP3 ADD MLOAD PUSH1 0x1 PUSH1 0x1 PUSH1 0xE0 SHL SUB NOT DUP2 AND SWAP2 SWAP1 PUSH1 0x4 DUP3 LT ISZERO PUSH2 0x4250 JUMPI PUSH1 0x1 PUSH1 0x1 PUSH1 0xE0 SHL SUB NOT PUSH1 0x4 DUP4 SWAP1 SUB PUSH1 0x3 SHL DUP2 SWAP1 SHL DUP3 AND AND SWAP3 POP JUMPDEST POP POP SWAP2 SWAP1 POP JUMP JUMPDEST PUSH0 DUP3 CALLDATALOAD PUSH1 0x5E NOT DUP4 CALLDATASIZE SUB ADD DUP2 SLT PUSH2 0x426B JUMPI PUSH0 PUSH0 REVERT JUMPDEST SWAP2 SWAP1 SWAP2 ADD SWAP3 SWAP2 POP POP JUMP JUMPDEST PUSH0 PUSH1 0x20 DUP3 DUP5 SUB SLT ISZERO PUSH2 0x4285 JUMPI PUSH0 PUSH0 REVERT JUMPDEST PUSH2 0x746 DUP3 PUSH2 0x35EC JUMP JUMPDEST PUSH0 DUP2 PUSH2 0x429C JUMPI PUSH2 0x429C PUSH2 0x4064 JUMP JUMPDEST POP PUSH0 NOT ADD SWAP1 JUMP JUMPDEST DUP4 DUP2 MSTORE DUP3 PUSH1 0x20 DUP3 ADD MSTORE PUSH0 PUSH2 0x706 PUSH1 0x40 DUP4 ADD DUP5 PUSH2 0x3E7C JUMP JUMPDEST PUSH0 PUSH0 PUSH1 0x40 DUP4 DUP6 SUB SLT ISZERO PUSH2 0x42CB JUMPI PUSH0 PUSH0 REVERT JUMPDEST DUP3 CALLDATALOAD PUSH1 0x1 PUSH1 0x1 PUSH1 0x40 SHL SUB DUP2 GT ISZERO PUSH2 0x42E0 JUMPI PUSH0 PUSH0 REVERT JUMPDEST PUSH2 0x42EC DUP6 DUP3 DUP7 ADD PUSH2 0x38FC JUMP JUMPDEST SWAP3 POP POP PUSH1 0x20 DUP4 ADD CALLDATALOAD PUSH1 0x1 PUSH1 0x1 PUSH1 0x40 SHL SUB DUP2 GT ISZERO PUSH2 0x4307 JUMPI PUSH0 PUSH0 REVERT JUMPDEST PUSH2 0x4313 DUP6 DUP3 DUP7 ADD PUSH2 0x38FC JUMP JUMPDEST SWAP2 POP POP SWAP3 POP SWAP3 SWAP1 POP JUMP JUMPDEST DUP2 DUP4 DUP3 CALLDATACOPY PUSH0 SWAP2 ADD SWAP1 DUP2 MSTORE SWAP2 SWAP1 POP JUMP JUMPDEST PUSH14 0xA8F2E0CAC888C2E8C2A6D2CEDC5 PUSH1 0x93 SHL DUP2 MSTORE DUP4 DUP6 PUSH1 0xE DUP4 ADD CALLDATACOPY PUSH0 DUP5 DUP3 ADD PUSH32 0x20636F6E74656E74732C737472696E67206E616D652C737472696E6720766572 PUSH1 0xE DUP3 ADD MSTORE PUSH32 0x73696F6E2C75696E7432353620636861696E49642C6164647265737320766572 PUSH1 0x2E DUP3 ADD MSTORE PUSH32 0x696679696E67436F6E74726163742C627974657333322073616C742900000000 PUSH1 0x4E DUP3 ADD MSTORE DUP4 DUP6 PUSH1 0x6A DUP4 ADD CALLDATACOPY PUSH0 SWAP4 ADD PUSH1 0x6A ADD SWAP3 DUP4 MSTORE POP SWAP1 SWAP5 SWAP4 POP POP POP POP JUMP JUMPDEST DUP3 DUP2 MSTORE PUSH1 0x40 PUSH1 0x20 DUP3 ADD MSTORE PUSH0 PUSH2 0x709 PUSH1 0x40 DUP4 ADD DUP5 PUSH2 0x39AB JUMP JUMPDEST DUP1 MLOAD PUSH1 0x20 DUP3 ADD MLOAD PUSH1 0x1 PUSH1 0x1 PUSH1 0x60 SHL SUB NOT DUP2 AND SWAP2 SWAP1 PUSH1 0x14 DUP3 LT ISZERO PUSH2 0x4250 JUMPI PUSH1 0x1 PUSH1 0x1 PUSH1 0x60 SHL SUB NOT PUSH1 0x14 SWAP3 SWAP1 SWAP3 SUB PUSH1 0x3 SHL DUP3 SWAP1 SHL AND AND SWAP3 SWAP2 POP POP JUMP JUMPDEST PUSH1 0x60 DUP2 MSTORE PUSH0 PUSH2 0x443B PUSH1 0x60 DUP4 ADD DUP7 PUSH2 0x39AB JUMP JUMPDEST DUP5 PUSH1 0x20 DUP5 ADD MSTORE DUP3 DUP2 SUB PUSH1 0x40 DUP5 ADD MSTORE PUSH2 0x1A89 DUP2 DUP6 PUSH2 0x39AB JUMP JUMPDEST PUSH4 0x4E487B71 PUSH1 0xE0 SHL PUSH0 MSTORE PUSH1 0x21 PUSH1 0x4 MSTORE PUSH1 0x24 PUSH0 REVERT INVALID BLOCKHASH PUSH16 0x70656E7A657070656C696E2F636F6E74 PUSH19 0x616374732E4163636F756E7445524337353739 BASEFEE PUSH16 0x6F6B65642E76312E302E30DFE169305A MSTORE8 RETURNDATACOPY 0x28 DUP15 SDIV JUMPI 0xDA DUP14 0x28 SWAP2 CHAINID 0xD3 0xCC PUSH22 0xFA6E04C87599B048A60A4E5600A26469706673582212 KECCAK256 0x2F PUSH19 0x437E8463AD5B2C5D7E7975AD396ED925BEA04C 0xDB 0xBE CODECOPY PUSH0 PUSH5 0x4B4044D306 CALLDATALOAD PUSH5 0x736F6C6343 STOP ADDMOD 0x23 STOP CALLER "
	},
	"Assembly": ".code\n  PUSH 160\t\t\tcontract DappMiner is Initiali...\n  PUSH 40\t\t\tcontract DappMiner is Initiali...\n  MSTORE \t\t\tcontract DappMiner is Initiali...\n  CALLVALUE \t\t\tconstructor() EIP712(\"DappMine...\n  DUP1 \t\t\tconstructor() EIP712(\"DappMine...\n  ISZERO \t\t\tconstructor() EIP712(\"DappMine...\n  PUSH [tag] 1\t\t\tconstructor() EIP712(\"DappMine...\n  JUMPI \t\t\tconstructor() EIP712(\"DappMine...\n  PUSH 0\t\t\tconstructor() EIP712(\"DappMine...\n  PUSH 0\t\t\tconstructor() EIP712(\"DappMine...\n  REVERT \t\t\tconstructor() EIP712(\"DappMine...\ntag 1\t\t\tconstructor() EIP712(\"DappMine...\n  JUMPDEST \t\t\tconstructor() EIP712(\"DappMine...\n  POP \t\t\t\n  PUSH 40\t\t\ttureValidation\\n    function _...\n  DUP1 \t\t\ttureValidation\\n    function _...\n  MLOAD \t\t\ttureValidation\\n    function _...\n  DUP1 \t\t\ttureValidation\\n    function _...\n  DUP3 \t\t\ttureValidation\\n    function _...\n  ADD \t\t\ttureValidation\\n    function _...\n  DUP3 \t\t\ttureValidation\\n    function _...\n  MSTORE \t\t\ttureValidation\\n    function _...\n  PUSH 9\t\t\ttureValidation\\n    function _...\n  DUP2 \t\t\ttureValidation\\n    function _...\n  MSTORE \t\t\ttureValidation\\n    function _...\n  PUSH 2230B83826B4B732B9\t\t\t\n  PUSH B9\t\t\t\n  SHL \t\t\t\n  PUSH 20\t\t\ttureValidation\\n    function _...\n  DUP1 \t\t\ttureValidation\\n    function _...\n  DUP4 \t\t\ttureValidation\\n    function _...\n  ADD \t\t\ttureValidation\\n    function _...\n  SWAP2 \t\t\ttureValidation\\n    function _...\n  SWAP1 \t\t\ttureValidation\\n    function _...\n  SWAP2 \t\t\ttureValidation\\n    function _...\n  MSTORE \t\t\ttureValidation\\n    function _...\n  DUP3 \t\t\ttureValidation\\n    function _...\n  MLOAD \t\t\ttureValidation\\n    function _...\n  DUP1 \t\t\ttureValidation\\n    function _...\n  DUP5 \t\t\ttureValidation\\n    function _...\n  ADD \t\t\ttureValidation\\n    function _...\n  SWAP1 \t\t\ttureValidation\\n    function _...\n  SWAP4 \t\t\ttureValidation\\n    function _...\n  MSTORE \t\t\ttureValidation\\n    function _...\n  PUSH 1\t\t\ttureValidation\\n    function _...\n  DUP4 \t\t\ttureValidation\\n    function _...\n  MSTORE \t\t\ttureValidation\\n    function _...\n  PUSH 31\t\t\t\n  PUSH F8\t\t\t\n  SHL \t\t\t\n  SWAP1 \t\t\ttureValidation\\n    function _...\n  DUP4 \t\t\ttureValidation\\n    function _...\n  ADD \t\t\ttureValidation\\n    function _...\n  MSTORE \t\t\ttureValidation\\n    function _...\n  SWAP1 \t\t\ttureValidation\\n    function _...\n  PUSH [tag] 5\t\t\talldata signature)\\n        in...\n  DUP3 \t\t\ttureValidation\\n    function _...\n  PUSH 0\t\t\t\n  PUSH [tag] 6\t\t\talldata signature)\\n        in...\n  JUMP \t\t\talldata signature)\\n        in...\ntag 5\t\t\talldata signature)\\n        in...\n  JUMPDEST \t\t\talldata signature)\\n        in...\n  PUSH 120\t\t\t bytes calldata signature)\\n  ...\n  MSTORE \t\t\t bytes calldata signature)\\n  ...\n  PUSH [tag] 7\t\t\tMultiSignerERC7913Upgradeable,...\n  DUP2 \t\t\tMultiSi\n  PUSH 1\t\t\ttractSigner, Acc\n  PUSH [tag] 6\t\t\tMultiSignerERC7913Upgradeable,...\n  JUMP \t\t\tMultiSignerERC7913Upgradeable,...\ntag 7\t\t\tMultiSignerERC7913Upgradeable,...\n  JUMPDEST \t\t\tMultiSignerERC7913Upgradeable,...\n  PUSH 140\t\t\t  override(MultiSignerERC7913U...\n  MSTORE \t\t\t  override(MultiSignerERC7913U...\n  DUP2 \t\t\t       returns (bool)\\n\n  MLOAD \t\t\t       returns (bool)\\n\n  PUSH 20\t\t\t       returns (bool)\\n\n  DUP1 \t\t\t       returns (bool)\\n\n  DUP5 \t\t\t       returns (bool)\\n\n  ADD \t\t\t       returns (bool)\\n\n  SWAP2 \t\t\t       returns (bool)\\n\n  SWAP1 \t\t\t       returns (bool)\\n\n  SWAP2 \t\t\t       returns (bool)\\n\n  KECCAK256 \t\t\t       returns (bool)\\n\n  PUSH E0\t\t\tUpgradeable)\\n        returns ...\n  MSTORE \t\t\tUpgradeable)\\n        returns ...\n  DUP2 \t\t\t_rawSignatureValidation(h\n  MLOAD \t\t\t_rawSignatureValidation(h\n  SWAP1 \t\t\t_rawSignatureValidation(h\n  DUP3 \t\t\t_rawSignatureValidation(h\n  ADD \t\t\t_rawSignatureValidation(h\n  KECCAK256 \t\t\t_rawSignatureValidation(h\n  PUSH 100\t\t\t    return super._rawSignature...\n  MSTORE \t\t\t    return super._rawSignature...\n  CHAINID \t\t\t\n  PUSH A0\t\t\ture);\\n    }\\n}\\n\n  MSTORE \t\t\ture);\\n    }\\n}\\n\n  PUSH [tag] 8\t\t\t\n  PUSH E0\t\t\t\n  MLOAD \t\t\t\n  PUSH 100\t\t\t\n  MLOAD \t\t\t\n  PUSH 40\t\t\t\n  DUP1 \t\t\t\n  MLOAD \t\t\t\n  PUSH 8B73C3C69BB8FE3D512ECC4CF759CC79239F7B179B0FFACAA9A75D522B39400F\t\t\ttection).\\n        // If the r...\n  PUSH 20\t\t\t\n  DUP3 \t\t\t\n  ADD \t\t\t\n  MSTORE \t\t\t   // IMPORTANT: Make sur\n  SWAP1 \t\t\t7913Upgradeable is\n  DUP2 \t\t\t7913Upgradeable is\n  ADD \t\t\t7913Upgradeable is\n  SWAP3 \t\t\tgnerERC7913Upgradeable is more...\n  SWAP1 \t\t\tgnerERC7913Upgradeable is more...\n  SWAP3 \t\t\tgnerERC7913Upgradeable is more...\n  MSTORE \t\t\tgnerERC7913Upgradeable is more...\n  PUSH 60\t\t\ttERC7579Upgradeabl\n  DUP3 \t\t\ttERC7579Upgradeabl\n  ADD \t\t\ttERC7579Upgradeabl\n  MSTORE \t\t\t AccountERC7579Upgradeable\\n  ...\n  CHAINID \t\t\t\n  PUSH 80\t\t\tce chain (i.e. con\n  DUP3 \t\t\tce chain (i.e. con\n  ADD \t\t\tce chain (i.e. con\n  MSTORE \t\t\theritance chain (i.e. contract...\n  ADDRESS \t\t\t\n  PUSH A0\t\t\t79Upgradeable, ...,\n  DUP3 \t\t\t79Upgradeable, ...,\n  ADD \t\t\t79Upgradeable, ...,\n  MSTORE \t\t\tntERC7579Upgradeable, ..., Mul...\n  PUSH 0\t\t\t\n  SWAP1 \t\t\t\n  PUSH C0\t\t\tOpHash, signature);\n  ADD \t\t\tOpHash, signature);\n  PUSH 40\t\t\t\n  MLOAD \t\t\t\n  PUSH 20\t\t\t\n  DUP2 \t\t\t\n  DUP4 \t\t\t\n  SUB \t\t\t\n  SUB \t\t\t\n  DUP2 \t\t\t\n  MSTORE \t\t\t\n  SWAP1 \t\t\t\n  PUSH 40\t\t\t\n  MSTORE \t\t\t\n  DUP1 \t\t\t\n  MLOAD \t\t\t\n  SWAP1 \t\t\t\n  PUSH 20\t\t\t\n  ADD \t\t\t\n  KECCAK256 \t\t\t\n  SWAP1 \t\t\t\n  POP \t\t\t\n  SWAP1 \t\t\t\n  JUMP \t\t\t\ntag 8\t\t\t\n  JUMPDEST \t\t\t\n  PUSH 80\t\t\t\n  MSTORE \t\t\t\n  POP \t\t\t\n  POP \t\t\t\n  ADDRESS \t\t\t\n  PUSH C0\t\t\t\n  MSTORE \t\t\t\n  PUSH [tag] 11\t\t\t_disableInitializers()\n  PUSH [tag] 12\t\t\t_disableInitializers\n  JUMP \t\t\t_disableInitializers()\ntag 11\t\t\t_disableInitializers()\n  JUMPDEST \t\t\t_disableInitializers()\n  PUSH [tag] 49\t\t\tcontract DappMiner is Initiali...\n  JUMP \t\t\tcontract DappMiner is Initiali...\ntag 6\t\t\tdata signature)\\n        inter...\n  JUMPDEST \t\t\tdata signature)\\n        inter...\n  PUSH 0\t\t\tturns (uint\n  PUSH 20\t\t\tateU\n  DUP4 \t\t\turn s\n  MLOAD \t\t\t   return super._va\n  LT \t\t\t   return super._validateU\n  ISZERO \t\t\t       return super._validateU...\n  PUSH [tag] 15\t\t\t       return super._validateU...\n  JUMPI \t\t\t       return super._validateU...\n  PUSH [tag] 16\t\t\th, signature);\\n    }\n  DUP4 \t\t\t\\n    \n  PUSH [tag] 17\t\t\th, signature)\n  JUMP \t\t\th, signature);\\n    }\ntag 16\t\t\th, signature);\\n    }\n  JUMPDEST \t\t\th, signature);\\n    }\n  SWAP1 \t\t\terOpHash, signature);\\n    }\n  POP \t\t\terOpHash, signature);\\n    }\n  PUSH [tag] 18\t\t\terOpHash, signature);\\n    }\n  JUMP \t\t\terOpHash, signature);\\n    }\ntag 15\t\t\t       return super._validateU...\n  JUMPDEST \t\t\t       return super._validateU...\n  DUP2 \t\t\tle is\n  PUSH [tag] 21\t\t\tultiSignerERC7913Upgradeable i...\n  DUP5 \t\t\tved t\n  DUP3 \t\t\tle is\n  PUSH [tag] 22\t\t\tultiSignerERC7913Upgradeable i...\n  JUMP \t\t\tultiSignerERC7913Upgradeable i...\ntag 21\t\t\tultiSignerERC7913Upgradeable i...\n  JUMPDEST \t\t\tultiSignerERC7913Upgradeable i...\n  POP \t\t\t\n  PUSH FF\t\t\tiSignerERC7913Upgradeable, ERC...\n  SWAP1 \t\t\tiSignerERC7913Upgradeable, ERC...\n  POP \t\t\t\ntag 18\t\t\t       return super._validateU...\n  JUMPDEST \t\t\t       return super._validateU...\n  SWAP3 \t\t\tdata signature)\\n        inter...\n  SWAP2 \t\t\tdata signature)\\n        inter...\n  POP \t\t\tdata signature)\\n        inter...\n  POP \t\t\tdata signature)\\n        inter...\n  JUMP \t\t\tdata signature)\\n        inter...\ntag 12\t\t\t\n  JUMPDEST \t\t\t\n  PUSH 0\t\t\t\n  PUSH [tag] 27\t\t\t\n  PUSH [tag] 28\t\t\t\n  JUMP \t\t\t\ntag 27\t\t\t\n  JUMPDEST \t\t\t\n  DUP1 \t\t\t\n  SLOAD \t\t\t\n  SWAP1 \t\t\t\n  SWAP2 \t\t\t\n  POP \t\t\t\n  PUSH 10000000000000000\t\t\t\n  SWAP1 \t\t\t\n  DIV \t\t\t\n  PUSH FF\t\t\t\n  AND \t\t\t\n  ISZERO \t\t\t\n  PUSH [tag] 29\t\t\t\n  JUMPI \t\t\t\n  PUSH 40\t\t\t\n  MLOAD \t\t\t\n  PUSH F92EE8A9\t\t\t\n  PUSH E0\t\t\t\n  SHL \t\t\t\n  DUP2 \t\t\t\n  MSTORE \t\t\t\n  PUSH 4\t\t\t\n  ADD \t\t\t\n  PUSH 40\t\t\t\n  MLOAD \t\t\t\n  DUP1 \t\t\t\n  SWAP2 \t\t\t\n  SUB \t\t\t\n  SWAP1 \t\t\t\n  REVERT \t\t\t\ntag 29\t\t\t\n  JUMPDEST \t\t\t\n  DUP1 \t\t\t\n  SLOAD \t\t\t\n  PUSH 1\t\t\t\n  PUSH 1\t\t\t\n  PUSH 40\t\t\t\n  SHL \t\t\t\n  SUB \t\t\t\n  SWAP1 \t\t\t\n  DUP2 \t\t\t\n  AND \t\t\t\n  EQ \t\t\t\n  PUSH [tag] 30\t\t\t\n  JUMPI \t\t\t\n  DUP1 \t\t\t\n  SLOAD \t\t\t\n  PUSH 1\t\t\t\n  PUSH 1\t\t\t\n  PUSH 40\t\t\t\n  SHL \t\t\t\n  SUB \t\t\t\n  NOT \t\t\t\n  AND \t\t\t\n  PUSH 1\t\t\t\n  PUSH 1\t\t\t\n  PUSH 40\t\t\t\n  SHL \t\t\t\n  SUB \t\t\t\n  SWAP1 \t\t\t\n  DUP2 \t\t\t\n  OR \t\t\t\n  DUP3 \t\t\t\n  SSTORE \t\t\t\n  PUSH 40\t\t\t\n  MLOAD \t\t\t\n  SWAP1 \t\t\treValidation(bytes32 hash, byt...\n  DUP2 \t\t\treValidation(bytes32 hash, byt...\n  MSTORE \t\t\treValidation(bytes32 hash, byt...\n  PUSH C7F505B2F371AE2175EE4913F4499E1F2633A7B5936321EED1CDAEB6115181D2\t\t\t\n  SWAP1 \t\t\t\n  PUSH 20\t\t\t _\n  ADD \t\t\ton\\n    function _r\n  PUSH 40\t\t\t\n  MLOAD \t\t\t\n  DUP1 \t\t\t\n  SWAP2 \t\t\t\n  SUB \t\t\t\n  SWAP1 \t\t\t\n  LOG1 \t\t\t\ntag 30\t\t\t\n  JUMPDEST \t\t\t\n  POP \t\t\t\n  JUMP \t\t\t\ntag 17\t\t\t __AccountERC7579Hooked_init()...\n  JUMPDEST \t\t\t __AccountERC7579Hooked_init()...\n  PUSH 0\t\t\t(signers, t\n  PUSH 0\t\t\t   }\\n\\n    functio\n  DUP3 \t\t\tSig\n  SWAP1 \t\t\t   }\\n\\n    function isValidSi...\n  POP \t\t\t   }\\n\\n    function isValidSi...\n  PUSH 1F\t\t\tllda\n  DUP2 \t\t\thash\n  MLOAD \t\t\thash, bytes\n  GT \t\t\thash, bytes callda\n  ISZERO \t\t\ts32 hash, bytes calldata signa...\n  PUSH [tag] 34\t\t\ts32 hash, bytes calldata signa...\n  JUMPI \t\t\ts32 hash, bytes calldata signa...\n  DUP3 \t\t\tvie\n  PUSH 40\t\t\tublic\\n        view\n  MLOAD \t\t\tublic\\n        view\n  PUSH 305A27A9\t\t\t\n  PUSH E0\t\t\t\n  SHL \t\t\t\n  DUP2 \t\t\tublic\\n        view\n  MSTORE \t\t\tublic\\n        view\n  PUSH 4\t\t\tublic\\n        view\n  ADD \t\t\tublic\\n        view\n  PUSH [tag] 35\t\t\tublic\\n        view\n  SWAP2 \t\t\tublic\\n        view\n  SWAP1 \t\t\tublic\\n        view\n  PUSH [tag] 36\t\t\tublic\\n        view\n  JUMP \t\t\tublic\\n        view\ntag 35\t\t\tublic\\n        view\n  JUMPDEST \t\t\tublic\\n        view\n  PUSH 40\t\t\tublic\\n        view\n  MLOAD \t\t\tublic\\n        view\n  DUP1 \t\t\tublic\\n        view\n  SWAP2 \t\t\tublic\\n        view\n  SUB \t\t\tublic\\n        view\n  SWAP1 \t\t\tublic\\n        view\n  REVERT \t\t\tublic\\n        view\ntag 34\t\t\ts32 hash, bytes calldata signa...\n  JUMPDEST \t\t\ts32 hash, bytes calldata signa...\n  DUP1 \t\t\t)\\n    {\\n   \n  MLOAD \t\t\t)\\n    {\\n   \n  PUSH [tag] 37\t\t\t  returns (by\n  DUP3 \t\t\t)\\n  \n  PUSH [tag] 38\t\t\t  returns (by\n  JUMP \t\t\t  returns (by\ntag 37\t\t\t  returns (by\n  JUMPDEST \t\t\t  returns (by\n  OR \t\t\t)\\n        returns (bytes4)\\n ...\n  SWAP4 \t\t\t)\\n        returns (bytes4)\\n ...\n  SWAP3 \t\t\t __AccountERC7579Hooked_init()...\n  POP \t\t\t\n  POP \t\t\t\n  POP \t\t\t\n  JUMP \t\t\t __AccountERC7579Hooked_init()...\ntag 28\t\t\t\n  JUMPDEST \t\t\t\n  PUSH 0\t\t\t\n  DUP1 \t\t\t\n  PUSH F0C57E16840DF040F15088DC2F81FE391C3923BEC73E23A9662EFC9C229C6A00\t\t\t more derived than AccountERC7...\n  PUSH [tag] 18\t\t\t\n  JUMP \t\t\t\ntag 44\t\t\te-Identifier: MIT\\n// Compatib...\n  JUMPDEST \t\t\te-Identifier: MIT\\n// Compatib...\n  PUSH 4E487B71\t\t\t5.6.0\\nprag\n  PUSH E0\t\t\tcts\n  SHL \t\t\tntracts ^5.6.0\\npragm\n  PUSH 0\t\t\t \n  MSTORE \t\t\teppelin Contracts ^5.6.0\\nprag...\n  PUSH 41\t\t\t\\nimp\n  PUSH 4\t\t\t7\n  MSTORE \t\t\t ^0.8.27;\\n\\nimpo\n  PUSH 24\t\t\tooke\n  PUSH 0\t\t\t7\n  REVERT \t\t\tntERC7579Hooked\ntag 45\t\t\t} from \"@openzeppelin/contract...\n  JUMPDEST \t\t\t} from \"@openzeppelin/contract...\n  PUSH 1\t\t\t7\n  DUP2 \t\t\ttERC7579Hook\n  DUP2 \t\t\ttERC7579Hook\n  SHR \t\t\ttERC7579Hook\n  SWAP1 \t\t\ttERC7579Hook\n  DUP3 \t\t\tERC7579Upgra\n  AND \t\t\tERC7579Upgra\n  DUP1 \t\t\tERC7579Upgra\n  PUSH [tag] 52\t\t\trom \"@openzeppelin/contracts-u...\n  JUMPI \t\t\trom \"@openzeppelin/contracts-u...\n  PUSH 7F\t\t\tsion\n  DUP3 \t\t\tnt/ext\n  AND \t\t\tccount/extensions\n  SWAP2 \t\t\tradeable/account/extensions\n  POP \t\t\tradeable/account/extensions\ntag 52\t\t\trom \"@openzeppelin/contracts-u...\n  JUMPDEST \t\t\trom \"@openzeppelin/contracts-u...\n  PUSH 20\t\t\tul\n  DUP3 \t\t\tmport \n  LT \t\t\t;\\nimport {Mult\n  DUP2 \t\t\t7579Upgradeable.so\n  SUB \t\t\tERC7579Upgradeable.sol\";\\nimpo...\n  PUSH [tag] 53\t\t\tuntERC7579Upgradeable.sol\";\\ni...\n  JUMPI \t\t\tuntERC7579Upgradeable.sol\";\\ni...\n  PUSH 4E487B71\t\t\tlin/contra\n  PUSH E0\t\t\tzep\n  SHL \t\t\topenzeppelin/contrac\n  PUSH 0\t\t\t \n  MSTORE \t\t\te} from \"@openzeppelin/contrac...\n  PUSH 22\t\t\tptog\n  PUSH 4\t\t\tc\n  MSTORE \t\t\t/utils/cryptogr\n  PUSH 24\t\t\trERC\n  PUSH 0\t\t\tg\n  REVERT \t\t\tMultiSignerERC7\ntag 53\t\t\tuntERC7579Upgradeable.sol\";\\ni...\n  JUMPDEST \t\t\tuntERC7579Upgradeable.sol\";\\ni...\n  POP \t\t\tuntERC7579Upgradeable.sol\";\\ni...\n  SWAP2 \t\t\t} from \"@openzeppelin/contract...\n  SWAP1 \t\t\t} from \"@openzeppelin/contract...\n  POP \t\t\t} from \"@openzeppelin/contract...\n  JUMP \t\t\t} from \"@openzeppelin/contract...\ntag 47\t\t\ts/interfaces/draft-IERC4337.so...\n  JUMPDEST \t\t\ts/interfaces/draft-IERC4337.so...\n  PUSH 1F\t\t\tti\n  DUP3 \t\t\ts/I\n  GT \t\t\ttils/Initia\n  ISZERO \t\t\ty/utils/Initializable.sol\";\\ni...\n  PUSH [tag] 57\t\t\ty/utils/Initializable.sol\";\\ni...\n  JUMPI \t\t\ty/utils/Initializable.sol\";\\ni...\n  DUP3 \t\t\tr} from \"@\n  DUP3 \t\t\tHol\n  GT \t\t\t155Holder} from \"@o\n  ISZERO \t\t\tRC1155Holder} from \"@openzeppe...\n  PUSH [tag] 57\t\t\tRC1155Holder} from \"@openzeppe...\n  JUMPI \t\t\tRC1155Holder} from \"@openzeppe...\n  DUP1 \t\t\t/ERC1\n  PUSH 0\t\t\ti\n  MSTORE \t\t\t1155/utils/ERC11\n  PUSH 20\t\t\t\"@op\n  PUSH 0\t\t\to\n  KECCAK256 \t\t\tHolder} from \"@ope\n  PUSH 1F\t\t\tpo\n  DUP5 \t\t\tder.sol\";\\n\n  ADD \t\t\t1Holder.sol\";\\nimpor\n  PUSH 5\t\t\tC\n  SHR \t\t\ts/ERC721Holder.sol\";\\nimport\n  PUSH 20\t\t\tacts\n  DUP6 \t\t\tppelin/con\n  LT \t\t\tnzeppelin/contracts/\n  ISZERO \t\t\topenzeppelin/contracts/utils/c...\n  PUSH [tag] 58\t\t\topenzeppelin/contracts/utils/c...\n  JUMPI \t\t\topenzeppelin/contracts/utils/c...\n  POP \t\t\t\n  PUSH 0\t\t\tE\ntag 58\t\t\topenzeppelin/contracts/utils/c...\n  JUMPDEST \t\t\topenzeppelin/contracts/utils/c...\n  SWAP1 \t\t\tom \"@openzeppelin/contr\n  DUP2 \t\t\tom \"@openzeppelin/contr\n  ADD \t\t\tom \"@openzeppelin/contr\n  SWAP1 \t\t\tom \"@openzeppelin/contr\n  PUSH 1F\t\t\tso\n  DUP5 \t\t\tctSigner.sol\n  ADD \t\t\tctSigner.sol\n  PUSH 5\t\t\tt\n  SHR \t\t\t/AbstractSigner.sol\"\n  SUB \t\t\tners/AbstractSigner.sol\";\\nimp...\n  PUSH 0\t\t\tn\ntag 59\t\t\ttography/signers/draft-ERC7739...\n  JUMPDEST \t\t\ttography/signers/draft-ERC7739...\n  DUP2 \t\t\trs\n  DUP2 \t\t\tg\n  LT \t\t\t/signers/\n  ISZERO \t\t\ttography/signers/draft-ERC7739...\n  PUSH [tag] 61\t\t\ttography/signers/draft-ERC7739...\n  JUMPI \t\t\ttography/signers/draft-ERC7739...\n  PUSH 0\t\t\tD\n  DUP4 \t\t\tg@gmail.com\\ncontrac\n  DUP3 \t\t\tg@gmail.com\\ncontrac\n  ADD \t\t\tg@gmail.com\\ncontrac\n  SSTORE \t\t\tekambing@gmail.com\\ncontract D...\n  PUSH 1\t\t\to\n  ADD \t\t\tC7739.sol\n  PUSH [tag] 59\t\t\ttography/signers/draft-ERC7739...\n  JUMP \t\t\ttography/signers/draft-ERC7739...\ntag 61\t\t\ttography/signers/draft-ERC7739...\n  JUMPDEST \t\t\ttography/signers/draft-ERC7739...\n  POP \t\t\taph\n  POP \t\t\taph\n  POP \t\t\taph\ntag 57\t\t\tRC1155Holder} from \"@openzeppe...\n  JUMPDEST \t\t\tRC1155Holder} from \"@openzeppe...\n  POP \t\t\ts/interfaces/draft-IERC4337.so...\n  POP \t\t\ts/interfaces/draft-IERC4337.so...\n  POP \t\t\ts/interfaces/draft-IERC4337.so...\n  JUMP \t\t\ts/interfaces/draft-IERC4337.so...\ntag 22\t\t\t() EIP712(\"DappMiner\", \"1\") {\\...\n  JUMPDEST \t\t\t() EIP712(\"DappMiner\", \"1\") {\\...\n  DUP2 \t\t\tt64 thresh\n  MLOAD \t\t\tt64 thresh\n  PUSH 1\t\t\t\n  PUSH 1\t\t\t\n  PUSH 40\t\t\t\n  SHL \t\t\t\n  SUB \t\t\t\n  DUP2 \t\t\t public\\n        initializer\\n...\n  GT \t\t\t public\\n        initializer\\n...\n  ISZERO \t\t\t    public\\n        initialize...\n  PUSH [tag] 65\t\t\t    public\\n        initialize...\n  JUMPI \t\t\t    public\\n        initialize...\n  PUSH [tag] 65\t\t\t\\n        __Account\n  PUSH [tag] 44\t\t\t\\n        __Account\n  JUMP \t\t\t\\n        __Account\ntag 65\t\t\t\\n        __Account\n  JUMPDEST \t\t\t\\n        __Account\n  PUSH [tag] 66\t\t\ted_init();\\n        __MultiSig...\n  DUP2 \t\t\tlidSig\n  PUSH [tag] 67\t\t\trs, threshold);\\n    }\\n\\n    ...\n  DUP5 \t\t\tion \n  SLOAD \t\t\t function i\n  PUSH [tag] 45\t\t\trs, threshold);\\n    }\\n\\n    ...\n  JUMP \t\t\trs, threshold);\\n    }\\n\\n    ...\ntag 67\t\t\trs, threshold);\\n    }\\n\\n    ...\n  JUMPDEST \t\t\trs, threshold);\\n    }\\n\\n    ...\n  DUP5 \t\t\t(sig\n  PUSH [tag] 47\t\t\ted_init();\\n        __MultiSig...\n  JUMP \t\t\ted_init();\\n        __MultiSig...\ntag 66\t\t\ted_init();\\n        __MultiSig...\n  JUMPDEST \t\t\ted_init();\\n        __MultiSig...\n  PUSH 20\t\t\t    \n  PUSH 1F\t\t\t  \n  DUP3 \t\t\tview\\n        o\n  GT \t\t\tview\\n        o\n  PUSH 1\t\t\tt\n  DUP2 \t\t\tccountERC7579Upgradeable, ERC7...\n  EQ \t\t\tccountERC7579Upgradeable, ERC7...\n  PUSH [tag] 69\t\t\tccountERC7579Upgradeable, ERC7...\n  JUMPI \t\t\tccountERC7579Upgradeable, ERC7...\n  PUSH 0\t\t\t}\n  DUP4 \t\t\tetThre\n  ISZERO \t\t\tn setThreshold(uint64 threshol...\n  PUSH [tag] 70\t\t\tn setThreshold(uint64 threshol...\n  JUMPI \t\t\tn setThreshold(uint64 threshol...\n  POP \t\t\t\n  DUP5 \t\t\trSelf {\\n        _se\n  DUP3 \t\t\trSelf {\\n        _se\n  ADD \t\t\trSelf {\\n        _se\n  MLOAD \t\t\tPointOrSelf {\\n        _set\ntag 70\t\t\tn setThreshold(uint64 threshol...\n  JUMPDEST \t\t\tn setThreshold(uint64 threshol...\n  PUSH 0\t\t\t\n  NOT \t\t\t\n  PUSH 3\t\t\ta\n  DUP6 \t\t\tafe-allow-r\n  SWAP1 \t\t\tafe-allow-r\n  SHL \t\t\tafe-allow-r\n  SHR \t\t\t-unsafe-allow-reachable \n  NOT \t\t\tades-unsafe-allow-reachable c\n  AND \t\t\tom:oz-upgrades-unsafe-allow-re...\n  PUSH 1\t\t\tt\n  DUP5 \t\t\ttructor\\n   \n  SWAP1 \t\t\ttructor\\n   \n  SHL \t\t\ttructor\\n   \n  OR \t\t\tustom:oz-upgrades-unsafe-allow...\n  DUP5 \t\t\t\\n\\n    // The following funct...\n  SSTORE \t\t\t\\n\\n    // The following funct...\n  PUSH [tag] 68\t\t\t       view\\n        override(...\n  JUMP \t\t\t       view\\n        override(...\ntag 69\t\t\tccountERC7579Upgradeable, ERC7...\n  JUMPDEST \t\t\tccountERC7579Upgradeable, ERC7...\n  PUSH 0\t\t\tr\n  DUP5 \t\t\t\";\\nimport {Pac\n  DUP2 \t\t\t\";\\nimport {Pac\n  MSTORE \t\t\t\";\\nimport {Pac\n  PUSH 20\t\t\teppe\n  DUP2 \t\t\t from \"@openzeppel\n  KECCAK256 \t\t\t from \"@openzeppel\n  PUSH 1F\t\t\t\n  NOT \t\t\t\n  DUP6 \t\t\t       returns (byte\n  AND \t\t\t       returns (byte\n  SWAP2 \t\t\t       returns (byte\ntag 73\t\t\t001 (detection).\\n        // I...\n  JUMPDEST \t\t\t001 (detection).\\n        // I...\n  DUP3 \t\t\t).\\n    \n  DUP2 \t\t\ti\n  LT \t\t\tection).\\n     \n  ISZERO \t\t\t001 (detection).\\n        // I...\n  PUSH [tag] 75\t\t\t001 (detection).\\n        // I...\n  JUMPI \t\t\t001 (detection).\\n        // I...\n  DUP8 \t\t\t.\\n        bytes4 er\n  DUP6 \t\t\t.\\n        bytes4 er\n  ADD \t\t\t.\\n        bytes4 er\n  MLOAD \t\t\tdation.\\n        bytes4 erc\n  DUP3 \t\t\to ERC-7579 validation.\\n      ...\n  SSTORE \t\t\to ERC-7579 validation.\\n      ...\n  PUSH 20\t\t\tytes\n  SWAP5 \t\t\tc7739magic == bytes4\n  DUP6 \t\t\tc7739magic == bytes4\n  ADD \t\t\tc7739magic == bytes4\n  SWAP5 \t\t\tc7739magic == bytes4\n  PUSH 1\t\t\th\n  SWAP1 \t\t\tignature(hash,\n  SWAP3 \t\t\tignature(hash,\n  ADD \t\t\tignature(hash,\n  SWAP2 \t\t\tignature(hash,\n  ADD \t\t\t the returne\n  PUSH [tag] 73\t\t\t001 (detection).\\n        // I...\n  JUMP \t\t\t001 (detection).\\n        // I...\ntag 75\t\t\t001 (detection).\\n        // I...\n  JUMPDEST \t\t\t001 (detection).\\n        // I...\n  POP \t\t\t(de\n  DUP5 \t\t\tsValid\n  DUP3 \t\t\tadeable\n  LT \t\t\tpgradeable.isValidS\n  ISZERO \t\t\t79Upgradeable.isValidSignature...\n  PUSH [tag] 76\t\t\t79Upgradeable.isValidSignature...\n  JUMPI \t\t\t79Upgradeable.isValidSignature...\n  DUP7 \t\t\tunction addSigners(\n  DUP5 \t\t\tunction addSigners(\n  ADD \t\t\tunction addSigners(\n  MLOAD \t\t\t\\n    function addSigners(b\n  PUSH 0\t\t\t\n  NOT \t\t\t\n  PUSH 3\t\t\td\n  DUP8 \t\t\t  _addSigners(\n  SWAP1 \t\t\t  _addSigners(\n  SHL \t\t\t  _addSigners(\n  PUSH F8\t\t\tgne\n  AND \t\t\t      _addSigners(signer\n  SHR \t\t\t{\\n        _addSigners(signers...\n  NOT \t\t\telf {\\n        _addSigners(sig...\n  AND \t\t\tlyEntryPointOrSelf {\\n        ...\n  DUP2 \t\t\tners) public onlyEntryPointOrS...\n  SSTORE \t\t\tners) public onlyEntryPointOrS...\ntag 76\t\t\t79Upgradeable.isValidSignature...\n  JUMPDEST \t\t\t79Upgradeable.isValidSignature...\n  POP \t\t\t79Upgradeable.isValidSignature...\n  POP \t\t\t79Upgradeable.isValidSignature...\n  PUSH 1\t\t\ty\n  DUP4 \t\t\tublic \n  PUSH 1\t\t\t)\n  SHL \t\t\tners) public o\n  ADD \t\t\t signers) public onlyE\n  DUP5 \t\t\tmemo\n  SSTORE \t\t\tytes[] memory signers) public ...\ntag 68\t\t\t       view\\n        override(...\n  JUMPDEST \t\t\t       view\\n        override(...\n  POP \t\t\t       view\\n        override(...\n  POP \t\t\t       view\\n        override(...\n  POP \t\t\t       view\\n        override(...\n  POP \t\t\t() EIP712(\"DappMiner\", \"1\") {\\...\n  POP \t\t\t() EIP712(\"DappMiner\", \"1\") {\\...\n  JUMP \t\t\t() EIP712(\"DappMiner\", \"1\") {\\...\ntag 36\t\t\tinternal\\n        view\\n      ...\n  JUMPDEST \t\t\tinternal\\n        view\\n      ...\n  PUSH 20\t\t\t r\n  DUP2 \t\t\t  {\\n     \n  MSTORE \t\t\tool)\\n    {\\n        re\n  PUSH 0\t\t\t\\n   \n  DUP3 \t\t\tation(\n  MLOAD \t\t\teValidation(h\n  DUP1 \t\t\t\n  PUSH 20\t\t\t\n  DUP5 \t\t\t }\\n}\\n\n  ADD \t\t\t\\n    }\\n}\\n\n  MSTORE \t\t\tature);\\n    }\\n}\\n\n  DUP1 \t\t\t\n  PUSH 20\t\t\t\n  DUP6 \t\t\t\n  ADD \t\t\t\n  PUSH 40\t\t\t\n  DUP6 \t\t\t\n  ADD \t\t\t\n  MCOPY \t\t\t\n  PUSH 0\t\t\t\n  PUSH 40\t\t\t\n  DUP3 \t\t\t\n  DUP6 \t\t\t\n  ADD \t\t\t\n  ADD \t\t\t\n  MSTORE \t\t\t\n  PUSH 40\t\t\t\n  PUSH 1F\t\t\t\n  NOT \t\t\t\n  PUSH 1F\t\t\t\n  DUP4 \t\t\t\n  ADD \t\t\t\n  AND \t\t\t\n  DUP5 \t\t\t\n  ADD \t\t\t\n  ADD \t\t\t\n  SWAP2 \t\t\t\n  POP \t\t\t\n  POP \t\t\t\n  SWAP3 \t\t\tinternal\\n        view\\n      ...\n  SWAP2 \t\t\tinternal\\n        view\\n      ...\n  POP \t\t\tinternal\\n        view\\n      ...\n  POP \t\t\tinternal\\n        view\\n      ...\n  JUMP \t\t\tinternal\\n        view\\n      ...\ntag 38\t\t\t\n  JUMPDEST \t\t\t\n  DUP1 \t\t\t\n  MLOAD \t\t\t\n  PUSH 20\t\t\t\n  DUP1 \t\t\t\n  DUP4 \t\t\t\n  ADD \t\t\t\n  MLOAD \t\t\t\n  SWAP2 \t\t\t\n  SWAP1 \t\t\t\n  DUP2 \t\t\t\n  LT \t\t\t\n  ISZERO \t\t\t\n  PUSH [tag] 53\t\t\t\n  JUMPI \t\t\t\n  PUSH 0\t\t\t\n  NOT \t\t\t\n  PUSH 20\t\t\t\n  SWAP2 \t\t\t\n  SWAP1 \t\t\t\n  SWAP2 \t\t\t\n  SUB \t\t\t\n  PUSH 3\t\t\t\n  SHL \t\t\t\n  SHL \t\t\t\n  AND \t\t\t\n  SWAP2 \t\t\t\n  SWAP1 \t\t\t\n  POP \t\t\t\n  JUMP \t\t\t\ntag 49\t\t\t\n  JUMPDEST \t\t\t\n  PUSH 80\t\t\tcontract DappMiner is Initiali...\n  MLOAD \t\t\tcontract DappMiner is Initiali...\n  PUSH A0\t\t\tcontract DappMiner is Initiali...\n  MLOAD \t\t\tcontract DappMiner is Initiali...\n  PUSH C0\t\t\tcontract DappMiner is Initiali...\n  MLOAD \t\t\tcontract DappMiner is Initiali...\n  PUSH E0\t\t\tcontract DappMiner is Initiali...\n  MLOAD \t\t\tcontract DappMiner is Initiali...\n  PUSH 100\t\t\tcontract DappMiner is Initiali...\n  MLOAD \t\t\tcontract DappMiner is Initiali...\n  PUSH 120\t\t\tcontract DappMiner is Initiali...\n  MLOAD \t\t\tcontract DappMiner is Initiali...\n  PUSH 140\t\t\tcontract DappMiner is Initiali...\n  MLOAD \t\t\tcontract DappMiner is Initiali...\n  PUSH #[$] 0000000000000000000000000000000000000000000000000000000000000000\t\t\tcontract DappMiner is Initiali...\n  PUSH [$] 0000000000000000000000000000000000000000000000000000000000000000\t\t\tcontract DappMiner is Initiali...\n  PUSH 0\t\t\tcontract DappMiner is Initiali...\n  CODECOPY \t\t\tcontract DappMiner is Initiali...\n  PUSH 0\t\t\tcontract DappMiner is Initiali...\n  ASSIGNIMMUTABLE 13745\t\t\tcontract DappMiner is Initiali...\n  PUSH 0\t\t\tcontract DappMiner is Initiali...\n  ASSIGNIMMUTABLE 13742\t\t\tcontract DappMiner is Initiali...\n  PUSH 0\t\t\tcontract DappMiner is Initiali...\n  ASSIGNIMMUTABLE 13739\t\t\tcontract DappMiner is Initiali...\n  PUSH 0\t\t\tcontract DappMiner is Initiali...\n  ASSIGNIMMUTABLE 13737\t\t\tcontract DappMiner is Initiali...\n  PUSH 0\t\t\tcontract DappMiner is Initiali...\n  ASSIGNIMMUTABLE 13735\t\t\tcontract DappMiner is Initiali...\n  PUSH 0\t\t\tcontract DappMiner is Initiali...\n  ASSIGNIMMUTABLE 13733\t\t\tcontract DappMiner is Initiali...\n  PUSH 0\t\t\tcontract DappMiner is Initiali...\n  ASSIGNIMMUTABLE 13731\t\t\tcontract DappMiner is Initiali...\n  PUSH #[$] 0000000000000000000000000000000000000000000000000000000000000000\t\t\tcontract DappMiner is Initiali...\n  PUSH 0\t\t\tcontract DappMiner is Initiali...\n  RETURN \t\t\tcontract DappMiner is Initiali...\n.data\n  0:\n    .code\n      PUSH 80\t\t\tcontract DappMiner is Initiali...\n      PUSH 40\t\t\tcontract DappMiner is Initiali...\n      MSTORE \t\t\tcontract DappMiner is Initiali...\n      PUSH 4\t\t\tcontract DappMiner is Initiali...\n      CALLDATASIZE \t\t\tcontract DappMiner is Initiali...\n      LT \t\t\tcontract DappMiner is Initiali...\n      PUSH [tag] 1\t\t\tcontract DappMiner is Initiali...\n      JUMPI \t\t\tcontract DappMiner is Initiali...\n      PUSH 0\t\t\tcontract DappMiner is Initiali...\n      CALLDATALOAD \t\t\tcontract DappMiner is Initiali...\n      PUSH E0\t\t\tcontract DappMiner is Initiali...\n      SHR \t\t\tcontract DappMiner is Initiali...\n      DUP1 \t\t\tcontract DappMiner is Initiali...\n      PUSH 95FCD041\t\t\tcontract DappMiner is Initiali...\n      GT \t\t\tcontract DappMiner is Initiali...\n      PUSH [tag] 30\t\t\tcontract DappMiner is Initiali...\n      JUMPI \t\t\tcontract DappMiner is Initiali...\n      DUP1 \t\t\tcontract DappMiner is Initiali...\n      PUSH BC197C81\t\t\tcontract DappMiner is Initiali...\n      GT \t\t\tcontract DappMiner is Initiali...\n      PUSH [tag] 31\t\t\tcontract DappMiner is Initiali...\n      JUMPI \t\t\tcontract DappMiner is Initiali...\n      DUP1 \t\t\tcontract DappMiner is Initiali...\n      PUSH D691C964\t\t\tcontract DappMiner is Initiali...\n      GT \t\t\tcontract DappMiner is Initiali...\n      PUSH [tag] 32\t\t\tcontract DappMiner is Initiali...\n      JUMPI \t\t\tcontract DappMiner is Initiali...\n      DUP1 \t\t\tcontract DappMiner is Initiali...\n      PUSH D691C964\t\t\tcontract DappMiner is Initiali...\n      EQ \t\t\tcontract DappMiner is Initiali...\n      PUSH [tag] 26\t\t\tcontract DappMiner is Initiali...\n      JUMPI \t\t\tcontract DappMiner is Initiali...\n      DUP1 \t\t\tcontract DappMiner is Initiali...\n      PUSH E9AE5C53\t\t\tcontract DappMiner is Initiali...\n      EQ \t\t\tcontract DappMiner is Initiali...\n      PUSH [tag] 27\t\t\tcontract DappMiner is Initiali...\n      JUMPI \t\t\tcontract DappMiner is Initiali...\n      DUP1 \t\t\tcontract DappMiner is Initiali...\n      PUSH F23A6E61\t\t\tcontract DappMiner is Initiali...\n      EQ \t\t\tcontract DappMiner is Initiali...\n      PUSH [tag] 28\t\t\tcontract DappMiner is Initiali...\n      JUMPI \t\t\tcontract DappMiner is Initiali...\n      DUP1 \t\t\tcontract DappMiner is Initiali...\n      PUSH F2DC691D\t\t\tcontract DappMiner is Initiali...\n      EQ \t\t\tcontract DappMiner is Initiali...\n      PUSH [tag] 29\t\t\tcontract DappMiner is Initiali...\n      JUMPI \t\t\tcontract DappMiner is Initiali...\n      PUSH [tag] 2\t\t\tcontract DappMiner is Initiali...\n      JUMP \t\t\tcontract DappMiner is Initiali...\n    tag 32\t\t\tcontract DappMiner is Initiali...\n      JUMPDEST \t\t\tcontract DappMiner is Initiali...\n      DUP1 \t\t\tcontract DappMiner is Initiali...\n      PUSH BC197C81\t\t\tcontract DappMiner is Initiali...\n      EQ \t\t\tcontract DappMiner is Initiali...\n      PUSH [tag] 23\t\t\tcontract DappMiner is Initiali...\n      JUMPI \t\t\tcontract DappMiner is Initiali...\n      DUP1 \t\t\tcontract DappMiner is Initiali...\n      PUSH D03C7914\t\t\tcontract DappMiner is Initiali...\n      EQ \t\t\tcontract DappMiner is Initiali...\n      PUSH [tag] 24\t\t\tcontract DappMiner is Initiali...\n      JUMPI \t\t\tcontract DappMiner is Initiali...\n      DUP1 \t\t\tcontract DappMiner is Initiali...\n      PUSH D087D288\t\t\tcontract DappMiner is Initiali...\n      EQ \t\t\tcontract DappMiner is Initiali...\n      PUSH [tag] 25\t\t\tcontract DappMiner is Initiali...\n      JUMPI \t\t\tcontract DappMiner is Initiali...\n      PUSH [tag] 2\t\t\tcontract DappMiner is Initiali...\n      JUMP \t\t\tcontract DappMiner is Initiali...\n    tag 31\t\t\tcontract DappMiner is Initiali...\n      JUMPDEST \t\t\tcontract DappMiner is Initiali...\n      DUP1 \t\t\tcontract DappMiner is Initiali...\n      PUSH 9DDFDAF9\t\t\tcontract DappMiner is Initiali...\n      GT \t\t\tcontract DappMiner is Initiali...\n      PUSH [tag] 33\t\t\tcontract DappMiner is Initiali...\n      JUMPI \t\t\tcontract DappMiner is Initiali...\n      DUP1 \t\t\tcontract DappMiner is Initiali...\n      PUSH 9DDFDAF9\t\t\tcontract DappMiner is Initiali...\n      EQ \t\t\tcontract DappMiner is Initiali...\n      PUSH [tag] 19\t\t\tcontract DappMiner is Initiali...\n      JUMPI \t\t\tcontract DappMiner is Initiali...\n      DUP1 \t\t\tcontract DappMiner is Initiali...\n      PUSH A71763A8\t\t\tcontract DappMiner is Initiali...\n      EQ \t\t\tcontract DappMiner is Initiali...\n      PUSH [tag] 20\t\t\tcontract DappMiner is Initiali...\n      JUMPI \t\t\tcontract DappMiner is Initiali...\n      DUP1 \t\t\tcontract DappMiner is Initiali...\n      PUSH B0D691FE\t\t\tcontract DappMiner is Initiali...\n      EQ \t\t\tcontract DappMiner is Initiali...\n      PUSH [tag] 21\t\t\tcontract DappMiner is Initiali...\n      JUMPI \t\t\tcontract DappMiner is Initiali...\n      DUP1 \t\t\tcontract DappMiner is Initiali...\n      PUSH B715BE81\t\t\tcontract DappMiner is Initiali...\n      EQ \t\t\tcontract DappMiner is Initiali...\n      PUSH [tag] 22\t\t\tcontract DappMiner is Initiali...\n      JUMPI \t\t\tcontract DappMiner is Initiali...\n      PUSH [tag] 2\t\t\tcontract DappMiner is Initiali...\n      JUMP \t\t\tcontract DappMiner is Initiali...\n    tag 33\t\t\tcontract DappMiner is Initiali...\n      JUMPDEST \t\t\tcontract DappMiner is Initiali...\n      DUP1 \t\t\tcontract DappMiner is Initiali...\n      PUSH 95FCD041\t\t\tcontract DappMiner is Initiali...\n      EQ \t\t\tcontract DappMiner is Initiali...\n      PUSH [tag] 16\t\t\tcontract DappMiner is Initiali...\n      JUMPI \t\t\tcontract DappMiner is Initiali...\n      DUP1 \t\t\tcontract DappMiner is Initiali...\n      PUSH 96D4110B\t\t\tcontract DappMiner is Initiali...\n      EQ \t\t\tcontract DappMiner is Initiali...\n      PUSH [tag] 17\t\t\tcontract DappMiner is Initiali...\n      JUMPI \t\t\tcontract DappMiner is Initiali...\n      DUP1 \t\t\tcontract DappMiner is Initiali...\n      PUSH 9CFD7CFF\t\t\tcontract DappMiner is Initiali...\n      EQ \t\t\tcontract DappMiner is Initiali...\n      PUSH [tag] 18\t\t\tcontract DappMiner is Initiali...\n      JUMPI \t\t\tcontract DappMiner is Initiali...\n      PUSH [tag] 2\t\t\tcontract DappMiner is Initiali...\n      JUMP \t\t\tcontract DappMiner is Initiali...\n    tag 30\t\t\tcontract DappMiner is Initiali...\n      JUMPDEST \t\t\tcontract DappMiner is Initiali...\n      DUP1 \t\t\tcontract DappMiner is Initiali...\n      PUSH 3E1B0812\t\t\tcontract DappMiner is Initiali...\n      GT \t\t\tcontract DappMiner is Initiali...\n      PUSH [tag] 34\t\t\tcontract DappMiner is Initiali...\n      JUMPI \t\t\tcontract DappMiner is Initiali...\n      DUP1 \t\t\tcontract DappMiner is Initiali...\n      PUSH 7CC2046B\t\t\tcontract DappMiner is Initiali...\n      GT \t\t\tcontract DappMiner is Initiali...\n      PUSH [tag] 35\t\t\tcontract DappMiner is Initiali...\n      JUMPI \t\t\tcontract DappMiner is Initiali...\n      DUP1 \t\t\tcontract DappMiner is Initiali...\n      PUSH 7CC2046B\t\t\tcontract DappMiner is Initiali...\n      EQ \t\t\tcontract DappMiner is Initiali...\n      PUSH [tag] 12\t\t\tcontract DappMiner is Initiali...\n      JUMPI \t\t\tcontract DappMiner is Initiali...\n      DUP1 \t\t\tcontract DappMiner is Initiali...\n      PUSH 7F5A7C7B\t\t\tcontract DappMiner is Initiali...\n      EQ \t\t\tcontract DappMiner is Initiali...\n      PUSH [tag] 13\t\t\tcontract DappMiner is Initiali...\n      JUMPI \t\t\tcontract DappMiner is Initiali...\n      DUP1 \t\t\tcontract DappMiner is Initiali...\n      PUSH 84B0196E\t\t\tcontract DappMiner is Initiali...\n      EQ \t\t\tcontract DappMiner is Initiali...\n      PUSH [tag] 14\t\t\tcontract DappMiner is Initiali...\n      JUMPI \t\t\tcontract DappMiner is Initiali...\n      DUP1 \t\t\tcontract DappMiner is Initiali...\n      PUSH 9517E29F\t\t\tcontract DappMiner is Initiali...\n      EQ \t\t\tcontract DappMiner is Initiali...\n      PUSH [tag] 15\t\t\tcontract DappMiner is Initiali...\n      JUMPI \t\t\tcontract DappMiner is Initiali...\n      PUSH [tag] 2\t\t\tcontract DappMiner is Initiali...\n      JUMP \t\t\tcontract DappMiner is Initiali...\n    tag 35\t\t\tcontract DappMiner is Initiali...\n      JUMPDEST \t\t\tcontract DappMiner is Initiali...\n      DUP1 \t\t\tcontract DappMiner is Initiali...\n      PUSH 3E1B0812\t\t\tcontract DappMiner is Initiali...\n      EQ \t\t\tcontract DappMiner is Initiali...\n      PUSH [tag] 9\t\t\tcontract DappMiner is Initiali...\n      JUMPI \t\t\tcontract DappMiner is Initiali...\n      DUP1 \t\t\tcontract DappMiner is Initiali...\n      PUSH 42CDE4E8\t\t\tcontract DappMiner is Initiali...\n      EQ \t\t\tcontract DappMiner is Initiali...\n      PUSH [tag] 10\t\t\tcontract DappMiner is Initiali...\n      JUMPI \t\t\tcontract DappMiner is Initiali...\n      DUP1 \t\t\tcontract DappMiner is Initiali...\n      PUSH 43B98665\t\t\tcontract DappMiner is Initiali...\n      EQ \t\t\tcontract DappMiner is Initiali...\n      PUSH [tag] 11\t\t\tcontract DappMiner is Initiali...\n      JUMPI \t\t\tcontract DappMiner is Initiali...\n      PUSH [tag] 2\t\t\tcontract DappMiner is Initiali...\n      JUMP \t\t\tcontract DappMiner is Initiali...\n    tag 34\t\t\tcontract DappMiner is Initiali...\n      JUMPDEST \t\t\tcontract DappMiner is Initiali...\n      DUP1 \t\t\tcontract DappMiner is Initiali...\n      PUSH 1FFC9A7\t\t\tcontract DappMiner is Initiali...\n      EQ \t\t\tcontract DappMiner is Initiali...\n      PUSH [tag] 3\t\t\tcontract DappMiner is Initiali...\n      JUMPI \t\t\tcontract DappMiner is Initiali...\n      DUP1 \t\t\tcontract DappMiner is Initiali...\n      PUSH 112D3A7D\t\t\tcontract DappMiner is Initiali...\n      EQ \t\t\tcontract DappMiner is Initiali...\n      PUSH [tag] 4\t\t\tcontract DappMiner is Initiali...\n      JUMPI \t\t\tcontract DappMiner is Initiali...\n      DUP1 \t\t\tcontract DappMiner is Initiali...\n      PUSH 150B7A02\t\t\tcontract DappMiner is Initiali...\n      EQ \t\t\tcontract DappMiner is Initiali...\n      PUSH [tag] 5\t\t\tcontract DappMiner is Initiali...\n      JUMPI \t\t\tcontract DappMiner is Initiali...\n      DUP1 \t\t\tcontract DappMiner is Initiali...\n      PUSH 1626BA7E\t\t\tcontract DappMiner is Initiali...\n      EQ \t\t\tcontract DappMiner is Initiali...\n      PUSH [tag] 6\t\t\tcontract DappMiner is Initiali...\n      JUMPI \t\t\tcontract DappMiner is Initiali...\n      DUP1 \t\t\tcontract DappMiner is Initiali...\n      PUSH 17C4DE35\t\t\tcontract DappMiner is Initiali...\n      EQ \t\t\tcontract DappMiner is Initiali...\n      PUSH [tag] 7\t\t\tcontract DappMiner is Initiali...\n      JUMPI \t\t\tcontract DappMiner is Initiali...\n      DUP1 \t\t\tcontract DappMiner is Initiali...\n      PUSH 19822F7C\t\t\tcontract DappMiner is Initiali...\n      EQ \t\t\tcontract DappMiner is Initiali...\n      PUSH [tag] 8\t\t\tcontract DappMiner is Initiali...\n      JUMPI \t\t\tcontract DappMiner is Initiali...\n      PUSH [tag] 2\t\t\tcontract DappMiner is Initiali...\n      JUMP \t\t\tcontract DappMiner is Initiali...\n    tag 1\t\t\tcontract DappMiner is Initiali...\n      JUMPDEST \t\t\tcontract DappMiner is Initiali...\n      CALLDATASIZE \t\t\tcontract DappMiner is Initiali...\n      PUSH [tag] 2\t\t\tcontract DappMiner is Initiali...\n      JUMPI \t\t\tcontract DappMiner is Initiali...\n      STOP \t\t\tcontract DappMiner is Initiali...\n    tag 2\t\t\tcontract DappMiner is Initiali...\n      JUMPDEST \t\t\tcontract DappMiner is Initiali...\n      PUSH 0\t\t\tcontract DappMiner is Initiali...\n      CALLDATASIZE \t\t\tcontract DappMiner is Initiali...\n      PUSH 60\t\t\t\n      PUSH [tag] 40\t\t\t\n      PUSH [tag] 41\t\t\t\n      JUMP \t\t\t\n    tag 40\t\t\t\n      JUMPDEST \t\t\t\n      DUP1 \t\t\tcontract DappMiner is Initiali...\n      MLOAD \t\t\tcontract DappMiner is Initiali...\n      SWAP4 \t\t\tcontract DappMiner is Initiali...\n      POP \t\t\t\n      PUSH 20\t\t\tcontract DappMiner is Initiali...\n      ADD \t\t\tcontract DappMiner is Initiali...\n      SWAP2 \t\t\tcontract DappMiner is Initiali...\n      POP \t\t\t\n      POP \t\t\t\n      RETURN \t\t\tcontract DappMiner is Initiali...\n    tag 3\t\t\teppelin/contracts/interfaces/d...\n      JUMPDEST \t\t\teppelin/contracts/interfaces/d...\n      CALLVALUE \t\t\teppelin/contracts/interfaces/d...\n      DUP1 \t\t\teppelin/contracts/interfaces/d...\n      ISZERO \t\t\teppelin/contracts/interfaces/d...\n      PUSH [tag] 42\t\t\teppelin/contracts/interfaces/d...\n      JUMPI \t\t\teppelin/contracts/interfaces/d...\n      PUSH 0\t\t\teppelin/contracts/interfaces/d...\n      PUSH 0\t\t\teppelin/contracts/interfaces/d...\n      REVERT \t\t\teppelin/contracts/interfaces/d...\n    tag 42\t\t\teppelin/contracts/interfaces/d...\n      JUMPDEST \t\t\teppelin/contracts/interfaces/d...\n      POP \t\t\t\n      PUSH [tag] 43\t\t\teppelin/contracts/interfaces/d...\n      PUSH [tag] 44\t\t\teppelin/contracts/interfaces/d...\n      CALLDATASIZE \t\t\teppelin/contracts/interfaces/d...\n      PUSH 4\t\t\teppelin/contracts/interfaces/d...\n      PUSH [tag] 45\t\t\teppelin/contracts/interfaces/d...\n      JUMP \t\t\teppelin/contracts/interfaces/d...\n    tag 44\t\t\teppelin/contracts/interfaces/d...\n      JUMPDEST \t\t\teppelin/contracts/interfaces/d...\n      PUSH [tag] 46\t\t\teppelin/contracts/interfaces/d...\n      JUMP \t\t\teppelin/contracts/interfaces/d...\n    tag 43\t\t\teppelin/contracts/interfaces/d...\n      JUMPDEST \t\t\teppelin/contracts/interfaces/d...\n      PUSH 40\t\t\teppelin/contracts/interfaces/d...\n      MLOAD \t\t\teppelin/contracts/interfaces/d...\n      SWAP1 \t\t\tin/contracts/a\n      ISZERO \t\t\tin/contracts/a\n      ISZERO \t\t\tnzeppelin/contracts/ac\n      DUP2 \t\t\tccount} from \"@openzeppelin/co...\n      MSTORE \t\t\tccount} from \"@openzeppelin/co...\n      PUSH 20\t\t\t\";\n      ADD \t\t\tUpgradeable.sol\";\\n\n    tag 47\t\t\teppelin/contracts/interfaces/d...\n      JUMPDEST \t\t\teppelin/contracts/interfaces/d...\n      PUSH 40\t\t\teppelin/contracts/interfaces/d...\n      MLOAD \t\t\teppelin/contracts/interfaces/d...\n      DUP1 \t\t\teppelin/contracts/interfaces/d...\n      SWAP2 \t\t\teppelin/contracts/interfaces/d...\n      SUB \t\t\teppelin/contracts/interfaces/d...\n      SWAP1 \t\t\teppelin/contracts/interfaces/d...\n      RETURN \t\t\teppelin/contracts/interfaces/d...\n    tag 4\t\t\thash, signature);\\n    }\\n}\\n\n      JUMPDEST \t\t\thash, signature);\\n    }\\n}\\n\n      CALLVALUE \t\t\thash, signature);\\n    }\\n}\\n\n      DUP1 \t\t\thash, signature);\\n    }\\n}\\n\n      ISZERO \t\t\thash, signature);\\n    }\\n}\\n\n      PUSH [tag] 49\t\t\thash, signature);\\n    }\\n}\\n\n      JUMPI \t\t\thash, signature);\\n    }\\n}\\n\n      PUSH 0\t\t\thash, signature);\\n    }\\n}\\n\n      PUSH 0\t\t\thash, signature);\\n    }\\n}\\n\n      REVERT \t\t\thash, signature);\\n    }\\n}\\n\n    tag 49\t\t\thash, signature);\\n    }\\n}\\n\n      JUMPDEST \t\t\thash, signature);\\n    }\\n}\\n\n      POP \t\t\t\n      PUSH [tag] 43\t\t\thash, signature);\\n    }\\n}\\n\n      PUSH [tag] 51\t\t\thash, signature);\\n    }\\n}\\n\n      CALLDATASIZE \t\t\thash, signature);\\n    }\\n}\\n\n      PUSH 4\t\t\thash, signature);\\n    }\\n}\\n\n      PUSH [tag] 52\t\t\thash, signature);\\n    }\\n}\\n\n      JUMP \t\t\thash, signature);\\n    }\\n}\\n\n    tag 51\t\t\thash, signature);\\n    }\\n}\\n\n      JUMPDEST \t\t\thash, signature);\\n    }\\n}\\n\n      PUSH [tag] 53\t\t\thash, signature);\\n    }\\n}\\n\n      JUMP \t\t\thash, signature);\\n    }\\n}\\n\n    tag 5\t\t\trfaces/draft-IERC4337.sol\";\\ni...\n      JUMPDEST \t\t\trfaces/draft-IERC4337.sol\";\\ni...\n      CALLVALUE \t\t\trfaces/draft-IERC4337.sol\";\\ni...\n      DUP1 \t\t\trfaces/draft-IERC4337.sol\";\\ni...\n      ISZERO \t\t\trfaces/draft-IERC4337.sol\";\\ni...\n      PUSH [tag] 55\t\t\trfaces/draft-IERC4337.sol\";\\ni...\n      JUMPI \t\t\trfaces/draft-IERC4337.sol\";\\ni...\n      PUSH 0\t\t\trfaces/draft-IERC4337.sol\";\\ni...\n      PUSH 0\t\t\trfaces/draft-IERC4337.sol\";\\ni...\n      REVERT \t\t\trfaces/draft-IERC4337.sol\";\\ni...\n    tag 55\t\t\trfaces/draft-IERC4337.sol\";\\ni...\n      JUMPDEST \t\t\trfaces/draft-IERC4337.sol\";\\ni...\n      POP \t\t\t\n      PUSH [tag] 56\t\t\trfaces/draft-IERC4337.sol\";\\ni...\n      PUSH [tag] 57\t\t\trfaces/draft-IERC4337.sol\";\\ni...\n      CALLDATASIZE \t\t\trfaces/draft-IERC4337.sol\";\\ni...\n      PUSH 4\t\t\trfaces/draft-IERC4337.sol\";\\ni...\n      PUSH [tag] 58\t\t\trfaces/draft-IERC4337.sol\";\\ni...\n      JUMP \t\t\trfaces/draft-IERC4337.sol\";\\ni...\n    tag 57\t\t\trfaces/draft-IERC4337.sol\";\\ni...\n      JUMPDEST \t\t\trfaces/draft-IERC4337.sol\";\\ni...\n      PUSH A85BD01\t\t\t\n      PUSH E1\t\t\t\n      SHL \t\t\t\n      SWAP5 \t\t\trfaces/draft-IERC4337.sol\";\\ni...\n      SWAP4 \t\t\trfaces/draft-IERC4337.sol\";\\ni...\n      POP \t\t\trfaces/draft-IERC4337.sol\";\\ni...\n      POP \t\t\trfaces/draft-IERC4337.sol\";\\ni...\n      POP \t\t\trfaces/draft-IERC4337.sol\";\\ni...\n      POP \t\t\trfaces/draft-IERC4337.sol\";\\ni...\n      JUMP \t\t\trfaces/draft-IERC4337.sol\";\\ni...\n    tag 56\t\t\trfaces/draft-IERC4337.sol\";\\ni...\n      JUMPDEST \t\t\trfaces/draft-IERC4337.sol\";\\ni...\n      PUSH 40\t\t\trfaces/draft-IERC4337.sol\";\\ni...\n      MLOAD \t\t\trfaces/draft-IERC4337.sol\";\\ni...\n      PUSH 1\t\t\t\n      PUSH 1\t\t\t\n      PUSH E0\t\t\t\n      SHL \t\t\t\n      SUB \t\t\t\n      NOT \t\t\t\n      SWAP1 \t\t\tultiSignerERC7913Upgradeable, ...\n      SWAP2 \t\t\tultiSignerERC7913Upgradeable, ...\n      AND \t\t\tultiSignerERC7913Upgradeable, ...\n      DUP2 \t\t\t        override(MultiSignerER...\n      MSTORE \t\t\t        override(MultiSignerER...\n      PUSH 20\t\t\t  \n      ADD \t\t\t     internal\\n    \n      PUSH [tag] 47\t\t\trfaces/draft-IERC4337.sol\";\\ni...\n      JUMP \t\t\tns false for _rawSignatureVali...\n    tag 6\t\t\tfunction isValidSignature(byte...\n      JUMPDEST \t\t\tfunction isValidSignature(byte...\n      CALLVALUE \t\t\tfunction isValidSignature(byte...\n      DUP1 \t\t\tfunction isValidSignature(byte...\n      ISZERO \t\t\tfunction isValidSignature(byte...\n      PUSH [tag] 62\t\t\tfunction isValidSignature(byte...\n      JUMPI \t\t\tfunction isValidSignature(byte...\n      PUSH 0\t\t\tfunction isValidSignature(byte...\n      PUSH 0\t\t\tfunction isValidSignature(byte...\n      REVERT \t\t\tfunction isValidSignature(byte...\n    tag 62\t\t\tfunction isValidSignature(byte...\n      JUMPDEST \t\t\tfunction isValidSignature(byte...\n      POP \t\t\t\n      PUSH [tag] 56\t\t\tfunction isValidSignature(byte...\n      PUSH [tag] 64\t\t\tfunction isValidSignature(byte...\n      CALLDATASIZE \t\t\tfunction isValidSignature(byte...\n      PUSH 4\t\t\tfunction isValidSignature(byte...\n      PUSH [tag] 65\t\t\tfunction isValidSignature(byte...\n      JUMP \t\t\tfunction isValidSignature(byte...\n    tag 64\t\t\tfunction isValidSignature(byte...\n      JUMPDEST \t\t\tfunction isValidSignature(byte...\n      PUSH [tag] 66\t\t\tfunction isValidSignature(byte...\n      JUMP \t\t\tfunction isValidSignature(byte...\n    tag 7\t\t\tfunction setThreshold(uint64 t...\n      JUMPDEST \t\t\tfunction setThreshold(uint64 t...\n      CALLVALUE \t\t\tfunction setThreshold(uint64 t...\n      DUP1 \t\t\tfunction setThreshold(uint64 t...\n      ISZERO \t\t\tfunction setThreshold(uint64 t...\n      PUSH [tag] 68\t\t\tfunction setThreshold(uint64 t...\n      JUMPI \t\t\tfunction setThreshold(uint64 t...\n      PUSH 0\t\t\tfunction setThreshold(uint64 t...\n      PUSH 0\t\t\tfunction setThreshold(uint64 t...\n      REVERT \t\t\tfunction setThreshold(uint64 t...\n    tag 68\t\t\tfunction setThreshold(uint64 t...\n      JUMPDEST \t\t\tfunction setThreshold(uint64 t...\n      POP \t\t\t\n      PUSH [tag] 69\t\t\tfunction setThreshold(uint64 t...\n      PUSH [tag] 70\t\t\tfunction setThreshold(uint64 t...\n      CALLDATASIZE \t\t\tfunction setThreshold(uint64 t...\n      PUSH 4\t\t\tfunction setThreshold(uint64 t...\n      PUSH [tag] 71\t\t\tfunction setThreshold(uint64 t...\n      JUMP \t\t\tfunction setThreshold(uint64 t...\n    tag 70\t\t\tfunction setThreshold(uint64 t...\n      JUMPDEST \t\t\tfunction setThreshold(uint64 t...\n      PUSH [tag] 72\t\t\tfunction setThreshold(uint64 t...\n      JUMP \t\t\tfunction setThreshold(uint64 t...\n    tag 69\t\t\tfunction setThreshold(uint64 t...\n      JUMPDEST \t\t\tfunction setThreshold(uint64 t...\n      STOP \t\t\tfunction setThreshold(uint64 t...\n    tag 8\t\t\t  function removeSigners(bytes...\n      JUMPDEST \t\t\t  function removeSigners(bytes...\n      CALLVALUE \t\t\t  function removeSigners(bytes...\n      DUP1 \t\t\t  function removeSigners(bytes...\n      ISZERO \t\t\t  function removeSigners(bytes...\n      PUSH [tag] 73\t\t\t  function removeSigners(bytes...\n      JUMPI \t\t\t  function removeSigners(bytes...\n      PUSH 0\t\t\t  function removeSigners(bytes...\n      PUSH 0\t\t\t  function removeSigners(bytes...\n      REVERT \t\t\t  function removeSigners(bytes...\n    tag 73\t\t\t  function removeSigners(bytes...\n      JUMPDEST \t\t\t  function removeSigners(bytes...\n      POP \t\t\t\n      PUSH [tag] 74\t\t\t  function removeSigners(bytes...\n      PUSH [tag] 75\t\t\t  function removeSigners(bytes...\n      CALLDATASIZE \t\t\t  function removeSigners(bytes...\n      PUSH 4\t\t\t  function removeSigners(bytes...\n      PUSH [tag] 76\t\t\t  function removeSigners(bytes...\n      JUMP \t\t\t  function removeSigners(bytes...\n    tag 75\t\t\t  function removeSigners(bytes...\n      JUMPDEST \t\t\t  function removeSigners(bytes...\n      PUSH [tag] 77\t\t\t  function removeSigners(bytes...\n      JUMP \t\t\t  function removeSigners(bytes...\n    tag 74\t\t\t  function removeSigners(bytes...\n      JUMPDEST \t\t\t  function removeSigners(bytes...\n      PUSH 40\t\t\t  function removeSigners(bytes...\n      MLOAD \t\t\t  function removeSigners(bytes...\n      SWAP1 \t\t\t\n      DUP2 \t\t\t\n      MSTORE \t\t\t\n      PUSH 20\t\t\t\n      ADD \t\t\t\n      PUSH [tag] 47\t\t\t  function removeSigners(bytes...\n      JUMP \t\t\t\n    tag 9\t\t\tgradeable.isValidSignature(has...\n      JUMPDEST \t\t\tgradeable.isValidSignature(has...\n      CALLVALUE \t\t\tgradeable.isValidSignature(has...\n      DUP1 \t\t\tgradeable.isValidSignature(has...\n      ISZERO \t\t\tgradeable.isValidSignature(has...\n      PUSH [tag] 80\t\t\tgradeable.isValidSignature(has...\n      JUMPI \t\t\tgradeable.isValidSignature(has...\n      PUSH 0\t\t\tgradeable.isValidSignature(has...\n      PUSH 0\t\t\tgradeable.isValidSignature(has...\n      REVERT \t\t\tgradeable.isValidSignature(has...\n    tag 80\t\t\tgradeable.isValidSignature(has...\n      JUMPDEST \t\t\tgradeable.isValidSignature(has...\n      POP \t\t\t\n      PUSH [tag] 74\t\t\tgradeable.isValidSignature(has...\n      PUSH [tag] 82\t\t\tgradeable.isValidSignature(has...\n      CALLDATASIZE \t\t\tgradeable.isValidSignature(has...\n      PUSH 4\t\t\tgradeable.isValidSignature(has...\n      PUSH [tag] 83\t\t\tgradeable.isValidSignature(has...\n      JUMP \t\t\tgradeable.isValidSignature(has...\n    tag 82\t\t\tgradeable.isValidSignature(has...\n      JUMPDEST \t\t\tgradeable.isValidSignature(has...\n      PUSH [tag] 84\t\t\tgradeable.isValidSignature(has...\n      JUMP \t\t\tgradeable.isValidSignature(has...\n    tag 10\t\t\t\n      JUMPDEST \t\t\t\n      CALLVALUE \t\t\t\n      DUP1 \t\t\t\n      ISZERO \t\t\t\n      PUSH [tag] 86\t\t\t\n      JUMPI \t\t\t\n      PUSH 0\t\t\t\n      PUSH 0\t\t\t\n      REVERT \t\t\t\n    tag 86\t\t\t\n      JUMPDEST \t\t\t\n      POP \t\t\t\n      PUSH DFE169305A533E288E0557DA8D289146D3CC75FA6E04C87599B048A60A4E5602\t\t\t\n      SLOAD \t\t\t\n      PUSH 40\t\t\t\n      MLOAD \t\t\t\n      PUSH 1\t\t\t\n      PUSH 1\t\t\t\n      PUSH 40\t\t\t\n      SHL \t\t\t\n      SUB \t\t\t\n      SWAP1 \t\t\t\n      SWAP2 \t\t\t\n      AND \t\t\t\n      DUP2 \t\t\t\n      MSTORE \t\t\t\n      PUSH 20\t\t\t\n      ADD \t\t\t\n      PUSH [tag] 47\t\t\t\n      JUMP \t\t\t\n    tag 11\t\t\t\n      JUMPDEST \t\t\t\n      CALLVALUE \t\t\t\n      DUP1 \t\t\t\n      ISZERO \t\t\t\n      PUSH [tag] 91\t\t\t\n      JUMPI \t\t\t\n      PUSH 0\t\t\t\n      PUSH 0\t\t\t\n      REVERT \t\t\t\n    tag 91\t\t\t\n      JUMPDEST \t\t\t\n      POP \t\t\t\n      PUSH [tag] 43\t\t\t\n      PUSH [tag] 93\t\t\t\n      CALLDATASIZE \t\t\t\n      PUSH 4\t\t\t\n      PUSH [tag] 94\t\t\t\n      JUMP \t\t\t\n    tag 93\t\t\t\n      JUMPDEST \t\t\t\n      PUSH [tag] 95\t\t\t\n      JUMP \t\t\t\n    tag 12\t\t\tfunction removeSigners(bytes[]...\n      JUMPDEST \t\t\tfunction removeSigners(bytes[]...\n      CALLVALUE \t\t\tfunction removeSigners(bytes[]...\n      DUP1 \t\t\tfunction removeSigners(bytes[]...\n      ISZERO \t\t\tfunction removeSigners(bytes[]...\n      PUSH [tag] 97\t\t\tfunction removeSigners(bytes[]...\n      JUMPI \t\t\tfunction removeSigners(bytes[]...\n      PUSH 0\t\t\tfunction removeSigners(bytes[]...\n      PUSH 0\t\t\tfunction removeSigners(bytes[]...\n      REVERT \t\t\tfunction removeSigners(bytes[]...\n    tag 97\t\t\tfunction removeSigners(bytes[]...\n      JUMPDEST \t\t\tfunction removeSigners(bytes[]...\n      POP \t\t\t\n      PUSH [tag] 69\t\t\tfunction removeSigners(bytes[]...\n      PUSH [tag] 99\t\t\tfunction removeSigners(bytes[]...\n      CALLDATASIZE \t\t\tfunction removeSigners(bytes[]...\n      PUSH 4\t\t\tfunction removeSigners(bytes[]...\n      PUSH [tag] 100\t\t\tfunction removeSigners(bytes[]...\n      JUMP \t\t\tfunction removeSigners(bytes[]...\n    tag 99\t\t\tfunction removeSigners(bytes[]...\n      JUMPDEST \t\t\tfunction removeSigners(bytes[]...\n      PUSH [tag] 101\t\t\tfunction removeSigners(bytes[]...\n      JUMP \t\t\tfunction removeSigners(bytes[]...\n    tag 13\t\t\ttract ... is AccountERC7579Upg...\n      JUMPDEST \t\t\ttract ... is AccountERC7579Upg...\n      CALLVALUE \t\t\ttract ... is AccountERC7579Upg...\n      DUP1 \t\t\ttract ... is AccountERC7579Upg...\n      ISZERO \t\t\ttract ... is AccountERC7579Upg...\n      PUSH [tag] 102\t\t\ttract ... is AccountERC7579Upg...\n      JUMPI \t\t\ttract ... is AccountERC7579Upg...\n      PUSH 0\t\t\ttract ... is AccountERC7579Upg...\n      PUSH 0\t\t\ttract ... is AccountERC7579Upg...\n      REVERT \t\t\ttract ... is AccountERC7579Upg...\n    tag 102\t\t\ttract ... is AccountERC7579Upg...\n      JUMPDEST \t\t\ttract ... is AccountERC7579Upg...\n      POP \t\t\ttract ... is AccountERC7579Upg...\n      PUSH [tag] 103\t\t\ttract ... is AccountERC7579Upg...\n      PUSH [tag] 104\t\t\ttract ... is AccountERC7579Upg...\n      JUMP \t\t\ttract ... is AccountERC7579Upg...\n    tag 103\t\t\ttract ... is AccountERC7579Upg...\n      JUMPDEST \t\t\ttract ... is AccountERC7579Upg...\n      PUSH 40\t\t\ttract ... is AccountERC7579Upg...\n      MLOAD \t\t\ttract ... is AccountERC7579Upg...\n      PUSH 1\t\t\t\n      PUSH 1\t\t\t\n      PUSH A0\t\t\t\n      SHL \t\t\t\n      SUB \t\t\t\n      SWAP1 \t\t\t\n      SWAP2 \t\t\t\n      AND \t\t\t\n      DUP2 \t\t\t\n      MSTORE \t\t\t\n      PUSH 20\t\t\t\n      ADD \t\t\t\n      PUSH [tag] 47\t\t\ttract ... is AccountERC7579Upg...\n      JUMP \t\t\t\n    tag 14\t\t\t\n      JUMPDEST \t\t\t\n      CALLVALUE \t\t\t\n      DUP1 \t\t\t\n      ISZERO \t\t\t\n      PUSH [tag] 107\t\t\t\n      JUMPI \t\t\t\n      PUSH 0\t\t\t\n      PUSH 0\t\t\t\n      REVERT \t\t\t\n    tag 107\t\t\t\n      JUMPDEST \t\t\t\n      POP \t\t\t\n      PUSH [tag] 108\t\t\t\n      PUSH [tag] 109\t\t\t\n      JUMP \t\t\t\n    tag 108\t\t\t\n      JUMPDEST \t\t\t\n      PUSH 40\t\t\t\n      MLOAD \t\t\t\n      PUSH [tag] 47\t\t\t\n      SWAP8 \t\t\t\n      SWAP7 \t\t\t\n      SWAP6 \t\t\t\n      SWAP5 \t\t\t\n      SWAP4 \t\t\t\n      SWAP3 \t\t\t\n      SWAP2 \t\t\t\n      SWAP1 \t\t\t\n      PUSH [tag] 111\t\t\t\n      JUMP \t\t\t\n    tag 15\t\t\t\n      JUMPDEST \t\t\t\n      CALLVALUE \t\t\t\n      DUP1 \t\t\t\n      ISZERO \t\t\t\n      PUSH [tag] 112\t\t\t\n      JUMPI \t\t\t\n      PUSH 0\t\t\t\n      PUSH 0\t\t\t\n      REVERT \t\t\t\n    tag 112\t\t\t\n      JUMPDEST \t\t\t\n      POP \t\t\t\n      PUSH [tag] 69\t\t\t\n      PUSH [tag] 114\t\t\t\n      CALLDATASIZE \t\t\t\n      PUSH 4\t\t\t\n      PUSH [tag] 52\t\t\t\n      JUMP \t\t\t\n    tag 114\t\t\t\n      JUMPDEST \t\t\t\n      PUSH [tag] 115\t\t\t\n      JUMP \t\t\t\n    tag 16\t\t\t\n      JUMPDEST \t\t\t\n      CALLVALUE \t\t\t\n      DUP1 \t\t\t\n      ISZERO \t\t\t\n      PUSH [tag] 116\t\t\t\n      JUMPI \t\t\t\n      PUSH 0\t\t\t\n      PUSH 0\t\t\t\n      REVERT \t\t\t\n    tag 116\t\t\t\n      JUMPDEST \t\t\t\n      POP \t\t\t\n      PUSH [tag] 117\t\t\t\n      PUSH [tag] 118\t\t\t\n      CALLDATASIZE \t\t\t\n      PUSH 4\t\t\t\n      PUSH [tag] 119\t\t\t\n      JUMP \t\t\t\n    tag 118\t\t\t\n      JUMPDEST \t\t\t\n      PUSH [tag] 120\t\t\t\n      JUMP \t\t\t\n    tag 117\t\t\t\n      JUMPDEST \t\t\t\n      PUSH 40\t\t\t\n      MLOAD \t\t\t\n      PUSH [tag] 47\t\t\t\n      SWAP2 \t\t\t\n      SWAP1 \t\t\t\n      PUSH [tag] 122\t\t\t\n      JUMP \t\t\t\n    tag 17\t\t\tfunction addSigners(bytes[] me...\n      JUMPDEST \t\t\tfunction addSigners(bytes[] me...\n      CALLVALUE \t\t\tfunction addSigners(bytes[] me...\n      DUP1 \t\t\tfunction addSigners(bytes[] me...\n      ISZERO \t\t\tfunction addSigners(bytes[] me...\n      PUSH [tag] 123\t\t\tfunction addSigners(bytes[] me...\n      JUMPI \t\t\tfunction addSigners(bytes[] me...\n      PUSH 0\t\t\tfunction addSigners(bytes[] me...\n      PUSH 0\t\t\tfunction addSigners(bytes[] me...\n      REVERT \t\t\tfunction addSigners(bytes[] me...\n    tag 123\t\t\tfunction addSigners(bytes[] me...\n      JUMPDEST \t\t\tfunction addSigners(bytes[] me...\n      POP \t\t\t\n      PUSH [tag] 69\t\t\tfunction addSigners(bytes[] me...\n      PUSH [tag] 125\t\t\tfunction addSigners(bytes[] me...\n      CALLDATASIZE \t\t\tfunction addSigners(bytes[] me...\n      PUSH 4\t\t\tfunction addSigners(bytes[] me...\n      PUSH [tag] 100\t\t\tfunction addSigners(bytes[] me...\n      JUMP \t\t\tfunction addSigners(bytes[] me...\n    tag 125\t\t\tfunction addSigners(bytes[] me...\n      JUMPDEST \t\t\tfunction addSigners(bytes[] me...\n      PUSH [tag] 126\t\t\tfunction addSigners(bytes[] me...\n      JUMP \t\t\tfunction addSigners(bytes[] me...\n    tag 18\t\t\tt, AccountERC7579Upgradeable)\\...\n      JUMPDEST \t\t\tt, AccountERC7579Upgradeable)\\...\n      CALLVALUE \t\t\tt, AccountERC7579Upgradeable)\\...\n      DUP1 \t\t\tt, AccountERC7579Upgradeable)\\...\n      ISZERO \t\t\tt, AccountERC7579Upgradeable)\\...\n      PUSH [tag] 127\t\t\tt, AccountERC7579Upgradeable)\\...\n      JUMPI \t\t\tt, AccountERC7579Upgradeable)\\...\n      PUSH 0\t\t\tt, AccountERC7579Upgradeable)\\...\n      PUSH 0\t\t\tt, AccountERC7579Upgradeable)\\...\n      REVERT \t\t\tt, AccountERC7579Upgradeable)\\...\n    tag 127\t\t\tt, AccountERC7579Upgradeable)\\...\n      JUMPDEST \t\t\tt, AccountERC7579Upgradeable)\\...\n      POP \t\t\tt, AccountERC7579Upgradeable)\\...\n      PUSH [tag] 128\t\t\tt, AccountERC7579Upgradeable)\\...\n      PUSH [tag] 129\t\t\tt, AccountERC7579Upgradeable)\\...\n      JUMP \t\t\tt, AccountERC7579Upgradeable)\\...\n    tag 128\t\t\tt, AccountERC7579Upgradeable)\\...\n      JUMPDEST \t\t\tt, AccountERC7579Upgradeable)\\...\n      PUSH 40\t\t\tt, AccountERC7579Upgradeable)\\...\n      MLOAD \t\t\tt, AccountERC7579Upgradeable)\\...\n      PUSH [tag] 47\t\t\tt, AccountERC7579Upgradeable)\\...\n      SWAP2 \t\t\tt, AccountERC7579Upgradeable)\\...\n      SWAP1 \t\t\tt, AccountERC7579Upgradeable)\\...\n      PUSH [tag] 131\t\t\tt, AccountERC7579Upgradeable)\\...\n      JUMP \t\t\tt, AccountERC7579Upgradeable)\\...\n    tag 19\t\t\tfunction initialize(bytes[] me...\n      JUMPDEST \t\t\tfunction initialize(bytes[] me...\n      CALLVALUE \t\t\tfunction initialize(bytes[] me...\n      DUP1 \t\t\tfunction initialize(bytes[] me...\n      ISZERO \t\t\tfunction initialize(bytes[] me...\n      PUSH [tag] 132\t\t\tfunction initialize(bytes[] me...\n      JUMPI \t\t\tfunction initialize(bytes[] me...\n      PUSH 0\t\t\tfunction initialize(bytes[] me...\n      PUSH 0\t\t\tfunction initialize(bytes[] me...\n      REVERT \t\t\tfunction initialize(bytes[] me...\n    tag 132\t\t\tfunction initialize(bytes[] me...\n      JUMPDEST \t\t\tfunction initialize(bytes[] me...\n      POP \t\t\t\n      PUSH [tag] 69\t\t\tfunction initialize(bytes[] me...\n      PUSH [tag] 134\t\t\tfunction initialize(bytes[] me...\n      CALLDATASIZE \t\t\tfunction initialize(bytes[] me...\n      PUSH 4\t\t\tfunction initialize(bytes[] me...\n      PUSH [tag] 135\t\t\tfunction initialize(bytes[] me...\n      JUMP \t\t\tfunction initialize(bytes[] me...\n    tag 134\t\t\tfunction initialize(bytes[] me...\n      JUMPDEST \t\t\tfunction initialize(bytes[] me...\n      PUSH [tag] 136\t\t\tfunction initialize(bytes[] me...\n      JUMP \t\t\tfunction initialize(bytes[] me...\n    tag 20\t\t\t\n      JUMPDEST \t\t\t\n      CALLVALUE \t\t\t\n      DUP1 \t\t\t\n      ISZERO \t\t\t\n      PUSH [tag] 137\t\t\t\n      JUMPI \t\t\t\n      PUSH 0\t\t\t\n      PUSH 0\t\t\t\n      REVERT \t\t\t\n    tag 137\t\t\t\n      JUMPDEST \t\t\t\n      POP \t\t\t\n      PUSH [tag] 69\t\t\t\n      PUSH [tag] 139\t\t\t\n      CALLDATASIZE \t\t\t\n      PUSH 4\t\t\t\n      PUSH [tag] 52\t\t\t\n      JUMP \t\t\t\n    tag 139\t\t\t\n      JUMPDEST \t\t\t\n      PUSH [tag] 140\t\t\t\n      JUMP \t\t\t\n    tag 21\t\t\t79Upgradeable, ERC7739)\\n     ...\n      JUMPDEST \t\t\t79Upgradeable, ERC7739)\\n     ...\n      CALLVALUE \t\t\t79Upgradeable, ERC7739)\\n     ...\n      DUP1 \t\t\t79Upgradeable, ERC7739)\\n     ...\n      ISZERO \t\t\t79Upgradeable, ERC7739)\\n     ...\n      PUSH [tag] 141\t\t\t79Upgradeable, ERC7739)\\n     ...\n      JUMPI \t\t\t79Upgradeable, ERC7739)\\n     ...\n      PUSH 0\t\t\t79Upgradeable, ERC7739)\\n     ...\n      PUSH 0\t\t\t79Upgradeable, ERC7739)\\n     ...\n      REVERT \t\t\t79Upgradeable, ERC7739)\\n     ...\n    tag 141\t\t\t79Upgradeable, ERC7739)\\n     ...\n      JUMPDEST \t\t\t79Upgradeable, ERC7739)\\n     ...\n      POP \t\t\t\n      PUSH 433709009B8330FDA32311DF1C2AFA402ED8D009\t\t\traphy/signers/draft-ERC7739.so...\n      PUSH [tag] 103\t\t\t79Upgradeable, ERC7739)\\n     ...\n      JUMP \t\t\t79Upgradeable, ERC7739)\\n     ...\n    tag 22\t\t\t\n      JUMPDEST \t\t\t\n      CALLVALUE \t\t\t\n      DUP1 \t\t\t\n      ISZERO \t\t\t\n      PUSH [tag] 146\t\t\t\n      JUMPI \t\t\t\n      PUSH 0\t\t\t\n      PUSH 0\t\t\t\n      REVERT \t\t\t\n    tag 146\t\t\t\n      JUMPDEST \t\t\t\n      POP \t\t\t\n      PUSH [tag] 74\t\t\t\n      PUSH [tag] 148\t\t\t\n      JUMP \t\t\t\n    tag 23\t\t\tils/cryptography/signers/Abstr...\n      JUMPDEST \t\t\tils/cryptography/signers/Abstr...\n      CALLVALUE \t\t\tils/cryptography/signers/Abstr...\n      DUP1 \t\t\tils/cryptography/signers/Abstr...\n      ISZERO \t\t\tils/cryptography/signers/Abstr...\n      PUSH [tag] 150\t\t\tils/cryptography/signers/Abstr...\n      JUMPI \t\t\tils/cryptography/signers/Abstr...\n      PUSH 0\t\t\tils/cryptography/signers/Abstr...\n      PUSH 0\t\t\tils/cryptography/signers/Abstr...\n      REVERT \t\t\tils/cryptography/signers/Abstr...\n    tag 150\t\t\tils/cryptography/signers/Abstr...\n      JUMPDEST \t\t\tils/cryptography/signers/Abstr...\n      POP \t\t\t\n      PUSH [tag] 56\t\t\tils/cryptography/signers/Abstr...\n      PUSH [tag] 152\t\t\tils/cryptography/signers/Abstr...\n      CALLDATASIZE \t\t\tils/cryptography/signers/Abstr...\n      PUSH 4\t\t\tils/cryptography/signers/Abstr...\n      PUSH [tag] 153\t\t\tils/cryptography/signers/Abstr...\n      JUMP \t\t\tils/cryptography/signers/Abstr...\n    tag 152\t\t\tils/cryptography/signers/Abstr...\n      JUMPDEST \t\t\tils/cryptography/signers/Abstr...\n      PUSH BC197C81\t\t\t\n      PUSH E0\t\t\t\n      SHL \t\t\t\n      SWAP6 \t\t\tils/cryptography/signers/Abstr...\n      SWAP5 \t\t\tils/cryptography/signers/Abstr...\n      POP \t\t\tils/cryptography/signers/Abstr...\n      POP \t\t\tils/cryptography/signers/Abstr...\n      POP \t\t\tils/cryptography/signers/Abstr...\n      POP \t\t\tils/cryptography/signers/Abstr...\n      POP \t\t\tils/cryptography/signers/Abstr...\n      JUMP \t\t\tils/cryptography/signers/Abstr...\n    tag 24\t\t\t\n      JUMPDEST \t\t\t\n      CALLVALUE \t\t\t\n      DUP1 \t\t\t\n      ISZERO \t\t\t\n      PUSH [tag] 156\t\t\t\n      JUMPI \t\t\t\n      PUSH 0\t\t\t\n      PUSH 0\t\t\t\n      REVERT \t\t\t\n    tag 156\t\t\t\n      JUMPDEST \t\t\t\n      POP \t\t\t\n      PUSH [tag] 43\t\t\t\n      PUSH [tag] 158\t\t\t\n      CALLDATASIZE \t\t\t\n      PUSH 4\t\t\t\n      PUSH [tag] 159\t\t\t\n      JUMP \t\t\t\n    tag 158\t\t\t\n      JUMPDEST \t\t\t\n      PUSH [tag] 160\t\t\t\n      JUMP \t\t\t\n    tag 25\t\t\tffff, fallback to ERC-7579 val...\n      JUMPDEST \t\t\tffff, fallback to ERC-7579 val...\n      CALLVALUE \t\t\tffff, fallback to ERC-7579 val...\n      DUP1 \t\t\tffff, fallback to ERC-7579 val...\n      ISZERO \t\t\tffff, fallback to ERC-7579 val...\n      PUSH [tag] 162\t\t\tffff, fallback to ERC-7579 val...\n      JUMPI \t\t\tffff, fallback to ERC-7579 val...\n      PUSH 0\t\t\tffff, fallback to ERC-7579 val...\n      PUSH 0\t\t\tffff, fallback to ERC-7579 val...\n      REVERT \t\t\tffff, fallback to ERC-7579 val...\n    tag 162\t\t\tffff, fallback to ERC-7579 val...\n      JUMPDEST \t\t\tffff, fallback to ERC-7579 val...\n      POP \t\t\tffff, fallback to ERC-7579 val...\n      PUSH [tag] 74\t\t\tffff, fallback to ERC-7579 val...\n      PUSH [tag] 164\t\t\tffff, fallback to ERC-7579 val...\n      JUMP \t\t\tffff, fallback to ERC-7579 val...\n    tag 26\t\t\t\n      JUMPDEST \t\t\t\n      PUSH [tag] 117\t\t\t\n      PUSH [tag] 167\t\t\t\n      CALLDATASIZE \t\t\t\n      PUSH 4\t\t\t\n      PUSH [tag] 65\t\t\t\n      JUMP \t\t\t\n    tag 167\t\t\t\n      JUMPDEST \t\t\t\n      PUSH [tag] 168\t\t\t\n      JUMP \t\t\t\n    tag 27\t\t\t\n      JUMPDEST \t\t\t\n      PUSH [tag] 69\t\t\t\n      PUSH [tag] 171\t\t\t\n      CALLDATASIZE \t\t\t\n      PUSH 4\t\t\t\n      PUSH [tag] 65\t\t\t\n      JUMP \t\t\t\n    tag 171\t\t\t\n      JUMPDEST \t\t\t\n      PUSH [tag] 172\t\t\t\n      JUMP \t\t\t\n    tag 28\t\t\t\\nimport {ERC721Holder} from \"...\n      JUMPDEST \t\t\t\\nimport {ERC721Holder} from \"...\n      CALLVALUE \t\t\t\\nimport {ERC721Holder} from \"...\n      DUP1 \t\t\t\\nimport {ERC721Holder} from \"...\n      ISZERO \t\t\t\\nimport {ERC721Holder} from \"...\n      PUSH [tag] 173\t\t\t\\nimport {ERC721Holder} from \"...\n      JUMPI \t\t\t\\nimport {ERC721Holder} from \"...\n      PUSH 0\t\t\t\\nimport {ERC721Holder} from \"...\n      PUSH 0\t\t\t\\nimport {ERC721Holder} from \"...\n      REVERT \t\t\t\\nimport {ERC721Holder} from \"...\n    tag 173\t\t\t\\nimport {ERC721Holder} from \"...\n      JUMPDEST \t\t\t\\nimport {ERC721Holder} from \"...\n      POP \t\t\t\n      PUSH [tag] 56\t\t\t\\nimport {ERC721Holder} from \"...\n      PUSH [tag] 175\t\t\t\\nimport {ERC721Holder} from \"...\n      CALLDATASIZE \t\t\t\\nimport {ERC721Holder} from \"...\n      PUSH 4\t\t\t\\nimport {ERC721Holder} from \"...\n      PUSH [tag] 176\t\t\t\\nimport {ERC721Holder} from \"...\n      JUMP \t\t\t\\nimport {ERC721Holder} from \"...\n    tag 175\t\t\t\\nimport {ERC721Holder} from \"...\n      JUMPDEST \t\t\t\\nimport {ERC721Holder} from \"...\n      PUSH F23A6E61\t\t\t\n      PUSH E0\t\t\t\n      SHL \t\t\t\n      SWAP6 \t\t\t\\nimport {ERC721Holder} from \"...\n      SWAP5 \t\t\t\\nimport {ERC721Holder} from \"...\n      POP \t\t\t\\nimport {ERC721Holder} from \"...\n      POP \t\t\t\\nimport {ERC721Holder} from \"...\n      POP \t\t\t\\nimport {ERC721Holder} from \"...\n      POP \t\t\t\\nimport {ERC721Holder} from \"...\n      POP \t\t\t\\nimport {ERC721Holder} from \"...\n      JUMP \t\t\t\\nimport {ERC721Holder} from \"...\n    tag 29\t\t\t(bytes32 hash, bytes calldata ...\n      JUMPDEST \t\t\t(bytes32 hash, bytes calldata ...\n      CALLVALUE \t\t\t(bytes32 hash, bytes calldata ...\n      DUP1 \t\t\t(bytes32 hash, bytes calldata ...\n      ISZERO \t\t\t(bytes32 hash, bytes calldata ...\n      PUSH [tag] 179\t\t\t(bytes32 hash, bytes calldata ...\n      JUMPI \t\t\t(bytes32 hash, bytes calldata ...\n      PUSH 0\t\t\t(bytes32 hash, bytes calldata ...\n      PUSH 0\t\t\t(bytes32 hash, bytes calldata ...\n      REVERT \t\t\t(bytes32 hash, bytes calldata ...\n    tag 179\t\t\t(bytes32 hash, bytes calldata ...\n      JUMPDEST \t\t\t(bytes32 hash, bytes calldata ...\n      POP \t\t\t\n      PUSH [tag] 43\t\t\t(bytes32 hash, bytes calldata ...\n      PUSH [tag] 181\t\t\t(bytes32 hash, bytes calldata ...\n      CALLDATASIZE \t\t\t(bytes32 hash, bytes calldata ...\n      PUSH 4\t\t\t(bytes32 hash, bytes calldata ...\n      PUSH [tag] 159\t\t\t(bytes32 hash, bytes calldata ...\n      JUMP \t\t\t(bytes32 hash, bytes calldata ...\n    tag 181\t\t\t(bytes32 hash, bytes calldata ...\n      JUMPDEST \t\t\t(bytes32 hash, bytes calldata ...\n      PUSH [tag] 183\t\t\t(bytes32 hash, bytes calldata ...\n      JUMP \t\t\t(bytes32 hash, bytes calldata ...\n    tag 41\t\t\t\n      JUMPDEST \t\t\t\n      PUSH 60\t\t\t\n      PUSH 0\t\t\t) public only\n      PUSH [tag] 186\t\t\tryPoin\n      PUSH [tag] 104\t\t\tryPo\n      JUMP \t\t\tryPoin\n    tag 186\t\t\tryPoin\n      JUMPDEST \t\t\tryPoin\n      SWAP1 \t\t\t) public onlyEntryPoin\n      POP \t\t\t\n      PUSH 60\t\t\t        _addSigners(s\n      PUSH 1\t\t\t\n      PUSH 1\t\t\t\n      PUSH A0\t\t\t\n      SHL \t\t\t\n      SUB \t\t\t\n      DUP3 \t\t\tlic onlyEntryPointO\n      AND \t\t\tlic onlyEntryPointO\n      ISZERO \t\t\tlic onlyEntryPointO\n      PUSH [tag] 187\t\t\t public onlyEntryPointOrSelf {...\n      JUMPI \t\t\t public onlyEntryPointOrSelf {...\n      PUSH 40\t\t\t   _removeSigners(signers);\\n ...\n      MLOAD \t\t\t   _removeSigners(signers);\\n ...\n      PUSH D68F6025\t\t\t\n      PUSH E0\t\t\t\n      SHL \t\t\t\n      DUP2 \t\t\t   _removeSigners(signers);\\n ...\n      MSTORE \t\t\t   _removeSigners(signers);\\n ...\n      PUSH 1\t\t\t\n      PUSH 1\t\t\t\n      PUSH A0\t\t\t\n      SHL \t\t\t\n      SUB \t\t\t\n      DUP4 \t\t\t   _removeSigners(signers);\\n\n      AND \t\t\t   _removeSigners(signers);\\n\n      SWAP1 \t\t\t   _removeSigners(signers);\\n\n      PUSH D68F6025\t\t\t   _removeSigners(signers);\\n\n      SWAP1 \t\t\t   _removeSigners(signers);\\n\n      PUSH [tag] 188\t\t\t   _removeSigners(signers);\\n ...\n      SWAP1 \t\t\t   _removeSigners(signers);\\n ...\n      CALLER \t\t\t   }\\n\\n    \n      SWAP1 \t\t\t   }\\n\\n    \n      CALLVALUE \t\t\tnction se\n      SWAP1 \t\t\tnction se\n      PUSH 0\t\t\threshold\n      SWAP1 \t\t\threshold\n      CALLDATASIZE \t\t\threshold\n      SWAP1 \t\t\threshold\n      PUSH 4\t\t\t   _removeSigners(signers);\\n ...\n      ADD \t\t\t   _removeSigners(signers);\\n ...\n      PUSH [tag] 189\t\t\t   _removeSigners(signers);\\n ...\n      JUMP \t\t\t   _removeSigners(signers);\\n ...\n    tag 188\t\t\t   _removeSigners(signers);\\n ...\n      JUMPDEST \t\t\t   _removeSigners(signers);\\n ...\n      PUSH 0\t\t\t   _removeSigners(signers);\\n ...\n      PUSH 40\t\t\t   _removeSigners(signers);\\n ...\n      MLOAD \t\t\t   _removeSigners(signers);\\n ...\n      DUP1 \t\t\t   _removeSigners(signers);\\n ...\n      DUP4 \t\t\t   _removeSigners(signers);\\n ...\n      SUB \t\t\t   _removeSigners(signers);\\n ...\n      DUP2 \t\t\t   _removeSigners(signers);\\n ...\n      PUSH 0\t\t\t   _removeSigners(signers);\\n ...\n      DUP8 \t\t\t   _removeSigners(signers);\\n ...\n      GAS \t\t\t   _removeSigners(signers);\\n ...\n      CALL \t\t\t   _removeSigners(signers);\\n ...\n      ISZERO \t\t\t   _removeSigners(signers);\\n ...\n      DUP1 \t\t\t   _removeSigners(signers);\\n ...\n      ISZERO \t\t\t   _removeSigners(signers);\\n ...\n      PUSH [tag] 191\t\t\t   _removeSigners(signers);\\n ...\n      JUMPI \t\t\t   _removeSigners(signers);\\n ...\n      RETURNDATASIZE \t\t\t   _removeSigners(signers);\\n ...\n      PUSH 0\t\t\t   _removeSigners(signers);\\n ...\n      PUSH 0\t\t\t   _removeSigners(signers);\\n ...\n      RETURNDATACOPY \t\t\t   _removeSigners(signers);\\n ...\n      RETURNDATASIZE \t\t\t   _removeSigners(signers);\\n ...\n      PUSH 0\t\t\t   _removeSigners(signers);\\n ...\n      REVERT \t\t\t   _removeSigners(signers);\\n ...\n    tag 191\t\t\t   _removeSigners(signers);\\n ...\n      JUMPDEST \t\t\t   _removeSigners(signers);\\n ...\n      POP \t\t\t   _removeSigners(signers);\\n ...\n      POP \t\t\t   _removeSigners(signers);\\n ...\n      POP \t\t\t   _removeSigners(signers);\\n ...\n      POP \t\t\t   _removeSigners(signers);\\n ...\n      PUSH 40\t\t\t   _removeSigners(signers);\\n ...\n      MLOAD \t\t\t   _removeSigners(signers);\\n ...\n      RETURNDATASIZE \t\t\t   _removeSigners(signers);\\n ...\n      PUSH 0\t\t\t   _removeSigners(signers);\\n ...\n      DUP3 \t\t\t   _removeSigners(signers);\\n ...\n      RETURNDATACOPY \t\t\t   _removeSigners(signers);\\n ...\n      PUSH 1F\t\t\t   _removeSigners(signers);\\n ...\n      RETURNDATASIZE \t\t\t   _removeSigners(signers);\\n ...\n      SWAP1 \t\t\t   _removeSigners(signers);\\n ...\n      DUP2 \t\t\t   _removeSigners(signers);\\n ...\n      ADD \t\t\t   _removeSigners(signers);\\n ...\n      PUSH 1F\t\t\t\n      NOT \t\t\t\n      AND \t\t\t   _removeSigners(signers);\\n ...\n      DUP3 \t\t\t   _removeSigners(signers);\\n ...\n      ADD \t\t\t   _removeSigners(signers);\\n ...\n      PUSH 40\t\t\t   _removeSigners(signers);\\n ...\n      MSTORE \t\t\t   _removeSigners(signers);\\n ...\n      PUSH [tag] 192\t\t\t   _removeSigners(signers);\\n ...\n      SWAP2 \t\t\t   _removeSigners(signers);\\n ...\n      SWAP1 \t\t\t   _removeSigners(signers);\\n ...\n      DUP2 \t\t\t   _removeSigners(signers);\\n ...\n      ADD \t\t\t   _removeSigners(signers);\\n ...\n      SWAP1 \t\t\t   _removeSigners(signers);\\n ...\n      PUSH [tag] 193\t\t\t   _removeSigners(signers);\\n ...\n      JUMP \t\t\t   _removeSigners(signers);\\n ...\n    tag 192\t\t\t   _removeSigners(signers);\\n ...\n      JUMPDEST \t\t\t   _removeSigners(signers);\\n ...\n      SWAP1 \t\t\telf {\\n        _removeSigners(...\n      POP \t\t\telf {\\n        _removeSigners(...\n    tag 187\t\t\t public onlyEntryPointOrSelf {...\n      JUMPDEST \t\t\t public onlyEntryPointOrSelf {...\n      PUSH [tag] 195\t\t\t\n      PUSH [tag] 196\t\t\t\n      JUMP \t\t\t\n    tag 195\t\t\t\n      JUMPDEST \t\t\t\n      SWAP3 \t\t\t\n      POP \t\t\t\n      PUSH 1\t\t\t\n      PUSH 1\t\t\t\n      PUSH A0\t\t\t\n      SHL \t\t\t\n      SUB \t\t\t\n      DUP3 \t\t\tonlyEntryPointOrSel\n      AND \t\t\tonlyEntryPointOrSel\n      ISZERO \t\t\tonlyEntryPointOrSel\n      PUSH [tag] 197\t\t\tlic onlyEntryPointOrSelf {\\n  ...\n      JUMPI \t\t\tlic onlyEntryPointOrSelf {\\n  ...\n      PUSH 40\t\t\t{\\n        _setThreshold(thres...\n      MLOAD \t\t\t{\\n        _setThreshold(thres...\n      PUSH B9DFBED\t\t\t\n      PUSH E1\t\t\t\n      SHL \t\t\t\n      DUP2 \t\t\t{\\n        _setThreshold(thres...\n      MSTORE \t\t\t{\\n        _setThreshold(thres...\n      PUSH 1\t\t\t\n      PUSH 1\t\t\t\n      PUSH A0\t\t\t\n      SHL \t\t\t\n      SUB \t\t\t\n      DUP4 \t\t\t{\\n        _setThreshold(thres\n      AND \t\t\t{\\n        _setThreshold(thres\n      SWAP1 \t\t\t{\\n        _setThreshold(thres\n      PUSH 173BF7DA\t\t\t{\\n        _setThreshold(thres\n      SWAP1 \t\t\t{\\n        _setThreshold(thres\n      PUSH [tag] 198\t\t\t{\\n        _setThreshold(thres...\n      SWAP1 \t\t\t{\\n        _setThreshold(thres...\n      DUP5 \t\t\told);\\n  \n      SWAP1 \t\t\told);\\n  \n      PUSH 4\t\t\t{\\n        _setThreshold(thres...\n      ADD \t\t\t{\\n        _setThreshold(thres...\n      PUSH [tag] 131\t\t\t{\\n        _setThreshold(thres...\n      JUMP \t\t\t{\\n        _setThreshold(thres...\n    tag 198\t\t\t{\\n        _setThreshold(thres...\n      JUMPDEST \t\t\t{\\n        _setThreshold(thres...\n      PUSH 0\t\t\t{\\n        _setThreshold(thres...\n      PUSH 40\t\t\t{\\n        _setThreshold(thres...\n      MLOAD \t\t\t{\\n        _setThreshold(thres...\n      DUP1 \t\t\t{\\n        _setThreshold(thres...\n      DUP4 \t\t\t{\\n        _setThreshold(thres...\n      SUB \t\t\t{\\n        _setThreshold(thres...\n      DUP2 \t\t\t{\\n        _setThreshold(thres...\n      PUSH 0\t\t\t{\\n        _setThreshold(thres...\n      DUP8 \t\t\t{\\n        _setThreshold(thres...\n      DUP1 \t\t\t{\\n        _setThreshold(thres...\n      EXTCODESIZE \t\t\t{\\n        _setThreshold(thres...\n      ISZERO \t\t\t{\\n        _setThreshold(thres...\n      DUP1 \t\t\t{\\n        _setThreshold(thres...\n      ISZERO \t\t\t{\\n        _setThreshold(thres...\n      PUSH [tag] 200\t\t\t{\\n        _setThreshold(thres...\n      JUMPI \t\t\t{\\n        _setThreshold(thres...\n      PUSH 0\t\t\t{\\n        _setThreshold(thres...\n      PUSH 0\t\t\t{\\n        _setThreshold(thres...\n      REVERT \t\t\t{\\n        _setThreshold(thres...\n    tag 200\t\t\t{\\n        _setThreshold(thres...\n      JUMPDEST \t\t\t{\\n        _setThreshold(thres...\n      POP \t\t\t{\\n        _setThreshold(thres...\n      GAS \t\t\t{\\n        _setThreshold(thres...\n      CALL \t\t\t{\\n        _setThreshold(thres...\n      ISZERO \t\t\t{\\n        _setThreshold(thres...\n      DUP1 \t\t\t{\\n        _setThreshold(thres...\n      ISZERO \t\t\t{\\n        _setThreshold(thres...\n      PUSH [tag] 202\t\t\t{\\n        _setThreshold(thres...\n      JUMPI \t\t\t{\\n        _setThreshold(thres...\n      RETURNDATASIZE \t\t\t{\\n        _setThreshold(thres...\n      PUSH 0\t\t\t{\\n        _setThreshold(thres...\n      PUSH 0\t\t\t{\\n        _setThreshold(thres...\n      RETURNDATACOPY \t\t\t{\\n        _setThreshold(thres...\n      RETURNDATASIZE \t\t\t{\\n        _setThreshold(thres...\n      PUSH 0\t\t\t{\\n        _setThreshold(thres...\n      REVERT \t\t\t{\\n        _setThreshold(thres...\n    tag 202\t\t\t{\\n        _setThreshold(thres...\n      JUMPDEST \t\t\t{\\n        _setThreshold(thres...\n      POP \t\t\t{\\n        _setThreshold(thres...\n      POP \t\t\t{\\n        _setThreshold(thres...\n      POP \t\t\t{\\n        _setThreshold(thres...\n      POP \t\t\t{\\n        _setThreshold(thres...\n    tag 197\t\t\tlic onlyEntryPointOrSelf {\\n  ...\n      JUMPDEST \t\t\tlic onlyEntryPointOrSelf {\\n  ...\n      POP \t\t\try signers) public onlyEntryPo...\n      POP \t\t\try signers) public onlyEntryPo...\n      SWAP1 \t\t\t\n      JUMP \t\t\t\n    tag 46\t\t\teppelin/contracts/interfaces/d...\n      JUMPDEST \t\t\teppelin/contracts/interfaces/d...\n      PUSH 0\t\t\t/pro\n      PUSH 1\t\t\t\n      PUSH 1\t\t\t\n      PUSH E0\t\t\t\n      SHL \t\t\t\n      SUB \t\t\t\n      NOT \t\t\t\n      DUP3 \t\t\tble.sol\";\\nimport {ERC1155Hold...\n      AND \t\t\tble.sol\";\\nimport {ERC1155Hold...\n      PUSH 2711897\t\t\t\n      PUSH E5\t\t\t\n      SHL \t\t\t\n      EQ \t\t\tble.sol\";\\nimport {ERC1155Hold...\n      DUP1 \t\t\tble.sol\";\\nimport {ERC1155Hold...\n      PUSH [tag] 205\t\t\tble.sol\";\\nimport {ERC1155Hold...\n      JUMPI \t\t\tble.sol\";\\nimport {ERC1155Hold...\n      POP \t\t\t\n      PUSH 1FFC9A7\t\t\t\n      PUSH E0\t\t\t\n      SHL \t\t\t\n      PUSH 1\t\t\t\n      PUSH 1\t\t\t\n      PUSH E0\t\t\t\n      SHL \t\t\t\n      SUB \t\t\t\n      NOT \t\t\t\n      DUP4 \t\t\ttoken/ERC1155/utils/ERC1155Hol...\n      AND \t\t\ttoken/ERC1155/utils/ERC1155Hol...\n      EQ \t\t\ttoken/ERC1155/utils/ERC1155Hol...\n    tag 205\t\t\tcontracts/token/ERC1155/utils/...\n      JUMPDEST \t\t\tcontracts/token/ERC1155/utils/...\n      SWAP3 \t\t\ttializable.sol\";\\nimport {ERC1...\n      SWAP2 \t\t\teppelin/contracts/interfaces/d...\n      POP \t\t\t\n      POP \t\t\t\n      JUMP \t\t\teppelin/contracts/interfaces/d...\n    tag 53\t\t\thash, signature);\\n    }\\n}\\n\n      JUMPDEST \t\t\thash, signature);\\n    }\\n}\\n\n      PUSH 0\t\t\t\n      PUSH 4\t\t\t/\n      DUP6 \t\t\t\n      EQ \t\t\t\n      DUP1 \t\t\t\n      ISZERO \t\t\t\n      PUSH [tag] 208\t\t\t\n      JUMPI \t\t\t\n      POP \t\t\t\n      PUSH [tag] 209\t\t\t\n      PUSH [tag] 104\t\t\t\n      JUMP \t\t\t\n    tag 209\t\t\t\n      JUMPDEST \t\t\t\n      PUSH 1\t\t\t\n      PUSH 1\t\t\t\n      PUSH A0\t\t\t\n      SHL \t\t\t\n      SUB \t\t\t\n      AND \t\t\t\n      DUP5 \t\t\t\n      PUSH 1\t\t\t\n      PUSH 1\t\t\t\n      PUSH A0\t\t\t\n      SHL \t\t\t\n      SUB \t\t\t\n      AND \t\t\t\n      EQ \t\t\t\n    tag 208\t\t\t\n      JUMPDEST \t\t\t\n      DUP1 \t\t\t\n      PUSH [tag] 211\t\t\t\n      JUMPI \t\t\t\n      POP \t\t\t\n      PUSH [tag] 211\t\t\t\n      DUP6 \t\t\t\n      DUP6 \t\t\t\n      DUP6 \t\t\t\n      DUP6 \t\t\t\n      PUSH [tag] 212\t\t\t\n      JUMP \t\t\t\n    tag 211\t\t\t\n      JUMPDEST \t\t\t\n      SWAP1 \t\t\t\n      POP \t\t\t\n    tag 207\t\t\thash, signature);\\n    }\\n}\\n\n      JUMPDEST \t\t\thash, signature);\\n    }\\n}\\n\n      SWAP5 \t\t\thash, signature);\\n    }\\n}\\n\n      SWAP4 \t\t\thash, signature);\\n    }\\n}\\n\n      POP \t\t\thash, signature);\\n    }\\n}\\n\n      POP \t\t\thash, signature);\\n    }\\n}\\n\n      POP \t\t\thash, signature);\\n    }\\n}\\n\n      POP \t\t\thash, signature);\\n    }\\n}\\n\n      JUMP \t\t\thash, signature);\\n    }\\n}\\n\n    tag 66\t\t\tfunction isValidSignature(byte...\n      JUMPDEST \t\t\tfunction isValidSignature(byte...\n      PUSH 0\t\t\tbytes4\n      PUSH 0\t\t\tbytes4 erc7739magic\n      PUSH [tag] 215\t\t\tERC7739.isValidSignature(hash,...\n      DUP6 \t\t\thash\n      DUP6 \t\t\tsignature\n      DUP6 \t\t\tsignature\n      PUSH [tag] 216\t\t\tERC7739.isValidSignature\n      JUMP \t\t\tERC7739.isValidSignature(hash,...\n    tag 215\t\t\tERC7739.isValidSignature(hash,...\n      JUMPDEST \t\t\tERC7739.isValidSignature(hash,...\n      SWAP1 \t\t\tbytes4 erc7739magic = ERC7739....\n      POP \t\t\t\n      PUSH 1\t\t\t\n      PUSH 1\t\t\t\n      PUSH E0\t\t\t\n      SHL \t\t\t\n      SUB \t\t\t\n      NOT \t\t\t\n      DUP1 \t\t\terc7739magic == bytes4(0xfffff...\n      DUP3 \t\t\terc7739magic == bytes4(0xfffff...\n      AND \t\t\terc7739magic == bytes4(0xfffff...\n      EQ \t\t\terc7739magic == bytes4(0xfffff...\n      PUSH [tag] 217\t\t\terc7739magic == bytes4(0xfffff...\n      JUMPI \t\t\terc7739magic == bytes4(0xfffff...\n      DUP1 \t\t\terc7739magic\n      PUSH [tag] 219\t\t\terc7739magic == bytes4(0xfffff...\n      JUMP \t\t\terc7739magic == bytes4(0xfffff...\n    tag 217\t\t\terc7739magic == bytes4(0xfffff...\n      JUMPDEST \t\t\terc7739magic == bytes4(0xfffff...\n      PUSH [tag] 219\t\t\tAccountERC7579Upgradeable.isVa...\n      DUP6 \t\t\thash\n      DUP6 \t\t\tsignature\n      DUP6 \t\t\tsignature\n      PUSH [tag] 220\t\t\tAccountERC7579Upgradeable.isVa...\n      JUMP \t\t\tAccountERC7579Upgradeable.isVa...\n    tag 219\t\t\tAccountERC7579Upgradeable.isVa...\n      JUMPDEST \t\t\tAccountERC7579Upgradeable.isVa...\n      SWAP2 \t\t\treturn erc7739magic == bytes4(...\n      POP \t\t\treturn erc7739magic == bytes4(...\n      POP \t\t\treturn erc7739magic == bytes4(...\n    tag 214\t\t\tfunction isValidSignature(byte...\n      JUMPDEST \t\t\tfunction isValidSignature(byte...\n      SWAP4 \t\t\tfunction isValidSignature(byte...\n      SWAP3 \t\t\tfunction isValidSignature(byte...\n      POP \t\t\tfunction isValidSignature(byte...\n      POP \t\t\tfunction isValidSignature(byte...\n      POP \t\t\tfunction isValidSignature(byte...\n      JUMP \t\t\tfunction isValidSignature(byte...\n    tag 72\t\t\tfunction setThreshold(uint64 t...\n      JUMPDEST \t\t\tfunction setThreshold(uint64 t...\n      PUSH [tag] 222\t\t\tytes[] memory signers, u\n      PUSH [tag] 223\t\t\tytes[] memory signers,\n      JUMP \t\t\tytes[] memory signers, u\n    tag 222\t\t\tytes[] memory signers, u\n      JUMPDEST \t\t\tytes[] memory signers, u\n      PUSH [tag] 225\t\t\t_setThreshold(threshold)\n      DUP2 \t\t\tthreshold\n      PUSH [tag] 226\t\t\t_setThreshold\n      JUMP \t\t\t_setThreshold(threshold)\n    tag 225\t\t\t_setThreshold(threshold)\n      JUMPDEST \t\t\t_setThreshold(threshold)\n      POP \t\t\tfunction setThreshold(uint64 t...\n      JUMP \t\t\tfunction setThreshold(uint64 t...\n    tag 77\t\t\t  function removeSigners(bytes...\n      JUMPDEST \t\t\t  function removeSigners(bytes...\n      PUSH 0\t\t\tPointOr\n      PUSH [tag] 228\t\t\tgners, threshold);\n      PUSH [tag] 229\t\t\tgners, threshold\n      JUMP \t\t\tgners, threshold);\n    tag 228\t\t\tgners, threshold);\n      JUMPDEST \t\t\tgners, threshold);\n      PUSH 0\t\t\t   _setThreshold(thres\n      PUSH [tag] 231\t\t\td);\\n    }\\n\\n    // The follo...\n      DUP6 \t\t\t/ The \n      DUP6 \t\t\tllowing fu\n      PUSH [tag] 232\t\t\ttions are overri\n      PUSH 100\t\t\ttions are overri\n      DUP4 \t\t\ttions are overri\n      ADD \t\t\ttions are overri\n      DUP4 \t\t\t/ The \n      PUSH [tag] 233\t\t\ttions are overri\n      JUMP \t\t\ttions are overri\n    tag 232\t\t\ttions are overri\n      JUMPDEST \t\t\ttions are overri\n      PUSH [tag] 234\t\t\td);\\n    }\\n\\n    \n      JUMP \t\t\td);\\n    }\\n\\n    // The follo...\n    tag 231\t\t\td);\\n    }\\n\\n    // The follo...\n      JUMPDEST \t\t\td);\\n    }\\n\\n    // The follo...\n      SWAP1 \t\t\t   _setThreshold(threshold);\\n...\n      POP \t\t\t   _setThreshold(threshold);\\n...\n      PUSH [tag] 207\t\t\td by Solidity.\\n\\n    function...\n      DUP4 \t\t\ty.\\n\\n    function _v\n      PUSH [tag] 236\t\t\td by Solidi\n      JUMP \t\t\td by Solidity.\\n\\n    function...\n    tag 84\t\t\tgradeable.isValidSignature(has...\n      JUMPDEST \t\t\tgradeable.isValidSignature(has...\n      PUSH 0\t\t\t    }\\n\\n\n      PUSH 433709009B8330FDA32311DF1C2AFA402ED8D009\t\t\traphy/signers/draft-ERC7739.so...\n      PUSH 40\t\t\tners(bytes[] memory signers) p...\n      MLOAD \t\t\tners(bytes[] memory signers) p...\n      PUSH 1AAB3F0D\t\t\t\n      PUSH E1\t\t\t\n      SHL \t\t\t\n      DUP2 \t\t\tners(bytes[] memory signers) p...\n      MSTORE \t\t\tners(bytes[] memory signers) p...\n      ADDRESS \t\t\tubli\n      PUSH 4\t\t\tners(bytes[] memory signers) p...\n      DUP3 \t\t\tners(bytes[] memory signers) p...\n      ADD \t\t\tners(bytes[] memory signers) p...\n      MSTORE \t\t\t\n      PUSH 1\t\t\t\n      PUSH 1\t\t\t\n      PUSH C0\t\t\t\n      SHL \t\t\t\n      SUB \t\t\t\n      DUP5 \t\t\t\n      AND \t\t\t\n      PUSH 24\t\t\t\n      DUP3 \t\t\t\n      ADD \t\t\t\n      MSTORE \t\t\t\n      PUSH 1\t\t\t\n      PUSH 1\t\t\t\n      PUSH A0\t\t\t\n      SHL \t\t\t\n      SUB \t\t\t\n      SWAP2 \t\t\tners(bytes[] memory s\n      SWAP1 \t\t\tners(bytes[] memory s\n      SWAP2 \t\t\tners(bytes[] memory s\n      AND \t\t\tners(bytes[] memory s\n      SWAP1 \t\t\tners(bytes[] memory s\n      PUSH 35567E1A\t\t\tners(bytes[] memory s\n      SWAP1 \t\t\tners(bytes[] memory s\n      PUSH 44\t\t\t\n      ADD \t\t\t\n      PUSH 20\t\t\tners(bytes[] memory signers) p...\n      PUSH 40\t\t\tners(bytes[] memory signers) p...\n      MLOAD \t\t\tners(bytes[] memory signers) p...\n      DUP1 \t\t\tners(bytes[] memory signers) p...\n      DUP4 \t\t\tners(bytes[] memory signers) p...\n      SUB \t\t\tners(bytes[] memory signers) p...\n      DUP2 \t\t\tners(bytes[] memory signers) p...\n      DUP7 \t\t\tners(bytes[] memory signers) p...\n      GAS \t\t\tners(bytes[] memory signers) p...\n      STATICCALL \t\t\tners(bytes[] memory signers) p...\n      ISZERO \t\t\tners(bytes[] memory signers) p...\n      DUP1 \t\t\tners(bytes[] memory signers) p...\n      ISZERO \t\t\tners(bytes[] memory signers) p...\n      PUSH [tag] 242\t\t\tners(bytes[] memory signers) p...\n      JUMPI \t\t\tners(bytes[] memory signers) p...\n      RETURNDATASIZE \t\t\tners(bytes[] memory signers) p...\n      PUSH 0\t\t\tners(bytes[] memory signers) p...\n      PUSH 0\t\t\tners(bytes[] memory signers) p...\n      RETURNDATACOPY \t\t\tners(bytes[] memory signers) p...\n      RETURNDATASIZE \t\t\tners(bytes[] memory signers) p...\n      PUSH 0\t\t\tners(bytes[] memory signers) p...\n      REVERT \t\t\tners(bytes[] memory signers) p...\n    tag 242\t\t\tners(bytes[] memory signers) p...\n      JUMPDEST \t\t\tners(bytes[] memory signers) p...\n      POP \t\t\tners(bytes[] memory signers) p...\n      POP \t\t\tners(bytes[] memory signers) p...\n      POP \t\t\tners(bytes[] memory signers) p...\n      POP \t\t\tners(bytes[] memory signers) p...\n      PUSH 40\t\t\tners(bytes[] memory signers) p...\n      MLOAD \t\t\tners(bytes[] memory signers) p...\n      RETURNDATASIZE \t\t\tners(bytes[] memory signers) p...\n      PUSH 1F\t\t\tners(bytes[] memory signers) p...\n      NOT \t\t\tners(bytes[] memory signers) p...\n      PUSH 1F\t\t\tners(bytes[] memory signers) p...\n      DUP3 \t\t\tners(bytes[] memory signers) p...\n      ADD \t\t\tners(bytes[] memory signers) p...\n      AND \t\t\tners(bytes[] memory signers) p...\n      DUP3 \t\t\tners(bytes[] memory signers) p...\n      ADD \t\t\tners(bytes[] memory signers) p...\n      DUP1 \t\t\tners(bytes[] memory signers) p...\n      PUSH 40\t\t\tners(bytes[] memory signers) p...\n      MSTORE \t\t\tners(bytes[] memory signers) p...\n      POP \t\t\tners(bytes[] memory signers) p...\n      DUP2 \t\t\tners(bytes[] memory signers) p...\n      ADD \t\t\tners(bytes[] memory signers) p...\n      SWAP1 \t\t\tners(bytes[] memory signers) p...\n      PUSH [tag] 205\t\t\tners(bytes[] memory signers) p...\n      SWAP2 \t\t\tners(bytes[] memory signers) p...\n      SWAP1 \t\t\tners(bytes[] memory signers) p...\n      PUSH [tag] 244\t\t\tners(bytes[] memory signers) p...\n      JUMP \t\t\tners(bytes[] memory signers) p...\n    tag 95\t\t\t\n      JUMPDEST \t\t\t\n      PUSH 0\t\t\t\n      PUSH 0\t\t\t\n      MLOAD \t\t\t\n      PUSH 20\t\t\t\n      PUSH data FEF1334C9451DD1D4AD00D59BA95327D46027DCD97A396119DABEB776AFE9DEE\t\t\t\n      PUSH 0\t\t\t\n      CODECOPY \t\t\t\n      PUSH 0\t\t\t\n      MLOAD \t\t\t\n      SWAP1 \t\t\t\n      PUSH 0\t\t\t\n      MSTORE \t\t\t\n      PUSH [tag] 214\t\t\t\n      DUP2 \t\t\t\\n    function setThreshold(ui...\n      DUP5 \t\t\t\n      PUSH [tag] 251\t\t\t\n      JUMP \t\t\t\n    tag 101\t\t\tfunction removeSigners(bytes[]...\n      JUMPDEST \t\t\tfunction removeSigners(bytes[]...\n      PUSH [tag] 253\t\t\tytes[] memory signers, u\n      PUSH [tag] 223\t\t\tytes[] memory signers,\n      JUMP \t\t\tytes[] memory signers, u\n    tag 253\t\t\tytes[] memory signers, u\n      JUMPDEST \t\t\tytes[] memory signers, u\n      PUSH [tag] 225\t\t\t_removeSigners(signers)\n      DUP2 \t\t\tsigners\n      PUSH [tag] 256\t\t\t_removeSigners\n      JUMP \t\t\t_removeSigners(signers)\n    tag 104\t\t\ttract ... is AccountERC7579Upg...\n      JUMPDEST \t\t\ttract ... is AccountERC7579Upg...\n      PUSH 2B49B75317FFC1021CA7DA4CA3423BF8403E18B223E63E6BC7ABE8F39A5ED700\t\t\txffffffff (invalid) or 0x77390...\n      SLOAD \t\t\t79Upgra\n      PUSH 1\t\t\t\n      PUSH 1\t\t\t\n      PUSH A0\t\t\t\n      SHL \t\t\t\n      SUB \t\t\t\n      AND \t\t\t79Upgra\n      SWAP1 \t\t\t79Upgra\n      JUMP \t\t\ttract ... is AccountERC7579Upg...\n    tag 109\t\t\t\n      JUMPDEST \t\t\t\n      PUSH 0\t\t\t\n      PUSH 60\t\t\t\n      DUP1 \t\t\t\n      PUSH 0\t\t\t\n      PUSH 0\t\t\t\n      PUSH 0\t\t\t\n      PUSH 60\t\t\t\n      PUSH [tag] 261\t\t\t\n      PUSH [tag] 262\t\t\t\n      JUMP \t\t\t\n    tag 261\t\t\t\n      JUMPDEST \t\t\t\n      PUSH [tag] 263\t\t\t\n      PUSH [tag] 264\t\t\t\n      JUMP \t\t\t\n    tag 263\t\t\t\n      JUMPDEST \t\t\t\n      PUSH 40\t\t\t\n      DUP1 \t\t\t\n      MLOAD \t\t\t\n      PUSH 0\t\t\t\n      DUP1 \t\t\t\n      DUP3 \t\t\t\n      MSTORE \t\t\t\n      PUSH 20\t\t\t\n      DUP3 \t\t\t\n      ADD \t\t\t\n      SWAP1 \t\t\t\n      SWAP3 \t\t\t\n      MSTORE \t\t\t\n      PUSH F\t\t\t\n      PUSH F8\t\t\t\n      SHL \t\t\t\n      SWAP12 \t\t\t\n      SWAP4 \t\t\t\n      SWAP11 \t\t\t\n      POP \t\t\t\n      SWAP2 \t\t\t\n      SWAP9 \t\t\t\n      POP \t\t\t\n      CHAINID \t\t\t\n      SWAP8 \t\t\t\n      POP \t\t\t\n      ADDRESS \t\t\t\n      SWAP7 \t\t\t\n      POP \t\t\t\n      SWAP5 \t\t\t\n      POP \t\t\t\n      SWAP3 \t\t\t\n      POP \t\t\t\n      SWAP1 \t\t\t\n      POP \t\t\t\n      JUMP \t\t\t\n    tag 115\t\t\t\n      JUMPDEST \t\t\t\n      PUSH [tag] 270\t\t\tytes[] memory signers, u\n      PUSH [tag] 223\t\t\tytes[] memory signers,\n      JUMP \t\t\tytes[] memory signers, u\n    tag 270\t\t\tytes[] memory signers, u\n      JUMPDEST \t\t\tytes[] memory signers, u\n      PUSH [tag] 272\t\t\t\n      DUP5 \t\t\t\n      DUP5 \t\t\t\n      DUP5 \t\t\t\n      DUP5 \t\t\t\n      DUP1 \t\t\t\n      DUP1 \t\t\t\n      PUSH 1F\t\t\t\n      ADD \t\t\t\n      PUSH 20\t\t\t\n      DUP1 \t\t\t\n      SWAP2 \t\t\t\n      DIV \t\t\t\n      MUL \t\t\t\n      PUSH 20\t\t\t\n      ADD \t\t\t\n      PUSH 40\t\t\t\n      MLOAD \t\t\t\n      SWAP1 \t\t\t\n      DUP2 \t\t\t\n      ADD \t\t\t\n      PUSH 40\t\t\t\n      MSTORE \t\t\t\n      DUP1 \t\t\t\n      SWAP4 \t\t\t\n      SWAP3 \t\t\t\n      SWAP2 \t\t\t\n      SWAP1 \t\t\t\n      DUP2 \t\t\t\n      DUP2 \t\t\t\n      MSTORE \t\t\t\n      PUSH 20\t\t\t\n      ADD \t\t\t\n      DUP4 \t\t\t\n      DUP4 \t\t\t\n      DUP1 \t\t\t\n      DUP3 \t\t\t\n      DUP5 \t\t\t\n      CALLDATACOPY \t\t\t\n      PUSH 0\t\t\t\n      SWAP3 \t\t\t\n      ADD \t\t\t\n      SWAP2 \t\t\t\n      SWAP1 \t\t\t\n      SWAP2 \t\t\t\n      MSTORE \t\t\t\n      POP \t\t\t\n      PUSH [tag] 273\t\t\t\n      SWAP3 \t\t\t\n      POP \t\t\t\n      POP \t\t\t\n      POP \t\t\t\n      JUMP \t\t\t\n    tag 272\t\t\t\n      JUMPDEST \t\t\t\n      POP \t\t\t\n      POP \t\t\t\n      POP \t\t\t\n      POP \t\t\t\n      JUMP \t\t\t\n    tag 120\t\t\t\n      JUMPDEST \t\t\t\n      PUSH 60\t\t\t\n      PUSH 0\t\t\t\n      MLOAD \t\t\t\n      PUSH 20\t\t\t\n      PUSH data FEF1334C9451DD1D4AD00D59BA95327D46027DCD97A396119DABEB776AFE9DEE\t\t\t\n      PUSH 0\t\t\t\n      CODECOPY \t\t\t\n      PUSH 0\t\t\t\n      MLOAD \t\t\t\n      SWAP1 \t\t\t\n      PUSH 0\t\t\t\n      MSTORE \t\t\t\n      PUSH [tag] 207\t\t\t\n      DUP2 \t\t\t\\n    function setThreshold(ui...\n      PUSH 1\t\t\t\n      PUSH 1\t\t\t\n      PUSH 40\t\t\t\n      SHL \t\t\t\n      SUB \t\t\t\n      DUP7 \t\t\t\n      DUP2 \t\t\t\n      AND \t\t\t\n      SWAP1 \t\t\t\n      DUP7 \t\t\t\n      AND \t\t\t\n      PUSH [tag] 277\t\t\t\n      JUMP \t\t\t\n    tag 126\t\t\tfunction addSigners(bytes[] me...\n      JUMPDEST \t\t\tfunction addSigners(bytes[] me...\n      PUSH [tag] 279\t\t\tytes[] memory signers, u\n      PUSH [tag] 223\t\t\tytes[] memory signers,\n      JUMP \t\t\tytes[] memory signers, u\n    tag 279\t\t\tytes[] memory signers, u\n      JUMPDEST \t\t\tytes[] memory signers, u\n      PUSH [tag] 225\t\t\t_addSigners(signers)\n      DUP2 \t\t\tsigners\n      PUSH [tag] 282\t\t\t_addSigners\n      JUMP \t\t\t_addSigners(signers)\n    tag 129\t\t\tt, AccountERC7579Upgradeable)\\...\n      JUMPDEST \t\t\tt, AccountERC7579Upgradeable)\\...\n      PUSH 60\t\t\t {\\n        re\n      PUSH 40\t\t\ture);\\n    }\\n\\n    // IMPORTA...\n      MLOAD \t\t\ture);\\n    }\\n\\n    // IMPORTA...\n      DUP1 \t\t\ture);\\n    }\\n\\n    // IMPORTA...\n      PUSH 60\t\t\ture);\\n    }\\n\\n    // IMPORTA...\n      ADD \t\t\ture);\\n    }\\n\\n    // IMPORTA...\n      PUSH 40\t\t\ture);\\n    }\\n\\n    // IMPORTA...\n      MSTORE \t\t\ture);\\n    }\\n\\n    // IMPORTA...\n      DUP1 \t\t\ture);\\n    }\\n\\n    // IMPORTA...\n      PUSH 33\t\t\ture);\\n    }\\n\\n    // IMPORTA...\n      DUP2 \t\t\ture);\\n    }\\n\\n    // IMPORTA...\n      MSTORE \t\t\ture);\\n    }\\n\\n    // IMPORTA...\n      PUSH 20\t\t\ture);\\n    }\\n\\n    // IMPORTA...\n      ADD \t\t\ture);\\n    }\\n\\n    // IMPORTA...\n      PUSH data 958E26256C862D92BEDA161BA143A3BDE69BABAD11E74B0A093F1D1D5E7F832F\t\t\ture);\\n    }\\n\\n    // IMPORTA...\n      PUSH 33\t\t\ture);\\n    }\\n\\n    // IMPORTA...\n      SWAP2 \t\t\ture);\\n    }\\n\\n    // IMPORTA...\n      CODECOPY \t\t\ture);\\n    }\\n\\n    // IMPORTA...\n      SWAP1 \t\t\ture);\\n    }\\n\\n    // IMPORTA...\n      POP \t\t\ture);\\n    }\\n\\n    // IMPORTA...\n      SWAP1 \t\t\tt, AccountERC7579Upgradeable)\\...\n      JUMP \t\t\tt, AccountERC7579Upgradeable)\\...\n    tag 136\t\t\tfunction initialize(bytes[] me...\n      JUMPDEST \t\t\tfunction initialize(bytes[] me...\n      PUSH 0\t\t\t\n      PUSH [tag] 285\t\t\t\n      PUSH [tag] 286\t\t\t\n      JUMP \t\t\t\n    tag 285\t\t\t\n      JUMPDEST \t\t\t\n      DUP1 \t\t\t\n      SLOAD \t\t\t\n      SWAP1 \t\t\t\n      SWAP2 \t\t\t\n      POP \t\t\t\n      PUSH FF\t\t\t\n      PUSH 1\t\t\t\n      PUSH 40\t\t\t\n      SHL \t\t\t\n      DUP3 \t\t\t\n      DIV \t\t\t\n      AND \t\t\t\n      ISZERO \t\t\t\n      SWAP1 \t\t\t\n      PUSH 1\t\t\t\n      PUSH 1\t\t\t\n      PUSH 40\t\t\t\n      SHL \t\t\t\n      SUB \t\t\t\n      AND \t\t\t\n      PUSH 0\t\t\t\n      DUP2 \t\t\t\n      ISZERO \t\t\t\n      DUP1 \t\t\t\n      ISZERO \t\t\t\n      PUSH [tag] 287\t\t\t\n      JUMPI \t\t\t\n      POP \t\t\t\n      DUP3 \t\t\t\n    tag 287\t\t\t\n      JUMPDEST \t\t\t\n      SWAP1 \t\t\t\n      POP \t\t\t\n      PUSH 0\t\t\t\n      DUP3 \t\t\t\n      PUSH 1\t\t\t\n      PUSH 1\t\t\t\n      PUSH 40\t\t\t\n      SHL \t\t\t\n      SUB \t\t\t\n      AND \t\t\t\n      PUSH 1\t\t\t\n      EQ \t\t\t\n      DUP1 \t\t\t\n      ISZERO \t\t\t\n      PUSH [tag] 288\t\t\t\n      JUMPI \t\t\t\n      POP \t\t\t\n      ADDRESS \t\t\t\n      EXTCODESIZE \t\t\t\n      ISZERO \t\t\t\n    tag 288\t\t\t\n      JUMPDEST \t\t\t\n      SWAP1 \t\t\t\n      POP \t\t\t\n      DUP2 \t\t\t\n      ISZERO \t\t\t\n      DUP1 \t\t\t\n      ISZERO \t\t\t\n      PUSH [tag] 289\t\t\t\n      JUMPI \t\t\t\n      POP \t\t\t\n      DUP1 \t\t\t\n      ISZERO \t\t\t\n    tag 289\t\t\t\n      JUMPDEST \t\t\t\n      ISZERO \t\t\t\n      PUSH [tag] 290\t\t\t\n      JUMPI \t\t\t\n      PUSH 40\t\t\t\n      MLOAD \t\t\t\n      PUSH F92EE8A9\t\t\t\n      PUSH E0\t\t\t\n      SHL \t\t\t\n      DUP2 \t\t\t\n      MSTORE \t\t\t\n      PUSH 4\t\t\t\n      ADD \t\t\t\n      PUSH 40\t\t\t\n      MLOAD \t\t\t\n      DUP1 \t\t\t\n      SWAP2 \t\t\t\n      SUB \t\t\t\n      SWAP1 \t\t\t\n      REVERT \t\t\t\n    tag 290\t\t\t\n      JUMPDEST \t\t\t\n      DUP5 \t\t\t\n      SLOAD \t\t\t\n      PUSH FFFFFFFFFFFFFFFF\t\t\t\n      NOT \t\t\t\n      AND \t\t\t\n      PUSH 1\t\t\t\n      OR \t\t\t\n      DUP6 \t\t\t\n      SSTORE \t\t\t\n      DUP4 \t\t\t\n      ISZERO \t\t\t\n      PUSH [tag] 291\t\t\t\n      JUMPI \t\t\t\n      DUP5 \t\t\t\n      SLOAD \t\t\t\n      PUSH FF\t\t\t\n      PUSH 40\t\t\t\n      SHL \t\t\t\n      NOT \t\t\t\n      AND \t\t\t\n      PUSH 1\t\t\t\n      PUSH 40\t\t\t\n      SHL \t\t\t\n      OR \t\t\t\n      DUP6 \t\t\t\n      SSTORE \t\t\t\n    tag 291\t\t\t\n      JUMPDEST \t\t\t\n      PUSH [tag] 293\t\t\t__AccountERC7579Hooked_init()\n      PUSH [tag] 294\t\t\t__AccountERC7579Hooked_init\n      JUMP \t\t\t__AccountERC7579Hooked_init()\n    tag 293\t\t\t__AccountERC7579Hooked_init()\n      JUMPDEST \t\t\t__AccountERC7579Hooked_init()\n      PUSH [tag] 295\t\t\t__MultiSignerERC7913_init(sign...\n      DUP8 \t\t\tsigners\n      DUP8 \t\t\tthreshold\n      PUSH [tag] 296\t\t\t__MultiSignerERC7913_init\n      JUMP \t\t\t__MultiSignerERC7913_init(sign...\n    tag 295\t\t\t__MultiSignerERC7913_init(sign...\n      JUMPDEST \t\t\t__MultiSignerERC7913_init(sign...\n      DUP4 \t\t\t\n      ISZERO \t\t\t\n      PUSH [tag] 297\t\t\t\n      JUMPI \t\t\t\n      DUP5 \t\t\t\n      SLOAD \t\t\t\n      PUSH FF\t\t\t\n      PUSH 40\t\t\t\n      SHL \t\t\t\n      NOT \t\t\t\n      AND \t\t\t\n      DUP6 \t\t\t\n      SSTORE \t\t\t\n      PUSH 40\t\t\t\n      MLOAD \t\t\t\n      PUSH 1\t\t\t\n      DUP2 \t\t\t\n      MSTORE \t\t\t\n      PUSH C7F505B2F371AE2175EE4913F4499E1F2633A7B5936321EED1CDAEB6115181D2\t\t\t\n      SWAP1 \t\t\t\n      PUSH 20\t\t\t\n      ADD \t\t\t\n      PUSH 40\t\t\t\n      MLOAD \t\t\t\n      DUP1 \t\t\t\n      SWAP2 \t\t\t\n      SUB \t\t\t\n      SWAP1 \t\t\t\n      LOG1 \t\t\t\n    tag 297\t\t\t\n      JUMPDEST \t\t\t\n      POP \t\t\t\n      POP \t\t\t\n      POP \t\t\t\n      POP \t\t\t\n      POP \t\t\t\n      POP \t\t\tfunction initialize(bytes[] me...\n      POP \t\t\tfunction initialize(bytes[] me...\n      JUMP \t\t\tfunction initialize(bytes[] me...\n    tag 140\t\t\t\n      JUMPDEST \t\t\t\n      PUSH [tag] 301\t\t\tytes[] memory signers, u\n      PUSH [tag] 223\t\t\tytes[] memory signers,\n      JUMP \t\t\tytes[] memory signers, u\n    tag 301\t\t\tytes[] memory signers, u\n      JUMPDEST \t\t\tytes[] memory signers, u\n      PUSH [tag] 272\t\t\t\n      DUP5 \t\t\t\n      DUP5 \t\t\t\n      DUP5 \t\t\t\n      DUP5 \t\t\t\n      DUP1 \t\t\t\n      DUP1 \t\t\t\n      PUSH 1F\t\t\t\n      ADD \t\t\t\n      PUSH 20\t\t\t\n      DUP1 \t\t\t\n      SWAP2 \t\t\t\n      DIV \t\t\t\n      MUL \t\t\t\n      PUSH 20\t\t\t\n      ADD \t\t\t\n      PUSH 40\t\t\t\n      MLOAD \t\t\t\n      SWAP1 \t\t\t\n      DUP2 \t\t\t\n      ADD \t\t\t\n      PUSH 40\t\t\t\n      MSTORE \t\t\t\n      DUP1 \t\t\t\n      SWAP4 \t\t\t\n      SWAP3 \t\t\t\n      SWAP2 \t\t\t\n      SWAP1 \t\t\t\n      DUP2 \t\t\t\n      DUP2 \t\t\t\n      MSTORE \t\t\t\n      PUSH 20\t\t\t\n      ADD \t\t\t\n      DUP4 \t\t\t\n      DUP4 \t\t\t\n      DUP1 \t\t\t\n      DUP3 \t\t\t\n      DUP5 \t\t\t\n      CALLDATACOPY \t\t\t\n      PUSH 0\t\t\t\n      SWAP3 \t\t\t\n      ADD \t\t\t\n      SWAP2 \t\t\t\n      SWAP1 \t\t\t\n      SWAP2 \t\t\t\n      MSTORE \t\t\t\n      POP \t\t\t\n      PUSH [tag] 304\t\t\t\n      SWAP3 \t\t\t\n      POP \t\t\t\n      POP \t\t\t\n      POP \t\t\t\n      JUMP \t\t\t\n    tag 148\t\t\t\n      JUMPDEST \t\t\t\n      PUSH 0\t\t\t\n      MLOAD \t\t\t\n      PUSH 20\t\t\t\n      PUSH data FEF1334C9451DD1D4AD00D59BA95327D46027DCD97A396119DABEB776AFE9DEE\t\t\t\n      PUSH 0\t\t\t\n      CODECOPY \t\t\t\n      PUSH 0\t\t\t\n      MLOAD \t\t\t\n      SWAP1 \t\t\t\n      PUSH 0\t\t\t\n      MSTORE \t\t\t\n      DUP1 \t\t\t\n      SLOAD \t\t\t\n      PUSH 0\t\t\t\n      SWAP2 \t\t\t\n      SWAP1 \t\t\t\\n    function setThreshold(ui...\n    tag 308\t\t\t\n      JUMPDEST \t\t\t\n      SWAP2 \t\t\t\n      POP \t\t\t\n      POP \t\t\t\n      SWAP1 \t\t\t\n      JUMP \t\t\t\n    tag 160\t\t\t\n      JUMPDEST \t\t\t\n      PUSH 0\t\t\t\n      PUSH 0\t\t\t\n      PUSH 0\t\t\t\n      PUSH [tag] 312\t\t\t\n      DUP5 \t\t\t\n      PUSH [tag] 313\t\t\t\n      JUMP \t\t\t\n    tag 312\t\t\t\n      JUMPDEST \t\t\t\n      POP \t\t\t\n      POP \t\t\t\n      SWAP2 \t\t\t\n      POP \t\t\t\n      SWAP2 \t\t\t\n      POP \t\t\t\n      PUSH [tag] 314\t\t\t\n      DUP3 \t\t\t\n      PUSH 0\t\t\titia\n      PUSH F8\t\t\tproxy/utils/Initial\n      SHL \t\t\tproxy/utils/Initial\n      PUSH [tag] 315\t\t\t\n      JUMP \t\t\t\n    tag 314\t\t\t\n      JUMPDEST \t\t\t\n      DUP1 \t\t\t\n      PUSH [tag] 317\t\t\t\n      JUMPI \t\t\t\n      POP \t\t\t\n      PUSH [tag] 317\t\t\t\n      DUP3 \t\t\t\n      PUSH 1\t\t\t\n      PUSH F8\t\t\t\n      SHL \t\t\t\n      PUSH [tag] 315\t\t\t\n      JUMP \t\t\t\n    tag 317\t\t\t\n      JUMPDEST \t\t\t\n      DUP1 \t\t\t\n      PUSH [tag] 319\t\t\t\n      JUMPI \t\t\t\n      POP \t\t\t\n      PUSH [tag] 319\t\t\t\n      DUP3 \t\t\t\n      PUSH 1\t\t\t\n      PUSH 1\t\t\t\n      PUSH F8\t\t\t\n      SHL \t\t\t\n      SUB \t\t\t\n      NOT \t\t\t\n      PUSH [tag] 315\t\t\t\n      JUMP \t\t\t\n    tag 319\t\t\t\n      JUMPDEST \t\t\t\n      DUP1 \t\t\t\n      ISZERO \t\t\t\n      PUSH [tag] 207\t\t\t\n      JUMPI \t\t\t\n      POP \t\t\t\n      PUSH [tag] 321\t\t\t\n      DUP2 \t\t\t\n      PUSH 0\t\t\tract\n      PUSH [tag] 315\t\t\t\n      JUMP \t\t\t\n    tag 321\t\t\t\n      JUMPDEST \t\t\t\n      DUP1 \t\t\t\n      PUSH [tag] 207\t\t\t\n      JUMPI \t\t\t\n      POP \t\t\t\n      PUSH [tag] 207\t\t\t\n      DUP2 \t\t\t\n      PUSH 1\t\t\t\n      PUSH F8\t\t\t\n      SHL \t\t\t\n      PUSH [tag] 315\t\t\t\n      JUMP \t\t\t\n    tag 164\t\t\tffff, fallback to ERC-7579 val...\n      JUMPDEST \t\t\tffff, fallback to ERC-7579 val...\n      PUSH 0\t\t\ttes4 er\n      PUSH [tag] 326\t\t\t9.isValidSi\n      PUSH 0\t\t\tS\n      PUSH [tag] 84\t\t\t9.isVali\n      JUMP \t\t\t9.isValidSi\n    tag 326\t\t\t9.isValidSi\n      JUMPDEST \t\t\t9.isValidSi\n      SWAP1 \t\t\t ERC7739.isValidSi\n      POP \t\t\t ERC7739.isValidSi\n      SWAP1 \t\t\tffff, fallback to ERC-7579 val...\n      JUMP \t\t\tffff, fallback to ERC-7579 val...\n    tag 168\t\t\t\n      JUMPDEST \t\t\t\n      PUSH 60\t\t\t\n      PUSH 2\t\t\tR\n      PUSH 0\t\t\ts-upgradeable/account\n      DUP1 \t\t\ts-upgradeable/account\n      PUSH [tag] 330\t\t\t\n      DUP4 \t\t\t\n      CALLER \t\t\t\n      DUP5 \t\t\t\n      DUP5 \t\t\t\n      PUSH [tag] 331\t\t\t\n      JUMP \t\t\t\n    tag 330\t\t\t\n      JUMPDEST \t\t\t\n      PUSH [tag] 333\t\t\t\n      DUP8 \t\t\t\n      DUP8 \t\t\t\n      DUP8 \t\t\t\n      PUSH [tag] 334\t\t\t\n      JUMP \t\t\t\n    tag 333\t\t\t\n      JUMPDEST \t\t\t\n      SWAP4 \t\t\t\n      POP \t\t\t\n    tag 332\t\t\t\n      JUMPDEST \t\t\t\n      POP \t\t\t\n      POP \t\t\t\n      POP \t\t\t\n      SWAP4 \t\t\t\n      SWAP3 \t\t\t\n      POP \t\t\t\n      POP \t\t\t\n      POP \t\t\t\n      JUMP \t\t\t\n    tag 172\t\t\t\n      JUMPDEST \t\t\t\n      PUSH [tag] 336\t\t\tytes[] memory signers, u\n      PUSH [tag] 223\t\t\tytes[] memory signers,\n      JUMP \t\t\tytes[] memory signers, u\n    tag 336\t\t\tytes[] memory signers, u\n      JUMPDEST \t\t\tytes[] memory signers, u\n      PUSH [tag] 272\t\t\t\n      DUP4 \t\t\t\n      DUP4 \t\t\t\n      DUP4 \t\t\t\n      PUSH [tag] 334\t\t\t\n      JUMP \t\t\t\n    tag 183\t\t\t(bytes32 hash, bytes calldata ...\n      JUMPDEST \t\t\t(bytes32 hash, bytes calldata ...\n      PUSH 0\t\t\tide(\n      PUSH 4\t\t\t/\n      DUP3 \t\t\tpgradeable, \n      EQ \t\t\tpgradeable, AbstractSigner, Ac...\n      DUP1 \t\t\tpgradeable, AbstractSigner, Ac...\n      PUSH [tag] 205\t\t\tpgradeable, AbstractSigner, Ac...\n      JUMPI \t\t\tpgradeable, AbstractSigner, Ac...\n      POP \t\t\tpgradeable, AbstractSigner, Ac...\n      PUSH [tag] 205\t\t\tRC7579Upgradeable)\\n        re...\n      DUP3 \t\t\t      return\n      PUSH [tag] 343\t\t\tRC7579Upgradeable)\\n \n      JUMP \t\t\tRC7579Upgradeable)\\n        re...\n    tag 196\t\t\t\n      JUMPDEST \t\t\t\n      PUSH 60\t\t\t\n      PUSH 0\t\t\t\n      PUSH [tag] 345\t\t\t\n      PUSH 0\t\t\t\n      CALLDATALOAD \t\t\t\n      PUSH 1\t\t\t\n      PUSH 1\t\t\t\n      PUSH E0\t\t\t\n      SHL \t\t\t\n      SUB \t\t\t\n      NOT \t\t\t\n      AND \t\t\t\n      PUSH [tag] 346\t\t\t\n      JUMP \t\t\t\n    tag 345\t\t\t\n      JUMPDEST \t\t\t\n      SWAP1 \t\t\t\n      POP \t\t\t\n      PUSH 1\t\t\t\n      PUSH 1\t\t\t\n      PUSH E0\t\t\t\n      SHL \t\t\t\n      SUB \t\t\t\n      NOT \t\t\t\n      PUSH 0\t\t\t\n      CALLDATALOAD \t\t\t\n      AND \t\t\t\n      PUSH 1\t\t\t\n      PUSH 1\t\t\t\n      PUSH A0\t\t\t\n      SHL \t\t\t\n      SUB \t\t\t\n      DUP3 \t\t\t\n      AND \t\t\t\n      PUSH [tag] 347\t\t\t\n      JUMPI \t\t\t\n      PUSH 40\t\t\t\n      MLOAD \t\t\t\n      PUSH AF5A7203\t\t\t\n      PUSH E0\t\t\t\n      SHL \t\t\t\n      DUP2 \t\t\t\n      MSTORE \t\t\t\n      PUSH 1\t\t\t\n      PUSH 1\t\t\t\n      PUSH E0\t\t\t\n      SHL \t\t\t\n      SUB \t\t\t\n      NOT \t\t\t\n      SWAP1 \t\t\tultiSignerERC7913Upgradeable, ...\n      SWAP2 \t\t\tultiSignerERC7913Upgradeable, ...\n      AND \t\t\tultiSignerERC7913Upgradeable, ...\n      PUSH 4\t\t\t\n      DUP3 \t\t\t\n      ADD \t\t\t\n      MSTORE \t\t\t        override(MultiSignerER...\n      PUSH 24\t\t\t     internal\\n    \n      ADD \t\t\t     internal\\n    \n    tag 348\t\t\t\n      JUMPDEST \t\t\t\n      PUSH 40\t\t\t\n      MLOAD \t\t\t\n      DUP1 \t\t\t\n      SWAP2 \t\t\t\n      SUB \t\t\t\n      SWAP1 \t\t\t\n      REVERT \t\t\t\n    tag 347\t\t\t\n      JUMPDEST \t\t\t\n      POP \t\t\t\n      PUSH [tag] 349\t\t\t\n      DUP2 \t\t\t\n      CALLVALUE \t\t\t\n      PUSH 0\t\t\t\n      CALLDATASIZE \t\t\t\n      CALLER \t\t\t\n      PUSH 40\t\t\t\n      MLOAD \t\t\t\n      PUSH 20\t\t\t\n      ADD \t\t\t\n      PUSH [tag] 350\t\t\t\n      SWAP4 \t\t\t\n      SWAP3 \t\t\t\n      SWAP2 \t\t\t\n      SWAP1 \t\t\t\n      PUSH [tag] 351\t\t\t\n      JUMP \t\t\t\n    tag 350\t\t\t\n      JUMPDEST \t\t\t\n      PUSH 40\t\t\t\n      MLOAD \t\t\t\n      PUSH 20\t\t\t\n      DUP2 \t\t\t\n      DUP4 \t\t\t\n      SUB \t\t\t\n      SUB \t\t\t\n      DUP2 \t\t\t\n      MSTORE \t\t\t\n      SWAP1 \t\t\t\n      PUSH 40\t\t\t\n      MSTORE \t\t\t\n      PUSH [tag] 352\t\t\t\n      JUMP \t\t\t\n    tag 349\t\t\t\n      JUMPDEST \t\t\t\n      ISZERO \t\t\t\n      PUSH [tag] 353\t\t\t\n      JUMPI \t\t\t\n      PUSH [tag] 308\t\t\t\n      PUSH [tag] 355\t\t\t\n      JUMP \t\t\t\n    tag 353\t\t\t\n      JUMPDEST \t\t\t\n      PUSH [tag] 357\t\t\t\n      PUSH [tag] 358\t\t\t\n      JUMP \t\t\t\n    tag 357\t\t\t\n      JUMPDEST \t\t\t\n      POP \t\t\t\n      SWAP1 \t\t\t\n      JUMP \t\t\t\n    tag 212\t\t\t\n      JUMPDEST \t\t\t\n      PUSH 0\t\t\t\n      PUSH A47D913D72B2639F4CA1C145CC07DDF7170B73B257C8E0D4FCED7CC8E3E3900\t\t\t\n      PUSH 0\t\t\t\n      NOT \t\t\t\n      DUP7 \t\t\t\n      ADD \t\t\t\n      PUSH [tag] 363\t\t\t\n      JUMPI \t\t\t\n      PUSH [tag] 364\t\t\t\n      DUP2 \t\t\t\n      DUP7 \t\t\t\n      PUSH [tag] 365\t\t\t\n      JUMP \t\t\t\n    tag 364\t\t\t\n      JUMPDEST \t\t\t\n      SWAP2 \t\t\t\n      POP \t\t\t\n      POP \t\t\t\n      PUSH [tag] 207\t\t\t\n      JUMP \t\t\t\n    tag 363\t\t\t\n      JUMPDEST \t\t\t\n      PUSH 2\t\t\tR\n      DUP7 \t\t\t\n      SUB \t\t\t\n      PUSH [tag] 366\t\t\t\n      JUMPI \t\t\t\n      PUSH [tag] 364\t\t\t\n      PUSH 2\t\t\t\n      DUP3 \t\t\t\n      ADD \t\t\t\n      DUP7 \t\t\t\n      PUSH [tag] 365\t\t\t\n      JUMP \t\t\t\n    tag 366\t\t\t\n      JUMPDEST \t\t\t\n      PUSH 3\t\t\tE\n      DUP7 \t\t\t\n      SUB \t\t\t\n      PUSH [tag] 368\t\t\t\n      JUMPI \t\t\t\n      PUSH 3\t\t\t\n      DUP4 \t\t\t\n      GT \t\t\t\n      DUP1 \t\t\t\n      ISZERO \t\t\t\n      PUSH [tag] 364\t\t\t\n      JUMPI \t\t\t\n      POP \t\t\t\n      PUSH 1\t\t\t\n      PUSH 1\t\t\t\n      PUSH A0\t\t\t\n      SHL \t\t\t\n      SUB \t\t\t\n      DUP6 \t\t\t\n      AND \t\t\t\n      PUSH 4\t\t\t\n      DUP1 \t\t\t\n      DUP4 \t\t\t\n      ADD \t\t\t\n      SWAP1 \t\t\t\n      PUSH 0\t\t\t\n      SWAP1 \t\t\t\n      PUSH [tag] 370\t\t\t\n      SWAP1 \t\t\t\n      DUP3 \t\t\t\n      DUP9 \t\t\t\n      DUP11 \t\t\t\n      PUSH [tag] 371\t\t\t\n      JUMP \t\t\t\n    tag 370\t\t\t\n      JUMPDEST \t\t\t\n      PUSH [tag] 372\t\t\t\n      SWAP2 \t\t\t\n      PUSH [tag] 373\t\t\t\n      JUMP \t\t\t\n    tag 372\t\t\t\n      JUMPDEST \t\t\t\n      PUSH 1\t\t\t\n      PUSH 1\t\t\t\n      PUSH E0\t\t\t\n      SHL \t\t\t\n      SUB \t\t\t\n      NOT \t\t\t\n      AND \t\t\t\n      DUP2 \t\t\t\n      MSTORE \t\t\t\n      PUSH 20\t\t\t\n      DUP2 \t\t\t\n      ADD \t\t\t\n      SWAP2 \t\t\t\n      SWAP1 \t\t\t\n      SWAP2 \t\t\t\n      MSTORE \t\t\t\n      PUSH 40\t\t\t\n      ADD \t\t\t\n      PUSH 0\t\t\t\n      KECCAK256 \t\t\t\n      SLOAD \t\t\t\n      PUSH 1\t\t\t\n      PUSH 1\t\t\t\n      PUSH A0\t\t\t\n      SHL \t\t\t\n      SUB \t\t\t\n      AND \t\t\t\n      EQ \t\t\t\n      SWAP2 \t\t\t\n      POP \t\t\t\n      POP \t\t\t\n      PUSH [tag] 207\t\t\t\n      JUMP \t\t\t\n    tag 368\t\t\t\n      JUMPDEST \t\t\t\n      POP \t\t\t\n      PUSH 0\t\t\t\n      SWAP6 \t\t\t\n      SWAP5 \t\t\t\n      POP \t\t\t\n      POP \t\t\t\n      POP \t\t\t\n      POP \t\t\t\n      POP \t\t\t\n      JUMP \t\t\t\n    tag 216\t\t\t }\\n\\n    function isValidSign...\n      JUMPDEST \t\t\t }\\n\\n    function isValidSign...\n      PUSH 0\t\t\t  view\\n      \n      PUSH [tag] 375\t\t\tfffff) ? AccountERC7579Upgrade...\n      DUP5 \t\t\te.is\n      DUP5 \t\t\tlidSignat\n      DUP5 \t\t\tlidSignat\n      PUSH [tag] 376\t\t\tfffff) ? AccountERC7579Upgrade...\n      JUMP \t\t\tfffff) ? AccountERC7579Upgrade...\n    tag 375\t\t\tfffff) ? AccountERC7579Upgrade...\n      JUMPDEST \t\t\tfffff) ? AccountERC7579Upgrade...\n      DUP1 \t\t\tfffff) ? AccountERC7579Upgrade...\n      PUSH [tag] 378\t\t\tfffff) ? AccountERC7579Upgrade...\n      JUMPI \t\t\tfffff) ? AccountERC7579Upgrade...\n      POP \t\t\tfffff) ? AccountERC7579Upgrade...\n      PUSH [tag] 378\t\t\tash, signature) : erc7739magic...\n      DUP5 \t\t\t}\\n\\n \n      DUP5 \t\t\t function\n      DUP5 \t\t\t function\n      PUSH [tag] 379\t\t\tash, signature) : erc7739magic...\n      JUMP \t\t\tash, signature) : erc7739magic...\n    tag 378\t\t\tash, signature) : erc7739magic...\n      JUMPDEST \t\t\tash, signature) : erc7739magic...\n      PUSH [tag] 380\t\t\tffffff) ? AccountERC7579Upgrad...\n      JUMPI \t\t\tffffff) ? AccountERC7579Upgrad...\n      PUSH 7739773977397739773977397739773977397739773977397739773977397739\t\t\trs(signers);\\n    }\\n\\n    fun...\n      DUP5 \t\t\taddSigners(signers);\\n    }\\n\\...\n      EQ \t\t\taddSigners(signers);\\n    }\\n\\...\n      DUP1 \t\t\taddSigners(signers);\\n    }\\n\\...\n      ISZERO \t\t\taddSigners(signers);\\n    }\\n\\...\n      PUSH [tag] 381\t\t\taddSigners(signers);\\n    }\\n\\...\n      JUMPI \t\t\taddSigners(signers);\\n    }\\n\\...\n      POP \t\t\t\n      DUP2 \t\t\t public onlyEntryPoin\n      ISZERO \t\t\t public onlyEntryPoin\n    tag 381\t\t\taddSigners(signers);\\n    }\\n\\...\n      JUMPDEST \t\t\taddSigners(signers);\\n    }\\n\\...\n      PUSH [tag] 382\t\t\t_addSigners(signers);\\n    }\\n...\n      JUMPI \t\t\t_addSigners(signers);\\n    }\\n...\n      PUSH 1\t\t\t\n      PUSH 1\t\t\t\n      PUSH E0\t\t\t\n      SHL \t\t\t\n      SUB \t\t\t\n      NOT \t\t\t\n      PUSH [tag] 207\t\t\tffffff) ? AccountERC7579Upgrad...\n      JUMP \t\t\tffffff) ? AccountERC7579Upgrad...\n    tag 382\t\t\t_addSigners(signers);\\n    }\\n...\n      JUMPDEST \t\t\t_addSigners(signers);\\n    }\\n...\n      PUSH 77390001\t\t\t\n      PUSH E0\t\t\t\n      SHL \t\t\t\n      PUSH [tag] 207\t\t\tffffff) ? AccountERC7579Upgrad...\n      JUMP \t\t\tffffff) ? AccountERC7579Upgrad...\n    tag 380\t\t\tffffff) ? AccountERC7579Upgrad...\n      JUMPDEST \t\t\tffffff) ? AccountERC7579Upgrad...\n      PUSH B135D3F\t\t\t\n      PUSH E1\t\t\t\n      SHL \t\t\t\n      SWAP5 \t\t\tagic == bytes4(0xffffffff) ? A...\n      SWAP4 \t\t\t }\\n\\n    function isValidSign...\n      POP \t\t\t\n      POP \t\t\t\n      POP \t\t\t\n      POP \t\t\t\n      JUMP \t\t\t }\\n\\n    function isValidSign...\n    tag 220\t\t\t\n      JUMPDEST \t\t\t\n      PUSH 0\t\t\t\n      PUSH 14\t\t\t\n      DUP3 \t\t\t\n      LT \t\t\t\n      PUSH [tag] 386\t\t\t\n      JUMPI \t\t\t\n      PUSH 0\t\t\t\n      CALLDATASIZE \t\t\t\n      PUSH 0\t\t\t\n      PUSH [tag] 387\t\t\t\n      DUP7 \t\t\t\n      DUP7 \t\t\t\n      PUSH [tag] 388\t\t\t\n      JUMP \t\t\t\n    tag 387\t\t\t\n      JUMPDEST \t\t\t\n      SWAP2 \t\t\t\n      SWAP5 \t\t\t\n      POP \t\t\t\n      SWAP3 \t\t\t\n      POP \t\t\t\n      SWAP1 \t\t\t\n      POP \t\t\t\n      PUSH [tag] 389\t\t\t\n      PUSH 1\t\t\tg\n      DUP5 \t\t\t\n      PUSH 0\t\t\ts-upgradeable/account\n      DUP1 \t\t\ts-upgradeable/account\n      PUSH [tag] 53\t\t\thash, signature);\\n    }\\n}\\n\n      JUMP \t\t\thash, signature);\\n    }\\n}\\n\n    tag 389\t\t\t\n      JUMPDEST \t\t\t\n      ISZERO \t\t\t\n      PUSH [tag] 401\t\t\t\n      JUMPI \t\t\t\n      PUSH 40\t\t\t\n      MLOAD \t\t\t\n      PUSH 7AA8F177\t\t\t\n      PUSH E1\t\t\t\n      SHL \t\t\t\n      DUP2 \t\t\t\n      MSTORE \t\t\t\n      PUSH 1\t\t\t\n      PUSH 1\t\t\t\n      PUSH A0\t\t\t\n      SHL \t\t\t\n      SUB \t\t\t\n      DUP5 \t\t\t\n      AND \t\t\t\n      SWAP1 \t\t\t\n      PUSH F551E2EE\t\t\t\n      SWAP1 \t\t\t\n      PUSH [tag] 392\t\t\t\n      SWAP1 \t\t\t\n      CALLER \t\t\t\n      SWAP1 \t\t\t\n      DUP12 \t\t\t\n      SWAP1 \t\t\t\n      DUP8 \t\t\t\n      SWAP1 \t\t\t\n      DUP8 \t\t\t\n      SWAP1 \t\t\t\n      PUSH 4\t\t\t\n      ADD \t\t\t\n      PUSH [tag] 189\t\t\t\n      JUMP \t\t\t\n    tag 392\t\t\t\n      JUMPDEST \t\t\t\n      PUSH 20\t\t\t\n      PUSH 40\t\t\t\n      MLOAD \t\t\t\n      DUP1 \t\t\t\n      DUP4 \t\t\t\n      SUB \t\t\t\n      DUP2 \t\t\t\n      DUP7 \t\t\t\n      GAS \t\t\t\n      STATICCALL \t\t\t\n      SWAP3 \t\t\t\n      POP \t\t\t\n      POP \t\t\t\n      POP \t\t\t\n      DUP1 \t\t\t\n      ISZERO \t\t\t\n      PUSH [tag] 394\t\t\t\n      JUMPI \t\t\t\n      POP \t\t\t\n      PUSH 40\t\t\t\n      DUP1 \t\t\t\n      MLOAD \t\t\t\n      PUSH 1F\t\t\t\n      RETURNDATASIZE \t\t\t\n      SWAP1 \t\t\t\n      DUP2 \t\t\t\n      ADD \t\t\t\n      PUSH 1F\t\t\t\n      NOT \t\t\t\n      AND \t\t\t\n      DUP3 \t\t\t\n      ADD \t\t\t\n      SWAP1 \t\t\t\n      SWAP3 \t\t\t\n      MSTORE \t\t\t\n      PUSH [tag] 395\t\t\t\n      SWAP2 \t\t\t\n      DUP2 \t\t\t\n      ADD \t\t\t\n      SWAP1 \t\t\t\n      PUSH [tag] 396\t\t\t\n      JUMP \t\t\t\n    tag 395\t\t\t\n      JUMPDEST \t\t\t\n      PUSH 1\t\t\t\n    tag 394\t\t\t\n      JUMPDEST \t\t\t\n      ISZERO \t\t\t\n      PUSH [tag] 401\t\t\t\n      JUMPI \t\t\t\n      SWAP4 \t\t\t\n      POP \t\t\t\n      PUSH [tag] 214\t\t\t\n      SWAP3 \t\t\t\n      POP \t\t\t\n      POP \t\t\t\n      POP \t\t\t\n      JUMP \t\t\t\n    tag 401\t\t\t\n      JUMPDEST \t\t\t\n      POP \t\t\t\n      POP \t\t\t\n      POP \t\t\t\n    tag 386\t\t\t\n      JUMPDEST \t\t\t\n      POP \t\t\t\n      PUSH 1\t\t\t\n      PUSH 1\t\t\t\n      PUSH E0\t\t\t\n      SHL \t\t\t\n      SUB \t\t\t\n      NOT \t\t\t\n      SWAP4 \t\t\t\n      SWAP3 \t\t\t\n      POP \t\t\t\n      POP \t\t\t\n      POP \t\t\t\n      JUMP \t\t\t\n    tag 223\t\t\t\n      JUMPDEST \t\t\t\n      CALLER \t\t\t\n      ADDRESS \t\t\t\n      DUP2 \t\t\t\n      EQ \t\t\t\n      DUP1 \t\t\t\n      ISZERO \t\t\t\n      SWAP1 \t\t\t\n      PUSH [tag] 403\t\t\t\n      JUMPI \t\t\t\n      POP \t\t\t\n      PUSH 1\t\t\t\n      PUSH 1\t\t\t\n      PUSH A0\t\t\t\n      SHL \t\t\t\n      SUB \t\t\t\n      DUP2 \t\t\t\n      AND \t\t\t\n      PUSH 433709009B8330FDA32311DF1C2AFA402ED8D009\t\t\traphy/signers/draft-ERC7739.so...\n      EQ \t\t\t\n      ISZERO \t\t\t\n    tag 403\t\t\t\n      JUMPDEST \t\t\t\n      ISZERO \t\t\t\n      PUSH [tag] 225\t\t\t\n      JUMPI \t\t\t\n      PUSH 40\t\t\t\n      MLOAD \t\t\t\n      PUSH 7CF8632B\t\t\t\n      PUSH E0\t\t\t\n      SHL \t\t\t\n      DUP2 \t\t\t\n      MSTORE \t\t\t\n      PUSH 1\t\t\t\n      PUSH 1\t\t\t\n      PUSH A0\t\t\t\n      SHL \t\t\t\n      SUB \t\t\t\n      DUP3 \t\t\t\n      AND \t\t\t\n      PUSH 4\t\t\t\n      DUP3 \t\t\t\n      ADD \t\t\t\n      MSTORE \t\t\t\n      PUSH 24\t\t\t\n      ADD \t\t\t\n      PUSH [tag] 348\t\t\t\n      JUMP \t\t\t\n    tag 226\t\t\t\n      JUMPDEST \t\t\t\n      PUSH 0\t\t\t\n      MLOAD \t\t\t\n      PUSH 20\t\t\t\n      PUSH data FEF1334C9451DD1D4AD00D59BA95327D46027DCD97A396119DABEB776AFE9DEE\t\t\t\n      PUSH 0\t\t\t\n      CODECOPY \t\t\t\n      PUSH 0\t\t\t\n      MLOAD \t\t\t\n      SWAP1 \t\t\t\n      PUSH 0\t\t\t\n      MSTORE \t\t\t\n      PUSH 1\t\t\t\n      PUSH 1\t\t\t\n      PUSH 40\t\t\t\n      SHL \t\t\t\n      SUB \t\t\t\n      DUP3 \t\t\t\n      AND \t\t\t\n      PUSH [tag] 409\t\t\t\n      JUMPI \t\t\t\n      PUSH 40\t\t\t\n      MLOAD \t\t\t\n      PUSH 455DAA5F\t\t\t\n      PUSH E1\t\t\t\n      SHL \t\t\t\n      DUP2 \t\t\t\n      MSTORE \t\t\t\n      PUSH 4\t\t\t\n      ADD \t\t\t\n      PUSH 40\t\t\t\n      MLOAD \t\t\t\n      DUP1 \t\t\t\n      SWAP2 \t\t\t\n      SUB \t\t\t\n      SWAP1 \t\t\t\n      REVERT \t\t\t\n    tag 409\t\t\t\n      JUMPDEST \t\t\t\n      PUSH 2\t\t\t\n      DUP2 \t\t\t\n      ADD \t\t\t\n      DUP1 \t\t\t\n      SLOAD \t\t\t\n      PUSH FFFFFFFFFFFFFFFF\t\t\t\n      NOT \t\t\t\n      AND \t\t\t\n      PUSH 1\t\t\t\n      PUSH 1\t\t\t\n      PUSH 40\t\t\t\n      SHL \t\t\t\n      SUB \t\t\t\n      DUP5 \t\t\t\n      AND \t\t\t\n      OR \t\t\t\n      SWAP1 \t\t\t\n      SSTORE \t\t\t\n      PUSH [tag] 410\t\t\t\n      PUSH [tag] 411\t\t\t\n      JUMP \t\t\t\n    tag 410\t\t\t\n      JUMPDEST \t\t\t\n      PUSH 40\t\t\t\n      MLOAD \t\t\t\n      PUSH 1\t\t\t\n      PUSH 1\t\t\t\n      PUSH 40\t\t\t\n      SHL \t\t\t\n      SUB \t\t\t\n      DUP4 \t\t\t\n      AND \t\t\t\n      DUP2 \t\t\t\n      MSTORE \t\t\t\n      PUSH A1BCBAD4CA88E748DE7F039CEC105095BAE000486AB6533EFB33A31D79BDAE5E\t\t\t\n      SWAP1 \t\t\t\n      PUSH 20\t\t\t\n      ADD \t\t\t\n      PUSH 40\t\t\t\n      MLOAD \t\t\t\n      DUP1 \t\t\t\n      SWAP2 \t\t\t\n      SUB \t\t\t\n      SWAP1 \t\t\t\n      LOG1 \t\t\t\n      POP \t\t\t\n      POP \t\t\t\n      JUMP \t\t\t\n    tag 229\t\t\t\n      JUMPDEST \t\t\t\n      CALLER \t\t\t\n      PUSH 433709009B8330FDA32311DF1C2AFA402ED8D009\t\t\traphy/signers/draft-ERC7739.so...\n      DUP2 \t\t\t\n      EQ \t\t\t\n      PUSH [tag] 225\t\t\t\n      JUMPI \t\t\t\n      PUSH 40\t\t\t\n      MLOAD \t\t\t\n      PUSH 7CF8632B\t\t\t\n      PUSH E0\t\t\t\n      SHL \t\t\t\n      DUP2 \t\t\t\n      MSTORE \t\t\t\n      PUSH 1\t\t\t\n      PUSH 1\t\t\t\n      PUSH A0\t\t\t\n      SHL \t\t\t\n      SUB \t\t\t\n      DUP3 \t\t\t\n      AND \t\t\t\n      PUSH 4\t\t\t\n      DUP3 \t\t\t\n      ADD \t\t\t\n      MSTORE \t\t\t\n      PUSH 24\t\t\t\n      ADD \t\t\t\n      PUSH [tag] 348\t\t\t\n      JUMP \t\t\t\n    tag 234\t\t\tfunction _validateUserOp(Packe...\n      JUMPDEST \t\t\tfunction _validateUserOp(Packe...\n      PUSH 0\t\t\tuint256\n      PUSH [tag] 211\t\t\tsuper._validateUserOp(userOp, ...\n      DUP6 \t\t\tuserOp\n      DUP6 \t\t\tuserOpHash\n      DUP6 \t\t\tsignature\n      DUP6 \t\t\tsignature\n      PUSH [tag] 419\t\t\tsuper._validateUserOp\n      JUMP \t\t\tsuper._validateUserOp(userOp, ...\n    tag 236\t\t\t\n      JUMPDEST \t\t\t\n      DUP1 \t\t\t\n      ISZERO \t\t\t\n      PUSH [tag] 225\t\t\t\n      JUMPI \t\t\t\n      PUSH [tag] 422\t\t\t\n      CALLER \t\t\t\n      DUP3 \t\t\t\n      PUSH 40\t\t\t\n      MLOAD \t\t\t\n      DUP1 \t\t\t\n      PUSH 20\t\t\t\n      ADD \t\t\t\n      PUSH 40\t\t\t\n      MSTORE \t\t\t\n      DUP1 \t\t\t\n      PUSH 0\t\t\t\n      DUP2 \t\t\t\n      MSTORE \t\t\t\n      POP \t\t\t\n      PUSH [tag] 352\t\t\t\n      JUMP \t\t\t\n    tag 422\t\t\t\n      JUMPDEST \t\t\t\n      POP \t\t\t\n      POP \t\t\t\n      JUMP \t\t\t\n    tag 251\t\t\t\n      JUMPDEST \t\t\t\n      PUSH 0\t\t\t\n      DUP3 \t\t\t\n      PUSH 1\t\t\t\n      ADD \t\t\t\n      DUP3 \t\t\t\n      PUSH 40\t\t\t\n      MLOAD \t\t\t\n      PUSH [tag] 425\t\t\t\n      SWAP2 \t\t\t\n      SWAP1 \t\t\t\n      PUSH [tag] 426\t\t\t\n      JUMP \t\t\t\n    tag 425\t\t\t\n      JUMPDEST \t\t\t\n      SWAP1 \t\t\t\n      DUP2 \t\t\t\n      MSTORE \t\t\t\n      PUSH 40\t\t\t\n      MLOAD \t\t\t\n      SWAP1 \t\t\t\n      DUP2 \t\t\t\n      SWAP1 \t\t\t\n      SUB \t\t\t\n      PUSH 20\t\t\t\n      ADD \t\t\t\n      SWAP1 \t\t\t\n      KECCAK256 \t\t\t\n      SLOAD \t\t\t\n      ISZERO \t\t\t\n      ISZERO \t\t\t\n      SWAP4 \t\t\t\n      SWAP3 \t\t\t\n      POP \t\t\t\n      POP \t\t\t\n      POP \t\t\t\n      JUMP \t\t\t\n    tag 256\t\t\t\n      JUMPDEST \t\t\t\n      PUSH 0\t\t\t\n      MLOAD \t\t\t\n      PUSH 20\t\t\t\n      PUSH data FEF1334C9451DD1D4AD00D59BA95327D46027DCD97A396119DABEB776AFE9DEE\t\t\t\n      PUSH 0\t\t\t\n      CODECOPY \t\t\t\n      PUSH 0\t\t\t\n      MLOAD \t\t\t\n      SWAP1 \t\t\t\n      PUSH 0\t\t\t\n      MSTORE \t\t\t\n      PUSH 0\t\t\t\n    tag 429\t\t\t\n      JUMPDEST \t\t\t\n      DUP3 \t\t\t\n      MLOAD \t\t\t\n      DUP2 \t\t\t\n      LT \t\t\t\n      ISZERO \t\t\t\n      PUSH [tag] 430\t\t\t\n      JUMPI \t\t\t\n      PUSH 0\t\t\t\n      DUP4 \t\t\t\n      DUP3 \t\t\t\n      DUP2 \t\t\t\n      MLOAD \t\t\t\n      DUP2 \t\t\t\n      LT \t\t\t\n      PUSH [tag] 433\t\t\t\n      JUMPI \t\t\t\n      PUSH [tag] 433\t\t\t\n      PUSH [tag] 434\t\t\t\n      JUMP \t\t\t\n    tag 433\t\t\t\n      JUMPDEST \t\t\t\n      PUSH 20\t\t\t\n      SWAP1 \t\t\t\n      DUP2 \t\t\t\n      MUL \t\t\t\n      SWAP2 \t\t\t\n      SWAP1 \t\t\t\n      SWAP2 \t\t\t\n      ADD \t\t\t\n      ADD \t\t\t\n      MLOAD \t\t\t\n      SWAP1 \t\t\t\n      POP \t\t\t\n      PUSH [tag] 435\t\t\t\n      DUP4 \t\t\t\n      DUP3 \t\t\t\n      PUSH [tag] 436\t\t\t\n      JUMP \t\t\t\n    tag 435\t\t\t\n      JUMPDEST \t\t\t\n      DUP2 \t\t\t\n      SWAP1 \t\t\t\n      PUSH [tag] 437\t\t\t\n      JUMPI \t\t\t\n      PUSH 40\t\t\t\n      MLOAD \t\t\t\n      PUSH B3A2E4CB\t\t\t\n      PUSH E0\t\t\t\n      SHL \t\t\t\n      DUP2 \t\t\t\n      MSTORE \t\t\t\n      PUSH 4\t\t\t\n      ADD \t\t\t\n      PUSH [tag] 348\t\t\t\n      SWAP2 \t\t\t\n      SWAP1 \t\t\t\n      PUSH [tag] 131\t\t\t\n      JUMP \t\t\t\n    tag 437\t\t\t\n      JUMPDEST \t\t\t\n      POP \t\t\t\n      DUP1 \t\t\t\n      PUSH 40\t\t\t\n      MLOAD \t\t\t\n      PUSH [tag] 439\t\t\t\n      SWAP2 \t\t\t\n      SWAP1 \t\t\t\n      PUSH [tag] 426\t\t\t\n      JUMP \t\t\t\n    tag 439\t\t\t\n      JUMPDEST \t\t\t\n      PUSH 40\t\t\t\n      MLOAD \t\t\t\n      SWAP1 \t\t\t\n      DUP2 \t\t\t\n      SWAP1 \t\t\t\n      SUB \t\t\t\n      DUP2 \t\t\t\n      KECCAK256 \t\t\t\n      SWAP1 \t\t\t\n      PUSH CA2ECE94B660C23BF1A2A217D383D94701CA9E368A082921F2D733D010E85505\t\t\t\n      SWAP1 \t\t\t\n      PUSH 0\t\t\t\n      SWAP1 \t\t\t\n      LOG2 \t\t\t\n      POP \t\t\t\n      PUSH 1\t\t\t\n      ADD \t\t\t\n      PUSH [tag] 429\t\t\t\n      JUMP \t\t\t\n    tag 430\t\t\t\n      JUMPDEST \t\t\t\n      POP \t\t\t\n      PUSH [tag] 422\t\t\t\n      PUSH [tag] 411\t\t\t\n      JUMP \t\t\t\n    tag 262\t\t\t\n      JUMPDEST \t\t\t\n      PUSH 60\t\t\t\n      PUSH [tag] 326\t\t\t\n      PUSHIMMUTABLE 13742\t\t\t\n      PUSH 0\t\t\t\n      PUSH [tag] 444\t\t\t\n      JUMP \t\t\t\n    tag 264\t\t\t\n      JUMPDEST \t\t\t\n      PUSH 60\t\t\t\n      PUSH [tag] 326\t\t\t\n      PUSHIMMUTABLE 13745\t\t\t\n      PUSH 1\t\t\t\n      PUSH [tag] 444\t\t\t\n      JUMP \t\t\t\n    tag 273\t\t\t\n      JUMPDEST \t\t\t\n      PUSH 0\t\t\t) public only\n      PUSH [tag] 448\t\t\tryPoin\n      PUSH [tag] 104\t\t\tryPo\n      JUMP \t\t\tryPoin\n    tag 448\t\t\tryPoin\n      JUMPDEST \t\t\tryPoin\n      SWAP1 \t\t\t) public onlyEntryPoin\n      POP \t\t\t\n      PUSH 60\t\t\t        _addSigners(s\n      PUSH 1\t\t\t\n      PUSH 1\t\t\t\n      PUSH A0\t\t\t\n      SHL \t\t\t\n      SUB \t\t\t\n      DUP3 \t\t\tlic onlyEntryPointO\n      AND \t\t\tlic onlyEntryPointO\n      ISZERO \t\t\tlic onlyEntryPointO\n      PUSH [tag] 449\t\t\t public onlyEntryPointOrSelf {...\n      JUMPI \t\t\t public onlyEntryPointOrSelf {...\n      PUSH 40\t\t\t   _removeSigners(signers);\\n ...\n      MLOAD \t\t\t   _removeSigners(signers);\\n ...\n      PUSH D68F6025\t\t\t\n      PUSH E0\t\t\t\n      SHL \t\t\t\n      DUP2 \t\t\t   _removeSigners(signers);\\n ...\n      MSTORE \t\t\t   _removeSigners(signers);\\n ...\n      PUSH 1\t\t\t\n      PUSH 1\t\t\t\n      PUSH A0\t\t\t\n      SHL \t\t\t\n      SUB \t\t\t\n      DUP4 \t\t\t   _removeSigners(signers);\\n\n      AND \t\t\t   _removeSigners(signers);\\n\n      SWAP1 \t\t\t   _removeSigners(signers);\\n\n      PUSH D68F6025\t\t\t   _removeSigners(signers);\\n\n      SWAP1 \t\t\t   _removeSigners(signers);\\n\n      PUSH [tag] 450\t\t\t   _removeSigners(signers);\\n ...\n      SWAP1 \t\t\t   _removeSigners(signers);\\n ...\n      CALLER \t\t\t   }\\n\\n    \n      SWAP1 \t\t\t   }\\n\\n    \n      CALLVALUE \t\t\tnction se\n      SWAP1 \t\t\tnction se\n      PUSH 0\t\t\threshold\n      SWAP1 \t\t\threshold\n      CALLDATASIZE \t\t\threshold\n      SWAP1 \t\t\threshold\n      PUSH 4\t\t\t   _removeSigners(signers);\\n ...\n      ADD \t\t\t   _removeSigners(signers);\\n ...\n      PUSH [tag] 189\t\t\t   _removeSigners(signers);\\n ...\n      JUMP \t\t\t   _removeSigners(signers);\\n ...\n    tag 450\t\t\t   _removeSigners(signers);\\n ...\n      JUMPDEST \t\t\t   _removeSigners(signers);\\n ...\n      PUSH 0\t\t\t   _removeSigners(signers);\\n ...\n      PUSH 40\t\t\t   _removeSigners(signers);\\n ...\n      MLOAD \t\t\t   _removeSigners(signers);\\n ...\n      DUP1 \t\t\t   _removeSigners(signers);\\n ...\n      DUP4 \t\t\t   _removeSigners(signers);\\n ...\n      SUB \t\t\t   _removeSigners(signers);\\n ...\n      DUP2 \t\t\t   _removeSigners(signers);\\n ...\n      PUSH 0\t\t\t   _removeSigners(signers);\\n ...\n      DUP8 \t\t\t   _removeSigners(signers);\\n ...\n      GAS \t\t\t   _removeSigners(signers);\\n ...\n      CALL \t\t\t   _removeSigners(signers);\\n ...\n      ISZERO \t\t\t   _removeSigners(signers);\\n ...\n      DUP1 \t\t\t   _removeSigners(signers);\\n ...\n      ISZERO \t\t\t   _removeSigners(signers);\\n ...\n      PUSH [tag] 452\t\t\t   _removeSigners(signers);\\n ...\n      JUMPI \t\t\t   _removeSigners(signers);\\n ...\n      RETURNDATASIZE \t\t\t   _removeSigners(signers);\\n ...\n      PUSH 0\t\t\t   _removeSigners(signers);\\n ...\n      PUSH 0\t\t\t   _removeSigners(signers);\\n ...\n      RETURNDATACOPY \t\t\t   _removeSigners(signers);\\n ...\n      RETURNDATASIZE \t\t\t   _removeSigners(signers);\\n ...\n      PUSH 0\t\t\t   _removeSigners(signers);\\n ...\n      REVERT \t\t\t   _removeSigners(signers);\\n ...\n    tag 452\t\t\t   _removeSigners(signers);\\n ...\n      JUMPDEST \t\t\t   _removeSigners(signers);\\n ...\n      POP \t\t\t   _removeSigners(signers);\\n ...\n      POP \t\t\t   _removeSigners(signers);\\n ...\n      POP \t\t\t   _removeSigners(signers);\\n ...\n      POP \t\t\t   _removeSigners(signers);\\n ...\n      PUSH 40\t\t\t   _removeSigners(signers);\\n ...\n      MLOAD \t\t\t   _removeSigners(signers);\\n ...\n      RETURNDATASIZE \t\t\t   _removeSigners(signers);\\n ...\n      PUSH 0\t\t\t   _removeSigners(signers);\\n ...\n      DUP3 \t\t\t   _removeSigners(signers);\\n ...\n      RETURNDATACOPY \t\t\t   _removeSigners(signers);\\n ...\n      PUSH 1F\t\t\t   _removeSigners(signers);\\n ...\n      RETURNDATASIZE \t\t\t   _removeSigners(signers);\\n ...\n      SWAP1 \t\t\t   _removeSigners(signers);\\n ...\n      DUP2 \t\t\t   _removeSigners(signers);\\n ...\n      ADD \t\t\t   _removeSigners(signers);\\n ...\n      PUSH 1F\t\t\t\n      NOT \t\t\t\n      AND \t\t\t   _removeSigners(signers);\\n ...\n      DUP3 \t\t\t   _removeSigners(signers);\\n ...\n      ADD \t\t\t   _removeSigners(signers);\\n ...\n      PUSH 40\t\t\t   _removeSigners(signers);\\n ...\n      MSTORE \t\t\t   _removeSigners(signers);\\n ...\n      PUSH [tag] 453\t\t\t   _removeSigners(signers);\\n ...\n      SWAP2 \t\t\t   _removeSigners(signers);\\n ...\n      SWAP1 \t\t\t   _removeSigners(signers);\\n ...\n      DUP2 \t\t\t   _removeSigners(signers);\\n ...\n      ADD \t\t\t   _removeSigners(signers);\\n ...\n      SWAP1 \t\t\t   _removeSigners(signers);\\n ...\n      PUSH [tag] 193\t\t\t   _removeSigners(signers);\\n ...\n      JUMP \t\t\t   _removeSigners(signers);\\n ...\n    tag 453\t\t\t   _removeSigners(signers);\\n ...\n      JUMPDEST \t\t\t   _removeSigners(signers);\\n ...\n      SWAP1 \t\t\telf {\\n        _removeSigners(...\n      POP \t\t\telf {\\n        _removeSigners(...\n    tag 449\t\t\t public onlyEntryPointOrSelf {...\n      JUMPDEST \t\t\t public onlyEntryPointOrSelf {...\n      PUSH 2B49B75317FFC1021CA7DA4CA3423BF8403E18B223E63E6BC7ABE8F39A5ED700\t\t\txffffffff (invalid) or 0x77390...\n      PUSH 3\t\t\t\n      NOT \t\t\t\n      DUP7 \t\t\t\n      ADD \t\t\t\n      PUSH [tag] 456\t\t\t\n      JUMPI \t\t\t\n      DUP1 \t\t\t\n      SLOAD \t\t\t\n      PUSH 1\t\t\t\n      PUSH 1\t\t\t\n      PUSH A0\t\t\t\n      SHL \t\t\t\n      SUB \t\t\t\n      AND \t\t\t\n      DUP1 \t\t\t\n      ISZERO \t\t\t\n      PUSH [tag] 457\t\t\t\n      JUMPI \t\t\t\n      PUSH 40\t\t\t\n      MLOAD \t\t\t\n      PUSH C005E8D\t\t\t\n      PUSH E1\t\t\t\n      SHL \t\t\t\n      DUP2 \t\t\t\n      MSTORE \t\t\t\n      PUSH 1\t\t\t\n      PUSH 1\t\t\t\n      PUSH A0\t\t\t\n      SHL \t\t\t\n      SUB \t\t\t\n      SWAP1 \t\t\t\n      SWAP2 \t\t\t\n      AND \t\t\t\n      PUSH 4\t\t\t\n      DUP3 \t\t\t\n      ADD \t\t\t\n      MSTORE \t\t\t\n      PUSH 24\t\t\t\n      ADD \t\t\t\n      PUSH [tag] 348\t\t\t\n      JUMP \t\t\t\n    tag 457\t\t\t\n      JUMPDEST \t\t\t\n      POP \t\t\t\n      DUP1 \t\t\t\n      SLOAD \t\t\t\n      PUSH 1\t\t\t\n      PUSH 1\t\t\t\n      PUSH A0\t\t\t\n      SHL \t\t\t\n      SUB \t\t\t\n      NOT \t\t\t\n      AND \t\t\t\n      PUSH 1\t\t\t\n      PUSH 1\t\t\t\n      PUSH A0\t\t\t\n      SHL \t\t\t\n      SUB \t\t\t\n      DUP7 \t\t\t\n      AND \t\t\t\n      OR \t\t\t\n      DUP2 \t\t\t\n      SSTORE \t\t\t\n    tag 456\t\t\t\n      JUMPDEST \t\t\t\n      PUSH [tag] 459\t\t\t\n      DUP7 \t\t\t\n      DUP7 \t\t\t\n      DUP7 \t\t\t\n      PUSH [tag] 460\t\t\t\n      JUMP \t\t\t\n    tag 459\t\t\t\n      JUMPDEST \t\t\t\n      POP \t\t\t\n      PUSH 1\t\t\t\n      PUSH 1\t\t\t\n      PUSH A0\t\t\t\n      SHL \t\t\t\n      SUB \t\t\t\n      DUP3 \t\t\tonlyEntryPointOrSel\n      AND \t\t\tonlyEntryPointOrSel\n      ISZERO \t\t\tonlyEntryPointOrSel\n      PUSH [tag] 461\t\t\tlic onlyEntryPointOrSelf {\\n  ...\n      JUMPI \t\t\tlic onlyEntryPointOrSelf {\\n  ...\n      PUSH 40\t\t\t{\\n        _setThreshold(thres...\n      MLOAD \t\t\t{\\n        _setThreshold(thres...\n      PUSH B9DFBED\t\t\t\n      PUSH E1\t\t\t\n      SHL \t\t\t\n      DUP2 \t\t\t{\\n        _setThreshold(thres...\n      MSTORE \t\t\t{\\n        _setThreshold(thres...\n      PUSH 1\t\t\t\n      PUSH 1\t\t\t\n      PUSH A0\t\t\t\n      SHL \t\t\t\n      SUB \t\t\t\n      DUP4 \t\t\t{\\n        _setThreshold(thres\n      AND \t\t\t{\\n        _setThreshold(thres\n      SWAP1 \t\t\t{\\n        _setThreshold(thres\n      PUSH 173BF7DA\t\t\t{\\n        _setThreshold(thres\n      SWAP1 \t\t\t{\\n        _setThreshold(thres\n      PUSH [tag] 462\t\t\t{\\n        _setThreshold(thres...\n      SWAP1 \t\t\t{\\n        _setThreshold(thres...\n      DUP5 \t\t\told);\\n  \n      SWAP1 \t\t\told);\\n  \n      PUSH 4\t\t\t{\\n        _setThreshold(thres...\n      ADD \t\t\t{\\n        _setThreshold(thres...\n      PUSH [tag] 131\t\t\t{\\n        _setThreshold(thres...\n      JUMP \t\t\t{\\n        _setThreshold(thres...\n    tag 462\t\t\t{\\n        _setThreshold(thres...\n      JUMPDEST \t\t\t{\\n        _setThreshold(thres...\n      PUSH 0\t\t\t{\\n        _setThreshold(thres...\n      PUSH 40\t\t\t{\\n        _setThreshold(thres...\n      MLOAD \t\t\t{\\n        _setThreshold(thres...\n      DUP1 \t\t\t{\\n        _setThreshold(thres...\n      DUP4 \t\t\t{\\n        _setThreshold(thres...\n      SUB \t\t\t{\\n        _setThreshold(thres...\n      DUP2 \t\t\t{\\n        _setThreshold(thres...\n      PUSH 0\t\t\t{\\n        _setThreshold(thres...\n      DUP8 \t\t\t{\\n        _setThreshold(thres...\n      DUP1 \t\t\t{\\n        _setThreshold(thres...\n      EXTCODESIZE \t\t\t{\\n        _setThreshold(thres...\n      ISZERO \t\t\t{\\n        _setThreshold(thres...\n      DUP1 \t\t\t{\\n        _setThreshold(thres...\n      ISZERO \t\t\t{\\n        _setThreshold(thres...\n      PUSH [tag] 463\t\t\t{\\n        _setThreshold(thres...\n      JUMPI \t\t\t{\\n        _setThreshold(thres...\n      PUSH 0\t\t\t{\\n        _setThreshold(thres...\n      PUSH 0\t\t\t{\\n        _setThreshold(thres...\n      REVERT \t\t\t{\\n        _setThreshold(thres...\n    tag 463\t\t\t{\\n        _setThreshold(thres...\n      JUMPDEST \t\t\t{\\n        _setThreshold(thres...\n      POP \t\t\t{\\n        _setThreshold(thres...\n      GAS \t\t\t{\\n        _setThreshold(thres...\n      CALL \t\t\t{\\n        _setThreshold(thres...\n      ISZERO \t\t\t{\\n        _setThreshold(thres...\n      DUP1 \t\t\t{\\n        _setThreshold(thres...\n      ISZERO \t\t\t{\\n        _setThreshold(thres...\n      PUSH [tag] 465\t\t\t{\\n        _setThreshold(thres...\n      JUMPI \t\t\t{\\n        _setThreshold(thres...\n      RETURNDATASIZE \t\t\t{\\n        _setThreshold(thres...\n      PUSH 0\t\t\t{\\n        _setThreshold(thres...\n      PUSH 0\t\t\t{\\n        _setThreshold(thres...\n      RETURNDATACOPY \t\t\t{\\n        _setThreshold(thres...\n      RETURNDATASIZE \t\t\t{\\n        _setThreshold(thres...\n      PUSH 0\t\t\t{\\n        _setThreshold(thres...\n      REVERT \t\t\t{\\n        _setThreshold(thres...\n    tag 465\t\t\t{\\n        _setThreshold(thres...\n      JUMPDEST \t\t\t{\\n        _setThreshold(thres...\n      POP \t\t\t{\\n        _setThreshold(thres...\n      POP \t\t\t{\\n        _setThreshold(thres...\n      POP \t\t\t{\\n        _setThreshold(thres...\n      POP \t\t\t{\\n        _setThreshold(thres...\n    tag 461\t\t\tlic onlyEntryPointOrSelf {\\n  ...\n      JUMPDEST \t\t\tlic onlyEntryPointOrSelf {\\n  ...\n      POP \t\t\try signers) public onlyEntryPo...\n      POP \t\t\try signers) public onlyEntryPo...\n      POP \t\t\t\n      POP \t\t\t\n      POP \t\t\t\n      JUMP \t\t\t\n    tag 277\t\t\t\n      JUMPDEST \t\t\t\n      PUSH 60\t\t\t\n      PUSH [tag] 467\t\t\t\n      DUP3 \t\t\t\n      PUSH [tag] 468\t\t\t\n      DUP7 \t\t\t\n      SLOAD \t\t\t\n      SWAP1 \t\t\t\n      JUMP \t\t\t\n    tag 468\t\t\t\n      JUMPDEST \t\t\t\n      PUSH [tag] 469\t\t\t\n      JUMP \t\t\t\n    tag 467\t\t\t\n      JUMPDEST \t\t\t\n      SWAP2 \t\t\t\n      POP \t\t\t\n      PUSH [tag] 470\t\t\t\n      DUP4 \t\t\t\n      DUP4 \t\t\t\n      PUSH [tag] 469\t\t\t\n      JUMP \t\t\t\n    tag 470\t\t\t\n      JUMPDEST \t\t\t\n      SWAP3 \t\t\t\n      POP \t\t\t\n      DUP3 \t\t\t\n      DUP3 \t\t\t\n      SUB \t\t\t\n      PUSH 0\t\t\t\n      DUP2 \t\t\t\n      PUSH 1\t\t\t\n      PUSH 1\t\t\t\n      PUSH 40\t\t\t\n      SHL \t\t\t\n      SUB \t\t\t\n      DUP2 \t\t\t\n      GT \t\t\t\n      ISZERO \t\t\t\n      PUSH [tag] 472\t\t\t\n      JUMPI \t\t\t\n      PUSH [tag] 472\t\t\t\n      PUSH [tag] 267\t\t\t\n      JUMP \t\t\t\n    tag 472\t\t\t\n      JUMPDEST \t\t\t\n      PUSH 40\t\t\t\n      MLOAD \t\t\t\n      SWAP1 \t\t\t\n      DUP1 \t\t\t\n      DUP3 \t\t\t\n      MSTORE \t\t\t\n      DUP1 \t\t\t\n      PUSH 20\t\t\t\n      MUL \t\t\t\n      PUSH 20\t\t\t\n      ADD \t\t\t\n      DUP3 \t\t\t\n      ADD \t\t\t\n      PUSH 40\t\t\t\n      MSTORE \t\t\t\n      DUP1 \t\t\t\n      ISZERO \t\t\t\n      PUSH [tag] 473\t\t\t\n      JUMPI \t\t\t\n      DUP2 \t\t\t\n      PUSH 20\t\t\t\n      ADD \t\t\t\n    tag 474\t\t\t\n      JUMPDEST \t\t\t\n      PUSH 60\t\t\t\n      DUP2 \t\t\t\n      MSTORE \t\t\t\n      PUSH 20\t\t\t\n      ADD \t\t\t\n      SWAP1 \t\t\t\n      PUSH 1\t\t\t\n      SWAP1 \t\t\t\n      SUB \t\t\t\n      SWAP1 \t\t\t\n      DUP2 \t\t\t\n      PUSH [tag] 474\t\t\t\n      JUMPI \t\t\t\n      SWAP1 \t\t\t\n      POP \t\t\t\n    tag 473\t\t\t\n      JUMPDEST \t\t\t\n      POP \t\t\t\n      SWAP1 \t\t\t\n      POP \t\t\t\n      PUSH 0\t\t\t\n    tag 475\t\t\t\n      JUMPDEST \t\t\t\n      DUP3 \t\t\t\n      DUP2 \t\t\t\n      LT \t\t\t\n      ISZERO \t\t\t\n      PUSH [tag] 476\t\t\t\n      JUMPI \t\t\t\n      PUSH [tag] 478\t\t\t\n      DUP8 \t\t\t\n      DUP8 \t\t\t\n      DUP4 \t\t\t\n      ADD \t\t\t\n      PUSH [tag] 479\t\t\t\n      JUMP \t\t\t\n    tag 478\t\t\t\n      JUMPDEST \t\t\t\n      DUP1 \t\t\t\n      SLOAD \t\t\t\n      PUSH [tag] 480\t\t\t\n      SWAP1 \t\t\t\n      PUSH [tag] 481\t\t\t\n      JUMP \t\t\t\n    tag 480\t\t\t\n      JUMPDEST \t\t\t\n      DUP1 \t\t\t\n      PUSH 1F\t\t\t\n      ADD \t\t\t\n      PUSH 20\t\t\t\n      DUP1 \t\t\t\n      SWAP2 \t\t\t\n      DIV \t\t\t\n      MUL \t\t\t\n      PUSH 20\t\t\t\n      ADD \t\t\t\n      PUSH 40\t\t\t\n      MLOAD \t\t\t\n      SWAP1 \t\t\t\n      DUP2 \t\t\t\n      ADD \t\t\t\n      PUSH 40\t\t\t\n      MSTORE \t\t\t\n      DUP1 \t\t\t\n      SWAP3 \t\t\t\n      SWAP2 \t\t\t\n      SWAP1 \t\t\t\n      DUP2 \t\t\t\n      DUP2 \t\t\t\n      MSTORE \t\t\t\n      PUSH 20\t\t\t\n      ADD \t\t\t\n      DUP3 \t\t\t\n      DUP1 \t\t\t\n      SLOAD \t\t\t\n      PUSH [tag] 482\t\t\t\n      SWAP1 \t\t\t\n      PUSH [tag] 481\t\t\t\n      JUMP \t\t\t\n    tag 482\t\t\t\n      JUMPDEST \t\t\t\n      DUP1 \t\t\t\n      ISZERO \t\t\t\n      PUSH [tag] 483\t\t\t\n      JUMPI \t\t\t\n      DUP1 \t\t\t\n      PUSH 1F\t\t\t\n      LT \t\t\t\n      PUSH [tag] 484\t\t\t\n      JUMPI \t\t\t\n      PUSH 100\t\t\t\n      DUP1 \t\t\t\n      DUP4 \t\t\t\n      SLOAD \t\t\t\n      DIV \t\t\t\n      MUL \t\t\t\n      DUP4 \t\t\t\n      MSTORE \t\t\t\n      SWAP2 \t\t\t\n      PUSH 20\t\t\t\n      ADD \t\t\t\n      SWAP2 \t\t\t\n      PUSH [tag] 483\t\t\t\n      JUMP \t\t\t\n    tag 484\t\t\t\n      JUMPDEST \t\t\t\n      DUP3 \t\t\t\n      ADD \t\t\t\n      SWAP2 \t\t\t\n      SWAP1 \t\t\t\n      PUSH 0\t\t\t\n      MSTORE \t\t\t\n      PUSH 20\t\t\t\n      PUSH 0\t\t\t\n      KECCAK256 \t\t\t\n      SWAP1 \t\t\t\n    tag 485\t\t\t\n      JUMPDEST \t\t\t\n      DUP2 \t\t\t\n      SLOAD \t\t\t\n      DUP2 \t\t\t\n      MSTORE \t\t\t\n      SWAP1 \t\t\t\n      PUSH 1\t\t\t\n      ADD \t\t\t\n      SWAP1 \t\t\t\n      PUSH 20\t\t\t\n      ADD \t\t\t\n      DUP1 \t\t\t\n      DUP4 \t\t\t\n      GT \t\t\t\n      PUSH [tag] 485\t\t\t\n      JUMPI \t\t\t\n      DUP3 \t\t\t\n      SWAP1 \t\t\t\n      SUB \t\t\t\n      PUSH 1F\t\t\t\n      AND \t\t\t\n      DUP3 \t\t\t\n      ADD \t\t\t\n      SWAP2 \t\t\t\n    tag 483\t\t\t\n      JUMPDEST \t\t\t\n      POP \t\t\t\n      POP \t\t\t\n      POP \t\t\t\n      POP \t\t\t\n      POP \t\t\t\n      DUP3 \t\t\t\n      DUP3 \t\t\t\n      DUP2 \t\t\t\n      MLOAD \t\t\t\n      DUP2 \t\t\t\n      LT \t\t\t\n      PUSH [tag] 487\t\t\t\n      JUMPI \t\t\t\n      PUSH [tag] 487\t\t\t\n      PUSH [tag] 434\t\t\t\n      JUMP \t\t\t\n    tag 487\t\t\t\n      JUMPDEST \t\t\t\n      PUSH 20\t\t\t\n      SWAP1 \t\t\t\n      DUP2 \t\t\t\n      MUL \t\t\t\n      SWAP2 \t\t\t\n      SWAP1 \t\t\t\n      SWAP2 \t\t\t\n      ADD \t\t\t\n      ADD \t\t\t\n      MSTORE \t\t\t\n      PUSH 1\t\t\t\n      ADD \t\t\t\n      PUSH [tag] 475\t\t\t\n      JUMP \t\t\t\n    tag 476\t\t\t\n      JUMPDEST \t\t\t\n      POP \t\t\t\n      SWAP6 \t\t\t\n      SWAP5 \t\t\t\n      POP \t\t\t\n      POP \t\t\t\n      POP \t\t\t\n      POP \t\t\t\n      POP \t\t\t\n      JUMP \t\t\t\n    tag 282\t\t\t\n      JUMPDEST \t\t\t\n      PUSH 0\t\t\t\n      MLOAD \t\t\t\n      PUSH 20\t\t\t\n      PUSH data FEF1334C9451DD1D4AD00D59BA95327D46027DCD97A396119DABEB776AFE9DEE\t\t\t\n      PUSH 0\t\t\t\n      CODECOPY \t\t\t\n      PUSH 0\t\t\t\n      MLOAD \t\t\t\n      SWAP1 \t\t\t\n      PUSH 0\t\t\t\n      MSTORE \t\t\t\n      PUSH 0\t\t\t\n    tag 490\t\t\t\n      JUMPDEST \t\t\t\n      DUP3 \t\t\t\n      MLOAD \t\t\t\n      DUP2 \t\t\t\n      LT \t\t\t\n      ISZERO \t\t\t\n      PUSH [tag] 491\t\t\t\n      JUMPI \t\t\t\n      PUSH 0\t\t\t\n      DUP4 \t\t\t\n      DUP3 \t\t\t\n      DUP2 \t\t\t\n      MLOAD \t\t\t\n      DUP2 \t\t\t\n      LT \t\t\t\n      PUSH [tag] 494\t\t\t\n      JUMPI \t\t\t\n      PUSH [tag] 494\t\t\t\n      PUSH [tag] 434\t\t\t\n      JUMP \t\t\t\n    tag 494\t\t\t\n      JUMPDEST \t\t\t\n      PUSH 20\t\t\t\n      MUL \t\t\t\n      PUSH 20\t\t\t\n      ADD \t\t\t\n      ADD \t\t\t\n      MLOAD \t\t\t\n      SWAP1 \t\t\t\n      POP \t\t\t\n      PUSH 14\t\t\t\n      DUP2 \t\t\t\n      MLOAD \t\t\t\n      LT \t\t\t\n      ISZERO \t\t\t\n      DUP2 \t\t\t\n      SWAP1 \t\t\t\n      PUSH [tag] 495\t\t\t\n      JUMPI \t\t\t\n      PUSH 40\t\t\t\n      MLOAD \t\t\t\n      PUSH 310775B\t\t\t\n      PUSH E2\t\t\t\n      SHL \t\t\t\n      DUP2 \t\t\t\n      MSTORE \t\t\t\n      PUSH 4\t\t\t\n      ADD \t\t\t\n      PUSH [tag] 348\t\t\t\n      SWAP2 \t\t\t\n      SWAP1 \t\t\t\n      PUSH [tag] 131\t\t\t\n      JUMP \t\t\t\n    tag 495\t\t\t\n      JUMPDEST \t\t\t\n      POP \t\t\t\n      PUSH [tag] 497\t\t\t\n      DUP4 \t\t\t\n      DUP3 \t\t\t\n      PUSH [tag] 498\t\t\t\n      JUMP \t\t\t\n    tag 497\t\t\t\n      JUMPDEST \t\t\t\n      DUP2 \t\t\t\n      SWAP1 \t\t\t\n      PUSH [tag] 499\t\t\t\n      JUMPI \t\t\t\n      PUSH 40\t\t\t\n      MLOAD \t\t\t\n      PUSH 25E17A41\t\t\t\n      PUSH E0\t\t\t\n      SHL \t\t\t\n      DUP2 \t\t\t\n      MSTORE \t\t\t\n      PUSH 4\t\t\t\n      ADD \t\t\t\n      PUSH [tag] 348\t\t\t\n      SWAP2 \t\t\t\n      SWAP1 \t\t\t\n      PUSH [tag] 131\t\t\t\n      JUMP \t\t\t\n    tag 499\t\t\t\n      JUMPDEST \t\t\t\n      POP \t\t\t\n      DUP1 \t\t\t\n      PUSH 40\t\t\t\n      MLOAD \t\t\t\n      PUSH [tag] 501\t\t\t\n      SWAP2 \t\t\t\n      SWAP1 \t\t\t\n      PUSH [tag] 426\t\t\t\n      JUMP \t\t\t\n    tag 501\t\t\t\n      JUMPDEST \t\t\t\n      PUSH 40\t\t\t\n      MLOAD \t\t\t\n      SWAP1 \t\t\t\n      DUP2 \t\t\t\n      SWAP1 \t\t\t\n      SUB \t\t\t\n      DUP2 \t\t\t\n      KECCAK256 \t\t\t\n      SWAP1 \t\t\t\n      PUSH 4B35CA4A0708FA3D38267E28BD9478214D7166D3483F78A0F35B00697219D2B2\t\t\t\n      SWAP1 \t\t\t\n      PUSH 0\t\t\t\n      SWAP1 \t\t\t\n      LOG2 \t\t\t\n      POP \t\t\t\n      PUSH 1\t\t\t\n      ADD \t\t\t\n      PUSH [tag] 490\t\t\t\n      JUMP \t\t\t\n    tag 491\t\t\t\n      JUMPDEST \t\t\t\n      POP \t\t\t\n      POP \t\t\t\n      POP \t\t\t\n      JUMP \t\t\t\n    tag 286\t\t\t\n      JUMPDEST \t\t\t\n      PUSH 0\t\t\t\n      DUP1 \t\t\t\n      PUSH F0C57E16840DF040F15088DC2F81FE391C3923BEC73E23A9662EFC9C229C6A00\t\t\t more derived than AccountERC7...\n      PUSH [tag] 205\t\t\t\n      JUMP \t\t\t\n    tag 294\t\t\te following functions are over...\n      JUMPDEST \t\t\te following functions are over...\n      PUSH [tag] 506\t\t\t\n      PUSH [tag] 507\t\t\t\n      JUMP \t\t\t\n    tag 506\t\t\t\n      JUMPDEST \t\t\t\n      JUMP \t\t\te following functions are over...\n    tag 296\t\t\tnal\\n        view\\n        ove...\n      JUMPDEST \t\t\tnal\\n        view\\n        ove...\n      PUSH [tag] 510\t\t\t\n      PUSH [tag] 507\t\t\t\n      JUMP \t\t\t\n    tag 510\t\t\t\n      JUMPDEST \t\t\t\n      PUSH [tag] 422\t\t\t returns (bool)\\n    {\\n      ...\n      DUP3 \t\t\t super._\n      DUP3 \t\t\twSignature\n      PUSH [tag] 513\t\t\t returns (bool)\\n    {\\n      ...\n      JUMP \t\t\t returns (bool)\\n    {\\n      ...\n    tag 304\t\t\t\n      JUMPDEST \t\t\t\n      PUSH 0\t\t\t) public only\n      PUSH [tag] 515\t\t\tryPoin\n      PUSH [tag] 104\t\t\tryPo\n      JUMP \t\t\tryPoin\n    tag 515\t\t\tryPoin\n      JUMPDEST \t\t\tryPoin\n      SWAP1 \t\t\t) public onlyEntryPoin\n      POP \t\t\t\n      PUSH 60\t\t\t        _addSigners(s\n      PUSH 1\t\t\t\n      PUSH 1\t\t\t\n      PUSH A0\t\t\t\n      SHL \t\t\t\n      SUB \t\t\t\n      DUP3 \t\t\tlic onlyEntryPointO\n      AND \t\t\tlic onlyEntryPointO\n      ISZERO \t\t\tlic onlyEntryPointO\n      PUSH [tag] 516\t\t\t public onlyEntryPointOrSelf {...\n      JUMPI \t\t\t public onlyEntryPointOrSelf {...\n      PUSH 40\t\t\t   _removeSigners(signers);\\n ...\n      MLOAD \t\t\t   _removeSigners(signers);\\n ...\n      PUSH D68F6025\t\t\t\n      PUSH E0\t\t\t\n      SHL \t\t\t\n      DUP2 \t\t\t   _removeSigners(signers);\\n ...\n      MSTORE \t\t\t   _removeSigners(signers);\\n ...\n      PUSH 1\t\t\t\n      PUSH 1\t\t\t\n      PUSH A0\t\t\t\n      SHL \t\t\t\n      SUB \t\t\t\n      DUP4 \t\t\t   _removeSigners(signers);\\n\n      AND \t\t\t   _removeSigners(signers);\\n\n      SWAP1 \t\t\t   _removeSigners(signers);\\n\n      PUSH D68F6025\t\t\t   _removeSigners(signers);\\n\n      SWAP1 \t\t\t   _removeSigners(signers);\\n\n      PUSH [tag] 517\t\t\t   _removeSigners(signers);\\n ...\n      SWAP1 \t\t\t   _removeSigners(signers);\\n ...\n      CALLER \t\t\t   }\\n\\n    \n      SWAP1 \t\t\t   }\\n\\n    \n      CALLVALUE \t\t\tnction se\n      SWAP1 \t\t\tnction se\n      PUSH 0\t\t\threshold\n      SWAP1 \t\t\threshold\n      CALLDATASIZE \t\t\threshold\n      SWAP1 \t\t\threshold\n      PUSH 4\t\t\t   _removeSigners(signers);\\n ...\n      ADD \t\t\t   _removeSigners(signers);\\n ...\n      PUSH [tag] 189\t\t\t   _removeSigners(signers);\\n ...\n      JUMP \t\t\t   _removeSigners(signers);\\n ...\n    tag 517\t\t\t   _removeSigners(signers);\\n ...\n      JUMPDEST \t\t\t   _removeSigners(signers);\\n ...\n      PUSH 0\t\t\t   _removeSigners(signers);\\n ...\n      PUSH 40\t\t\t   _removeSigners(signers);\\n ...\n      MLOAD \t\t\t   _removeSigners(signers);\\n ...\n      DUP1 \t\t\t   _removeSigners(signers);\\n ...\n      DUP4 \t\t\t   _removeSigners(signers);\\n ...\n      SUB \t\t\t   _removeSigners(signers);\\n ...\n      DUP2 \t\t\t   _removeSigners(signers);\\n ...\n      PUSH 0\t\t\t   _removeSigners(signers);\\n ...\n      DUP8 \t\t\t   _removeSigners(signers);\\n ...\n      GAS \t\t\t   _removeSigners(signers);\\n ...\n      CALL \t\t\t   _removeSigners(signers);\\n ...\n      ISZERO \t\t\t   _removeSigners(signers);\\n ...\n      DUP1 \t\t\t   _removeSigners(signers);\\n ...\n      ISZERO \t\t\t   _removeSigners(signers);\\n ...\n      PUSH [tag] 519\t\t\t   _removeSigners(signers);\\n ...\n      JUMPI \t\t\t   _removeSigners(signers);\\n ...\n      RETURNDATASIZE \t\t\t   _removeSigners(signers);\\n ...\n      PUSH 0\t\t\t   _removeSigners(signers);\\n ...\n      PUSH 0\t\t\t   _removeSigners(signers);\\n ...\n      RETURNDATACOPY \t\t\t   _removeSigners(signers);\\n ...\n      RETURNDATASIZE \t\t\t   _removeSigners(signers);\\n ...\n      PUSH 0\t\t\t   _removeSigners(signers);\\n ...\n      REVERT \t\t\t   _removeSigners(signers);\\n ...\n    tag 519\t\t\t   _removeSigners(signers);\\n ...\n      JUMPDEST \t\t\t   _removeSigners(signers);\\n ...\n      POP \t\t\t   _removeSigners(signers);\\n ...\n      POP \t\t\t   _removeSigners(signers);\\n ...\n      POP \t\t\t   _removeSigners(signers);\\n ...\n      POP \t\t\t   _removeSigners(signers);\\n ...\n      PUSH 40\t\t\t   _removeSigners(signers);\\n ...\n      MLOAD \t\t\t   _removeSigners(signers);\\n ...\n      RETURNDATASIZE \t\t\t   _removeSigners(signers);\\n ...\n      PUSH 0\t\t\t   _removeSigners(signers);\\n ...\n      DUP3 \t\t\t   _removeSigners(signers);\\n ...\n      RETURNDATACOPY \t\t\t   _removeSigners(signers);\\n ...\n      PUSH 1F\t\t\t   _removeSigners(signers);\\n ...\n      RETURNDATASIZE \t\t\t   _removeSigners(signers);\\n ...\n      SWAP1 \t\t\t   _removeSigners(signers);\\n ...\n      DUP2 \t\t\t   _removeSigners(signers);\\n ...\n      ADD \t\t\t   _removeSigners(signers);\\n ...\n      PUSH 1F\t\t\t\n      NOT \t\t\t\n      AND \t\t\t   _removeSigners(signers);\\n ...\n      DUP3 \t\t\t   _removeSigners(signers);\\n ...\n      ADD \t\t\t   _removeSigners(signers);\\n ...\n      PUSH 40\t\t\t   _removeSigners(signers);\\n ...\n      MSTORE \t\t\t   _removeSigners(signers);\\n ...\n      PUSH [tag] 520\t\t\t   _removeSigners(signers);\\n ...\n      SWAP2 \t\t\t   _removeSigners(signers);\\n ...\n      SWAP1 \t\t\t   _removeSigners(signers);\\n ...\n      DUP2 \t\t\t   _removeSigners(signers);\\n ...\n      ADD \t\t\t   _removeSigners(signers);\\n ...\n      SWAP1 \t\t\t   _removeSigners(signers);\\n ...\n      PUSH [tag] 193\t\t\t   _removeSigners(signers);\\n ...\n      JUMP \t\t\t   _removeSigners(signers);\\n ...\n    tag 520\t\t\t   _removeSigners(signers);\\n ...\n      JUMPDEST \t\t\t   _removeSigners(signers);\\n ...\n      SWAP1 \t\t\telf {\\n        _removeSigners(...\n      POP \t\t\telf {\\n        _removeSigners(...\n    tag 516\t\t\t public onlyEntryPointOrSelf {...\n      JUMPDEST \t\t\t public onlyEntryPointOrSelf {...\n      PUSH 2B49B75317FFC1021CA7DA4CA3423BF8403E18B223E63E6BC7ABE8F39A5ED700\t\t\txffffffff (invalid) or 0x77390...\n      PUSH 3\t\t\t\n      NOT \t\t\t\n      DUP7 \t\t\t\n      ADD \t\t\t\n      PUSH [tag] 523\t\t\t\n      JUMPI \t\t\t\n      DUP1 \t\t\t\n      SLOAD \t\t\t\n      DUP7 \t\t\t\n      SWAP1 \t\t\t\n      DUP7 \t\t\t\n      SWAP1 \t\t\t\n      PUSH 1\t\t\t\n      PUSH 1\t\t\t\n      PUSH A0\t\t\t\n      SHL \t\t\t\n      SUB \t\t\t\n      DUP1 \t\t\t\n      DUP4 \t\t\t\n      AND \t\t\t\n      SWAP2 \t\t\t\n      AND \t\t\t\n      EQ \t\t\t\n      PUSH [tag] 524\t\t\t\n      JUMPI \t\t\t\n      PUSH 40\t\t\t\n      MLOAD \t\t\t\n      PUSH 1343D68D\t\t\t\n      PUSH E0\t\t\t\n      SHL \t\t\t\n      DUP2 \t\t\t\n      MSTORE \t\t\t\n      PUSH 4\t\t\t\n      DUP2 \t\t\t\n      ADD \t\t\t\n      SWAP3 \t\t\t\n      SWAP1 \t\t\t\n      SWAP3 \t\t\t\n      MSTORE \t\t\t\n      PUSH 1\t\t\t\n      PUSH 1\t\t\t\n      PUSH A0\t\t\t\n      SHL \t\t\t\n      SUB \t\t\t\n      AND \t\t\t\n      PUSH 24\t\t\t\n      DUP3 \t\t\t\n      ADD \t\t\t\n      MSTORE \t\t\t\n      PUSH 44\t\t\t\n      ADD \t\t\t\n      PUSH [tag] 348\t\t\t\n      JUMP \t\t\t\n    tag 524\t\t\t\n      JUMPDEST \t\t\t\n      POP \t\t\t\n      POP \t\t\t\n      DUP1 \t\t\t\n      SLOAD \t\t\t\n      PUSH 1\t\t\t\n      PUSH 1\t\t\t\n      PUSH A0\t\t\t\n      SHL \t\t\t\n      SUB \t\t\t\n      NOT \t\t\t\n      AND \t\t\t\n      DUP2 \t\t\t\n      SSTORE \t\t\t\n    tag 523\t\t\t\n      JUMPDEST \t\t\t\n      PUSH [tag] 459\t\t\t\n      DUP7 \t\t\t\n      DUP7 \t\t\t\n      DUP7 \t\t\t\n      PUSH [tag] 528\t\t\t\n      JUMP \t\t\t\n    tag 313\t\t\t\n      JUMPDEST \t\t\t\n      PUSH 0\t\t\t\n      PUSH 0\t\t\t\n      PUSH 0\t\t\t\n      PUSH 0\t\t\t\n      PUSH [tag] 536\t\t\t\n      DUP6 \t\t\t\n      PUSH 0\t\t\t\n      PUSH [tag] 537\t\t\t\n      JUMP \t\t\t\n    tag 536\t\t\t\n      JUMPDEST \t\t\t\n      PUSH [tag] 538\t\t\t\n      DUP7 \t\t\t\n      PUSH 1\t\t\t\n      PUSH [tag] 537\t\t\t\n      JUMP \t\t\t\n    tag 538\t\t\t\n      JUMPDEST \t\t\t\n      PUSH [tag] 539\t\t\t\n      DUP8 \t\t\t\n      PUSH 6\t\t\t\n      PUSH [tag] 540\t\t\t\n      JUMP \t\t\t\n    tag 539\t\t\t\n      JUMPDEST \t\t\t\n      PUSH [tag] 541\t\t\t\n      DUP9 \t\t\t\n      PUSH A\t\t\t\n      PUSH [tag] 542\t\t\t\n      JUMP \t\t\t\n    tag 541\t\t\t\n      JUMPDEST \t\t\t\n      SWAP4 \t\t\t\n      POP \t\t\t\n      SWAP4 \t\t\t\n      POP \t\t\t\n      SWAP4 \t\t\t\n      POP \t\t\t\n      SWAP4 \t\t\t\n      POP \t\t\t\n      SWAP2 \t\t\t\n      SWAP4 \t\t\t\n      POP \t\t\t\n      SWAP2 \t\t\t\n      SWAP4 \t\t\t\n      JUMP \t\t\t\n    tag 315\t\t\t\n      JUMPDEST \t\t\t\n      PUSH 1\t\t\t\n      PUSH 1\t\t\t\n      PUSH F8\t\t\t\n      SHL \t\t\t\n      SUB \t\t\t\n      NOT \t\t\t\n      SWAP1 \t\t\t\n      DUP2 \t\t\t\n      AND \t\t\t\n      SWAP2 \t\t\t\n      AND \t\t\t\n      EQ \t\t\t\n      SWAP1 \t\t\t\n      JUMP \t\t\t\n    tag 331\t\t\t\n      JUMPDEST \t\t\t\n      PUSH [tag] 547\t\t\t\n      DUP5 \t\t\t\n      DUP5 \t\t\t\n      DUP5 \t\t\t\n      DUP5 \t\t\t\n      PUSH [tag] 53\t\t\t\n      JUMP \t\t\t\n    tag 547\t\t\t\n      JUMPDEST \t\t\t\n      DUP5 \t\t\t\n      DUP5 \t\t\t\n      SWAP1 \t\t\t\n      SWAP2 \t\t\t\n      PUSH [tag] 548\t\t\t\n      JUMPI \t\t\t\n      PUSH 40\t\t\t\n      MLOAD \t\t\t\n      PUSH 1343D68D\t\t\t\n      PUSH E0\t\t\t\n      SHL \t\t\t\n      DUP2 \t\t\t\n      MSTORE \t\t\t\n      PUSH 4\t\t\t\n      DUP2 \t\t\t\n      ADD \t\t\t\n      SWAP3 \t\t\t\n      SWAP1 \t\t\t\n      SWAP3 \t\t\t\n      MSTORE \t\t\t\n      PUSH 1\t\t\t\n      PUSH 1\t\t\t\n      PUSH A0\t\t\t\n      SHL \t\t\t\n      SUB \t\t\t\n      AND \t\t\t\n      PUSH 24\t\t\t\n      DUP3 \t\t\t\n      ADD \t\t\t\n      MSTORE \t\t\t\n      PUSH 44\t\t\t\n      ADD \t\t\t\n      PUSH [tag] 348\t\t\t\n      JUMP \t\t\t\n    tag 548\t\t\t\n      JUMPDEST \t\t\t\n      POP \t\t\t\n      POP \t\t\t\n      POP \t\t\t\n      POP \t\t\t\n      POP \t\t\t\n      POP \t\t\t\n      JUMP \t\t\t\n    tag 334\t\t\t\n      JUMPDEST \t\t\t\n      PUSH 60\t\t\t\n      PUSH 0\t\t\t) public only\n      PUSH [tag] 551\t\t\tryPoin\n      PUSH [tag] 104\t\t\tryPo\n      JUMP \t\t\tryPoin\n    tag 551\t\t\tryPoin\n      JUMPDEST \t\t\tryPoin\n      SWAP1 \t\t\t) public onlyEntryPoin\n      POP \t\t\t\n      PUSH 60\t\t\t        _addSigners(s\n      PUSH 1\t\t\t\n      PUSH 1\t\t\t\n      PUSH A0\t\t\t\n      SHL \t\t\t\n      SUB \t\t\t\n      DUP3 \t\t\tlic onlyEntryPointO\n      AND \t\t\tlic onlyEntryPointO\n      ISZERO \t\t\tlic onlyEntryPointO\n      PUSH [tag] 552\t\t\t public onlyEntryPointOrSelf {...\n      JUMPI \t\t\t public onlyEntryPointOrSelf {...\n      PUSH 40\t\t\t   _removeSigners(signers);\\n ...\n      MLOAD \t\t\t   _removeSigners(signers);\\n ...\n      PUSH D68F6025\t\t\t\n      PUSH E0\t\t\t\n      SHL \t\t\t\n      DUP2 \t\t\t   _removeSigners(signers);\\n ...\n      MSTORE \t\t\t   _removeSigners(signers);\\n ...\n      PUSH 1\t\t\t\n      PUSH 1\t\t\t\n      PUSH A0\t\t\t\n      SHL \t\t\t\n      SUB \t\t\t\n      DUP4 \t\t\t   _removeSigners(signers);\\n\n      AND \t\t\t   _removeSigners(signers);\\n\n      SWAP1 \t\t\t   _removeSigners(signers);\\n\n      PUSH D68F6025\t\t\t   _removeSigners(signers);\\n\n      SWAP1 \t\t\t   _removeSigners(signers);\\n\n      PUSH [tag] 553\t\t\t   _removeSigners(signers);\\n ...\n      SWAP1 \t\t\t   _removeSigners(signers);\\n ...\n      CALLER \t\t\t   }\\n\\n    \n      SWAP1 \t\t\t   }\\n\\n    \n      CALLVALUE \t\t\tnction se\n      SWAP1 \t\t\tnction se\n      PUSH 0\t\t\threshold\n      SWAP1 \t\t\threshold\n      CALLDATASIZE \t\t\threshold\n      SWAP1 \t\t\threshold\n      PUSH 4\t\t\t   _removeSigners(signers);\\n ...\n      ADD \t\t\t   _removeSigners(signers);\\n ...\n      PUSH [tag] 189\t\t\t   _removeSigners(signers);\\n ...\n      JUMP \t\t\t   _removeSigners(signers);\\n ...\n    tag 553\t\t\t   _removeSigners(signers);\\n ...\n      JUMPDEST \t\t\t   _removeSigners(signers);\\n ...\n      PUSH 0\t\t\t   _removeSigners(signers);\\n ...\n      PUSH 40\t\t\t   _removeSigners(signers);\\n ...\n      MLOAD \t\t\t   _removeSigners(signers);\\n ...\n      DUP1 \t\t\t   _removeSigners(signers);\\n ...\n      DUP4 \t\t\t   _removeSigners(signers);\\n ...\n      SUB \t\t\t   _removeSigners(signers);\\n ...\n      DUP2 \t\t\t   _removeSigners(signers);\\n ...\n      PUSH 0\t\t\t   _removeSigners(signers);\\n ...\n      DUP8 \t\t\t   _removeSigners(signers);\\n ...\n      GAS \t\t\t   _removeSigners(signers);\\n ...\n      CALL \t\t\t   _removeSigners(signers);\\n ...\n      ISZERO \t\t\t   _removeSigners(signers);\\n ...\n      DUP1 \t\t\t   _removeSigners(signers);\\n ...\n      ISZERO \t\t\t   _removeSigners(signers);\\n ...\n      PUSH [tag] 555\t\t\t   _removeSigners(signers);\\n ...\n      JUMPI \t\t\t   _removeSigners(signers);\\n ...\n      RETURNDATASIZE \t\t\t   _removeSigners(signers);\\n ...\n      PUSH 0\t\t\t   _removeSigners(signers);\\n ...\n      PUSH 0\t\t\t   _removeSigners(signers);\\n ...\n      RETURNDATACOPY \t\t\t   _removeSigners(signers);\\n ...\n      RETURNDATASIZE \t\t\t   _removeSigners(signers);\\n ...\n      PUSH 0\t\t\t   _removeSigners(signers);\\n ...\n      REVERT \t\t\t   _removeSigners(signers);\\n ...\n    tag 555\t\t\t   _removeSigners(signers);\\n ...\n      JUMPDEST \t\t\t   _removeSigners(signers);\\n ...\n      POP \t\t\t   _removeSigners(signers);\\n ...\n      POP \t\t\t   _removeSigners(signers);\\n ...\n      POP \t\t\t   _removeSigners(signers);\\n ...\n      POP \t\t\t   _removeSigners(signers);\\n ...\n      PUSH 40\t\t\t   _removeSigners(signers);\\n ...\n      MLOAD \t\t\t   _removeSigners(signers);\\n ...\n      RETURNDATASIZE \t\t\t   _removeSigners(signers);\\n ...\n      PUSH 0\t\t\t   _removeSigners(signers);\\n ...\n      DUP3 \t\t\t   _removeSigners(signers);\\n ...\n      RETURNDATACOPY \t\t\t   _removeSigners(signers);\\n ...\n      PUSH 1F\t\t\t   _removeSigners(signers);\\n ...\n      RETURNDATASIZE \t\t\t   _removeSigners(signers);\\n ...\n      SWAP1 \t\t\t   _removeSigners(signers);\\n ...\n      DUP2 \t\t\t   _removeSigners(signers);\\n ...\n      ADD \t\t\t   _removeSigners(signers);\\n ...\n      PUSH 1F\t\t\t\n      NOT \t\t\t\n      AND \t\t\t   _removeSigners(signers);\\n ...\n      DUP3 \t\t\t   _removeSigners(signers);\\n ...\n      ADD \t\t\t   _removeSigners(signers);\\n ...\n      PUSH 40\t\t\t   _removeSigners(signers);\\n ...\n      MSTORE \t\t\t   _removeSigners(signers);\\n ...\n      PUSH [tag] 556\t\t\t   _removeSigners(signers);\\n ...\n      SWAP2 \t\t\t   _removeSigners(signers);\\n ...\n      SWAP1 \t\t\t   _removeSigners(signers);\\n ...\n      DUP2 \t\t\t   _removeSigners(signers);\\n ...\n      ADD \t\t\t   _removeSigners(signers);\\n ...\n      SWAP1 \t\t\t   _removeSigners(signers);\\n ...\n      PUSH [tag] 193\t\t\t   _removeSigners(signers);\\n ...\n      JUMP \t\t\t   _removeSigners(signers);\\n ...\n    tag 556\t\t\t   _removeSigners(signers);\\n ...\n      JUMPDEST \t\t\t   _removeSigners(signers);\\n ...\n      SWAP1 \t\t\telf {\\n        _removeSigners(...\n      POP \t\t\telf {\\n        _removeSigners(...\n    tag 552\t\t\t public onlyEntryPointOrSelf {...\n      JUMPDEST \t\t\t public onlyEntryPointOrSelf {...\n      PUSH [tag] 558\t\t\t\n      DUP7 \t\t\t\n      DUP7 \t\t\t\n      DUP7 \t\t\t\n      PUSH [tag] 559\t\t\t\n      JUMP \t\t\t\n    tag 558\t\t\t\n      JUMPDEST \t\t\t\n      SWAP3 \t\t\t\n      POP \t\t\t\n      PUSH 1\t\t\t\n      PUSH 1\t\t\t\n      PUSH A0\t\t\t\n      SHL \t\t\t\n      SUB \t\t\t\n      DUP3 \t\t\tonlyEntryPointOrSel\n      AND \t\t\tonlyEntryPointOrSel\n      ISZERO \t\t\tonlyEntryPointOrSel\n      PUSH [tag] 560\t\t\tlic onlyEntryPointOrSelf {\\n  ...\n      JUMPI \t\t\tlic onlyEntryPointOrSelf {\\n  ...\n      PUSH 40\t\t\t{\\n        _setThreshold(thres...\n      MLOAD \t\t\t{\\n        _setThreshold(thres...\n      PUSH B9DFBED\t\t\t\n      PUSH E1\t\t\t\n      SHL \t\t\t\n      DUP2 \t\t\t{\\n        _setThreshold(thres...\n      MSTORE \t\t\t{\\n        _setThreshold(thres...\n      PUSH 1\t\t\t\n      PUSH 1\t\t\t\n      PUSH A0\t\t\t\n      SHL \t\t\t\n      SUB \t\t\t\n      DUP4 \t\t\t{\\n        _setThreshold(thres\n      AND \t\t\t{\\n        _setThreshold(thres\n      SWAP1 \t\t\t{\\n        _setThreshold(thres\n      PUSH 173BF7DA\t\t\t{\\n        _setThreshold(thres\n      SWAP1 \t\t\t{\\n        _setThreshold(thres\n      PUSH [tag] 561\t\t\t{\\n        _setThreshold(thres...\n      SWAP1 \t\t\t{\\n        _setThreshold(thres...\n      DUP5 \t\t\told);\\n  \n      SWAP1 \t\t\told);\\n  \n      PUSH 4\t\t\t{\\n        _setThreshold(thres...\n      ADD \t\t\t{\\n        _setThreshold(thres...\n      PUSH [tag] 131\t\t\t{\\n        _setThreshold(thres...\n      JUMP \t\t\t{\\n        _setThreshold(thres...\n    tag 561\t\t\t{\\n        _setThreshold(thres...\n      JUMPDEST \t\t\t{\\n        _setThreshold(thres...\n      PUSH 0\t\t\t{\\n        _setThreshold(thres...\n      PUSH 40\t\t\t{\\n        _setThreshold(thres...\n      MLOAD \t\t\t{\\n        _setThreshold(thres...\n      DUP1 \t\t\t{\\n        _setThreshold(thres...\n      DUP4 \t\t\t{\\n        _setThreshold(thres...\n      SUB \t\t\t{\\n        _setThreshold(thres...\n      DUP2 \t\t\t{\\n        _setThreshold(thres...\n      PUSH 0\t\t\t{\\n        _setThreshold(thres...\n      DUP8 \t\t\t{\\n        _setThreshold(thres...\n      DUP1 \t\t\t{\\n        _setThreshold(thres...\n      EXTCODESIZE \t\t\t{\\n        _setThreshold(thres...\n      ISZERO \t\t\t{\\n        _setThreshold(thres...\n      DUP1 \t\t\t{\\n        _setThreshold(thres...\n      ISZERO \t\t\t{\\n        _setThreshold(thres...\n      PUSH [tag] 562\t\t\t{\\n        _setThreshold(thres...\n      JUMPI \t\t\t{\\n        _setThreshold(thres...\n      PUSH 0\t\t\t{\\n        _setThreshold(thres...\n      PUSH 0\t\t\t{\\n        _setThreshold(thres...\n      REVERT \t\t\t{\\n        _setThreshold(thres...\n    tag 562\t\t\t{\\n        _setThreshold(thres...\n      JUMPDEST \t\t\t{\\n        _setThreshold(thres...\n      POP \t\t\t{\\n        _setThreshold(thres...\n      GAS \t\t\t{\\n        _setThreshold(thres...\n      CALL \t\t\t{\\n        _setThreshold(thres...\n      ISZERO \t\t\t{\\n        _setThreshold(thres...\n      DUP1 \t\t\t{\\n        _setThreshold(thres...\n      ISZERO \t\t\t{\\n        _setThreshold(thres...\n      PUSH [tag] 564\t\t\t{\\n        _setThreshold(thres...\n      JUMPI \t\t\t{\\n        _setThreshold(thres...\n      RETURNDATASIZE \t\t\t{\\n        _setThreshold(thres...\n      PUSH 0\t\t\t{\\n        _setThreshold(thres...\n      PUSH 0\t\t\t{\\n        _setThreshold(thres...\n      RETURNDATACOPY \t\t\t{\\n        _setThreshold(thres...\n      RETURNDATASIZE \t\t\t{\\n        _setThreshold(thres...\n      PUSH 0\t\t\t{\\n        _setThreshold(thres...\n      REVERT \t\t\t{\\n        _setThreshold(thres...\n    tag 564\t\t\t{\\n        _setThreshold(thres...\n      JUMPDEST \t\t\t{\\n        _setThreshold(thres...\n      POP \t\t\t{\\n        _setThreshold(thres...\n      POP \t\t\t{\\n        _setThreshold(thres...\n      POP \t\t\t{\\n        _setThreshold(thres...\n      POP \t\t\t{\\n        _setThreshold(thres...\n    tag 560\t\t\tlic onlyEntryPointOrSelf {\\n  ...\n      JUMPDEST \t\t\tlic onlyEntryPointOrSelf {\\n  ...\n      POP \t\t\try signers) public onlyEntryPo...\n      POP \t\t\try signers) public onlyEntryPo...\n      SWAP4 \t\t\t\n      SWAP3 \t\t\t\n      POP \t\t\t\n      POP \t\t\t\n      POP \t\t\t\n      JUMP \t\t\t\n    tag 343\t\t\t\n      JUMPDEST \t\t\t\n      PUSH 0\t\t\t\n      PUSH 1\t\t\tg\n      DUP3 \t\t\t\n      EQ \t\t\t\n      DUP1 \t\t\t\n      PUSH [tag] 566\t\t\t\n      JUMPI \t\t\t\n      POP \t\t\t\n      PUSH 2\t\t\tR\n      DUP3 \t\t\t\n      EQ \t\t\t\n    tag 566\t\t\t\n      JUMPDEST \t\t\t\n      DUP1 \t\t\t\n      PUSH [tag] 205\t\t\t\n      JUMPI \t\t\t\n      POP \t\t\t\n      POP \t\t\t\n      PUSH 3\t\t\tE\n      EQ \t\t\t\n      SWAP1 \t\t\t\n      JUMP \t\t\t\n    tag 346\t\t\t\n      JUMPDEST \t\t\t\n      PUSH 1\t\t\t\n      PUSH 1\t\t\t\n      PUSH E0\t\t\t\n      SHL \t\t\t\n      SUB \t\t\t\n      NOT \t\t\t\n      AND \t\t\t\n      PUSH 0\t\t\t\n      SWAP1 \t\t\t\n      DUP2 \t\t\t\n      MSTORE \t\t\t\n      PUSH A47D913D72B2639F4CA1C145CC07DDF7170B73B257C8E0D4FCED7CC8E3E3904\t\t\t\n      PUSH 20\t\t\t\n      MSTORE \t\t\t\n      PUSH 40\t\t\t\n      SWAP1 \t\t\t\n      KECCAK256 \t\t\t\n      SLOAD \t\t\t\n      PUSH 1\t\t\t\n      PUSH 1\t\t\t\n      PUSH A0\t\t\t\n      SHL \t\t\t\n      SUB \t\t\t\n      AND \t\t\t\n      SWAP1 \t\t\t\n      JUMP \t\t\t\n    tag 352\t\t\t@openzeppelin/contracts/token/...\n      JUMPDEST \t\t\t@openzeppelin/contracts/token/...\n      PUSH 0\t\t\t \"@openzeppe\n      PUSH 0\t\t\tol\";\n      PUSH 0\t\t\tP712\n      DUP4 \t\t\taphy\n      MLOAD \t\t\typtography/\n      PUSH 20\t\t\ttils\n      DUP6 \t\t\tacts\n      ADD \t\t\tontracts/utils/\n      DUP7 \t\t\tpelin\n      DUP9 \t\t\t@openz\n      GAS \t\t\t from\n      CALL \t\t\tP712} from \"@openzeppelin/cont...\n      SWAP5 \t\t\t\\nimport {EIP712} from \"@openz...\n      SWAP4 \t\t\t@openzeppelin/contracts/token/...\n      POP \t\t\t\n      POP \t\t\t\n      POP \t\t\t\n      POP \t\t\t\n      JUMP \t\t\t@openzeppelin/contracts/token/...\n    tag 355\t\t\t\n      JUMPDEST \t\t\t\n      PUSH 40\t\t\t\n      MLOAD \t\t\t\n      RETURNDATASIZE \t\t\t\n      DUP2 \t\t\t\n      MSTORE \t\t\t\n      RETURNDATASIZE \t\t\t\n      PUSH 0\t\t\t\n      PUSH 20\t\t\t\n      DUP4 \t\t\t\n      ADD \t\t\t\n      RETURNDATACOPY \t\t\t\n      RETURNDATASIZE \t\t\t\n      PUSH 20\t\t\t\n      ADD \t\t\t\n      DUP2 \t\t\t\n      ADD \t\t\t\n      PUSH 40\t\t\t\n      MSTORE \t\t\t\n      SWAP1 \t\t\t\n      JUMP \t\t\t\n    tag 358\t\t\t\n      JUMPDEST \t\t\t\n      PUSH 40\t\t\t\n      MLOAD \t\t\t\n      RETURNDATASIZE \t\t\t\n      PUSH 0\t\t\t\n      DUP3 \t\t\t\n      RETURNDATACOPY \t\t\t\n      RETURNDATASIZE \t\t\t\n      DUP2 \t\t\t\n      REVERT \t\t\t\n    tag 365\t\t\t\n      JUMPDEST \t\t\t\n      PUSH 1\t\t\t\n      PUSH 1\t\t\t\n      PUSH A0\t\t\t\n      SHL \t\t\t\n      SUB \t\t\t\n      DUP2 \t\t\t\n      AND \t\t\t\n      PUSH 0\t\t\t\n      SWAP1 \t\t\t\n      DUP2 \t\t\t\n      MSTORE \t\t\t\n      PUSH 1\t\t\t\n      DUP4 \t\t\t\n      ADD \t\t\t\n      PUSH 20\t\t\t\n      MSTORE \t\t\t\n      PUSH 40\t\t\t\n      DUP2 \t\t\t\n      KECCAK256 \t\t\t\n      SLOAD \t\t\t\n      ISZERO \t\t\t\n      ISZERO \t\t\t\n      PUSH [tag] 214\t\t\t\n      JUMP \t\t\t\n    tag 376\t\t\tserOp(userOp, userOpHash, sign...\n      JUMPDEST \t\t\tserOp(userOp, userOpHash, sign...\n      PUSH 0\t\t\tC757\n      CALLDATASIZE \t\t\ttract ... is AccountERC7\n      PUSH 0\t\t\ttract ... is AccountERC7\n      PUSH 0\t\t\t, ..., MultiSignerER\n      PUSH 0\t\t\tle)\\n    // to ensure\n      CALLDATASIZE \t\t\trder of function resolution.\\n\n      PUSH 0\t\t\trder of function resolution.\\n\n      PUSH [tag] 578\t\t\ttERC7579Upgradeable returns fa...\n      DUP10 \t\t\ttERC7579Upgradea\n      DUP10 \t\t\ttERC7579Upgradea\n      PUSH [tag] 579\t\t\ttERC7579Upgradeable returns fa...\n      JUMP \t\t\ttERC7579Upgradeable returns fa...\n    tag 578\t\t\ttERC7579Upgradeable returns fa...\n      JUMPDEST \t\t\ttERC7579Upgradeable returns fa...\n      SWAP6 \t\t\thain (i.e. contract ... is Acc...\n      POP \t\t\thain (i.e. contract ... is Acc...\n      SWAP6 \t\t\thain (i.e. contract ... is Acc...\n      POP \t\t\thain (i.e. contract ... is Acc...\n      SWAP6 \t\t\thain (i.e. contract ... is Acc...\n      POP \t\t\thain (i.e. contract ... is Acc...\n      SWAP6 \t\t\thain (i.e. contract ... is Acc...\n      POP \t\t\thain (i.e. contract ... is Acc...\n      SWAP6 \t\t\thain (i.e. contract ... is Acc...\n      POP \t\t\thain (i.e. contract ... is Acc...\n      SWAP6 \t\t\thain (i.e. contract ... is Acc...\n      POP \t\t\thain (i.e. contract ... is Acc...\n      PUSH 0\t\t\trawSignatureValida\n      PUSH 0\t\t\tash, bytes calldata s\n      PUSH 0\t\t\t    internal\\n  \n      PUSH 0\t\t\t     override(MultiSigner\n      PUSH 0\t\t\table, Abstra\n      PUSH [tag] 580\t\t\tntERC7579Upgra\n      PUSH [tag] 109\t\t\tntERC7579Upg\n      JUMP \t\t\tntERC7579Upgra\n    tag 580\t\t\tntERC7579Upgra\n      JUMPDEST \t\t\tntERC7579Upgra\n      POP \t\t\tureValidation\\n    function _r...\n      SWAP6 \t\t\tureValidation\\n    function _r...\n      POP \t\t\tureValidation\\n    function _r...\n      SWAP6 \t\t\tureValidation\\n    function _r...\n      POP \t\t\tureValidation\\n    function _r...\n      SWAP6 \t\t\tureValidation\\n    function _r...\n      POP \t\t\tureValidation\\n    function _r...\n      SWAP6 \t\t\tureValidation\\n    function _r...\n      POP \t\t\tureValidation\\n    function _r...\n      SWAP6 \t\t\tureValidation\\n    function _r...\n      POP \t\t\tureValidation\\n    function _r...\n      POP \t\t\tureValidation\\n    function _r...\n      PUSH [tag] 581\t\t\t\n      DUP9 \t\t\t\n      DUP11 \t\t\t\n      PUSH [tag] 582\t\t\t\n      SWAP1 \t\t\t\n      SWAP2 \t\t\t\n      SWAP1 \t\t\t\n      PUSH FFFFFFFF\t\t\t\n      AND \t\t\t\n      JUMP \t\t\t\n    tag 581\t\t\t\n      JUMPDEST \t\t\t\n      DUP16 \t\t\t\n      EQ \t\t\t\n      DUP1 \t\t\t\n      ISZERO \t\t\t\n      PUSH [tag] 583\t\t\t\n      JUMPI \t\t\t\n      POP \t\t\t\n      DUP6 \t\t\t\n      ISZERO \t\t\t\n      ISZERO \t\t\t\n    tag 583\t\t\t\n      JUMPDEST \t\t\t\n      DUP1 \t\t\t\n      ISZERO \t\t\t\n      PUSH [tag] 585\t\t\t\n      JUMPI \t\t\t\n      POP \t\t\t\n      PUSH [tag] 585\t\t\t\n      PUSH [tag] 586\t\t\t\n      PUSH [tag] 587\t\t\t\n      DUP10 \t\t\t\n      DUP10 \t\t\t\n      DUP13 \t\t\t\n      DUP11 \t\t\t\n      DUP1 \t\t\t\n      MLOAD \t\t\t\n      SWAP1 \t\t\t\n      PUSH 20\t\t\t\n      ADD \t\t\t\n      KECCAK256 \t\t\t\n      DUP11 \t\t\t\n      DUP1 \t\t\t\n      MLOAD \t\t\t\n      SWAP1 \t\t\t\n      PUSH 20\t\t\t\n      ADD \t\t\t\n      KECCAK256 \t\t\t\n      DUP11 \t\t\t\n      DUP11 \t\t\t\n      DUP11 \t\t\t\n      PUSH 40\t\t\t\n      MLOAD \t\t\t\n      PUSH 20\t\t\t\n      ADD \t\t\t\n      PUSH [tag] 588\t\t\t\n      SWAP6 \t\t\t\n      SWAP5 \t\t\t\n      SWAP4 \t\t\t\n      SWAP3 \t\t\t\n      SWAP2 \t\t\t\n      SWAP1 \t\t\t\n      SWAP5 \t\t\t\n      DUP6 \t\t\t\n      MSTORE \t\t\t\n      PUSH 20\t\t\t\n      DUP6 \t\t\t\n      ADD \t\t\t\n      SWAP4 \t\t\t\n      SWAP1 \t\t\t\n      SWAP4 \t\t\t\n      MSTORE \t\t\t\n      PUSH 40\t\t\t\n      DUP5 \t\t\t\n      ADD \t\t\t\n      SWAP2 \t\t\t\n      SWAP1 \t\t\t\n      SWAP2 \t\t\t\n      MSTORE \t\t\t\n      PUSH 1\t\t\t\n      PUSH 1\t\t\t\n      PUSH A0\t\t\t\n      SHL \t\t\t\n      SUB \t\t\t\n      AND \t\t\t\n      PUSH 60\t\t\t\n      DUP4 \t\t\t\n      ADD \t\t\t\n      MSTORE \t\t\t\n      PUSH 80\t\t\t\n      DUP3 \t\t\t\n      ADD \t\t\t\n      MSTORE \t\t\t\n      PUSH A0\t\t\t\n      ADD \t\t\t\n      SWAP1 \t\t\t\n      JUMP \t\t\t\n    tag 588\t\t\t\n      JUMPDEST \t\t\t\n      PUSH 40\t\t\t\n      MLOAD \t\t\t\n      PUSH 20\t\t\t\n      DUP2 \t\t\t\n      DUP4 \t\t\t\n      SUB \t\t\t\n      SUB \t\t\t\n      DUP2 \t\t\t\n      MSTORE \t\t\t\n      SWAP1 \t\t\t\n      PUSH 40\t\t\t\n      MSTORE \t\t\t\n      PUSH [tag] 590\t\t\t\n      JUMP \t\t\t\n    tag 587\t\t\t\n      JUMPDEST \t\t\t\n      DUP12 \t\t\t\n      SWAP1 \t\t\t\n      PUSH [tag] 582\t\t\t\n      JUMP \t\t\t\n    tag 586\t\t\t\n      JUMPDEST \t\t\t\n      DUP13 \t\t\t\n      DUP13 \t\t\t\n      PUSH [tag] 591\t\t\t\n      JUMP \t\t\t\n    tag 585\t\t\t\n      JUMPDEST \t\t\t\n      SWAP16 \t\t\t  }\\n}\\n\n      SWAP15 \t\t\tserOp(userOp, userOpHash, sign...\n      POP \t\t\t\n      POP \t\t\t\n      POP \t\t\t\n      POP \t\t\t\n      POP \t\t\t\n      POP \t\t\t\n      POP \t\t\t\n      POP \t\t\t\n      POP \t\t\t\n      POP \t\t\t\n      POP \t\t\t\n      POP \t\t\t\n      POP \t\t\t\n      POP \t\t\t\n      POP \t\t\t\n      JUMP \t\t\tserOp(userOp, userOpHash, sign...\n    tag 379\t\t\t\\n    // The following functio...\n      JUMPDEST \t\t\t\\n    // The following functio...\n      PUSH 0\t\t\trOpe\n      PUSH [tag] 207\t\t\trOp, bytes32 userOpHash, bytes...\n      PUSH [tag] 594\t\t\t bytes calldata signature)\\n  ...\n      PUSH [tag] 595\t\t\tternal\\n        override(Accou\n      DUP7 \t\t\ttern\n      PUSH [tag] 596\t\t\tternal\\n        override(Acc\n      JUMP \t\t\tternal\\n        override(Accou\n    tag 595\t\t\tternal\\n        override(Accou\n      JUMPDEST \t\t\tternal\\n        override(Accou\n      PUSH [tag] 597\t\t\t bytes calldata sign\n      PUSH [tag] 598\t\t\t bytes calldata si\n      JUMP \t\t\t bytes calldata sign\n    tag 597\t\t\t bytes calldata sign\n      JUMPDEST \t\t\t bytes calldata sign\n      SWAP1 \t\t\t bytes calldata signature)\\n  ...\n      PUSH [tag] 582\t\t\t bytes calldata signature)\\n  ...\n      JUMP \t\t\t bytes calldata signature)\\n  ...\n    tag 594\t\t\t bytes calldata signature)\\n  ...\n      JUMPDEST \t\t\t bytes calldata signature)\\n  ...\n      DUP5 \t\t\t AccountE\n      DUP5 \t\t\t AccountE\n      PUSH [tag] 591\t\t\trOp, bytes32 userOpHash\n      JUMP \t\t\trOp, bytes32 userOpHash, bytes...\n    tag 388\t\t\t\n      JUMPDEST \t\t\t\n      PUSH 0\t\t\t\n      CALLDATASIZE \t\t\t\n      DUP2 \t\t\t\n      PUSH [tag] 600\t\t\t\n      DUP5 \t\t\t\n      DUP7 \t\t\t\n      PUSH [tag] 601\t\t\t\n      JUMP \t\t\t\n    tag 600\t\t\t\n      JUMPDEST \t\t\t\n      PUSH 60\t\t\t\n      SHR \t\t\t\n      PUSH [tag] 602\t\t\t\n      DUP6 \t\t\t\n      PUSH 14\t\t\t\n      DUP2 \t\t\t\n      DUP10 \t\t\t\n      PUSH [tag] 371\t\t\t\n      JUMP \t\t\t\n    tag 602\t\t\t\n      JUMPDEST \t\t\t\n      SWAP3 \t\t\t\n      POP \t\t\t\n      SWAP3 \t\t\t\n      POP \t\t\t\n      SWAP3 \t\t\t\n      POP \t\t\t\n    tag 599\t\t\t\n      JUMPDEST \t\t\t\n      SWAP3 \t\t\t\n      POP \t\t\t\n      SWAP3 \t\t\t\n      POP \t\t\t\n      SWAP3 \t\t\t\n      JUMP \t\t\t\n    tag 411\t\t\t\n      JUMPDEST \t\t\t\n      PUSH 0\t\t\t\n      MLOAD \t\t\t\n      PUSH 20\t\t\t\n      PUSH data FEF1334C9451DD1D4AD00D59BA95327D46027DCD97A396119DABEB776AFE9DEE\t\t\t\n      PUSH 0\t\t\t\n      CODECOPY \t\t\t\n      PUSH 0\t\t\t\n      MLOAD \t\t\t\n      SWAP1 \t\t\t\n      PUSH 0\t\t\t\n      MSTORE \t\t\t\n      DUP1 \t\t\t\n      SLOAD \t\t\t\n      PUSH 0\t\t\t\n      PUSH [tag] 606\t\t\t\n      PUSH DFE169305A533E288E0557DA8D289146D3CC75FA6E04C87599B048A60A4E5602\t\t\t\n      SLOAD \t\t\t\n      PUSH 1\t\t\t\n      PUSH 1\t\t\t\n      PUSH 40\t\t\t\n      SHL \t\t\t\n      SUB \t\t\t\n      AND \t\t\t\n      SWAP1 \t\t\t\n      JUMP \t\t\t\n    tag 606\t\t\t\n      JUMPDEST \t\t\t\n      SWAP1 \t\t\t\n      POP \t\t\t\n      DUP2 \t\t\t\n      DUP2 \t\t\t\n      PUSH 1\t\t\t\n      PUSH 1\t\t\t\n      PUSH 40\t\t\t\n      SHL \t\t\t\n      SUB \t\t\t\n      DUP2 \t\t\t\n      AND \t\t\t\n      DUP3 \t\t\t\n      LT \t\t\t\n      ISZERO \t\t\t\n      PUSH [tag] 461\t\t\t\n      JUMPI \t\t\t\n      PUSH 40\t\t\t\n      MLOAD \t\t\t\n      PUSH 8249D757\t\t\t\n      PUSH E0\t\t\t\n      SHL \t\t\t\n      DUP2 \t\t\t\n      MSTORE \t\t\t\n      PUSH 1\t\t\t\n      PUSH 1\t\t\t\n      PUSH 40\t\t\t\n      SHL \t\t\t\n      SUB \t\t\t\n      SWAP3 \t\t\t\n      DUP4 \t\t\t\n      AND \t\t\t\n      PUSH 4\t\t\t\n      DUP3 \t\t\t\n      ADD \t\t\t\n      MSTORE \t\t\t\n      SWAP2 \t\t\t\n      AND \t\t\t\n      PUSH 24\t\t\t\n      DUP3 \t\t\t\n      ADD \t\t\t\n      MSTORE \t\t\t\n      PUSH 44\t\t\t\n      ADD \t\t\t\n      PUSH [tag] 348\t\t\t\n      JUMP \t\t\t\n    tag 419\t\t\t\n      JUMPDEST \t\t\t\n      PUSH 0\t\t\t\n      PUSH 0\t\t\t\n      PUSH [tag] 611\t\t\t\n      DUP7 \t\t\t\n      PUSH [tag] 612\t\t\t\n      JUMP \t\t\t\n    tag 611\t\t\t\n      JUMPDEST \t\t\t\n      SWAP1 \t\t\t\n      POP \t\t\t\n      PUSH [tag] 613\t\t\t\n      PUSH 1\t\t\tg\n      DUP3 \t\t\t\n      PUSH 0\t\t\ts-upgradeable/account\n      DUP1 \t\t\ts-upgradeable/account\n      PUSH [tag] 53\t\t\thash, signature);\\n    }\\n}\\n\n      JUMP \t\t\thash, signature);\\n    }\\n}\\n\n    tag 613\t\t\t\n      JUMPDEST \t\t\t\n      PUSH [tag] 615\t\t\t\n      JUMPI \t\t\t\n      PUSH [tag] 616\t\t\t\n      DUP7 \t\t\t\n      DUP7 \t\t\t\n      DUP7 \t\t\t\n      DUP7 \t\t\t\n      PUSH [tag] 617\t\t\t\n      JUMP \t\t\t\n    tag 616\t\t\t\n      JUMPDEST \t\t\t\n      PUSH [tag] 625\t\t\t\n      JUMP \t\t\t\n    tag 615\t\t\t\n      JUMPDEST \t\t\t\n      PUSH 40\t\t\t\n      MLOAD \t\t\t\n      PUSH 97003203\t\t\t\n      PUSH E0\t\t\t\n      SHL \t\t\t\n      DUP2 \t\t\t\n      MSTORE \t\t\t\n      PUSH 1\t\t\t\n      PUSH 1\t\t\t\n      PUSH A0\t\t\t\n      SHL \t\t\t\n      SUB \t\t\t\n      DUP3 \t\t\t\n      AND \t\t\t\n      SWAP1 \t\t\t\n      PUSH 97003203\t\t\t\n      SWAP1 \t\t\t\n      PUSH [tag] 621\t\t\t\n      SWAP1 \t\t\t\n      DUP10 \t\t\t\n      SWAP1 \t\t\t\n      DUP10 \t\t\t\n      SWAP1 \t\t\t\n      PUSH 4\t\t\t\n      ADD \t\t\t\n      PUSH [tag] 622\t\t\t\n      JUMP \t\t\t\n    tag 621\t\t\t\n      JUMPDEST \t\t\t\n      PUSH 20\t\t\t\n      PUSH 40\t\t\t\n      MLOAD \t\t\t\n      DUP1 \t\t\t\n      DUP4 \t\t\t\n      SUB \t\t\t\n      DUP2 \t\t\t\n      PUSH 0\t\t\t\n      DUP8 \t\t\t\n      GAS \t\t\t\n      CALL \t\t\t\n      ISZERO \t\t\t\n      DUP1 \t\t\t\n      ISZERO \t\t\t\n      PUSH [tag] 624\t\t\t\n      JUMPI \t\t\t\n      RETURNDATASIZE \t\t\t\n      PUSH 0\t\t\t\n      PUSH 0\t\t\t\n      RETURNDATACOPY \t\t\t\n      RETURNDATASIZE \t\t\t\n      PUSH 0\t\t\t\n      REVERT \t\t\t\n    tag 624\t\t\t\n      JUMPDEST \t\t\t\n      POP \t\t\t\n      POP \t\t\t\n      POP \t\t\t\n      POP \t\t\t\n      PUSH 40\t\t\t\n      MLOAD \t\t\t\n      RETURNDATASIZE \t\t\t\n      PUSH 1F\t\t\t\n      NOT \t\t\t\n      PUSH 1F\t\t\t\n      DUP3 \t\t\t\n      ADD \t\t\t\n      AND \t\t\t\n      DUP3 \t\t\t\n      ADD \t\t\t\n      DUP1 \t\t\t\n      PUSH 40\t\t\t\n      MSTORE \t\t\t\n      POP \t\t\t\n      DUP2 \t\t\t\n      ADD \t\t\t\n      SWAP1 \t\t\t\n      PUSH [tag] 625\t\t\t\n      SWAP2 \t\t\t\n      SWAP1 \t\t\t\n      PUSH [tag] 244\t\t\t\n      JUMP \t\t\t\n    tag 625\t\t\t\n      JUMPDEST \t\t\t\n      SWAP7 \t\t\t\n      SWAP6 \t\t\t\n      POP \t\t\t\n      POP \t\t\t\n      POP \t\t\t\n      POP \t\t\t\n      POP \t\t\t\n      POP \t\t\t\n      JUMP \t\t\t\n    tag 436\t\t\t\n      JUMPDEST \t\t\t\n      PUSH 0\t\t\t\n      PUSH 0\t\t\t\n      DUP4 \t\t\t\n      PUSH 1\t\t\t\n      ADD \t\t\t\n      DUP4 \t\t\t\n      PUSH 40\t\t\t\n      MLOAD \t\t\t\n      PUSH [tag] 627\t\t\t\n      SWAP2 \t\t\t\n      SWAP1 \t\t\t\n      PUSH [tag] 426\t\t\t\n      JUMP \t\t\t\n    tag 627\t\t\t\n      JUMPDEST \t\t\t\n      SWAP1 \t\t\t\n      DUP2 \t\t\t\n      MSTORE \t\t\t\n      PUSH 20\t\t\t\n      ADD \t\t\t\n      PUSH 40\t\t\t\n      MLOAD \t\t\t\n      DUP1 \t\t\t\n      SWAP2 \t\t\t\n      SUB \t\t\t\n      SWAP1 \t\t\t\n      KECCAK256 \t\t\t\n      SLOAD \t\t\t\n      SWAP1 \t\t\t\n      POP \t\t\t\n      DUP1 \t\t\t\n      PUSH 0\t\t\t\n      EQ \t\t\t\n      PUSH [tag] 628\t\t\t\n      JUMPI \t\t\t\n      PUSH 0\t\t\t\n      PUSH [tag] 629\t\t\t\n      PUSH 1\t\t\t\n      DUP4 \t\t\t\n      PUSH [tag] 630\t\t\t\n      JUMP \t\t\t\n    tag 629\t\t\t\n      JUMPDEST \t\t\t\n      DUP6 \t\t\t\n      SLOAD \t\t\t\n      SWAP1 \t\t\t\n      SWAP2 \t\t\t\n      POP \t\t\t\n      PUSH 0\t\t\t\n      SWAP1 \t\t\t\n      PUSH [tag] 631\t\t\t\n      SWAP1 \t\t\t\n      PUSH 1\t\t\t\n      SWAP1 \t\t\t\n      PUSH [tag] 630\t\t\t\n      JUMP \t\t\t\n    tag 631\t\t\t\n      JUMPDEST \t\t\t\n      SWAP1 \t\t\t\n      POP \t\t\t\n      DUP1 \t\t\t\n      DUP3 \t\t\t\n      EQ \t\t\t\n      PUSH [tag] 632\t\t\t\n      JUMPI \t\t\t\n      PUSH 0\t\t\t\n      DUP7 \t\t\t\n      PUSH 0\t\t\t\n      ADD \t\t\t\n      DUP3 \t\t\t\n      DUP2 \t\t\t\n      SLOAD \t\t\t\n      DUP2 \t\t\t\n      LT \t\t\t\n      PUSH [tag] 634\t\t\t\n      JUMPI \t\t\t\n      PUSH [tag] 634\t\t\t\n      PUSH [tag] 434\t\t\t\n      JUMP \t\t\t\n    tag 634\t\t\t\n      JUMPDEST \t\t\t\n      SWAP1 \t\t\t\n      PUSH 0\t\t\t\n      MSTORE \t\t\t\n      PUSH 20\t\t\t\n      PUSH 0\t\t\t\n      KECCAK256 \t\t\t\n      ADD \t\t\t\n      DUP1 \t\t\t\n      SLOAD \t\t\t\n      PUSH [tag] 636\t\t\t\n      SWAP1 \t\t\t\n      PUSH [tag] 481\t\t\t\n      JUMP \t\t\t\n    tag 636\t\t\t\n      JUMPDEST \t\t\t\n      DUP1 \t\t\t\n      PUSH 1F\t\t\t\n      ADD \t\t\t\n      PUSH 20\t\t\t\n      DUP1 \t\t\t\n      SWAP2 \t\t\t\n      DIV \t\t\t\n      MUL \t\t\t\n      PUSH 20\t\t\t\n      ADD \t\t\t\n      PUSH 40\t\t\t\n      MLOAD \t\t\t\n      SWAP1 \t\t\t\n      DUP2 \t\t\t\n      ADD \t\t\t\n      PUSH 40\t\t\t\n      MSTORE \t\t\t\n      DUP1 \t\t\t\n      SWAP3 \t\t\t\n      SWAP2 \t\t\t\n      SWAP1 \t\t\t\n      DUP2 \t\t\t\n      DUP2 \t\t\t\n      MSTORE \t\t\t\n      PUSH 20\t\t\t\n      ADD \t\t\t\n      DUP3 \t\t\t\n      DUP1 \t\t\t\n      SLOAD \t\t\t\n      PUSH [tag] 637\t\t\t\n      SWAP1 \t\t\t\n      PUSH [tag] 481\t\t\t\n      JUMP \t\t\t\n    tag 637\t\t\t\n      JUMPDEST \t\t\t\n      DUP1 \t\t\t\n      ISZERO \t\t\t\n      PUSH [tag] 638\t\t\t\n      JUMPI \t\t\t\n      DUP1 \t\t\t\n      PUSH 1F\t\t\t\n      LT \t\t\t\n      PUSH [tag] 639\t\t\t\n      JUMPI \t\t\t\n      PUSH 100\t\t\t\n      DUP1 \t\t\t\n      DUP4 \t\t\t\n      SLOAD \t\t\t\n      DIV \t\t\t\n      MUL \t\t\t\n      DUP4 \t\t\t\n      MSTORE \t\t\t\n      SWAP2 \t\t\t\n      PUSH 20\t\t\t\n      ADD \t\t\t\n      SWAP2 \t\t\t\n      PUSH [tag] 638\t\t\t\n      JUMP \t\t\t\n    tag 639\t\t\t\n      JUMPDEST \t\t\t\n      DUP3 \t\t\t\n      ADD \t\t\t\n      SWAP2 \t\t\t\n      SWAP1 \t\t\t\n      PUSH 0\t\t\t\n      MSTORE \t\t\t\n      PUSH 20\t\t\t\n      PUSH 0\t\t\t\n      KECCAK256 \t\t\t\n      SWAP1 \t\t\t\n    tag 640\t\t\t\n      JUMPDEST \t\t\t\n      DUP2 \t\t\t\n      SLOAD \t\t\t\n      DUP2 \t\t\t\n      MSTORE \t\t\t\n      SWAP1 \t\t\t\n      PUSH 1\t\t\t\n      ADD \t\t\t\n      SWAP1 \t\t\t\n      PUSH 20\t\t\t\n      ADD \t\t\t\n      DUP1 \t\t\t\n      DUP4 \t\t\t\n      GT \t\t\t\n      PUSH [tag] 640\t\t\t\n      JUMPI \t\t\t\n      DUP3 \t\t\t\n      SWAP1 \t\t\t\n      SUB \t\t\t\n      PUSH 1F\t\t\t\n      AND \t\t\t\n      DUP3 \t\t\t\n      ADD \t\t\t\n      SWAP2 \t\t\t\n    tag 638\t\t\t\n      JUMPDEST \t\t\t\n      POP \t\t\t\n      POP \t\t\t\n      POP \t\t\t\n      POP \t\t\t\n      POP \t\t\t\n      SWAP1 \t\t\t\n      POP \t\t\t\n      DUP1 \t\t\t\n      DUP8 \t\t\t\n      PUSH 0\t\t\t\n      ADD \t\t\t\n      DUP5 \t\t\t\n      DUP2 \t\t\t\n      SLOAD \t\t\t\n      DUP2 \t\t\t\n      LT \t\t\t\n      PUSH [tag] 642\t\t\t\n      JUMPI \t\t\t\n      PUSH [tag] 642\t\t\t\n      PUSH [tag] 434\t\t\t\n      JUMP \t\t\t\n    tag 642\t\t\t\n      JUMPDEST \t\t\t\n      SWAP1 \t\t\t\n      PUSH 0\t\t\t\n      MSTORE \t\t\t\n      PUSH 20\t\t\t\n      PUSH 0\t\t\t\n      KECCAK256 \t\t\t\n      ADD \t\t\t\n      SWAP1 \t\t\t\n      DUP2 \t\t\t\n      PUSH [tag] 644\t\t\t\n      SWAP2 \t\t\t\n      SWAP1 \t\t\t\n      PUSH [tag] 645\t\t\t\n      JUMP \t\t\t\n    tag 644\t\t\t\n      JUMPDEST \t\t\t\n      POP \t\t\t\n      DUP4 \t\t\t\n      DUP8 \t\t\t\n      PUSH 1\t\t\t\n      ADD \t\t\t\n      DUP3 \t\t\t\n      PUSH 40\t\t\t\n      MLOAD \t\t\t\n      PUSH [tag] 646\t\t\t\n      SWAP2 \t\t\t\n      SWAP1 \t\t\t\n      PUSH [tag] 426\t\t\t\n      JUMP \t\t\t\n    tag 646\t\t\t\n      JUMPDEST \t\t\t\n      SWAP1 \t\t\t\n      DUP2 \t\t\t\n      MSTORE \t\t\t\n      PUSH 40\t\t\t\n      MLOAD \t\t\t\n      SWAP1 \t\t\t\n      DUP2 \t\t\t\n      SWAP1 \t\t\t\n      SUB \t\t\t\n      PUSH 20\t\t\t\n      ADD \t\t\t\n      SWAP1 \t\t\t\n      KECCAK256 \t\t\t\n      SSTORE \t\t\t\n      POP \t\t\t\n    tag 632\t\t\t\n      JUMPDEST \t\t\t\n      DUP6 \t\t\t\n      SLOAD \t\t\t\n      DUP7 \t\t\t\n      SWAP1 \t\t\t\n      DUP1 \t\t\t\n      PUSH [tag] 648\t\t\t\n      JUMPI \t\t\t\n      PUSH [tag] 648\t\t\t\n      PUSH [tag] 649\t\t\t\n      JUMP \t\t\t\n    tag 648\t\t\t\n      JUMPDEST \t\t\t\n      PUSH 1\t\t\t\n      SWAP1 \t\t\t\n      SUB \t\t\t\n      DUP2 \t\t\t\n      DUP2 \t\t\t\n      SWAP1 \t\t\t\n      PUSH 0\t\t\t\n      MSTORE \t\t\t\n      PUSH 20\t\t\t\n      PUSH 0\t\t\t\n      KECCAK256 \t\t\t\n      ADD \t\t\t\n      PUSH 0\t\t\t\n      PUSH [tag] 651\t\t\t\n      SWAP2 \t\t\t\n      SWAP1 \t\t\t\n      PUSH [tag] 652\t\t\t\n      JUMP \t\t\t\n    tag 651\t\t\t\n      JUMPDEST \t\t\t\n      SWAP1 \t\t\t\n      SSTORE \t\t\t\n      DUP6 \t\t\t\n      PUSH 1\t\t\t\n      ADD \t\t\t\n      DUP6 \t\t\t\n      PUSH 40\t\t\t\n      MLOAD \t\t\t\n      PUSH [tag] 653\t\t\t\n      SWAP2 \t\t\t\n      SWAP1 \t\t\t\n      PUSH [tag] 426\t\t\t\n      JUMP \t\t\t\n    tag 653\t\t\t\n      JUMPDEST \t\t\t\n      SWAP1 \t\t\t\n      DUP2 \t\t\t\n      MSTORE \t\t\t\n      PUSH 20\t\t\t\n      ADD \t\t\t\n      PUSH 40\t\t\t\n      MLOAD \t\t\t\n      DUP1 \t\t\t\n      SWAP2 \t\t\t\n      SUB \t\t\t\n      SWAP1 \t\t\t\n      KECCAK256 \t\t\t\n      PUSH 0\t\t\t\n      SWAP1 \t\t\t\n      SSTORE \t\t\t\n      PUSH 1\t\t\t\n      SWAP4 \t\t\t\n      POP \t\t\t\n      POP \t\t\t\n      POP \t\t\t\n      POP \t\t\t\n      PUSH [tag] 205\t\t\t\n      JUMP \t\t\t\n    tag 628\t\t\t\n      JUMPDEST \t\t\t\n      PUSH 0\t\t\t\n      SWAP2 \t\t\t\n      POP \t\t\t\n      POP \t\t\t\n      PUSH [tag] 205\t\t\t\n      JUMP \t\t\t\n    tag 654\t\t\t\n      JUMPDEST \t\t\t\n      POP \t\t\t\n      SWAP3 \t\t\t\n      SWAP2 \t\t\t\n      POP \t\t\t\n      POP \t\t\t\n      JUMP \t\t\t\n    tag 444\t\t\tccountERC7579Upgradeable retur...\n      JUMPDEST \t\t\tccountERC7579Upgradeable retur...\n      PUSH 60\t\t\talidation(byt\n      PUSH FF\t\t\tiSignerERC7913Upgradeable, ERC...\n      DUP4 \t\t\t calldata signature)\\n        ...\n      EQ \t\t\t calldata signature)\\n        ...\n      PUSH [tag] 656\t\t\tytes calldata signature)\\n    ...\n      JUMPI \t\t\tytes calldata signature)\\n    ...\n      PUSH [tag] 657\t\t\tultiSignerERC79\n      DUP4 \t\t\trERC7\n      PUSH [tag] 658\t\t\tultiSign\n      JUMP \t\t\tultiSignerERC79\n    tag 657\t\t\tultiSignerERC79\n      JUMPDEST \t\t\tultiSignerERC79\n      SWAP1 \t\t\trride(MultiSignerERC79\n      POP \t\t\trride(MultiSignerERC79\n      PUSH [tag] 205\t\t\trride(MultiSignerERC79\n      JUMP \t\t\trride(MultiSignerERC79\n    tag 656\t\t\tytes calldata signature)\\n    ...\n      JUMPDEST \t\t\tytes calldata signature)\\n    ...\n      DUP2 \t\t\tERC75\n      DUP1 \t\t\tAccountERC75\n      SLOAD \t\t\tAccountERC75\n      PUSH [tag] 660\t\t\tAccountERC75\n      SWAP1 \t\t\tAccountERC75\n      PUSH [tag] 481\t\t\tAccountERC75\n      JUMP \t\t\tAccountERC75\n    tag 660\t\t\tAccountERC75\n      JUMPDEST \t\t\tAccountERC75\n      DUP1 \t\t\tAccountERC75\n      PUSH 1F\t\t\tAccountERC75\n      ADD \t\t\tAccountERC75\n      PUSH 20\t\t\tAccountERC75\n      DUP1 \t\t\tAccountERC75\n      SWAP2 \t\t\tAccountERC75\n      DIV \t\t\tAccountERC75\n      MUL \t\t\tAccountERC75\n      PUSH 20\t\t\tAccountERC75\n      ADD \t\t\tAccountERC75\n      PUSH 40\t\t\tAccountERC75\n      MLOAD \t\t\tAccountERC75\n      SWAP1 \t\t\tAccountERC75\n      DUP2 \t\t\tAccountERC75\n      ADD \t\t\tAccountERC75\n      PUSH 40\t\t\tAccountERC75\n      MSTORE \t\t\tAccountERC75\n      DUP1 \t\t\tAccountERC75\n      SWAP3 \t\t\tAccountERC75\n      SWAP2 \t\t\tAccountERC75\n      SWAP1 \t\t\tAccountERC75\n      DUP2 \t\t\tAccountERC75\n      DUP2 \t\t\tAccountERC75\n      MSTORE \t\t\tAccountERC75\n      PUSH 20\t\t\tAccountERC75\n      ADD \t\t\tAccountERC75\n      DUP3 \t\t\tAccountERC75\n      DUP1 \t\t\tAccountERC75\n      SLOAD \t\t\tAccountERC75\n      PUSH [tag] 661\t\t\tAccountERC75\n      SWAP1 \t\t\tAccountERC75\n      PUSH [tag] 481\t\t\tAccountERC75\n      JUMP \t\t\tAccountERC75\n    tag 661\t\t\tAccountERC75\n      JUMPDEST \t\t\tAccountERC75\n      DUP1 \t\t\tAccountERC75\n      ISZERO \t\t\tAccountERC75\n      PUSH [tag] 662\t\t\tAccountERC75\n      JUMPI \t\t\tAccountERC75\n      DUP1 \t\t\tAccountERC75\n      PUSH 1F\t\t\tAccountERC75\n      LT \t\t\tAccountERC75\n      PUSH [tag] 663\t\t\tAccountERC75\n      JUMPI \t\t\tAccountERC75\n      PUSH 100\t\t\tAccountERC75\n      DUP1 \t\t\tAccountERC75\n      DUP4 \t\t\tAccountERC75\n      SLOAD \t\t\tAccountERC75\n      DIV \t\t\tAccountERC75\n      MUL \t\t\tAccountERC75\n      DUP4 \t\t\tAccountERC75\n      MSTORE \t\t\tAccountERC75\n      SWAP2 \t\t\tAccountERC75\n      PUSH 20\t\t\tAccountERC75\n      ADD \t\t\tAccountERC75\n      SWAP2 \t\t\tAccountERC75\n      PUSH [tag] 662\t\t\tAccountERC75\n      JUMP \t\t\tAccountERC75\n    tag 663\t\t\tAccountERC75\n      JUMPDEST \t\t\tAccountERC75\n      DUP3 \t\t\tAccountERC75\n      ADD \t\t\tAccountERC75\n      SWAP2 \t\t\tAccountERC75\n      SWAP1 \t\t\tAccountERC75\n      PUSH 0\t\t\tAccountERC75\n      MSTORE \t\t\tAccountERC75\n      PUSH 20\t\t\tAccountERC75\n      PUSH 0\t\t\tAccountERC75\n      KECCAK256 \t\t\tAccountERC75\n      SWAP1 \t\t\tAccountERC75\n    tag 664\t\t\tAccountERC75\n      JUMPDEST \t\t\tAccountERC75\n      DUP2 \t\t\tAccountERC75\n      SLOAD \t\t\tAccountERC75\n      DUP2 \t\t\tAccountERC75\n      MSTORE \t\t\tAccountERC75\n      SWAP1 \t\t\tAccountERC75\n      PUSH 1\t\t\tAccountERC75\n      ADD \t\t\tAccountERC75\n      SWAP1 \t\t\tAccountERC75\n      PUSH 20\t\t\tAccountERC75\n      ADD \t\t\tAccountERC75\n      DUP1 \t\t\tAccountERC75\n      DUP4 \t\t\tAccountERC75\n      GT \t\t\tAccountERC75\n      PUSH [tag] 664\t\t\tAccountERC75\n      JUMPI \t\t\tAccountERC75\n      DUP3 \t\t\tAccountERC75\n      SWAP1 \t\t\tAccountERC75\n      SUB \t\t\tAccountERC75\n      PUSH 1F\t\t\tAccountERC75\n      AND \t\t\tAccountERC75\n      DUP3 \t\t\tAccountERC75\n      ADD \t\t\tAccountERC75\n      SWAP2 \t\t\tAccountERC75\n    tag 662\t\t\tAccountERC75\n      JUMPDEST \t\t\tAccountERC75\n      POP \t\t\tAccountERC75\n      POP \t\t\tAccountERC75\n      POP \t\t\tAccountERC75\n      POP \t\t\tAccountERC75\n      POP \t\t\tAccountERC75\n      SWAP1 \t\t\tAccountERC75\n      POP \t\t\tAccountERC75\n      PUSH [tag] 205\t\t\tAccountERC75\n      JUMP \t\t\tAccountERC75\n    tag 460\t\t\t\n      JUMPDEST \t\t\t\n      PUSH A47D913D72B2639F4CA1C145CC07DDF7170B73B257C8E0D4FCED7CC8E3E3900\t\t\t\n      PUSH [tag] 667\t\t\t\n      DUP5 \t\t\t\n      PUSH [tag] 183\t\t\t\n      JUMP \t\t\t\n    tag 667\t\t\t\n      JUMPDEST \t\t\t\n      DUP5 \t\t\t\n      SWAP1 \t\t\t\n      PUSH [tag] 668\t\t\t\n      JUMPI \t\t\t\n      PUSH 40\t\t\t\n      MLOAD \t\t\t\n      PUSH 60FA2B23\t\t\t\n      PUSH E0\t\t\t\n      SHL \t\t\t\n      DUP2 \t\t\t\n      MSTORE \t\t\t\n      PUSH 4\t\t\t\n      ADD \t\t\t\n      PUSH [tag] 348\t\t\t\n      SWAP2 \t\t\t\n      DUP2 \t\t\t\n      MSTORE \t\t\t\n      PUSH 20\t\t\t\n      ADD \t\t\t\n      SWAP1 \t\t\t\n      JUMP \t\t\t\n    tag 668\t\t\t\n      JUMPDEST \t\t\t\n      POP \t\t\t\n      PUSH 40\t\t\t\n      MLOAD \t\t\t\n      PUSH ECD05961\t\t\t\n      PUSH E0\t\t\t\n      SHL \t\t\t\n      DUP2 \t\t\t\n      MSTORE \t\t\t\n      PUSH 4\t\t\t\n      DUP2 \t\t\t\n      ADD \t\t\t\n      DUP6 \t\t\t\n      SWAP1 \t\t\t\n      MSTORE \t\t\t\n      PUSH 1\t\t\t\n      PUSH 1\t\t\t\n      PUSH A0\t\t\t\n      SHL \t\t\t\n      SUB \t\t\t\n      DUP5 \t\t\t\n      AND \t\t\t\n      SWAP1 \t\t\t\n      PUSH ECD05961\t\t\t\n      SWAP1 \t\t\t\n      PUSH 24\t\t\t\n      ADD \t\t\t\n      PUSH 20\t\t\t\n      PUSH 40\t\t\t\n      MLOAD \t\t\t\n      DUP1 \t\t\t\n      DUP4 \t\t\t\n      SUB \t\t\t\n      DUP2 \t\t\t\n      DUP7 \t\t\t\n      GAS \t\t\t\n      STATICCALL \t\t\t\n      ISZERO \t\t\t\n      DUP1 \t\t\t\n      ISZERO \t\t\t\n      PUSH [tag] 672\t\t\t\n      JUMPI \t\t\t\n      RETURNDATASIZE \t\t\t\n      PUSH 0\t\t\t\n      PUSH 0\t\t\t\n      RETURNDATACOPY \t\t\t\n      RETURNDATASIZE \t\t\t\n      PUSH 0\t\t\t\n      REVERT \t\t\t\n    tag 672\t\t\t\n      JUMPDEST \t\t\t\n      POP \t\t\t\n      POP \t\t\t\n      POP \t\t\t\n      POP \t\t\t\n      PUSH 40\t\t\t\n      MLOAD \t\t\t\n      RETURNDATASIZE \t\t\t\n      PUSH 1F\t\t\t\n      NOT \t\t\t\n      PUSH 1F\t\t\t\n      DUP3 \t\t\t\n      ADD \t\t\t\n      AND \t\t\t\n      DUP3 \t\t\t\n      ADD \t\t\t\n      DUP1 \t\t\t\n      PUSH 40\t\t\t\n      MSTORE \t\t\t\n      POP \t\t\t\n      DUP2 \t\t\t\n      ADD \t\t\t\n      SWAP1 \t\t\t\n      PUSH [tag] 673\t\t\t\n      SWAP2 \t\t\t\n      SWAP1 \t\t\t\n      PUSH [tag] 674\t\t\t\n      JUMP \t\t\t\n    tag 673\t\t\t\n      JUMPDEST \t\t\t\n      DUP5 \t\t\t\n      DUP5 \t\t\t\n      SWAP1 \t\t\t\n      SWAP2 \t\t\t\n      PUSH [tag] 675\t\t\t\n      JUMPI \t\t\t\n      PUSH 40\t\t\t\n      MLOAD \t\t\t\n      PUSH 8F89476F\t\t\t\n      PUSH E0\t\t\t\n      SHL \t\t\t\n      DUP2 \t\t\t\n      MSTORE \t\t\t\n      PUSH 4\t\t\t\n      DUP2 \t\t\t\n      ADD \t\t\t\n      SWAP3 \t\t\t\n      SWAP1 \t\t\t\n      SWAP3 \t\t\t\n      MSTORE \t\t\t\n      PUSH 1\t\t\t\n      PUSH 1\t\t\t\n      PUSH A0\t\t\t\n      SHL \t\t\t\n      SUB \t\t\t\n      AND \t\t\t\n      PUSH 24\t\t\t\n      DUP3 \t\t\t\n      ADD \t\t\t\n      MSTORE \t\t\t\n      PUSH 44\t\t\t\n      ADD \t\t\t\n      PUSH [tag] 348\t\t\t\n      JUMP \t\t\t\n    tag 675\t\t\t\n      JUMPDEST \t\t\t\n      POP \t\t\t\n      POP \t\t\t\n      PUSH 1\t\t\tg\n      DUP5 \t\t\t\n      SUB \t\t\t\n      PUSH [tag] 677\t\t\t\n      JUMPI \t\t\t\n      PUSH [tag] 678\t\t\t\n      DUP2 \t\t\t\n      DUP5 \t\t\t\n      PUSH [tag] 679\t\t\t\n      JUMP \t\t\t\n    tag 678\t\t\t\n      JUMPDEST \t\t\t\n      DUP5 \t\t\t\n      DUP5 \t\t\t\n      SWAP1 \t\t\t\n      SWAP2 \t\t\t\n      PUSH [tag] 680\t\t\t\n      JUMPI \t\t\t\n      PUSH 40\t\t\t\n      MLOAD \t\t\t\n      PUSH 95D48A5B\t\t\t\n      PUSH E0\t\t\t\n      SHL \t\t\t\n      DUP2 \t\t\t\n      MSTORE \t\t\t\n      PUSH 4\t\t\t\n      DUP2 \t\t\t\n      ADD \t\t\t\n      SWAP3 \t\t\t\n      SWAP1 \t\t\t\n      SWAP3 \t\t\t\n      MSTORE \t\t\t\n      PUSH 1\t\t\t\n      PUSH 1\t\t\t\n      PUSH A0\t\t\t\n      SHL \t\t\t\n      SUB \t\t\t\n      AND \t\t\t\n      PUSH 24\t\t\t\n      DUP3 \t\t\t\n      ADD \t\t\t\n      MSTORE \t\t\t\n      PUSH 44\t\t\t\n      ADD \t\t\t\n      PUSH [tag] 348\t\t\t\n      JUMP \t\t\t\n    tag 680\t\t\t\n      JUMPDEST \t\t\t\n      POP \t\t\t\n      POP \t\t\t\n      PUSH [tag] 688\t\t\t\n      JUMP \t\t\t\n    tag 677\t\t\t\n      JUMPDEST \t\t\t\n      PUSH 2\t\t\tR\n      DUP5 \t\t\t\n      SUB \t\t\t\n      PUSH [tag] 683\t\t\t\n      JUMPI \t\t\t\n      PUSH [tag] 678\t\t\t\n      PUSH 2\t\t\t\n      DUP3 \t\t\t\n      ADD \t\t\t\n      DUP5 \t\t\t\n      PUSH [tag] 679\t\t\t\n      JUMP \t\t\t\n    tag 683\t\t\t\n      JUMPDEST \t\t\t\n      PUSH 3\t\t\tE\n      DUP5 \t\t\t\n      SUB \t\t\t\n      PUSH [tag] 688\t\t\t\n      JUMPI \t\t\t\n      PUSH 0\t\t\t\n      PUSH [tag] 689\t\t\t\n      DUP4 \t\t\t\n      PUSH [tag] 690\t\t\t\n      JUMP \t\t\t\n    tag 689\t\t\t\n      JUMPDEST \t\t\t\n      PUSH 1\t\t\t\n      PUSH 1\t\t\t\n      PUSH E0\t\t\t\n      SHL \t\t\t\n      SUB \t\t\t\n      NOT \t\t\t\n      DUP3 \t\t\t\n      AND \t\t\t\n      PUSH 0\t\t\t\n      SWAP1 \t\t\t\n      DUP2 \t\t\t\n      MSTORE \t\t\t\n      PUSH 4\t\t\t\n      DUP6 \t\t\t\n      ADD \t\t\t\n      PUSH 20\t\t\t\n      MSTORE \t\t\t\n      PUSH 40\t\t\t\n      SWAP1 \t\t\t\n      KECCAK256 \t\t\t\n      SLOAD \t\t\t\n      SWAP1 \t\t\t\n      SWAP5 \t\t\t\n      POP \t\t\t\n      SWAP1 \t\t\t\n      SWAP2 \t\t\t\n      POP \t\t\t\n      DUP6 \t\t\t\n      SWAP1 \t\t\t\n      DUP6 \t\t\t\n      SWAP1 \t\t\t\n      PUSH 1\t\t\t\n      PUSH 1\t\t\t\n      PUSH A0\t\t\t\n      SHL \t\t\t\n      SUB \t\t\t\n      AND \t\t\t\n      ISZERO \t\t\t\n      PUSH [tag] 691\t\t\t\n      JUMPI \t\t\t\n      PUSH 40\t\t\t\n      MLOAD \t\t\t\n      PUSH 95D48A5B\t\t\t\n      PUSH E0\t\t\t\n      SHL \t\t\t\n      DUP2 \t\t\t\n      MSTORE \t\t\t\n      PUSH 4\t\t\t\n      DUP2 \t\t\t\n      ADD \t\t\t\n      SWAP3 \t\t\t\n      SWAP1 \t\t\t\n      SWAP3 \t\t\t\n      MSTORE \t\t\t\n      PUSH 1\t\t\t\n      PUSH 1\t\t\t\n      PUSH A0\t\t\t\n      SHL \t\t\t\n      SUB \t\t\t\n      AND \t\t\t\n      PUSH 24\t\t\t\n      DUP3 \t\t\t\n      ADD \t\t\t\n      MSTORE \t\t\t\n      PUSH 44\t\t\t\n      ADD \t\t\t\n      PUSH [tag] 348\t\t\t\n      JUMP \t\t\t\n    tag 691\t\t\t\n      JUMPDEST \t\t\t\n      POP \t\t\t\n      POP \t\t\t\n      PUSH 1\t\t\t\n      PUSH 1\t\t\t\n      PUSH E0\t\t\t\n      SHL \t\t\t\n      SUB \t\t\t\n      NOT \t\t\t\n      AND \t\t\t\n      PUSH 0\t\t\t\n      SWAP1 \t\t\t\n      DUP2 \t\t\t\n      MSTORE \t\t\t\n      PUSH 4\t\t\t\n      DUP3 \t\t\t\n      ADD \t\t\t\n      PUSH 20\t\t\t\n      MSTORE \t\t\t\n      PUSH 40\t\t\t\n      SWAP1 \t\t\t\n      KECCAK256 \t\t\t\n      DUP1 \t\t\t\n      SLOAD \t\t\t\n      PUSH 1\t\t\t\n      PUSH 1\t\t\t\n      PUSH A0\t\t\t\n      SHL \t\t\t\n      SUB \t\t\t\n      NOT \t\t\t\n      AND \t\t\t\n      PUSH 1\t\t\t\n      PUSH 1\t\t\t\n      PUSH A0\t\t\t\n      SHL \t\t\t\n      SUB \t\t\t\n      DUP6 \t\t\t\n      AND \t\t\t\n      OR \t\t\t\n      SWAP1 \t\t\t\n      SSTORE \t\t\t\n    tag 688\t\t\t\n      JUMPDEST \t\t\t\n      PUSH 40\t\t\t\n      MLOAD \t\t\t\n      PUSH 6D61FE7\t\t\t\n      PUSH E4\t\t\t\n      SHL \t\t\t\n      DUP2 \t\t\t\n      MSTORE \t\t\t\n      PUSH 1\t\t\t\n      PUSH 1\t\t\t\n      PUSH A0\t\t\t\n      SHL \t\t\t\n      SUB \t\t\t\n      DUP5 \t\t\t\n      AND \t\t\t\n      SWAP1 \t\t\t\n      PUSH 6D61FE70\t\t\t\n      SWAP1 \t\t\t\n      PUSH [tag] 693\t\t\t\n      SWAP1 \t\t\t\n      DUP6 \t\t\t\n      SWAP1 \t\t\t\n      PUSH 4\t\t\t\n      ADD \t\t\t\n      PUSH [tag] 131\t\t\t\n      JUMP \t\t\t\n    tag 693\t\t\t\n      JUMPDEST \t\t\t\n      PUSH 0\t\t\t\n      PUSH 40\t\t\t\n      MLOAD \t\t\t\n      DUP1 \t\t\t\n      DUP4 \t\t\t\n      SUB \t\t\t\n      DUP2 \t\t\t\n      PUSH 0\t\t\t\n      DUP8 \t\t\t\n      DUP1 \t\t\t\n      EXTCODESIZE \t\t\t\n      ISZERO \t\t\t\n      DUP1 \t\t\t\n      ISZERO \t\t\t\n      PUSH [tag] 694\t\t\t\n      JUMPI \t\t\t\n      PUSH 0\t\t\t\n      PUSH 0\t\t\t\n      REVERT \t\t\t\n    tag 694\t\t\t\n      JUMPDEST \t\t\t\n      POP \t\t\t\n      GAS \t\t\t\n      CALL \t\t\t\n      ISZERO \t\t\t\n      DUP1 \t\t\t\n      ISZERO \t\t\t\n      PUSH [tag] 696\t\t\t\n      JUMPI \t\t\t\n      RETURNDATASIZE \t\t\t\n      PUSH 0\t\t\t\n      PUSH 0\t\t\t\n      RETURNDATACOPY \t\t\t\n      RETURNDATASIZE \t\t\t\n      PUSH 0\t\t\t\n      REVERT \t\t\t\n    tag 696\t\t\t\n      JUMPDEST \t\t\t\n      POP \t\t\t\n      POP \t\t\t\n      PUSH 40\t\t\t\n      DUP1 \t\t\t\n      MLOAD \t\t\t\n      DUP8 \t\t\t\n      DUP2 \t\t\t\n      MSTORE \t\t\t\n      PUSH 1\t\t\t\n      PUSH 1\t\t\t\n      PUSH A0\t\t\t\n      SHL \t\t\t\n      SUB \t\t\t\n      DUP8 \t\t\t\n      AND \t\t\t\n      PUSH 20\t\t\t\n      DUP3 \t\t\t\n      ADD \t\t\t\n      MSTORE \t\t\t\n      PUSH D21D0B289F126C4B473EA641963E766833C2F13866E4FF480ABD787C100EF123\t\t\t\n      SWAP4 \t\t\t\n      POP \t\t\t\n      ADD \t\t\t\n      SWAP1 \t\t\t\n      POP \t\t\t\n    tag 697\t\t\t\n      JUMPDEST \t\t\t\n      PUSH 40\t\t\t\n      MLOAD \t\t\t\n      DUP1 \t\t\t\n      SWAP2 \t\t\t\n      SUB \t\t\t\n      SWAP1 \t\t\t\n      LOG1 \t\t\t\n      POP \t\t\t\n      POP \t\t\t\n      POP \t\t\t\n      POP \t\t\t\n      JUMP \t\t\t\n    tag 469\t\t\t\n      JUMPDEST \t\t\t\n      PUSH 0\t\t\t\n      DUP3 \t\t\t\n      DUP3 \t\t\t\n      XOR \t\t\t\n      DUP3 \t\t\t\n      DUP5 \t\t\t\n      LT \t\t\t\n      MUL \t\t\t\n      DUP3 \t\t\t\n      XOR \t\t\t\n      PUSH [tag] 214\t\t\t\n      JUMP \t\t\t\n    tag 479\t\t\t\n      JUMPDEST \t\t\t\n      PUSH 0\t\t\t\n      DUP3 \t\t\t\n      PUSH [tag] 207\t\t\t\n      PUSH [tag] 703\t\t\t\n      DUP5 \t\t\t\n      PUSH [tag] 704\t\t\t\n      DUP5 \t\t\t\n      PUSH 0\t\t\tointOrSelf {\\n \n      SWAP1 \t\t\tmoveSigners(bytes[\n      DUP2 \t\t\tmoveSigners(bytes[\n      MSTORE \t\t\tmoveSigners(bytes[\n      PUSH 20\t\t\tOrSe\n      SWAP1 \t\t\tc onlyEntryPointOrSel\n      KECCAK256 \t\t\tc onlyEntryPointOrSel\n      SWAP1 \t\t\tc onlyEntryPointOrSel\n      JUMP \t\t\tction addSigners(bytes[] memor...\n    tag 704\t\t\t\n      JUMPDEST \t\t\t\n      ADD \t\t\tature(hash, signatu\n      SWAP1 \t\t\tature(hash, signatu\n      JUMP \t\t\t\\n        // If the returned v...\n    tag 703\t\t\t\n      JUMPDEST \t\t\t\n      SWAP1 \t\t\t\n      JUMP \t\t\t\\n}\\n\n    tag 498\t\t\t\n      JUMPDEST \t\t\t\n      PUSH 0\t\t\t\n      PUSH [tag] 709\t\t\t\n      DUP4 \t\t\t\n      DUP4 \t\t\t\n      PUSH [tag] 251\t\t\t\n      JUMP \t\t\t\n    tag 709\t\t\t\n      JUMPDEST \t\t\t\n      PUSH [tag] 710\t\t\t\n      JUMPI \t\t\t\n      DUP3 \t\t\t\n      SLOAD \t\t\t\n      PUSH 1\t\t\t\n      DUP2 \t\t\t\n      ADD \t\t\t\n      DUP5 \t\t\t\n      SSTORE \t\t\t\n      PUSH 0\t\t\t\n      DUP5 \t\t\t\n      DUP2 \t\t\t\n      MSTORE \t\t\t\n      PUSH 20\t\t\t\n      SWAP1 \t\t\t\n      KECCAK256 \t\t\t\n      ADD \t\t\t\n      PUSH [tag] 712\t\t\t\n      DUP4 \t\t\t\n      DUP3 \t\t\t\n      PUSH [tag] 645\t\t\t\n      JUMP \t\t\t\n    tag 712\t\t\t\n      JUMPDEST \t\t\t\n      POP \t\t\t\n      DUP3 \t\t\t\n      SLOAD \t\t\t\n      PUSH 40\t\t\t\n      MLOAD \t\t\t\n      PUSH 1\t\t\t\n      DUP6 \t\t\t\n      ADD \t\t\t\n      SWAP1 \t\t\t\n      PUSH [tag] 713\t\t\t\n      SWAP1 \t\t\t\n      DUP6 \t\t\t\n      SWAP1 \t\t\t\n      PUSH [tag] 426\t\t\t\n      JUMP \t\t\t\n    tag 713\t\t\t\n      JUMPDEST \t\t\t\n      SWAP1 \t\t\t\n      DUP2 \t\t\t\n      MSTORE \t\t\t\n      PUSH 40\t\t\t\n      MLOAD \t\t\t\n      SWAP1 \t\t\t\n      DUP2 \t\t\t\n      SWAP1 \t\t\t\n      SUB \t\t\t\n      PUSH 20\t\t\t\n      ADD \t\t\t\n      SWAP1 \t\t\t\n      KECCAK256 \t\t\t\n      SSTORE \t\t\t\n      POP \t\t\t\n      PUSH 1\t\t\t\n      PUSH [tag] 205\t\t\t\n      JUMP \t\t\t\n    tag 710\t\t\t\n      JUMPDEST \t\t\t\n      POP \t\t\t\n      PUSH 0\t\t\t\n      PUSH [tag] 205\t\t\t\n      JUMP \t\t\t\n    tag 507\t\t\t\n      JUMPDEST \t\t\t\n      PUSH [tag] 717\t\t\t\n      PUSH [tag] 718\t\t\t\n      JUMP \t\t\t\n    tag 717\t\t\t\n      JUMPDEST \t\t\t\n      PUSH [tag] 506\t\t\t\n      JUMPI \t\t\t\n      PUSH 40\t\t\t\n      MLOAD \t\t\t\n      PUSH 1AFCD79F\t\t\t\n      PUSH E3\t\t\t\n      SHL \t\t\t\n      DUP2 \t\t\t\n      MSTORE \t\t\t\n      PUSH 4\t\t\t\n      ADD \t\t\t\n      PUSH 40\t\t\t\n      MLOAD \t\t\t\n      DUP1 \t\t\t\n      SWAP2 \t\t\t\n      SUB \t\t\t\n      SWAP1 \t\t\t\n      REVERT \t\t\t\n    tag 513\t\t\th, signature);\\n    }\\n}\\n\n      JUMPDEST \t\t\th, signature);\\n    }\\n}\\n\n      PUSH [tag] 721\t\t\t\n      PUSH [tag] 507\t\t\t\n      JUMP \t\t\t\n    tag 721\t\t\t\n      JUMPDEST \t\t\t\n      PUSH [tag] 723\t\t\t\n      DUP3 \t\t\t\n      PUSH [tag] 282\t\t\t\n      JUMP \t\t\t\n    tag 723\t\t\t\n      JUMPDEST \t\t\t\n      PUSH [tag] 422\t\t\t\n      DUP2 \t\t\t\n      PUSH [tag] 226\t\t\t\n      JUMP \t\t\t\n    tag 528\t\t\t\n      JUMPDEST \t\t\t\n      PUSH A47D913D72B2639F4CA1C145CC07DDF7170B73B257C8E0D4FCED7CC8E3E3900\t\t\t\n      PUSH [tag] 727\t\t\t\n      DUP5 \t\t\t\n      PUSH [tag] 183\t\t\t\n      JUMP \t\t\t\n    tag 727\t\t\t\n      JUMPDEST \t\t\t\n      DUP5 \t\t\t\n      SWAP1 \t\t\t\n      PUSH [tag] 728\t\t\t\n      JUMPI \t\t\t\n      PUSH 40\t\t\t\n      MLOAD \t\t\t\n      PUSH 60FA2B23\t\t\t\n      PUSH E0\t\t\t\n      SHL \t\t\t\n      DUP2 \t\t\t\n      MSTORE \t\t\t\n      PUSH 4\t\t\t\n      ADD \t\t\t\n      PUSH [tag] 348\t\t\t\n      SWAP2 \t\t\t\n      DUP2 \t\t\t\n      MSTORE \t\t\t\n      PUSH 20\t\t\t\n      ADD \t\t\t\n      SWAP1 \t\t\t\n      JUMP \t\t\t\n    tag 728\t\t\t\n      JUMPDEST \t\t\t\n      POP \t\t\t\n      PUSH 1\t\t\tg\n      DUP5 \t\t\t\n      SUB \t\t\t\n      PUSH [tag] 730\t\t\t\n      JUMPI \t\t\t\n      PUSH [tag] 731\t\t\t\n      DUP2 \t\t\t\n      DUP5 \t\t\t\n      PUSH [tag] 732\t\t\t\n      JUMP \t\t\t\n    tag 731\t\t\t\n      JUMPDEST \t\t\t\n      DUP5 \t\t\t\n      DUP5 \t\t\t\n      SWAP1 \t\t\t\n      SWAP2 \t\t\t\n      PUSH [tag] 733\t\t\t\n      JUMPI \t\t\t\n      PUSH 40\t\t\t\n      MLOAD \t\t\t\n      PUSH 1343D68D\t\t\t\n      PUSH E0\t\t\t\n      SHL \t\t\t\n      DUP2 \t\t\t\n      MSTORE \t\t\t\n      PUSH 4\t\t\t\n      DUP2 \t\t\t\n      ADD \t\t\t\n      SWAP3 \t\t\t\n      SWAP1 \t\t\t\n      SWAP3 \t\t\t\n      MSTORE \t\t\t\n      PUSH 1\t\t\t\n      PUSH 1\t\t\t\n      PUSH A0\t\t\t\n      SHL \t\t\t\n      SUB \t\t\t\n      AND \t\t\t\n      PUSH 24\t\t\t\n      DUP3 \t\t\t\n      ADD \t\t\t\n      MSTORE \t\t\t\n      PUSH 44\t\t\t\n      ADD \t\t\t\n      PUSH [tag] 348\t\t\t\n      JUMP \t\t\t\n    tag 733\t\t\t\n      JUMPDEST \t\t\t\n      POP \t\t\t\n      POP \t\t\t\n      PUSH [tag] 741\t\t\t\n      JUMP \t\t\t\n    tag 730\t\t\t\n      JUMPDEST \t\t\t\n      PUSH 2\t\t\tR\n      DUP5 \t\t\t\n      SUB \t\t\t\n      PUSH [tag] 736\t\t\t\n      JUMPI \t\t\t\n      PUSH [tag] 731\t\t\t\n      PUSH 2\t\t\t\n      DUP3 \t\t\t\n      ADD \t\t\t\n      DUP5 \t\t\t\n      PUSH [tag] 732\t\t\t\n      JUMP \t\t\t\n    tag 736\t\t\t\n      JUMPDEST \t\t\t\n      PUSH 3\t\t\tE\n      DUP5 \t\t\t\n      SUB \t\t\t\n      PUSH [tag] 741\t\t\t\n      JUMPI \t\t\t\n      PUSH 0\t\t\t\n      PUSH [tag] 742\t\t\t\n      DUP4 \t\t\t\n      PUSH [tag] 690\t\t\t\n      JUMP \t\t\t\n    tag 742\t\t\t\n      JUMPDEST \t\t\t\n      SWAP4 \t\t\t\n      POP \t\t\t\n      SWAP1 \t\t\t\n      POP \t\t\t\n      PUSH 1\t\t\t\n      PUSH 1\t\t\t\n      PUSH A0\t\t\t\n      SHL \t\t\t\n      SUB \t\t\t\n      DUP5 \t\t\t\n      AND \t\t\t\n      PUSH [tag] 743\t\t\t\n      DUP3 \t\t\t\n      PUSH [tag] 346\t\t\t\n      JUMP \t\t\t\n    tag 743\t\t\t\n      JUMPDEST \t\t\t\n      PUSH 1\t\t\t\n      PUSH 1\t\t\t\n      PUSH A0\t\t\t\n      SHL \t\t\t\n      SUB \t\t\t\n      AND \t\t\t\n      EQ \t\t\t\n      DUP1 \t\t\t\n      ISZERO \t\t\t\n      PUSH [tag] 744\t\t\t\n      JUMPI \t\t\t\n      POP \t\t\t\n      PUSH 1\t\t\t\n      PUSH 1\t\t\t\n      PUSH A0\t\t\t\n      SHL \t\t\t\n      SUB \t\t\t\n      DUP5 \t\t\t\n      AND \t\t\t\n      ISZERO \t\t\t\n      ISZERO \t\t\t\n    tag 744\t\t\t\n      JUMPDEST \t\t\t\n      DUP6 \t\t\t\n      DUP6 \t\t\t\n      SWAP1 \t\t\t\n      SWAP2 \t\t\t\n      PUSH [tag] 745\t\t\t\n      JUMPI \t\t\t\n      PUSH 40\t\t\t\n      MLOAD \t\t\t\n      PUSH 1343D68D\t\t\t\n      PUSH E0\t\t\t\n      SHL \t\t\t\n      DUP2 \t\t\t\n      MSTORE \t\t\t\n      PUSH 4\t\t\t\n      DUP2 \t\t\t\n      ADD \t\t\t\n      SWAP3 \t\t\t\n      SWAP1 \t\t\t\n      SWAP3 \t\t\t\n      MSTORE \t\t\t\n      PUSH 1\t\t\t\n      PUSH 1\t\t\t\n      PUSH A0\t\t\t\n      SHL \t\t\t\n      SUB \t\t\t\n      AND \t\t\t\n      PUSH 24\t\t\t\n      DUP3 \t\t\t\n      ADD \t\t\t\n      MSTORE \t\t\t\n      PUSH 44\t\t\t\n      ADD \t\t\t\n      PUSH [tag] 348\t\t\t\n      JUMP \t\t\t\n    tag 745\t\t\t\n      JUMPDEST \t\t\t\n      POP \t\t\t\n      POP \t\t\t\n      PUSH 1\t\t\t\n      PUSH 1\t\t\t\n      PUSH E0\t\t\t\n      SHL \t\t\t\n      SUB \t\t\t\n      NOT \t\t\t\n      AND \t\t\t\n      PUSH 0\t\t\t\n      SWAP1 \t\t\t\n      DUP2 \t\t\t\n      MSTORE \t\t\t\n      PUSH 4\t\t\t\n      DUP3 \t\t\t\n      ADD \t\t\t\n      PUSH 20\t\t\t\n      MSTORE \t\t\t\n      PUSH 40\t\t\t\n      SWAP1 \t\t\t\n      KECCAK256 \t\t\t\n      DUP1 \t\t\t\n      SLOAD \t\t\t\n      PUSH 1\t\t\t\n      PUSH 1\t\t\t\n      PUSH A0\t\t\t\n      SHL \t\t\t\n      SUB \t\t\t\n      NOT \t\t\t\n      AND \t\t\t\n      SWAP1 \t\t\t\n      SSTORE \t\t\t\n    tag 741\t\t\t\n      JUMPDEST \t\t\t\n      PUSH [tag] 747\t\t\t\n      DUP4 \t\t\t\n      DUP4 \t\t\t\n      PUSH 40\t\t\t\n      MLOAD \t\t\t\n      PUSH 24\t\t\t\n      ADD \t\t\t\n      PUSH [tag] 748\t\t\t\n      SWAP2 \t\t\t\n      SWAP1 \t\t\t\n      PUSH [tag] 131\t\t\t\n      JUMP \t\t\t\n    tag 748\t\t\t\n      JUMPDEST \t\t\t\n      PUSH 40\t\t\t\n      DUP1 \t\t\t\n      MLOAD \t\t\t\n      PUSH 1F\t\t\t\n      NOT \t\t\t\n      DUP2 \t\t\t\n      DUP5 \t\t\t\n      SUB \t\t\t\n      ADD \t\t\t\n      DUP2 \t\t\t\n      MSTORE \t\t\t\n      SWAP2 \t\t\t\n      SWAP1 \t\t\t\n      MSTORE \t\t\t\n      PUSH 20\t\t\t\n      DUP2 \t\t\t\n      ADD \t\t\t\n      DUP1 \t\t\t\n      MLOAD \t\t\t\n      PUSH 1\t\t\t\n      PUSH 1\t\t\t\n      PUSH E0\t\t\t\n      SHL \t\t\t\n      SUB \t\t\t\n      AND \t\t\t\n      PUSH 8A91B0E3\t\t\t\n      PUSH E0\t\t\t\n      SHL \t\t\t\n      OR \t\t\t\n      SWAP1 \t\t\t\n      MSTORE \t\t\t\n      PUSH [tag] 749\t\t\t\n      JUMP \t\t\t\n    tag 747\t\t\t\n      JUMPDEST \t\t\t\n      POP \t\t\t\n      PUSH 40\t\t\t\n      DUP1 \t\t\t\n      MLOAD \t\t\t\n      DUP6 \t\t\t\n      DUP2 \t\t\t\n      MSTORE \t\t\t\n      PUSH 1\t\t\t\n      PUSH 1\t\t\t\n      PUSH A0\t\t\t\n      SHL \t\t\t\n      SUB \t\t\t\n      DUP6 \t\t\t\n      AND \t\t\t\n      PUSH 20\t\t\t\n      DUP3 \t\t\t\n      ADD \t\t\t\n      MSTORE \t\t\t\n      PUSH 341347516A9DE374859DFDA710FA4828B2D48CB57D4FBE4C1149612B8E02276E\t\t\t\n      SWAP2 \t\t\t\n      ADD \t\t\t\n      PUSH [tag] 697\t\t\t\n      JUMP \t\t\t\n    tag 537\t\t\t\n      JUMPDEST \t\t\t\n      PUSH 0\t\t\t\n      PUSH 1F\t\t\t\n      DUP3 \t\t\t\n      PUSH FF\t\t\t\n      AND \t\t\t\n      GT \t\t\t\n      ISZERO \t\t\t\n      PUSH [tag] 752\t\t\t\n      JUMPI \t\t\t\n      PUSH 40\t\t\t\n      MLOAD \t\t\t\n      PUSH 1DD4BB1B\t\t\t\n      PUSH E1\t\t\t\n      SHL \t\t\t\n      DUP2 \t\t\t\n      MSTORE \t\t\t\n      PUSH 4\t\t\t\n      ADD \t\t\t\n      PUSH 40\t\t\t\n      MLOAD \t\t\t\n      DUP1 \t\t\t\n      SWAP2 \t\t\t\n      SUB \t\t\t\n      SWAP1 \t\t\t\n      REVERT \t\t\t\n    tag 752\t\t\t\n      JUMPDEST \t\t\t\n      POP \t\t\t\n      PUSH 8\t\t\t\n      MUL \t\t\t\n      SHL \t\t\t\n      PUSH 1\t\t\t\n      PUSH 1\t\t\t\n      PUSH F8\t\t\t\n      SHL \t\t\t\n      SUB \t\t\t\n      NOT \t\t\t\n      AND \t\t\t\n      SWAP1 \t\t\t\n      JUMP \t\t\t\n    tag 540\t\t\t\n      JUMPDEST \t\t\t\n      PUSH 0\t\t\t\n      PUSH 1C\t\t\t\n      DUP3 \t\t\t\n      PUSH FF\t\t\t\n      AND \t\t\t\n      GT \t\t\t\n      ISZERO \t\t\t\n      PUSH [tag] 754\t\t\t\n      JUMPI \t\t\t\n      PUSH 40\t\t\t\n      MLOAD \t\t\t\n      PUSH 1DD4BB1B\t\t\t\n      PUSH E1\t\t\t\n      SHL \t\t\t\n      DUP2 \t\t\t\n      MSTORE \t\t\t\n      PUSH 4\t\t\t\n      ADD \t\t\t\n      PUSH 40\t\t\t\n      MLOAD \t\t\t\n      DUP1 \t\t\t\n      SWAP2 \t\t\t\n      SUB \t\t\t\n      SWAP1 \t\t\t\n      REVERT \t\t\t\n    tag 754\t\t\t\n      JUMPDEST \t\t\t\n      POP \t\t\t\n      PUSH 8\t\t\t\n      MUL \t\t\t\n      SHL \t\t\t\n      PUSH 1\t\t\t\n      PUSH 1\t\t\t\n      PUSH E0\t\t\t\n      SHL \t\t\t\n      SUB \t\t\t\n      NOT \t\t\t\n      AND \t\t\t\n      SWAP1 \t\t\t\n      JUMP \t\t\t\n    tag 542\t\t\t\n      JUMPDEST \t\t\t\n      PUSH 0\t\t\t\n      PUSH A\t\t\t\n      DUP3 \t\t\t\n      PUSH FF\t\t\t\n      AND \t\t\t\n      GT \t\t\t\n      ISZERO \t\t\t\n      PUSH [tag] 756\t\t\t\n      JUMPI \t\t\t\n      PUSH 40\t\t\t\n      MLOAD \t\t\t\n      PUSH 1DD4BB1B\t\t\t\n      PUSH E1\t\t\t\n      SHL \t\t\t\n      DUP2 \t\t\t\n      MSTORE \t\t\t\n      PUSH 4\t\t\t\n      ADD \t\t\t\n      PUSH 40\t\t\t\n      MLOAD \t\t\t\n      DUP1 \t\t\t\n      SWAP2 \t\t\t\n      SUB \t\t\t\n      SWAP1 \t\t\t\n      REVERT \t\t\t\n    tag 756\t\t\t\n      JUMPDEST \t\t\t\n      POP \t\t\t\n      PUSH 8\t\t\t\n      MUL \t\t\t\n      SHL \t\t\t\n      PUSH FFFFFFFFFFFFFFFFFFFF\t\t\t\n      NOT \t\t\t\n      AND \t\t\t\n      SWAP1 \t\t\t\n      JUMP \t\t\t\n    tag 559\t\t\t\n      JUMPDEST \t\t\t\n      PUSH 60\t\t\t\n      PUSH 0\t\t\t\n      PUSH 0\t\t\t\n      PUSH [tag] 758\t\t\t\n      DUP7 \t\t\t\n      PUSH [tag] 313\t\t\t\n      JUMP \t\t\t\n    tag 758\t\t\t\n      JUMPDEST \t\t\t\n      POP \t\t\t\n      POP \t\t\t\n      SWAP2 \t\t\t\n      POP \t\t\t\n      SWAP2 \t\t\t\n      POP \t\t\t\n      PUSH [tag] 759\t\t\t\n      DUP3 \t\t\t\n      PUSH 0\t\t\titia\n      PUSH F8\t\t\tproxy/utils/Initial\n      SHL \t\t\tproxy/utils/Initial\n      PUSH [tag] 315\t\t\t\n      JUMP \t\t\t\n    tag 759\t\t\t\n      JUMPDEST \t\t\t\n      ISZERO \t\t\t\n      PUSH [tag] 760\t\t\t\n      JUMPI \t\t\t\n      PUSH [tag] 761\t\t\t\n      DUP6 \t\t\t\n      DUP6 \t\t\t\n      DUP4 \t\t\t\n      PUSH [tag] 762\t\t\t\n      JUMP \t\t\t\n    tag 761\t\t\t\n      JUMPDEST \t\t\t\n      SWAP3 \t\t\t\n      POP \t\t\t\n      POP \t\t\t\n      POP \t\t\t\n      PUSH [tag] 214\t\t\t\n      JUMP \t\t\t\n    tag 760\t\t\t\n      JUMPDEST \t\t\t\n      PUSH [tag] 763\t\t\t\n      DUP3 \t\t\t\n      PUSH 1\t\t\t\n      PUSH F8\t\t\t\n      SHL \t\t\t\n      PUSH [tag] 315\t\t\t\n      JUMP \t\t\t\n    tag 763\t\t\t\n      JUMPDEST \t\t\t\n      ISZERO \t\t\t\n      PUSH [tag] 764\t\t\t\n      JUMPI \t\t\t\n      PUSH [tag] 761\t\t\t\n      DUP6 \t\t\t\n      DUP6 \t\t\t\n      DUP4 \t\t\t\n      PUSH [tag] 766\t\t\t\n      JUMP \t\t\t\n    tag 764\t\t\t\n      JUMPDEST \t\t\t\n      PUSH [tag] 767\t\t\t\n      DUP3 \t\t\t\n      PUSH 1\t\t\t\n      PUSH 1\t\t\t\n      PUSH F8\t\t\t\n      SHL \t\t\t\n      SUB \t\t\t\n      NOT \t\t\t\n      PUSH [tag] 315\t\t\t\n      JUMP \t\t\t\n    tag 767\t\t\t\n      JUMPDEST \t\t\t\n      ISZERO \t\t\t\n      PUSH [tag] 768\t\t\t\n      JUMPI \t\t\t\n      PUSH [tag] 761\t\t\t\n      DUP6 \t\t\t\n      DUP6 \t\t\t\n      DUP4 \t\t\t\n      PUSH [tag] 770\t\t\t\n      JUMP \t\t\t\n    tag 768\t\t\t\n      JUMPDEST \t\t\t\n      PUSH 40\t\t\t\n      MLOAD \t\t\t\n      PUSH 58DF354B\t\t\t\n      PUSH E1\t\t\t\n      SHL \t\t\t\n      DUP2 \t\t\t\n      MSTORE \t\t\t\n      PUSH 1\t\t\t\n      PUSH 1\t\t\t\n      PUSH F8\t\t\t\n      SHL \t\t\t\n      SUB \t\t\t\n      NOT \t\t\t\n      DUP4 \t\t\t\n      AND \t\t\t\n      PUSH 4\t\t\t\n      DUP3 \t\t\t\n      ADD \t\t\t\n      MSTORE \t\t\t\n      PUSH 24\t\t\t\n      ADD \t\t\t\n      PUSH [tag] 348\t\t\t\n      JUMP \t\t\t\n    tag 579\t\t\tre derived than AccountERC7579...\n      JUMPDEST \t\t\tre derived than AccountERC7579...\n      CALLDATASIZE \t\t\t ..., MultiSignerERC7913\n      PUSH 0\t\t\t ..., MultiSignerERC7913\n      DUP1 \t\t\t ..., MultiSignerERC7913\n      DUP1 \t\t\t ..., MultiSignerERC7913\n      DUP4 \t\t\t ..., MultiSignerERC7913\n      DUP2 \t\t\t ..., MultiSignerERC7913\n      DUP7 \t\t\teValidation\\n    \n      PUSH 42\t\t\tra\n      DUP2 \t\t\tdeable, Abstra\n      LT \t\t\tdeable, Abstra\n      ISZERO \t\t\tpgradeable, AbstractSigner, Ac...\n      PUSH [tag] 775\t\t\tpgradeable, AbstractSigner, Ac...\n      JUMPI \t\t\tpgradeable, AbstractSigner, Ac...\n      POP \t\t\t\n      PUSH 0\t\t\ts-upgradeable/account\n      SWAP6 \t\t\ts-upgradeable/account\n      POP \t\t\t\n      DUP6 \t\t\ts-upgradeable/account\n      SWAP5 \t\t\ts-upgradeable/account\n      POP \t\t\t\n      DUP5 \t\t\ts-upgradeable/account\n      SWAP4 \t\t\ts-upgradeable/account\n      POP \t\t\t\n      DUP4 \t\t\ts-upgradeable/account\n      SWAP3 \t\t\ts-upgradeable/account\n      POP \t\t\t\n      DUP3 \t\t\ts-upgradeable/account\n      SWAP2 \t\t\ts-upgradeable/account\n      POP \t\t\t\n      DUP2 \t\t\ts-upgradeable/account\n      SWAP1 \t\t\ts-upgradeable/account\n      POP \t\t\t\n      PUSH [tag] 774\t\t\tSigner, AccountERC7579Upgradea...\n      JUMP \t\t\tSigner, AccountERC7579Upgradea...\n    tag 775\t\t\tpgradeable, AbstractSigner, Ac...\n      JUMPDEST \t\t\tpgradeable, AbstractSigner, Ac...\n      PUSH 1\t\t\t\n      NOT \t\t\t\n      DUP2 \t\t\tdation(hash, \n      ADD \t\t\tdation(hash, \n      PUSH 0\t\t\turn super._rawSignatureV\n      PUSH [tag] 779\t\t\t\n      DUP11 \t\t\t\n      DUP4 \t\t\tdation(hash, \n      DUP2 \t\t\t\n      DUP15 \t\t\t\n      PUSH [tag] 371\t\t\t\n      JUMP \t\t\t\n    tag 779\t\t\t\n      JUMPDEST \t\t\t\n      PUSH [tag] 780\t\t\t\n      SWAP2 \t\t\t\n      PUSH [tag] 781\t\t\t\n      JUMP \t\t\t\n    tag 780\t\t\t\n      JUMPDEST \t\t\t\n      PUSH F0\t\t\t\n      SHR \t\t\t\n      SWAP1 \t\t\t\n      POP \t\t\t\n      PUSH 42\t\t\t\n      DUP2 \t\t\t\n      ADD \t\t\t\n      DUP4 \t\t\t\n      LT \t\t\t\n      ISZERO \t\t\t\n      PUSH [tag] 782\t\t\t\n      JUMPI \t\t\t\n      POP \t\t\t\n      PUSH 0\t\t\ts-upgradeable/account\n      SWAP8 \t\t\ts-upgradeable/account\n      POP \t\t\t\n      DUP8 \t\t\ts-upgradeable/account\n      SWAP7 \t\t\ts-upgradeable/account\n      POP \t\t\t\n      DUP7 \t\t\ts-upgradeable/account\n      SWAP6 \t\t\ts-upgradeable/account\n      POP \t\t\t\n      DUP6 \t\t\ts-upgradeable/account\n      SWAP5 \t\t\ts-upgradeable/account\n      POP \t\t\t\n      DUP5 \t\t\ts-upgradeable/account\n      SWAP4 \t\t\ts-upgradeable/account\n      POP \t\t\t\n      DUP4 \t\t\ts-upgradeable/account\n      SWAP3 \t\t\ts-upgradeable/account\n      POP \t\t\t\n      PUSH [tag] 774\t\t\t\n      SWAP2 \t\t\t\n      POP \t\t\t\n      POP \t\t\t\n      JUMP \t\t\t\n    tag 782\t\t\t\n      JUMPDEST \t\t\t\n      PUSH 0\t\t\t\n      DUP2 \t\t\t\n      DUP4 \t\t\t\n      SUB \t\t\t\n      SWAP1 \t\t\t\n      POP \t\t\t\n      PUSH 0\t\t\t\n      PUSH 20\t\t\t\n      DUP3 \t\t\t\n      SUB \t\t\t\n      SWAP1 \t\t\t\n      POP \t\t\t\n      PUSH 0\t\t\t\n      PUSH 20\t\t\t\n      DUP3 \t\t\t\n      SUB \t\t\t\n      SWAP1 \t\t\t\n      POP \t\t\t\n      DUP14 \t\t\t\n      DUP14 \t\t\t\n      PUSH 0\t\t\t\n      SWAP1 \t\t\t\n      DUP4 \t\t\t\n      SWAP3 \t\t\t\n      PUSH [tag] 785\t\t\t\n      SWAP4 \t\t\t\n      SWAP3 \t\t\t\n      SWAP2 \t\t\t\n      SWAP1 \t\t\t\n      PUSH [tag] 371\t\t\t\n      JUMP \t\t\t\n    tag 785\t\t\t\n      JUMPDEST \t\t\t\n      SWAP12 \t\t\t\n      POP \t\t\t\n      SWAP12 \t\t\t\n      POP \t\t\t\n      DUP14 \t\t\t\n      DUP14 \t\t\t\n      DUP3 \t\t\t\n      SWAP1 \t\t\t\n      DUP5 \t\t\t\n      SWAP3 \t\t\t\n      PUSH [tag] 786\t\t\t\n      SWAP4 \t\t\t\n      SWAP3 \t\t\t\n      SWAP2 \t\t\t\n      SWAP1 \t\t\t\n      PUSH [tag] 371\t\t\t\n      JUMP \t\t\t\n    tag 786\t\t\t\n      JUMPDEST \t\t\t\n      PUSH [tag] 787\t\t\t\n      SWAP2 \t\t\t\n      PUSH [tag] 788\t\t\t\n      JUMP \t\t\t\n    tag 787\t\t\t\n      JUMPDEST \t\t\t\n      SWAP10 \t\t\t\n      POP \t\t\t\n      DUP14 \t\t\t\n      DUP14 \t\t\t\n      DUP4 \t\t\t\n      SWAP1 \t\t\t\n      DUP6 \t\t\t\n      SWAP3 \t\t\t\n      PUSH [tag] 789\t\t\t\n      SWAP4 \t\t\t\n      SWAP3 \t\t\t\n      SWAP2 \t\t\t\n      SWAP1 \t\t\t\n      PUSH [tag] 371\t\t\t\n      JUMP \t\t\t\n    tag 789\t\t\t\n      JUMPDEST \t\t\t\n      PUSH [tag] 790\t\t\t\n      SWAP2 \t\t\t\n      PUSH [tag] 788\t\t\t\n      JUMP \t\t\t\n    tag 790\t\t\t\n      JUMPDEST \t\t\t\n      SWAP9 \t\t\t\n      POP \t\t\t\n      DUP14 \t\t\t\n      DUP14 \t\t\t\n      DUP5 \t\t\t\n      SWAP1 \t\t\t\n      DUP8 \t\t\t\n      SWAP3 \t\t\t\n      PUSH [tag] 791\t\t\t\n      SWAP4 \t\t\t\n      SWAP3 \t\t\t\n      SWAP2 \t\t\t\n      SWAP1 \t\t\t\n      PUSH [tag] 371\t\t\t\n      JUMP \t\t\t\n    tag 791\t\t\t\n      JUMPDEST \t\t\t\n      SWAP8 \t\t\t\n      POP \t\t\t\n      SWAP8 \t\t\t\n      POP \t\t\t\n      POP \t\t\t79Upgradeable returns false fo...\n      POP \t\t\t79Upgradeable returns false fo...\n      POP \t\t\t79Upgradeable returns false fo...\n      POP \t\t\t79Upgradeable returns false fo...\n      POP \t\t\t79Upgradeable returns false fo...\n      POP \t\t\t79Upgradeable returns false fo...\n    tag 774\t\t\tre derived than AccountERC7579...\n      JUMPDEST \t\t\tre derived than AccountERC7579...\n      SWAP3 \t\t\tre derived than AccountERC7579...\n      SWAP6 \t\t\tre derived than AccountERC7579...\n      POP \t\t\tre derived than AccountERC7579...\n      SWAP3 \t\t\tre derived than AccountERC7579...\n      SWAP6 \t\t\tre derived than AccountERC7579...\n      POP \t\t\tre derived than AccountERC7579...\n      SWAP3 \t\t\tre derived than AccountERC7579...\n      SWAP6 \t\t\tre derived than AccountERC7579...\n      JUMP \t\t\tre derived than AccountERC7579...\n    tag 582\t\t\t\n      JUMPDEST \t\t\t\n      PUSH 40\t\t\t\n      MLOAD \t\t\t\n      PUSH 1901\t\t\t\n      PUSH F0\t\t\t\n      SHL \t\t\t\n      DUP2 \t\t\t\n      MSTORE \t\t\t\n      PUSH 2\t\t\t\n      DUP2 \t\t\t\n      ADD \t\t\t\n      SWAP3 \t\t\t\n      SWAP1 \t\t\t\n      SWAP3 \t\t\t\n      MSTORE \t\t\t\n      PUSH 22\t\t\t\n      DUP3 \t\t\t\n      ADD \t\t\t\n      MSTORE \t\t\t\n      PUSH 42\t\t\t\n      SWAP1 \t\t\t\n      KECCAK256 \t\t\t\n      SWAP1 \t\t\t\n      JUMP \t\t\t\n    tag 590\t\t\t\n      JUMPDEST \t\t\t\n      PUSH 0\t\t\t\n      CALLDATASIZE \t\t\t\n      PUSH 0\t\t\t\n      CALLDATASIZE \t\t\t\n      PUSH 0\t\t\t\n      PUSH [tag] 794\t\t\t\n      DUP10 \t\t\t\n      DUP10 \t\t\t\n      PUSH [tag] 795\t\t\t\n      JUMP \t\t\t\n    tag 794\t\t\t\n      JUMPDEST \t\t\t\n      SWAP4 \t\t\t\n      POP \t\t\t\n      SWAP4 \t\t\t\n      POP \t\t\t\n      SWAP4 \t\t\t\n      POP \t\t\t\n      SWAP4 \t\t\t\n      POP \t\t\t\n      PUSH [tag] 796\t\t\t\n      DUP5 \t\t\t\n      DUP5 \t\t\t\n      DUP5 \t\t\t\n      DUP5 \t\t\t\n      DUP12 \t\t\t\n      DUP12 \t\t\t\n      PUSH [tag] 797\t\t\t\n      JUMP \t\t\t\n    tag 796\t\t\t\n      JUMPDEST \t\t\t\n      SWAP10 \t\t\t\n      SWAP9 \t\t\t\n      POP \t\t\t\n      POP \t\t\t\n      POP \t\t\t\n      POP \t\t\t\n      POP \t\t\t\n      POP \t\t\t\n      POP \t\t\t\n      POP \t\t\t\n      POP \t\t\t\n      JUMP \t\t\t\n    tag 591\t\t\tfunction _rawSignatureValidati...\n      JUMPDEST \t\t\tfunction _rawSignatureValidati...\n      PUSH 0\t\t\tbool\n      PUSH [tag] 207\t\t\tsuper._rawSignatureValidation(...\n      DUP5 \t\t\thash\n      DUP5 \t\t\tsignature\n      DUP5 \t\t\tsignature\n      PUSH [tag] 800\t\t\tsuper._rawSignatureValidation\n      JUMP \t\t\tsuper._rawSignatureValidation(...\n    tag 596\t\t\t\n      JUMPDEST \t\t\t\n      PUSH 983E65E5148E570CD828EAD231EE759A8D7958721A768F93BC4483BA005C32DE\t\t\ton initialize(bytes[] memory s...\n      PUSH 0\t\t\t\n      SWAP1 \t\t\tRC721/utils/ERC\n      DUP2 \t\t\tRC721/utils/ERC\n      MSTORE \t\t\tRC721/utils/ERC\n      PUSH 20\t\t\trt {\n      DUP3 \t\t\t\";\\nimport {EIP7\n      SWAP1 \t\t\t\";\\nimport {EIP7\n      MSTORE \t\t\t\";\\nimport {EIP7\n      PUSH 40\t\t\ts/cr\n      DUP2 \t\t\tn/contracts/utils/cry\n      KECCAK256 \t\t\tn/contracts/utils/cry\n      PUSH [tag] 205\t\t\t\n      JUMP \t\t\tHolder} from \"@openzeppelin/co...\n    tag 598\t\t\t\n      JUMPDEST \t\t\t\n      PUSH 0\t\t\t\n      ADDRESS \t\t\t\n      PUSH 1\t\t\t\n      PUSH 1\t\t\t\n      PUSH A0\t\t\t\n      SHL \t\t\t\n      SUB \t\t\t\n      PUSHIMMUTABLE 13735\t\t\t\n      AND \t\t\t\n      EQ \t\t\t\n      DUP1 \t\t\t\n      ISZERO \t\t\t\n      PUSH [tag] 805\t\t\t\n      JUMPI \t\t\t\n      POP \t\t\t\n      PUSHIMMUTABLE 13733\t\t\t\n      CHAINID \t\t\t\n      EQ \t\t\t\n    tag 805\t\t\t\n      JUMPDEST \t\t\t\n      ISZERO \t\t\t\n      PUSH [tag] 806\t\t\t\n      JUMPI \t\t\t\n      POP \t\t\t\n      PUSHIMMUTABLE 13731\t\t\t\n      SWAP1 \t\t\t\n      JUMP \t\t\t\n    tag 806\t\t\t\n      JUMPDEST \t\t\t\n      PUSH [tag] 326\t\t\t\n      PUSH 40\t\t\t\n      DUP1 \t\t\t\n      MLOAD \t\t\t\n      PUSH 8B73C3C69BB8FE3D512ECC4CF759CC79239F7B179B0FFACAA9A75D522B39400F\t\t\ttection).\\n        // If the r...\n      PUSH 20\t\t\t\n      DUP3 \t\t\t\n      ADD \t\t\t\n      MSTORE \t\t\t\n      PUSHIMMUTABLE 13737\t\t\t\n      SWAP2 \t\t\t\n      DUP2 \t\t\t\n      ADD \t\t\t\n      SWAP2 \t\t\t\n      SWAP1 \t\t\t\n      SWAP2 \t\t\t\n      MSTORE \t\t\t\n      PUSHIMMUTABLE 13739\t\t\t\n      PUSH 60\t\t\t\n      DUP3 \t\t\t\n      ADD \t\t\t\n      MSTORE \t\t\t\n      CHAINID \t\t\t\n      PUSH 80\t\t\t\n      DUP3 \t\t\t\n      ADD \t\t\t\n      MSTORE \t\t\t\n      ADDRESS \t\t\t\n      PUSH A0\t\t\t\n      DUP3 \t\t\t\n      ADD \t\t\t\n      MSTORE \t\t\t\n      PUSH 0\t\t\t\n      SWAP1 \t\t\t\n      PUSH C0\t\t\t\n      ADD \t\t\t\n      PUSH 40\t\t\t\n      MLOAD \t\t\t\n      PUSH 20\t\t\t\n      DUP2 \t\t\t\n      DUP4 \t\t\t\n      SUB \t\t\t\n      SUB \t\t\t\n      DUP2 \t\t\t\n      MSTORE \t\t\t\n      SWAP1 \t\t\t\n      PUSH 40\t\t\t\n      MSTORE \t\t\t\n      DUP1 \t\t\t\n      MLOAD \t\t\t\n      SWAP1 \t\t\t\n      PUSH 20\t\t\t\n      ADD \t\t\t\n      KECCAK256 \t\t\t\n      SWAP1 \t\t\t\n      POP \t\t\t\n      SWAP1 \t\t\t\n      JUMP \t\t\t\n    tag 612\t\t\t\n      JUMPDEST \t\t\t\n      PUSH 0\t\t\t\n      PUSH [tag] 811\t\t\t\n      PUSH 20\t\t\t\n      DUP4 \t\t\t\n      ADD \t\t\t\n      CALLDATALOAD \t\t\t\n      DUP3 \t\t\t\n      PUSH [tag] 812\t\t\t\n      JUMP \t\t\t\n    tag 811\t\t\t\n      JUMPDEST \t\t\t\n      PUSH 60\t\t\t\n      SHR \t\t\t\n      SWAP3 \t\t\t\n      SWAP2 \t\t\t\n      POP \t\t\t\n      POP \t\t\t\n      JUMP \t\t\t\n    tag 617\t\t\tUpgradeable)\\n        returns ...\n      JUMPDEST \t\t\tUpgradeable)\\n        returns ...\n      PUSH 0\t\t\t\n      PUSH [tag] 814\t\t\t\n      DUP5 \t\t\t\n      PUSH [tag] 594\t\t\t\n      JUMP \t\t\t\n    tag 814\t\t\t\n      JUMPDEST \t\t\t\n      PUSH [tag] 816\t\t\t\n      JUMPI \t\t\t\n      PUSH 1\t\t\tm\n      PUSH [tag] 211\t\t\t\n      JUMP \t\t\t\n    tag 816\t\t\t\n      JUMPDEST \t\t\t\n      POP \t\t\t\n      PUSH 0\t\t\tl\n      SWAP5 \t\t\tl\n      SWAP4 \t\t\tUpgradeable)\\n        returns ...\n      POP \t\t\t\n      POP \t\t\t\n      POP \t\t\t\n      POP \t\t\t\n      JUMP \t\t\tUpgradeable)\\n        returns ...\n    tag 658\t\t\tection).\\n        // If the re...\n      JUMPDEST \t\t\tection).\\n        // If the re...\n      PUSH 60\t\t\tllback to ERC\n      PUSH 0\t\t\ttion.\\n     \n      PUSH [tag] 820\t\t\tbytes4 erc7739ma\n      DUP4 \t\t\t739m\n      PUSH [tag] 821\t\t\tbytes4 erc\n      JUMP \t\t\tbytes4 erc7739ma\n    tag 820\t\t\tbytes4 erc7739ma\n      JUMPDEST \t\t\tbytes4 erc7739ma\n      PUSH 40\t\t\tERC7579Upgradeab\n      DUP1 \t\t\tERC7579Upgradeab\n      MLOAD \t\t\tERC7579Upgradeab\n      PUSH 20\t\t\tadea\n      DUP1 \t\t\tERC7579Upgradeab\n      DUP3 \t\t\tERC7579Upgradeab\n      MSTORE \t\t\tERC7579Upgradeab\n      DUP2 \t\t\tERC7579Upgradeab\n      DUP4 \t\t\tERC7579Upgradeab\n      ADD \t\t\tERC7579Upgradeab\n      SWAP1 \t\t\tERC7579Upgradeab\n      SWAP3 \t\t\tERC7579Upgradeab\n      MSTORE \t\t\tERC7579Upgradeab\n      SWAP2 \t\t\ttion.\\n        bytes4 erc7739m...\n      SWAP3 \t\t\ttion.\\n        bytes4 erc7739m...\n      POP \t\t\t\n      PUSH 0\t\t\txffffffff) ? Acco\n      SWAP2 \t\t\txffffffff) ? Acco\n      SWAP1 \t\t\tERC7579Upgradeab\n      PUSH 20\t\t\tERC7579Upgradeab\n      DUP3 \t\t\tERC7579Upgradeab\n      ADD \t\t\tERC7579Upgradeab\n      DUP2 \t\t\tERC7579Upgradeab\n      DUP1 \t\t\tERC7579Upgradeab\n      CALLDATASIZE \t\t\tERC7579Upgradeab\n      DUP4 \t\t\tERC7579Upgradeab\n      CALLDATACOPY \t\t\tERC7579Upgradeab\n      POP \t\t\t\n      POP \t\t\t\n      POP \t\t\t\n      SWAP2 \t\t\tic;\\n    }\\n\\n    f\n      DUP3 \t\t\tic;\\n    }\\n\\n    f\n      MSTORE \t\t\tic;\\n    }\\n\\n    f\n      POP \t\t\t\n      PUSH 20\t\t\tmory\n      DUP2 \t\t\tytes[] memory \n      ADD \t\t\tytes[] memory \n      SWAP3 \t\t\tgners(bytes[] memory signers\n      SWAP1 \t\t\tgners(bytes[] memory signers\n      SWAP3 \t\t\tgners(bytes[] memory signers\n      MSTORE \t\t\tgners(bytes[] memory signers\n      POP \t\t\t\n      SWAP1 \t\t\tic;\\n    }\\n\\n    f\n      JUMP \t\t\tection).\\n        // If the re...\n    tag 679\t\t\t\n      JUMPDEST \t\t\t\n      PUSH 0\t\t\t\n      PUSH [tag] 214\t\t\t\n      DUP4 \t\t\t\n      PUSH 1\t\t\t\n      PUSH 1\t\t\t\n      PUSH A0\t\t\t\n      SHL \t\t\t\n      SUB \t\t\t\n      DUP5 \t\t\t\n      AND \t\t\t\n      PUSH [tag] 827\t\t\t\n      JUMP \t\t\t\n    tag 690\t\t\t\n      JUMPDEST \t\t\t\n      PUSH 0\t\t\t\n      PUSH 60\t\t\t\n      PUSH 3\t\t\t\n      DUP4 \t\t\t\n      MLOAD \t\t\t\n      GT \t\t\t\n      PUSH [tag] 829\t\t\t\n      JUMPI \t\t\t\n      PUSH 40\t\t\t\n      MLOAD \t\t\t\n      PUSH FA298711\t\t\t\n      PUSH E0\t\t\t\n      SHL \t\t\t\n      DUP2 \t\t\t\n      MSTORE \t\t\t\n      PUSH 4\t\t\t\n      ADD \t\t\t\n      PUSH 40\t\t\t\n      MLOAD \t\t\t\n      DUP1 \t\t\t\n      SWAP2 \t\t\t\n      SUB \t\t\t\n      SWAP1 \t\t\t\n      REVERT \t\t\t\n    tag 829\t\t\t\n      JUMPDEST \t\t\t\n      PUSH [tag] 830\t\t\t\n      DUP4 \t\t\t\n      PUSH [tag] 831\t\t\t\n      JUMP \t\t\t\n    tag 830\t\t\t\n      JUMPDEST \t\t\t\n      PUSH [tag] 832\t\t\t\n      DUP5 \t\t\t\n      PUSH 4\t\t\t\n      PUSH [tag] 833\t\t\t\n      JUMP \t\t\t\n    tag 832\t\t\t\n      JUMPDEST \t\t\t\n      SWAP2 \t\t\t\n      POP \t\t\t\n      SWAP2 \t\t\t\n      POP \t\t\t\n      SWAP2 \t\t\t\n      POP \t\t\t\n      SWAP2 \t\t\t\n      JUMP \t\t\t\n    tag 718\t\t\t\n      JUMPDEST \t\t\t\n      PUSH 0\t\t\t\n      PUSH [tag] 841\t\t\t\n      PUSH [tag] 286\t\t\t\n      JUMP \t\t\t\n    tag 841\t\t\t\n      JUMPDEST \t\t\t\n      SLOAD \t\t\t\n      PUSH 1\t\t\t\n      PUSH 40\t\t\t\n      SHL \t\t\t\n      SWAP1 \t\t\t\n      DIV \t\t\t\n      PUSH FF\t\t\t\n      AND \t\t\t\n      SWAP2 \t\t\t\n      SWAP1 \t\t\t\n      POP \t\t\t\n      JUMP \t\t\t\n    tag 732\t\t\t\n      JUMPDEST \t\t\t\n      PUSH 0\t\t\t\n      PUSH [tag] 214\t\t\t\n      DUP4 \t\t\t\n      PUSH 1\t\t\t\n      PUSH 1\t\t\t\n      PUSH A0\t\t\t\n      SHL \t\t\t\n      SUB \t\t\t\n      DUP5 \t\t\t\n      AND \t\t\t\n      PUSH [tag] 844\t\t\t\n      JUMP \t\t\t\n    tag 749\t\t\tom \"@openzeppelin/contracts/ac...\n      JUMPDEST \t\t\tom \"@openzeppelin/contracts/ac...\n      PUSH 0\t\t\ton} from \"@o\n      PUSH [tag] 214\t\t\tts/interfaces/draft-IERC4337.\n      DUP4 \t\t\t/draft\n      PUSH 0\t\t\tE\n      DUP5 \t\t\t4337\n      PUSH [tag] 352\t\t\tts/interface\n      JUMP \t\t\tts/interfaces/draft-IERC4337.\n    tag 762\t\t\tSelf {\\n        _addSigners(si...\n      JUMPDEST \t\t\tSelf {\\n        _addSigners(si...\n      PUSH 60\t\t\tintOrSelf {\\n        _remo\n      PUSH 0\t\t\tners);\\n    }\\n\\n\n      PUSH 0\t\t\t  function se\n      CALLDATASIZE \t\t\threshold(uint64 thresho\n      PUSH 0\t\t\threshold(uint64 thresho\n      PUSH [tag] 848\t\t\tpublic onlyEntryPointOrSelf {\\...\n      DUP9 \t\t\ttryPointOrSelf {\\n\n      DUP9 \t\t\ttryPointOrSelf {\\n\n      PUSH [tag] 849\t\t\tpublic onlyE\n      JUMP \t\t\tpublic onlyEntryPointOrSelf {\\...\n    tag 848\t\t\tpublic onlyEntryPointOrSelf {\\...\n      JUMPDEST \t\t\tpublic onlyEntryPointOrSelf {\\...\n      PUSH 40\t\t\treshold);\\n    \n      DUP1 \t\t\treshold);\\n    \n      MLOAD \t\t\treshold);\\n    \n      PUSH 1\t\t\t \n      DUP1 \t\t\treshold);\\n    \n      DUP3 \t\t\treshold);\\n    \n      MSTORE \t\t\treshold);\\n    \n      DUP2 \t\t\treshold);\\n    \n      DUP4 \t\t\treshold);\\n    \n      ADD \t\t\treshold);\\n    \n      SWAP1 \t\t\treshold);\\n    \n      SWAP3 \t\t\treshold);\\n    \n      MSTORE \t\t\treshold);\\n    \n      SWAP5 \t\t\tgners);\\n    }\\n\\n    function...\n      SWAP9 \t\t\tgners);\\n    }\\n\\n    function...\n      POP \t\t\t\n      SWAP3 \t\t\tgners);\\n    }\\n\\n    function...\n      SWAP7 \t\t\tgners);\\n    }\\n\\n    function...\n      POP \t\t\t\n      SWAP1 \t\t\tgners);\\n    }\\n\\n    function...\n      SWAP5 \t\t\tgners);\\n    }\\n\\n    function...\n      POP \t\t\t\n      SWAP3 \t\t\tgners);\\n    }\\n\\n    function...\n      POP \t\t\t\n      DUP2 \t\t\treshold);\\n    \n      PUSH 20\t\t\treshold);\\n    \n      ADD \t\t\treshold);\\n    \n    tag 853\t\t\treshold);\\n    \n      JUMPDEST \t\t\treshold);\\n    \n      PUSH 60\t\t\treshold);\\n    \n      DUP2 \t\t\treshold);\\n    \n      MSTORE \t\t\treshold);\\n    \n      PUSH 20\t\t\treshold);\\n    \n      ADD \t\t\treshold);\\n    \n      SWAP1 \t\t\treshold);\\n    \n      PUSH 1\t\t\treshold);\\n    \n      SWAP1 \t\t\treshold);\\n    \n      SUB \t\t\treshold);\\n    \n      SWAP1 \t\t\treshold);\\n    \n      DUP2 \t\t\treshold);\\n    \n      PUSH [tag] 853\t\t\treshold);\\n    \n      JUMPI \t\t\treshold);\\n    \n      SWAP1 \t\t\treshold);\\n    \n      POP \t\t\treshold);\\n    \n      POP \t\t\treshold);\\n    \n      SWAP5 \t\t\ttThreshold(threshold);\\n    \n      POP \t\t\ttThreshold(threshold);\\n    \n      PUSH [tag] 854\t\t\tnctions are overrides required...\n      PUSH 0\t\t\ts\n      DUP8 \t\t\tre overr\n      DUP7 \t\t\tes req\n      DUP7 \t\t\tred b\n      DUP7 \t\t\tSolidity\n      DUP7 \t\t\tSolidity\n      PUSH [tag] 855\t\t\tnctio\n      JUMP \t\t\tnctions are overrides required...\n    tag 854\t\t\tnctions are overrides required...\n      JUMPDEST \t\t\tnctions are overrides required...\n      DUP6 \t\t\tThe follow\n      PUSH 0\t\t\tn\n      DUP2 \t\t\tThe following\n      MLOAD \t\t\tThe following\n      DUP2 \t\t\tThe following\n      LT \t\t\tThe following\n      PUSH [tag] 857\t\t\tThe following\n      JUMPI \t\t\tThe following\n      PUSH [tag] 857\t\t\tThe following\n      PUSH [tag] 434\t\t\tThe following\n      JUMP \t\t\tThe following\n    tag 857\t\t\tThe following\n      JUMPDEST \t\t\tThe following\n      PUSH 20\t\t\tThe following\n      MUL \t\t\tThe following\n      PUSH 20\t\t\tThe following\n      ADD \t\t\tThe following\n      ADD \t\t\tThe following\n      DUP2 \t\t\tThe following functions are ov...\n      SWAP1 \t\t\tThe following functions are ov...\n      MSTORE \t\t\tThe following functions are ov...\n      POP \t\t\tThe following functions are ov...\n      POP \t\t\tSigners(signers);\\n    }\\n\\n  ...\n      POP \t\t\tSigners(signers);\\n    }\\n\\n  ...\n      POP \t\t\tSigners(signers);\\n    }\\n\\n  ...\n      POP \t\t\tSigners(signers);\\n    }\\n\\n  ...\n      SWAP4 \t\t\tSelf {\\n        _addSigners(si...\n      SWAP3 \t\t\tSelf {\\n        _addSigners(si...\n      POP \t\t\tSelf {\\n        _addSigners(si...\n      POP \t\t\tSelf {\\n        _addSigners(si...\n      POP \t\t\tSelf {\\n        _addSigners(si...\n      JUMP \t\t\tSelf {\\n        _addSigners(si...\n    tag 766\t\t\tlldata userOp, bytes32 userOpH...\n      JUMPDEST \t\t\tlldata userOp, bytes32 userOpH...\n      PUSH 60\t\t\tRC7579Upgradeable)\\n      \n      CALLDATASIZE \t\t\tint256)\\n    {\\n        return...\n      PUSH 0\t\t\tint256)\\n    {\\n        return...\n      PUSH [tag] 859\t\t\tlidateUserOp(userOp, userOpHas\n      DUP7 \t\t\t(userOp, userOpHa\n      DUP7 \t\t\t(userOp, userOpHa\n      PUSH [tag] 860\t\t\tlidateUserO\n      JUMP \t\t\tlidateUserOp(userOp, userOpHas\n    tag 859\t\t\tlidateUserOp(userOp, userOpHas\n      JUMPDEST \t\t\tlidateUserOp(userOp, userOpHas\n      SWAP1 \t\t\tint256)\\n    {\\n        return...\n      SWAP3 \t\t\tint256)\\n    {\\n        return...\n      POP \t\t\t\n      SWAP1 \t\t\tint256)\\n    {\\n        return...\n      POP \t\t\t\n      DUP1 \t\t\tint256)\\n    {\\n        return...\n      PUSH 1\t\t\t\n      PUSH 1\t\t\t\n      PUSH 40\t\t\t\n      SHL \t\t\t\n      SUB \t\t\t\n      DUP2 \t\t\t   // IMPORTANT: Make sure Mul...\n      GT \t\t\t   // IMPORTANT: Make sure Mul...\n      ISZERO \t\t\t   // IMPORTANT: Make sure Mul...\n      PUSH [tag] 862\t\t\t   // IMPORTANT: Make sure Mul...\n      JUMPI \t\t\t   // IMPORTANT: Make sure Mul...\n      PUSH [tag] 862\t\t\t   // IMPORTANT: Make sure Mul...\n      PUSH [tag] 267\t\t\t   // IMPORTANT: Make sure Mul...\n      JUMP \t\t\t   // IMPORTANT: Make sure Mul...\n    tag 862\t\t\t   // IMPORTANT: Make sure Mul...\n      JUMPDEST \t\t\t   // IMPORTANT: Make sure Mul...\n      PUSH 40\t\t\t   // IMPORTANT: Make sure Mul...\n      MLOAD \t\t\t   // IMPORTANT: Make sure Mul...\n      SWAP1 \t\t\t   // IMPORTANT: Make sure Mul...\n      DUP1 \t\t\t   // IMPORTANT: Make sure Mul...\n      DUP3 \t\t\t   // IMPORTANT: Make sure Mul...\n      MSTORE \t\t\t   // IMPORTANT: Make sure Mul...\n      DUP1 \t\t\t   // IMPORTANT: Make sure Mul...\n      PUSH 20\t\t\t   // IMPORTANT: Make sure Mul...\n      MUL \t\t\t   // IMPORTANT: Make sure Mul...\n      PUSH 20\t\t\t   // IMPORTANT: Make sure Mul...\n      ADD \t\t\t   // IMPORTANT: Make sure Mul...\n      DUP3 \t\t\t   // IMPORTANT: Make sure Mul...\n      ADD \t\t\t   // IMPORTANT: Make sure Mul...\n      PUSH 40\t\t\t   // IMPORTANT: Make sure Mul...\n      MSTORE \t\t\t   // IMPORTANT: Make sure Mul...\n      DUP1 \t\t\t   // IMPORTANT: Make sure Mul...\n      ISZERO \t\t\t   // IMPORTANT: Make sure Mul...\n      PUSH [tag] 863\t\t\t   // IMPORTANT: Make sure Mul...\n      JUMPI \t\t\t   // IMPORTANT: Make sure Mul...\n      DUP2 \t\t\t   // IMPORTANT: Make sure Mul...\n      PUSH 20\t\t\t   // IMPORTANT: Make sure Mul...\n      ADD \t\t\t   // IMPORTANT: Make sure Mul...\n    tag 864\t\t\t   // IMPORTANT: Make sure Mul...\n      JUMPDEST \t\t\t   // IMPORTANT: Make sure Mul...\n      PUSH 60\t\t\t   // IMPORTANT: Make sure Mul...\n      DUP2 \t\t\t   // IMPORTANT: Make sure Mul...\n      MSTORE \t\t\t   // IMPORTANT: Make sure Mul...\n      PUSH 20\t\t\t   // IMPORTANT: Make sure Mul...\n      ADD \t\t\t   // IMPORTANT: Make sure Mul...\n      SWAP1 \t\t\t   // IMPORTANT: Make sure Mul...\n      PUSH 1\t\t\t   // IMPORTANT: Make sure Mul...\n      SWAP1 \t\t\t   // IMPORTANT: Make sure Mul...\n      SUB \t\t\t   // IMPORTANT: Make sure Mul...\n      SWAP1 \t\t\t   // IMPORTANT: Make sure Mul...\n      DUP2 \t\t\t   // IMPORTANT: Make sure Mul...\n      PUSH [tag] 864\t\t\t   // IMPORTANT: Make sure Mul...\n      JUMPI \t\t\t   // IMPORTANT: Make sure Mul...\n      SWAP1 \t\t\t   // IMPORTANT: Make sure Mul...\n      POP \t\t\t   // IMPORTANT: Make sure Mul...\n    tag 863\t\t\t   // IMPORTANT: Make sure Mul...\n      JUMPDEST \t\t\t   // IMPORTANT: Make sure Mul...\n      POP \t\t\t\n      SWAP3 \t\t\tre);\\n    }\\n\\n    // IMPORTAN...\n      POP \t\t\t\n      PUSH 0\t\t\tadeable i\n    tag 865\t\t\t3Upgradeable is more derived t...\n      JUMPDEST \t\t\t3Upgradeable is more derived t...\n      DUP2 \t\t\t derived than AccountERC7\n      DUP2 \t\t\t derived than AccountERC7\n      LT \t\t\t derived than AccountERC7\n      ISZERO \t\t\t3Upgradeable is more derived t...\n      PUSH [tag] 332\t\t\t3Upgradeable is more derived t...\n      JUMPI \t\t\t3Upgradeable is more derived t...\n      PUSH [tag] 868\t\t\tnce chain (i.e. contract ... i...\n      DUP2 \t\t\tt\n      DUP7 \t\t\t7579Upgr\n      DUP6 \t\t\tiSignerERC7913\n      DUP6 \t\t\tiSignerERC7913\n      DUP6 \t\t\tp\n      DUP2 \t\t\tiSignerERC7913Upg\n      DUP2 \t\t\tiSignerERC7913Upg\n      LT \t\t\tiSignerERC7913Upg\n      PUSH [tag] 870\t\t\tiSignerERC7913Upg\n      JUMPI \t\t\tiSignerERC7913Upg\n      PUSH [tag] 870\t\t\tiSignerERC7913Upg\n      PUSH [tag] 434\t\t\tiSignerERC7913Upg\n      JUMP \t\t\tiSignerERC7913Upg\n    tag 870\t\t\tiSignerERC7913Upg\n      JUMPDEST \t\t\tiSignerERC7913Upg\n      SWAP1 \t\t\tiSignerERC7913Upg\n      POP \t\t\tiSignerERC7913Upg\n      PUSH 20\t\t\tiSignerERC7913Upg\n      MUL \t\t\tiSignerERC7913Upg\n      DUP2 \t\t\tiSignerERC7913Upg\n      ADD \t\t\tiSignerERC7913Upg\n      SWAP1 \t\t\tiSignerERC7913Upg\n      PUSH [tag] 871\t\t\tiSignerERC7913Upg\n      SWAP2 \t\t\tiSignerERC7913Upg\n      SWAP1 \t\t\tiSignerERC7913Upg\n      PUSH [tag] 872\t\t\tiSignerERC7913Upg\n      JUMP \t\t\tiSignerERC7913Upg\n    tag 871\t\t\tiSignerERC7913Upg\n      JUMPDEST \t\t\tiSignerERC7913Upg\n      PUSH [tag] 873\t\t\tiSignerERC7913Upgradeabl\n      SWAP1 \t\t\tiSignerERC7913Upgradeabl\n      PUSH 20\t\t\tiSignerERC7913Upgradeabl\n      DUP2 \t\t\tiSignerERC7913Upgradeabl\n      ADD \t\t\tiSignerERC7913Upgradeabl\n      SWAP1 \t\t\tiSignerERC7913Upgradeabl\n      PUSH [tag] 874\t\t\tiSignerERC7913Upgradeabl\n      JUMP \t\t\tiSignerERC7913Upgradeabl\n    tag 873\t\t\tiSignerERC7913Upgradeabl\n      JUMPDEST \t\t\tiSignerERC7913Upgradeabl\n      DUP7 \t\t\te the correct \n      DUP7 \t\t\te the correct \n      DUP7 \t\t\tr\n      DUP2 \t\t\te the correct ord\n      DUP2 \t\t\te the correct ord\n      LT \t\t\te the correct ord\n      PUSH [tag] 876\t\t\te the correct ord\n      JUMPI \t\t\te the correct ord\n      PUSH [tag] 876\t\t\te the correct ord\n      PUSH [tag] 434\t\t\te the correct ord\n      JUMP \t\t\te the correct ord\n    tag 876\t\t\te the correct ord\n      JUMPDEST \t\t\te the correct ord\n      SWAP1 \t\t\te the correct ord\n      POP \t\t\te the correct ord\n      PUSH 20\t\t\te the correct ord\n      MUL \t\t\te the correct ord\n      DUP2 \t\t\te the correct ord\n      ADD \t\t\te the correct ord\n      SWAP1 \t\t\te the correct ord\n      PUSH [tag] 877\t\t\te the correct ord\n      SWAP2 \t\t\te the correct ord\n      SWAP1 \t\t\te the correct ord\n      PUSH [tag] 872\t\t\te the correct ord\n      JUMP \t\t\te the correct ord\n    tag 877\t\t\te the correct ord\n      JUMPDEST \t\t\te the correct ord\n      PUSH 20\t\t\te the correct order of \n      ADD \t\t\te the correct order of \n      CALLDATALOAD \t\t\te the correct order of \n      DUP8 \t\t\tn.\\n    // Acco\n      DUP8 \t\t\tn.\\n    // Acco\n      DUP8 \t\t\tn\n      DUP2 \t\t\tn.\\n    // Account\n      DUP2 \t\t\tn.\\n    // Account\n      LT \t\t\tn.\\n    // Account\n      PUSH [tag] 879\t\t\tn.\\n    // Account\n      JUMPI \t\t\tn.\\n    // Account\n      PUSH [tag] 879\t\t\tn.\\n    // Account\n      PUSH [tag] 434\t\t\tn.\\n    // Account\n      JUMP \t\t\tn.\\n    // Account\n    tag 879\t\t\tn.\\n    // Account\n      JUMPDEST \t\t\tn.\\n    // Account\n      SWAP1 \t\t\tn.\\n    // Account\n      POP \t\t\tn.\\n    // Account\n      PUSH 20\t\t\tn.\\n    // Account\n      MUL \t\t\tn.\\n    // Account\n      DUP2 \t\t\tn.\\n    // Account\n      ADD \t\t\tn.\\n    // Account\n      SWAP1 \t\t\tn.\\n    // Account\n      PUSH [tag] 880\t\t\tn.\\n    // Account\n      SWAP2 \t\t\tn.\\n    // Account\n      SWAP1 \t\t\tn.\\n    // Account\n      PUSH [tag] 872\t\t\tn.\\n    // Account\n      JUMP \t\t\tn.\\n    // Account\n    tag 880\t\t\tn.\\n    // Account\n      JUMPDEST \t\t\tn.\\n    // Account\n      PUSH [tag] 881\t\t\tn.\\n    // AccountERC7579Up\n      SWAP1 \t\t\tn.\\n    // AccountERC7579Up\n      PUSH 40\t\t\tn.\\n    // AccountERC7579Up\n      DUP2 \t\t\tn.\\n    // AccountERC7579Up\n      ADD \t\t\tn.\\n    // AccountERC7579Up\n      SWAP1 \t\t\tn.\\n    // AccountERC7579Up\n      PUSH [tag] 233\t\t\tn.\\n    // AccountERC7579Up\n      JUMP \t\t\tn.\\n    // AccountERC7579Up\n    tag 881\t\t\tn.\\n    // AccountERC7579Up\n      JUMPDEST \t\t\tn.\\n    // AccountERC7579Up\n      PUSH [tag] 855\t\t\tnce c\n      JUMP \t\t\tnce chain (i.e. contract ... i...\n    tag 868\t\t\tnce chain (i.e. contract ... i...\n      JUMPDEST \t\t\tnce chain (i.e. contract ... i...\n      DUP5 \t\t\t in the in\n      DUP3 \t\t\te\n      DUP2 \t\t\t in the inher\n      MLOAD \t\t\t in the inher\n      DUP2 \t\t\t in the inher\n      LT \t\t\t in the inher\n      PUSH [tag] 883\t\t\t in the inher\n      JUMPI \t\t\t in the inher\n      PUSH [tag] 883\t\t\t in the inher\n      PUSH [tag] 434\t\t\t in the inher\n      JUMP \t\t\t in the inher\n    tag 883\t\t\t in the inher\n      JUMPDEST \t\t\t in the inher\n      PUSH 20\t\t\t in the inher\n      SWAP1 \t\t\t in the inher\n      DUP2 \t\t\t in the inher\n      MUL \t\t\t in the inher\n      SWAP2 \t\t\t in the inher\n      SWAP1 \t\t\t in the inher\n      SWAP2 \t\t\t in the inher\n      ADD \t\t\t in the inher\n      ADD \t\t\t in the inher\n      MSTORE \t\t\t in the inheritance chain (i.e...\n      PUSH 1\t\t\t9Up\n      ADD \t\t\t9Up\n      PUSH [tag] 865\t\t\t3Upgradeable is more derived t...\n      JUMP \t\t\t3Upgradeable is more derived t...\n    tag 770\t\t\treValidation(bytes32 hash, byt...\n      JUMPDEST \t\t\treValidation(bytes32 hash, byt...\n      PUSH 60\t\t\tpgradeable, AbstractSigne\n      PUSH 0\t\t\t7579Upgradeabl\n      CALLDATASIZE \t\t\t\\n        returns (bool)\n      PUSH 0\t\t\t\\n        returns (bool)\n      PUSH [tag] 885\t\t\t {\\n        return super._rawS...\n      DUP8 \t\t\trn super._rawSign\n      DUP8 \t\t\trn super._rawSign\n      PUSH [tag] 886\t\t\t {\\n        ret\n      JUMP \t\t\t {\\n        return super._rawS...\n    tag 885\t\t\t {\\n        return super._rawS...\n      JUMPDEST \t\t\t {\\n        return super._rawS...\n      PUSH 40\t\t\tgnature);\\n    \n      DUP1 \t\t\tgnature);\\n    \n      MLOAD \t\t\tgnature);\\n    \n      PUSH 1\t\t\t \n      DUP1 \t\t\tgnature);\\n    \n      DUP3 \t\t\tgnature);\\n    \n      MSTORE \t\t\tgnature);\\n    \n      DUP2 \t\t\tgnature);\\n    \n      DUP4 \t\t\tgnature);\\n    \n      ADD \t\t\tgnature);\\n    \n      SWAP1 \t\t\tgnature);\\n    \n      SWAP3 \t\t\tgnature);\\n    \n      MSTORE \t\t\tgnature);\\n    \n      SWAP4 \t\t\tC7579Upgradeable)\\n        ret...\n      SWAP7 \t\t\tC7579Upgradeable)\\n        ret...\n      POP \t\t\t\n      SWAP2 \t\t\tC7579Upgradeable)\\n        ret...\n      SWAP5 \t\t\tC7579Upgradeable)\\n        ret...\n      POP \t\t\t\n      SWAP3 \t\t\tC7579Upgradeable)\\n        ret...\n      POP \t\t\t\n      DUP2 \t\t\tgnature);\\n    \n      PUSH 20\t\t\tgnature);\\n    \n      ADD \t\t\tgnature);\\n    \n    tag 890\t\t\tgnature);\\n    \n      JUMPDEST \t\t\tgnature);\\n    \n      PUSH 60\t\t\tgnature);\\n    \n      DUP2 \t\t\tgnature);\\n    \n      MSTORE \t\t\tgnature);\\n    \n      PUSH 20\t\t\tgnature);\\n    \n      ADD \t\t\tgnature);\\n    \n      SWAP1 \t\t\tgnature);\\n    \n      PUSH 1\t\t\tgnature);\\n    \n      SWAP1 \t\t\tgnature);\\n    \n      SUB \t\t\tgnature);\\n    \n      SWAP1 \t\t\tgnature);\\n    \n      DUP2 \t\t\tgnature);\\n    \n      PUSH [tag] 890\t\t\tgnature);\\n    \n      JUMPI \t\t\tgnature);\\n    \n      SWAP1 \t\t\tgnature);\\n    \n      POP \t\t\tgnature);\\n    \n      POP \t\t\tgnature);\\n    \n      SWAP4 \t\t\ttion(hash, signature);\\n    \n      POP \t\t\ttion(hash, signature);\\n    \n      PUSH [tag] 891\t\t\t\n      PUSH 0\t\t\t\n      DUP7 \t\t\t\n      DUP6 \t\t\t\n      DUP6 \t\t\t\n      DUP6 \t\t\t\n      PUSH [tag] 892\t\t\t\n      JUMP \t\t\t\n    tag 891\t\t\t\n      JUMPDEST \t\t\t\n      DUP5 \t\t\t\n      PUSH 0\t\t\t\n      DUP2 \t\t\t\n      MLOAD \t\t\t\n      DUP2 \t\t\t\n      LT \t\t\t\n      PUSH [tag] 894\t\t\t\n      JUMPI \t\t\t\n      PUSH [tag] 894\t\t\t\n      PUSH [tag] 434\t\t\t\n      JUMP \t\t\t\n    tag 894\t\t\t\n      JUMPDEST \t\t\t\n      PUSH 20\t\t\t\n      MUL \t\t\t\n      PUSH 20\t\t\t\n      ADD \t\t\t\n      ADD \t\t\t\n      DUP2 \t\t\t\n      SWAP1 \t\t\t\n      MSTORE \t\t\t\n      POP \t\t\t\n      POP \t\t\t AccountERC7579Upgradeable)\\n ...\n      POP \t\t\t AccountERC7579Upgradeable)\\n ...\n      POP \t\t\t AccountERC7579Upgradeable)\\n ...\n      SWAP4 \t\t\treValidation(bytes32 hash, byt...\n      SWAP3 \t\t\treValidation(bytes32 hash, byt...\n      POP \t\t\treValidation(bytes32 hash, byt...\n      POP \t\t\treValidation(bytes32 hash, byt...\n      POP \t\t\treValidation(bytes32 hash, byt...\n      JUMP \t\t\treValidation(bytes32 hash, byt...\n    tag 795\t\t\t\n      JUMPDEST \t\t\t\n      CALLDATASIZE \t\t\t\n      PUSH 0\t\t\t\n      DUP2 \t\t\t\n      DUP2 \t\t\t\n      DUP6 \t\t\t\n      DUP6 \t\t\t\n      DUP1 \t\t\t\n      ISZERO \t\t\t\n      PUSH [tag] 915\t\t\t\n      JUMPI \t\t\t\n      PUSH 29\t\t\t\n      PUSH F8\t\t\t\n      SHL \t\t\t\n      DUP3 \t\t\t\n      DUP3 \t\t\t\n      PUSH [tag] 899\t\t\t\n      PUSH 1\t\t\t\n      DUP3 \t\t\t\n      PUSH [tag] 630\t\t\t\n      JUMP \t\t\t\n    tag 899\t\t\t\n      JUMPDEST \t\t\t\n      DUP2 \t\t\t\n      DUP2 \t\t\t\n      LT \t\t\t\n      PUSH [tag] 901\t\t\t\n      JUMPI \t\t\t\n      PUSH [tag] 901\t\t\t\n      PUSH [tag] 434\t\t\t\n      JUMP \t\t\t\n    tag 901\t\t\t\n      JUMPDEST \t\t\t\n      SWAP1 \t\t\t\n      POP \t\t\t\n      ADD \t\t\t\n      CALLDATALOAD \t\t\t\n      PUSH F8\t\t\t\n      SHR \t\t\t\n      PUSH F8\t\t\t\n      SHL \t\t\t\n      PUSH 1\t\t\t\n      PUSH 1\t\t\t\n      PUSH F8\t\t\t\n      SHL \t\t\t\n      SUB \t\t\t\n      NOT \t\t\t\n      AND \t\t\t\n      SUB \t\t\t\n      PUSH [tag] 902\t\t\t\n      JUMPI \t\t\t\n      PUSH 0\t\t\t\n    tag 903\t\t\t\n      JUMPDEST \t\t\t\n      DUP2 \t\t\t\n      DUP2 \t\t\t\n      LT \t\t\t\n      ISZERO \t\t\t\n      PUSH [tag] 904\t\t\t\n      JUMPI \t\t\t\n      PUSH 0\t\t\t\n      DUP4 \t\t\t\n      DUP4 \t\t\t\n      DUP4 \t\t\t\n      DUP2 \t\t\t\n      DUP2 \t\t\t\n      LT \t\t\t\n      PUSH [tag] 907\t\t\t\n      JUMPI \t\t\t\n      PUSH [tag] 907\t\t\t\n      PUSH [tag] 434\t\t\t\n      JUMP \t\t\t\n    tag 907\t\t\t\n      JUMPDEST \t\t\t\n      SWAP1 \t\t\t\n      SWAP2 \t\t\t\n      ADD \t\t\t\n      CALLDATALOAD \t\t\t\n      PUSH 1\t\t\t\n      PUSH 1\t\t\t\n      PUSH F8\t\t\t\n      SHL \t\t\t\n      SUB \t\t\t\n      NOT \t\t\t\n      AND \t\t\t\n      SWAP2 \t\t\t\n      POP \t\t\t\n      POP \t\t\t\n      PUSH 1B\t\t\t\n      PUSH FB\t\t\t\n      SHL \t\t\t\n      DUP2 \t\t\t\n      ADD \t\t\t\n      PUSH [tag] 908\t\t\t\n      JUMPI \t\t\t\n      DUP2 \t\t\t\n      PUSH 0\t\t\t\n      SUB \t\t\t\n      PUSH [tag] 909\t\t\t\n      JUMPI \t\t\t\n      POP \t\t\t\n      PUSH [tag] 904\t\t\t\n      JUMP \t\t\t\n    tag 909\t\t\t\n      JUMPDEST \t\t\t\n      PUSH [tag] 910\t\t\t\n      DUP3 \t\t\t\n      PUSH 0\t\t\t\n      DUP6 \t\t\t\n      DUP8 \t\t\t\n      PUSH [tag] 371\t\t\t\n      JUMP \t\t\t\n    tag 910\t\t\t\n      JUMPDEST \t\t\t\n      DUP12 \t\t\t\n      DUP12 \t\t\t\n      SWAP8 \t\t\t\n      POP \t\t\t\n      SWAP8 \t\t\t\n      POP \t\t\t\n      SWAP8 \t\t\t\n      POP \t\t\t\n      SWAP8 \t\t\t\n      POP \t\t\t\n      POP \t\t\t\n      POP \t\t\t\n      POP \t\t\t\n      POP \t\t\t\n      PUSH [tag] 896\t\t\t\n      JUMP \t\t\t\n    tag 908\t\t\t\n      JUMPDEST \t\t\t\n      PUSH [tag] 912\t\t\t\n      DUP2 \t\t\t\n      PUSH [tag] 913\t\t\t\n      JUMP \t\t\t\n    tag 912\t\t\t\n      JUMPDEST \t\t\t\n      ISZERO \t\t\t\n      PUSH [tag] 914\t\t\t\n      JUMPI \t\t\t\n      POP \t\t\t\n      PUSH [tag] 904\t\t\t\n      JUMP \t\t\t\n    tag 914\t\t\t\n      JUMPDEST \t\t\t\n      POP \t\t\t\n      PUSH 1\t\t\t\n      ADD \t\t\t\n      PUSH [tag] 903\t\t\t\n      JUMP \t\t\t\n    tag 904\t\t\t\n      JUMPDEST \t\t\t\n      POP \t\t\t\n      PUSH [tag] 915\t\t\t\n      JUMP \t\t\t\n    tag 902\t\t\t\n      JUMPDEST \t\t\t\n      DUP1 \t\t\t\n    tag 916\t\t\t\n      JUMPDEST \t\t\t\n      DUP1 \t\t\t\n      ISZERO \t\t\t\n      PUSH [tag] 917\t\t\t\n      JUMPI \t\t\t\n      PUSH 0\t\t\t\n      DUP4 \t\t\t\n      DUP4 \t\t\t\n      PUSH [tag] 919\t\t\t\n      PUSH 1\t\t\t\n      DUP6 \t\t\t\n      PUSH [tag] 630\t\t\t\n      JUMP \t\t\t\n    tag 919\t\t\t\n      JUMPDEST \t\t\t\n      DUP2 \t\t\t\n      DUP2 \t\t\t\n      LT \t\t\t\n      PUSH [tag] 921\t\t\t\n      JUMPI \t\t\t\n      PUSH [tag] 921\t\t\t\n      PUSH [tag] 434\t\t\t\n      JUMP \t\t\t\n    tag 921\t\t\t\n      JUMPDEST \t\t\t\n      SWAP1 \t\t\t\n      SWAP2 \t\t\t\n      ADD \t\t\t\n      CALLDATALOAD \t\t\t\n      PUSH 1\t\t\t\n      PUSH 1\t\t\t\n      PUSH F8\t\t\t\n      SHL \t\t\t\n      SUB \t\t\t\n      NOT \t\t\t\n      AND \t\t\t\n      SWAP2 \t\t\t\n      POP \t\t\t\n      POP \t\t\t\n      PUSH D7\t\t\t\n      PUSH F8\t\t\t\n      SHL \t\t\t\n      DUP2 \t\t\t\n      ADD \t\t\t\n      PUSH [tag] 922\t\t\t\n      JUMPI \t\t\t\n      PUSH [tag] 923\t\t\t\n      DUP4 \t\t\t\n      DUP4 \t\t\t\n      DUP2 \t\t\t\n      DUP8 \t\t\t\n      PUSH [tag] 371\t\t\t\n      JUMP \t\t\t\n    tag 923\t\t\t\n      JUMPDEST \t\t\t\n      PUSH [tag] 924\t\t\t\n      DUP5 \t\t\t\n      PUSH 0\t\t\t\n      DUP8 \t\t\t\n      DUP10 \t\t\t\n      PUSH [tag] 371\t\t\t\n      JUMP \t\t\t\n    tag 924\t\t\t\n      JUMPDEST \t\t\t\n      SWAP8 \t\t\t\n      POP \t\t\t\n      SWAP8 \t\t\t\n      POP \t\t\t\n      SWAP8 \t\t\t\n      POP \t\t\t\n      SWAP8 \t\t\t\n      POP \t\t\t\n      POP \t\t\t\n      POP \t\t\t\n      POP \t\t\t\n      POP \t\t\t\n      PUSH [tag] 896\t\t\t\n      JUMP \t\t\t\n    tag 922\t\t\t\n      JUMPDEST \t\t\t\n      PUSH [tag] 926\t\t\t\n      DUP2 \t\t\t\n      PUSH [tag] 913\t\t\t\n      JUMP \t\t\t\n    tag 926\t\t\t\n      JUMPDEST \t\t\t\n      ISZERO \t\t\t\n      PUSH [tag] 927\t\t\t\n      JUMPI \t\t\t\n      POP \t\t\t\n      PUSH [tag] 917\t\t\t\n      JUMP \t\t\t\n    tag 927\t\t\t\n      JUMPDEST \t\t\t\n      POP \t\t\t\n      PUSH [tag] 928\t\t\t\n      DUP2 \t\t\t\n      PUSH [tag] 929\t\t\t\n      JUMP \t\t\t\n    tag 928\t\t\t\n      JUMPDEST \t\t\t\n      SWAP1 \t\t\t\n      POP \t\t\t\n      PUSH [tag] 916\t\t\t\n      JUMP \t\t\t\n    tag 917\t\t\t\n      JUMPDEST \t\t\t\n      POP \t\t\t\n    tag 915\t\t\t\n      JUMPDEST \t\t\t\n      PUSH 0\t\t\ts-upgradeable/account\n      DUP1 \t\t\ts-upgradeable/account\n      PUSH 0\t\t\ts-upgradeable/account\n      DUP1 \t\t\ts-upgradeable/account\n      SWAP6 \t\t\t\n      POP \t\t\t\n      SWAP6 \t\t\t\n      POP \t\t\t\n      SWAP6 \t\t\t\n      POP \t\t\t\n      SWAP6 \t\t\t\n      POP \t\t\t\n      POP \t\t\t\n      POP \t\t\t\n    tag 896\t\t\t\n      JUMPDEST \t\t\t\n      SWAP3 \t\t\t\n      SWAP6 \t\t\t\n      SWAP2 \t\t\t\n      SWAP5 \t\t\t\n      POP \t\t\t\n      SWAP3 \t\t\t\n      POP \t\t\t\n      JUMP \t\t\t\n    tag 797\t\t\t\n      JUMPDEST \t\t\t\n      PUSH 0\t\t\t\n      DUP6 \t\t\t\n      ISZERO \t\t\t\n      PUSH [tag] 933\t\t\t\n      JUMPI \t\t\t\n      PUSH [tag] 934\t\t\t\n      DUP8 \t\t\t\n      DUP8 \t\t\t\n      DUP8 \t\t\t\n      DUP8 \t\t\t\n      PUSH [tag] 935\t\t\t\n      JUMP \t\t\t\n    tag 934\t\t\t\n      JUMPDEST \t\t\t\n      DUP4 \t\t\t\n      DUP4 \t\t\t\n      PUSH 40\t\t\t\n      MLOAD \t\t\t\n      PUSH 20\t\t\t\n      ADD \t\t\t\n      PUSH [tag] 936\t\t\t\n      SWAP4 \t\t\t\n      SWAP3 \t\t\t\n      SWAP2 \t\t\t\n      SWAP1 \t\t\t\n      PUSH [tag] 937\t\t\t\n      JUMP \t\t\t\n    tag 936\t\t\t\n      JUMPDEST \t\t\t\n      PUSH 40\t\t\t\n      MLOAD \t\t\t\n      PUSH 20\t\t\t\n      DUP2 \t\t\t\n      DUP4 \t\t\t\n      SUB \t\t\t\n      SUB \t\t\t\n      DUP2 \t\t\t\n      MSTORE \t\t\t\n      SWAP1 \t\t\t\n      PUSH 40\t\t\t\n      MSTORE \t\t\t\n      DUP1 \t\t\t\n      MLOAD \t\t\t\n      SWAP1 \t\t\t\n      PUSH 20\t\t\t\n      ADD \t\t\t\n      KECCAK256 \t\t\t\n      PUSH [tag] 938\t\t\t\n      JUMP \t\t\t\n    tag 933\t\t\t\n      JUMPDEST \t\t\t\n      PUSH 0\t\t\t\n    tag 938\t\t\t\n      JUMPDEST \t\t\t\n      SWAP8 \t\t\t\n      SWAP7 \t\t\t\n      POP \t\t\t\n      POP \t\t\t\n      POP \t\t\t\n      POP \t\t\t\n      POP \t\t\t\n      POP \t\t\t\n      POP \t\t\t\n      JUMP \t\t\t\n    tag 800\t\t\t\n      JUMPDEST \t\t\t\n      PUSH 0\t\t\t\n      DUP2 \t\t\t\n      DUP2 \t\t\t\n      SUB \t\t\t\n      PUSH [tag] 940\t\t\t\n      JUMPI \t\t\t\n      POP \t\t\t\n      PUSH 0\t\t\t\n      PUSH [tag] 214\t\t\t\n      JUMP \t\t\t\n    tag 940\t\t\t\n      JUMPDEST \t\t\t\n      PUSH 0\t\t\t\n      DUP1 \t\t\t\n      PUSH [tag] 941\t\t\t\n      DUP5 \t\t\t\n      DUP7 \t\t\t\n      ADD \t\t\t\n      DUP7 \t\t\t\n      PUSH [tag] 942\t\t\t\n      JUMP \t\t\t\n    tag 941\t\t\t\n      JUMPDEST \t\t\t\n      SWAP2 \t\t\t\n      POP \t\t\t\n      SWAP2 \t\t\t\n      POP \t\t\t\n      PUSH [tag] 943\t\t\t\n      DUP3 \t\t\t\n      PUSH [tag] 944\t\t\t\n      JUMP \t\t\t\n    tag 943\t\t\t\n      JUMPDEST \t\t\t\n      DUP1 \t\t\t\n      ISZERO \t\t\t\n      PUSH [tag] 625\t\t\t\n      JUMPI \t\t\t\n      POP \t\t\t\n      PUSH [tag] 625\t\t\t\n      DUP7 \t\t\t\n      DUP4 \t\t\t\n      DUP4 \t\t\t\n      PUSH [tag] 947\t\t\t\n      JUMP \t\t\t\n    tag 812\t\t\t\n      JUMPDEST \t\t\t\n      PUSH 0\t\t\t\n      PUSH C\t\t\t\n      DUP3 \t\t\t\n      PUSH FF\t\t\t\n      AND \t\t\t\n      GT \t\t\t\n      ISZERO \t\t\t\n      PUSH [tag] 953\t\t\t\n      JUMPI \t\t\t\n      PUSH 40\t\t\t\n      MLOAD \t\t\t\n      PUSH 1DD4BB1B\t\t\t\n      PUSH E1\t\t\t\n      SHL \t\t\t\n      DUP2 \t\t\t\n      MSTORE \t\t\t\n      PUSH 4\t\t\t\n      ADD \t\t\t\n      PUSH 40\t\t\t\n      MLOAD \t\t\t\n      DUP1 \t\t\t\n      SWAP2 \t\t\t\n      SUB \t\t\t\n      SWAP1 \t\t\t\n      REVERT \t\t\t\n    tag 953\t\t\t\n      JUMPDEST \t\t\t\n      POP \t\t\t\n      PUSH 8\t\t\t\n      MUL \t\t\t\n      SHL \t\t\t\n      PUSH 1\t\t\t\n      PUSH 1\t\t\t\n      PUSH 60\t\t\t\n      SHL \t\t\t\n      SUB \t\t\t\n      NOT \t\t\t\n      AND \t\t\t\n      SWAP1 \t\t\t\n      JUMP \t\t\t\n    tag 821\t\t\try signers) public onlyEntryPo...\n      JUMPDEST \t\t\try signers) public onlyEntryPo...\n      PUSH 0\t\t\ters(sig\n      PUSH FF\t\t\tonly\n      DUP3 \t\t\ttThreshold(uint64 threshold) p...\n      AND \t\t\ttThreshold(uint64 threshold) p...\n      PUSH 1F\t\t\t    \n      DUP2 \t\t\tlf {\\n        \n      GT \t\t\tlf {\\n        \n      ISZERO \t\t\tOrSelf {\\n        _setThreshol...\n      PUSH [tag] 205\t\t\tOrSelf {\\n        _setThreshol...\n      JUMPI \t\t\tOrSelf {\\n        _setThreshol...\n      PUSH 40\t\t\t);\\n    }\\n\\n    // The\n      MLOAD \t\t\t);\\n    }\\n\\n    // The\n      PUSH 2CD44AC3\t\t\t\n      PUSH E2\t\t\t\n      SHL \t\t\t\n      DUP2 \t\t\t);\\n    }\\n\\n    // The\n      MSTORE \t\t\t);\\n    }\\n\\n    // The\n      PUSH 4\t\t\t);\\n    }\\n\\n    // The\n      ADD \t\t\t);\\n    }\\n\\n    // The\n      PUSH 40\t\t\t);\\n    }\\n\\n    // The\n      MLOAD \t\t\t);\\n    }\\n\\n    // The\n      DUP1 \t\t\t);\\n    }\\n\\n    // The\n      SWAP2 \t\t\t);\\n    }\\n\\n    // The\n      SUB \t\t\t);\\n    }\\n\\n    // The\n      SWAP1 \t\t\t);\\n    }\\n\\n    // The\n      REVERT \t\t\t);\\n    }\\n\\n    // The\n    tag 827\t\t\tners) public onlyEntryPointOrS...\n      JUMPDEST \t\t\tners) public onlyEntryPointOrS...\n      PUSH 0\t\t\ters)\n      DUP2 \t\t\t\n      DUP2 \t\t\t\n      MSTORE \t\t\t\n      PUSH 1\t\t\t\n      DUP4 \t\t\t\n      ADD \t\t\t\n      PUSH 20\t\t\t\n      MSTORE \t\t\t\n      PUSH 40\t\t\t\n      DUP2 \t\t\t\n      KECCAK256 \t\t\t\n      SLOAD \t\t\t\n      PUSH [tag] 710\t\t\t function setThreshold(uint64 ...\n      JUMPI \t\t\t function setThreshold(uint64 ...\n      POP \t\t\t\n      DUP2 \t\t\tublic onlyEntryPointOrS\n      SLOAD \t\t\tublic onlyEntryPointOrS\n      PUSH 1\t\t\tublic onlyEntryPointOrS\n      DUP2 \t\t\tublic onlyEntryPointOrS\n      DUP2 \t\t\tublic onlyEntryPointOrS\n      ADD \t\t\tublic onlyEntryPointOrS\n      DUP5 \t\t\tublic onlyEntryPointOrS\n      SSTORE \t\t\tublic onlyEntryPointOrS\n      PUSH 0\t\t\tublic onlyE\n      DUP5 \t\t\tublic onlyEntryPointOrS\n      DUP2 \t\t\tublic onlyEntryPointOrS\n      MSTORE \t\t\tublic onlyEntryPointOrS\n      PUSH 20\t\t\tublic onlyEntryPointOrS\n      DUP1 \t\t\tublic onlyEntryPointOrS\n      DUP3 \t\t\tublic onlyEntryPointOrS\n      KECCAK256 \t\t\tublic onlyEntryPointOrS\n      SWAP1 \t\t\tublic onlyEntryPointOrS\n      SWAP4 \t\t\tublic onlyEntryPointOrS\n      ADD \t\t\tublic onlyEntryPointOrS\n      DUP5 \t\t\tublic onlyEntryPointOrS\n      SWAP1 \t\t\tublic onlyEntryPointOrS\n      SSTORE \t\t\tublic onlyEntryPointOrS\n      DUP5 \t\t\ttion calldata user\n      SLOAD \t\t\ttion calldata user\n      DUP5 \t\t\tteUserOp(PackedUserOp\n      DUP3 \t\t\tteUserOp(PackedUserOp\n      MSTORE \t\t\tteUserOp(PackedUserOp\n      DUP3 \t\t\tteUserOp(Packe\n      DUP7 \t\t\tteUserOp(Packe\n      ADD \t\t\tteUserOp(Packe\n      SWAP1 \t\t\tteUserOp(PackedUserOp\n      SWAP4 \t\t\tteUserOp(PackedUserOp\n      MSTORE \t\t\tteUserOp(PackedUserOp\n      PUSH 40\t\t\tteUserOp(PackedUserOp\n      SWAP1 \t\t\tteUserOp(PackedUserOp\n      KECCAK256 \t\t\tteUserOp(PackedUserOp\n      SWAP2 \t\t\tteUserOp(PackedUserOperation c...\n      SWAP1 \t\t\tteUserOp(PackedUserOperation c...\n      SWAP2 \t\t\tteUserOp(PackedUserOperation c...\n      SSTORE \t\t\tteUserOp(PackedUserOperation c...\n      PUSH [tag] 205\t\t\terOpHash, b\n      JUMP \t\t\terOpHash, b\n    tag 833\t\t\te correct order of function re...\n      JUMPDEST \t\t\te correct order of function re...\n      PUSH 60\t\t\teturns false\n      PUSH [tag] 214\t\t\talidation\\n    function _rawSi...\n      DUP4 \t\t\tion\\n  \n      DUP4 \t\t\tfunct\n      DUP6 \t\t\tn _raw\n      MLOAD \t\t\tn _rawSignatu\n      PUSH [tag] 963\t\t\talida\n      JUMP \t\t\talidation\\n    function _rawSi...\n    tag 844\t\t\tre MultiSignerERC7913Upgradeab...\n      JUMPDEST \t\t\tre MultiSignerERC7913Upgradeab...\n      PUSH 0\t\t\t79Up\n      DUP2 \t\t\t)\\n    // to ensure th\n      DUP2 \t\t\t)\\n    // to ensure th\n      MSTORE \t\t\t)\\n    // to ensure th\n      PUSH 1\t\t\t)\\n    // to en\n      DUP4 \t\t\t)\\n    // to en\n      ADD \t\t\t)\\n    // to en\n      PUSH 20\t\t\t)\\n    // to ensure th\n      MSTORE \t\t\t)\\n    // to ensure th\n      PUSH 40\t\t\t)\\n    // to ensure th\n      DUP2 \t\t\t)\\n    // to ensure th\n      KECCAK256 \t\t\t)\\n    // to ensure th\n      SLOAD \t\t\t)\\n    // to ensure th\n      DUP1 \t\t\t of function \n      ISZERO \t\t\t of function \n      PUSH [tag] 628\t\t\trder of function resolution.\\n...\n      JUMPI \t\t\trder of function resolution.\\n...\n      PUSH 0\t\t\ttion(hash, signatu\n      PUSH [tag] 967\t\t\t;\\n    }\\n}\\n\n      PUSH 1\t\t\t\n      DUP4 \t\t\t;\\n    }\\n\n      PUSH [tag] 630\t\t\t;\\n    }\\n}\\n\n      JUMP \t\t\t;\\n    }\\n}\\n\n    tag 967\t\t\t;\\n    }\\n}\\n\n      JUMPDEST \t\t\t;\\n    }\\n}\\n\n      DUP6 \t\t\t\n      SLOAD \t\t\t\n      SWAP1 \t\t\ttion(hash, signature);\\n    }\\...\n      SWAP2 \t\t\ttion(hash, signature);\\n    }\\...\n      POP \t\t\t\n      PUSH 0\t\t\t\n      SWAP1 \t\t\t\n      PUSH [tag] 968\t\t\t\n      SWAP1 \t\t\t\n      PUSH 1\t\t\t\n      SWAP1 \t\t\t\n      PUSH [tag] 630\t\t\t\n      JUMP \t\t\t\n    tag 968\t\t\t\n      JUMPDEST \t\t\t\n      SWAP1 \t\t\t\n      POP \t\t\t\n      DUP1 \t\t\t\n      DUP3 \t\t\t\n      EQ \t\t\t\n      PUSH [tag] 969\t\t\t\n      JUMPI \t\t\t\n      PUSH 0\t\t\t\n      DUP7 \t\t\t\n      PUSH 0\t\t\t\n      ADD \t\t\t\n      DUP3 \t\t\t\n      DUP2 \t\t\t\n      SLOAD \t\t\t\n      DUP2 \t\t\t\n      LT \t\t\t\n      PUSH [tag] 971\t\t\t\n      JUMPI \t\t\t\n      PUSH [tag] 971\t\t\t\n      PUSH [tag] 434\t\t\t\n      JUMP \t\t\t\n    tag 971\t\t\t\n      JUMPDEST \t\t\t\n      SWAP1 \t\t\t\n      PUSH 0\t\t\t\n      MSTORE \t\t\t\n      PUSH 20\t\t\t\n      PUSH 0\t\t\t\n      KECCAK256 \t\t\t\n      ADD \t\t\t\n      SLOAD \t\t\t\n      SWAP1 \t\t\t\n      POP \t\t\t\n      DUP1 \t\t\t\n      DUP8 \t\t\t\n      PUSH 0\t\t\t\n      ADD \t\t\t\n      DUP5 \t\t\t\n      DUP2 \t\t\t\n      SLOAD \t\t\t\n      DUP2 \t\t\t\n      LT \t\t\t\n      PUSH [tag] 974\t\t\t\n      JUMPI \t\t\t\n      PUSH [tag] 974\t\t\t\n      PUSH [tag] 434\t\t\t\n      JUMP \t\t\t\n    tag 974\t\t\t\n      JUMPDEST \t\t\t\n      PUSH 0\t\t\t\n      SWAP2 \t\t\t\n      DUP3 \t\t\t\n      MSTORE \t\t\t\n      PUSH 20\t\t\t\n      DUP1 \t\t\t\n      DUP4 \t\t\t\n      KECCAK256 \t\t\t\n      SWAP1 \t\t\t\n      SWAP2 \t\t\t\n      ADD \t\t\t\n      SWAP3 \t\t\t\n      SWAP1 \t\t\t\n      SWAP3 \t\t\t\n      SSTORE \t\t\t\n      SWAP2 \t\t\t\n      DUP3 \t\t\t\n      MSTORE \t\t\t\n      PUSH 1\t\t\t\n      DUP9 \t\t\t\n      ADD \t\t\t\n      SWAP1 \t\t\t\n      MSTORE \t\t\t\n      PUSH 40\t\t\t\n      SWAP1 \t\t\t\n      KECCAK256 \t\t\t\n      DUP4 \t\t\t\n      SWAP1 \t\t\t\n      SSTORE \t\t\t\n    tag 969\t\t\t\n      JUMPDEST \t\t\t\n      DUP6 \t\t\t\n      SLOAD \t\t\t\n      DUP7 \t\t\t\n      SWAP1 \t\t\t\n      DUP1 \t\t\t\n      PUSH [tag] 977\t\t\t\n      JUMPI \t\t\t\n      PUSH [tag] 977\t\t\t\n      PUSH [tag] 649\t\t\t\n      JUMP \t\t\t\n    tag 977\t\t\t\n      JUMPDEST \t\t\t\n      PUSH 1\t\t\t\n      SWAP1 \t\t\t\n      SUB \t\t\t\n      DUP2 \t\t\t\n      DUP2 \t\t\t\n      SWAP1 \t\t\t\n      PUSH 0\t\t\t\n      MSTORE \t\t\t\n      PUSH 20\t\t\t\n      PUSH 0\t\t\t\n      KECCAK256 \t\t\t\n      ADD \t\t\t\n      PUSH 0\t\t\t\n      SWAP1 \t\t\t\n      SSTORE \t\t\t\n      SWAP1 \t\t\t\n      SSTORE \t\t\t\n      DUP6 \t\t\t\n      PUSH 1\t\t\t\n      ADD \t\t\t\n      PUSH 0\t\t\t\n      DUP7 \t\t\t\n      DUP2 \t\t\t\n      MSTORE \t\t\t\n      PUSH 20\t\t\t\n      ADD \t\t\t\n      SWAP1 \t\t\t\n      DUP2 \t\t\t\n      MSTORE \t\t\t\n      PUSH 20\t\t\t\n      ADD \t\t\t\n      PUSH 0\t\t\t\n      KECCAK256 \t\t\t\n      PUSH 0\t\t\t\n      SWAP1 \t\t\t\n      SSTORE \t\t\t\n      PUSH 1\t\t\t\n      SWAP4 \t\t\t\n      POP \t\t\t\n      POP \t\t\t\n      POP \t\t\t\n      POP \t\t\t\n      PUSH [tag] 205\t\t\t\n      JUMP \t\t\t\n    tag 849\t\t\t\n      JUMPDEST \t\t\t\n      PUSH 0\t\t\t\n      DUP1 \t\t\t\n      CALLDATASIZE \t\t\t\n      DUP2 \t\t\t\n      PUSH [tag] 981\t\t\t\n      DUP6 \t\t\t\n      DUP8 \t\t\t\n      PUSH [tag] 601\t\t\t\n      JUMP \t\t\t\n    tag 981\t\t\t\n      JUMPDEST \t\t\t\n      PUSH 60\t\t\t\n      SHR \t\t\t\n      SWAP4 \t\t\t\n      POP \t\t\t\n      PUSH [tag] 982\t\t\t\n      PUSH 34\t\t\t\n      PUSH 14\t\t\t\n      DUP8 \t\t\t\n      DUP10 \t\t\t\n      PUSH [tag] 371\t\t\t\n      JUMP \t\t\t\n    tag 982\t\t\t\n      JUMPDEST \t\t\t\n      PUSH [tag] 983\t\t\t\n      SWAP2 \t\t\t\n      PUSH [tag] 788\t\t\t\n      JUMP \t\t\t\n    tag 983\t\t\t\n      JUMPDEST \t\t\t\n      SWAP3 \t\t\t\n      POP \t\t\t\n      PUSH [tag] 984\t\t\t\n      DUP6 \t\t\t\n      PUSH 34\t\t\t\n      DUP2 \t\t\t\n      DUP10 \t\t\t\n      PUSH [tag] 371\t\t\t\n      JUMP \t\t\t\n    tag 984\t\t\t\n      JUMPDEST \t\t\t\n      SWAP5 \t\t\t\n      SWAP8 \t\t\t\n      SWAP4 \t\t\t\n      SWAP7 \t\t\t\n      POP \t\t\t\n      SWAP5 \t\t\t\n      POP \t\t\t\n      POP \t\t\t\n      POP \t\t\t\n      JUMP \t\t\t\n    tag 855\t\t\t\n      JUMPDEST \t\t\t\n      PUSH 60\t\t\t\n      PUSH 0\t\t\t\n      DUP1 \t\t\t\n      PUSH 1\t\t\t\n      PUSH 1\t\t\t\n      PUSH A0\t\t\t\n      SHL \t\t\t\n      SUB \t\t\t\n      DUP8 \t\t\t\n      AND \t\t\t\n      ISZERO \t\t\t\n      PUSH [tag] 986\t\t\t\n      JUMPI \t\t\t\n      DUP7 \t\t\t\n      PUSH [tag] 987\t\t\t\n      JUMP \t\t\t\n    tag 986\t\t\t\n      JUMPDEST \t\t\t\n      ADDRESS \t\t\t\n    tag 987\t\t\t\n      JUMPDEST \t\t\t\n      PUSH 1\t\t\t\n      PUSH 1\t\t\t\n      PUSH A0\t\t\t\n      SHL \t\t\t\n      SUB \t\t\t\n      AND \t\t\t\n      DUP7 \t\t\t\n      DUP7 \t\t\t\n      DUP7 \t\t\t\n      PUSH 40\t\t\t\n      MLOAD \t\t\t\n      PUSH [tag] 988\t\t\t\n      SWAP3 \t\t\t\n      SWAP2 \t\t\t\n      SWAP1 \t\t\t\n      PUSH [tag] 989\t\t\t\n      JUMP \t\t\t\n    tag 988\t\t\t\n      JUMPDEST \t\t\t\n      PUSH 0\t\t\t\n      PUSH 40\t\t\t\n      MLOAD \t\t\t\n      DUP1 \t\t\t\n      DUP4 \t\t\t\n      SUB \t\t\t\n      DUP2 \t\t\t\n      DUP6 \t\t\t\n      DUP8 \t\t\t\n      GAS \t\t\t\n      CALL \t\t\t\n      SWAP3 \t\t\t\n      POP \t\t\t\n      POP \t\t\t\n      POP \t\t\t\n      RETURNDATASIZE \t\t\t\n      DUP1 \t\t\t\n      PUSH 0\t\t\t\n      DUP2 \t\t\t\n      EQ \t\t\t\n      PUSH [tag] 992\t\t\t\n      JUMPI \t\t\t\n      PUSH 40\t\t\t\n      MLOAD \t\t\t\n      SWAP2 \t\t\t\n      POP \t\t\t\n      PUSH 1F\t\t\t\n      NOT \t\t\t\n      PUSH 3F\t\t\t\n      RETURNDATASIZE \t\t\t\n      ADD \t\t\t\n      AND \t\t\t\n      DUP3 \t\t\t\n      ADD \t\t\t\n      PUSH 40\t\t\t\n      MSTORE \t\t\t\n      RETURNDATASIZE \t\t\t\n      DUP3 \t\t\t\n      MSTORE \t\t\t\n      RETURNDATASIZE \t\t\t\n      PUSH 0\t\t\t\n      PUSH 20\t\t\t\n      DUP5 \t\t\t\n      ADD \t\t\t\n      RETURNDATACOPY \t\t\t\n      PUSH [tag] 991\t\t\t\n      JUMP \t\t\t\n    tag 992\t\t\t\n      JUMPDEST \t\t\t\n      PUSH 60\t\t\t\n      SWAP2 \t\t\t\n      POP \t\t\t\n    tag 991\t\t\t\n      JUMPDEST \t\t\t\n      POP \t\t\t\n      SWAP2 \t\t\t\n      POP \t\t\t\n      SWAP2 \t\t\t\n      POP \t\t\t\n      PUSH [tag] 796\t\t\t\n      DUP10 \t\t\t\n      DUP10 \t\t\t\n      DUP5 \t\t\t\n      DUP5 \t\t\t\n      PUSH [tag] 994\t\t\t\n      JUMP \t\t\t\n    tag 860\t\t\t\n      JUMPDEST \t\t\t\n      CALLDATASIZE \t\t\t\n      PUSH 0\t\t\t\n      DUP3 \t\t\t\n      PUSH 20\t\t\t\n      DUP2 \t\t\t\n      LT \t\t\t\n      ISZERO \t\t\t\n      PUSH [tag] 996\t\t\t\n      JUMPI \t\t\t\n      PUSH 40\t\t\t\n      MLOAD \t\t\t\n      PUSH EB0BCC5D\t\t\t\n      PUSH E0\t\t\t\n      SHL \t\t\t\n      DUP2 \t\t\t\n      MSTORE \t\t\t\n      PUSH 4\t\t\t\n      ADD \t\t\t\n      PUSH 40\t\t\t\n      MLOAD \t\t\t\n      DUP1 \t\t\t\n      SWAP2 \t\t\t\n      SUB \t\t\t\n      SWAP1 \t\t\t\n      REVERT \t\t\t\n    tag 996\t\t\t\n      JUMPDEST \t\t\t\n      PUSH 0\t\t\t\n      PUSH [tag] 997\t\t\t\n      PUSH 20\t\t\t\n      DUP3 \t\t\t\n      DUP8 \t\t\t\n      DUP10 \t\t\t\n      PUSH [tag] 371\t\t\t\n      JUMP \t\t\t\n    tag 997\t\t\t\n      JUMPDEST \t\t\t\n      PUSH [tag] 998\t\t\t\n      SWAP2 \t\t\t\n      PUSH [tag] 788\t\t\t\n      JUMP \t\t\t\n    tag 998\t\t\t\n      JUMPDEST \t\t\t\n      SWAP1 \t\t\t\n      POP \t\t\t\n      PUSH 1F\t\t\t\n      NOT \t\t\t\n      DUP3 \t\t\t\n      ADD \t\t\t\n      DUP2 \t\t\t\n      GT \t\t\t\n      ISZERO \t\t\t\n      PUSH [tag] 999\t\t\t\n      JUMPI \t\t\t\n      PUSH 40\t\t\t\n      MLOAD \t\t\t\n      PUSH EB0BCC5D\t\t\t\n      PUSH E0\t\t\t\n      SHL \t\t\t\n      DUP2 \t\t\t\n      MSTORE \t\t\t\n      PUSH 4\t\t\t\n      ADD \t\t\t\n      PUSH 40\t\t\t\n      MLOAD \t\t\t\n      DUP1 \t\t\t\n      SWAP2 \t\t\t\n      SUB \t\t\t\n      SWAP1 \t\t\t\n      REVERT \t\t\t\n    tag 999\t\t\t\n      JUMPDEST \t\t\t\n      PUSH 0\t\t\t\n      PUSH [tag] 1000\t\t\t\n      PUSH 20\t\t\t\n      DUP4 \t\t\t\n      ADD \t\t\t\n      DUP4 \t\t\t\n      DUP9 \t\t\t\n      DUP11 \t\t\t\n      PUSH [tag] 371\t\t\t\n      JUMP \t\t\t\n    tag 1000\t\t\t\n      JUMPDEST \t\t\t\n      PUSH [tag] 1001\t\t\t\n      SWAP2 \t\t\t\n      PUSH [tag] 788\t\t\t\n      JUMP \t\t\t\n    tag 1001\t\t\t\n      JUMPDEST \t\t\t\n      SWAP1 \t\t\t\n      POP \t\t\t\n      PUSH 1\t\t\t\n      PUSH 1\t\t\t\n      PUSH 40\t\t\t\n      SHL \t\t\t\n      SUB \t\t\t\n      DUP2 \t\t\t\n      GT \t\t\t\n      DUP1 \t\t\t\n      PUSH [tag] 1002\t\t\t\n      JUMPI \t\t\t\n      POP \t\t\t\n      DUP1 \t\t\t\n      PUSH 20\t\t\t\n      MUL \t\t\t\n      PUSH 20\t\t\t\n      DUP4 \t\t\t\n      DUP6 \t\t\t\n      SUB \t\t\t\n      SUB \t\t\t\n      LT \t\t\t\n    tag 1002\t\t\t\n      JUMPDEST \t\t\t\n      ISZERO \t\t\t\n      PUSH [tag] 1003\t\t\t\n      JUMPI \t\t\t\n      PUSH 40\t\t\t\n      MLOAD \t\t\t\n      PUSH EB0BCC5D\t\t\t\n      PUSH E0\t\t\t\n      SHL \t\t\t\n      DUP2 \t\t\t\n      MSTORE \t\t\t\n      PUSH 4\t\t\t\n      ADD \t\t\t\n      PUSH 40\t\t\t\n      MLOAD \t\t\t\n      DUP1 \t\t\t\n      SWAP2 \t\t\t\n      SUB \t\t\t\n      SWAP1 \t\t\t\n      REVERT \t\t\t\n    tag 1003\t\t\t\n      JUMPDEST \t\t\t\n      SWAP6 \t\t\t\n      ADD \t\t\t\n      PUSH 20\t\t\t\n      ADD \t\t\t\n      SWAP6 \t\t\t\n      SWAP4 \t\t\t\n      POP \t\t\t\n      POP \t\t\t\n      POP \t\t\t\n      POP \t\t\t\n      JUMP \t\t\t\n    tag 886\t\t\t\n      JUMPDEST \t\t\t\n      PUSH 0\t\t\t\n      CALLDATASIZE \t\t\t\n      DUP2 \t\t\t\n      PUSH [tag] 1005\t\t\t\n      DUP5 \t\t\t\n      DUP7 \t\t\t\n      PUSH [tag] 601\t\t\t\n      JUMP \t\t\t\n    tag 1005\t\t\t\n      JUMPDEST \t\t\t\n      PUSH 60\t\t\t\n      SHR \t\t\t\n      SWAP3 \t\t\t\n      POP \t\t\t\n      PUSH [tag] 1006\t\t\t\n      DUP5 \t\t\t\n      PUSH 14\t\t\t\n      DUP2 \t\t\t\n      DUP9 \t\t\t\n      PUSH [tag] 371\t\t\t\n      JUMP \t\t\t\n    tag 1006\t\t\t\n      JUMPDEST \t\t\t\n      SWAP2 \t\t\t\n      POP \t\t\t\n      SWAP2 \t\t\t\n      POP \t\t\t\n      SWAP3 \t\t\t\n      POP \t\t\t\n      SWAP3 \t\t\t\n      POP \t\t\t\n      SWAP3 \t\t\t\n      JUMP \t\t\t\n    tag 892\t\t\t\n      JUMPDEST \t\t\t\n      PUSH 60\t\t\t\n      PUSH 0\t\t\t\n      DUP1 \t\t\t\n      PUSH 1\t\t\t\n      PUSH 1\t\t\t\n      PUSH A0\t\t\t\n      SHL \t\t\t\n      SUB \t\t\t\n      DUP7 \t\t\t\n      AND \t\t\t\n      ISZERO \t\t\t\n      PUSH [tag] 1008\t\t\t\n      JUMPI \t\t\t\n      DUP6 \t\t\t\n      PUSH [tag] 1009\t\t\t\n      JUMP \t\t\t\n    tag 1008\t\t\t\n      JUMPDEST \t\t\t\n      ADDRESS \t\t\t\n    tag 1009\t\t\t\n      JUMPDEST \t\t\t\n      PUSH 1\t\t\t\n      PUSH 1\t\t\t\n      PUSH A0\t\t\t\n      SHL \t\t\t\n      SUB \t\t\t\n      AND \t\t\t\n      DUP6 \t\t\t\n      DUP6 \t\t\t\n      PUSH 40\t\t\t\n      MLOAD \t\t\t\n      PUSH [tag] 1010\t\t\t\n      SWAP3 \t\t\t\n      SWAP2 \t\t\t\n      SWAP1 \t\t\t\n      PUSH [tag] 989\t\t\t\n      JUMP \t\t\t\n    tag 1010\t\t\t\n      JUMPDEST \t\t\t\n      PUSH 0\t\t\t\n      PUSH 40\t\t\t\n      MLOAD \t\t\t\n      DUP1 \t\t\t\n      DUP4 \t\t\t\n      SUB \t\t\t\n      DUP2 \t\t\t\n      DUP6 \t\t\t\n      GAS \t\t\t\n      DELEGATECALL \t\t\t\n      SWAP2 \t\t\t\n      POP \t\t\t\n      POP \t\t\t\n      RETURNDATASIZE \t\t\t\n      DUP1 \t\t\t\n      PUSH 0\t\t\t\n      DUP2 \t\t\t\n      EQ \t\t\t\n      PUSH [tag] 1013\t\t\t\n      JUMPI \t\t\t\n      PUSH 40\t\t\t\n      MLOAD \t\t\t\n      SWAP2 \t\t\t\n      POP \t\t\t\n      PUSH 1F\t\t\t\n      NOT \t\t\t\n      PUSH 3F\t\t\t\n      RETURNDATASIZE \t\t\t\n      ADD \t\t\t\n      AND \t\t\t\n      DUP3 \t\t\t\n      ADD \t\t\t\n      PUSH 40\t\t\t\n      MSTORE \t\t\t\n      RETURNDATASIZE \t\t\t\n      DUP3 \t\t\t\n      MSTORE \t\t\t\n      RETURNDATASIZE \t\t\t\n      PUSH 0\t\t\t\n      PUSH 20\t\t\t\n      DUP5 \t\t\t\n      ADD \t\t\t\n      RETURNDATACOPY \t\t\t\n      PUSH [tag] 1012\t\t\t\n      JUMP \t\t\t\n    tag 1013\t\t\t\n      JUMPDEST \t\t\t\n      PUSH 60\t\t\t\n      SWAP2 \t\t\t\n      POP \t\t\t\n    tag 1012\t\t\t\n      JUMPDEST \t\t\t\n      POP \t\t\t\n      SWAP2 \t\t\t\n      POP \t\t\t\n      SWAP2 \t\t\t\n      POP \t\t\t\n      PUSH [tag] 1014\t\t\t\n      DUP9 \t\t\t\n      DUP9 \t\t\t\n      DUP5 \t\t\t\n      DUP5 \t\t\t\n      PUSH [tag] 994\t\t\t\n      JUMP \t\t\t\n    tag 1014\t\t\t\n      JUMPDEST \t\t\t\n      SWAP9 \t\t\t\n      SWAP8 \t\t\t\n      POP \t\t\t\n      POP \t\t\t\n      POP \t\t\t\n      POP \t\t\t\n      POP \t\t\t\n      POP \t\t\t\n      POP \t\t\t\n      POP \t\t\t\n      JUMP \t\t\t\n    tag 913\t\t\t\n      JUMPDEST \t\t\t\n      PUSH 0\t\t\t\n      PUSH 1\t\t\t\n      PUSH 1\t\t\t\n      PUSH F8\t\t\t\n      SHL \t\t\t\n      SUB \t\t\t\n      NOT \t\t\t\n      DUP3 \t\t\t\n      AND \t\t\t\n      ISZERO \t\t\t\n      DUP1 \t\t\t\n      PUSH [tag] 1016\t\t\t\n      JUMPI \t\t\t\n      POP \t\t\t\n      PUSH 1\t\t\t\n      PUSH 1\t\t\t\n      PUSH F8\t\t\t\n      SHL \t\t\t\n      SUB \t\t\t\n      NOT \t\t\t\n      DUP3 \t\t\t\n      AND \t\t\t\n      PUSH 1\t\t\t\n      PUSH FD\t\t\t\n      SHL \t\t\t\n      EQ \t\t\t\n    tag 1016\t\t\t\n      JUMPDEST \t\t\t\n      DUP1 \t\t\t\n      PUSH [tag] 1017\t\t\t\n      JUMPI \t\t\t\n      POP \t\t\t\n      PUSH 1\t\t\t\n      PUSH 1\t\t\t\n      PUSH F8\t\t\t\n      SHL \t\t\t\n      SUB \t\t\t\n      NOT \t\t\t\n      DUP3 \t\t\t\n      AND \t\t\t\n      PUSH B\t\t\t\n      PUSH FA\t\t\t\n      SHL \t\t\t\n      EQ \t\t\t\n    tag 1017\t\t\t\n      JUMPDEST \t\t\t\n      DUP1 \t\t\t\n      PUSH [tag] 1018\t\t\t\n      JUMPI \t\t\t\n      POP \t\t\t\n      PUSH 1\t\t\t\n      PUSH 1\t\t\t\n      PUSH F8\t\t\t\n      SHL \t\t\t\n      SUB \t\t\t\n      NOT \t\t\t\n      DUP3 \t\t\t\n      AND \t\t\t\n      PUSH 5\t\t\t\n      PUSH FB\t\t\t\n      SHL \t\t\t\n      EQ \t\t\t\n    tag 1018\t\t\t\n      JUMPDEST \t\t\t\n      DUP1 \t\t\t\n      PUSH [tag] 205\t\t\t\n      JUMPI \t\t\t\n      POP \t\t\t\n      PUSH 1\t\t\t\n      PUSH 1\t\t\t\n      PUSH F8\t\t\t\n      SHL \t\t\t\n      SUB \t\t\t\n      NOT \t\t\t\n      DUP3 \t\t\t\n      AND \t\t\t\n      PUSH 29\t\t\t\n      PUSH F8\t\t\t\n      SHL \t\t\t\n      EQ \t\t\t\n      SWAP3 \t\t\t\n      SWAP2 \t\t\t\n      POP \t\t\t\n      POP \t\t\t\n      JUMP \t\t\t\n    tag 935\t\t\t\n      JUMPDEST \t\t\t\n      PUSH 0\t\t\t\n      DUP5 \t\t\t\n      DUP5 \t\t\t\n      DUP5 \t\t\t\n      DUP5 \t\t\t\n      PUSH 40\t\t\t\n      MLOAD \t\t\t\n      PUSH 20\t\t\t\n      ADD \t\t\t\n      PUSH [tag] 1021\t\t\t\n      SWAP5 \t\t\t\n      SWAP4 \t\t\t\n      SWAP3 \t\t\t\n      SWAP2 \t\t\t\n      SWAP1 \t\t\t\n      PUSH [tag] 1022\t\t\t\n      JUMP \t\t\t\n    tag 1021\t\t\t\n      JUMPDEST \t\t\t\n      PUSH 40\t\t\t\n      MLOAD \t\t\t\n      PUSH 20\t\t\t\n      DUP2 \t\t\t\n      DUP4 \t\t\t\n      SUB \t\t\t\n      SUB \t\t\t\n      DUP2 \t\t\t\n      MSTORE \t\t\t\n      SWAP1 \t\t\t\n      PUSH 40\t\t\t\n      MSTORE \t\t\t\n      DUP1 \t\t\t\n      MLOAD \t\t\t\n      SWAP1 \t\t\t\n      PUSH 20\t\t\t\n      ADD \t\t\t\n      KECCAK256 \t\t\t\n      SWAP1 \t\t\t\n      POP \t\t\t\n      SWAP5 \t\t\t\n      SWAP4 \t\t\t\n      POP \t\t\t\n      POP \t\t\t\n      POP \t\t\t\n      POP \t\t\t\n      JUMP \t\t\t\n    tag 944\t\t\t\n      JUMPDEST \t\t\t\n      PUSH 0\t\t\t\n      PUSH [tag] 1024\t\t\t\n      PUSH DFE169305A533E288E0557DA8D289146D3CC75FA6E04C87599B048A60A4E5602\t\t\t\n      SLOAD \t\t\t\n      PUSH 1\t\t\t\n      PUSH 1\t\t\t\n      PUSH 40\t\t\t\n      SHL \t\t\t\n      SUB \t\t\t\n      AND \t\t\t\n      SWAP1 \t\t\t\n      JUMP \t\t\t\n    tag 1024\t\t\t\n      JUMPDEST \t\t\t\n      PUSH 1\t\t\t\n      PUSH 1\t\t\t\n      PUSH 40\t\t\t\n      SHL \t\t\t\n      SUB \t\t\t\n      AND \t\t\t\n      DUP3 \t\t\t\n      MLOAD \t\t\t\n      LT \t\t\t\n      ISZERO \t\t\t\n      SWAP1 \t\t\t\n      POP \t\t\t\n      SWAP2 \t\t\t\n      SWAP1 \t\t\t\n      POP \t\t\t\n      JUMP \t\t\t\n    tag 947\t\t\t\n      JUMPDEST \t\t\t\n      PUSH 0\t\t\t\n      DUP1 \t\t\t\n    tag 1026\t\t\t\n      JUMPDEST \t\t\t\n      DUP4 \t\t\t\n      MLOAD \t\t\t\n      DUP2 \t\t\t\n      LT \t\t\t\n      ISZERO \t\t\t\n      PUSH [tag] 1027\t\t\t\n      JUMPI \t\t\t\n      PUSH [tag] 1029\t\t\t\n      DUP5 \t\t\t\n      DUP3 \t\t\t\n      DUP2 \t\t\t\n      MLOAD \t\t\t\n      DUP2 \t\t\t\n      LT \t\t\t\n      PUSH [tag] 1031\t\t\t\n      JUMPI \t\t\t\n      PUSH [tag] 1031\t\t\t\n      PUSH [tag] 434\t\t\t\n      JUMP \t\t\t\n    tag 1031\t\t\t\n      JUMPDEST \t\t\t\n      PUSH 20\t\t\t\n      MUL \t\t\t\n      PUSH 20\t\t\t\n      ADD \t\t\t\n      ADD \t\t\t\n      MLOAD \t\t\t\n      PUSH [tag] 95\t\t\t\n      JUMP \t\t\t\n    tag 1029\t\t\t\n      JUMPDEST \t\t\t\n      PUSH [tag] 1032\t\t\t\n      JUMPI \t\t\t\n      PUSH 0\t\t\t\n      SWAP2 \t\t\t\n      POP \t\t\t\n      POP \t\t\t\n      PUSH [tag] 214\t\t\t\n      JUMP \t\t\t\n    tag 1032\t\t\t\n      JUMPDEST \t\t\t\n      PUSH 1\t\t\t\n      ADD \t\t\t\n      PUSH [tag] 1026\t\t\t\n      JUMP \t\t\t\n    tag 1027\t\t\t\n      JUMPDEST \t\t\t\n      POP \t\t\t\n      PUSH [tag] 207\t\t\t\n      DUP5 \t\t\t\n      DUP5 \t\t\t\n      DUP5 \t\t\t\n      PUSH [tag] 1034\t\t\t\n      JUMP \t\t\t\n    tag 963\t\t\t\n      JUMPDEST \t\t\t\n      PUSH 60\t\t\t\n      PUSH [tag] 1036\t\t\t\n      DUP3 \t\t\t\n      DUP6 \t\t\t\n      MLOAD \t\t\t\n      PUSH [tag] 469\t\t\t\n      JUMP \t\t\t\n    tag 1036\t\t\t\n      JUMPDEST \t\t\t\n      SWAP2 \t\t\t\n      POP \t\t\t\n      PUSH [tag] 1037\t\t\t\n      DUP4 \t\t\t\n      DUP4 \t\t\t\n      PUSH [tag] 469\t\t\t\n      JUMP \t\t\t\n    tag 1037\t\t\t\n      JUMPDEST \t\t\t\n      SWAP3 \t\t\t\n      POP \t\t\t\n      PUSH 0\t\t\t\n      PUSH [tag] 1038\t\t\t\n      DUP5 \t\t\t\n      DUP5 \t\t\t\n      PUSH [tag] 630\t\t\t\n      JUMP \t\t\t\n    tag 1038\t\t\t\n      JUMPDEST \t\t\t\n      PUSH 1\t\t\t\n      PUSH 1\t\t\t\n      PUSH 40\t\t\t\n      SHL \t\t\t\n      SUB \t\t\t\n      DUP2 \t\t\t\n      GT \t\t\t\n      ISZERO \t\t\t\n      PUSH [tag] 1040\t\t\t\n      JUMPI \t\t\t\n      PUSH [tag] 1040\t\t\t\n      PUSH [tag] 267\t\t\t\n      JUMP \t\t\t\n    tag 1040\t\t\t\n      JUMPDEST \t\t\t\n      PUSH 40\t\t\t\n      MLOAD \t\t\t\n      SWAP1 \t\t\t\n      DUP1 \t\t\t\n      DUP3 \t\t\t\n      MSTORE \t\t\t\n      DUP1 \t\t\t\n      PUSH 1F\t\t\t\n      ADD \t\t\t\n      PUSH 1F\t\t\t\n      NOT \t\t\t\n      AND \t\t\t\n      PUSH 20\t\t\t\n      ADD \t\t\t\n      DUP3 \t\t\t\n      ADD \t\t\t\n      PUSH 40\t\t\t\n      MSTORE \t\t\t\n      DUP1 \t\t\t\n      ISZERO \t\t\t\n      PUSH [tag] 1041\t\t\t\n      JUMPI \t\t\t\n      PUSH 20\t\t\t\n      DUP3 \t\t\t\n      ADD \t\t\t\n      DUP2 \t\t\t\n      DUP1 \t\t\t\n      CALLDATASIZE \t\t\t\n      DUP4 \t\t\t\n      CALLDATACOPY \t\t\t\n      ADD \t\t\t\n      SWAP1 \t\t\t\n      POP \t\t\t\n    tag 1041\t\t\t\n      JUMPDEST \t\t\t\n      POP \t\t\t\n      SWAP1 \t\t\t\n      POP \t\t\t\n      DUP4 \t\t\t\n      DUP4 \t\t\t\n      SUB \t\t\t\n      DUP5 \t\t\t\n      PUSH 20\t\t\t\n      DUP8 \t\t\t\n      ADD \t\t\t\n      ADD \t\t\t\n      PUSH 20\t\t\t\n      DUP4 \t\t\t\n      ADD \t\t\t\n      MCOPY \t\t\t\n      SWAP5 \t\t\t\n      SWAP4 \t\t\t\n      POP \t\t\t\n      POP \t\t\t\n      POP \t\t\t\n      POP \t\t\t\n      JUMP \t\t\t\n    tag 994\t\t\t\n      JUMPDEST \t\t\t\n      PUSH 60\t\t\t\n      PUSH [tag] 1043\t\t\t\n      DUP5 \t\t\t\n      PUSH 0\t\t\tract\n      PUSH [tag] 315\t\t\t\n      JUMP \t\t\t\n    tag 1043\t\t\t\n      JUMPDEST \t\t\t\n      ISZERO \t\t\t\n      PUSH [tag] 1044\t\t\t\n      JUMPI \t\t\t\n      PUSH [tag] 1045\t\t\t\n      DUP4 \t\t\t\n      DUP4 \t\t\t\n      PUSH [tag] 1046\t\t\t\n      JUMP \t\t\t\n    tag 1045\t\t\t\n      JUMPDEST \t\t\t\n      POP \t\t\t\n      PUSH [tag] 1053\t\t\t\n      JUMP \t\t\t\n    tag 1044\t\t\t\n      JUMPDEST \t\t\t\n      PUSH [tag] 1048\t\t\t\n      DUP5 \t\t\t\n      PUSH 1\t\t\t\n      PUSH F8\t\t\t\n      SHL \t\t\t\n      PUSH [tag] 315\t\t\t\n      JUMP \t\t\t\n    tag 1048\t\t\t\n      JUMPDEST \t\t\t\n      ISZERO \t\t\t\n      PUSH [tag] 1049\t\t\t\n      JUMPI \t\t\t\n      DUP3 \t\t\t\n      PUSH [tag] 1050\t\t\t\n      JUMPI \t\t\t\n      PUSH 2EEA2F51F83910481F4B5BA28B7003A6E045D4B59F67DFFF8D4C901194050089\t\t\t\n      DUP6 \t\t\t\n      DUP4 \t\t\t\n      PUSH 40\t\t\t\n      MLOAD \t\t\t\n      PUSH [tag] 1051\t\t\t\n      SWAP3 \t\t\t\n      SWAP2 \t\t\t\n      SWAP1 \t\t\t\n      PUSH [tag] 1052\t\t\t\n      JUMP \t\t\t\n    tag 1051\t\t\t\n      JUMPDEST \t\t\t\n      PUSH 40\t\t\t\n      MLOAD \t\t\t\n      DUP1 \t\t\t\n      SWAP2 \t\t\t\n      SUB \t\t\t\n      SWAP1 \t\t\t\n      LOG1 \t\t\t\n    tag 1050\t\t\t\n      JUMPDEST \t\t\t\n      PUSH [tag] 1053\t\t\t\n      JUMP \t\t\t\n    tag 1049\t\t\t\n      JUMPDEST \t\t\t\n      PUSH 40\t\t\t\n      MLOAD \t\t\t\n      PUSH 23A24085\t\t\t\n      PUSH E0\t\t\t\n      SHL \t\t\t\n      DUP2 \t\t\t\n      MSTORE \t\t\t\n      PUSH 1\t\t\t\n      PUSH 1\t\t\t\n      PUSH F8\t\t\t\n      SHL \t\t\t\n      SUB \t\t\t\n      NOT \t\t\t\n      DUP6 \t\t\t\n      AND \t\t\t\n      PUSH 4\t\t\t\n      DUP3 \t\t\t\n      ADD \t\t\t\n      MSTORE \t\t\t\n      PUSH 24\t\t\t\n      ADD \t\t\t\n      PUSH [tag] 348\t\t\t\n      JUMP \t\t\t\n    tag 1053\t\t\t\n      JUMPDEST \t\t\t\n      POP \t\t\t\n      SWAP4 \t\t\t\n      SWAP3 \t\t\t\n      POP \t\t\t\n      POP \t\t\t\n      POP \t\t\t\n      JUMP \t\t\t\n    tag 1034\t\t\t\n      JUMPDEST \t\t\t\n      PUSH 0\t\t\t\n      DUP2 \t\t\t\n      MLOAD \t\t\t\n      DUP4 \t\t\t\n      MLOAD \t\t\t\n      EQ \t\t\t\n      PUSH [tag] 1057\t\t\t\n      JUMPI \t\t\t\n      POP \t\t\t\n      PUSH 0\t\t\t\n      PUSH [tag] 214\t\t\t\n      JUMP \t\t\t\n    tag 1057\t\t\t\n      JUMPDEST \t\t\t\n      PUSH 0\t\t\t\n      DUP1 \t\t\t\n    tag 1058\t\t\t\n      JUMPDEST \t\t\t\n      DUP5 \t\t\t\n      MLOAD \t\t\t\n      DUP2 \t\t\t\n      LT \t\t\t\n      ISZERO \t\t\t\n      PUSH [tag] 1059\t\t\t\n      JUMPI \t\t\t\n      PUSH 0\t\t\t\n      DUP6 \t\t\t\n      DUP3 \t\t\t\n      DUP2 \t\t\t\n      MLOAD \t\t\t\n      DUP2 \t\t\t\n      LT \t\t\t\n      PUSH [tag] 1062\t\t\t\n      JUMPI \t\t\t\n      PUSH [tag] 1062\t\t\t\n      PUSH [tag] 434\t\t\t\n      JUMP \t\t\t\n    tag 1062\t\t\t\n      JUMPDEST \t\t\t\n      PUSH 20\t\t\t\n      MUL \t\t\t\n      PUSH 20\t\t\t\n      ADD \t\t\t\n      ADD \t\t\t\n      MLOAD \t\t\t\n      SWAP1 \t\t\t\n      POP \t\t\t\n      PUSH [tag] 1063\t\t\t\n      DUP2 \t\t\t\n      DUP9 \t\t\t\n      DUP8 \t\t\t\n      DUP6 \t\t\t\n      DUP2 \t\t\t\n      MLOAD \t\t\t\n      DUP2 \t\t\t\n      LT \t\t\t\n      PUSH [tag] 1065\t\t\t\n      JUMPI \t\t\t\n      PUSH [tag] 1065\t\t\t\n      PUSH [tag] 434\t\t\t\n      JUMP \t\t\t\n    tag 1065\t\t\t\n      JUMPDEST \t\t\t\n      PUSH 20\t\t\t\n      MUL \t\t\t\n      PUSH 20\t\t\t\n      ADD \t\t\t\n      ADD \t\t\t\n      MLOAD \t\t\t\n      PUSH [tag] 1066\t\t\t\n      JUMP \t\t\t\n    tag 1063\t\t\t\n      JUMPDEST \t\t\t\n      PUSH [tag] 1067\t\t\t\n      JUMPI \t\t\t\n      PUSH 0\t\t\t\n      SWAP4 \t\t\t\n      POP \t\t\t\n      POP \t\t\t\n      POP \t\t\t\n      POP \t\t\t\n      PUSH [tag] 214\t\t\t\n      JUMP \t\t\t\n    tag 1067\t\t\t\n      JUMPDEST \t\t\t\n      DUP1 \t\t\t\n      MLOAD \t\t\t\n      PUSH 20\t\t\t\n      DUP3 \t\t\t\n      ADD \t\t\t\n      KECCAK256 \t\t\t\n      DUP1 \t\t\t\n      DUP5 \t\t\t\n      LT \t\t\t\n      ISZERO \t\t\t\n      PUSH [tag] 1068\t\t\t\n      JUMPI \t\t\t\n      DUP1 \t\t\t\n      SWAP4 \t\t\t\n      POP \t\t\t\n      PUSH [tag] 1069\t\t\t\n      JUMP \t\t\t\n    tag 1068\t\t\t\n      JUMPDEST \t\t\t\n      PUSH 0\t\t\t\n    tag 1070\t\t\t\n      JUMPDEST \t\t\t\n      DUP4 \t\t\t\n      DUP2 \t\t\t\n      LT \t\t\t\n      ISZERO \t\t\t\n      PUSH [tag] 1071\t\t\t\n      JUMPI \t\t\t\n      DUP8 \t\t\t\n      DUP2 \t\t\t\n      DUP2 \t\t\t\n      MLOAD \t\t\t\n      DUP2 \t\t\t\n      LT \t\t\t\n      PUSH [tag] 1074\t\t\t\n      JUMPI \t\t\t\n      PUSH [tag] 1074\t\t\t\n      PUSH [tag] 434\t\t\t\n      JUMP \t\t\t\n    tag 1074\t\t\t\n      JUMPDEST \t\t\t\n      PUSH 20\t\t\t\n      MUL \t\t\t\n      PUSH 20\t\t\t\n      ADD \t\t\t\n      ADD \t\t\t\n      MLOAD \t\t\t\n      DUP1 \t\t\t\n      MLOAD \t\t\t\n      SWAP1 \t\t\t\n      PUSH 20\t\t\t\n      ADD \t\t\t\n      KECCAK256 \t\t\t\n      DUP3 \t\t\t\n      SUB \t\t\t\n      PUSH [tag] 1075\t\t\t\n      JUMPI \t\t\t\n      PUSH 0\t\t\t\n      SWAP6 \t\t\t\n      POP \t\t\t\n      POP \t\t\t\n      POP \t\t\t\n      POP \t\t\t\n      POP \t\t\t\n      POP \t\t\t\n      PUSH [tag] 214\t\t\t\n      JUMP \t\t\t\n    tag 1075\t\t\t\n      JUMPDEST \t\t\t\n      PUSH 1\t\t\t\n      ADD \t\t\t\n      PUSH [tag] 1070\t\t\t\n      JUMP \t\t\t\n    tag 1071\t\t\t\n      JUMPDEST \t\t\t\n      POP \t\t\t\n    tag 1069\t\t\t\n      JUMPDEST \t\t\t\n      POP \t\t\t\n      POP \t\t\t\n      PUSH 1\t\t\t\n      ADD \t\t\t\n      PUSH [tag] 1058\t\t\t\n      JUMP \t\t\t\n    tag 1059\t\t\t\n      JUMPDEST \t\t\t\n      POP \t\t\t\n      PUSH 1\t\t\t\n      SWAP6 \t\t\t\n      SWAP5 \t\t\t\n      POP \t\t\t\n      POP \t\t\t\n      POP \t\t\t\n      POP \t\t\t\n      POP \t\t\t\n      JUMP \t\t\t\n    tag 1046\t\t\t\n      JUMPDEST \t\t\t\n      PUSH 60\t\t\t\n      DUP3 \t\t\t\n      ISZERO \t\t\t\n      PUSH [tag] 1077\t\t\t\n      JUMPI \t\t\t\n      POP \t\t\t\n      DUP1 \t\t\t\n      PUSH [tag] 205\t\t\t\n      JUMP \t\t\t\n    tag 1077\t\t\t\n      JUMPDEST \t\t\t\n      DUP2 \t\t\t\n      MLOAD \t\t\t\n      ISZERO \t\t\t\n      PUSH [tag] 1079\t\t\t\n      JUMPI \t\t\t\n      PUSH [tag] 1080\t\t\t\n      DUP3 \t\t\t\n      PUSH [tag] 1081\t\t\t\n      JUMP \t\t\t\n    tag 1080\t\t\t\n      JUMPDEST \t\t\t\n      PUSH [tag] 205\t\t\t\n      JUMP \t\t\t\n    tag 1079\t\t\t\n      JUMPDEST \t\t\t\n      PUSH 40\t\t\t\n      MLOAD \t\t\t\n      PUSH D6BDA275\t\t\t\n      PUSH E0\t\t\t\n      SHL \t\t\t\n      DUP2 \t\t\t\n      MSTORE \t\t\t\n      PUSH 4\t\t\t\n      ADD \t\t\t\n      PUSH 40\t\t\t\n      MLOAD \t\t\t\n      DUP1 \t\t\t\n      SWAP2 \t\t\t\n      SUB \t\t\t\n      SWAP1 \t\t\t\n      REVERT \t\t\t\n    tag 1066\t\t\t\n      JUMPDEST \t\t\t\n      PUSH 0\t\t\t\n      PUSH 14\t\t\t\n      DUP5 \t\t\t\n      MLOAD \t\t\t\n      LT \t\t\t\n      ISZERO \t\t\t\n      PUSH [tag] 1084\t\t\t\n      JUMPI \t\t\t\n      POP \t\t\t\n      PUSH 0\t\t\t\n      PUSH [tag] 214\t\t\t\n      JUMP \t\t\t\n    tag 1084\t\t\t\n      JUMPDEST \t\t\t\n      DUP4 \t\t\t\n      MLOAD \t\t\t\n      PUSH 14\t\t\t\n      SUB \t\t\t\n      PUSH [tag] 1086\t\t\t\n      JUMPI \t\t\t\n      PUSH [tag] 1087\t\t\t\n      PUSH [tag] 1088\t\t\t\n      DUP6 \t\t\t\n      PUSH [tag] 1089\t\t\t\n      JUMP \t\t\t\n    tag 1088\t\t\t\n      JUMPDEST \t\t\t\n      PUSH 60\t\t\t\n      SHR \t\t\t\n      DUP5 \t\t\t\n      DUP5 \t\t\t\n      PUSH [tag] 1090\t\t\t\n      JUMP \t\t\t\n    tag 1087\t\t\t\n      JUMPDEST \t\t\t\n      SWAP1 \t\t\t\n      POP \t\t\t\n      PUSH [tag] 214\t\t\t\n      JUMP \t\t\t\n    tag 1086\t\t\t\n      JUMPDEST \t\t\t\n      PUSH 0\t\t\t\n      DUP1 \t\t\t\n      PUSH [tag] 1092\t\t\t\n      DUP7 \t\t\t\n      PUSH [tag] 1089\t\t\t\n      JUMP \t\t\t\n    tag 1092\t\t\t\n      JUMPDEST \t\t\t\n      PUSH 60\t\t\t\n      SHR \t\t\t\n      PUSH [tag] 1093\t\t\t\n      DUP8 \t\t\t\n      PUSH 14\t\t\t\n      PUSH [tag] 833\t\t\t\n      JUMP \t\t\t\n    tag 1093\t\t\t\n      JUMPDEST \t\t\t\n      DUP7 \t\t\t\n      DUP7 \t\t\t\n      PUSH 40\t\t\t\n      MLOAD \t\t\t\n      PUSH 24\t\t\t\n      ADD \t\t\t\n      PUSH [tag] 1094\t\t\t\n      SWAP4 \t\t\t\n      SWAP3 \t\t\t\n      SWAP2 \t\t\t\n      SWAP1 \t\t\t\n      PUSH [tag] 1095\t\t\t\n      JUMP \t\t\t\n    tag 1094\t\t\t\n      JUMPDEST \t\t\t\n      PUSH 40\t\t\t\n      DUP1 \t\t\t\n      MLOAD \t\t\t\n      PUSH 1F\t\t\t\n      NOT \t\t\t\n      DUP2 \t\t\t\n      DUP5 \t\t\t\n      SUB \t\t\t\n      ADD \t\t\t\n      DUP2 \t\t\t\n      MSTORE \t\t\t\n      SWAP2 \t\t\t\n      DUP2 \t\t\t\n      MSTORE \t\t\t\n      PUSH 20\t\t\t\n      DUP3 \t\t\t\n      ADD \t\t\t\n      DUP1 \t\t\t\n      MLOAD \t\t\t\n      PUSH 1\t\t\t\n      PUSH 1\t\t\t\n      PUSH E0\t\t\t\n      SHL \t\t\t\n      SUB \t\t\t\n      AND \t\t\t\n      PUSH 495A63\t\t\t\n      PUSH E3\t\t\t\n      SHL \t\t\t\n      OR \t\t\t\n      SWAP1 \t\t\t\n      MSTORE \t\t\t\n      MLOAD \t\t\t\n      PUSH [tag] 1096\t\t\t\n      SWAP2 \t\t\t\n      SWAP1 \t\t\t\n      PUSH [tag] 426\t\t\t\n      JUMP \t\t\t\n    tag 1096\t\t\t\n      JUMPDEST \t\t\t\n      PUSH 0\t\t\t\n      PUSH 40\t\t\t\n      MLOAD \t\t\t\n      DUP1 \t\t\t\n      DUP4 \t\t\t\n      SUB \t\t\t\n      DUP2 \t\t\t\n      DUP6 \t\t\t\n      GAS \t\t\t\n      STATICCALL \t\t\t\n      SWAP2 \t\t\t\n      POP \t\t\t\n      POP \t\t\t\n      RETURNDATASIZE \t\t\t\n      DUP1 \t\t\t\n      PUSH 0\t\t\t\n      DUP2 \t\t\t\n      EQ \t\t\t\n      PUSH [tag] 1099\t\t\t\n      JUMPI \t\t\t\n      PUSH 40\t\t\t\n      MLOAD \t\t\t\n      SWAP2 \t\t\t\n      POP \t\t\t\n      PUSH 1F\t\t\t\n      NOT \t\t\t\n      PUSH 3F\t\t\t\n      RETURNDATASIZE \t\t\t\n      ADD \t\t\t\n      AND \t\t\t\n      DUP3 \t\t\t\n      ADD \t\t\t\n      PUSH 40\t\t\t\n      MSTORE \t\t\t\n      RETURNDATASIZE \t\t\t\n      DUP3 \t\t\t\n      MSTORE \t\t\t\n      RETURNDATASIZE \t\t\t\n      PUSH 0\t\t\t\n      PUSH 20\t\t\t\n      DUP5 \t\t\t\n      ADD \t\t\t\n      RETURNDATACOPY \t\t\t\n      PUSH [tag] 1098\t\t\t\n      JUMP \t\t\t\n    tag 1099\t\t\t\n      JUMPDEST \t\t\t\n      PUSH 60\t\t\t\n      SWAP2 \t\t\t\n      POP \t\t\t\n    tag 1098\t\t\t\n      JUMPDEST \t\t\t\n      POP \t\t\t\n      SWAP2 \t\t\t\n      POP \t\t\t\n      SWAP2 \t\t\t\n      POP \t\t\t\n      DUP2 \t\t\t\n      DUP1 \t\t\t\n      ISZERO \t\t\t\n      PUSH [tag] 1100\t\t\t\n      JUMPI \t\t\t\n      POP \t\t\t\n      PUSH 20\t\t\t\n      DUP2 \t\t\t\n      MLOAD \t\t\t\n      LT \t\t\t\n      ISZERO \t\t\t\n    tag 1100\t\t\t\n      JUMPDEST \t\t\t\n      DUP1 \t\t\t\n      ISZERO \t\t\t\n      PUSH [tag] 761\t\t\t\n      JUMPI \t\t\t\n      POP \t\t\t\n      DUP1 \t\t\t\n      MLOAD \t\t\t\n      PUSH 495A63\t\t\t\n      PUSH E3\t\t\t\n      SHL \t\t\t\n      SWAP1 \t\t\t\n      PUSH [tag] 1102\t\t\t\n      SWAP1 \t\t\t\n      DUP4 \t\t\t\n      ADD \t\t\t\n      PUSH 20\t\t\t\n      SWAP1 \t\t\t\n      DUP2 \t\t\t\n      ADD \t\t\t\n      SWAP1 \t\t\t\n      DUP5 \t\t\t\n      ADD \t\t\t\n      PUSH [tag] 244\t\t\t\n      JUMP \t\t\t\n    tag 1102\t\t\t\n      JUMPDEST \t\t\t\n      EQ \t\t\t\n      SWAP3 \t\t\t\n      POP \t\t\t\n      POP \t\t\t\n      POP \t\t\t\n      PUSH [tag] 214\t\t\t\n      JUMP \t\t\t\n    tag 1081\t\t\t\n      JUMPDEST \t\t\t\n      DUP1 \t\t\t\n      MLOAD \t\t\t\n      PUSH 20\t\t\t\n      DUP3 \t\t\t\n      ADD \t\t\t\n      REVERT \t\t\t\n    tag 1090\t\t\tow-reachable constructor\\n    ...\n      JUMPDEST \t\t\tow-reachable constructor\\n    ...\n      PUSH 0\t\t\t}\\n\\n \n      DUP4 \t\t\tialize\n      PUSH 1\t\t\t\n      PUSH 1\t\t\t\n      PUSH A0\t\t\t\n      SHL \t\t\t\n      SUB \t\t\t\n      AND \t\t\tialize(bytes[] mem\n      EXTCODESIZE \t\t\tialize(bytes[] mem\n      PUSH 0\t\t\ts\n      SUB \t\t\tialize(bytes[] memory s\n      PUSH [tag] 1106\t\t\tinitialize(bytes[] memory sign...\n      JUMPI \t\t\tinitialize(bytes[] memory sign...\n      PUSH 0\t\t\treshold)\\n        \n      PUSH 0\t\t\tblic\\n        initializ\n      PUSH [tag] 1107\t\t\t {\\n        __AccountERC7579Ho...\n      DUP6 \t\t\tuntE\n      DUP6 \t\t\t7579Hooke\n      PUSH [tag] 1108\t\t\t {\\n        __Acc\n      JUMP \t\t\t {\\n        __AccountERC7579Ho...\n    tag 1107\t\t\t {\\n        __AccountERC7579Ho...\n      JUMPDEST \t\t\t {\\n        __AccountERC7579Ho...\n      POP \t\t\t\n      SWAP1 \t\t\threshold)\\n        public\\n   ...\n      SWAP3 \t\t\threshold)\\n        public\\n   ...\n      POP \t\t\t\n      SWAP1 \t\t\threshold)\\n        public\\n   ...\n      POP \t\t\t\n      PUSH 0\t\t\terERC7913_init(signers, th\n      DUP2 \t\t\tlti\n      PUSH 3\t\t\tltiSignerERC7913_init(signers,...\n      DUP2 \t\t\tltiSignerERC7913_init(signers,...\n      GT \t\t\tltiSignerERC7913_init(signers,...\n      ISZERO \t\t\tltiSignerERC7913_init(signers,...\n      PUSH [tag] 1113\t\t\tltiSignerERC7913_init(signers,...\n      JUMPI \t\t\tltiSignerERC7913_init(signers,...\n      PUSH [tag] 1113\t\t\tltiSignerERC7913_init(signers,...\n      PUSH [tag] 1111\t\t\tltiSignerERC7913_init(signers,...\n      JUMP \t\t\tltiSignerERC7913_init(signers,...\n    tag 1113\t\t\tltiSignerERC7913_init(signers,...\n      JUMPDEST \t\t\tltiSignerERC7913_init(signers,...\n      EQ \t\t\tltiSignerERC7913_init(signers,...\n      DUP1 \t\t\tltiSignerERC7913_init(signers,...\n      ISZERO \t\t\tltiSignerERC7913_init(signers,...\n      PUSH [tag] 761\t\t\tltiSignerERC7913_init(signers,...\n      JUMPI \t\t\tltiSignerERC7913_init(signers,...\n      POP \t\t\tltiSignerERC7913_init(signers,...\n      DUP6 \t\t\t    fu\n      PUSH 1\t\t\t\n      PUSH 1\t\t\t\n      PUSH A0\t\t\t\n      SHL \t\t\t\n      SUB \t\t\t\n      AND \t\t\told);\\n    }\\n\\n    fu\n      DUP3 \t\t\told);\\n   \n      PUSH 1\t\t\t\n      PUSH 1\t\t\t\n      PUSH A0\t\t\t\n      SHL \t\t\t\n      SUB \t\t\t\n      AND \t\t\told);\\n    }\\n\\n    fu\n      EQ \t\t\told);\\n    }\\n\\n    fu\n      SWAP3 \t\t\t   __MultiSignerERC7913_init(s...\n      POP \t\t\t   __MultiSignerERC7913_init(s...\n      POP \t\t\t   __MultiSignerERC7913_init(s...\n      POP \t\t\t   __MultiSignerERC7913_init(s...\n      PUSH [tag] 214\t\t\t   __MultiSignerERC7913_init(s...\n      JUMP \t\t\t   __MultiSignerERC7913_init(s...\n    tag 1106\t\t\tinitialize(bytes[] memory sign...\n      JUMPDEST \t\t\tinitialize(bytes[] memory sign...\n      PUSH [tag] 1087\t\t\tbytes calldata signature)\\n   ...\n      DUP5 \t\t\t      \n      DUP5 \t\t\tubli\n      DUP5 \t\t\t        v\n      PUSH [tag] 1117\t\t\tbytes calldata signature)\\n\n      JUMP \t\t\tbytes calldata signature)\\n   ...\n    tag 1108\t\t\tgners) public onlyEntryPointOr...\n      JUMPDEST \t\t\tgners) public onlyEntryPointOr...\n      PUSH 0\t\t\ttes[] memory sign\n      PUSH 0\t\t\ts) public onlyEn\n      PUSH 0\t\t\tyPointOrSelf {\n      DUP4 \t\t\tSigners(s\n      MLOAD \t\t\tSigners(signers)\n      PUSH 41\t\t\t  \n      SUB \t\t\tSigners(signers);\\n    \n      PUSH [tag] 1119\t\t\tmoveSigners(signers);\\n    }\\n...\n      JUMPI \t\t\tmoveSigners(signers);\\n    }\\n...\n      PUSH 20\t\t\tata \n      DUP5 \t\t\tsh, bytes calldata s\n      ADD \t\t\tsh, bytes calldata s\n      MLOAD \t\t\terOpHash, bytes calldata si\n      PUSH 40\t\t\tAcco\n      DUP6 \t\t\t      override(Accou\n      ADD \t\t\t      override(Accou\n      MLOAD \t\t\tnal\\n        override(Accoun\n      PUSH 60\t\t\t256)\n      DUP7 \t\t\t  returns (uint256)\\n\n      ADD \t\t\t  returns (uint256)\\n\n      MLOAD \t\t\t        returns (uint256)\\n \n      PUSH 0\t\t\tsetThresh\n      BYTE \t\t\tdeable)\\n        returns (uint...\n      PUSH [tag] 1120\t\t\tUserOp(userOp, userOpHash\n      DUP9 \t\t\tOp, \n      DUP3 \t\t\tdeable)\\n        returns (uint...\n      DUP6 \t\t\terOpHash, bytes calldata si\n      DUP6 \t\t\tnal\\n        override(Accoun\n      PUSH [tag] 1121\t\t\tUserOp(use\n      JUMP \t\t\tUserOp(userOp, userOpHash\n    tag 1120\t\t\tUserOp(userOp, userOpHash\n      JUMPDEST \t\t\tUserOp(userOp, userOpHash\n      SWAP6 \t\t\talidateUserOp(userOp, userOpHa...\n      POP \t\t\talidateUserOp(userOp, userOpHa...\n      SWAP6 \t\t\talidateUserOp(userOp, userOpHa...\n      POP \t\t\talidateUserOp(userOp, userOpHa...\n      SWAP6 \t\t\talidateUserOp(userOp, userOpHa...\n      POP \t\t\talidateUserOp(userOp, userOpHa...\n      POP \t\t\talidateUserOp(userOp, userOpHa...\n      POP \t\t\talidateUserOp(userOp, userOpHa...\n      POP \t\t\talidateUserOp(userOp, userOpHa...\n      PUSH [tag] 599\t\t\talidateUserOp(userOp, userOpHa...\n      JUMP \t\t\talidateUserOp(userOp, userOpHa...\n    tag 1119\t\t\tmoveSigners(signers);\\n    }\\n...\n      JUMPDEST \t\t\tmoveSigners(signers);\\n    }\\n...\n      POP \t\t\t\n      POP \t\t\t\n      DUP2 \t\t\than AccountERC75\n      MLOAD \t\t\than AccountERC75\n      PUSH 0\t\t\te\n      SWAP2 \t\t\te\n      POP \t\t\t\n      PUSH 2\t\t\tltiSignerERC7913Upgradeable is...\n      SWAP1 \t\t\tltiSignerERC7913Upgradeable is...\n      PUSH [tag] 599\t\t\tORTANT: Make sure MultiSignerE...\n      JUMP \t\t\tORTANT: Make sure MultiSignerE...\n    tag 1117\t\t\t\\n        internal\\n        ov...\n      JUMPDEST \t\t\t\\n        internal\\n        ov...\n      DUP1 \t\t\tderived than Acc\n      MLOAD \t\t\tderived than Acc\n      PUSH 40\t\t\t sig\n      DUP1 \t\t\tlldata sign\n      MLOAD \t\t\tlldata sign\n      PUSH B135D3F\t\t\t\n      PUSH E1\t\t\t\n      SHL \t\t\t\n      DUP1 \t\t\t  internal\\n        vi\n      DUP3 \t\t\t  internal\\n        vi\n      MSTORE \t\t\t  internal\\n        vi\n      PUSH 4\t\t\terER\n      DUP3 \t\t\tMultiSignerERC\n      ADD \t\t\tMultiSignerERC\n      DUP7 \t\t\terride(MultiSignerERC7913Upg\n      SWAP1 \t\t\terride(MultiSignerERC7913Upg\n      MSTORE \t\t\terride(MultiSignerERC7913Upg\n      PUSH 24\t\t\tount\n      DUP3 \t\t\tgner, AccountE\n      ADD \t\t\tgner, AccountE\n      SWAP3 \t\t\ttractSigner, AccountERC7579U\n      SWAP1 \t\t\ttractSigner, AccountERC7579U\n      SWAP3 \t\t\ttractSigner, AccountERC7579U\n      MSTORE \t\t\ttractSigner, AccountERC7579U\n      PUSH 0\t\t\trOp, userOp\n      SWAP3 \t\t\trOp, userOp\n      SWAP1 \t\t\tderived than Acc\n      PUSH 20\t\t\tper.\n      DUP3 \t\t\t   return super._\n      ADD \t\t\t   return super._\n      DUP6 \t\t\tderived t\n      PUSH 44\t\t\t(boo\n      DUP4 \t\t\t returns (bool\n      ADD \t\t\t returns (bool\n      MCOPY \t\t\t       returns (bool)\\n    {\\n...\n      PUSH 20\t\t\t\n      PUSH 0\t\t\t\n      PUSH 64\t\t\t\n      DUP5 \t\t\t\n      ADD \t\t\t\n      DUP4 \t\t\t\n      DUP11 \t\t\t\\n\n      GAS \t\t\t    }\n      STATICCALL \t\t\tignature);\\n    }\\n}\\n\n      SWAP1 \t\t\tidation(hash, signature);\\n   ...\n      POP \t\t\tidation(hash, signature);\\n   ...\n      DUP3 \t\t\t\n      PUSH 0\t\t\t\n      MLOAD \t\t\t\n      EQ \t\t\t\n      PUSH 1F\t\t\t\n      RETURNDATASIZE \t\t\t\n      GT \t\t\t\n      AND \t\t\t\n      DUP2 \t\t\t\n      AND \t\t\t\n      SWAP4 \t\t\t\n      POP \t\t\t\n      POP \t\t\t\n      POP \t\t\t inheritance chain (i.e. contr...\n      POP \t\t\t inheritance chain (i.e. contr...\n      SWAP4 \t\t\t\\n        internal\\n        ov...\n      SWAP3 \t\t\t\\n        internal\\n        ov...\n      POP \t\t\t\\n        internal\\n        ov...\n      POP \t\t\t\\n        internal\\n        ov...\n      POP \t\t\t\\n        internal\\n        ov...\n      JUMP \t\t\t\\n        internal\\n        ov...\n    tag 1121\t\t\t\n      JUMPDEST \t\t\t\n      PUSH 0\t\t\t\n      DUP1 \t\t\t\n      DUP1 \t\t\t\n      PUSH 7FFFFFFFFFFFFFFFFFFFFFFFFFFFFFFF5D576E7357A4501DDFE92F46681B20A0\t\t\t\n      DUP5 \t\t\t\n      GT \t\t\t\n      ISZERO \t\t\t\n      PUSH [tag] 1125\t\t\t\n      JUMPI \t\t\t\n      POP \t\t\t\n      PUSH 0\t\t\t\n      SWAP2 \t\t\t\n      POP \t\t\t\n      PUSH 3\t\t\t\n      SWAP1 \t\t\t\n      POP \t\t\t\n      DUP3 \t\t\t\n      PUSH [tag] 1124\t\t\t\n      JUMP \t\t\t\n    tag 1125\t\t\t\n      JUMPDEST \t\t\t\n      PUSH 40\t\t\t\n      DUP1 \t\t\t\n      MLOAD \t\t\t\n      PUSH 0\t\t\t\n      DUP1 \t\t\t\n      DUP3 \t\t\t\n      MSTORE \t\t\t\n      PUSH 20\t\t\t\n      DUP3 \t\t\t\n      ADD \t\t\t\n      DUP1 \t\t\t\n      DUP5 \t\t\t\n      MSTORE \t\t\t\n      DUP11 \t\t\t\n      SWAP1 \t\t\t\n      MSTORE \t\t\t\n      PUSH FF\t\t\t\n      DUP10 \t\t\t\n      AND \t\t\t\n      SWAP3 \t\t\t\n      DUP3 \t\t\t\n      ADD \t\t\t\n      SWAP3 \t\t\t\n      SWAP1 \t\t\t\n      SWAP3 \t\t\t\n      MSTORE \t\t\t\n      PUSH 60\t\t\t\n      DUP2 \t\t\t\n      ADD \t\t\t\n      DUP8 \t\t\t\n      SWAP1 \t\t\t\n      MSTORE \t\t\t\n      PUSH 80\t\t\t\n      DUP2 \t\t\t\n      ADD \t\t\t\n      DUP7 \t\t\t\n      SWAP1 \t\t\t\n      MSTORE \t\t\t\n      PUSH 1\t\t\t\n      SWAP1 \t\t\t\n      PUSH A0\t\t\t\n      ADD \t\t\t\n      PUSH 20\t\t\t\n      PUSH 40\t\t\t\n      MLOAD \t\t\t\n      PUSH 20\t\t\t\n      DUP2 \t\t\t\n      SUB \t\t\t\n      SWAP1 \t\t\t\n      DUP1 \t\t\t\n      DUP5 \t\t\t\n      SUB \t\t\t\n      SWAP1 \t\t\t\n      DUP6 \t\t\t\n      GAS \t\t\t\n      STATICCALL \t\t\t\n      ISZERO \t\t\t\n      DUP1 \t\t\t\n      ISZERO \t\t\t\n      PUSH [tag] 1129\t\t\t\n      JUMPI \t\t\t\n      RETURNDATASIZE \t\t\t\n      PUSH 0\t\t\t\n      PUSH 0\t\t\t\n      RETURNDATACOPY \t\t\t\n      RETURNDATASIZE \t\t\t\n      PUSH 0\t\t\t\n      REVERT \t\t\t\n    tag 1129\t\t\t\n      JUMPDEST \t\t\t\n      POP \t\t\t\n      POP \t\t\t\n      PUSH 40\t\t\t\n      MLOAD \t\t\t\n      PUSH 1F\t\t\t\n      NOT \t\t\t\n      ADD \t\t\t\n      MLOAD \t\t\t\n      SWAP2 \t\t\t\n      POP \t\t\t\n      POP \t\t\t\n      PUSH 1\t\t\t\n      PUSH 1\t\t\t\n      PUSH A0\t\t\t\n      SHL \t\t\t\n      SUB \t\t\t\n      DUP2 \t\t\t\n      AND \t\t\t\n      PUSH [tag] 1130\t\t\t\n      JUMPI \t\t\t\n      POP \t\t\t\n      PUSH 0\t\t\t\n      SWAP3 \t\t\t\n      POP \t\t\t\n      PUSH 1\t\t\t\n      SWAP2 \t\t\t\n      POP \t\t\t\n      DUP3 \t\t\t\n      SWAP1 \t\t\t\n      POP \t\t\t\n      PUSH [tag] 1124\t\t\t\n      JUMP \t\t\t\n    tag 1130\t\t\t\n      JUMPDEST \t\t\t\n      SWAP3 \t\t\t\n      POP \t\t\t\n      PUSH 0\t\t\t\n      SWAP2 \t\t\t\n      POP \t\t\t\n      DUP2 \t\t\t\n      SWAP1 \t\t\t\n      POP \t\t\t\n    tag 1124\t\t\t\n      JUMPDEST \t\t\t\n      SWAP5 \t\t\t\n      POP \t\t\t\n      SWAP5 \t\t\t\n      POP \t\t\t\n      SWAP5 \t\t\t\n      SWAP2 \t\t\t\n      POP \t\t\t\n      POP \t\t\t\n      JUMP \t\t\t\n    tag 652\t\t\t\n      JUMPDEST \t\t\t\n      POP \t\t\t\n      DUP1 \t\t\t\n      SLOAD \t\t\t\n      PUSH [tag] 1131\t\t\t\n      SWAP1 \t\t\t\n      PUSH [tag] 481\t\t\t\n      JUMP \t\t\t\n    tag 1131\t\t\t\n      JUMPDEST \t\t\t\n      PUSH 0\t\t\t\n      DUP3 \t\t\t\n      SSTORE \t\t\t\n      DUP1 \t\t\t\n      PUSH 1F\t\t\t\n      LT \t\t\t\n      PUSH [tag] 1133\t\t\t\n      JUMPI \t\t\t\n      POP \t\t\t\n      POP \t\t\t\n      JUMP \t\t\t\n    tag 1133\t\t\t\n      JUMPDEST \t\t\t\n      PUSH 1F\t\t\t\n      ADD \t\t\t\n      PUSH 20\t\t\t\n      SWAP1 \t\t\t\n      DIV \t\t\t\n      SWAP1 \t\t\t\n      PUSH 0\t\t\t\n      MSTORE \t\t\t\n      PUSH 20\t\t\t\n      PUSH 0\t\t\t\n      KECCAK256 \t\t\t\n      SWAP1 \t\t\t\n      PUSH [tag] 506\t\t\t\n      SWAP2 \t\t\t\n      SWAP1 \t\t\t\n      PUSH 0\t\t\t\n    tag 1136\t\t\t\n      JUMPDEST \t\t\t\n      DUP1 \t\t\t\n      DUP3 \t\t\t\n      GT \t\t\t\n      ISZERO \t\t\t\n      PUSH [tag] 491\t\t\t\n      JUMPI \t\t\t\n      PUSH 0\t\t\t\n      DUP2 \t\t\t\n      DUP5 \t\t\t\n      ADD \t\t\t\n      SSTORE \t\t\t\n      PUSH 1\t\t\t\n      ADD \t\t\t\n      PUSH [tag] 1136\t\t\t\n      JUMP \t\t\t\n    tag 1138\t\t\te-Identifier: MIT\\n// Compatib...\n      JUMPDEST \t\t\te-Identifier: MIT\\n// Compatib...\n      PUSH 1\t\t\t\n      PUSH 1\t\t\t\n      PUSH E0\t\t\t\n      SHL \t\t\t\n      SUB \t\t\t\n      NOT \t\t\t\n      DUP2 \t\t\tsolidity ^0.8.27;\\n\\nimport {A...\n      AND \t\t\tsolidity ^0.8.27;\\n\\nimport {A...\n      DUP2 \t\t\t.0\\npragma solidity ^0.8.27;\\n...\n      EQ \t\t\t.0\\npragma solidity ^0.8.27;\\n...\n      PUSH [tag] 225\t\t\tracts ^5.6.0\\npragma solidity ...\n      JUMPI \t\t\tracts ^5.6.0\\npragma solidity ...\n      PUSH 0\t\t\tU\n      PUSH 0\t\t\tk\n      REVERT \t\t\t7579HookedUp\n    tag 45\t\t\tom \"@openzeppelin/contracts-up...\n      JUMPDEST \t\t\tom \"@openzeppelin/contracts-up...\n      PUSH 0\t\t\t/draft\n      PUSH 20\t\t\tAc\n      DUP3 \t\t\tl\";\\nimpor\n      DUP5 \t\t\tdeable.\n      SUB \t\t\tpgradeable.sol\";\\nimport\n      SLT \t\t\tkedUpgradeable.sol\";\\nimport {...\n      ISZERO \t\t\tHookedUpgradeable.sol\";\\nimpor...\n      PUSH [tag] 1161\t\t\tHookedUpgradeable.sol\";\\nimpor...\n      JUMPI \t\t\tHookedUpgradeable.sol\";\\nimpor...\n      PUSH 0\t\t\tg\n      PUSH 0\t\t\t9\n      REVERT \t\t\ttERC7579Upgr\n    tag 1161\t\t\tHookedUpgradeable.sol\";\\nimpor...\n      JUMPDEST \t\t\tHookedUpgradeable.sol\";\\nimpor...\n      DUP2 \t\t\ts-upgrade\n      CALLDATALOAD \t\t\telin/contracts-upgradea\n      PUSH [tag] 214\t\t\tnt/extensions/draft-AccountERC\n      DUP2 \t\t\tuntER\n      PUSH [tag] 1138\t\t\tnt/extensions/draft-AccountERC\n      JUMP \t\t\tnt/extensions/draft-AccountERC\n    tag 1139\t\t\tt.sol\";\\nimport {PackedUserOpe...\n      JUMPDEST \t\t\tt.sol\";\\nimport {PackedUserOpe...\n      DUP1 \t\t\tnterfaces/draft-IERC\n      CALLDATALOAD \t\t\tnterfaces/draft-IERC\n      PUSH 1\t\t\t\n      PUSH 1\t\t\t\n      PUSH A0\t\t\t\n      SHL \t\t\t\n      SUB \t\t\t\n      DUP2 \t\t\tble} from \"@openzeppelin/contr...\n      AND \t\t\tble} from \"@openzeppelin/contr...\n      DUP2 \t\t\tInitializable} from \"@openzepp...\n      EQ \t\t\tInitializable} from \"@openzepp...\n      PUSH [tag] 1165\t\t\t;\\nimport {Initializable} from...\n      JUMPI \t\t\t;\\nimport {Initializable} from...\n      PUSH 0\t\t\t/\n      PUSH 0\t\t\ti\n      REVERT \t\t\troxy/utils/I\n    tag 1165\t\t\t;\\nimport {Initializable} from...\n      JUMPDEST \t\t\t;\\nimport {Initializable} from...\n      SWAP2 \t\t\tt.sol\";\\nimport {PackedUserOpe...\n      SWAP1 \t\t\tt.sol\";\\nimport {PackedUserOpe...\n      POP \t\t\tt.sol\";\\nimport {PackedUserOpe...\n      JUMP \t\t\tt.sol\";\\nimport {PackedUserOpe...\n    tag 1140\t\t\tsol\";\\nimport {ERC1155Holder} ...\n      JUMPDEST \t\t\tsol\";\\nimport {ERC1155Holder} ...\n      PUSH 0\t\t\tntracts/\n      PUSH 0\t\t\tken/ER\n      DUP4 \t\t\tlde\n      PUSH 1F\t\t\tRC72\n      DUP5 \t\t\tmport \n      ADD \t\t\t\";\\nimport {ERC721\n      SLT \t\t\t.sol\";\\nimport {ERC721Holder\n      PUSH [tag] 1167\t\t\t1155Holder.sol\";\\nimport {ERC7...\n      JUMPI \t\t\t1155Holder.sol\";\\nimport {ERC7...\n      PUSH 0\t\t\te\n      PUSH 0\t\t\te\n      REVERT \t\t\tom \"@openzep\n    tag 1167\t\t\t1155Holder.sol\";\\nimport {ERC7...\n      JUMPDEST \t\t\t1155Holder.sol\";\\nimport {ERC7...\n      POP \t\t\t\n      DUP2 \t\t\t/ERC721/utils/ERC721\n      CALLDATALOAD \t\t\t/ERC721/utils/ERC721\n      PUSH 1\t\t\t\n      PUSH 1\t\t\t\n      PUSH 40\t\t\t\n      SHL \t\t\t\n      SUB \t\t\t\n      DUP2 \t\t\t\\nimport {EIP712} from \"@openz...\n      GT \t\t\t\\nimport {EIP712} from \"@openz...\n      ISZERO \t\t\tl\";\\nimport {EIP712} from \"@op...\n      PUSH [tag] 1168\t\t\tl\";\\nimport {EIP712} from \"@op...\n      JUMPI \t\t\tl\";\\nimport {EIP712} from \"@op...\n      PUSH 0\t\t\tc\n      PUSH 0\t\t\tt\n      REVERT \t\t\tlin/contract\n    tag 1168\t\t\tl\";\\nimport {EIP712} from \"@op...\n      JUMPDEST \t\t\tl\";\\nimport {EIP712} from \"@op...\n      PUSH 20\t\t\tmpor\n      DUP4 \t\t\t.sol\";\n      ADD \t\t\tP712.sol\";\\nimport\n      SWAP2 \t\t\tptography/EIP712.sol\";\\nimport\n      POP \t\t\tptography/EIP712.sol\";\\nimport\n      DUP4 \t\t\t/ut\n      PUSH 20\t\t\tntra\n      DUP3 \t\t\tppelin\n      DUP6 \t\t\t\"@open\n      ADD \t\t\trom \"@openzeppelin/\n      ADD \t\t\tr} from \"@openzeppelin/contrac\n      GT \t\t\tgner} from \"@openzeppelin/cont...\n      ISZERO \t\t\ttSigner} from \"@openzeppelin/c...\n      PUSH [tag] 1169\t\t\ttSigner} from \"@openzeppelin/c...\n      JUMPI \t\t\ttSigner} from \"@openzeppelin/c...\n      PUSH 0\t\t\th\n      PUSH 0\t\t\tr\n      REVERT \t\t\tcryptography\n    tag 1169\t\t\ttSigner} from \"@openzeppelin/c...\n      JUMPDEST \t\t\ttSigner} from \"@openzeppelin/c...\n      SWAP3 \t\t\tsol\";\\nimport {ERC1155Holder} ...\n      POP \t\t\tsol\";\\nimport {ERC1155Holder} ...\n      SWAP3 \t\t\tsol\";\\nimport {ERC1155Holder} ...\n      SWAP1 \t\t\tsol\";\\nimport {ERC1155Holder} ...\n      POP \t\t\tsol\";\\nimport {ERC1155Holder} ...\n      JUMP \t\t\tsol\";\\nimport {ERC1155Holder} ...\n    tag 52\t\t\tractSigner.sol\";\\nimport {ERC7...\n      JUMPDEST \t\t\tractSigner.sol\";\\nimport {ERC7...\n      PUSH 0\t\t\trs/dra\n      PUSH 0\t\t\t-ERC77\n      PUSH 0\t\t\t.sol\";\n      PUSH 0\t\t\t/// @c\n      PUSH 60\t\t\tom\n      DUP6 \t\t\tbing@gmai\n      DUP8 \t\t\tansatek\n      SUB \t\t\t bahansatekambing@gmail\n      SLT \t\t\ttact bahansatekambing@gmail.co...\n      ISZERO \t\t\tcontact bahansatekambing@gmail...\n      PUSH [tag] 1171\t\t\tcontact bahansatekambing@gmail...\n      JUMPI \t\t\tcontact bahansatekambing@gmail...\n      PUSH 0\t\t\tM\n      PUSH 0\t\t\ta\n      REVERT \t\t\ttract DappMi\n    tag 1171\t\t\tcontact bahansatekambing@gmail...\n      JUMPDEST \t\t\tcontact bahansatekambing@gmail...\n      DUP5 \t\t\t739, AccountERC7579Hook\n      CALLDATALOAD \t\t\t739, AccountERC7579Hook\n      SWAP4 \t\t\t739, AccountERC7579Hook\n      POP \t\t\t\n      PUSH [tag] 1172\t\t\te, ERC721Holder, ERC1155Holder...\n      PUSH 20\t\t\t  \n      DUP7 \t\t\tC1155Holder {\\n    \n      ADD \t\t\tC1155Holder {\\n    \n      PUSH [tag] 1139\t\t\te, ERC721Holder, ERC1155Holder...\n      JUMP \t\t\te, ERC721Holder, ERC1155Holder...\n    tag 1172\t\t\te, ERC721Holder, ERC1155Holder...\n      JUMPDEST \t\t\te, ERC721Holder, ERC1155Holder...\n      SWAP3 \t\t\tUpgradeable, ERC721Holder, ERC...\n      POP \t\t\tUpgradeable, ERC721Holder, ERC...\n      PUSH 40\t\t\tru\n      DUP6 \t\t\thable con\n      ADD \t\t\treachable construc\n      CALLDATALOAD \t\t\tunsafe-allow-reachable constru...\n      PUSH 1\t\t\t\n      PUSH 1\t\t\t\n      PUSH 40\t\t\t\n      SHL \t\t\t\n      SUB \t\t\t\n      DUP2 \t\t\ttor() \n      GT \t\t\tructor() EIP712(\"DappMiner\", \"\n      ISZERO \t\t\tnstructor() EIP712(\"DappMiner\"...\n      PUSH [tag] 1173\t\t\tnstructor() EIP712(\"DappMiner\"...\n      JUMPI \t\t\tnstructor() EIP712(\"DappMiner\"...\n      PUSH 0\t\t\t \n      PUSH 0\t\t\t \n      REVERT \t\t\t {\\n        _\n    tag 1173\t\t\tnstructor() EIP712(\"DappMiner\"...\n      JUMPDEST \t\t\tnstructor() EIP712(\"DappMiner\"...\n      PUSH [tag] 1174\t\t\tction initialize(bytes[] memor...\n      DUP8 \t\t\treshold\n      DUP3 \t\t\tuint64\n      DUP9 \t\t\ty signers\n      ADD \t\t\temory signers, uint64 \n      PUSH [tag] 1140\t\t\tction initialize(bytes[] memor...\n      JUMP \t\t\tction initialize(bytes[] memor...\n    tag 1174\t\t\tction initialize(bytes[] memor...\n      JUMPDEST \t\t\tction initialize(bytes[] memor...\n      SWAP6 \t\t\tractSigner.sol\";\\nimport {ERC7...\n      SWAP9 \t\t\tractSigner.sol\";\\nimport {ERC7...\n      SWAP5 \t\t\tractSigner.sol\";\\nimport {ERC7...\n      SWAP8 \t\t\tractSigner.sol\";\\nimport {ERC7...\n      POP \t\t\t\n      SWAP6 \t\t\t     ini\n      POP \t\t\t\n      POP \t\t\t\n      POP \t\t\t\n      POP \t\t\t\n      JUMP \t\t\tractSigner.sol\";\\nimport {ERC7...\n    tag 267\t\t\t9Hooked_init();\\n        __Mul...\n      JUMPDEST \t\t\t9Hooked_init();\\n        __Mul...\n      PUSH 4E487B71\t\t\treshold);\\n\n      PUSH E0\t\t\ts, \n      SHL \t\t\tgners, threshold);\\n \n      PUSH 0\t\t\t(\n      MSTORE \t\t\t13_init(signers, threshold);\\n...\n      PUSH 41\t\t\tsVal\n      PUSH 4\t\t\tn\n      MSTORE \t\t\tfunction isVali\n      PUSH 24\t\t\thash\n      PUSH 0\t\t\t3\n      REVERT \t\t\te(bytes32 hash,\n    tag 1141\t\t\tdata signature)\\n        publi...\n      JUMPDEST \t\t\tdata signature)\\n        publi...\n      PUSH 40\t\t\t75\n      MLOAD \t\t\tuntERC757\n      PUSH 1F\t\t\t//\n      DUP3 \t\t\tes4)\\n    {\\n  \n      ADD \t\t\tes4)\\n    {\\n  \n      PUSH 1F\t\t\t\n      NOT \t\t\t\n      AND \t\t\t(bytes4)\\n    {\\n        // E\n      DUP2 \t\t\t    returns (bytes4)\\n    {\\n ...\n      ADD \t\t\t    returns (bytes4)\\n    {\\n ...\n      PUSH 1\t\t\t\n      PUSH 1\t\t\t\n      PUSH 40\t\t\t\n      SHL \t\t\t\n      SUB \t\t\t\n      DUP2 \t\t\trn the ERC-1271 magic value, 0...\n      GT \t\t\trn the ERC-1271 magic value, 0...\n      DUP3 \t\t\tfff (invalid) or 0x773\n      DUP3 \t\t\tfff (invalid) or 0x773\n      LT \t\t\tfff (invalid) or 0x773\n      OR \t\t\teturn the ERC-1271 magic value...\n      ISZERO \t\t\tn return the ERC-1271 magic va...\n      PUSH [tag] 1178\t\t\tn return the ERC-1271 magic va...\n      JUMPI \t\t\tn return the ERC-1271 magic va...\n      PUSH [tag] 1178\t\t\t1 (detection).\\n   \n      PUSH [tag] 267\t\t\t1 (detection).\\n   \n      JUMP \t\t\t1 (detection).\\n   \n    tag 1178\t\t\t1 (detection).\\n   \n      JUMPDEST \t\t\t1 (detection).\\n   \n      PUSH 40\t\t\tur\n      MSTORE \t\t\tthe returned value is \n      SWAP2 \t\t\tdata signature)\\n        publi...\n      SWAP1 \t\t\tdata signature)\\n        publi...\n      POP \t\t\t\n      JUMP \t\t\tdata signature)\\n        publi...\n    tag 1142\t\t\t fallback to ERC-7579 validati...\n      JUMPDEST \t\t\t fallback to ERC-7579 validati...\n      PUSH 0\t\t\t erc\n      PUSH 1\t\t\t\n      PUSH 1\t\t\t\n      PUSH 40\t\t\t\n      SHL \t\t\t\n      SUB \t\t\t\n      DUP3 \t\t\tsValid\n      GT \t\t\t9.isValidSignature(hash, signa\n      ISZERO \t\t\t7739.isValidSignature(hash, si...\n      PUSH [tag] 1181\t\t\t7739.isValidSignature(hash, si...\n      JUMPI \t\t\t7739.isValidSignature(hash, si...\n      PUSH [tag] 1181\t\t\te);\\n        return\n      PUSH [tag] 267\t\t\te);\\n        return\n      JUMP \t\t\te);\\n        return\n    tag 1181\t\t\te);\\n        return\n      JUMPDEST \t\t\te);\\n        return\n      POP \t\t\t\n      PUSH 1F\t\t\t75\n      ADD \t\t\tfffffff) ? Acco\n      PUSH 1F\t\t\t\n      NOT \t\t\t\n      AND \t\t\t(0xffffffff) ? AccountERC7579\n      PUSH 20\t\t\tgrad\n      ADD \t\t\ttes4(0xffffffff) ? AccountERC7...\n      SWAP1 \t\t\ttes4(0xffffffff) ? AccountERC7...\n      JUMP \t\t\t fallback to ERC-7579 validati...\n    tag 1143\t\t\tdSignature(hash, signature) : ...\n      JUMPDEST \t\t\tdSignature(hash, signature) : ...\n      PUSH 0\t\t\t;\\n   \n      DUP3 \t\t\trs)\n      PUSH 1F\t\t\ty si\n      DUP4 \t\t\t[] mem\n      ADD \t\t\tytes[] memory sig\n      SLT \t\t\trs(bytes[] memory signers) \n      PUSH [tag] 1183\t\t\tn addSigners(bytes[] memory si...\n      JUMPI \t\t\tn addSigners(bytes[] memory si...\n      PUSH 0\t\t\tr\n      PUSH 0\t\t\tE\n      REVERT \t\t\tic onlyEntry\n    tag 1183\t\t\tn addSigners(bytes[] memory si...\n      JUMPDEST \t\t\tn addSigners(bytes[] memory si...\n      DUP2 \t\t\ters);\\n\n      CALLDATALOAD \t\t\tdSigners(signers);\\n \n      PUSH [tag] 1184\t\t\teSigners(bytes[] memory signer...\n      PUSH [tag] 1185\t\t\t memory signers) public onlyEn...\n      DUP3 \t\t\tEntryP\n      PUSH [tag] 1142\t\t\t memory signers) public onlyEn...\n      JUMP \t\t\t memory signers) public onlyEn...\n    tag 1185\t\t\t memory signers) public onlyEn...\n      JUMPDEST \t\t\t memory signers) public onlyEn...\n      PUSH [tag] 1141\t\t\teSigners(bytes[] memory signer...\n      JUMP \t\t\teSigners(bytes[] memory signer...\n    tag 1184\t\t\teSigners(bytes[] memory signer...\n      JUMPDEST \t\t\teSigners(bytes[] memory signer...\n      DUP2 \t\t\teSigne\n      DUP2 \t\t\t   _rem\n      MSTORE \t\t\t{\\n        _removeSigner\n      DUP5 \t\t\tnt6\n      PUSH 20\t\t\thold\n      DUP4 \t\t\t setTh\n      DUP7 \t\t\tfuncti\n      ADD \t\t\t    function setThr\n      ADD \t\t\t }\\n\\n    function setThreshol...\n      GT \t\t\t    }\\n\\n    function setThres...\n      ISZERO \t\t\t);\\n    }\\n\\n    function setT...\n      PUSH [tag] 1186\t\t\t);\\n    }\\n\\n    function setT...\n      JUMPI \t\t\t);\\n    }\\n\\n    function setT...\n      PUSH 0\t\t\tu\n      PUSH 0\t\t\t)\n      REVERT \t\t\treshold) pub\n    tag 1186\t\t\t);\\n    }\\n\\n    function setT...\n      JUMPDEST \t\t\t);\\n    }\\n\\n    function setT...\n      DUP2 \t\t\t  }\\n\\n \n      PUSH 20\t\t\tld);\n      DUP6 \t\t\t(thres\n      ADD \t\t\thold(threshold);\\n\n      PUSH 20\t\t\tetTh\n      DUP4 \t\t\t       \n      ADD \t\t\t {\\n        _setThr\n      CALLDATACOPY \t\t\tryPointOrSelf {\\n        _setT...\n      PUSH 0\t\t\te\n      SWAP2 \t\t\tunctions are overrid\n      DUP2 \t\t\tunctions are overrid\n      ADD \t\t\tunctions are overrid\n      PUSH 20\t\t\t req\n      ADD \t\t\tng functions are overrides req...\n      SWAP2 \t\t\tfollowing functions are overri...\n      SWAP1 \t\t\tfollowing functions are overri...\n      SWAP2 \t\t\tfollowing functions are overri...\n      MSTORE \t\t\tfollowing functions are overri...\n      SWAP4 \t\t\tions ar\n      SWAP3 \t\t\tdSignature(hash, signature) : ...\n      POP \t\t\t\n      POP \t\t\t\n      POP \t\t\t\n      JUMP \t\t\tdSignature(hash, signature) : ...\n    tag 58\t\t\teUserOp(PackedUserOperation ca...\n      JUMPDEST \t\t\teUserOp(PackedUserOperation ca...\n      PUSH 0\t\t\t    in\n      PUSH 0\t\t\trnal\\n \n      PUSH 0\t\t\t     o\n      PUSH 0\t\t\trride(\n      PUSH 80\t\t\turn\n      DUP6 \t\t\t\\n        \n      DUP8 \t\t\tradeabl\n      SUB \t\t\t9Upgradeable)\\n        r\n      SLT \t\t\tC7579Upgradeable)\\n        ret...\n      ISZERO \t\t\ttERC7579Upgradeable)\\n        ...\n      PUSH [tag] 1188\t\t\ttERC7579Upgradeable)\\n        ...\n      JUMPI \t\t\ttERC7579Upgradeable)\\n        ...\n      PUSH 0\t\t\t \n      PUSH 0\t\t\t\\n\n      REVERT \t\t\tint256)\\n    \n    tag 1188\t\t\ttERC7579Upgradeable)\\n        ...\n      JUMPDEST \t\t\ttERC7579Upgradeable)\\n        ...\n      PUSH [tag] 1189\t\t\tr._validateUserOp(userOp, use\n      DUP6 \t\t\tserOp, us\n      PUSH [tag] 1139\t\t\tr._validateUserOp(userOp, use\n      JUMP \t\t\tr._validateUserOp(userOp, use\n    tag 1189\t\t\tr._validateUserOp(userOp, use\n      JUMPDEST \t\t\tr._validateUserOp(userOp, use\n      SWAP4 \t\t\teturn super._validateUserOp(us...\n      POP \t\t\teturn super._validateUserOp(us...\n      PUSH [tag] 1190\t\t\t;\\n    }\\n\\n    // IMPORTANT: ...\n      PUSH 20\t\t\tre\n      DUP7 \t\t\tNT: Make \n      ADD \t\t\tORTANT: Make sure \n      PUSH [tag] 1139\t\t\t;\\n    }\\n\\n    // IMPORTANT: ...\n      JUMP \t\t\t;\\n    }\\n\\n    // IMPORTANT: ...\n    tag 1190\t\t\t;\\n    }\\n\\n    // IMPORTANT: ...\n      JUMPDEST \t\t\t;\\n    }\\n\\n    // IMPORTANT: ...\n      SWAP3 \t\t\tsignature);\\n    }\\n\\n    // I...\n      POP \t\t\t\n      PUSH 40\t\t\tde\n      DUP6 \t\t\tuntERC7579Upgradea\n      ADD \t\t\tuntERC7579Upgradea\n      CALLDATALOAD \t\t\tved than AccountERC7579Upgrade...\n      SWAP2 \t\t\tved than AccountERC7579Upgrade...\n      POP \t\t\t\n      PUSH 60\t\t\tad\n      DUP6 \t\t\tountERC7579Upgrade\n      ADD \t\t\tountERC7579Upgrade\n      CALLDATALOAD \t\t\tct ... is AccountERC7579Upgrad...\n      PUSH 1\t\t\t\n      PUSH 1\t\t\t\n      PUSH 40\t\t\t\n      SHL \t\t\t\n      SUB \t\t\t\n      DUP2 \t\t\tltiSignerERC7913Upgradeable)\\n...\n      GT \t\t\tltiSignerERC7913Upgradeable)\\n...\n      ISZERO \t\t\t MultiSignerERC7913Upgradeable...\n      PUSH [tag] 1191\t\t\t MultiSignerERC7913Upgradeable...\n      JUMPI \t\t\t MultiSignerERC7913Upgradeable...\n      PUSH 0\t\t\tr\n      PUSH 0\t\t\tn\n      REVERT \t\t\t// to ensure\n    tag 1191\t\t\t MultiSignerERC7913Upgradeable...\n      JUMPDEST \t\t\t MultiSignerERC7913Upgradeable...\n      PUSH [tag] 1192\t\t\t function resolution.\\n    // ...\n      DUP8 \t\t\t79Upgra\n      DUP3 \t\t\tountER\n      DUP9 \t\t\t\\n    // A\n      ADD \t\t\tion.\\n    // AccountERC\n      PUSH [tag] 1143\t\t\t function resolution.\\n    // ...\n      JUMP \t\t\t function resolution.\\n    // ...\n    tag 1192\t\t\t function resolution.\\n    // ...\n      JUMPDEST \t\t\t function resolution.\\n    // ...\n      SWAP2 \t\t\tt order of function resolution...\n      POP \t\t\tt order of function resolution...\n      POP \t\t\tt order of function resolution...\n      SWAP3 \t\t\teUserOp(PackedUserOperation ca...\n      SWAP6 \t\t\teUserOp(PackedUserOperation ca...\n      SWAP2 \t\t\teUserOp(PackedUserOperation ca...\n      SWAP5 \t\t\teUserOp(PackedUserOperation ca...\n      POP \t\t\teUserOp(PackedUserOperation ca...\n      SWAP3 \t\t\teUserOp(PackedUserOperation ca...\n      POP \t\t\teUserOp(PackedUserOperation ca...\n      JUMP \t\t\teUserOp(PackedUserOperation ca...\n    tag 65\t\t\t AccountERC7579Upgradeable)\\n ...\n      JUMPDEST \t\t\t AccountERC7579Upgradeable)\\n ...\n      PUSH 0\t\t\trawSig\n      PUSH 0\t\t\ttureVa\n      PUSH 0\t\t\tdation\n      PUSH 40\t\t\t\n      DUP5 \t\t\t\n      DUP7 \t\t\t\\n\n      SUB \t\t\t }\\n}\\n\n      SLT \t\t\t\\n    }\\n}\\n\n      ISZERO \t\t\te);\\n    }\\n}\\n\n      PUSH [tag] 1195\t\t\te);\\n    }\\n}\\n\n      JUMPI \t\t\te);\\n    }\\n}\\n\n      PUSH 0\t\t\t\n      PUSH 0\t\t\t\n      REVERT \t\t\t\n    tag 1195\t\t\te);\\n    }\\n}\\n\n      JUMPDEST \t\t\te);\\n    }\\n}\\n\n      DUP4 \t\t\t\n      CALLDATALOAD \t\t\t\n      SWAP3 \t\t\t\n      POP \t\t\t\n      PUSH 20\t\t\t\n      DUP5 \t\t\t\n      ADD \t\t\t\n      CALLDATALOAD \t\t\t\n      PUSH 1\t\t\t\n      PUSH 1\t\t\t\n      PUSH 40\t\t\t\n      SHL \t\t\t\n      SUB \t\t\t\n      DUP2 \t\t\t\n      GT \t\t\t\n      ISZERO \t\t\t\n      PUSH [tag] 1196\t\t\t\n      JUMPI \t\t\t\n      PUSH 0\t\t\t\n      PUSH 0\t\t\t\n      REVERT \t\t\t\n    tag 1196\t\t\t\n      JUMPDEST \t\t\t\n      PUSH [tag] 1197\t\t\t\n      DUP7 \t\t\t\n      DUP3 \t\t\t\n      DUP8 \t\t\t\n      ADD \t\t\t\n      PUSH [tag] 1140\t\t\t\n      JUMP \t\t\t\n    tag 1197\t\t\t\n      JUMPDEST \t\t\t\n      SWAP5 \t\t\t AccountERC7579Upgradeable)\\n ...\n      SWAP8 \t\t\t AccountERC7579Upgradeable)\\n ...\n      SWAP1 \t\t\t\n      SWAP7 \t\t\t\n      POP \t\t\t\n      SWAP4 \t\t\t\n      SWAP5 \t\t\t\n      POP \t\t\t\n      POP \t\t\t\n      POP \t\t\t\n      POP \t\t\t\n      JUMP \t\t\t AccountERC7579Upgradeable)\\n ...\n    tag 1144\t\t\t\n      JUMPDEST \t\t\t\n      DUP1 \t\t\t\n      CALLDATALOAD \t\t\t\n      PUSH 1\t\t\t\n      PUSH 1\t\t\t\n      PUSH 40\t\t\t\n      SHL \t\t\t\n      SUB \t\t\t\n      DUP2 \t\t\t\n      AND \t\t\t\n      DUP2 \t\t\t\n      EQ \t\t\t\n      PUSH [tag] 1165\t\t\t\n      JUMPI \t\t\t\n      PUSH 0\t\t\t\n      PUSH 0\t\t\t\n      REVERT \t\t\t\n    tag 71\t\t\t\n      JUMPDEST \t\t\t\n      PUSH 0\t\t\t\n      PUSH 20\t\t\t\n      DUP3 \t\t\t\n      DUP5 \t\t\t\n      SUB \t\t\t\n      SLT \t\t\t\n      ISZERO \t\t\t\n      PUSH [tag] 1201\t\t\t\n      JUMPI \t\t\t\n      PUSH 0\t\t\t\n      PUSH 0\t\t\t\n      REVERT \t\t\t\n    tag 1201\t\t\t\n      JUMPDEST \t\t\t\n      PUSH [tag] 214\t\t\t\n      DUP3 \t\t\t\n      PUSH [tag] 1144\t\t\t\n      JUMP \t\t\t\n    tag 76\t\t\t\n      JUMPDEST \t\t\t\n      PUSH 0\t\t\t\n      PUSH 0\t\t\t\n      PUSH 0\t\t\t\n      PUSH 60\t\t\t\n      DUP5 \t\t\t\n      DUP7 \t\t\t\n      SUB \t\t\t\n      SLT \t\t\t\n      ISZERO \t\t\t\n      PUSH [tag] 1204\t\t\t\n      JUMPI \t\t\t\n      PUSH 0\t\t\t\n      PUSH 0\t\t\t\n      REVERT \t\t\t\n    tag 1204\t\t\t\n      JUMPDEST \t\t\t\n      DUP4 \t\t\t\n      CALLDATALOAD \t\t\t\n      PUSH 1\t\t\t\n      PUSH 1\t\t\t\n      PUSH 40\t\t\t\n      SHL \t\t\t\n      SUB \t\t\t\n      DUP2 \t\t\t\n      GT \t\t\t\n      ISZERO \t\t\t\n      PUSH [tag] 1205\t\t\t\n      JUMPI \t\t\t\n      PUSH 0\t\t\t\n      PUSH 0\t\t\t\n      REVERT \t\t\t\n    tag 1205\t\t\t\n      JUMPDEST \t\t\t\n      DUP5 \t\t\t\n      ADD \t\t\t\n      PUSH 120\t\t\t\n      DUP2 \t\t\t\n      DUP8 \t\t\t\n      SUB \t\t\t\n      SLT \t\t\t\n      ISZERO \t\t\t\n      PUSH [tag] 1206\t\t\t\n      JUMPI \t\t\t\n      PUSH 0\t\t\t\n      PUSH 0\t\t\t\n      REVERT \t\t\t\n    tag 1206\t\t\t\n      JUMPDEST \t\t\t\n      SWAP6 \t\t\t\n      PUSH 20\t\t\t\n      DUP6 \t\t\t\n      ADD \t\t\t\n      CALLDATALOAD \t\t\t\n      SWAP6 \t\t\t\n      POP \t\t\t\n      PUSH 40\t\t\t\n      SWAP1 \t\t\t\n      SWAP5 \t\t\t\n      ADD \t\t\t\n      CALLDATALOAD \t\t\t\n      SWAP4 \t\t\t\n      SWAP3 \t\t\t\n      POP \t\t\t\n      POP \t\t\t\n      POP \t\t\t\n      JUMP \t\t\t\n    tag 83\t\t\t\n      JUMPDEST \t\t\t\n      PUSH 0\t\t\t\n      PUSH 20\t\t\t\n      DUP3 \t\t\t\n      DUP5 \t\t\t\n      SUB \t\t\t\n      SLT \t\t\t\n      ISZERO \t\t\t\n      PUSH [tag] 1209\t\t\t\n      JUMPI \t\t\t\n      PUSH 0\t\t\t\n      PUSH 0\t\t\t\n      REVERT \t\t\t\n    tag 1209\t\t\t\n      JUMPDEST \t\t\t\n      DUP2 \t\t\t\n      CALLDATALOAD \t\t\t\n      PUSH 1\t\t\t\n      PUSH 1\t\t\t\n      PUSH C0\t\t\t\n      SHL \t\t\t\n      SUB \t\t\t\n      DUP2 \t\t\t\n      AND \t\t\t\n      DUP2 \t\t\t\n      EQ \t\t\t\n      PUSH [tag] 214\t\t\t\n      JUMPI \t\t\t\n      PUSH 0\t\t\t\n      PUSH 0\t\t\t\n      REVERT \t\t\t\n    tag 94\t\t\t\n      JUMPDEST \t\t\t\n      PUSH 0\t\t\t\n      PUSH 20\t\t\t\n      DUP3 \t\t\t\n      DUP5 \t\t\t\n      SUB \t\t\t\n      SLT \t\t\t\n      ISZERO \t\t\t\n      PUSH [tag] 1213\t\t\t\n      JUMPI \t\t\t\n      PUSH 0\t\t\t\n      PUSH 0\t\t\t\n      REVERT \t\t\t\n    tag 1213\t\t\t\n      JUMPDEST \t\t\t\n      DUP2 \t\t\t\n      CALLDATALOAD \t\t\t\n      PUSH 1\t\t\t\n      PUSH 1\t\t\t\n      PUSH 40\t\t\t\n      SHL \t\t\t\n      SUB \t\t\t\n      DUP2 \t\t\t\n      GT \t\t\t\n      ISZERO \t\t\t\n      PUSH [tag] 1214\t\t\t\n      JUMPI \t\t\t\n      PUSH 0\t\t\t\n      PUSH 0\t\t\t\n      REVERT \t\t\t\n    tag 1214\t\t\t\n      JUMPDEST \t\t\t\n      PUSH [tag] 207\t\t\t\n      DUP5 \t\t\t\n      DUP3 \t\t\t\n      DUP6 \t\t\t\n      ADD \t\t\t\n      PUSH [tag] 1143\t\t\t\n      JUMP \t\t\t\n    tag 1145\t\t\t\n      JUMPDEST \t\t\t\n      PUSH 0\t\t\t\n      PUSH 1\t\t\t\n      PUSH 1\t\t\t\n      PUSH 40\t\t\t\n      SHL \t\t\t\n      SUB \t\t\t\n      DUP3 \t\t\t\n      GT \t\t\t\n      ISZERO \t\t\t\n      PUSH [tag] 1218\t\t\t\n      JUMPI \t\t\t\n      PUSH [tag] 1218\t\t\t\n      PUSH [tag] 267\t\t\t\n      JUMP \t\t\t\n    tag 1218\t\t\t\n      JUMPDEST \t\t\t\n      POP \t\t\t\n      PUSH 5\t\t\t\n      SHL \t\t\t\n      PUSH 20\t\t\t\n      ADD \t\t\t\n      SWAP1 \t\t\t\n      JUMP \t\t\t\n    tag 1146\t\t\t\n      JUMPDEST \t\t\t\n      PUSH 0\t\t\t\n      DUP3 \t\t\t\n      PUSH 1F\t\t\t\n      DUP4 \t\t\t\n      ADD \t\t\t\n      SLT \t\t\t\n      PUSH [tag] 1220\t\t\t\n      JUMPI \t\t\t\n      PUSH 0\t\t\t\n      PUSH 0\t\t\t\n      REVERT \t\t\t\n    tag 1220\t\t\t\n      JUMPDEST \t\t\t\n      DUP2 \t\t\t\n      CALLDATALOAD \t\t\t\n      PUSH [tag] 1221\t\t\t\n      PUSH [tag] 1185\t\t\t\n      DUP3 \t\t\t\n      PUSH [tag] 1145\t\t\t\n      JUMP \t\t\t\n    tag 1221\t\t\t\n      JUMPDEST \t\t\t\n      DUP1 \t\t\t\n      DUP3 \t\t\t\n      DUP3 \t\t\t\n      MSTORE \t\t\t\n      PUSH 20\t\t\t\n      DUP3 \t\t\t\n      ADD \t\t\t\n      SWAP2 \t\t\t\n      POP \t\t\t\n      PUSH 20\t\t\t\n      DUP4 \t\t\t\n      PUSH 5\t\t\t\n      SHL \t\t\t\n      DUP7 \t\t\t\n      ADD \t\t\t\n      ADD \t\t\t\n      SWAP3 \t\t\t\n      POP \t\t\t\n      DUP6 \t\t\t\n      DUP4 \t\t\t\n      GT \t\t\t\n      ISZERO \t\t\t\n      PUSH [tag] 1223\t\t\t\n      JUMPI \t\t\t\n      PUSH 0\t\t\t\n      PUSH 0\t\t\t\n      REVERT \t\t\t\n    tag 1223\t\t\t\n      JUMPDEST \t\t\t\n      PUSH 20\t\t\t\n      DUP6 \t\t\t\n      ADD \t\t\t\n    tag 1224\t\t\t\n      JUMPDEST \t\t\t\n      DUP4 \t\t\t\n      DUP2 \t\t\t\n      LT \t\t\t\n      ISZERO \t\t\t\n      PUSH [tag] 476\t\t\t\n      JUMPI \t\t\t\n      DUP1 \t\t\t\n      CALLDATALOAD \t\t\t\n      PUSH 1\t\t\t\n      PUSH 1\t\t\t\n      PUSH 40\t\t\t\n      SHL \t\t\t\n      SUB \t\t\t\n      DUP2 \t\t\t\n      GT \t\t\t\n      ISZERO \t\t\t\n      PUSH [tag] 1227\t\t\t\n      JUMPI \t\t\t\n      PUSH 0\t\t\t\n      PUSH 0\t\t\t\n      REVERT \t\t\t\n    tag 1227\t\t\t\n      JUMPDEST \t\t\t\n      PUSH [tag] 1228\t\t\t\n      DUP9 \t\t\t\n      PUSH 20\t\t\t\n      DUP4 \t\t\t\n      DUP11 \t\t\t\n      ADD \t\t\t\n      ADD \t\t\t\n      PUSH [tag] 1143\t\t\t\n      JUMP \t\t\t\n    tag 1228\t\t\t\n      JUMPDEST \t\t\t\n      DUP5 \t\t\t\n      MSTORE \t\t\t\n      POP \t\t\t\n      PUSH 20\t\t\t\n      SWAP3 \t\t\t\n      DUP4 \t\t\t\n      ADD \t\t\t\n      SWAP3 \t\t\t\n      ADD \t\t\t\n      PUSH [tag] 1224\t\t\t\n      JUMP \t\t\t\n    tag 100\t\t\t\n      JUMPDEST \t\t\t\n      PUSH 0\t\t\t\n      PUSH 20\t\t\t\n      DUP3 \t\t\t\n      DUP5 \t\t\t\n      SUB \t\t\t\n      SLT \t\t\t\n      ISZERO \t\t\t\n      PUSH [tag] 1230\t\t\t\n      JUMPI \t\t\t\n      PUSH 0\t\t\t\n      PUSH 0\t\t\t\n      REVERT \t\t\t\n    tag 1230\t\t\t\n      JUMPDEST \t\t\t\n      DUP2 \t\t\t\n      CALLDATALOAD \t\t\t\n      PUSH 1\t\t\t\n      PUSH 1\t\t\t\n      PUSH 40\t\t\t\n      SHL \t\t\t\n      SUB \t\t\t\n      DUP2 \t\t\t\n      GT \t\t\t\n      ISZERO \t\t\t\n      PUSH [tag] 1231\t\t\t\n      JUMPI \t\t\t\n      PUSH 0\t\t\t\n      PUSH 0\t\t\t\n      REVERT \t\t\t\n    tag 1231\t\t\t\n      JUMPDEST \t\t\t\n      PUSH [tag] 207\t\t\t\n      DUP5 \t\t\t\n      DUP3 \t\t\t\n      DUP6 \t\t\t\n      ADD \t\t\t\n      PUSH [tag] 1146\t\t\t\n      JUMP \t\t\t\n    tag 1148\t\t\t\n      JUMPDEST \t\t\t\n      PUSH 0\t\t\t\n      DUP2 \t\t\t\n      MLOAD \t\t\t\n      DUP1 \t\t\t\n      DUP5 \t\t\t\n      MSTORE \t\t\t\n      DUP1 \t\t\t\n      PUSH 20\t\t\t\n      DUP5 \t\t\t\n      ADD \t\t\t\n      PUSH 20\t\t\t\n      DUP7 \t\t\t\n      ADD \t\t\t\n      MCOPY \t\t\t\n      PUSH 0\t\t\t\n      PUSH 20\t\t\t\n      DUP3 \t\t\t\n      DUP7 \t\t\t\n      ADD \t\t\t\n      ADD \t\t\t\n      MSTORE \t\t\t\n      PUSH 20\t\t\t\n      PUSH 1F\t\t\t\n      NOT \t\t\t\n      PUSH 1F\t\t\t\n      DUP4 \t\t\t\n      ADD \t\t\t\n      AND \t\t\t\n      DUP6 \t\t\t\n      ADD \t\t\t\n      ADD \t\t\t\n      SWAP2 \t\t\t\n      POP \t\t\t\n      POP \t\t\t\n      SWAP3 \t\t\t\n      SWAP2 \t\t\t\n      POP \t\t\t\n      POP \t\t\t\n      JUMP \t\t\t\n    tag 111\t\t\t\n      JUMPDEST \t\t\t\n      PUSH FF\t\t\t\n      PUSH F8\t\t\t\n      SHL \t\t\t\n      DUP9 \t\t\t\n      AND \t\t\t\n      DUP2 \t\t\t\n      MSTORE \t\t\t\n      PUSH E0\t\t\t\n      PUSH 20\t\t\t\n      DUP3 \t\t\t\n      ADD \t\t\t\n      MSTORE \t\t\t\n      PUSH 0\t\t\t\n      PUSH [tag] 1237\t\t\t\n      PUSH E0\t\t\t\n      DUP4 \t\t\t\n      ADD \t\t\t\n      DUP10 \t\t\t\n      PUSH [tag] 1148\t\t\t\n      JUMP \t\t\t\n    tag 1237\t\t\t\n      JUMPDEST \t\t\t\n      DUP3 \t\t\t\n      DUP2 \t\t\t\n      SUB \t\t\t\n      PUSH 40\t\t\t\n      DUP5 \t\t\t\n      ADD \t\t\t\n      MSTORE \t\t\t\n      PUSH [tag] 1238\t\t\t\n      DUP2 \t\t\t\n      DUP10 \t\t\t\n      PUSH [tag] 1148\t\t\t\n      JUMP \t\t\t\n    tag 1238\t\t\t\n      JUMPDEST \t\t\t\n      PUSH 60\t\t\t\n      DUP5 \t\t\t\n      ADD \t\t\t\n      DUP9 \t\t\t\n      SWAP1 \t\t\t\n      MSTORE \t\t\t\n      PUSH 1\t\t\t\n      PUSH 1\t\t\t\n      PUSH A0\t\t\t\n      SHL \t\t\t\n      SUB \t\t\t\n      DUP8 \t\t\t\n      AND \t\t\t\n      PUSH 80\t\t\t\n      DUP6 \t\t\t\n      ADD \t\t\t\n      MSTORE \t\t\t\n      PUSH A0\t\t\t\n      DUP5 \t\t\t\n      ADD \t\t\t\n      DUP7 \t\t\t\n      SWAP1 \t\t\t\n      MSTORE \t\t\t\n      DUP4 \t\t\t\n      DUP2 \t\t\t\n      SUB \t\t\t\n      PUSH C0\t\t\t\n      DUP6 \t\t\t\n      ADD \t\t\t\n      MSTORE \t\t\t\n      DUP5 \t\t\t\n      MLOAD \t\t\t\n      DUP1 \t\t\t\n      DUP3 \t\t\t\n      MSTORE \t\t\t\n      PUSH 20\t\t\t\n      DUP1 \t\t\t\n      DUP8 \t\t\t\n      ADD \t\t\t\n      SWAP4 \t\t\t\n      POP \t\t\t\n      SWAP1 \t\t\t\n      SWAP2 \t\t\t\n      ADD \t\t\t\n      SWAP1 \t\t\t\n      PUSH 0\t\t\t\n    tag 1239\t\t\t\n      JUMPDEST \t\t\t\n      DUP2 \t\t\t\n      DUP2 \t\t\t\n      LT \t\t\t\n      ISZERO \t\t\t\n      PUSH [tag] 1241\t\t\t\n      JUMPI \t\t\t\n      DUP4 \t\t\t\n      MLOAD \t\t\t\n      DUP4 \t\t\t\n      MSTORE \t\t\t\n      PUSH 20\t\t\t\n      SWAP4 \t\t\t\n      DUP5 \t\t\t\n      ADD \t\t\t\n      SWAP4 \t\t\t\n      SWAP1 \t\t\t\n      SWAP3 \t\t\t\n      ADD \t\t\t\n      SWAP2 \t\t\t\n      PUSH 1\t\t\t\n      ADD \t\t\t\n      PUSH [tag] 1239\t\t\t\n      JUMP \t\t\t\n    tag 1241\t\t\t\n      JUMPDEST \t\t\t\n      POP \t\t\t\n      SWAP1 \t\t\t\n      SWAP12 \t\t\t\n      SWAP11 \t\t\t\n      POP \t\t\t\n      POP \t\t\t\n      POP \t\t\t\n      POP \t\t\t\n      POP \t\t\t\n      POP \t\t\t\n      POP \t\t\t\n      POP \t\t\t\n      POP \t\t\t\n      POP \t\t\t\n      POP \t\t\t\n      JUMP \t\t\t\n    tag 119\t\t\t\n      JUMPDEST \t\t\t\n      PUSH 0\t\t\t\n      PUSH 0\t\t\t\n      PUSH 40\t\t\t\n      DUP4 \t\t\t\n      DUP6 \t\t\t\n      SUB \t\t\t\n      SLT \t\t\t\n      ISZERO \t\t\t\n      PUSH [tag] 1243\t\t\t\n      JUMPI \t\t\t\n      PUSH 0\t\t\t\n      PUSH 0\t\t\t\n      REVERT \t\t\t\n    tag 1243\t\t\t\n      JUMPDEST \t\t\t\n      PUSH [tag] 1244\t\t\t\n      DUP4 \t\t\t\n      PUSH [tag] 1144\t\t\t\n      JUMP \t\t\t\n    tag 1244\t\t\t\n      JUMPDEST \t\t\t\n      SWAP2 \t\t\t\n      POP \t\t\t\n      PUSH [tag] 1245\t\t\t\n      PUSH 20\t\t\t\n      DUP5 \t\t\t\n      ADD \t\t\t\n      PUSH [tag] 1144\t\t\t\n      JUMP \t\t\t\n    tag 1245\t\t\t\n      JUMPDEST \t\t\t\n      SWAP1 \t\t\t\n      POP \t\t\t\n      SWAP3 \t\t\t\n      POP \t\t\t\n      SWAP3 \t\t\t\n      SWAP1 \t\t\t\n      POP \t\t\t\n      JUMP \t\t\t\n    tag 122\t\t\t\n      JUMPDEST \t\t\t\n      PUSH 0\t\t\t\n      PUSH 20\t\t\t\n      DUP3 \t\t\t\n      ADD \t\t\t\n      PUSH 20\t\t\t\n      DUP4 \t\t\t\n      MSTORE \t\t\t\n      DUP1 \t\t\t\n      DUP5 \t\t\t\n      MLOAD \t\t\t\n      DUP1 \t\t\t\n      DUP4 \t\t\t\n      MSTORE \t\t\t\n      PUSH 40\t\t\t\n      DUP6 \t\t\t\n      ADD \t\t\t\n      SWAP2 \t\t\t\n      POP \t\t\t\n      PUSH 40\t\t\t\n      DUP2 \t\t\t\n      PUSH 5\t\t\t\n      SHL \t\t\t\n      DUP7 \t\t\t\n      ADD \t\t\t\n      ADD \t\t\t\n      SWAP3 \t\t\t\n      POP \t\t\t\n      PUSH 20\t\t\t\n      DUP7 \t\t\t\n      ADD \t\t\t\n      PUSH 0\t\t\t\n    tag 1247\t\t\t\n      JUMPDEST \t\t\t\n      DUP3 \t\t\t\n      DUP2 \t\t\t\n      LT \t\t\t\n      ISZERO \t\t\t\n      PUSH [tag] 1249\t\t\t\n      JUMPI \t\t\t\n      PUSH 3F\t\t\t\n      NOT \t\t\t\n      DUP8 \t\t\t\n      DUP7 \t\t\t\n      SUB \t\t\t\n      ADD \t\t\t\n      DUP5 \t\t\t\n      MSTORE \t\t\t\n      PUSH [tag] 1250\t\t\t\n      DUP6 \t\t\t\n      DUP4 \t\t\t\n      MLOAD \t\t\t\n      PUSH [tag] 1148\t\t\t\n      JUMP \t\t\t\n    tag 1250\t\t\t\n      JUMPDEST \t\t\t\n      SWAP5 \t\t\t\n      POP \t\t\t\n      PUSH 20\t\t\t\n      SWAP4 \t\t\t\n      DUP5 \t\t\t\n      ADD \t\t\t\n      SWAP4 \t\t\t\n      SWAP2 \t\t\t\n      SWAP1 \t\t\t\n      SWAP2 \t\t\t\n      ADD \t\t\t\n      SWAP1 \t\t\t\n      PUSH 1\t\t\t\n      ADD \t\t\t\n      PUSH [tag] 1247\t\t\t\n      JUMP \t\t\t\n    tag 1249\t\t\t\n      JUMPDEST \t\t\t\n      POP \t\t\t\n      SWAP3 \t\t\t\n      SWAP7 \t\t\t\n      SWAP6 \t\t\t\n      POP \t\t\t\n      POP \t\t\t\n      POP \t\t\t\n      POP \t\t\t\n      POP \t\t\t\n      POP \t\t\t\n      JUMP \t\t\t\n    tag 131\t\t\t\n      JUMPDEST \t\t\t\n      PUSH 20\t\t\t\n      DUP2 \t\t\t\n      MSTORE \t\t\t\n      PUSH 0\t\t\t\n      PUSH [tag] 214\t\t\t\n      PUSH 20\t\t\t\n      DUP4 \t\t\t\n      ADD \t\t\t\n      DUP5 \t\t\t\n      PUSH [tag] 1148\t\t\t\n      JUMP \t\t\t\n    tag 135\t\t\t\n      JUMPDEST \t\t\t\n      PUSH 0\t\t\t\n      PUSH 0\t\t\t\n      PUSH 40\t\t\t\n      DUP4 \t\t\t\n      DUP6 \t\t\t\n      SUB \t\t\t\n      SLT \t\t\t\n      ISZERO \t\t\t\n      PUSH [tag] 1254\t\t\t\n      JUMPI \t\t\t\n      PUSH 0\t\t\t\n      PUSH 0\t\t\t\n      REVERT \t\t\t\n    tag 1254\t\t\t\n      JUMPDEST \t\t\t\n      DUP3 \t\t\t\n      CALLDATALOAD \t\t\t\n      PUSH 1\t\t\t\n      PUSH 1\t\t\t\n      PUSH 40\t\t\t\n      SHL \t\t\t\n      SUB \t\t\t\n      DUP2 \t\t\t\n      GT \t\t\t\n      ISZERO \t\t\t\n      PUSH [tag] 1255\t\t\t\n      JUMPI \t\t\t\n      PUSH 0\t\t\t\n      PUSH 0\t\t\t\n      REVERT \t\t\t\n    tag 1255\t\t\t\n      JUMPDEST \t\t\t\n      PUSH [tag] 1256\t\t\t\n      DUP6 \t\t\t\n      DUP3 \t\t\t\n      DUP7 \t\t\t\n      ADD \t\t\t\n      PUSH [tag] 1146\t\t\t\n      JUMP \t\t\t\n    tag 1256\t\t\t\n      JUMPDEST \t\t\t\n      SWAP3 \t\t\t\n      POP \t\t\t\n      POP \t\t\t\n      PUSH [tag] 1245\t\t\t\n      PUSH 20\t\t\t\n      DUP5 \t\t\t\n      ADD \t\t\t\n      PUSH [tag] 1144\t\t\t\n      JUMP \t\t\t\n    tag 1149\t\t\t\n      JUMPDEST \t\t\t\n      PUSH 0\t\t\t\n      DUP3 \t\t\t\n      PUSH 1F\t\t\t\n      DUP4 \t\t\t\n      ADD \t\t\t\n      SLT \t\t\t\n      PUSH [tag] 1260\t\t\t\n      JUMPI \t\t\t\n      PUSH 0\t\t\t\n      PUSH 0\t\t\t\n      REVERT \t\t\t\n    tag 1260\t\t\t\n      JUMPDEST \t\t\t\n      DUP2 \t\t\t\n      CALLDATALOAD \t\t\t\n      PUSH [tag] 1261\t\t\t\n      PUSH [tag] 1185\t\t\t\n      DUP3 \t\t\t\n      PUSH [tag] 1145\t\t\t\n      JUMP \t\t\t\n    tag 1261\t\t\t\n      JUMPDEST \t\t\t\n      DUP1 \t\t\t\n      DUP3 \t\t\t\n      DUP3 \t\t\t\n      MSTORE \t\t\t\n      PUSH 20\t\t\t\n      DUP3 \t\t\t\n      ADD \t\t\t\n      SWAP2 \t\t\t\n      POP \t\t\t\n      PUSH 20\t\t\t\n      DUP4 \t\t\t\n      PUSH 5\t\t\t\n      SHL \t\t\t\n      DUP7 \t\t\t\n      ADD \t\t\t\n      ADD \t\t\t\n      SWAP3 \t\t\t\n      POP \t\t\t\n      DUP6 \t\t\t\n      DUP4 \t\t\t\n      GT \t\t\t\n      ISZERO \t\t\t\n      PUSH [tag] 1263\t\t\t\n      JUMPI \t\t\t\n      PUSH 0\t\t\t\n      PUSH 0\t\t\t\n      REVERT \t\t\t\n    tag 1263\t\t\t\n      JUMPDEST \t\t\t\n      PUSH 20\t\t\t\n      DUP6 \t\t\t\n      ADD \t\t\t\n    tag 1264\t\t\t\n      JUMPDEST \t\t\t\n      DUP4 \t\t\t\n      DUP2 \t\t\t\n      LT \t\t\t\n      ISZERO \t\t\t\n      PUSH [tag] 476\t\t\t\n      JUMPI \t\t\t\n      DUP1 \t\t\t\n      CALLDATALOAD \t\t\t\n      DUP4 \t\t\t\n      MSTORE \t\t\t\n      PUSH 20\t\t\t\n      SWAP3 \t\t\t\n      DUP4 \t\t\t\n      ADD \t\t\t\n      SWAP3 \t\t\t\n      ADD \t\t\t\n      PUSH [tag] 1264\t\t\t\n      JUMP \t\t\t\n    tag 153\t\t\t\n      JUMPDEST \t\t\t\n      PUSH 0\t\t\t\n      PUSH 0\t\t\t\n      PUSH 0\t\t\t\n      PUSH 0\t\t\t\n      PUSH 0\t\t\t\n      PUSH A0\t\t\t\n      DUP7 \t\t\t\n      DUP9 \t\t\t\n      SUB \t\t\t\n      SLT \t\t\t\n      ISZERO \t\t\t\n      PUSH [tag] 1268\t\t\t\n      JUMPI \t\t\t\n      PUSH 0\t\t\t\n      PUSH 0\t\t\t\n      REVERT \t\t\t\n    tag 1268\t\t\t\n      JUMPDEST \t\t\t\n      PUSH [tag] 1269\t\t\t\n      DUP7 \t\t\t\n      PUSH [tag] 1139\t\t\t\n      JUMP \t\t\t\n    tag 1269\t\t\t\n      JUMPDEST \t\t\t\n      SWAP5 \t\t\t\n      POP \t\t\t\n      PUSH [tag] 1270\t\t\t\n      PUSH 20\t\t\t\n      DUP8 \t\t\t\n      ADD \t\t\t\n      PUSH [tag] 1139\t\t\t\n      JUMP \t\t\t\n    tag 1270\t\t\t\n      JUMPDEST \t\t\t\n      SWAP4 \t\t\t\n      POP \t\t\t\n      PUSH 40\t\t\t\n      DUP7 \t\t\t\n      ADD \t\t\t\n      CALLDATALOAD \t\t\t\n      PUSH 1\t\t\t\n      PUSH 1\t\t\t\n      PUSH 40\t\t\t\n      SHL \t\t\t\n      SUB \t\t\t\n      DUP2 \t\t\t\n      GT \t\t\t\n      ISZERO \t\t\t\n      PUSH [tag] 1271\t\t\t\n      JUMPI \t\t\t\n      PUSH 0\t\t\t\n      PUSH 0\t\t\t\n      REVERT \t\t\t\n    tag 1271\t\t\t\n      JUMPDEST \t\t\t\n      PUSH [tag] 1272\t\t\t\n      DUP9 \t\t\t\n      DUP3 \t\t\t\n      DUP10 \t\t\t\n      ADD \t\t\t\n      PUSH [tag] 1149\t\t\t\n      JUMP \t\t\t\n    tag 1272\t\t\t\n      JUMPDEST \t\t\t\n      SWAP4 \t\t\t\n      POP \t\t\t\n      POP \t\t\t\n      PUSH 60\t\t\t\n      DUP7 \t\t\t\n      ADD \t\t\t\n      CALLDATALOAD \t\t\t\n      PUSH 1\t\t\t\n      PUSH 1\t\t\t\n      PUSH 40\t\t\t\n      SHL \t\t\t\n      SUB \t\t\t\n      DUP2 \t\t\t\n      GT \t\t\t\n      ISZERO \t\t\t\n      PUSH [tag] 1273\t\t\t\n      JUMPI \t\t\t\n      PUSH 0\t\t\t\n      PUSH 0\t\t\t\n      REVERT \t\t\t\n    tag 1273\t\t\t\n      JUMPDEST \t\t\t\n      PUSH [tag] 1274\t\t\t\n      DUP9 \t\t\t\n      DUP3 \t\t\t\n      DUP10 \t\t\t\n      ADD \t\t\t\n      PUSH [tag] 1149\t\t\t\n      JUMP \t\t\t\n    tag 1274\t\t\t\n      JUMPDEST \t\t\t\n      SWAP3 \t\t\t\n      POP \t\t\t\n      POP \t\t\t\n      PUSH 80\t\t\t\n      DUP7 \t\t\t\n      ADD \t\t\t\n      CALLDATALOAD \t\t\t\n      PUSH 1\t\t\t\n      PUSH 1\t\t\t\n      PUSH 40\t\t\t\n      SHL \t\t\t\n      SUB \t\t\t\n      DUP2 \t\t\t\n      GT \t\t\t\n      ISZERO \t\t\t\n      PUSH [tag] 1275\t\t\t\n      JUMPI \t\t\t\n      PUSH 0\t\t\t\n      PUSH 0\t\t\t\n      REVERT \t\t\t\n    tag 1275\t\t\t\n      JUMPDEST \t\t\t\n      PUSH [tag] 1276\t\t\t\n      DUP9 \t\t\t\n      DUP3 \t\t\t\n      DUP10 \t\t\t\n      ADD \t\t\t\n      PUSH [tag] 1143\t\t\t\n      JUMP \t\t\t\n    tag 1276\t\t\t\n      JUMPDEST \t\t\t\n      SWAP2 \t\t\t\n      POP \t\t\t\n      POP \t\t\t\n      SWAP3 \t\t\t\n      SWAP6 \t\t\t\n      POP \t\t\t\n      SWAP3 \t\t\t\n      SWAP6 \t\t\t\n      SWAP1 \t\t\t\n      SWAP4 \t\t\t\n      POP \t\t\t\n      JUMP \t\t\t\n    tag 159\t\t\t\n      JUMPDEST \t\t\t\n      PUSH 0\t\t\t\n      PUSH 20\t\t\t\n      DUP3 \t\t\t\n      DUP5 \t\t\t\n      SUB \t\t\t\n      SLT \t\t\t\n      ISZERO \t\t\t\n      PUSH [tag] 1278\t\t\t\n      JUMPI \t\t\t\n      PUSH 0\t\t\t\n      PUSH 0\t\t\t\n      REVERT \t\t\t\n    tag 1278\t\t\t\n      JUMPDEST \t\t\t\n      POP \t\t\t\n      CALLDATALOAD \t\t\t\n      SWAP2 \t\t\t\n      SWAP1 \t\t\t\n      POP \t\t\t\n      JUMP \t\t\t\n    tag 176\t\t\t\n      JUMPDEST \t\t\t\n      PUSH 0\t\t\t\n      PUSH 0\t\t\t\n      PUSH 0\t\t\t\n      PUSH 0\t\t\t\n      PUSH 0\t\t\t\n      PUSH A0\t\t\t\n      DUP7 \t\t\t\n      DUP9 \t\t\t\n      SUB \t\t\t\n      SLT \t\t\t\n      ISZERO \t\t\t\n      PUSH [tag] 1280\t\t\t\n      JUMPI \t\t\t\n      PUSH 0\t\t\t\n      PUSH 0\t\t\t\n      REVERT \t\t\t\n    tag 1280\t\t\t\n      JUMPDEST \t\t\t\n      PUSH [tag] 1281\t\t\t\n      DUP7 \t\t\t\n      PUSH [tag] 1139\t\t\t\n      JUMP \t\t\t\n    tag 1281\t\t\t\n      JUMPDEST \t\t\t\n      SWAP5 \t\t\t\n      POP \t\t\t\n      PUSH [tag] 1282\t\t\t\n      PUSH 20\t\t\t\n      DUP8 \t\t\t\n      ADD \t\t\t\n      PUSH [tag] 1139\t\t\t\n      JUMP \t\t\t\n    tag 1282\t\t\t\n      JUMPDEST \t\t\t\n      SWAP4 \t\t\t\n      POP \t\t\t\n      PUSH 40\t\t\t\n      DUP7 \t\t\t\n      ADD \t\t\t\n      CALLDATALOAD \t\t\t\n      SWAP3 \t\t\t\n      POP \t\t\t\n      PUSH 60\t\t\t\n      DUP7 \t\t\t\n      ADD \t\t\t\n      CALLDATALOAD \t\t\t\n      SWAP2 \t\t\t\n      POP \t\t\t\n      PUSH 80\t\t\t\n      DUP7 \t\t\t\n      ADD \t\t\t\n      CALLDATALOAD \t\t\t\n      PUSH 1\t\t\t\n      PUSH 1\t\t\t\n      PUSH 40\t\t\t\n      SHL \t\t\t\n      SUB \t\t\t\n      DUP2 \t\t\t\n      GT \t\t\t\n      ISZERO \t\t\t\n      PUSH [tag] 1275\t\t\t\n      JUMPI \t\t\t\n      PUSH 0\t\t\t\n      PUSH 0\t\t\t\n      REVERT \t\t\t\n    tag 1150\t\t\t\n      JUMPDEST \t\t\t\n      DUP2 \t\t\t\n      DUP4 \t\t\t\n      MSTORE \t\t\t\n      DUP2 \t\t\t\n      DUP2 \t\t\t\n      PUSH 20\t\t\t\n      DUP6 \t\t\t\n      ADD \t\t\t\n      CALLDATACOPY \t\t\t\n      POP \t\t\t\n      PUSH 0\t\t\t\n      DUP3 \t\t\t\n      DUP3 \t\t\t\n      ADD \t\t\t\n      PUSH 20\t\t\t\n      SWAP1 \t\t\t\n      DUP2 \t\t\t\n      ADD \t\t\t\n      SWAP2 \t\t\t\n      SWAP1 \t\t\t\n      SWAP2 \t\t\t\n      MSTORE \t\t\t\n      PUSH 1F\t\t\t\n      SWAP1 \t\t\t\n      SWAP2 \t\t\t\n      ADD \t\t\t\n      PUSH 1F\t\t\t\n      NOT \t\t\t\n      AND \t\t\t\n      SWAP1 \t\t\t\n      SWAP2 \t\t\t\n      ADD \t\t\t\n      ADD \t\t\t\n      SWAP1 \t\t\t\n      JUMP \t\t\t\n    tag 189\t\t\t\n      JUMPDEST \t\t\t\n      PUSH 1\t\t\t\n      DUP1 \t\t\t\n      PUSH A0\t\t\t\n      SHL \t\t\t\n      SUB \t\t\t\n      DUP6 \t\t\t\n      AND \t\t\t\n      DUP2 \t\t\t\n      MSTORE \t\t\t\n      DUP4 \t\t\t\n      PUSH 20\t\t\t\n      DUP3 \t\t\t\n      ADD \t\t\t\n      MSTORE \t\t\t\n      PUSH 60\t\t\t\n      PUSH 40\t\t\t\n      DUP3 \t\t\t\n      ADD \t\t\t\n      MSTORE \t\t\t\n      PUSH 0\t\t\t\n      PUSH [tag] 625\t\t\t\n      PUSH 60\t\t\t\n      DUP4 \t\t\t\n      ADD \t\t\t\n      DUP5 \t\t\t\n      DUP7 \t\t\t\n      PUSH [tag] 1150\t\t\t\n      JUMP \t\t\t\n    tag 193\t\t\t\n      JUMPDEST \t\t\t\n      PUSH 0\t\t\t\n      PUSH 20\t\t\t\n      DUP3 \t\t\t\n      DUP5 \t\t\t\n      SUB \t\t\t\n      SLT \t\t\t\n      ISZERO \t\t\t\n      PUSH [tag] 1291\t\t\t\n      JUMPI \t\t\t\n      PUSH 0\t\t\t\n      PUSH 0\t\t\t\n      REVERT \t\t\t\n    tag 1291\t\t\t\n      JUMPDEST \t\t\t\n      DUP2 \t\t\t\n      MLOAD \t\t\t\n      PUSH 1\t\t\t\n      PUSH 1\t\t\t\n      PUSH 40\t\t\t\n      SHL \t\t\t\n      SUB \t\t\t\n      DUP2 \t\t\t\n      GT \t\t\t\n      ISZERO \t\t\t\n      PUSH [tag] 1292\t\t\t\n      JUMPI \t\t\t\n      PUSH 0\t\t\t\n      PUSH 0\t\t\t\n      REVERT \t\t\t\n    tag 1292\t\t\t\n      JUMPDEST \t\t\t\n      DUP3 \t\t\t\n      ADD \t\t\t\n      PUSH 1F\t\t\t\n      DUP2 \t\t\t\n      ADD \t\t\t\n      DUP5 \t\t\t\n      SGT \t\t\t\n      PUSH [tag] 1293\t\t\t\n      JUMPI \t\t\t\n      PUSH 0\t\t\t\n      PUSH 0\t\t\t\n      REVERT \t\t\t\n    tag 1293\t\t\t\n      JUMPDEST \t\t\t\n      DUP1 \t\t\t\n      MLOAD \t\t\t\n      PUSH [tag] 1294\t\t\t\n      PUSH [tag] 1185\t\t\t\n      DUP3 \t\t\t\n      PUSH [tag] 1142\t\t\t\n      JUMP \t\t\t\n    tag 1294\t\t\t\n      JUMPDEST \t\t\t\n      DUP2 \t\t\t\n      DUP2 \t\t\t\n      MSTORE \t\t\t\n      DUP6 \t\t\t\n      PUSH 20\t\t\t\n      DUP4 \t\t\t\n      DUP6 \t\t\t\n      ADD \t\t\t\n      ADD \t\t\t\n      GT \t\t\t\n      ISZERO \t\t\t\n      PUSH [tag] 1296\t\t\t\n      JUMPI \t\t\t\n      PUSH 0\t\t\t\n      PUSH 0\t\t\t\n      REVERT \t\t\t\n    tag 1296\t\t\t\n      JUMPDEST \t\t\t\n      DUP2 \t\t\t\n      PUSH 20\t\t\t\n      DUP5 \t\t\t\n      ADD \t\t\t\n      PUSH 20\t\t\t\n      DUP4 \t\t\t\n      ADD \t\t\t\n      MCOPY \t\t\t\n      PUSH 0\t\t\t\n      SWAP2 \t\t\t\n      DUP2 \t\t\t\n      ADD \t\t\t\n      PUSH 20\t\t\t\n      ADD \t\t\t\n      SWAP2 \t\t\t\n      SWAP1 \t\t\t\n      SWAP2 \t\t\t\n      MSTORE \t\t\t\n      SWAP5 \t\t\t\n      SWAP4 \t\t\t\n      POP \t\t\t\n      POP \t\t\t\n      POP \t\t\t\n      POP \t\t\t\n      JUMP \t\t\t\n    tag 233\t\t\t\n      JUMPDEST \t\t\t\n      PUSH 0\t\t\t\n      PUSH 0\t\t\t\n      DUP4 \t\t\t\n      CALLDATALOAD \t\t\t\n      PUSH 1E\t\t\t\n      NOT \t\t\t\n      DUP5 \t\t\t\n      CALLDATASIZE \t\t\t\n      SUB \t\t\t\n      ADD \t\t\t\n      DUP2 \t\t\t\n      SLT \t\t\t\n      PUSH [tag] 1300\t\t\t\n      JUMPI \t\t\t\n      PUSH 0\t\t\t\n      PUSH 0\t\t\t\n      REVERT \t\t\t\n    tag 1300\t\t\t\n      JUMPDEST \t\t\t\n      DUP4 \t\t\t\n      ADD \t\t\t\n      DUP1 \t\t\t\n      CALLDATALOAD \t\t\t\n      SWAP2 \t\t\t\n      POP \t\t\t\n      PUSH 1\t\t\t\n      PUSH 1\t\t\t\n      PUSH 40\t\t\t\n      SHL \t\t\t\n      SUB \t\t\t\n      DUP3 \t\t\t\n      GT \t\t\t\n      ISZERO \t\t\t\n      PUSH [tag] 1301\t\t\t\n      JUMPI \t\t\t\n      PUSH 0\t\t\t\n      PUSH 0\t\t\t\n      REVERT \t\t\t\n    tag 1301\t\t\t\n      JUMPDEST \t\t\t\n      PUSH 20\t\t\t\n      ADD \t\t\t\n      SWAP2 \t\t\t\n      POP \t\t\t\n      CALLDATASIZE \t\t\t\n      DUP2 \t\t\t\n      SWAP1 \t\t\t\n      SUB \t\t\t\n      DUP3 \t\t\t\n      SGT \t\t\t\n      ISZERO \t\t\t\n      PUSH [tag] 1169\t\t\t\n      JUMPI \t\t\t\n      PUSH 0\t\t\t\n      PUSH 0\t\t\t\n      REVERT \t\t\t\n    tag 244\t\t\t\n      JUMPDEST \t\t\t\n      PUSH 0\t\t\t\n      PUSH 20\t\t\t\n      DUP3 \t\t\t\n      DUP5 \t\t\t\n      SUB \t\t\t\n      SLT \t\t\t\n      ISZERO \t\t\t\n      PUSH [tag] 1305\t\t\t\n      JUMPI \t\t\t\n      PUSH 0\t\t\t\n      PUSH 0\t\t\t\n      REVERT \t\t\t\n    tag 1305\t\t\t\n      JUMPDEST \t\t\t\n      POP \t\t\t\n      MLOAD \t\t\t\n      SWAP2 \t\t\t\n      SWAP1 \t\t\t\n      POP \t\t\t\n      JUMP \t\t\t\n    tag 351\t\t\t\n      JUMPDEST \t\t\t\n      DUP3 \t\t\t\n      DUP5 \t\t\t\n      DUP3 \t\t\t\n      CALLDATACOPY \t\t\t\n      PUSH 60\t\t\t\n      SWAP2 \t\t\t\n      SWAP1 \t\t\t\n      SWAP2 \t\t\t\n      SHL \t\t\t\n      PUSH 1\t\t\t\n      PUSH 1\t\t\t\n      PUSH 60\t\t\t\n      SHL \t\t\t\n      SUB \t\t\t\n      NOT \t\t\t\n      AND \t\t\t\n      SWAP2 \t\t\t\n      ADD \t\t\t\n      SWAP1 \t\t\t\n      DUP2 \t\t\t\n      MSTORE \t\t\t\n      PUSH 14\t\t\t\n      ADD \t\t\t\n      SWAP2 \t\t\t\n      SWAP1 \t\t\t\n      POP \t\t\t\n      JUMP \t\t\t\n    tag 371\t\t\t\n      JUMPDEST \t\t\t\n      PUSH 0\t\t\t\n      PUSH 0\t\t\t\n      DUP6 \t\t\t\n      DUP6 \t\t\t\n      GT \t\t\t\n      ISZERO \t\t\t\n      PUSH [tag] 1309\t\t\t\n      JUMPI \t\t\t\n      PUSH 0\t\t\t\n      PUSH 0\t\t\t\n      REVERT \t\t\t\n    tag 1309\t\t\t\n      JUMPDEST \t\t\t\n      DUP4 \t\t\t\n      DUP7 \t\t\t\n      GT \t\t\t\n      ISZERO \t\t\t\n      PUSH [tag] 1310\t\t\t\n      JUMPI \t\t\t\n      PUSH 0\t\t\t\n      PUSH 0\t\t\t\n      REVERT \t\t\t\n    tag 1310\t\t\t\n      JUMPDEST \t\t\t\n      POP \t\t\t\n      POP \t\t\t\n      DUP3 \t\t\t\n      ADD \t\t\t\n      SWAP4 \t\t\t\n      SWAP2 \t\t\t\n      SWAP1 \t\t\t\n      SWAP3 \t\t\t\n      SUB \t\t\t\n      SWAP2 \t\t\t\n      POP \t\t\t\n      JUMP \t\t\t\n    tag 373\t\t\t\n      JUMPDEST \t\t\t\n      DUP1 \t\t\t\n      CALLDATALOAD \t\t\t\n      PUSH 1\t\t\t\n      PUSH 1\t\t\t\n      PUSH E0\t\t\t\n      SHL \t\t\t\n      SUB \t\t\t\n      NOT \t\t\t\n      DUP2 \t\t\t\n      AND \t\t\t\n      SWAP1 \t\t\t\n      PUSH 4\t\t\t\n      DUP5 \t\t\t\n      LT \t\t\t\n      ISZERO \t\t\t\n      PUSH [tag] 654\t\t\t\n      JUMPI \t\t\t\n      PUSH 1\t\t\t\n      PUSH 1\t\t\t\n      PUSH E0\t\t\t\n      SHL \t\t\t\n      SUB \t\t\t\n      NOT \t\t\t\n      PUSH 4\t\t\t\n      SWAP5 \t\t\t\n      SWAP1 \t\t\t\n      SWAP5 \t\t\t\n      SUB \t\t\t\n      PUSH 3\t\t\t\n      SHL \t\t\t\n      DUP5 \t\t\t\n      SWAP1 \t\t\t\n      SHL \t\t\t\n      AND \t\t\t\n      SWAP1 \t\t\t\n      SWAP3 \t\t\t\n      AND \t\t\t\n      SWAP3 \t\t\t\n      SWAP2 \t\t\t\n      POP \t\t\t\n      POP \t\t\t\n      JUMP \t\t\t\n    tag 396\t\t\t\n      JUMPDEST \t\t\t\n      PUSH 0\t\t\t\n      PUSH 20\t\t\t\n      DUP3 \t\t\t\n      DUP5 \t\t\t\n      SUB \t\t\t\n      SLT \t\t\t\n      ISZERO \t\t\t\n      PUSH [tag] 1316\t\t\t\n      JUMPI \t\t\t\n      PUSH 0\t\t\t\n      PUSH 0\t\t\t\n      REVERT \t\t\t\n    tag 1316\t\t\t\n      JUMPDEST \t\t\t\n      DUP2 \t\t\t\n      MLOAD \t\t\t\n      PUSH [tag] 214\t\t\t\n      DUP2 \t\t\t\n      PUSH [tag] 1138\t\t\t\n      JUMP \t\t\t\n    tag 1151\t\t\t\n      JUMPDEST \t\t\t\n      PUSH 0\t\t\t\n      DUP2 \t\t\t\n      MLOAD \t\t\t\n      DUP1 \t\t\t\n      PUSH 20\t\t\t\n      DUP5 \t\t\t\n      ADD \t\t\t\n      DUP6 \t\t\t\n      MCOPY \t\t\t\n      PUSH 0\t\t\t\n      SWAP4 \t\t\t\n      ADD \t\t\t\n      SWAP3 \t\t\t\n      DUP4 \t\t\t\n      MSTORE \t\t\t\n      POP \t\t\t\n      SWAP1 \t\t\t\n      SWAP2 \t\t\t\n      SWAP1 \t\t\t\n      POP \t\t\t\n      JUMP \t\t\t\n    tag 426\t\t\t\n      JUMPDEST \t\t\t\n      PUSH 0\t\t\t\n      PUSH [tag] 214\t\t\t\n      DUP3 \t\t\t\n      DUP5 \t\t\t\n      PUSH [tag] 1151\t\t\t\n      JUMP \t\t\t\n    tag 434\t\t\t\n      JUMPDEST \t\t\t\n      PUSH 4E487B71\t\t\t\n      PUSH E0\t\t\t\n      SHL \t\t\t\n      PUSH 0\t\t\t\n      MSTORE \t\t\t\n      PUSH 32\t\t\t\n      PUSH 4\t\t\t\n      MSTORE \t\t\t\n      PUSH 24\t\t\t\n      PUSH 0\t\t\t\n      REVERT \t\t\t\n    tag 481\t\t\t\n      JUMPDEST \t\t\t\n      PUSH 1\t\t\t\n      DUP2 \t\t\t\n      DUP2 \t\t\t\n      SHR \t\t\t\n      SWAP1 \t\t\t\n      DUP3 \t\t\t\n      AND \t\t\t\n      DUP1 \t\t\t\n      PUSH [tag] 1323\t\t\t\n      JUMPI \t\t\t\n      PUSH 7F\t\t\t\n      DUP3 \t\t\t\n      AND \t\t\t\n      SWAP2 \t\t\t\n      POP \t\t\t\n    tag 1323\t\t\t\n      JUMPDEST \t\t\t\n      PUSH 20\t\t\t\n      DUP3 \t\t\t\n      LT \t\t\t\n      DUP2 \t\t\t\n      SUB \t\t\t\n      PUSH [tag] 1324\t\t\t\n      JUMPI \t\t\t\n      PUSH 4E487B71\t\t\t\n      PUSH E0\t\t\t\n      SHL \t\t\t\n      PUSH 0\t\t\t\n      MSTORE \t\t\t\n      PUSH 22\t\t\t\n      PUSH 4\t\t\t\n      MSTORE \t\t\t\n      PUSH 24\t\t\t\n      PUSH 0\t\t\t\n      REVERT \t\t\t\n    tag 1324\t\t\t\n      JUMPDEST \t\t\t\n      POP \t\t\t\n      SWAP2 \t\t\t\n      SWAP1 \t\t\t\n      POP \t\t\t\n      JUMP \t\t\t\n    tag 601\t\t\t\n      JUMPDEST \t\t\t\n      DUP1 \t\t\t\n      CALLDATALOAD \t\t\t\n      PUSH 1\t\t\t\n      PUSH 1\t\t\t\n      PUSH 60\t\t\t\n      SHL \t\t\t\n      SUB \t\t\t\n      NOT \t\t\t\n      DUP2 \t\t\t\n      AND \t\t\t\n      SWAP1 \t\t\t\n      PUSH 14\t\t\t\n      DUP5 \t\t\t\n      LT \t\t\t\n      ISZERO \t\t\t\n      PUSH [tag] 654\t\t\t\n      JUMPI \t\t\t\n      PUSH 1\t\t\t\n      PUSH 1\t\t\t\n      PUSH 60\t\t\t\n      SHL \t\t\t\n      SUB \t\t\t\n      NOT \t\t\t\n      PUSH 14\t\t\t\n      SWAP5 \t\t\t\n      SWAP1 \t\t\t\n      SWAP5 \t\t\t\n      SUB \t\t\t\n      PUSH 3\t\t\t\n      SHL \t\t\t\n      DUP5 \t\t\t\n      SWAP1 \t\t\t\n      SHL \t\t\t\n      AND \t\t\t\n      SWAP1 \t\t\t\n      SWAP3 \t\t\t\n      AND \t\t\t\n      SWAP3 \t\t\t\n      SWAP2 \t\t\t\n      POP \t\t\t\n      POP \t\t\t\n      JUMP \t\t\t\n    tag 1152\t\t\t\n      JUMPDEST \t\t\t\n      PUSH 0\t\t\t\n      PUSH 0\t\t\t\n      DUP4 \t\t\t\n      CALLDATALOAD \t\t\t\n      PUSH 1E\t\t\t\n      NOT \t\t\t\n      DUP5 \t\t\t\n      CALLDATASIZE \t\t\t\n      SUB \t\t\t\n      ADD \t\t\t\n      DUP2 \t\t\t\n      SLT \t\t\t\n      PUSH [tag] 1331\t\t\t\n      JUMPI \t\t\t\n      PUSH 0\t\t\t\n      PUSH 0\t\t\t\n      REVERT \t\t\t\n    tag 1331\t\t\t\n      JUMPDEST \t\t\t\n      DUP4 \t\t\t\n      ADD \t\t\t\n      PUSH 20\t\t\t\n      DUP2 \t\t\t\n      ADD \t\t\t\n      SWAP3 \t\t\t\n      POP \t\t\t\n      CALLDATALOAD \t\t\t\n      SWAP1 \t\t\t\n      POP \t\t\t\n      PUSH 1\t\t\t\n      PUSH 1\t\t\t\n      PUSH 40\t\t\t\n      SHL \t\t\t\n      SUB \t\t\t\n      DUP2 \t\t\t\n      GT \t\t\t\n      ISZERO \t\t\t\n      PUSH [tag] 1332\t\t\t\n      JUMPI \t\t\t\n      PUSH 0\t\t\t\n      PUSH 0\t\t\t\n      REVERT \t\t\t\n    tag 1332\t\t\t\n      JUMPDEST \t\t\t\n      DUP1 \t\t\t\n      CALLDATASIZE \t\t\t\n      SUB \t\t\t\n      DUP3 \t\t\t\n      SGT \t\t\t\n      ISZERO \t\t\t\n      PUSH [tag] 1169\t\t\t\n      JUMPI \t\t\t\n      PUSH 0\t\t\t\n      PUSH 0\t\t\t\n      REVERT \t\t\t\n    tag 622\t\t\t\n      JUMPDEST \t\t\t\n      PUSH 40\t\t\t\n      DUP2 \t\t\t\n      MSTORE \t\t\t\n      PUSH [tag] 1335\t\t\t\n      PUSH 40\t\t\t\n      DUP3 \t\t\t\n      ADD \t\t\t\n      PUSH [tag] 1336\t\t\t\n      DUP6 \t\t\t\n      PUSH [tag] 1139\t\t\t\n      JUMP \t\t\t\n    tag 1336\t\t\t\n      JUMPDEST \t\t\t\n      PUSH 1\t\t\t\n      PUSH 1\t\t\t\n      PUSH A0\t\t\t\n      SHL \t\t\t\n      SUB \t\t\t\n      AND \t\t\t\n      SWAP1 \t\t\t\n      MSTORE \t\t\t\n      JUMP \t\t\t\n    tag 1335\t\t\t\n      JUMPDEST \t\t\t\n      PUSH 20\t\t\t\n      DUP4 \t\t\t\n      ADD \t\t\t\n      CALLDATALOAD \t\t\t\n      PUSH 60\t\t\t\n      DUP3 \t\t\t\n      ADD \t\t\t\n      MSTORE \t\t\t\n      PUSH 0\t\t\t\n      PUSH [tag] 1337\t\t\t\n      PUSH 40\t\t\t\n      DUP6 \t\t\t\n      ADD \t\t\t\n      DUP6 \t\t\t\n      PUSH [tag] 1152\t\t\t\n      JUMP \t\t\t\n    tag 1337\t\t\t\n      JUMPDEST \t\t\t\n      PUSH 120\t\t\t\n      PUSH 80\t\t\t\n      DUP6 \t\t\t\n      ADD \t\t\t\n      MSTORE \t\t\t\n      PUSH [tag] 1338\t\t\t\n      PUSH 160\t\t\t\n      DUP6 \t\t\t\n      ADD \t\t\t\n      DUP3 \t\t\t\n      DUP5 \t\t\t\n      PUSH [tag] 1150\t\t\t\n      JUMP \t\t\t\n    tag 1338\t\t\t\n      JUMPDEST \t\t\t\n      SWAP2 \t\t\t\n      POP \t\t\t\n      POP \t\t\t\n      PUSH [tag] 1339\t\t\t\n      PUSH 60\t\t\t\n      DUP7 \t\t\t\n      ADD \t\t\t\n      DUP7 \t\t\t\n      PUSH [tag] 1152\t\t\t\n      JUMP \t\t\t\n    tag 1339\t\t\t\n      JUMPDEST \t\t\t\n      DUP5 \t\t\t\n      DUP4 \t\t\t\n      SUB \t\t\t\n      PUSH 3F\t\t\t\n      NOT \t\t\t\n      ADD \t\t\t\n      PUSH A0\t\t\t\n      DUP7 \t\t\t\n      ADD \t\t\t\n      MSTORE \t\t\t\n      PUSH [tag] 1340\t\t\t\n      DUP4 \t\t\t\n      DUP3 \t\t\t\n      DUP5 \t\t\t\n      PUSH [tag] 1150\t\t\t\n      JUMP \t\t\t\n    tag 1340\t\t\t\n      JUMPDEST \t\t\t\n      PUSH 80\t\t\t\n      DUP9 \t\t\t\n      ADD \t\t\t\n      CALLDATALOAD \t\t\t\n      PUSH C0\t\t\t\n      DUP8 \t\t\t\n      DUP2 \t\t\t\n      ADD \t\t\t\n      SWAP2 \t\t\t\n      SWAP1 \t\t\t\n      SWAP2 \t\t\t\n      MSTORE \t\t\t\n      PUSH A0\t\t\t\n      DUP10 \t\t\t\n      ADD \t\t\t\n      CALLDATALOAD \t\t\t\n      PUSH E0\t\t\t\n      DUP1 \t\t\t\n      DUP10 \t\t\t\n      ADD \t\t\t\n      SWAP2 \t\t\t\n      SWAP1 \t\t\t\n      SWAP2 \t\t\t\n      MSTORE \t\t\t\n      SWAP1 \t\t\t\n      DUP10 \t\t\t\n      ADD \t\t\t\n      CALLDATALOAD \t\t\t\n      PUSH 100\t\t\t\n      DUP9 \t\t\t\n      ADD \t\t\t\n      MSTORE \t\t\t\n      SWAP1 \t\t\t\n      SWAP4 \t\t\t\n      POP \t\t\t\n      PUSH [tag] 1341\t\t\t\n      SWAP3 \t\t\t\n      POP \t\t\t\n      DUP8 \t\t\t\n      ADD \t\t\t\n      SWAP1 \t\t\t\n      POP \t\t\t\n      DUP7 \t\t\t\n      PUSH [tag] 1152\t\t\t\n      JUMP \t\t\t\n    tag 1341\t\t\t\n      JUMPDEST \t\t\t\n      DUP5 \t\t\t\n      DUP4 \t\t\t\n      SUB \t\t\t\n      PUSH 3F\t\t\t\n      NOT \t\t\t\n      ADD \t\t\t\n      PUSH 120\t\t\t\n      DUP7 \t\t\t\n      ADD \t\t\t\n      MSTORE \t\t\t\n      PUSH [tag] 1342\t\t\t\n      DUP4 \t\t\t\n      DUP3 \t\t\t\n      DUP5 \t\t\t\n      PUSH [tag] 1150\t\t\t\n      JUMP \t\t\t\n    tag 1342\t\t\t\n      JUMPDEST \t\t\t\n      SWAP3 \t\t\t\n      POP \t\t\t\n      POP \t\t\t\n      POP \t\t\t\n      PUSH [tag] 1343\t\t\t\n      PUSH 100\t\t\t\n      DUP7 \t\t\t\n      ADD \t\t\t\n      DUP7 \t\t\t\n      PUSH [tag] 1152\t\t\t\n      JUMP \t\t\t\n    tag 1343\t\t\t\n      JUMPDEST \t\t\t\n      DUP5 \t\t\t\n      DUP4 \t\t\t\n      SUB \t\t\t\n      PUSH 3F\t\t\t\n      NOT \t\t\t\n      ADD \t\t\t\n      PUSH 140\t\t\t\n      DUP7 \t\t\t\n      ADD \t\t\t\n      MSTORE \t\t\t\n      PUSH [tag] 1344\t\t\t\n      DUP4 \t\t\t\n      DUP3 \t\t\t\n      DUP5 \t\t\t\n      PUSH [tag] 1150\t\t\t\n      JUMP \t\t\t\n    tag 1344\t\t\t\n      JUMPDEST \t\t\t\n      SWAP4 \t\t\t\n      POP \t\t\t\n      POP \t\t\t\n      POP \t\t\t\n      POP \t\t\t\n      DUP3 \t\t\t\n      PUSH 20\t\t\t\n      DUP4 \t\t\t\n      ADD \t\t\t\n      MSTORE \t\t\t\n      SWAP4 \t\t\t\n      SWAP3 \t\t\t\n      POP \t\t\t\n      POP \t\t\t\n      POP \t\t\t\n      JUMP \t\t\t\n    tag 1153\t\t\t\n      JUMPDEST \t\t\t\n      PUSH 4E487B71\t\t\t\n      PUSH E0\t\t\t\n      SHL \t\t\t\n      PUSH 0\t\t\t\n      MSTORE \t\t\t\n      PUSH 11\t\t\t\n      PUSH 4\t\t\t\n      MSTORE \t\t\t\n      PUSH 24\t\t\t\n      PUSH 0\t\t\t\n      REVERT \t\t\t\n    tag 630\t\t\t\n      JUMPDEST \t\t\t\n      DUP2 \t\t\t\n      DUP2 \t\t\t\n      SUB \t\t\t\n      DUP2 \t\t\t\n      DUP2 \t\t\t\n      GT \t\t\t\n      ISZERO \t\t\t\n      PUSH [tag] 205\t\t\t\n      JUMPI \t\t\t\n      PUSH [tag] 205\t\t\t\n      PUSH [tag] 1153\t\t\t\n      JUMP \t\t\t\n    tag 1155\t\t\t\n      JUMPDEST \t\t\t\n      PUSH 1F\t\t\t\n      DUP3 \t\t\t\n      GT \t\t\t\n      ISZERO \t\t\t\n      PUSH [tag] 491\t\t\t\n      JUMPI \t\t\t\n      DUP3 \t\t\t\n      DUP3 \t\t\t\n      GT \t\t\t\n      ISZERO \t\t\t\n      PUSH [tag] 491\t\t\t\n      JUMPI \t\t\t\n      DUP1 \t\t\t\n      PUSH 0\t\t\t\n      MSTORE \t\t\t\n      PUSH 20\t\t\t\n      PUSH 0\t\t\t\n      KECCAK256 \t\t\t\n      PUSH 1F\t\t\t\n      DUP5 \t\t\t\n      ADD \t\t\t\n      PUSH 5\t\t\t\n      SHR \t\t\t\n      PUSH 20\t\t\t\n      DUP6 \t\t\t\n      LT \t\t\t\n      ISZERO \t\t\t\n      PUSH [tag] 1353\t\t\t\n      JUMPI \t\t\t\n      POP \t\t\t\n      PUSH 0\t\t\t\n    tag 1353\t\t\t\n      JUMPDEST \t\t\t\n      SWAP1 \t\t\t\n      DUP2 \t\t\t\n      ADD \t\t\t\n      SWAP1 \t\t\t\n      PUSH 1F\t\t\t\n      DUP5 \t\t\t\n      ADD \t\t\t\n      PUSH 5\t\t\t\n      SHR \t\t\t\n      SUB \t\t\t\n      PUSH 0\t\t\t\n    tag 1354\t\t\t\n      JUMPDEST \t\t\t\n      DUP2 \t\t\t\n      DUP2 \t\t\t\n      LT \t\t\t\n      ISZERO \t\t\t\n      PUSH [tag] 548\t\t\t\n      JUMPI \t\t\t\n      PUSH 0\t\t\t\n      DUP4 \t\t\t\n      DUP3 \t\t\t\n      ADD \t\t\t\n      SSTORE \t\t\t\n      PUSH 1\t\t\t\n      ADD \t\t\t\n      PUSH [tag] 1354\t\t\t\n      JUMP \t\t\t\n    tag 645\t\t\t\n      JUMPDEST \t\t\t\n      DUP2 \t\t\t\n      MLOAD \t\t\t\n      PUSH 1\t\t\t\n      PUSH 1\t\t\t\n      PUSH 40\t\t\t\n      SHL \t\t\t\n      SUB \t\t\t\n      DUP2 \t\t\t\n      GT \t\t\t\n      ISZERO \t\t\t\n      PUSH [tag] 1360\t\t\t\n      JUMPI \t\t\t\n      PUSH [tag] 1360\t\t\t\n      PUSH [tag] 267\t\t\t\n      JUMP \t\t\t\n    tag 1360\t\t\t\n      JUMPDEST \t\t\t\n      PUSH [tag] 1361\t\t\t\n      DUP2 \t\t\t\n      PUSH [tag] 1362\t\t\t\n      DUP5 \t\t\t\n      SLOAD \t\t\t\n      PUSH [tag] 481\t\t\t\n      JUMP \t\t\t\n    tag 1362\t\t\t\n      JUMPDEST \t\t\t\n      DUP5 \t\t\t\n      PUSH [tag] 1155\t\t\t\n      JUMP \t\t\t\n    tag 1361\t\t\t\n      JUMPDEST \t\t\t\n      PUSH 20\t\t\t\n      PUSH 1F\t\t\t\n      DUP3 \t\t\t\n      GT \t\t\t\n      PUSH 1\t\t\t\n      DUP2 \t\t\t\n      EQ \t\t\t\n      PUSH [tag] 1364\t\t\t\n      JUMPI \t\t\t\n      PUSH 0\t\t\t\n      DUP4 \t\t\t\n      ISZERO \t\t\t\n      PUSH [tag] 1365\t\t\t\n      JUMPI \t\t\t\n      POP \t\t\t\n      DUP5 \t\t\t\n      DUP3 \t\t\t\n      ADD \t\t\t\n      MLOAD \t\t\t\n    tag 1365\t\t\t\n      JUMPDEST \t\t\t\n      PUSH 0\t\t\t\n      NOT \t\t\t\n      PUSH 3\t\t\t\n      DUP6 \t\t\t\n      SWAP1 \t\t\t\n      SHL \t\t\t\n      SHR \t\t\t\n      NOT \t\t\t\n      AND \t\t\t\n      PUSH 1\t\t\t\n      DUP5 \t\t\t\n      SWAP1 \t\t\t\n      SHL \t\t\t\n      OR \t\t\t\n      DUP5 \t\t\t\n      SSTORE \t\t\t\n      PUSH [tag] 461\t\t\t\n      JUMP \t\t\t\n    tag 1364\t\t\t\n      JUMPDEST \t\t\t\n      PUSH 0\t\t\t\n      DUP5 \t\t\t\n      DUP2 \t\t\t\n      MSTORE \t\t\t\n      PUSH 20\t\t\t\n      DUP2 \t\t\t\n      KECCAK256 \t\t\t\n      PUSH 1F\t\t\t\n      NOT \t\t\t\n      DUP6 \t\t\t\n      AND \t\t\t\n      SWAP2 \t\t\t\n    tag 1368\t\t\t\n      JUMPDEST \t\t\t\n      DUP3 \t\t\t\n      DUP2 \t\t\t\n      LT \t\t\t\n      ISZERO \t\t\t\n      PUSH [tag] 1370\t\t\t\n      JUMPI \t\t\t\n      DUP8 \t\t\t\n      DUP6 \t\t\t\n      ADD \t\t\t\n      MLOAD \t\t\t\n      DUP3 \t\t\t\n      SSTORE \t\t\t\n      PUSH 20\t\t\t\n      SWAP5 \t\t\t\n      DUP6 \t\t\t\n      ADD \t\t\t\n      SWAP5 \t\t\t\n      PUSH 1\t\t\t\n      SWAP1 \t\t\t\n      SWAP3 \t\t\t\n      ADD \t\t\t\n      SWAP2 \t\t\t\n      ADD \t\t\t\n      PUSH [tag] 1368\t\t\t\n      JUMP \t\t\t\n    tag 1370\t\t\t\n      JUMPDEST \t\t\t\n      POP \t\t\t\n      DUP5 \t\t\t\n      DUP3 \t\t\t\n      LT \t\t\t\n      ISZERO \t\t\t\n      PUSH [tag] 1371\t\t\t\n      JUMPI \t\t\t\n      DUP7 \t\t\t\n      DUP5 \t\t\t\n      ADD \t\t\t\n      MLOAD \t\t\t\n      PUSH 0\t\t\t\n      NOT \t\t\t\n      PUSH 3\t\t\t\n      DUP8 \t\t\t\n      SWAP1 \t\t\t\n      SHL \t\t\t\n      PUSH F8\t\t\t\n      AND \t\t\t\n      SHR \t\t\t\n      NOT \t\t\t\n      AND \t\t\t\n      DUP2 \t\t\t\n      SSTORE \t\t\t\n    tag 1371\t\t\t\n      JUMPDEST \t\t\t\n      POP \t\t\t\n      POP \t\t\t\n      POP \t\t\t\n      POP \t\t\t\n      PUSH 1\t\t\t\n      SWAP1 \t\t\t\n      DUP2 \t\t\t\n      SHL \t\t\t\n      ADD \t\t\t\n      SWAP1 \t\t\t\n      SSTORE \t\t\t\n      POP \t\t\t\n      JUMP \t\t\t\n    tag 649\t\t\t\n      JUMPDEST \t\t\t\n      PUSH 4E487B71\t\t\t\n      PUSH E0\t\t\t\n      SHL \t\t\t\n      PUSH 0\t\t\t\n      MSTORE \t\t\t\n      PUSH 31\t\t\t\n      PUSH 4\t\t\t\n      MSTORE \t\t\t\n      PUSH 24\t\t\t\n      PUSH 0\t\t\t\n      REVERT \t\t\t\n    tag 674\t\t\t\n      JUMPDEST \t\t\t\n      PUSH 0\t\t\t\n      PUSH 20\t\t\t\n      DUP3 \t\t\t\n      DUP5 \t\t\t\n      SUB \t\t\t\n      SLT \t\t\t\n      ISZERO \t\t\t\n      PUSH [tag] 1374\t\t\t\n      JUMPI \t\t\t\n      PUSH 0\t\t\t\n      PUSH 0\t\t\t\n      REVERT \t\t\t\n    tag 1374\t\t\t\n      JUMPDEST \t\t\t\n      DUP2 \t\t\t\n      MLOAD \t\t\t\n      DUP1 \t\t\t\n      ISZERO \t\t\t\n      ISZERO \t\t\t\n      DUP2 \t\t\t\n      EQ \t\t\t\n      PUSH [tag] 214\t\t\t\n      JUMPI \t\t\t\n      PUSH 0\t\t\t\n      PUSH 0\t\t\t\n      REVERT \t\t\t\n    tag 781\t\t\t\n      JUMPDEST \t\t\t\n      DUP1 \t\t\t\n      CALLDATALOAD \t\t\t\n      PUSH 1\t\t\t\n      PUSH 1\t\t\t\n      PUSH F0\t\t\t\n      SHL \t\t\t\n      SUB \t\t\t\n      NOT \t\t\t\n      DUP2 \t\t\t\n      AND \t\t\t\n      SWAP1 \t\t\t\n      PUSH 2\t\t\t\n      DUP5 \t\t\t\n      LT \t\t\t\n      ISZERO \t\t\t\n      PUSH [tag] 654\t\t\t\n      JUMPI \t\t\t\n      PUSH 1\t\t\t\n      PUSH 1\t\t\t\n      PUSH F0\t\t\t\n      SHL \t\t\t\n      SUB \t\t\t\n      NOT \t\t\t\n      PUSH 2\t\t\t\n      SWAP5 \t\t\t\n      SWAP1 \t\t\t\n      SWAP5 \t\t\t\n      SUB \t\t\t\n      PUSH 3\t\t\t\n      SHL \t\t\t\n      DUP5 \t\t\t\n      SWAP1 \t\t\t\n      SHL \t\t\t\n      AND \t\t\t\n      SWAP1 \t\t\t\n      SWAP3 \t\t\t\n      AND \t\t\t\n      SWAP3 \t\t\t\n      SWAP2 \t\t\t\n      POP \t\t\t\n      POP \t\t\t\n      JUMP \t\t\t\n    tag 788\t\t\t\n      JUMPDEST \t\t\t\n      DUP1 \t\t\t\n      CALLDATALOAD \t\t\t\n      PUSH 20\t\t\t\n      DUP4 \t\t\t\n      LT \t\t\t\n      ISZERO \t\t\t\n      PUSH [tag] 205\t\t\t\n      JUMPI \t\t\t\n      PUSH 0\t\t\t\n      NOT \t\t\t\n      PUSH 20\t\t\t\n      DUP5 \t\t\t\n      SWAP1 \t\t\t\n      SUB \t\t\t\n      PUSH 3\t\t\t\n      SHL \t\t\t\n      SHL \t\t\t\n      AND \t\t\t\n      SWAP3 \t\t\t\n      SWAP2 \t\t\t\n      POP \t\t\t\n      POP \t\t\t\n      JUMP \t\t\t\n    tag 831\t\t\t\n      JUMPDEST \t\t\t\n      DUP1 \t\t\t\n      MLOAD \t\t\t\n      PUSH 20\t\t\t\n      DUP3 \t\t\t\n      ADD \t\t\t\n      MLOAD \t\t\t\n      PUSH 1\t\t\t\n      PUSH 1\t\t\t\n      PUSH E0\t\t\t\n      SHL \t\t\t\n      SUB \t\t\t\n      NOT \t\t\t\n      DUP2 \t\t\t\n      AND \t\t\t\n      SWAP2 \t\t\t\n      SWAP1 \t\t\t\n      PUSH 4\t\t\t\n      DUP3 \t\t\t\n      LT \t\t\t\n      ISZERO \t\t\t\n      PUSH [tag] 1382\t\t\t\n      JUMPI \t\t\t\n      PUSH 1\t\t\t\n      PUSH 1\t\t\t\n      PUSH E0\t\t\t\n      SHL \t\t\t\n      SUB \t\t\t\n      NOT \t\t\t\n      PUSH 4\t\t\t\n      DUP4 \t\t\t\n      SWAP1 \t\t\t\n      SUB \t\t\t\n      PUSH 3\t\t\t\n      SHL \t\t\t\n      DUP2 \t\t\t\n      SWAP1 \t\t\t\n      SHL \t\t\t\n      DUP3 \t\t\t\n      AND \t\t\t\n      AND \t\t\t\n      SWAP3 \t\t\t\n      POP \t\t\t\n    tag 1382\t\t\t\n      JUMPDEST \t\t\t\n      POP \t\t\t\n      POP \t\t\t\n      SWAP2 \t\t\t\n      SWAP1 \t\t\t\n      POP \t\t\t\n      JUMP \t\t\t\n    tag 872\t\t\t\n      JUMPDEST \t\t\t\n      PUSH 0\t\t\t\n      DUP3 \t\t\t\n      CALLDATALOAD \t\t\t\n      PUSH 5E\t\t\t\n      NOT \t\t\t\n      DUP4 \t\t\t\n      CALLDATASIZE \t\t\t\n      SUB \t\t\t\n      ADD \t\t\t\n      DUP2 \t\t\t\n      SLT \t\t\t\n      PUSH [tag] 1384\t\t\t\n      JUMPI \t\t\t\n      PUSH 0\t\t\t\n      PUSH 0\t\t\t\n      REVERT \t\t\t\n    tag 1384\t\t\t\n      JUMPDEST \t\t\t\n      SWAP2 \t\t\t\n      SWAP1 \t\t\t\n      SWAP2 \t\t\t\n      ADD \t\t\t\n      SWAP3 \t\t\t\n      SWAP2 \t\t\t\n      POP \t\t\t\n      POP \t\t\t\n      JUMP \t\t\t\n    tag 874\t\t\t\n      JUMPDEST \t\t\t\n      PUSH 0\t\t\t\n      PUSH 20\t\t\t\n      DUP3 \t\t\t\n      DUP5 \t\t\t\n      SUB \t\t\t\n      SLT \t\t\t\n      ISZERO \t\t\t\n      PUSH [tag] 1386\t\t\t\n      JUMPI \t\t\t\n      PUSH 0\t\t\t\n      PUSH 0\t\t\t\n      REVERT \t\t\t\n    tag 1386\t\t\t\n      JUMPDEST \t\t\t\n      PUSH [tag] 214\t\t\t\n      DUP3 \t\t\t\n      PUSH [tag] 1139\t\t\t\n      JUMP \t\t\t\n    tag 929\t\t\t\n      JUMPDEST \t\t\t\n      PUSH 0\t\t\t\n      DUP2 \t\t\t\n      PUSH [tag] 1390\t\t\t\n      JUMPI \t\t\t\n      PUSH [tag] 1390\t\t\t\n      PUSH [tag] 1153\t\t\t\n      JUMP \t\t\t\n    tag 1390\t\t\t\n      JUMPDEST \t\t\t\n      POP \t\t\t\n      PUSH 0\t\t\t\n      NOT \t\t\t\n      ADD \t\t\t\n      SWAP1 \t\t\t\n      JUMP \t\t\t\n    tag 937\t\t\t\n      JUMPDEST \t\t\t\n      DUP4 \t\t\t\n      DUP2 \t\t\t\n      MSTORE \t\t\t\n      DUP3 \t\t\t\n      PUSH 20\t\t\t\n      DUP3 \t\t\t\n      ADD \t\t\t\n      MSTORE \t\t\t\n      PUSH 0\t\t\t\n      PUSH [tag] 211\t\t\t\n      PUSH 40\t\t\t\n      DUP4 \t\t\t\n      ADD \t\t\t\n      DUP5 \t\t\t\n      PUSH [tag] 1151\t\t\t\n      JUMP \t\t\t\n    tag 942\t\t\t\n      JUMPDEST \t\t\t\n      PUSH 0\t\t\t\n      PUSH 0\t\t\t\n      PUSH 40\t\t\t\n      DUP4 \t\t\t\n      DUP6 \t\t\t\n      SUB \t\t\t\n      SLT \t\t\t\n      ISZERO \t\t\t\n      PUSH [tag] 1394\t\t\t\n      JUMPI \t\t\t\n      PUSH 0\t\t\t\n      PUSH 0\t\t\t\n      REVERT \t\t\t\n    tag 1394\t\t\t\n      JUMPDEST \t\t\t\n      DUP3 \t\t\t\n      CALLDATALOAD \t\t\t\n      PUSH 1\t\t\t\n      PUSH 1\t\t\t\n      PUSH 40\t\t\t\n      SHL \t\t\t\n      SUB \t\t\t\n      DUP2 \t\t\t\n      GT \t\t\t\n      ISZERO \t\t\t\n      PUSH [tag] 1395\t\t\t\n      JUMPI \t\t\t\n      PUSH 0\t\t\t\n      PUSH 0\t\t\t\n      REVERT \t\t\t\n    tag 1395\t\t\t\n      JUMPDEST \t\t\t\n      PUSH [tag] 1396\t\t\t\n      DUP6 \t\t\t\n      DUP3 \t\t\t\n      DUP7 \t\t\t\n      ADD \t\t\t\n      PUSH [tag] 1146\t\t\t\n      JUMP \t\t\t\n    tag 1396\t\t\t\n      JUMPDEST \t\t\t\n      SWAP3 \t\t\t\n      POP \t\t\t\n      POP \t\t\t\n      PUSH 20\t\t\t\n      DUP4 \t\t\t\n      ADD \t\t\t\n      CALLDATALOAD \t\t\t\n      PUSH 1\t\t\t\n      PUSH 1\t\t\t\n      PUSH 40\t\t\t\n      SHL \t\t\t\n      SUB \t\t\t\n      DUP2 \t\t\t\n      GT \t\t\t\n      ISZERO \t\t\t\n      PUSH [tag] 1397\t\t\t\n      JUMPI \t\t\t\n      PUSH 0\t\t\t\n      PUSH 0\t\t\t\n      REVERT \t\t\t\n    tag 1397\t\t\t\n      JUMPDEST \t\t\t\n      PUSH [tag] 1398\t\t\t\n      DUP6 \t\t\t\n      DUP3 \t\t\t\n      DUP7 \t\t\t\n      ADD \t\t\t\n      PUSH [tag] 1146\t\t\t\n      JUMP \t\t\t\n    tag 1398\t\t\t\n      JUMPDEST \t\t\t\n      SWAP2 \t\t\t\n      POP \t\t\t\n      POP \t\t\t\n      SWAP3 \t\t\t\n      POP \t\t\t\n      SWAP3 \t\t\t\n      SWAP1 \t\t\t\n      POP \t\t\t\n      JUMP \t\t\t\n    tag 989\t\t\t\n      JUMPDEST \t\t\t\n      DUP2 \t\t\t\n      DUP4 \t\t\t\n      DUP3 \t\t\t\n      CALLDATACOPY \t\t\t\n      PUSH 0\t\t\t\n      SWAP2 \t\t\t\n      ADD \t\t\t\n      SWAP1 \t\t\t\n      DUP2 \t\t\t\n      MSTORE \t\t\t\n      SWAP2 \t\t\t\n      SWAP1 \t\t\t\n      POP \t\t\t\n      JUMP \t\t\t\n    tag 1022\t\t\t\n      JUMPDEST \t\t\t\n      PUSH A8F2E0CAC888C2E8C2A6D2CEDC5\t\t\t\n      PUSH 93\t\t\t\n      SHL \t\t\t\n      DUP2 \t\t\t\n      MSTORE \t\t\t\n      DUP4 \t\t\t\n      DUP6 \t\t\t\n      PUSH E\t\t\t\n      DUP4 \t\t\t\n      ADD \t\t\t\n      CALLDATACOPY \t\t\t\n      PUSH 0\t\t\t\n      DUP5 \t\t\t\n      DUP3 \t\t\t\n      ADD \t\t\t\n      PUSH 20636F6E74656E74732C737472696E67206E616D652C737472696E6720766572\t\t\t\n      PUSH E\t\t\t\n      DUP3 \t\t\t\n      ADD \t\t\t\n      MSTORE \t\t\t\n      PUSH 73696F6E2C75696E7432353620636861696E49642C6164647265737320766572\t\t\t\n      PUSH 2E\t\t\t\n      DUP3 \t\t\t\n      ADD \t\t\t\n      MSTORE \t\t\t\n      PUSH 696679696E67436F6E74726163742C627974657333322073616C742900000000\t\t\t\n      PUSH 4E\t\t\t\n      DUP3 \t\t\t\n      ADD \t\t\t\n      MSTORE \t\t\t\n      DUP4 \t\t\t\n      DUP6 \t\t\t\n      PUSH 6A\t\t\t\n      DUP4 \t\t\t\n      ADD \t\t\t\n      CALLDATACOPY \t\t\t\n      PUSH 0\t\t\t\n      SWAP4 \t\t\t\n      ADD \t\t\t\n      PUSH 6A\t\t\t\n      ADD \t\t\t\n      SWAP3 \t\t\t\n      DUP4 \t\t\t\n      MSTORE \t\t\t\n      POP \t\t\t\n      SWAP1 \t\t\t\n      SWAP5 \t\t\t\n      SWAP4 \t\t\t\n      POP \t\t\t\n      POP \t\t\t\n      POP \t\t\t\n      POP \t\t\t\n      JUMP \t\t\t\n    tag 1052\t\t\t\n      JUMPDEST \t\t\t\n      DUP3 \t\t\t\n      DUP2 \t\t\t\n      MSTORE \t\t\t\n      PUSH 40\t\t\t\n      PUSH 20\t\t\t\n      DUP3 \t\t\t\n      ADD \t\t\t\n      MSTORE \t\t\t\n      PUSH 0\t\t\t\n      PUSH [tag] 207\t\t\t\n      PUSH 40\t\t\t\n      DUP4 \t\t\t\n      ADD \t\t\t\n      DUP5 \t\t\t\n      PUSH [tag] 1148\t\t\t\n      JUMP \t\t\t\n    tag 1089\t\t\t\n      JUMPDEST \t\t\t\n      DUP1 \t\t\t\n      MLOAD \t\t\t\n      PUSH 20\t\t\t\n      DUP3 \t\t\t\n      ADD \t\t\t\n      MLOAD \t\t\t\n      PUSH 1\t\t\t\n      PUSH 1\t\t\t\n      PUSH 60\t\t\t\n      SHL \t\t\t\n      SUB \t\t\t\n      NOT \t\t\t\n      DUP2 \t\t\t\n      AND \t\t\t\n      SWAP2 \t\t\t\n      SWAP1 \t\t\t\n      PUSH 14\t\t\t\n      DUP3 \t\t\t\n      LT \t\t\t\n      ISZERO \t\t\t\n      PUSH [tag] 1382\t\t\t\n      JUMPI \t\t\t\n      PUSH 1\t\t\t\n      PUSH 1\t\t\t\n      PUSH 60\t\t\t\n      SHL \t\t\t\n      SUB \t\t\t\n      NOT \t\t\t\n      PUSH 14\t\t\t\n      SWAP3 \t\t\t\n      SWAP1 \t\t\t\n      SWAP3 \t\t\t\n      SUB \t\t\t\n      PUSH 3\t\t\t\n      SHL \t\t\t\n      DUP3 \t\t\t\n      SWAP1 \t\t\t\n      SHL \t\t\t\n      AND \t\t\t\n      AND \t\t\t\n      SWAP3 \t\t\t\n      SWAP2 \t\t\t\n      POP \t\t\t\n      POP \t\t\t\n      JUMP \t\t\t\n    tag 1095\t\t\t\n      JUMPDEST \t\t\t\n      PUSH 60\t\t\t\n      DUP2 \t\t\t\n      MSTORE \t\t\t\n      PUSH 0\t\t\t\n      PUSH [tag] 1408\t\t\t\n      PUSH 60\t\t\t\n      DUP4 \t\t\t\n      ADD \t\t\t\n      DUP7 \t\t\t\n      PUSH [tag] 1148\t\t\t\n      JUMP \t\t\t\n    tag 1408\t\t\t\n      JUMPDEST \t\t\t\n      DUP5 \t\t\t\n      PUSH 20\t\t\t\n      DUP5 \t\t\t\n      ADD \t\t\t\n      MSTORE \t\t\t\n      DUP3 \t\t\t\n      DUP2 \t\t\t\n      SUB \t\t\t\n      PUSH 40\t\t\t\n      DUP5 \t\t\t\n      ADD \t\t\t\n      MSTORE \t\t\t\n      PUSH [tag] 625\t\t\t\n      DUP2 \t\t\t\n      DUP6 \t\t\t\n      PUSH [tag] 1148\t\t\t\n      JUMP \t\t\t\n    tag 1111\t\t\t\n      JUMPDEST \t\t\t\n      PUSH 4E487B71\t\t\t\n      PUSH E0\t\t\t\n      SHL \t\t\t\n      PUSH 0\t\t\t\n      MSTORE \t\t\t\n      PUSH 21\t\t\t\n      PUSH 4\t\t\t\n      MSTORE \t\t\t\n      PUSH 24\t\t\t\n      PUSH 0\t\t\t\n      REVERT \t\t\t\n    .data\n      958E26256C862D92BEDA161BA143A3BDE69BABAD11E74B0A093F1D1D5E7F832F:\n        406f70656e7a657070656c696e2f636f6e7472616374732e4163636f756e7445524337353739486f6f6b65642e76312e302e30\n      FEF1334C9451DD1D4AD00D59BA95327D46027DCD97A396119DABEB776AFE9DEE:\n        dfe169305a533e288e0557da8d289146d3cc75fa6e04c87599b048a60a4e5600\n"
}