{
	"compilerInput": "{\"language\":\"Solidity\",\"sources\":{\"WalletPortfolio.sol\":{\"content\":\"// SPDX-License-Identifier: MIT\\npragma solidity ^0.8.0;\\n\\ncontract WalletPortfolio {\\n    address public owner;\\n    string public ethAddress = \\\"0x5e8bade6e0bce65807db6327cb1d9eeb7c6a6a5b\\\";\\n\\n    struct Asset {\\n        string name;\\n        string addressOrId;\\n        uint256 amount;\\n    }\\n\\n    mapping(string => Asset) public assets;\\n\\n    constructor() {\\n        owner = msg.sender;\\n        // Inisialisasi data aset\\n        assets[\\\"WBTC\\\"] = Asset(\\\"WBTC\\\", \\\"0x55Cc56b92b7fa0de7CDa22d263532F2910b9b17B\\\", 200);\\n        assets[\\\"PEPE\\\"] = Asset(\\\"PEPE\\\", \\\"0xBCf75f81D7A74cf18a41C267443F0fF3E1A9A671\\\", 10000);\\n        assets[\\\"USDT\\\"] = Asset(\\\"USDT\\\", \\\"0xc8648a893357e9893669036Be58aFE71B8140eD6\\\", 100);\\n    }\\n}\\n\"}},\"settings\":{\"optimizer\":{\"enabled\":true,\"runs\":200},\"outputSelection\":{\"*\":{\"\":[\"ast\"],\"*\":[\"abi\",\"metadata\",\"devdoc\",\"userdoc\",\"storageLayout\",\"evm.legacyAssembly\",\"evm.bytecode\",\"evm.deployedBytecode\",\"evm.methodIdentifiers\",\"evm.gasEstimates\",\"evm.assembly\"]}},\"remappings\":[]}}",
	"name": "WalletPortfolio",
	"bytecode": {
		"linkReferences": {},
		"object": "60e0604052602a60808181529061085c60a03960019061001f90826102ca565b5034801561002b575f5ffd5b505f80546001600160a01b031916331790556040805160a08101825260046060808301918252635742544360e01b60808401529082528251908101909252602a80835290916020808401929061083290830139815260c8602090910152604051635742544360e01b8152600290600401908152604051908190036020019020815181906100b890826102ca565b50602082015160018201906100cd90826102ca565b50604082015181600201559050506040518060600160405280604051806040016040528060048152602001635045504560e01b81525081526020016040518060600160405280602a81526020016107de602a91398152612710602090910152604051635045504560e01b81526002906004019081526040519081900360200190208151819061015c90826102ca565b506020820151600182019061017190826102ca565b50604082015181600201559050506040518060600160405280604051806040016040528060048152602001631554d11560e21b81525081526020016040518060600160405280602a8152602001610808602a913981526064602090910152604051631554d11560e21b8152600290600401908152604051908190036020019020815181906101ff90826102ca565b506020820151600182019061021490826102ca565b5060408201518160020155905050610388565b634e487b7160e01b5f52604160045260245ffd5b600181811c9082168061024f57607f821691505b60208210810361026d57634e487b7160e01b5f52602260045260245ffd5b50919050565b601f8211156102c557828211156102c557805f5260205f20601f840160051c602085101561029e57505f5b90810190601f840160051c035f5b818110156102c1575f838201556001016102ac565b5050505b505050565b81516001600160401b038111156102e3576102e3610227565b6102f7816102f1845461023b565b84610273565b6020601f821160018114610329575f83156103125750848201515b5f19600385901b1c1916600184901b178455610381565b5f84815260208120601f198516915b828110156103585787850151825560209485019460019092019101610338565b508482101561037557868401515f19600387901b60f8161c191681555b505060018360011b0184555b5050505050565b610449806103955f395ff3fe608060405234801561000f575f5ffd5b506004361061003f575f3560e01c806341398b151461004357806385936228146100615780638da5cb5b14610083575b5f5ffd5b61004b6100ad565b60405161005891906102a0565b60405180910390f35b61007461006f3660046102cd565b610139565b60405161005893929190610380565b5f54610095906001600160a01b031681565b6040516001600160a01b039091168152602001610058565b600180546100ba906103b5565b80601f01602080910402602001604051908101604052809291908181526020018280546100e6906103b5565b80156101315780601f1061010857610100808354040283529160200191610131565b820191905f5260205f20905b81548152906001019060200180831161011457829003601f168201915b505050505081565b805160208183018101805160028252928201919093012091528054819061015f906103b5565b80601f016020809104026020016040519081016040528092919081815260200182805461018b906103b5565b80156101d65780601f106101ad576101008083540402835291602001916101d6565b820191905f5260205f20905b8154815290600101906020018083116101b957829003601f168201915b5050505050908060010180546101eb906103b5565b80601f0160208091040260200160405190810160405280929190818152602001828054610217906103b5565b80156102625780601f1061023957610100808354040283529160200191610262565b820191905f5260205f20905b81548152906001019060200180831161024557829003601f168201915b5050505050908060020154905083565b5f81518084528060208401602086015e5f602082860101526020601f19601f83011685010191505092915050565b602081525f6102b26020830184610272565b9392505050565b634e487b7160e01b5f52604160045260245ffd5b5f602082840312156102dd575f5ffd5b813567ffffffffffffffff8111156102f3575f5ffd5b8201601f81018413610303575f5ffd5b803567ffffffffffffffff81111561031d5761031d6102b9565b604051601f8201601f19908116603f0116810167ffffffffffffffff8111828210171561034c5761034c6102b9565b604052818152828201602001861015610363575f5ffd5b816020840160208301375f91810160200191909152949350505050565b606081525f6103926060830186610272565b82810360208401526103a48186610272565b915050826040830152949350505050565b600181811c908216806103c957607f821691505b6020821081036103e757634e487b7160e01b5f52602260045260245ffd5b5091905056fea2646970667358221220f312b8457f4ae68f03d7e59fbf89fa39b07c5a75ecf014f4289ed3342d9419be64736f6c637828302e382e33362d6e696768746c792e323032362e352e31392b636f6d6d69742e33646232643065650059307842436637356638314437413734636631386134314332363734343346306646334531413941363731307863383634386138393333353765393839333636393033364265353861464537314238313430654436307835354363353662393262376661306465374344613232643236333533324632393130623962313742307835653862616465366530626365363538303764623633323763623164396565623763366136613562",
		"opcodes": "PUSH1 0xE0 PUSH1 0x40 MSTORE PUSH1 0x2A PUSH1 0x80 DUP2 DUP2 MSTORE SWAP1 PUSH2 0x85C PUSH1 0xA0 CODECOPY PUSH1 0x1 SWAP1 PUSH2 0x1F SWAP1 DUP3 PUSH2 0x2CA JUMP JUMPDEST POP CALLVALUE DUP1 ISZERO PUSH2 0x2B JUMPI PUSH0 PUSH0 REVERT JUMPDEST POP PUSH0 DUP1 SLOAD PUSH1 0x1 PUSH1 0x1 PUSH1 0xA0 SHL SUB NOT AND CALLER OR SWAP1 SSTORE PUSH1 0x40 DUP1 MLOAD PUSH1 0xA0 DUP2 ADD DUP3 MSTORE PUSH1 0x4 PUSH1 0x60 DUP1 DUP4 ADD SWAP2 DUP3 MSTORE PUSH4 0x57425443 PUSH1 0xE0 SHL PUSH1 0x80 DUP5 ADD MSTORE SWAP1 DUP3 MSTORE DUP3 MLOAD SWAP1 DUP2 ADD SWAP1 SWAP3 MSTORE PUSH1 0x2A DUP1 DUP4 MSTORE SWAP1 SWAP2 PUSH1 0x20 DUP1 DUP5 ADD SWAP3 SWAP1 PUSH2 0x832 SWAP1 DUP4 ADD CODECOPY DUP2 MSTORE PUSH1 0xC8 PUSH1 0x20 SWAP1 SWAP2 ADD MSTORE PUSH1 0x40 MLOAD PUSH4 0x57425443 PUSH1 0xE0 SHL DUP2 MSTORE PUSH1 0x2 SWAP1 PUSH1 0x4 ADD SWAP1 DUP2 MSTORE PUSH1 0x40 MLOAD SWAP1 DUP2 SWAP1 SUB PUSH1 0x20 ADD SWAP1 KECCAK256 DUP2 MLOAD DUP2 SWAP1 PUSH2 0xB8 SWAP1 DUP3 PUSH2 0x2CA JUMP JUMPDEST POP PUSH1 0x20 DUP3 ADD MLOAD PUSH1 0x1 DUP3 ADD SWAP1 PUSH2 0xCD SWAP1 DUP3 PUSH2 0x2CA JUMP JUMPDEST POP PUSH1 0x40 DUP3 ADD MLOAD DUP2 PUSH1 0x2 ADD SSTORE SWAP1 POP POP PUSH1 0x40 MLOAD DUP1 PUSH1 0x60 ADD PUSH1 0x40 MSTORE DUP1 PUSH1 0x40 MLOAD DUP1 PUSH1 0x40 ADD PUSH1 0x40 MSTORE DUP1 PUSH1 0x4 DUP2 MSTORE PUSH1 0x20 ADD PUSH4 0x50455045 PUSH1 0xE0 SHL DUP2 MSTORE POP DUP2 MSTORE PUSH1 0x20 ADD PUSH1 0x40 MLOAD DUP1 PUSH1 0x60 ADD PUSH1 0x40 MSTORE DUP1 PUSH1 0x2A DUP2 MSTORE PUSH1 0x20 ADD PUSH2 0x7DE PUSH1 0x2A SWAP2 CODECOPY DUP2 MSTORE PUSH2 0x2710 PUSH1 0x20 SWAP1 SWAP2 ADD MSTORE PUSH1 0x40 MLOAD PUSH4 0x50455045 PUSH1 0xE0 SHL DUP2 MSTORE PUSH1 0x2 SWAP1 PUSH1 0x4 ADD SWAP1 DUP2 MSTORE PUSH1 0x40 MLOAD SWAP1 DUP2 SWAP1 SUB PUSH1 0x20 ADD SWAP1 KECCAK256 DUP2 MLOAD DUP2 SWAP1 PUSH2 0x15C SWAP1 DUP3 PUSH2 0x2CA JUMP JUMPDEST POP PUSH1 0x20 DUP3 ADD MLOAD PUSH1 0x1 DUP3 ADD SWAP1 PUSH2 0x171 SWAP1 DUP3 PUSH2 0x2CA JUMP JUMPDEST POP PUSH1 0x40 DUP3 ADD MLOAD DUP2 PUSH1 0x2 ADD SSTORE SWAP1 POP POP PUSH1 0x40 MLOAD DUP1 PUSH1 0x60 ADD PUSH1 0x40 MSTORE DUP1 PUSH1 0x40 MLOAD DUP1 PUSH1 0x40 ADD PUSH1 0x40 MSTORE DUP1 PUSH1 0x4 DUP2 MSTORE PUSH1 0x20 ADD PUSH4 0x1554D115 PUSH1 0xE2 SHL DUP2 MSTORE POP DUP2 MSTORE PUSH1 0x20 ADD PUSH1 0x40 MLOAD DUP1 PUSH1 0x60 ADD PUSH1 0x40 MSTORE DUP1 PUSH1 0x2A DUP2 MSTORE PUSH1 0x20 ADD PUSH2 0x808 PUSH1 0x2A SWAP2 CODECOPY DUP2 MSTORE PUSH1 0x64 PUSH1 0x20 SWAP1 SWAP2 ADD MSTORE PUSH1 0x40 MLOAD PUSH4 0x1554D115 PUSH1 0xE2 SHL DUP2 MSTORE PUSH1 0x2 SWAP1 PUSH1 0x4 ADD SWAP1 DUP2 MSTORE PUSH1 0x40 MLOAD SWAP1 DUP2 SWAP1 SUB PUSH1 0x20 ADD SWAP1 KECCAK256 DUP2 MLOAD DUP2 SWAP1 PUSH2 0x1FF SWAP1 DUP3 PUSH2 0x2CA JUMP JUMPDEST POP PUSH1 0x20 DUP3 ADD MLOAD PUSH1 0x1 DUP3 ADD SWAP1 PUSH2 0x214 SWAP1 DUP3 PUSH2 0x2CA JUMP JUMPDEST POP PUSH1 0x40 DUP3 ADD MLOAD DUP2 PUSH1 0x2 ADD SSTORE SWAP1 POP POP PUSH2 0x388 JUMP JUMPDEST PUSH4 0x4E487B71 PUSH1 0xE0 SHL PUSH0 MSTORE PUSH1 0x41 PUSH1 0x4 MSTORE PUSH1 0x24 PUSH0 REVERT JUMPDEST PUSH1 0x1 DUP2 DUP2 SHR SWAP1 DUP3 AND DUP1 PUSH2 0x24F JUMPI PUSH1 0x7F DUP3 AND SWAP2 POP JUMPDEST PUSH1 0x20 DUP3 LT DUP2 SUB PUSH2 0x26D JUMPI PUSH4 0x4E487B71 PUSH1 0xE0 SHL PUSH0 MSTORE PUSH1 0x22 PUSH1 0x4 MSTORE PUSH1 0x24 PUSH0 REVERT JUMPDEST POP SWAP2 SWAP1 POP JUMP JUMPDEST PUSH1 0x1F DUP3 GT ISZERO PUSH2 0x2C5 JUMPI DUP3 DUP3 GT ISZERO PUSH2 0x2C5 JUMPI DUP1 PUSH0 MSTORE PUSH1 0x20 PUSH0 KECCAK256 PUSH1 0x1F DUP5 ADD PUSH1 0x5 SHR PUSH1 0x20 DUP6 LT ISZERO PUSH2 0x29E JUMPI POP PUSH0 JUMPDEST SWAP1 DUP2 ADD SWAP1 PUSH1 0x1F DUP5 ADD PUSH1 0x5 SHR SUB PUSH0 JUMPDEST DUP2 DUP2 LT ISZERO PUSH2 0x2C1 JUMPI PUSH0 DUP4 DUP3 ADD SSTORE PUSH1 0x1 ADD PUSH2 0x2AC JUMP JUMPDEST POP POP POP JUMPDEST POP POP POP JUMP JUMPDEST DUP2 MLOAD PUSH1 0x1 PUSH1 0x1 PUSH1 0x40 SHL SUB DUP2 GT ISZERO PUSH2 0x2E3 JUMPI PUSH2 0x2E3 PUSH2 0x227 JUMP JUMPDEST PUSH2 0x2F7 DUP2 PUSH2 0x2F1 DUP5 SLOAD PUSH2 0x23B JUMP JUMPDEST DUP5 PUSH2 0x273 JUMP JUMPDEST PUSH1 0x20 PUSH1 0x1F DUP3 GT PUSH1 0x1 DUP2 EQ PUSH2 0x329 JUMPI PUSH0 DUP4 ISZERO PUSH2 0x312 JUMPI POP DUP5 DUP3 ADD MLOAD JUMPDEST PUSH0 NOT PUSH1 0x3 DUP6 SWAP1 SHL SHR NOT AND PUSH1 0x1 DUP5 SWAP1 SHL OR DUP5 SSTORE PUSH2 0x381 JUMP JUMPDEST PUSH0 DUP5 DUP2 MSTORE PUSH1 0x20 DUP2 KECCAK256 PUSH1 0x1F NOT DUP6 AND SWAP2 JUMPDEST DUP3 DUP2 LT ISZERO PUSH2 0x358 JUMPI DUP8 DUP6 ADD MLOAD DUP3 SSTORE PUSH1 0x20 SWAP5 DUP6 ADD SWAP5 PUSH1 0x1 SWAP1 SWAP3 ADD SWAP2 ADD PUSH2 0x338 JUMP JUMPDEST POP DUP5 DUP3 LT ISZERO PUSH2 0x375 JUMPI DUP7 DUP5 ADD MLOAD PUSH0 NOT PUSH1 0x3 DUP8 SWAP1 SHL PUSH1 0xF8 AND SHR NOT AND DUP2 SSTORE JUMPDEST POP POP PUSH1 0x1 DUP4 PUSH1 0x1 SHL ADD DUP5 SSTORE JUMPDEST POP POP POP POP POP JUMP JUMPDEST PUSH2 0x449 DUP1 PUSH2 0x395 PUSH0 CODECOPY PUSH0 RETURN INVALID PUSH1 0x80 PUSH1 0x40 MSTORE CALLVALUE DUP1 ISZERO PUSH2 0xF JUMPI PUSH0 PUSH0 REVERT JUMPDEST POP PUSH1 0x4 CALLDATASIZE LT PUSH2 0x3F JUMPI PUSH0 CALLDATALOAD PUSH1 0xE0 SHR DUP1 PUSH4 0x41398B15 EQ PUSH2 0x43 JUMPI DUP1 PUSH4 0x85936228 EQ PUSH2 0x61 JUMPI DUP1 PUSH4 0x8DA5CB5B EQ PUSH2 0x83 JUMPI JUMPDEST PUSH0 PUSH0 REVERT JUMPDEST PUSH2 0x4B PUSH2 0xAD JUMP JUMPDEST PUSH1 0x40 MLOAD PUSH2 0x58 SWAP2 SWAP1 PUSH2 0x2A0 JUMP JUMPDEST PUSH1 0x40 MLOAD DUP1 SWAP2 SUB SWAP1 RETURN JUMPDEST PUSH2 0x74 PUSH2 0x6F CALLDATASIZE PUSH1 0x4 PUSH2 0x2CD JUMP JUMPDEST PUSH2 0x139 JUMP JUMPDEST PUSH1 0x40 MLOAD PUSH2 0x58 SWAP4 SWAP3 SWAP2 SWAP1 PUSH2 0x380 JUMP JUMPDEST PUSH0 SLOAD PUSH2 0x95 SWAP1 PUSH1 0x1 PUSH1 0x1 PUSH1 0xA0 SHL SUB AND DUP2 JUMP JUMPDEST PUSH1 0x40 MLOAD PUSH1 0x1 PUSH1 0x1 PUSH1 0xA0 SHL SUB SWAP1 SWAP2 AND DUP2 MSTORE PUSH1 0x20 ADD PUSH2 0x58 JUMP JUMPDEST PUSH1 0x1 DUP1 SLOAD PUSH2 0xBA SWAP1 PUSH2 0x3B5 JUMP JUMPDEST DUP1 PUSH1 0x1F ADD PUSH1 0x20 DUP1 SWAP2 DIV MUL PUSH1 0x20 ADD PUSH1 0x40 MLOAD SWAP1 DUP2 ADD PUSH1 0x40 MSTORE DUP1 SWAP3 SWAP2 SWAP1 DUP2 DUP2 MSTORE PUSH1 0x20 ADD DUP3 DUP1 SLOAD PUSH2 0xE6 SWAP1 PUSH2 0x3B5 JUMP JUMPDEST DUP1 ISZERO PUSH2 0x131 JUMPI DUP1 PUSH1 0x1F LT PUSH2 0x108 JUMPI PUSH2 0x100 DUP1 DUP4 SLOAD DIV MUL DUP4 MSTORE SWAP2 PUSH1 0x20 ADD SWAP2 PUSH2 0x131 JUMP JUMPDEST DUP3 ADD SWAP2 SWAP1 PUSH0 MSTORE PUSH1 0x20 PUSH0 KECCAK256 SWAP1 JUMPDEST DUP2 SLOAD DUP2 MSTORE SWAP1 PUSH1 0x1 ADD SWAP1 PUSH1 0x20 ADD DUP1 DUP4 GT PUSH2 0x114 JUMPI DUP3 SWAP1 SUB PUSH1 0x1F AND DUP3 ADD SWAP2 JUMPDEST POP POP POP POP POP DUP2 JUMP JUMPDEST DUP1 MLOAD PUSH1 0x20 DUP2 DUP4 ADD DUP2 ADD DUP1 MLOAD PUSH1 0x2 DUP3 MSTORE SWAP3 DUP3 ADD SWAP2 SWAP1 SWAP4 ADD KECCAK256 SWAP2 MSTORE DUP1 SLOAD DUP2 SWAP1 PUSH2 0x15F SWAP1 PUSH2 0x3B5 JUMP JUMPDEST DUP1 PUSH1 0x1F ADD PUSH1 0x20 DUP1 SWAP2 DIV MUL PUSH1 0x20 ADD PUSH1 0x40 MLOAD SWAP1 DUP2 ADD PUSH1 0x40 MSTORE DUP1 SWAP3 SWAP2 SWAP1 DUP2 DUP2 MSTORE PUSH1 0x20 ADD DUP3 DUP1 SLOAD PUSH2 0x18B SWAP1 PUSH2 0x3B5 JUMP JUMPDEST DUP1 ISZERO PUSH2 0x1D6 JUMPI DUP1 PUSH1 0x1F LT PUSH2 0x1AD JUMPI PUSH2 0x100 DUP1 DUP4 SLOAD DIV MUL DUP4 MSTORE SWAP2 PUSH1 0x20 ADD SWAP2 PUSH2 0x1D6 JUMP JUMPDEST DUP3 ADD SWAP2 SWAP1 PUSH0 MSTORE PUSH1 0x20 PUSH0 KECCAK256 SWAP1 JUMPDEST DUP2 SLOAD DUP2 MSTORE SWAP1 PUSH1 0x1 ADD SWAP1 PUSH1 0x20 ADD DUP1 DUP4 GT PUSH2 0x1B9 JUMPI DUP3 SWAP1 SUB PUSH1 0x1F AND DUP3 ADD SWAP2 JUMPDEST POP POP POP POP POP SWAP1 DUP1 PUSH1 0x1 ADD DUP1 SLOAD PUSH2 0x1EB SWAP1 PUSH2 0x3B5 JUMP JUMPDEST DUP1 PUSH1 0x1F ADD PUSH1 0x20 DUP1 SWAP2 DIV MUL PUSH1 0x20 ADD PUSH1 0x40 MLOAD SWAP1 DUP2 ADD PUSH1 0x40 MSTORE DUP1 SWAP3 SWAP2 SWAP1 DUP2 DUP2 MSTORE PUSH1 0x20 ADD DUP3 DUP1 SLOAD PUSH2 0x217 SWAP1 PUSH2 0x3B5 JUMP JUMPDEST DUP1 ISZERO PUSH2 0x262 JUMPI DUP1 PUSH1 0x1F LT PUSH2 0x239 JUMPI PUSH2 0x100 DUP1 DUP4 SLOAD DIV MUL DUP4 MSTORE SWAP2 PUSH1 0x20 ADD SWAP2 PUSH2 0x262 JUMP JUMPDEST DUP3 ADD SWAP2 SWAP1 PUSH0 MSTORE PUSH1 0x20 PUSH0 KECCAK256 SWAP1 JUMPDEST DUP2 SLOAD DUP2 MSTORE SWAP1 PUSH1 0x1 ADD SWAP1 PUSH1 0x20 ADD DUP1 DUP4 GT PUSH2 0x245 JUMPI DUP3 SWAP1 SUB PUSH1 0x1F AND DUP3 ADD SWAP2 JUMPDEST POP POP POP POP POP SWAP1 DUP1 PUSH1 0x2 ADD SLOAD SWAP1 POP DUP4 JUMP JUMPDEST PUSH0 DUP2 MLOAD DUP1 DUP5 MSTORE DUP1 PUSH1 0x20 DUP5 ADD PUSH1 0x20 DUP7 ADD MCOPY PUSH0 PUSH1 0x20 DUP3 DUP7 ADD ADD MSTORE PUSH1 0x20 PUSH1 0x1F NOT PUSH1 0x1F DUP4 ADD AND DUP6 ADD ADD SWAP2 POP POP SWAP3 SWAP2 POP POP JUMP JUMPDEST PUSH1 0x20 DUP2 MSTORE PUSH0 PUSH2 0x2B2 PUSH1 0x20 DUP4 ADD DUP5 PUSH2 0x272 JUMP JUMPDEST SWAP4 SWAP3 POP POP POP JUMP JUMPDEST PUSH4 0x4E487B71 PUSH1 0xE0 SHL PUSH0 MSTORE PUSH1 0x41 PUSH1 0x4 MSTORE PUSH1 0x24 PUSH0 REVERT JUMPDEST PUSH0 PUSH1 0x20 DUP3 DUP5 SUB SLT ISZERO PUSH2 0x2DD JUMPI PUSH0 PUSH0 REVERT JUMPDEST DUP2 CALLDATALOAD PUSH8 0xFFFFFFFFFFFFFFFF DUP2 GT ISZERO PUSH2 0x2F3 JUMPI PUSH0 PUSH0 REVERT JUMPDEST DUP3 ADD PUSH1 0x1F DUP2 ADD DUP5 SGT PUSH2 0x303 JUMPI PUSH0 PUSH0 REVERT JUMPDEST DUP1 CALLDATALOAD PUSH8 0xFFFFFFFFFFFFFFFF DUP2 GT ISZERO PUSH2 0x31D JUMPI PUSH2 0x31D PUSH2 0x2B9 JUMP JUMPDEST PUSH1 0x40 MLOAD PUSH1 0x1F DUP3 ADD PUSH1 0x1F NOT SWAP1 DUP2 AND PUSH1 0x3F ADD AND DUP2 ADD PUSH8 0xFFFFFFFFFFFFFFFF DUP2 GT DUP3 DUP3 LT OR ISZERO PUSH2 0x34C JUMPI PUSH2 0x34C PUSH2 0x2B9 JUMP JUMPDEST PUSH1 0x40 MSTORE DUP2 DUP2 MSTORE DUP3 DUP3 ADD PUSH1 0x20 ADD DUP7 LT ISZERO PUSH2 0x363 JUMPI PUSH0 PUSH0 REVERT JUMPDEST DUP2 PUSH1 0x20 DUP5 ADD PUSH1 0x20 DUP4 ADD CALLDATACOPY PUSH0 SWAP2 DUP2 ADD PUSH1 0x20 ADD SWAP2 SWAP1 SWAP2 MSTORE SWAP5 SWAP4 POP POP POP POP JUMP JUMPDEST PUSH1 0x60 DUP2 MSTORE PUSH0 PUSH2 0x392 PUSH1 0x60 DUP4 ADD DUP7 PUSH2 0x272 JUMP JUMPDEST DUP3 DUP2 SUB PUSH1 0x20 DUP5 ADD MSTORE PUSH2 0x3A4 DUP2 DUP7 PUSH2 0x272 JUMP JUMPDEST SWAP2 POP POP DUP3 PUSH1 0x40 DUP4 ADD MSTORE SWAP5 SWAP4 POP POP POP POP JUMP JUMPDEST PUSH1 0x1 DUP2 DUP2 SHR SWAP1 DUP3 AND DUP1 PUSH2 0x3C9 JUMPI PUSH1 0x7F DUP3 AND SWAP2 POP JUMPDEST PUSH1 0x20 DUP3 LT DUP2 SUB PUSH2 0x3E7 JUMPI PUSH4 0x4E487B71 PUSH1 0xE0 SHL PUSH0 MSTORE PUSH1 0x22 PUSH1 0x4 MSTORE PUSH1 0x24 PUSH0 REVERT JUMPDEST POP SWAP2 SWAP1 POP JUMP INVALID LOG2 PUSH5 0x6970667358 0x22 SLT KECCAK256 RETURN SLT 0xB8 GASLIMIT PUSH32 0x4AE68F03D7E59FBF89FA39B07C5A75ECF014F4289ED3342D9419BE64736F6C63 PUSH25 0x28302E382E33362D6E696768746C792E323032362E352E3139 0x2B PUSH4 0x6F6D6D69 PUSH21 0x2E3364623264306565005930784243663735663831 PREVRANDAO CALLDATACOPY COINBASE CALLDATACOPY CALLVALUE PUSH4 0x66313861 CALLVALUE BALANCE NUMBER ORIGIN CALLDATASIZE CALLDATACOPY CALLVALUE CALLVALUE CALLER CHAINID ADDRESS PUSH7 0x46334531413941 CALLDATASIZE CALLDATACOPY BALANCE ADDRESS PUSH25 0x63383634386138393333353765393839333636393033364265 CALLDATALOAD CODESIZE PUSH2 0x4645 CALLDATACOPY BALANCE TIMESTAMP CODESIZE BALANCE CALLVALUE ADDRESS PUSH6 0x443630783535 NUMBER PUSH4 0x35366239 ORIGIN PUSH3 0x376661 ADDRESS PUSH5 0x6537434461 ORIGIN ORIGIN PUSH5 0x3236333533 ORIGIN CHAINID ORIGIN CODECOPY BALANCE ADDRESS PUSH3 0x396231 CALLDATACOPY TIMESTAMP ADDRESS PUSH25 0x35653862616465366530626365363538303764623633323763 PUSH3 0x316439 PUSH6 0x656237633661 CALLDATASIZE PUSH2 0x3562 "
	},
	"abi": [
		{
			"inputs": [],
			"stateMutability": "nonpayable",
			"type": "constructor"
		},
		{
			"inputs": [
				{
					"internalType": "string",
					"name": "",
					"type": "string"
				}
			],
			"name": "assets",
			"outputs": [
				{
					"internalType": "string",
					"name": "name",
					"type": "string"
				},
				{
					"internalType": "string",
					"name": "addressOrId",
					"type": "string"
				},
				{
					"internalType": "uint256",
					"name": "amount",
					"type": "uint256"
				}
			],
			"stateMutability": "view",
			"type": "function"
		},
		{
			"inputs": [],
			"name": "ethAddress",
			"outputs": [
				{
					"internalType": "string",
					"name": "",
					"type": "string"
				}
			],
			"stateMutability": "view",
			"type": "function"
		},
		{
			"inputs": [],
			"name": "owner",
			"outputs": [
				{
					"internalType": "address",
					"name": "",
					"type": "address"
				}
			],
			"stateMutability": "view",
			"type": "function"
		}
	],
	"storageLayout": {
		"storage": [
			{
				"astId": 3,
				"contract": "WalletPortfolio.sol:WalletPortfolio",
				"label": "owner",
				"offset": 0,
				"slot": "0",
				"type": "t_address"
			},
			{
				"astId": 6,
				"contract": "WalletPortfolio.sol:WalletPortfolio",
				"label": "ethAddress",
				"offset": 0,
				"slot": "1",
				"type": "t_string_storage"
			},
			{
				"astId": 18,
				"contract": "WalletPortfolio.sol:WalletPortfolio",
				"label": "assets",
				"offset": 0,
				"slot": "2",
				"type": "t_mapping(t_string_memory_ptr,t_struct(Asset)13_storage)"
			}
		],
		"types": {
			"t_address": {
				"encoding": "inplace",
				"label": "address",
				"numberOfBytes": "20"
			},
			"t_mapping(t_string_memory_ptr,t_struct(Asset)13_storage)": {
				"encoding": "mapping",
				"key": "t_string_memory_ptr",
				"label": "mapping(string => struct WalletPortfolio.Asset)",
				"numberOfBytes": "32",
				"value": "t_struct(Asset)13_storage"
			},
			"t_string_memory_ptr": {
				"encoding": "bytes",
				"label": "string",
				"numberOfBytes": "32"
			},
			"t_string_storage": {
				"encoding": "bytes",
				"label": "string",
				"numberOfBytes": "32"
			},
			"t_struct(Asset)13_storage": {
				"encoding": "inplace",
				"label": "struct WalletPortfolio.Asset",
				"members": [
					{
						"astId": 8,
						"contract": "WalletPortfolio.sol:WalletPortfolio",
						"label": "name",
						"offset": 0,
						"slot": "0",
						"type": "t_string_storage"
					},
					{
						"astId": 10,
						"contract": "WalletPortfolio.sol:WalletPortfolio",
						"label": "addressOrId",
						"offset": 0,
						"slot": "1",
						"type": "t_string_storage"
					},
					{
						"astId": 12,
						"contract": "WalletPortfolio.sol:WalletPortfolio",
						"label": "amount",
						"offset": 0,
						"slot": "2",
						"type": "t_uint256"
					}
				],
				"numberOfBytes": "96"
			},
			"t_uint256": {
				"encoding": "inplace",
				"label": "uint256",
				"numberOfBytes": "32"
			}
		}
	},
	"web3Deploy": "var walletportfolioContract = new web3.eth.Contract([{\"inputs\":[],\"stateMutability\":\"nonpayable\",\"type\":\"constructor\"},{\"inputs\":[{\"internalType\":\"string\",\"name\":\"\",\"type\":\"string\"}],\"name\":\"assets\",\"outputs\":[{\"internalType\":\"string\",\"name\":\"name\",\"type\":\"string\"},{\"internalType\":\"string\",\"name\":\"addressOrId\",\"type\":\"string\"},{\"internalType\":\"uint256\",\"name\":\"amount\",\"type\":\"uint256\"}],\"stateMutability\":\"view\",\"type\":\"function\"},{\"inputs\":[],\"name\":\"ethAddress\",\"outputs\":[{\"internalType\":\"string\",\"name\":\"\",\"type\":\"string\"}],\"stateMutability\":\"view\",\"type\":\"function\"},{\"inputs\":[],\"name\":\"owner\",\"outputs\":[{\"internalType\":\"address\",\"name\":\"\",\"type\":\"address\"}],\"stateMutability\":\"view\",\"type\":\"function\"}]);\nvar walletportfolio = walletportfolioContract.deploy({\n     data: '0x60e0604052602a60808181529061085c60a03960019061001f90826102ca565b5034801561002b575f5ffd5b505f80546001600160a01b031916331790556040805160a08101825260046060808301918252635742544360e01b60808401529082528251908101909252602a80835290916020808401929061083290830139815260c8602090910152604051635742544360e01b8152600290600401908152604051908190036020019020815181906100b890826102ca565b50602082015160018201906100cd90826102ca565b50604082015181600201559050506040518060600160405280604051806040016040528060048152602001635045504560e01b81525081526020016040518060600160405280602a81526020016107de602a91398152612710602090910152604051635045504560e01b81526002906004019081526040519081900360200190208151819061015c90826102ca565b506020820151600182019061017190826102ca565b50604082015181600201559050506040518060600160405280604051806040016040528060048152602001631554d11560e21b81525081526020016040518060600160405280602a8152602001610808602a913981526064602090910152604051631554d11560e21b8152600290600401908152604051908190036020019020815181906101ff90826102ca565b506020820151600182019061021490826102ca565b5060408201518160020155905050610388565b634e487b7160e01b5f52604160045260245ffd5b600181811c9082168061024f57607f821691505b60208210810361026d57634e487b7160e01b5f52602260045260245ffd5b50919050565b601f8211156102c557828211156102c557805f5260205f20601f840160051c602085101561029e57505f5b90810190601f840160051c035f5b818110156102c1575f838201556001016102ac565b5050505b505050565b81516001600160401b038111156102e3576102e3610227565b6102f7816102f1845461023b565b84610273565b6020601f821160018114610329575f83156103125750848201515b5f19600385901b1c1916600184901b178455610381565b5f84815260208120601f198516915b828110156103585787850151825560209485019460019092019101610338565b508482101561037557868401515f19600387901b60f8161c191681555b505060018360011b0184555b5050505050565b610449806103955f395ff3fe608060405234801561000f575f5ffd5b506004361061003f575f3560e01c806341398b151461004357806385936228146100615780638da5cb5b14610083575b5f5ffd5b61004b6100ad565b60405161005891906102a0565b60405180910390f35b61007461006f3660046102cd565b610139565b60405161005893929190610380565b5f54610095906001600160a01b031681565b6040516001600160a01b039091168152602001610058565b600180546100ba906103b5565b80601f01602080910402602001604051908101604052809291908181526020018280546100e6906103b5565b80156101315780601f1061010857610100808354040283529160200191610131565b820191905f5260205f20905b81548152906001019060200180831161011457829003601f168201915b505050505081565b805160208183018101805160028252928201919093012091528054819061015f906103b5565b80601f016020809104026020016040519081016040528092919081815260200182805461018b906103b5565b80156101d65780601f106101ad576101008083540402835291602001916101d6565b820191905f5260205f20905b8154815290600101906020018083116101b957829003601f168201915b5050505050908060010180546101eb906103b5565b80601f0160208091040260200160405190810160405280929190818152602001828054610217906103b5565b80156102625780601f1061023957610100808354040283529160200191610262565b820191905f5260205f20905b81548152906001019060200180831161024557829003601f168201915b5050505050908060020154905083565b5f81518084528060208401602086015e5f602082860101526020601f19601f83011685010191505092915050565b602081525f6102b26020830184610272565b9392505050565b634e487b7160e01b5f52604160045260245ffd5b5f602082840312156102dd575f5ffd5b813567ffffffffffffffff8111156102f3575f5ffd5b8201601f81018413610303575f5ffd5b803567ffffffffffffffff81111561031d5761031d6102b9565b604051601f8201601f19908116603f0116810167ffffffffffffffff8111828210171561034c5761034c6102b9565b604052818152828201602001861015610363575f5ffd5b816020840160208301375f91810160200191909152949350505050565b606081525f6103926060830186610272565b82810360208401526103a48186610272565b915050826040830152949350505050565b600181811c908216806103c957607f821691505b6020821081036103e757634e487b7160e01b5f52602260045260245ffd5b5091905056fea2646970667358221220f312b8457f4ae68f03d7e59fbf89fa39b07c5a75ecf014f4289ed3342d9419be64736f6c637828302e382e33362d6e696768746c792e323032362e352e31392b636f6d6d69742e33646232643065650059307842436637356638314437413734636631386134314332363734343346306646334531413941363731307863383634386138393333353765393839333636393033364265353861464537314238313430654436307835354363353662393262376661306465374344613232643236333533324632393130623962313742307835653862616465366530626365363538303764623633323763623164396565623763366136613562', \n     arguments: [\n     ]\n}).send({\n     from: web3.eth.accounts[0], \n     gas: '4700000'\n   }, function (e, contract){\n    console.log(e, contract);\n    if (typeof contract.address !== 'undefined') {\n         console.log('Contract mined! address: ' + contract.address + ' transactionHash: ' + contract.transactionHash);\n    }\n })",
	"functionHashes": {
		"85936228": "assets(string)",
		"41398b15": "ethAddress()",
		"8da5cb5b": "owner()"
	},
	"gasEstimates": {
		"Creation": {
			"codeDepositCost": "219400",
			"executionCost": "infinite",
			"totalCost": "infinite"
		},
		"External": {
			"assets(string)": "infinite",
			"ethAddress()": "infinite",
			"owner()": "2357"
		}
	},
	"devdoc": {
		"kind": "dev",
		"methods": {},
		"version": 1
	},
	"userdoc": {
		"kind": "user",
		"methods": {},
		"version": 1
	},
	"Runtime Bytecode": {
		"immutableReferences": {},
		"linkReferences": {},
		"object": "608060405234801561000f575f5ffd5b506004361061003f575f3560e01c806341398b151461004357806385936228146100615780638da5cb5b14610083575b5f5ffd5b61004b6100ad565b60405161005891906102a0565b60405180910390f35b61007461006f3660046102cd565b610139565b60405161005893929190610380565b5f54610095906001600160a01b031681565b6040516001600160a01b039091168152602001610058565b600180546100ba906103b5565b80601f01602080910402602001604051908101604052809291908181526020018280546100e6906103b5565b80156101315780601f1061010857610100808354040283529160200191610131565b820191905f5260205f20905b81548152906001019060200180831161011457829003601f168201915b505050505081565b805160208183018101805160028252928201919093012091528054819061015f906103b5565b80601f016020809104026020016040519081016040528092919081815260200182805461018b906103b5565b80156101d65780601f106101ad576101008083540402835291602001916101d6565b820191905f5260205f20905b8154815290600101906020018083116101b957829003601f168201915b5050505050908060010180546101eb906103b5565b80601f0160208091040260200160405190810160405280929190818152602001828054610217906103b5565b80156102625780601f1061023957610100808354040283529160200191610262565b820191905f5260205f20905b81548152906001019060200180831161024557829003601f168201915b5050505050908060020154905083565b5f81518084528060208401602086015e5f602082860101526020601f19601f83011685010191505092915050565b602081525f6102b26020830184610272565b9392505050565b634e487b7160e01b5f52604160045260245ffd5b5f602082840312156102dd575f5ffd5b813567ffffffffffffffff8111156102f3575f5ffd5b8201601f81018413610303575f5ffd5b803567ffffffffffffffff81111561031d5761031d6102b9565b604051601f8201601f19908116603f0116810167ffffffffffffffff8111828210171561034c5761034c6102b9565b604052818152828201602001861015610363575f5ffd5b816020840160208301375f91810160200191909152949350505050565b606081525f6103926060830186610272565b82810360208401526103a48186610272565b915050826040830152949350505050565b600181811c908216806103c957607f821691505b6020821081036103e757634e487b7160e01b5f52602260045260245ffd5b5091905056fea2646970667358221220f312b8457f4ae68f03d7e59fbf89fa39b07c5a75ecf014f4289ed3342d9419be64736f6c637828302e382e33362d6e696768746c792e323032362e352e31392b636f6d6d69742e33646232643065650059",
		"opcodes": "PUSH1 0x80 PUSH1 0x40 MSTORE CALLVALUE DUP1 ISZERO PUSH2 0xF JUMPI PUSH0 PUSH0 REVERT JUMPDEST POP PUSH1 0x4 CALLDATASIZE LT PUSH2 0x3F JUMPI PUSH0 CALLDATALOAD PUSH1 0xE0 SHR DUP1 PUSH4 0x41398B15 EQ PUSH2 0x43 JUMPI DUP1 PUSH4 0x85936228 EQ PUSH2 0x61 JUMPI DUP1 PUSH4 0x8DA5CB5B EQ PUSH2 0x83 JUMPI JUMPDEST PUSH0 PUSH0 REVERT JUMPDEST PUSH2 0x4B PUSH2 0xAD JUMP JUMPDEST PUSH1 0x40 MLOAD PUSH2 0x58 SWAP2 SWAP1 PUSH2 0x2A0 JUMP JUMPDEST PUSH1 0x40 MLOAD DUP1 SWAP2 SUB SWAP1 RETURN JUMPDEST PUSH2 0x74 PUSH2 0x6F CALLDATASIZE PUSH1 0x4 PUSH2 0x2CD JUMP JUMPDEST PUSH2 0x139 JUMP JUMPDEST PUSH1 0x40 MLOAD PUSH2 0x58 SWAP4 SWAP3 SWAP2 SWAP1 PUSH2 0x380 JUMP JUMPDEST PUSH0 SLOAD PUSH2 0x95 SWAP1 PUSH1 0x1 PUSH1 0x1 PUSH1 0xA0 SHL SUB AND DUP2 JUMP JUMPDEST PUSH1 0x40 MLOAD PUSH1 0x1 PUSH1 0x1 PUSH1 0xA0 SHL SUB SWAP1 SWAP2 AND DUP2 MSTORE PUSH1 0x20 ADD PUSH2 0x58 JUMP JUMPDEST PUSH1 0x1 DUP1 SLOAD PUSH2 0xBA SWAP1 PUSH2 0x3B5 JUMP JUMPDEST DUP1 PUSH1 0x1F ADD PUSH1 0x20 DUP1 SWAP2 DIV MUL PUSH1 0x20 ADD PUSH1 0x40 MLOAD SWAP1 DUP2 ADD PUSH1 0x40 MSTORE DUP1 SWAP3 SWAP2 SWAP1 DUP2 DUP2 MSTORE PUSH1 0x20 ADD DUP3 DUP1 SLOAD PUSH2 0xE6 SWAP1 PUSH2 0x3B5 JUMP JUMPDEST DUP1 ISZERO PUSH2 0x131 JUMPI DUP1 PUSH1 0x1F LT PUSH2 0x108 JUMPI PUSH2 0x100 DUP1 DUP4 SLOAD DIV MUL DUP4 MSTORE SWAP2 PUSH1 0x20 ADD SWAP2 PUSH2 0x131 JUMP JUMPDEST DUP3 ADD SWAP2 SWAP1 PUSH0 MSTORE PUSH1 0x20 PUSH0 KECCAK256 SWAP1 JUMPDEST DUP2 SLOAD DUP2 MSTORE SWAP1 PUSH1 0x1 ADD SWAP1 PUSH1 0x20 ADD DUP1 DUP4 GT PUSH2 0x114 JUMPI DUP3 SWAP1 SUB PUSH1 0x1F AND DUP3 ADD SWAP2 JUMPDEST POP POP POP POP POP DUP2 JUMP JUMPDEST DUP1 MLOAD PUSH1 0x20 DUP2 DUP4 ADD DUP2 ADD DUP1 MLOAD PUSH1 0x2 DUP3 MSTORE SWAP3 DUP3 ADD SWAP2 SWAP1 SWAP4 ADD KECCAK256 SWAP2 MSTORE DUP1 SLOAD DUP2 SWAP1 PUSH2 0x15F SWAP1 PUSH2 0x3B5 JUMP JUMPDEST DUP1 PUSH1 0x1F ADD PUSH1 0x20 DUP1 SWAP2 DIV MUL PUSH1 0x20 ADD PUSH1 0x40 MLOAD SWAP1 DUP2 ADD PUSH1 0x40 MSTORE DUP1 SWAP3 SWAP2 SWAP1 DUP2 DUP2 MSTORE PUSH1 0x20 ADD DUP3 DUP1 SLOAD PUSH2 0x18B SWAP1 PUSH2 0x3B5 JUMP JUMPDEST DUP1 ISZERO PUSH2 0x1D6 JUMPI DUP1 PUSH1 0x1F LT PUSH2 0x1AD JUMPI PUSH2 0x100 DUP1 DUP4 SLOAD DIV MUL DUP4 MSTORE SWAP2 PUSH1 0x20 ADD SWAP2 PUSH2 0x1D6 JUMP JUMPDEST DUP3 ADD SWAP2 SWAP1 PUSH0 MSTORE PUSH1 0x20 PUSH0 KECCAK256 SWAP1 JUMPDEST DUP2 SLOAD DUP2 MSTORE SWAP1 PUSH1 0x1 ADD SWAP1 PUSH1 0x20 ADD DUP1 DUP4 GT PUSH2 0x1B9 JUMPI DUP3 SWAP1 SUB PUSH1 0x1F AND DUP3 ADD SWAP2 JUMPDEST POP POP POP POP POP SWAP1 DUP1 PUSH1 0x1 ADD DUP1 SLOAD PUSH2 0x1EB SWAP1 PUSH2 0x3B5 JUMP JUMPDEST DUP1 PUSH1 0x1F ADD PUSH1 0x20 DUP1 SWAP2 DIV MUL PUSH1 0x20 ADD PUSH1 0x40 MLOAD SWAP1 DUP2 ADD PUSH1 0x40 MSTORE DUP1 SWAP3 SWAP2 SWAP1 DUP2 DUP2 MSTORE PUSH1 0x20 ADD DUP3 DUP1 SLOAD PUSH2 0x217 SWAP1 PUSH2 0x3B5 JUMP JUMPDEST DUP1 ISZERO PUSH2 0x262 JUMPI DUP1 PUSH1 0x1F LT PUSH2 0x239 JUMPI PUSH2 0x100 DUP1 DUP4 SLOAD DIV MUL DUP4 MSTORE SWAP2 PUSH1 0x20 ADD SWAP2 PUSH2 0x262 JUMP JUMPDEST DUP3 ADD SWAP2 SWAP1 PUSH0 MSTORE PUSH1 0x20 PUSH0 KECCAK256 SWAP1 JUMPDEST DUP2 SLOAD DUP2 MSTORE SWAP1 PUSH1 0x1 ADD SWAP1 PUSH1 0x20 ADD DUP1 DUP4 GT PUSH2 0x245 JUMPI DUP3 SWAP1 SUB PUSH1 0x1F AND DUP3 ADD SWAP2 JUMPDEST POP POP POP POP POP SWAP1 DUP1 PUSH1 0x2 ADD SLOAD SWAP1 POP DUP4 JUMP JUMPDEST PUSH0 DUP2 MLOAD DUP1 DUP5 MSTORE DUP1 PUSH1 0x20 DUP5 ADD PUSH1 0x20 DUP7 ADD MCOPY PUSH0 PUSH1 0x20 DUP3 DUP7 ADD ADD MSTORE PUSH1 0x20 PUSH1 0x1F NOT PUSH1 0x1F DUP4 ADD AND DUP6 ADD ADD SWAP2 POP POP SWAP3 SWAP2 POP POP JUMP JUMPDEST PUSH1 0x20 DUP2 MSTORE PUSH0 PUSH2 0x2B2 PUSH1 0x20 DUP4 ADD DUP5 PUSH2 0x272 JUMP JUMPDEST SWAP4 SWAP3 POP POP POP JUMP JUMPDEST PUSH4 0x4E487B71 PUSH1 0xE0 SHL PUSH0 MSTORE PUSH1 0x41 PUSH1 0x4 MSTORE PUSH1 0x24 PUSH0 REVERT JUMPDEST PUSH0 PUSH1 0x20 DUP3 DUP5 SUB SLT ISZERO PUSH2 0x2DD JUMPI PUSH0 PUSH0 REVERT JUMPDEST DUP2 CALLDATALOAD PUSH8 0xFFFFFFFFFFFFFFFF DUP2 GT ISZERO PUSH2 0x2F3 JUMPI PUSH0 PUSH0 REVERT JUMPDEST DUP3 ADD PUSH1 0x1F DUP2 ADD DUP5 SGT PUSH2 0x303 JUMPI PUSH0 PUSH0 REVERT JUMPDEST DUP1 CALLDATALOAD PUSH8 0xFFFFFFFFFFFFFFFF DUP2 GT ISZERO PUSH2 0x31D JUMPI PUSH2 0x31D PUSH2 0x2B9 JUMP JUMPDEST PUSH1 0x40 MLOAD PUSH1 0x1F DUP3 ADD PUSH1 0x1F NOT SWAP1 DUP2 AND PUSH1 0x3F ADD AND DUP2 ADD PUSH8 0xFFFFFFFFFFFFFFFF DUP2 GT DUP3 DUP3 LT OR ISZERO PUSH2 0x34C JUMPI PUSH2 0x34C PUSH2 0x2B9 JUMP JUMPDEST PUSH1 0x40 MSTORE DUP2 DUP2 MSTORE DUP3 DUP3 ADD PUSH1 0x20 ADD DUP7 LT ISZERO PUSH2 0x363 JUMPI PUSH0 PUSH0 REVERT JUMPDEST DUP2 PUSH1 0x20 DUP5 ADD PUSH1 0x20 DUP4 ADD CALLDATACOPY PUSH0 SWAP2 DUP2 ADD PUSH1 0x20 ADD SWAP2 SWAP1 SWAP2 MSTORE SWAP5 SWAP4 POP POP POP POP JUMP JUMPDEST PUSH1 0x60 DUP2 MSTORE PUSH0 PUSH2 0x392 PUSH1 0x60 DUP4 ADD DUP7 PUSH2 0x272 JUMP JUMPDEST DUP3 DUP2 SUB PUSH1 0x20 DUP5 ADD MSTORE PUSH2 0x3A4 DUP2 DUP7 PUSH2 0x272 JUMP JUMPDEST SWAP2 POP POP DUP3 PUSH1 0x40 DUP4 ADD MSTORE SWAP5 SWAP4 POP POP POP POP JUMP JUMPDEST PUSH1 0x1 DUP2 DUP2 SHR SWAP1 DUP3 AND DUP1 PUSH2 0x3C9 JUMPI PUSH1 0x7F DUP3 AND SWAP2 POP JUMPDEST PUSH1 0x20 DUP3 LT DUP2 SUB PUSH2 0x3E7 JUMPI PUSH4 0x4E487B71 PUSH1 0xE0 SHL PUSH0 MSTORE PUSH1 0x22 PUSH1 0x4 MSTORE PUSH1 0x24 PUSH0 REVERT JUMPDEST POP SWAP2 SWAP1 POP JUMP INVALID LOG2 PUSH5 0x6970667358 0x22 SLT KECCAK256 RETURN SLT 0xB8 GASLIMIT PUSH32 0x4AE68F03D7E59FBF89FA39B07C5A75ECF014F4289ED3342D9419BE64736F6C63 PUSH25 0x28302E382E33362D6E696768746C792E323032362E352E3139 0x2B PUSH4 0x6F6D6D69 PUSH21 0x2E3364623264306565005900000000000000000000 "
	},
	"Assembly": ".code\n  PUSH E0\t\t\tstring public ethAddress = \"0x...\n  PUSH 40\t\t\tcontract WalletPortfolio {\\n  ...\n  MSTORE \t\t\tstring public ethAddress = \"0x...\n  PUSH 2A\t\t\tstring public ethAddress = \"0x...\n  PUSH 80\t\t\tcontract WalletPortfolio {\\n  ...\n  DUP2 \t\t\tstring public ethAddress = \"0x...\n  DUP2 \t\t\tstring public ethAddress = \"0x...\n  MSTORE \t\t\tstring public ethAddress = \"0x...\n  SWAP1 \t\t\tcontract WalletPortfolio {\\n  ...\n  PUSH data EB05D8F518CBE0BF61FAF00EE2D22F85A359F0D750ACD8B9AB88BB4B82307E85\t\t\tstring public ethAddress = \"0x...\n  PUSH A0\t\t\tstring public ethAddress = \"0x...\n  CODECOPY \t\t\tstring public ethAddress = \"0x...\n  PUSH 1\t\t\tstring public ethAddress = \"0x...\n  SWAP1 \t\t\tstring public ethAddress = \"0x...\n  PUSH [tag] 1\t\t\tstring public ethAddress = \"0x...\n  SWAP1 \t\t\tstring public ethAddress = \"0x...\n  DUP3 \t\t\tstring public ethAddress = \"0x...\n  PUSH [tag] 2\t\t\tstring public ethAddress = \"0x...\n  JUMP \t\t\tstring public ethAddress = \"0x...\ntag 1\t\t\tstring public ethAddress = \"0x...\n  JUMPDEST \t\t\tstring public ethAddress = \"0x...\n  POP \t\t\tstring public ethAddress = \"0x...\n  CALLVALUE \t\t\tconstructor() {\\n        owner...\n  DUP1 \t\t\tconstructor() {\\n        owner...\n  ISZERO \t\t\tconstructor() {\\n        owner...\n  PUSH [tag] 3\t\t\tconstructor() {\\n        owner...\n  JUMPI \t\t\tconstructor() {\\n        owner...\n  PUSH 0\t\t\tconstructor() {\\n        owner...\n  PUSH 0\t\t\tconstructor() {\\n        owner...\n  REVERT \t\t\tconstructor() {\\n        owner...\ntag 3\t\t\tconstructor() {\\n        owner...\n  JUMPDEST \t\t\tconstructor() {\\n        owner...\n  POP \t\t\t\n  PUSH 0\t\t\towner\n  DUP1 \t\t\towner = msg.sender\n  SLOAD \t\t\towner = msg.sender\n  PUSH 1\t\t\t\n  PUSH 1\t\t\t\n  PUSH A0\t\t\t\n  SHL \t\t\t\n  SUB \t\t\t\n  NOT \t\t\t\n  AND \t\t\towner = msg.sender\n  CALLER \t\t\tmsg.sender\n  OR \t\t\towner = msg.sender\n  SWAP1 \t\t\towner = msg.sender\n  SSTORE \t\t\towner = msg.sender\n  PUSH 40\t\t\tAsset(\"WBTC\", \"0x55Cc56b92b7fa...\n  DUP1 \t\t\tAsset(\"WBTC\", \"0x55Cc56b92b7fa...\n  MLOAD \t\t\tAsset(\"WBTC\", \"0x55Cc56b92b7fa...\n  PUSH A0\t\t\tAsset(\"WBTC\", \"0x55Cc56b92b7fa...\n  DUP2 \t\t\tAsset(\"WBTC\", \"0x55Cc56b92b7fa...\n  ADD \t\t\tAsset(\"WBTC\", \"0x55Cc56b92b7fa...\n  DUP3 \t\t\tAsset(\"WBTC\", \"0x55Cc56b92b7fa...\n  MSTORE \t\t\tAsset(\"WBTC\", \"0x55Cc56b92b7fa...\n  PUSH 4\t\t\tAsset(\"WBTC\", \"0x55Cc56b92b7fa...\n  PUSH 60\t\t\tAsset(\"WBTC\", \"0x55Cc56b92b7fa...\n  DUP1 \t\t\tAsset(\"WBTC\", \"0x55Cc56b92b7fa...\n  DUP4 \t\t\tAsset(\"WBTC\", \"0x55Cc56b92b7fa...\n  ADD \t\t\tAsset(\"WBTC\", \"0x55Cc56b92b7fa...\n  SWAP2 \t\t\tAsset(\"WBTC\", \"0x55Cc56b92b7fa...\n  DUP3 \t\t\tAsset(\"WBTC\", \"0x55Cc56b92b7fa...\n  MSTORE \t\t\tAsset(\"WBTC\", \"0x55Cc56b92b7fa...\n  PUSH 57425443\t\t\t\n  PUSH E0\t\t\t\n  SHL \t\t\t\n  PUSH 80\t\t\tAsset(\"WBTC\", \"0x55Cc56b92b7fa...\n  DUP5 \t\t\tAsset(\"WBTC\", \"0x55Cc56b92b7fa...\n  ADD \t\t\tAsset(\"WBTC\", \"0x55Cc56b92b7fa...\n  MSTORE \t\t\tAsset(\"WBTC\", \"0x55Cc56b92b7fa...\n  SWAP1 \t\t\tAsset(\"WBTC\", \"0x55Cc56b92b7fa...\n  DUP3 \t\t\tAsset(\"WBTC\", \"0x55Cc56b92b7fa...\n  MSTORE \t\t\tAsset(\"WBTC\", \"0x55Cc56b92b7fa...\n  DUP3 \t\t\tAsset(\"WBTC\", \"0x55Cc56b92b7fa...\n  MLOAD \t\t\tAsset(\"WBTC\", \"0x55Cc56b92b7fa...\n  SWAP1 \t\t\tAsset(\"WBTC\", \"0x55Cc56b92b7fa...\n  DUP2 \t\t\tAsset(\"WBTC\", \"0x55Cc56b92b7fa...\n  ADD \t\t\tAsset(\"WBTC\", \"0x55Cc56b92b7fa...\n  SWAP1 \t\t\tAsset(\"WBTC\", \"0x55Cc56b92b7fa...\n  SWAP3 \t\t\tAsset(\"WBTC\", \"0x55Cc56b92b7fa...\n  MSTORE \t\t\tAsset(\"WBTC\", \"0x55Cc56b92b7fa...\n  PUSH 2A\t\t\tAsset(\"WBTC\", \"0x55Cc56b92b7fa...\n  DUP1 \t\t\tAsset(\"WBTC\", \"0x55Cc56b92b7fa...\n  DUP4 \t\t\tAsset(\"WBTC\", \"0x55Cc56b92b7fa...\n  MSTORE \t\t\tAsset(\"WBTC\", \"0x55Cc56b92b7fa...\n  SWAP1 \t\t\tAsset(\"WBTC\", \"0x55Cc56b92b7fa...\n  SWAP2 \t\t\tAsset(\"WBTC\", \"0x55Cc56b92b7fa...\n  PUSH 20\t\t\tAsset(\"WBTC\", \"0x55Cc56b92b7fa...\n  DUP1 \t\t\tAsset(\"WBTC\", \"0x55Cc56b92b7fa...\n  DUP5 \t\t\tAsset(\"WBTC\", \"0x55Cc56b92b7fa...\n  ADD \t\t\tAsset(\"WBTC\", \"0x55Cc56b92b7fa...\n  SWAP3 \t\t\tAsset(\"WBTC\", \"0x55Cc56b92b7fa...\n  SWAP1 \t\t\tAsset(\"WBTC\", \"0x55Cc56b92b7fa...\n  PUSH data 800B912D17894E852EB436424D0B96E1D36560E0A99E6F0B55DDA9153590EA0E\t\t\tAsset(\"WBTC\", \"0x55Cc56b92b7fa...\n  SWAP1 \t\t\tAsset(\"WBTC\", \"0x55Cc56b92b7fa...\n  DUP4 \t\t\tAsset(\"WBTC\", \"0x55Cc56b92b7fa...\n  ADD \t\t\tAsset(\"WBTC\", \"0x55Cc56b92b7fa...\n  CODECOPY \t\t\tAsset(\"WBTC\", \"0x55Cc56b92b7fa...\n  DUP2 \t\t\tAsset(\"WBTC\", \"0x55Cc56b92b7fa...\n  MSTORE \t\t\tAsset(\"WBTC\", \"0x55Cc56b92b7fa...\n  PUSH C8\t\t\t200\n  PUSH 20\t\t\tAsset(\"WBTC\", \"0x55Cc56b92b7fa...\n  SWAP1 \t\t\tAsset(\"WBTC\", \"0x55Cc56b92b7fa...\n  SWAP2 \t\t\tAsset(\"WBTC\", \"0x55Cc56b92b7fa...\n  ADD \t\t\tAsset(\"WBTC\", \"0x55Cc56b92b7fa...\n  MSTORE \t\t\tAsset(\"WBTC\", \"0x55Cc56b92b7fa...\n  PUSH 40\t\t\tassets[\"WBTC\"]\n  MLOAD \t\t\tassets[\"WBTC\"]\n  PUSH 57425443\t\t\t\n  PUSH E0\t\t\t\n  SHL \t\t\t\n  DUP2 \t\t\t\n  MSTORE \t\t\t\n  PUSH 2\t\t\tassets\n  SWAP1 \t\t\tassets\n  PUSH 4\t\t\t\n  ADD \t\t\t\n  SWAP1 \t\t\tassets[\"WBTC\"]\n  DUP2 \t\t\tassets[\"WBTC\"]\n  MSTORE \t\t\tassets[\"WBTC\"]\n  PUSH 40\t\t\tassets[\"WBTC\"]\n  MLOAD \t\t\tassets[\"WBTC\"]\n  SWAP1 \t\t\tassets[\"WBTC\"]\n  DUP2 \t\t\tassets[\"WBTC\"]\n  SWAP1 \t\t\tassets[\"WBTC\"]\n  SUB \t\t\tassets[\"WBTC\"]\n  PUSH 20\t\t\tassets[\"WBTC\"]\n  ADD \t\t\tassets[\"WBTC\"]\n  SWAP1 \t\t\tassets[\"WBTC\"]\n  KECCAK256 \t\t\tassets[\"WBTC\"]\n  DUP2 \t\t\tassets[\"WBTC\"] = Asset(\"WBTC\",...\n  MLOAD \t\t\tassets[\"WBTC\"] = Asset(\"WBTC\",...\n  DUP2 \t\t\tassets[\"WBTC\"]\n  SWAP1 \t\t\tassets[\"WBTC\"]\n  PUSH [tag] 8\t\t\tassets[\"WBTC\"] = Asset(\"WBTC\",...\n  SWAP1 \t\t\tassets[\"WBTC\"] = Asset(\"WBTC\",...\n  DUP3 \t\t\tassets[\"WBTC\"]\n  PUSH [tag] 2\t\t\tassets[\"WBTC\"] = Asset(\"WBTC\",...\n  JUMP \t\t\tassets[\"WBTC\"] = Asset(\"WBTC\",...\ntag 8\t\t\tassets[\"WBTC\"] = Asset(\"WBTC\",...\n  JUMPDEST \t\t\tassets[\"WBTC\"] = Asset(\"WBTC\",...\n  POP \t\t\t\n  PUSH 20\t\t\tassets[\"WBTC\"] = Asset(\"WBTC\",...\n  DUP3 \t\t\tassets[\"WBTC\"] = Asset(\"WBTC\",...\n  ADD \t\t\tassets[\"WBTC\"] = Asset(\"WBTC\",...\n  MLOAD \t\t\tassets[\"WBTC\"] = Asset(\"WBTC\",...\n  PUSH 1\t\t\tassets[\"WBTC\"] = Asset(\"WBTC\",...\n  DUP3 \t\t\tassets[\"WBTC\"] = Asset(\"WBTC\",...\n  ADD \t\t\tassets[\"WBTC\"] = Asset(\"WBTC\",...\n  SWAP1 \t\t\tassets[\"WBTC\"] = Asset(\"WBTC\",...\n  PUSH [tag] 9\t\t\tassets[\"WBTC\"] = Asset(\"WBTC\",...\n  SWAP1 \t\t\tassets[\"WBTC\"] = Asset(\"WBTC\",...\n  DUP3 \t\t\tassets[\"WBTC\"] = Asset(\"WBTC\",...\n  PUSH [tag] 2\t\t\tassets[\"WBTC\"] = Asset(\"WBTC\",...\n  JUMP \t\t\tassets[\"WBTC\"] = Asset(\"WBTC\",...\ntag 9\t\t\tassets[\"WBTC\"] = Asset(\"WBTC\",...\n  JUMPDEST \t\t\tassets[\"WBTC\"] = Asset(\"WBTC\",...\n  POP \t\t\tassets[\"WBTC\"] = Asset(\"WBTC\",...\n  PUSH 40\t\t\tassets[\"WBTC\"] = Asset(\"WBTC\",...\n  DUP3 \t\t\tassets[\"WBTC\"] = Asset(\"WBTC\",...\n  ADD \t\t\tassets[\"WBTC\"] = Asset(\"WBTC\",...\n  MLOAD \t\t\tassets[\"WBTC\"] = Asset(\"WBTC\",...\n  DUP2 \t\t\tassets[\"WBTC\"] = Asset(\"WBTC\",...\n  PUSH 2\t\t\tassets[\"WBTC\"] = Asset(\"WBTC\",...\n  ADD \t\t\tassets[\"WBTC\"] = Asset(\"WBTC\",...\n  SSTORE \t\t\tassets[\"WBTC\"] = Asset(\"WBTC\",...\n  SWAP1 \t\t\tassets[\"WBTC\"] = Asset(\"WBTC\",...\n  POP \t\t\tassets[\"WBTC\"] = Asset(\"WBTC\",...\n  POP \t\t\tassets[\"WBTC\"] = Asset(\"WBTC\",...\n  PUSH 40\t\t\tAsset(\"PEPE\", \"0xBCf75f81D7A74...\n  MLOAD \t\t\tAsset(\"PEPE\", \"0xBCf75f81D7A74...\n  DUP1 \t\t\tAsset(\"PEPE\", \"0xBCf75f81D7A74...\n  PUSH 60\t\t\tAsset(\"PEPE\", \"0xBCf75f81D7A74...\n  ADD \t\t\tAsset(\"PEPE\", \"0xBCf75f81D7A74...\n  PUSH 40\t\t\tAsset(\"PEPE\", \"0xBCf75f81D7A74...\n  MSTORE \t\t\tAsset(\"PEPE\", \"0xBCf75f81D7A74...\n  DUP1 \t\t\tAsset(\"PEPE\", \"0xBCf75f81D7A74...\n  PUSH 40\t\t\tAsset(\"PEPE\", \"0xBCf75f81D7A74...\n  MLOAD \t\t\tAsset(\"PEPE\", \"0xBCf75f81D7A74...\n  DUP1 \t\t\tAsset(\"PEPE\", \"0xBCf75f81D7A74...\n  PUSH 40\t\t\tAsset(\"PEPE\", \"0xBCf75f81D7A74...\n  ADD \t\t\tAsset(\"PEPE\", \"0xBCf75f81D7A74...\n  PUSH 40\t\t\tAsset(\"PEPE\", \"0xBCf75f81D7A74...\n  MSTORE \t\t\tAsset(\"PEPE\", \"0xBCf75f81D7A74...\n  DUP1 \t\t\tAsset(\"PEPE\", \"0xBCf75f81D7A74...\n  PUSH 4\t\t\tAsset(\"PEPE\", \"0xBCf75f81D7A74...\n  DUP2 \t\t\tAsset(\"PEPE\", \"0xBCf75f81D7A74...\n  MSTORE \t\t\tAsset(\"PEPE\", \"0xBCf75f81D7A74...\n  PUSH 20\t\t\tAsset(\"PEPE\", \"0xBCf75f81D7A74...\n  ADD \t\t\tAsset(\"PEPE\", \"0xBCf75f81D7A74...\n  PUSH 50455045\t\t\t\n  PUSH E0\t\t\t\n  SHL \t\t\t\n  DUP2 \t\t\tAsset(\"PEPE\", \"0xBCf75f81D7A74...\n  MSTORE \t\t\tAsset(\"PEPE\", \"0xBCf75f81D7A74...\n  POP \t\t\tAsset(\"PEPE\", \"0xBCf75f81D7A74...\n  DUP2 \t\t\tAsset(\"PEPE\", \"0xBCf75f81D7A74...\n  MSTORE \t\t\tAsset(\"PEPE\", \"0xBCf75f81D7A74...\n  PUSH 20\t\t\tAsset(\"PEPE\", \"0xBCf75f81D7A74...\n  ADD \t\t\tAsset(\"PEPE\", \"0xBCf75f81D7A74...\n  PUSH 40\t\t\tAsset(\"PEPE\", \"0xBCf75f81D7A74...\n  MLOAD \t\t\tAsset(\"PEPE\", \"0xBCf75f81D7A74...\n  DUP1 \t\t\tAsset(\"PEPE\", \"0xBCf75f81D7A74...\n  PUSH 60\t\t\tAsset(\"PEPE\", \"0xBCf75f81D7A74...\n  ADD \t\t\tAsset(\"PEPE\", \"0xBCf75f81D7A74...\n  PUSH 40\t\t\tAsset(\"PEPE\", \"0xBCf75f81D7A74...\n  MSTORE \t\t\tAsset(\"PEPE\", \"0xBCf75f81D7A74...\n  DUP1 \t\t\tAsset(\"PEPE\", \"0xBCf75f81D7A74...\n  PUSH 2A\t\t\tAsset(\"PEPE\", \"0xBCf75f81D7A74...\n  DUP2 \t\t\tAsset(\"PEPE\", \"0xBCf75f81D7A74...\n  MSTORE \t\t\tAsset(\"PEPE\", \"0xBCf75f81D7A74...\n  PUSH 20\t\t\tAsset(\"PEPE\", \"0xBCf75f81D7A74...\n  ADD \t\t\tAsset(\"PEPE\", \"0xBCf75f81D7A74...\n  PUSH data 6BB443FA775D52A208F366D905E0DD2F182982A45315BCAD580C03C7554D3909\t\t\tAsset(\"PEPE\", \"0xBCf75f81D7A74...\n  PUSH 2A\t\t\tAsset(\"PEPE\", \"0xBCf75f81D7A74...\n  SWAP2 \t\t\tAsset(\"PEPE\", \"0xBCf75f81D7A74...\n  CODECOPY \t\t\tAsset(\"PEPE\", \"0xBCf75f81D7A74...\n  DUP2 \t\t\tAsset(\"PEPE\", \"0xBCf75f81D7A74...\n  MSTORE \t\t\tAsset(\"PEPE\", \"0xBCf75f81D7A74...\n  PUSH 2710\t\t\t10000\n  PUSH 20\t\t\tAsset(\"PEPE\", \"0xBCf75f81D7A74...\n  SWAP1 \t\t\tAsset(\"PEPE\", \"0xBCf75f81D7A74...\n  SWAP2 \t\t\tAsset(\"PEPE\", \"0xBCf75f81D7A74...\n  ADD \t\t\tAsset(\"PEPE\", \"0xBCf75f81D7A74...\n  MSTORE \t\t\tAsset(\"PEPE\", \"0xBCf75f81D7A74...\n  PUSH 40\t\t\tassets[\"PEPE\"]\n  MLOAD \t\t\tassets[\"PEPE\"]\n  PUSH 50455045\t\t\t\n  PUSH E0\t\t\t\n  SHL \t\t\t\n  DUP2 \t\t\t\n  MSTORE \t\t\t\n  PUSH 2\t\t\tassets\n  SWAP1 \t\t\tassets\n  PUSH 4\t\t\t\n  ADD \t\t\t\n  SWAP1 \t\t\tassets[\"PEPE\"]\n  DUP2 \t\t\tassets[\"PEPE\"]\n  MSTORE \t\t\tassets[\"PEPE\"]\n  PUSH 40\t\t\tassets[\"PEPE\"]\n  MLOAD \t\t\tassets[\"PEPE\"]\n  SWAP1 \t\t\tassets[\"PEPE\"]\n  DUP2 \t\t\tassets[\"PEPE\"]\n  SWAP1 \t\t\tassets[\"PEPE\"]\n  SUB \t\t\tassets[\"PEPE\"]\n  PUSH 20\t\t\tassets[\"PEPE\"]\n  ADD \t\t\tassets[\"PEPE\"]\n  SWAP1 \t\t\tassets[\"PEPE\"]\n  KECCAK256 \t\t\tassets[\"PEPE\"]\n  DUP2 \t\t\tassets[\"PEPE\"] = Asset(\"PEPE\",...\n  MLOAD \t\t\tassets[\"PEPE\"] = Asset(\"PEPE\",...\n  DUP2 \t\t\tassets[\"PEPE\"]\n  SWAP1 \t\t\tassets[\"PEPE\"]\n  PUSH [tag] 12\t\t\tassets[\"PEPE\"] = Asset(\"PEPE\",...\n  SWAP1 \t\t\tassets[\"PEPE\"] = Asset(\"PEPE\",...\n  DUP3 \t\t\tassets[\"PEPE\"]\n  PUSH [tag] 2\t\t\tassets[\"PEPE\"] = Asset(\"PEPE\",...\n  JUMP \t\t\tassets[\"PEPE\"] = Asset(\"PEPE\",...\ntag 12\t\t\tassets[\"PEPE\"] = Asset(\"PEPE\",...\n  JUMPDEST \t\t\tassets[\"PEPE\"] = Asset(\"PEPE\",...\n  POP \t\t\t\n  PUSH 20\t\t\tassets[\"PEPE\"] = Asset(\"PEPE\",...\n  DUP3 \t\t\tassets[\"PEPE\"] = Asset(\"PEPE\",...\n  ADD \t\t\tassets[\"PEPE\"] = Asset(\"PEPE\",...\n  MLOAD \t\t\tassets[\"PEPE\"] = Asset(\"PEPE\",...\n  PUSH 1\t\t\tassets[\"PEPE\"] = Asset(\"PEPE\",...\n  DUP3 \t\t\tassets[\"PEPE\"] = Asset(\"PEPE\",...\n  ADD \t\t\tassets[\"PEPE\"] = Asset(\"PEPE\",...\n  SWAP1 \t\t\tassets[\"PEPE\"] = Asset(\"PEPE\",...\n  PUSH [tag] 13\t\t\tassets[\"PEPE\"] = Asset(\"PEPE\",...\n  SWAP1 \t\t\tassets[\"PEPE\"] = Asset(\"PEPE\",...\n  DUP3 \t\t\tassets[\"PEPE\"] = Asset(\"PEPE\",...\n  PUSH [tag] 2\t\t\tassets[\"PEPE\"] = Asset(\"PEPE\",...\n  JUMP \t\t\tassets[\"PEPE\"] = Asset(\"PEPE\",...\ntag 13\t\t\tassets[\"PEPE\"] = Asset(\"PEPE\",...\n  JUMPDEST \t\t\tassets[\"PEPE\"] = Asset(\"PEPE\",...\n  POP \t\t\tassets[\"PEPE\"] = Asset(\"PEPE\",...\n  PUSH 40\t\t\tassets[\"PEPE\"] = Asset(\"PEPE\",...\n  DUP3 \t\t\tassets[\"PEPE\"] = Asset(\"PEPE\",...\n  ADD \t\t\tassets[\"PEPE\"] = Asset(\"PEPE\",...\n  MLOAD \t\t\tassets[\"PEPE\"] = Asset(\"PEPE\",...\n  DUP2 \t\t\tassets[\"PEPE\"] = Asset(\"PEPE\",...\n  PUSH 2\t\t\tassets[\"PEPE\"] = Asset(\"PEPE\",...\n  ADD \t\t\tassets[\"PEPE\"] = Asset(\"PEPE\",...\n  SSTORE \t\t\tassets[\"PEPE\"] = Asset(\"PEPE\",...\n  SWAP1 \t\t\tassets[\"PEPE\"] = Asset(\"PEPE\",...\n  POP \t\t\tassets[\"PEPE\"] = Asset(\"PEPE\",...\n  POP \t\t\tassets[\"PEPE\"] = Asset(\"PEPE\",...\n  PUSH 40\t\t\tAsset(\"USDT\", \"0xc8648a893357e...\n  MLOAD \t\t\tAsset(\"USDT\", \"0xc8648a893357e...\n  DUP1 \t\t\tAsset(\"USDT\", \"0xc8648a893357e...\n  PUSH 60\t\t\tAsset(\"USDT\", \"0xc8648a893357e...\n  ADD \t\t\tAsset(\"USDT\", \"0xc8648a893357e...\n  PUSH 40\t\t\tAsset(\"USDT\", \"0xc8648a893357e...\n  MSTORE \t\t\tAsset(\"USDT\", \"0xc8648a893357e...\n  DUP1 \t\t\tAsset(\"USDT\", \"0xc8648a893357e...\n  PUSH 40\t\t\tAsset(\"USDT\", \"0xc8648a893357e...\n  MLOAD \t\t\tAsset(\"USDT\", \"0xc8648a893357e...\n  DUP1 \t\t\tAsset(\"USDT\", \"0xc8648a893357e...\n  PUSH 40\t\t\tAsset(\"USDT\", \"0xc8648a893357e...\n  ADD \t\t\tAsset(\"USDT\", \"0xc8648a893357e...\n  PUSH 40\t\t\tAsset(\"USDT\", \"0xc8648a893357e...\n  MSTORE \t\t\tAsset(\"USDT\", \"0xc8648a893357e...\n  DUP1 \t\t\tAsset(\"USDT\", \"0xc8648a893357e...\n  PUSH 4\t\t\tAsset(\"USDT\", \"0xc8648a893357e...\n  DUP2 \t\t\tAsset(\"USDT\", \"0xc8648a893357e...\n  MSTORE \t\t\tAsset(\"USDT\", \"0xc8648a893357e...\n  PUSH 20\t\t\tAsset(\"USDT\", \"0xc8648a893357e...\n  ADD \t\t\tAsset(\"USDT\", \"0xc8648a893357e...\n  PUSH 1554D115\t\t\t\n  PUSH E2\t\t\t\n  SHL \t\t\t\n  DUP2 \t\t\tAsset(\"USDT\", \"0xc8648a893357e...\n  MSTORE \t\t\tAsset(\"USDT\", \"0xc8648a893357e...\n  POP \t\t\tAsset(\"USDT\", \"0xc8648a893357e...\n  DUP2 \t\t\tAsset(\"USDT\", \"0xc8648a893357e...\n  MSTORE \t\t\tAsset(\"USDT\", \"0xc8648a893357e...\n  PUSH 20\t\t\tAsset(\"USDT\", \"0xc8648a893357e...\n  ADD \t\t\tAsset(\"USDT\", \"0xc8648a893357e...\n  PUSH 40\t\t\tAsset(\"USDT\", \"0xc8648a893357e...\n  MLOAD \t\t\tAsset(\"USDT\", \"0xc8648a893357e...\n  DUP1 \t\t\tAsset(\"USDT\", \"0xc8648a893357e...\n  PUSH 60\t\t\tAsset(\"USDT\", \"0xc8648a893357e...\n  ADD \t\t\tAsset(\"USDT\", \"0xc8648a893357e...\n  PUSH 40\t\t\tAsset(\"USDT\", \"0xc8648a893357e...\n  MSTORE \t\t\tAsset(\"USDT\", \"0xc8648a893357e...\n  DUP1 \t\t\tAsset(\"USDT\", \"0xc8648a893357e...\n  PUSH 2A\t\t\tAsset(\"USDT\", \"0xc8648a893357e...\n  DUP2 \t\t\tAsset(\"USDT\", \"0xc8648a893357e...\n  MSTORE \t\t\tAsset(\"USDT\", \"0xc8648a893357e...\n  PUSH 20\t\t\tAsset(\"USDT\", \"0xc8648a893357e...\n  ADD \t\t\tAsset(\"USDT\", \"0xc8648a893357e...\n  PUSH data 7761D303296C56B707FC284175FB88D5D92402C32DE3A83A309A04FC7851AD77\t\t\tAsset(\"USDT\", \"0xc8648a893357e...\n  PUSH 2A\t\t\tAsset(\"USDT\", \"0xc8648a893357e...\n  SWAP2 \t\t\tAsset(\"USDT\", \"0xc8648a893357e...\n  CODECOPY \t\t\tAsset(\"USDT\", \"0xc8648a893357e...\n  DUP2 \t\t\tAsset(\"USDT\", \"0xc8648a893357e...\n  MSTORE \t\t\tAsset(\"USDT\", \"0xc8648a893357e...\n  PUSH 64\t\t\t100\n  PUSH 20\t\t\tAsset(\"USDT\", \"0xc8648a893357e...\n  SWAP1 \t\t\tAsset(\"USDT\", \"0xc8648a893357e...\n  SWAP2 \t\t\tAsset(\"USDT\", \"0xc8648a893357e...\n  ADD \t\t\tAsset(\"USDT\", \"0xc8648a893357e...\n  MSTORE \t\t\tAsset(\"USDT\", \"0xc8648a893357e...\n  PUSH 40\t\t\tassets[\"USDT\"]\n  MLOAD \t\t\tassets[\"USDT\"]\n  PUSH 1554D115\t\t\t\n  PUSH E2\t\t\t\n  SHL \t\t\t\n  DUP2 \t\t\t\n  MSTORE \t\t\t\n  PUSH 2\t\t\tassets\n  SWAP1 \t\t\tassets\n  PUSH 4\t\t\t\n  ADD \t\t\t\n  SWAP1 \t\t\tassets[\"USDT\"]\n  DUP2 \t\t\tassets[\"USDT\"]\n  MSTORE \t\t\tassets[\"USDT\"]\n  PUSH 40\t\t\tassets[\"USDT\"]\n  MLOAD \t\t\tassets[\"USDT\"]\n  SWAP1 \t\t\tassets[\"USDT\"]\n  DUP2 \t\t\tassets[\"USDT\"]\n  SWAP1 \t\t\tassets[\"USDT\"]\n  SUB \t\t\tassets[\"USDT\"]\n  PUSH 20\t\t\tassets[\"USDT\"]\n  ADD \t\t\tassets[\"USDT\"]\n  SWAP1 \t\t\tassets[\"USDT\"]\n  KECCAK256 \t\t\tassets[\"USDT\"]\n  DUP2 \t\t\tassets[\"USDT\"] = Asset(\"USDT\",...\n  MLOAD \t\t\tassets[\"USDT\"] = Asset(\"USDT\",...\n  DUP2 \t\t\tassets[\"USDT\"]\n  SWAP1 \t\t\tassets[\"USDT\"]\n  PUSH [tag] 16\t\t\tassets[\"USDT\"] = Asset(\"USDT\",...\n  SWAP1 \t\t\tassets[\"USDT\"] = Asset(\"USDT\",...\n  DUP3 \t\t\tassets[\"USDT\"]\n  PUSH [tag] 2\t\t\tassets[\"USDT\"] = Asset(\"USDT\",...\n  JUMP \t\t\tassets[\"USDT\"] = Asset(\"USDT\",...\ntag 16\t\t\tassets[\"USDT\"] = Asset(\"USDT\",...\n  JUMPDEST \t\t\tassets[\"USDT\"] = Asset(\"USDT\",...\n  POP \t\t\t\n  PUSH 20\t\t\tassets[\"USDT\"] = Asset(\"USDT\",...\n  DUP3 \t\t\tassets[\"USDT\"] = Asset(\"USDT\",...\n  ADD \t\t\tassets[\"USDT\"] = Asset(\"USDT\",...\n  MLOAD \t\t\tassets[\"USDT\"] = Asset(\"USDT\",...\n  PUSH 1\t\t\tassets[\"USDT\"] = Asset(\"USDT\",...\n  DUP3 \t\t\tassets[\"USDT\"] = Asset(\"USDT\",...\n  ADD \t\t\tassets[\"USDT\"] = Asset(\"USDT\",...\n  SWAP1 \t\t\tassets[\"USDT\"] = Asset(\"USDT\",...\n  PUSH [tag] 17\t\t\tassets[\"USDT\"] = Asset(\"USDT\",...\n  SWAP1 \t\t\tassets[\"USDT\"] = Asset(\"USDT\",...\n  DUP3 \t\t\tassets[\"USDT\"] = Asset(\"USDT\",...\n  PUSH [tag] 2\t\t\tassets[\"USDT\"] = Asset(\"USDT\",...\n  JUMP \t\t\tassets[\"USDT\"] = Asset(\"USDT\",...\ntag 17\t\t\tassets[\"USDT\"] = Asset(\"USDT\",...\n  JUMPDEST \t\t\tassets[\"USDT\"] = Asset(\"USDT\",...\n  POP \t\t\tassets[\"USDT\"] = Asset(\"USDT\",...\n  PUSH 40\t\t\tassets[\"USDT\"] = Asset(\"USDT\",...\n  DUP3 \t\t\tassets[\"USDT\"] = Asset(\"USDT\",...\n  ADD \t\t\tassets[\"USDT\"] = Asset(\"USDT\",...\n  MLOAD \t\t\tassets[\"USDT\"] = Asset(\"USDT\",...\n  DUP2 \t\t\tassets[\"USDT\"] = Asset(\"USDT\",...\n  PUSH 2\t\t\tassets[\"USDT\"] = Asset(\"USDT\",...\n  ADD \t\t\tassets[\"USDT\"] = Asset(\"USDT\",...\n  SSTORE \t\t\tassets[\"USDT\"] = Asset(\"USDT\",...\n  SWAP1 \t\t\tassets[\"USDT\"] = Asset(\"USDT\",...\n  POP \t\t\tassets[\"USDT\"] = Asset(\"USDT\",...\n  POP \t\t\tassets[\"USDT\"] = Asset(\"USDT\",...\n  PUSH [tag] 24\t\t\tcontract WalletPortfolio {\\n  ...\n  JUMP \t\t\tcontract WalletPortfolio {\\n  ...\ntag 19\t\t\te-Identifier: MIT\\npragma soli...\n  JUMPDEST \t\t\te-Identifier: MIT\\npragma soli...\n  PUSH 4E487B71\t\t\ttfolio {\\n \n  PUSH E0\t\t\tetP\n  SHL \t\t\tWalletPortfolio {\\n  \n  PUSH 0\t\t\tc\n  MSTORE \t\t\t\\ncontract WalletPortfolio {\\n...\n  PUSH 41\t\t\ter;\\n\n  PUSH 4\t\t\to\n  MSTORE \t\t\tpublic owner;\\n \n  PUSH 24\t\t\thAdd\n  PUSH 0\t\t\t \n  REVERT \t\t\t public ethAddr\ntag 20\t\t\t8bade6e0bce65807db6327cb1d9eeb...\n  JUMPDEST \t\t\t8bade6e0bce65807db6327cb1d9eeb...\n  PUSH 1\t\t\te\n  DUP2 \t\t\t name;\\n     \n  DUP2 \t\t\t name;\\n     \n  SHR \t\t\t name;\\n     \n  SWAP1 \t\t\t name;\\n     \n  DUP3 \t\t\t256 amount;\\n\n  AND \t\t\t256 amount;\\n\n  DUP1 \t\t\t256 amount;\\n\n  PUSH [tag] 27\t\t\t  mapping(string => Asset) pub...\n  JUMPI \t\t\t  mapping(string => Asset) pub...\n  PUSH 7F\t\t\tctor\n  DUP3 \t\t\t const\n  AND \t\t\t\\n    constructor(\n  SWAP2 \t\t\tc assets;\\n\\n    constructor(\n  POP \t\t\tc assets;\\n\\n    constructor(\ntag 27\t\t\t  mapping(string => Asset) pub...\n  JUMPDEST \t\t\t  mapping(string => Asset) pub...\n  PUSH 20\t\t\tal\n  DUP3 \t\t\t// Ini\n  LT \t\t\t   // Inisiali\n  DUP2 \t\t\t = msg.sender;\\n   \n  SUB \t\t\tner = msg.sender;\\n        // ...\n  PUSH [tag] 28\t\t\t owner = msg.sender;\\n        ...\n  JUMPI \t\t\t owner = msg.sender;\\n        ...\n  PUSH 4E487B71\t\t\tet(\"WBTC\",\n  PUSH E0\t\t\t= A\n  SHL \t\t\tC\"] = Asset(\"WBTC\", \n  PUSH 0\t\t\tW\n  MSTORE \t\t\tssets[\"WBTC\"] = Asset(\"WBTC\", ...\n  PUSH 22\t\t\t2d26\n  PUSH 4\t\t\tD\n  MSTORE \t\t\tfa0de7CDa22d263\n  PUSH 24\t\t\t    \n  PUSH 0\t\t\t)\n  REVERT \t\t\tB\", 200);\\n     \ntag 28\t\t\t owner = msg.sender;\\n        ...\n  JUMPDEST \t\t\t owner = msg.sender;\\n        ...\n  POP \t\t\t owner = msg.sender;\\n        ...\n  SWAP2 \t\t\t8bade6e0bce65807db6327cb1d9eeb...\n  SWAP1 \t\t\t8bade6e0bce65807db6327cb1d9eeb...\n  POP \t\t\t8bade6e0bce65807db6327cb1d9eeb...\n  JUMP \t\t\t8bade6e0bce65807db6327cb1d9eeb...\ntag 22\t\t\t669036Be58aFE71B8140eD6\", 100)...\n  JUMPDEST \t\t\t669036Be58aFE71B8140eD6\", 100)...\n  PUSH 1F\t\t\t\n  DUP3 \t\t\t\n  GT \t\t\t\n  ISZERO \t\t\t\n  PUSH [tag] 32\t\t\t\n  JUMPI \t\t\t\n  DUP3 \t\t\t\n  DUP3 \t\t\t\n  GT \t\t\t\n  ISZERO \t\t\t\n  PUSH [tag] 32\t\t\t\n  JUMPI \t\t\t\n  DUP1 \t\t\t\n  PUSH 0\t\t\t\n  MSTORE \t\t\t\n  PUSH 20\t\t\t\n  PUSH 0\t\t\t\n  KECCAK256 \t\t\t\n  PUSH 1F\t\t\t\n  DUP5 \t\t\t\n  ADD \t\t\t\n  PUSH 5\t\t\t\n  SHR \t\t\t\n  PUSH 20\t\t\t\n  DUP6 \t\t\t\n  LT \t\t\t\n  ISZERO \t\t\t\n  PUSH [tag] 33\t\t\t\n  JUMPI \t\t\t\n  POP \t\t\t\n  PUSH 0\t\t\t\ntag 33\t\t\t\n  JUMPDEST \t\t\t\n  SWAP1 \t\t\t\n  DUP2 \t\t\t\n  ADD \t\t\t\n  SWAP1 \t\t\t\n  PUSH 1F\t\t\t\n  DUP5 \t\t\t\n  ADD \t\t\t\n  PUSH 5\t\t\t\n  SHR \t\t\t\n  SUB \t\t\t\n  PUSH 0\t\t\t\ntag 34\t\t\t\n  JUMPDEST \t\t\t\n  DUP2 \t\t\t\n  DUP2 \t\t\t\n  LT \t\t\t\n  ISZERO \t\t\t\n  PUSH [tag] 36\t\t\t\n  JUMPI \t\t\t\n  PUSH 0\t\t\t\n  DUP4 \t\t\t\n  DUP3 \t\t\t\n  ADD \t\t\t\n  SSTORE \t\t\t\n  PUSH 1\t\t\t\n  ADD \t\t\t\n  PUSH [tag] 34\t\t\t\n  JUMP \t\t\t\ntag 36\t\t\t\n  JUMPDEST \t\t\t\n  POP \t\t\t\n  POP \t\t\t\n  POP \t\t\t\ntag 32\t\t\t\n  JUMPDEST \t\t\t\n  POP \t\t\t669036Be58aFE71B8140eD6\", 100)...\n  POP \t\t\t669036Be58aFE71B8140eD6\", 100)...\n  POP \t\t\t669036Be58aFE71B8140eD6\", 100)...\n  JUMP \t\t\t669036Be58aFE71B8140eD6\", 100)...\ntag 2\t\t\t\n  JUMPDEST \t\t\t\n  DUP2 \t\t\t\n  MLOAD \t\t\t\n  PUSH 1\t\t\t\n  PUSH 1\t\t\t\n  PUSH 40\t\t\t\n  SHL \t\t\t\n  SUB \t\t\t\n  DUP2 \t\t\t\n  GT \t\t\t\n  ISZERO \t\t\t\n  PUSH [tag] 40\t\t\t\n  JUMPI \t\t\t\n  PUSH [tag] 40\t\t\t\n  PUSH [tag] 19\t\t\t\n  JUMP \t\t\t\ntag 40\t\t\t\n  JUMPDEST \t\t\t\n  PUSH [tag] 41\t\t\t\n  DUP2 \t\t\t\n  PUSH [tag] 42\t\t\t\n  DUP5 \t\t\t\n  SLOAD \t\t\t\n  PUSH [tag] 20\t\t\t\n  JUMP \t\t\t\ntag 42\t\t\t\n  JUMPDEST \t\t\t\n  DUP5 \t\t\t\n  PUSH [tag] 22\t\t\t\n  JUMP \t\t\t\ntag 41\t\t\t\n  JUMPDEST \t\t\t\n  PUSH 20\t\t\t\n  PUSH 1F\t\t\t\n  DUP3 \t\t\t\n  GT \t\t\t\n  PUSH 1\t\t\t\n  DUP2 \t\t\t\n  EQ \t\t\t\n  PUSH [tag] 44\t\t\t\n  JUMPI \t\t\t\n  PUSH 0\t\t\t\n  DUP4 \t\t\t\n  ISZERO \t\t\t\n  PUSH [tag] 45\t\t\t\n  JUMPI \t\t\t\n  POP \t\t\t\n  DUP5 \t\t\t\n  DUP3 \t\t\t\n  ADD \t\t\t\n  MLOAD \t\t\t\ntag 45\t\t\t\n  JUMPDEST \t\t\t\n  PUSH 0\t\t\t\n  NOT \t\t\t\n  PUSH 3\t\t\t\n  DUP6 \t\t\t\n  SWAP1 \t\t\t\n  SHL \t\t\t\n  SHR \t\t\t\n  NOT \t\t\t\n  AND \t\t\t\n  PUSH 1\t\t\t\n  DUP5 \t\t\t\n  SWAP1 \t\t\t\n  SHL \t\t\t\n  OR \t\t\t\n  DUP5 \t\t\t\n  SSTORE \t\t\t\n  PUSH [tag] 43\t\t\t\n  JUMP \t\t\t\ntag 44\t\t\t\n  JUMPDEST \t\t\t\n  PUSH 0\t\t\t \n  DUP5 \t\t\t\\n        asset\n  DUP2 \t\t\t\\n        asset\n  MSTORE \t\t\t\\n        asset\n  PUSH 20\t\t\t8648\n  DUP2 \t\t\t(\"USDT\", \"0xc8648a\n  KECCAK256 \t\t\t(\"USDT\", \"0xc8648a\n  PUSH 1F\t\t\t\n  NOT \t\t\t\n  DUP6 \t\t\t\n  AND \t\t\t\n  SWAP2 \t\t\t\ntag 48\t\t\t\n  JUMPDEST \t\t\t\n  DUP3 \t\t\t\n  DUP2 \t\t\t\n  LT \t\t\t\n  ISZERO \t\t\t\n  PUSH [tag] 50\t\t\t\n  JUMPI \t\t\t\n  DUP8 \t\t\t\n  DUP6 \t\t\t\n  ADD \t\t\t\n  MLOAD \t\t\t\n  DUP3 \t\t\t\n  SSTORE \t\t\t\n  PUSH 20\t\t\t\n  SWAP5 \t\t\t\n  DUP6 \t\t\t\n  ADD \t\t\t\n  SWAP5 \t\t\t\n  PUSH 1\t\t\t\n  SWAP1 \t\t\t\n  SWAP3 \t\t\t\n  ADD \t\t\t\n  SWAP2 \t\t\t\n  ADD \t\t\t\n  PUSH [tag] 48\t\t\t\n  JUMP \t\t\t\ntag 50\t\t\t\n  JUMPDEST \t\t\t\n  POP \t\t\t\n  DUP5 \t\t\t\n  DUP3 \t\t\t\n  LT \t\t\t\n  ISZERO \t\t\t\n  PUSH [tag] 51\t\t\t\n  JUMPI \t\t\t\n  DUP7 \t\t\t\n  DUP5 \t\t\t\n  ADD \t\t\t\n  MLOAD \t\t\t\n  PUSH 0\t\t\t\n  NOT \t\t\t\n  PUSH 3\t\t\t\n  DUP8 \t\t\t\n  SWAP1 \t\t\t\n  SHL \t\t\t\n  PUSH F8\t\t\t\n  AND \t\t\t\n  SHR \t\t\t\n  NOT \t\t\t\n  AND \t\t\t\n  DUP2 \t\t\t\n  SSTORE \t\t\t\ntag 51\t\t\t\n  JUMPDEST \t\t\t\n  POP \t\t\t\n  POP \t\t\t\n  PUSH 1\t\t\t\n  DUP4 \t\t\t\n  PUSH 1\t\t\t\n  SHL \t\t\t\n  ADD \t\t\t\n  DUP5 \t\t\t\n  SSTORE \t\t\t\ntag 43\t\t\t\n  JUMPDEST \t\t\t\n  POP \t\t\t\n  POP \t\t\t\n  POP \t\t\t\n  POP \t\t\t\n  POP \t\t\t\n  JUMP \t\t\t\ntag 24\t\t\t\n  JUMPDEST \t\t\t\n  PUSH #[$] 0000000000000000000000000000000000000000000000000000000000000000\t\t\tcontract WalletPortfolio {\\n  ...\n  DUP1 \t\t\tcontract WalletPortfolio {\\n  ...\n  PUSH [$] 0000000000000000000000000000000000000000000000000000000000000000\t\t\tcontract WalletPortfolio {\\n  ...\n  PUSH 0\t\t\tcontract WalletPortfolio {\\n  ...\n  CODECOPY \t\t\tcontract WalletPortfolio {\\n  ...\n  PUSH 0\t\t\tcontract WalletPortfolio {\\n  ...\n  RETURN \t\t\tcontract WalletPortfolio {\\n  ...\n.data\n  0:\n    .code\n      PUSH 80\t\t\tcontract WalletPortfolio {\\n  ...\n      PUSH 40\t\t\tcontract WalletPortfolio {\\n  ...\n      MSTORE \t\t\tcontract WalletPortfolio {\\n  ...\n      CALLVALUE \t\t\tcontract WalletPortfolio {\\n  ...\n      DUP1 \t\t\tcontract WalletPortfolio {\\n  ...\n      ISZERO \t\t\tcontract WalletPortfolio {\\n  ...\n      PUSH [tag] 1\t\t\tcontract WalletPortfolio {\\n  ...\n      JUMPI \t\t\tcontract WalletPortfolio {\\n  ...\n      PUSH 0\t\t\tcontract WalletPortfolio {\\n  ...\n      PUSH 0\t\t\tcontract WalletPortfolio {\\n  ...\n      REVERT \t\t\tcontract WalletPortfolio {\\n  ...\n    tag 1\t\t\tcontract WalletPortfolio {\\n  ...\n      JUMPDEST \t\t\tcontract WalletPortfolio {\\n  ...\n      POP \t\t\tcontract WalletPortfolio {\\n  ...\n      PUSH 4\t\t\tcontract WalletPortfolio {\\n  ...\n      CALLDATASIZE \t\t\tcontract WalletPortfolio {\\n  ...\n      LT \t\t\tcontract WalletPortfolio {\\n  ...\n      PUSH [tag] 2\t\t\tcontract WalletPortfolio {\\n  ...\n      JUMPI \t\t\tcontract WalletPortfolio {\\n  ...\n      PUSH 0\t\t\tcontract WalletPortfolio {\\n  ...\n      CALLDATALOAD \t\t\tcontract WalletPortfolio {\\n  ...\n      PUSH E0\t\t\tcontract WalletPortfolio {\\n  ...\n      SHR \t\t\tcontract WalletPortfolio {\\n  ...\n      DUP1 \t\t\tcontract WalletPortfolio {\\n  ...\n      PUSH 41398B15\t\t\tcontract WalletPortfolio {\\n  ...\n      EQ \t\t\tcontract WalletPortfolio {\\n  ...\n      PUSH [tag] 3\t\t\tcontract WalletPortfolio {\\n  ...\n      JUMPI \t\t\tcontract WalletPortfolio {\\n  ...\n      DUP1 \t\t\tcontract WalletPortfolio {\\n  ...\n      PUSH 85936228\t\t\tcontract WalletPortfolio {\\n  ...\n      EQ \t\t\tcontract WalletPortfolio {\\n  ...\n      PUSH [tag] 4\t\t\tcontract WalletPortfolio {\\n  ...\n      JUMPI \t\t\tcontract WalletPortfolio {\\n  ...\n      DUP1 \t\t\tcontract WalletPortfolio {\\n  ...\n      PUSH 8DA5CB5B\t\t\tcontract WalletPortfolio {\\n  ...\n      EQ \t\t\tcontract WalletPortfolio {\\n  ...\n      PUSH [tag] 5\t\t\tcontract WalletPortfolio {\\n  ...\n      JUMPI \t\t\tcontract WalletPortfolio {\\n  ...\n    tag 2\t\t\tcontract WalletPortfolio {\\n  ...\n      JUMPDEST \t\t\tcontract WalletPortfolio {\\n  ...\n      PUSH 0\t\t\tcontract WalletPortfolio {\\n  ...\n      PUSH 0\t\t\tcontract WalletPortfolio {\\n  ...\n      REVERT \t\t\tcontract WalletPortfolio {\\n  ...\n    tag 3\t\t\tstring public ethAddress = \"0x...\n      JUMPDEST \t\t\tstring public ethAddress = \"0x...\n      PUSH [tag] 6\t\t\tstring public ethAddress = \"0x...\n      PUSH [tag] 7\t\t\tstring public ethAddress = \"0x...\n      JUMP \t\t\tstring public ethAddress = \"0x...\n    tag 6\t\t\tstring public ethAddress = \"0x...\n      JUMPDEST \t\t\tstring public ethAddress = \"0x...\n      PUSH 40\t\t\tstring public ethAddress = \"0x...\n      MLOAD \t\t\tstring public ethAddress = \"0x...\n      PUSH [tag] 8\t\t\tstring public ethAddress = \"0x...\n      SWAP2 \t\t\tstring public ethAddress = \"0x...\n      SWAP1 \t\t\tstring public ethAddress = \"0x...\n      PUSH [tag] 9\t\t\tstring public ethAddress = \"0x...\n      JUMP \t\t\tstring public ethAddress = \"0x...\n    tag 8\t\t\tstring public ethAddress = \"0x...\n      JUMPDEST \t\t\tstring public ethAddress = \"0x...\n      PUSH 40\t\t\tstring public ethAddress = \"0x...\n      MLOAD \t\t\tstring public ethAddress = \"0x...\n      DUP1 \t\t\tstring public ethAddress = \"0x...\n      SWAP2 \t\t\tstring public ethAddress = \"0x...\n      SUB \t\t\tstring public ethAddress = \"0x...\n      SWAP1 \t\t\tstring public ethAddress = \"0x...\n      RETURN \t\t\tstring public ethAddress = \"0x...\n    tag 4\t\t\tmapping(string => Asset) publi...\n      JUMPDEST \t\t\tmapping(string => Asset) publi...\n      PUSH [tag] 10\t\t\tmapping(string => Asset) publi...\n      PUSH [tag] 11\t\t\tmapping(string => Asset) publi...\n      CALLDATASIZE \t\t\tmapping(string => Asset) publi...\n      PUSH 4\t\t\tmapping(string => Asset) publi...\n      PUSH [tag] 12\t\t\tmapping(string => Asset) publi...\n      JUMP \t\t\tmapping(string => Asset) publi...\n    tag 11\t\t\tmapping(string => Asset) publi...\n      JUMPDEST \t\t\tmapping(string => Asset) publi...\n      PUSH [tag] 13\t\t\tmapping(string => Asset) publi...\n      JUMP \t\t\tmapping(string => Asset) publi...\n    tag 10\t\t\tmapping(string => Asset) publi...\n      JUMPDEST \t\t\tmapping(string => Asset) publi...\n      PUSH 40\t\t\tmapping(string => Asset) publi...\n      MLOAD \t\t\tmapping(string => Asset) publi...\n      PUSH [tag] 8\t\t\tmapping(string => Asset) publi...\n      SWAP4 \t\t\tmapping(string => Asset) publi...\n      SWAP3 \t\t\tmapping(string => Asset) publi...\n      SWAP2 \t\t\tmapping(string => Asset) publi...\n      SWAP1 \t\t\tmapping(string => Asset) publi...\n      PUSH [tag] 15\t\t\tmapping(string => Asset) publi...\n      JUMP \t\t\tmapping(string => Asset) publi...\n    tag 5\t\t\taddress public owner\n      JUMPDEST \t\t\taddress public owner\n      PUSH 0\t\t\taddress public owner\n      SLOAD \t\t\taddress public owner\n      PUSH [tag] 16\t\t\taddress public owner\n      SWAP1 \t\t\taddress public owner\n      PUSH 1\t\t\t\n      PUSH 1\t\t\t\n      PUSH A0\t\t\t\n      SHL \t\t\t\n      SUB \t\t\t\n      AND \t\t\taddress public owner\n      DUP2 \t\t\taddress public owner\n      JUMP \t\t\taddress public owner\n    tag 16\t\t\taddress public owner\n      JUMPDEST \t\t\taddress public owner\n      PUSH 40\t\t\taddress public owner\n      MLOAD \t\t\taddress public owner\n      PUSH 1\t\t\t\n      PUSH 1\t\t\t\n      PUSH A0\t\t\t\n      SHL \t\t\t\n      SUB \t\t\t\n      SWAP1 \t\t\t\n      SWAP2 \t\t\t\n      AND \t\t\t\n      DUP2 \t\t\t\n      MSTORE \t\t\t\n      PUSH 20\t\t\t\n      ADD \t\t\t\n      PUSH [tag] 8\t\t\taddress public owner\n      JUMP \t\t\t\n    tag 7\t\t\tstring public ethAddress = \"0x...\n      JUMPDEST \t\t\tstring public ethAddress = \"0x...\n      PUSH 1\t\t\tstring public ethAddress = \"0x...\n      DUP1 \t\t\tstring public ethAddress = \"0x...\n      SLOAD \t\t\tstring public ethAddress = \"0x...\n      PUSH [tag] 20\t\t\tstring public ethAddress = \"0x...\n      SWAP1 \t\t\tstring public ethAddress = \"0x...\n      PUSH [tag] 21\t\t\tstring public ethAddress = \"0x...\n      JUMP \t\t\tstring public ethAddress = \"0x...\n    tag 20\t\t\tstring public ethAddress = \"0x...\n      JUMPDEST \t\t\tstring public ethAddress = \"0x...\n      DUP1 \t\t\tstring public ethAddress = \"0x...\n      PUSH 1F\t\t\tstring public ethAddress = \"0x...\n      ADD \t\t\tstring public ethAddress = \"0x...\n      PUSH 20\t\t\tstring public ethAddress = \"0x...\n      DUP1 \t\t\tstring public ethAddress = \"0x...\n      SWAP2 \t\t\tstring public ethAddress = \"0x...\n      DIV \t\t\tstring public ethAddress = \"0x...\n      MUL \t\t\tstring public ethAddress = \"0x...\n      PUSH 20\t\t\tstring public ethAddress = \"0x...\n      ADD \t\t\tstring public ethAddress = \"0x...\n      PUSH 40\t\t\tstring public ethAddress = \"0x...\n      MLOAD \t\t\tstring public ethAddress = \"0x...\n      SWAP1 \t\t\tstring public ethAddress = \"0x...\n      DUP2 \t\t\tstring public ethAddress = \"0x...\n      ADD \t\t\tstring public ethAddress = \"0x...\n      PUSH 40\t\t\tstring public ethAddress = \"0x...\n      MSTORE \t\t\tstring public ethAddress = \"0x...\n      DUP1 \t\t\tstring public ethAddress = \"0x...\n      SWAP3 \t\t\tstring public ethAddress = \"0x...\n      SWAP2 \t\t\tstring public ethAddress = \"0x...\n      SWAP1 \t\t\tstring public ethAddress = \"0x...\n      DUP2 \t\t\tstring public ethAddress = \"0x...\n      DUP2 \t\t\tstring public ethAddress = \"0x...\n      MSTORE \t\t\tstring public ethAddress = \"0x...\n      PUSH 20\t\t\tstring public ethAddress = \"0x...\n      ADD \t\t\tstring public ethAddress = \"0x...\n      DUP3 \t\t\tstring public ethAddress = \"0x...\n      DUP1 \t\t\tstring public ethAddress = \"0x...\n      SLOAD \t\t\tstring public ethAddress = \"0x...\n      PUSH [tag] 22\t\t\tstring public ethAddress = \"0x...\n      SWAP1 \t\t\tstring public ethAddress = \"0x...\n      PUSH [tag] 21\t\t\tstring public ethAddress = \"0x...\n      JUMP \t\t\tstring public ethAddress = \"0x...\n    tag 22\t\t\tstring public ethAddress = \"0x...\n      JUMPDEST \t\t\tstring public ethAddress = \"0x...\n      DUP1 \t\t\tstring public ethAddress = \"0x...\n      ISZERO \t\t\tstring public ethAddress = \"0x...\n      PUSH [tag] 23\t\t\tstring public ethAddress = \"0x...\n      JUMPI \t\t\tstring public ethAddress = \"0x...\n      DUP1 \t\t\tstring public ethAddress = \"0x...\n      PUSH 1F\t\t\tstring public ethAddress = \"0x...\n      LT \t\t\tstring public ethAddress = \"0x...\n      PUSH [tag] 24\t\t\tstring public ethAddress = \"0x...\n      JUMPI \t\t\tstring public ethAddress = \"0x...\n      PUSH 100\t\t\tstring public ethAddress = \"0x...\n      DUP1 \t\t\tstring public ethAddress = \"0x...\n      DUP4 \t\t\tstring public ethAddress = \"0x...\n      SLOAD \t\t\tstring public ethAddress = \"0x...\n      DIV \t\t\tstring public ethAddress = \"0x...\n      MUL \t\t\tstring public ethAddress = \"0x...\n      DUP4 \t\t\tstring public ethAddress = \"0x...\n      MSTORE \t\t\tstring public ethAddress = \"0x...\n      SWAP2 \t\t\tstring public ethAddress = \"0x...\n      PUSH 20\t\t\tstring public ethAddress = \"0x...\n      ADD \t\t\tstring public ethAddress = \"0x...\n      SWAP2 \t\t\tstring public ethAddress = \"0x...\n      PUSH [tag] 23\t\t\tstring public ethAddress = \"0x...\n      JUMP \t\t\tstring public ethAddress = \"0x...\n    tag 24\t\t\tstring public ethAddress = \"0x...\n      JUMPDEST \t\t\tstring public ethAddress = \"0x...\n      DUP3 \t\t\tstring public ethAddress = \"0x...\n      ADD \t\t\tstring public ethAddress = \"0x...\n      SWAP2 \t\t\tstring public ethAddress = \"0x...\n      SWAP1 \t\t\tstring public ethAddress = \"0x...\n      PUSH 0\t\t\tstring public ethAddress = \"0x...\n      MSTORE \t\t\tstring public ethAddress = \"0x...\n      PUSH 20\t\t\tstring public ethAddress = \"0x...\n      PUSH 0\t\t\tstring public ethAddress = \"0x...\n      KECCAK256 \t\t\tstring public ethAddress = \"0x...\n      SWAP1 \t\t\tstring public ethAddress = \"0x...\n    tag 25\t\t\tstring public ethAddress = \"0x...\n      JUMPDEST \t\t\tstring public ethAddress = \"0x...\n      DUP2 \t\t\tstring public ethAddress = \"0x...\n      SLOAD \t\t\tstring public ethAddress = \"0x...\n      DUP2 \t\t\tstring public ethAddress = \"0x...\n      MSTORE \t\t\tstring public ethAddress = \"0x...\n      SWAP1 \t\t\tstring public ethAddress = \"0x...\n      PUSH 1\t\t\tstring public ethAddress = \"0x...\n      ADD \t\t\tstring public ethAddress = \"0x...\n      SWAP1 \t\t\tstring public ethAddress = \"0x...\n      PUSH 20\t\t\tstring public ethAddress = \"0x...\n      ADD \t\t\tstring public ethAddress = \"0x...\n      DUP1 \t\t\tstring public ethAddress = \"0x...\n      DUP4 \t\t\tstring public ethAddress = \"0x...\n      GT \t\t\tstring public ethAddress = \"0x...\n      PUSH [tag] 25\t\t\tstring public ethAddress = \"0x...\n      JUMPI \t\t\tstring public ethAddress = \"0x...\n      DUP3 \t\t\tstring public ethAddress = \"0x...\n      SWAP1 \t\t\tstring public ethAddress = \"0x...\n      SUB \t\t\tstring public ethAddress = \"0x...\n      PUSH 1F\t\t\tstring public ethAddress = \"0x...\n      AND \t\t\tstring public ethAddress = \"0x...\n      DUP3 \t\t\tstring public ethAddress = \"0x...\n      ADD \t\t\tstring public ethAddress = \"0x...\n      SWAP2 \t\t\tstring public ethAddress = \"0x...\n    tag 23\t\t\tstring public ethAddress = \"0x...\n      JUMPDEST \t\t\tstring public ethAddress = \"0x...\n      POP \t\t\tstring public ethAddress = \"0x...\n      POP \t\t\tstring public ethAddress = \"0x...\n      POP \t\t\tstring public ethAddress = \"0x...\n      POP \t\t\tstring public ethAddress = \"0x...\n      POP \t\t\tstring public ethAddress = \"0x...\n      DUP2 \t\t\tstring public ethAddress = \"0x...\n      JUMP \t\t\tstring public ethAddress = \"0x...\n    tag 13\t\t\tmapping(string => Asset) publi...\n      JUMPDEST \t\t\tmapping(string => Asset) publi...\n      DUP1 \t\t\tmapping(string => Asset) publi...\n      MLOAD \t\t\tmapping(string => Asset) publi...\n      PUSH 20\t\t\tmapping(string => Asset) publi...\n      DUP2 \t\t\tmapping(string => Asset) publi...\n      DUP4 \t\t\tmapping(string => Asset) publi...\n      ADD \t\t\tmapping(string => Asset) publi...\n      DUP2 \t\t\tmapping(string => Asset) publi...\n      ADD \t\t\tmapping(string => Asset) publi...\n      DUP1 \t\t\tmapping(string => Asset) publi...\n      MLOAD \t\t\tmapping(string => Asset) publi...\n      PUSH 2\t\t\tmapping(string => Asset) publi...\n      DUP3 \t\t\tmapping(string => Asset) publi...\n      MSTORE \t\t\tmapping(string => Asset) publi...\n      SWAP3 \t\t\tmapping(string => Asset) publi...\n      DUP3 \t\t\tmapping(string => Asset) publi...\n      ADD \t\t\tmapping(string => Asset) publi...\n      SWAP2 \t\t\tmapping(string => Asset) publi...\n      SWAP1 \t\t\tmapping(string => Asset) publi...\n      SWAP4 \t\t\tmapping(string => Asset) publi...\n      ADD \t\t\tmapping(string => Asset) publi...\n      KECCAK256 \t\t\tmapping(string => Asset) publi...\n      SWAP2 \t\t\tmapping(string => Asset) publi...\n      MSTORE \t\t\tmapping(string => Asset) publi...\n      DUP1 \t\t\tmapping(string => Asset) publi...\n      SLOAD \t\t\tmapping(string => Asset) publi...\n      DUP2 \t\t\tmapping(string => Asset) publi...\n      SWAP1 \t\t\tmapping(string => Asset) publi...\n      PUSH [tag] 26\t\t\tmapping(string => Asset) publi...\n      SWAP1 \t\t\tmapping(string => Asset) publi...\n      PUSH [tag] 21\t\t\tmapping(string => Asset) publi...\n      JUMP \t\t\tmapping(string => Asset) publi...\n    tag 26\t\t\tmapping(string => Asset) publi...\n      JUMPDEST \t\t\tmapping(string => Asset) publi...\n      DUP1 \t\t\tmapping(string => Asset) publi...\n      PUSH 1F\t\t\tmapping(string => Asset) publi...\n      ADD \t\t\tmapping(string => Asset) publi...\n      PUSH 20\t\t\tmapping(string => Asset) publi...\n      DUP1 \t\t\tmapping(string => Asset) publi...\n      SWAP2 \t\t\tmapping(string => Asset) publi...\n      DIV \t\t\tmapping(string => Asset) publi...\n      MUL \t\t\tmapping(string => Asset) publi...\n      PUSH 20\t\t\tmapping(string => Asset) publi...\n      ADD \t\t\tmapping(string => Asset) publi...\n      PUSH 40\t\t\tmapping(string => Asset) publi...\n      MLOAD \t\t\tmapping(string => Asset) publi...\n      SWAP1 \t\t\tmapping(string => Asset) publi...\n      DUP2 \t\t\tmapping(string => Asset) publi...\n      ADD \t\t\tmapping(string => Asset) publi...\n      PUSH 40\t\t\tmapping(string => Asset) publi...\n      MSTORE \t\t\tmapping(string => Asset) publi...\n      DUP1 \t\t\tmapping(string => Asset) publi...\n      SWAP3 \t\t\tmapping(string => Asset) publi...\n      SWAP2 \t\t\tmapping(string => Asset) publi...\n      SWAP1 \t\t\tmapping(string => Asset) publi...\n      DUP2 \t\t\tmapping(string => Asset) publi...\n      DUP2 \t\t\tmapping(string => Asset) publi...\n      MSTORE \t\t\tmapping(string => Asset) publi...\n      PUSH 20\t\t\tmapping(string => Asset) publi...\n      ADD \t\t\tmapping(string => Asset) publi...\n      DUP3 \t\t\tmapping(string => Asset) publi...\n      DUP1 \t\t\tmapping(string => Asset) publi...\n      SLOAD \t\t\tmapping(string => Asset) publi...\n      PUSH [tag] 27\t\t\tmapping(string => Asset) publi...\n      SWAP1 \t\t\tmapping(string => Asset) publi...\n      PUSH [tag] 21\t\t\tmapping(string => Asset) publi...\n      JUMP \t\t\tmapping(string => Asset) publi...\n    tag 27\t\t\tmapping(string => Asset) publi...\n      JUMPDEST \t\t\tmapping(string => Asset) publi...\n      DUP1 \t\t\tmapping(string => Asset) publi...\n      ISZERO \t\t\tmapping(string => Asset) publi...\n      PUSH [tag] 28\t\t\tmapping(string => Asset) publi...\n      JUMPI \t\t\tmapping(string => Asset) publi...\n      DUP1 \t\t\tmapping(string => Asset) publi...\n      PUSH 1F\t\t\tmapping(string => Asset) publi...\n      LT \t\t\tmapping(string => Asset) publi...\n      PUSH [tag] 29\t\t\tmapping(string => Asset) publi...\n      JUMPI \t\t\tmapping(string => Asset) publi...\n      PUSH 100\t\t\tmapping(string => Asset) publi...\n      DUP1 \t\t\tmapping(string => Asset) publi...\n      DUP4 \t\t\tmapping(string => Asset) publi...\n      SLOAD \t\t\tmapping(string => Asset) publi...\n      DIV \t\t\tmapping(string => Asset) publi...\n      MUL \t\t\tmapping(string => Asset) publi...\n      DUP4 \t\t\tmapping(string => Asset) publi...\n      MSTORE \t\t\tmapping(string => Asset) publi...\n      SWAP2 \t\t\tmapping(string => Asset) publi...\n      PUSH 20\t\t\tmapping(string => Asset) publi...\n      ADD \t\t\tmapping(string => Asset) publi...\n      SWAP2 \t\t\tmapping(string => Asset) publi...\n      PUSH [tag] 28\t\t\tmapping(string => Asset) publi...\n      JUMP \t\t\tmapping(string => Asset) publi...\n    tag 29\t\t\tmapping(string => Asset) publi...\n      JUMPDEST \t\t\tmapping(string => Asset) publi...\n      DUP3 \t\t\tmapping(string => Asset) publi...\n      ADD \t\t\tmapping(string => Asset) publi...\n      SWAP2 \t\t\tmapping(string => Asset) publi...\n      SWAP1 \t\t\tmapping(string => Asset) publi...\n      PUSH 0\t\t\tmapping(string => Asset) publi...\n      MSTORE \t\t\tmapping(string => Asset) publi...\n      PUSH 20\t\t\tmapping(string => Asset) publi...\n      PUSH 0\t\t\tmapping(string => Asset) publi...\n      KECCAK256 \t\t\tmapping(string => Asset) publi...\n      SWAP1 \t\t\tmapping(string => Asset) publi...\n    tag 30\t\t\tmapping(string => Asset) publi...\n      JUMPDEST \t\t\tmapping(string => Asset) publi...\n      DUP2 \t\t\tmapping(string => Asset) publi...\n      SLOAD \t\t\tmapping(string => Asset) publi...\n      DUP2 \t\t\tmapping(string => Asset) publi...\n      MSTORE \t\t\tmapping(string => Asset) publi...\n      SWAP1 \t\t\tmapping(string => Asset) publi...\n      PUSH 1\t\t\tmapping(string => Asset) publi...\n      ADD \t\t\tmapping(string => Asset) publi...\n      SWAP1 \t\t\tmapping(string => Asset) publi...\n      PUSH 20\t\t\tmapping(string => Asset) publi...\n      ADD \t\t\tmapping(string => Asset) publi...\n      DUP1 \t\t\tmapping(string => Asset) publi...\n      DUP4 \t\t\tmapping(string => Asset) publi...\n      GT \t\t\tmapping(string => Asset) publi...\n      PUSH [tag] 30\t\t\tmapping(string => Asset) publi...\n      JUMPI \t\t\tmapping(string => Asset) publi...\n      DUP3 \t\t\tmapping(string => Asset) publi...\n      SWAP1 \t\t\tmapping(string => Asset) publi...\n      SUB \t\t\tmapping(string => Asset) publi...\n      PUSH 1F\t\t\tmapping(string => Asset) publi...\n      AND \t\t\tmapping(string => Asset) publi...\n      DUP3 \t\t\tmapping(string => Asset) publi...\n      ADD \t\t\tmapping(string => Asset) publi...\n      SWAP2 \t\t\tmapping(string => Asset) publi...\n    tag 28\t\t\tmapping(string => Asset) publi...\n      JUMPDEST \t\t\tmapping(string => Asset) publi...\n      POP \t\t\tmapping(string => Asset) publi...\n      POP \t\t\tmapping(string => Asset) publi...\n      POP \t\t\tmapping(string => Asset) publi...\n      POP \t\t\tmapping(string => Asset) publi...\n      POP \t\t\tmapping(string => Asset) publi...\n      SWAP1 \t\t\tmapping(string => Asset) publi...\n      DUP1 \t\t\tmapping(string => Asset) publi...\n      PUSH 1\t\t\tmapping(string => Asset) publi...\n      ADD \t\t\tmapping(string => Asset) publi...\n      DUP1 \t\t\tmapping(string => Asset) publi...\n      SLOAD \t\t\tmapping(string => Asset) publi...\n      PUSH [tag] 31\t\t\tmapping(string => Asset) publi...\n      SWAP1 \t\t\tmapping(string => Asset) publi...\n      PUSH [tag] 21\t\t\tmapping(string => Asset) publi...\n      JUMP \t\t\tmapping(string => Asset) publi...\n    tag 31\t\t\tmapping(string => Asset) publi...\n      JUMPDEST \t\t\tmapping(string => Asset) publi...\n      DUP1 \t\t\tmapping(string => Asset) publi...\n      PUSH 1F\t\t\tmapping(string => Asset) publi...\n      ADD \t\t\tmapping(string => Asset) publi...\n      PUSH 20\t\t\tmapping(string => Asset) publi...\n      DUP1 \t\t\tmapping(string => Asset) publi...\n      SWAP2 \t\t\tmapping(string => Asset) publi...\n      DIV \t\t\tmapping(string => Asset) publi...\n      MUL \t\t\tmapping(string => Asset) publi...\n      PUSH 20\t\t\tmapping(string => Asset) publi...\n      ADD \t\t\tmapping(string => Asset) publi...\n      PUSH 40\t\t\tmapping(string => Asset) publi...\n      MLOAD \t\t\tmapping(string => Asset) publi...\n      SWAP1 \t\t\tmapping(string => Asset) publi...\n      DUP2 \t\t\tmapping(string => Asset) publi...\n      ADD \t\t\tmapping(string => Asset) publi...\n      PUSH 40\t\t\tmapping(string => Asset) publi...\n      MSTORE \t\t\tmapping(string => Asset) publi...\n      DUP1 \t\t\tmapping(string => Asset) publi...\n      SWAP3 \t\t\tmapping(string => Asset) publi...\n      SWAP2 \t\t\tmapping(string => Asset) publi...\n      SWAP1 \t\t\tmapping(string => Asset) publi...\n      DUP2 \t\t\tmapping(string => Asset) publi...\n      DUP2 \t\t\tmapping(string => Asset) publi...\n      MSTORE \t\t\tmapping(string => Asset) publi...\n      PUSH 20\t\t\tmapping(string => Asset) publi...\n      ADD \t\t\tmapping(string => Asset) publi...\n      DUP3 \t\t\tmapping(string => Asset) publi...\n      DUP1 \t\t\tmapping(string => Asset) publi...\n      SLOAD \t\t\tmapping(string => Asset) publi...\n      PUSH [tag] 32\t\t\tmapping(string => Asset) publi...\n      SWAP1 \t\t\tmapping(string => Asset) publi...\n      PUSH [tag] 21\t\t\tmapping(string => Asset) publi...\n      JUMP \t\t\tmapping(string => Asset) publi...\n    tag 32\t\t\tmapping(string => Asset) publi...\n      JUMPDEST \t\t\tmapping(string => Asset) publi...\n      DUP1 \t\t\tmapping(string => Asset) publi...\n      ISZERO \t\t\tmapping(string => Asset) publi...\n      PUSH [tag] 33\t\t\tmapping(string => Asset) publi...\n      JUMPI \t\t\tmapping(string => Asset) publi...\n      DUP1 \t\t\tmapping(string => Asset) publi...\n      PUSH 1F\t\t\tmapping(string => Asset) publi...\n      LT \t\t\tmapping(string => Asset) publi...\n      PUSH [tag] 34\t\t\tmapping(string => Asset) publi...\n      JUMPI \t\t\tmapping(string => Asset) publi...\n      PUSH 100\t\t\tmapping(string => Asset) publi...\n      DUP1 \t\t\tmapping(string => Asset) publi...\n      DUP4 \t\t\tmapping(string => Asset) publi...\n      SLOAD \t\t\tmapping(string => Asset) publi...\n      DIV \t\t\tmapping(string => Asset) publi...\n      MUL \t\t\tmapping(string => Asset) publi...\n      DUP4 \t\t\tmapping(string => Asset) publi...\n      MSTORE \t\t\tmapping(string => Asset) publi...\n      SWAP2 \t\t\tmapping(string => Asset) publi...\n      PUSH 20\t\t\tmapping(string => Asset) publi...\n      ADD \t\t\tmapping(string => Asset) publi...\n      SWAP2 \t\t\tmapping(string => Asset) publi...\n      PUSH [tag] 33\t\t\tmapping(string => Asset) publi...\n      JUMP \t\t\tmapping(string => Asset) publi...\n    tag 34\t\t\tmapping(string => Asset) publi...\n      JUMPDEST \t\t\tmapping(string => Asset) publi...\n      DUP3 \t\t\tmapping(string => Asset) publi...\n      ADD \t\t\tmapping(string => Asset) publi...\n      SWAP2 \t\t\tmapping(string => Asset) publi...\n      SWAP1 \t\t\tmapping(string => Asset) publi...\n      PUSH 0\t\t\tmapping(string => Asset) publi...\n      MSTORE \t\t\tmapping(string => Asset) publi...\n      PUSH 20\t\t\tmapping(string => Asset) publi...\n      PUSH 0\t\t\tmapping(string => Asset) publi...\n      KECCAK256 \t\t\tmapping(string => Asset) publi...\n      SWAP1 \t\t\tmapping(string => Asset) publi...\n    tag 35\t\t\tmapping(string => Asset) publi...\n      JUMPDEST \t\t\tmapping(string => Asset) publi...\n      DUP2 \t\t\tmapping(string => Asset) publi...\n      SLOAD \t\t\tmapping(string => Asset) publi...\n      DUP2 \t\t\tmapping(string => Asset) publi...\n      MSTORE \t\t\tmapping(string => Asset) publi...\n      SWAP1 \t\t\tmapping(string => Asset) publi...\n      PUSH 1\t\t\tmapping(string => Asset) publi...\n      ADD \t\t\tmapping(string => Asset) publi...\n      SWAP1 \t\t\tmapping(string => Asset) publi...\n      PUSH 20\t\t\tmapping(string => Asset) publi...\n      ADD \t\t\tmapping(string => Asset) publi...\n      DUP1 \t\t\tmapping(string => Asset) publi...\n      DUP4 \t\t\tmapping(string => Asset) publi...\n      GT \t\t\tmapping(string => Asset) publi...\n      PUSH [tag] 35\t\t\tmapping(string => Asset) publi...\n      JUMPI \t\t\tmapping(string => Asset) publi...\n      DUP3 \t\t\tmapping(string => Asset) publi...\n      SWAP1 \t\t\tmapping(string => Asset) publi...\n      SUB \t\t\tmapping(string => Asset) publi...\n      PUSH 1F\t\t\tmapping(string => Asset) publi...\n      AND \t\t\tmapping(string => Asset) publi...\n      DUP3 \t\t\tmapping(string => Asset) publi...\n      ADD \t\t\tmapping(string => Asset) publi...\n      SWAP2 \t\t\tmapping(string => Asset) publi...\n    tag 33\t\t\tmapping(string => Asset) publi...\n      JUMPDEST \t\t\tmapping(string => Asset) publi...\n      POP \t\t\tmapping(string => Asset) publi...\n      POP \t\t\tmapping(string => Asset) publi...\n      POP \t\t\tmapping(string => Asset) publi...\n      POP \t\t\tmapping(string => Asset) publi...\n      POP \t\t\tmapping(string => Asset) publi...\n      SWAP1 \t\t\tmapping(string => Asset) publi...\n      DUP1 \t\t\tmapping(string => Asset) publi...\n      PUSH 2\t\t\tmapping(string => Asset) publi...\n      ADD \t\t\tmapping(string => Asset) publi...\n      SLOAD \t\t\tmapping(string => Asset) publi...\n      SWAP1 \t\t\tmapping(string => Asset) publi...\n      POP \t\t\tmapping(string => Asset) publi...\n      DUP4 \t\t\tmapping(string => Asset) publi...\n      JUMP \t\t\tmapping(string => Asset) publi...\n    tag 36\t\t\te-Identifier: MIT\\npragma soli...\n      JUMPDEST \t\t\te-Identifier: MIT\\npragma soli...\n      PUSH 0\t\t\t\\nco\n      DUP2 \t\t\ts pub\n      MLOAD \t\t\taddress publ\n      DUP1 \t\t\tpublic\n      DUP5 \t\t\trin\n      MSTORE \t\t\t\\n    string public \n      DUP1 \t\t\tc6a6a5\n      PUSH 20\t\t\t1d9e\n      DUP5 \t\t\tb6327\n      ADD \t\t\t807db6327cb1d9ee\n      PUSH 20\t\t\te0bc\n      DUP7 \t\t\tbad\n      ADD \t\t\tx5e8bade6e0bce\n      MCOPY \t\t\ts = \"0x5e8bade6e0bce65807db632...\n      PUSH 0\t\t\t \n      PUSH 20\t\t\tname\n      DUP3 \t\t\t  stri\n      DUP7 \t\t\t   \n      ADD \t\t\t {\\n        strin\n      ADD \t\t\tsset {\\n        string name;\n      MSTORE \t\t\ttruct Asset {\\n        string ...\n      PUSH 20\t\t\tappi\n      PUSH 1F\t\t\t\\n\\n\n      NOT \t\t\t   }\\n\\n \n      PUSH 1F\t\t\tnt\n      DUP4 \t\t\t256 am\n      ADD \t\t\tuint256 amount;\n      AND \t\t\t    uint256 amount;\\n    }\\n\\n...\n      DUP6 \t\t\t\\n  \n      ADD \t\t\trId;\\n        uint256 amount;\\...\n      ADD \t\t\tessOrId;\\n        uint256 amou...\n      SWAP2 \t\t\tng addressOrId;\\n        uint2...\n      POP \t\t\tng addressOrId;\\n        uint2...\n      POP \t\t\tng addressOrId;\\n        uint2...\n      SWAP3 \t\t\te-Identifier: MIT\\npragma soli...\n      SWAP2 \t\t\te-Identifier: MIT\\npragma soli...\n      POP \t\t\te-Identifier: MIT\\npragma soli...\n      POP \t\t\te-Identifier: MIT\\npragma soli...\n      JUMP \t\t\te-Identifier: MIT\\npragma soli...\n    tag 9\t\t\t Asset) public assets;\\n\\n    ...\n      JUMPDEST \t\t\t Asset) public assets;\\n\\n    ...\n      PUSH 20\t\t\t5C\n      DUP2 \t\t\tWBTC\", \"0\n      MSTORE \t\t\tAsset(\"WBTC\", \"0x55Cc\n      PUSH 0\t\t\t  as\n      PUSH [tag] 41\t\t\t2d263532F2910b9b17B\", 200);\\n ...\n      PUSH 20\t\t\ts[\n      DUP4 \t\t\t      ass\n      ADD \t\t\t;\\n        assets[\"\n      DUP5 \t\t\tB\", 20\n      PUSH [tag] 36\t\t\t2d263532F2910b9b17B\", 200);\\n ...\n      JUMP \t\t\t2d263532F2910b9b17B\", 200);\\n ...\n    tag 41\t\t\t2d263532F2910b9b17B\", 200);\\n ...\n      JUMPDEST \t\t\t2d263532F2910b9b17B\", 200);\\n ...\n      SWAP4 \t\t\t0de7CDa22d263532F2910b9b17B\", ...\n      SWAP3 \t\t\t Asset) public assets;\\n\\n    ...\n      POP \t\t\t\n      POP \t\t\t\n      POP \t\t\t\n      JUMP \t\t\t Asset) public assets;\\n\\n    ...\n    tag 37\t\t\tet(\"PEPE\", \"0xBCf75f81D7A74cf1...\n      JUMPDEST \t\t\tet(\"PEPE\", \"0xBCf75f81D7A74cf1...\n      PUSH 4E487B71\t\t\t0);\\n      \n      PUSH E0\t\t\t 10\n      SHL \t\t\t71\", 10000);\\n       \n      PUSH 0\t\t\t9\n      MSTORE \t\t\t0fF3E1A9A671\", 10000);\\n      ...\n      PUSH 41\t\t\tset(\n      PUSH 4\t\t\t \n      MSTORE \t\t\tSDT\"] = Asset(\"\n      PUSH 24\t\t\t357e\n      PUSH 0\t\t\t8\n      REVERT \t\t\txc8648a893357e9\n    tag 12\t\t\t58aFE71B8140eD6\", 100);\\n    }...\n      JUMPDEST \t\t\t58aFE71B8140eD6\", 100);\\n    }...\n      PUSH 0\t\t\t\n      PUSH 20\t\t\t\n      DUP3 \t\t\t\n      DUP5 \t\t\t\n      SUB \t\t\t\n      SLT \t\t\t\n      ISZERO \t\t\t\n      PUSH [tag] 44\t\t\t\n      JUMPI \t\t\t\n      PUSH 0\t\t\t\n      PUSH 0\t\t\t\n      REVERT \t\t\t\n    tag 44\t\t\t\n      JUMPDEST \t\t\t\n      DUP2 \t\t\t\n      CALLDATALOAD \t\t\t\n      PUSH FFFFFFFFFFFFFFFF\t\t\t\n      DUP2 \t\t\t\n      GT \t\t\t\n      ISZERO \t\t\t\n      PUSH [tag] 45\t\t\t\n      JUMPI \t\t\t\n      PUSH 0\t\t\t\n      PUSH 0\t\t\t\n      REVERT \t\t\t\n    tag 45\t\t\t\n      JUMPDEST \t\t\t\n      DUP3 \t\t\t\n      ADD \t\t\t\n      PUSH 1F\t\t\t\n      DUP2 \t\t\t\n      ADD \t\t\t\n      DUP5 \t\t\t\n      SGT \t\t\t\n      PUSH [tag] 46\t\t\t\n      JUMPI \t\t\t\n      PUSH 0\t\t\t\n      PUSH 0\t\t\t\n      REVERT \t\t\t\n    tag 46\t\t\t\n      JUMPDEST \t\t\t\n      DUP1 \t\t\t\n      CALLDATALOAD \t\t\t\n      PUSH FFFFFFFFFFFFFFFF\t\t\t\n      DUP2 \t\t\t\n      GT \t\t\t\n      ISZERO \t\t\t\n      PUSH [tag] 48\t\t\t\n      JUMPI \t\t\t\n      PUSH [tag] 48\t\t\t\n      PUSH [tag] 37\t\t\t\n      JUMP \t\t\t\n    tag 48\t\t\t\n      JUMPDEST \t\t\t\n      PUSH 40\t\t\t\n      MLOAD \t\t\t\n      PUSH 1F\t\t\t\n      DUP3 \t\t\t\n      ADD \t\t\t\n      PUSH 1F\t\t\t\n      NOT \t\t\t\n      SWAP1 \t\t\t\n      DUP2 \t\t\t\n      AND \t\t\t\n      PUSH 3F\t\t\t\n      ADD \t\t\t\n      AND \t\t\t\n      DUP2 \t\t\t\n      ADD \t\t\t\n      PUSH FFFFFFFFFFFFFFFF\t\t\t\n      DUP2 \t\t\t\n      GT \t\t\t\n      DUP3 \t\t\t\n      DUP3 \t\t\t\n      LT \t\t\t\n      OR \t\t\t\n      ISZERO \t\t\t\n      PUSH [tag] 50\t\t\t\n      JUMPI \t\t\t\n      PUSH [tag] 50\t\t\t\n      PUSH [tag] 37\t\t\t\n      JUMP \t\t\t\n    tag 50\t\t\t\n      JUMPDEST \t\t\t\n      PUSH 40\t\t\t\n      MSTORE \t\t\t\n      DUP2 \t\t\t\n      DUP2 \t\t\t\n      MSTORE \t\t\t\n      DUP3 \t\t\t\n      DUP3 \t\t\t\n      ADD \t\t\t\n      PUSH 20\t\t\t\n      ADD \t\t\t\n      DUP7 \t\t\t\n      LT \t\t\t\n      ISZERO \t\t\t\n      PUSH [tag] 51\t\t\t\n      JUMPI \t\t\t\n      PUSH 0\t\t\t\n      PUSH 0\t\t\t\n      REVERT \t\t\t\n    tag 51\t\t\t\n      JUMPDEST \t\t\t\n      DUP2 \t\t\t\n      PUSH 20\t\t\t\n      DUP5 \t\t\t\n      ADD \t\t\t\n      PUSH 20\t\t\t\n      DUP4 \t\t\t\n      ADD \t\t\t\n      CALLDATACOPY \t\t\t\n      PUSH 0\t\t\t\n      SWAP2 \t\t\t\n      DUP2 \t\t\t\n      ADD \t\t\t\n      PUSH 20\t\t\t\n      ADD \t\t\t\n      SWAP2 \t\t\t\n      SWAP1 \t\t\t\n      SWAP2 \t\t\t\n      MSTORE \t\t\t\n      SWAP5 \t\t\t\n      SWAP4 \t\t\t58aFE71B8140eD6\", 100);\\n    }...\n      POP \t\t\t\n      POP \t\t\t\n      POP \t\t\t\n      POP \t\t\t\n      JUMP \t\t\t58aFE71B8140eD6\", 100);\\n    }...\n    tag 15\t\t\t\n      JUMPDEST \t\t\t\n      PUSH 60\t\t\t\n      DUP2 \t\t\t\n      MSTORE \t\t\t\n      PUSH 0\t\t\t\n      PUSH [tag] 53\t\t\t\n      PUSH 60\t\t\t\n      DUP4 \t\t\t\n      ADD \t\t\t\n      DUP7 \t\t\t\n      PUSH [tag] 36\t\t\t\n      JUMP \t\t\t\n    tag 53\t\t\t\n      JUMPDEST \t\t\t\n      DUP3 \t\t\t\n      DUP2 \t\t\t\n      SUB \t\t\t\n      PUSH 20\t\t\t\n      DUP5 \t\t\t\n      ADD \t\t\t\n      MSTORE \t\t\t\n      PUSH [tag] 54\t\t\t\n      DUP2 \t\t\t\n      DUP7 \t\t\t\n      PUSH [tag] 36\t\t\t\n      JUMP \t\t\t\n    tag 54\t\t\t\n      JUMPDEST \t\t\t\n      SWAP2 \t\t\t\n      POP \t\t\t\n      POP \t\t\t\n      DUP3 \t\t\t\n      PUSH 40\t\t\t\n      DUP4 \t\t\t\n      ADD \t\t\t\n      MSTORE \t\t\t\n      SWAP5 \t\t\t\n      SWAP4 \t\t\t\n      POP \t\t\t\n      POP \t\t\t\n      POP \t\t\t\n      POP \t\t\t\n      JUMP \t\t\t\n    tag 21\t\t\t\n      JUMPDEST \t\t\t\n      PUSH 1\t\t\t\n      DUP2 \t\t\t\n      DUP2 \t\t\t\n      SHR \t\t\t\n      SWAP1 \t\t\t\n      DUP3 \t\t\t\n      AND \t\t\t\n      DUP1 \t\t\t\n      PUSH [tag] 57\t\t\t\n      JUMPI \t\t\t\n      PUSH 7F\t\t\t\n      DUP3 \t\t\t\n      AND \t\t\t\n      SWAP2 \t\t\t\n      POP \t\t\t\n    tag 57\t\t\t\n      JUMPDEST \t\t\t\n      PUSH 20\t\t\t\n      DUP3 \t\t\t\n      LT \t\t\t\n      DUP2 \t\t\t\n      SUB \t\t\t\n      PUSH [tag] 58\t\t\t\n      JUMPI \t\t\t\n      PUSH 4E487B71\t\t\t\n      PUSH E0\t\t\t\n      SHL \t\t\t\n      PUSH 0\t\t\t\n      MSTORE \t\t\t\n      PUSH 22\t\t\t\n      PUSH 4\t\t\t\n      MSTORE \t\t\t\n      PUSH 24\t\t\t\n      PUSH 0\t\t\t\n      REVERT \t\t\t\n    tag 58\t\t\t\n      JUMPDEST \t\t\t\n      POP \t\t\t\n      SWAP2 \t\t\t\n      SWAP1 \t\t\t\n      POP \t\t\t\n      JUMP \t\t\t\n    .data\n  6BB443FA775D52A208F366D905E0DD2F182982A45315BCAD580C03C7554D3909:\n    307842436637356638314437413734636631386134314332363734343346306646334531413941363731\n  7761D303296C56B707FC284175FB88D5D92402C32DE3A83A309A04FC7851AD77:\n    307863383634386138393333353765393839333636393033364265353861464537314238313430654436\n  800B912D17894E852EB436424D0B96E1D36560E0A99E6F0B55DDA9153590EA0E:\n    307835354363353662393262376661306465374344613232643236333533324632393130623962313742\n  EB05D8F518CBE0BF61FAF00EE2D22F85A359F0D750ACD8B9AB88BB4B82307E85:\n    307835653862616465366530626365363538303764623633323763623164396565623763366136613562\n"
}